:100000000C9480000C94B9050C94E6050C94A8009F
:100010000C94A8000C94A8000C94A8000C94A800C0
:100020000C94A8000C94A8000C94A8000C945508FB
:100030000C94A8000C94A8000C94A8000C94A800A0
:100040000C9413060C94A8000C940A010C9458010B
:100050000C94A8000C94A8000C94A8000C94A80080
:100060000C94A8000C94A8002A2A2A2A2A20525567
:100070004E4E494E473A20736572766F5F746573D2
:10008000742E696E6F002A2A2A2A2A205345545555
:10009000503A20736572766F5F746573742E696E63
:1000A0006F0000000000240027002A00000000006C
:1000B000250028002B000000000023002600290056
:1000C00004040404040404040202020202020303FE
:1000D0000303030301020408102040800102040806
:1000E0001020010204081020000000070002010097
:1000F000000304060000000000000000AA00C40283
:1001000011241FBECFEFD8E0DEBFCDBF11E0A0E0CD
:10011000B1E0E4E5F3E102C005900D92AC34B10723
:10012000D9F712E0ACE4B1E001C01D92AC33B107E5
:10013000E1F710E0C0E0D1E004C02297FE010E9488
:10014000A409CC3FD107C9F70E941A030C94A8094F
:100150000C9400008CE491E065E042EC51E028E072
:1001600037E00E94970510925D01089580915E012D
:100170008823B1F08BE591E060ED77E00E94880480
:10018000882321F187EE91E060E071E00E9459043C
:100190008CE491E064EB0E94080510925E0116C0A9
:1001A0008BE591E060ED77E00E948804882371F090
:1001B00087EE91E06BE071E00E9459048CE491E0DD
:1001C00060E00E94080581E080935E018CE491E08C
:1001D0000E94F40408950F931F9307EE11E0C801E5
:1001E00040E051EE60E070E00E949301C80166E8D3
:1001F00070E00E9496038CE491E06CED75E00E9443
:100200005F05C80168E670E00E9496031F910F9198
:10021000089508951F920F920FB60F9211242F93F5
:100220003F934F938F939F93EF93FF938091C000E1
:1002300082FD1DC04091C60020919F013091A00118
:100240002F5F3F4F2F7330708091A1019091A201D9
:100250002817390771F0E0919F01F091A001E15A50
:10026000FE4F40833093A00120939F0102C08091F4
:10027000C600FF91EF919F918F914F913F912F91E8
:100280000F900FBE0F901F901895E091F301F09121
:10029000F401E05CFF4F8191919120813181821BBB
:1002A000930B8F739070892B11F00E9409010895B0
:1002B0001F920F920FB60F9211242F933F938F939B
:1002C0009F93EF93FF932091E3013091E40180919C
:1002D000E5019091E6012817390731F48091C100BA
:1002E0008F7D8093C10014C0E091E501F091E6019B
:1002F000ED55FE4F20818091E5019091E601019638
:100300008F7390709093E6018093E5012093C6006F
:10031000FF91EF919F918F913F912F910F900FBE81
:100320000F901F901895AF92BF92DF92EF92FF92BD
:100330000F931F93CF93DF93EC017A018B01DD24A0
:10034000403081EE580780E0680780E0780711F0C0
:10035000DD24D39491E0A92EB12CEC89FD89DD2018
:1003600069F0C50108A002C0880F991F0A94E2F73E
:10037000808360E079E08DE390E005C0108260E862
:1003800074E88EE190E0A80197010E946509215070
:10039000304040405040569547953795279580E12D
:1003A0002030380720F0DD2011F0DD24D6CFE88999
:1003B000F9893083EA89FB89208319A2EE89FF89B4
:1003C000408121E030E0C9010C8C02C0880F991FE8
:1003D0000A94E2F7482B4083EE89FF894081C901E6
:1003E0000D8C02C0880F991F0A94E2F7482B4083B6
:1003F000EE89FF894081C9010E8C02C0880F991FC8
:100400000A94E2F7482B4083EE89FF8980810F8CA4
:1004100002C0220F331F0A94E2F72095282320837D
:10042000DF91CF911F910F91FF90EF90DF90BF90E0
:10043000AF900895DC011C96ED91FC911D97E05C56
:10044000FF4F2191319180819181281B390B2F73AE
:100450003070C9010895DC011C96ED91FC911D9747
:10046000E05CFF4F20813181E054F040DF01AE5B62
:10047000BF4F8D919C9111972817390719F42FEFD1
:100480003FEF07C08D919C91E80FF91F8081282FC5
:1004900030E0C9010895DC011C96ED91FC911D9797
:1004A000E05CFF4F20813181E054F040DF01AE5B22
:1004B000BF4F8D919C9111972817390719F42FEF91
:1004C0003FEF10C08D919C911197E80FF91F20818B
:1004D0008D919C91119701968F73907011969C93BA
:1004E0008E9330E0C9010895DC0191968C9191972B
:1004F000882339F05496ED91FC915597808186FFC1
:10050000F9CF91961C920895CF93DF93EC01EE857D
:10051000FF85E05CFF4F20813181E054F0402F5F88
:100520003F4F2F733070DF01AE5BBF4F8D919C91B9
:10053000119728173907D1F3E05CFF4F8081918133
:10054000E054F040E80FF91F6083EE85FF85E05C22
:10055000FF4F31832083EE89FF89208181E090E085
:100560000F8C02C0880F991F0A94E2F7282B208372
:1005700081E089A3EC89FD8980818064808381E0AA
:1005800090E0DF91CF9108951092EA011092E90175
:1005900088EE93E0A0E0B0E08093EB019093EC0153
:1005A000A093ED01B093EE0180E491E09093E80117
:1005B0008093E7018FE591E09093F4018093F3013C
:1005C00083EA91E09093F6018093F50185EC90E049
:1005D0009093F8018093F70184EC90E09093FA01F6
:1005E0008093F90180EC90E09093FC018093FB01F3
:1005F00081EC90E09093FE018093FD0182EC90E00D
:10060000909300028093FF0186EC90E090930202A9
:100610008093010284E08093030283E080930402CC
:1006200087E08093050285E08093060281E0809355
:1006300007020895CF93DF930E9469060E94EB00A2
:10064000C5E4D1E00E94B6002097E1F30E94450185
:10065000F9CFCF92DF92EF92FF920F931F93CF9338
:10066000DF937C016B018A01C0E0D0E00FC0D601AE
:100670006D916D01D701ED91FC910190F081E02D1C
:10068000C7010995C80FD91F015010400115110568
:1006900071F7CE01DF91CF911F910F91FF90EF90F5
:1006A000DF90CF900895EF92FF920F931F93CF9317
:1006B000DF937C018B01C0E0D0E0F8010F5F1F4F9A
:1006C0006491662359F0D701ED91FC910190F0817E
:1006D000E02DC7010995C80FD91FEFCFCE01DF91DB
:1006E000CF911F910F91FF90EF900895EF92FF929D
:1006F0000F931F938C01DC01ED91FC910190F0812F
:10070000E02D6DE009957C01D801ED91FC910190FF
:10071000F081E02DC8016AE009959C012E0D3F1D76
:10072000C9011F910F91FF90EF900895EF92FF92F2
:100730000F931F937C010E9453038C01C7010E94F9
:1007400076039C01200F311FC9011F910F91FF906B
:10075000EF900895CF93DF93EC016115710519F4C3
:1007600020E030E00FC0DB010D900020E9F7119789
:10077000A61BB70BE881F9810280F381E02DAD0162
:1007800009959C01C901DF91CF9108954F925F9225
:100790007F928F929F92AF92BF92CF92DF92EF9211
:1007A000FF920F931F93DF93CF93CDB7DEB7A1973F
:1007B0000FB6F894DEBF0FBECDBF2C01742ECB0157
:1007C000223008F42AE019A231E2C32ED12CCC0E3B
:1007D000DD1E822E9924AA24BB24672D752FA50126
:1007E00094010E94650979018A01C801B701A50138
:1007F00094010E941309472D461B0894C108D10893
:100800004A3010F4405D01C0495CF6014083E114B8
:10081000F1040105110521F07E2C5F2DC801DDCF0B
:10082000C201B6010E94AA03A1960FB6F894DEBFDA
:100830000FBECDBFCF91DF911F910F91FF90EF9031
:10084000DF90CF90BF90AF909F908F907F905F9000
:100850004F900895DC012115310541F4ED91FC9193
:100860000190F081E02D642F099508950E94C60340
:100870000895CF92DF92EF92FF920F931F936C0136
:100880007B019A0100E010E0B801A7010E942A0450
:100890008C01C6010E947603080F191FC8011F9121
:1008A0000F91FF90EF90DF90CF9008950E94AA03E0
:1008B0000895EF92FF920F931F937C010E94AA0369
:1008C0008C01C7010E947603080F191FC8011F91F0
:1008D0000F91FF90EF9008950F931F93CF93DF93A5
:1008E0008C01EB0180E06115710509F081E0F801F0
:1008F0008283882341F00E945B062197C60FD71F91
:10090000F801D183C083DF91CF911F910F9108959A
:10091000EF92FF920F931F93CF93DF93EC017B0134
:100920008A81882311F400E00FC0088119810E9498
:100930005B06C801861B970B2AEE8136920710F4DE
:1009400000E006C0082F0195CE01B7010E946C049B
:10095000802FDF91CF911F910F91FF90EF9008951D
:10096000CF93DF93EC012B853C854D855E85CA01D5
:1009700002962817390718F0225030400AC0421753
:10098000530768F0CA0102978217930728F02E5F79
:100990003F4F3C872B8705C02417350710F45C8731
:1009A0004B8787EE91E068E271E00E9456046B8508
:1009B0007C8587EE91E04AE050E00E9439046B8527
:1009C0007C85CE010E949A072B853C858D859E856E
:1009D0002817390731F4CE01039660E070E00E94D9
:1009E0006C04DF91CF910895CF93DF93EC018D815B
:1009F000882359F0CE01039662E070E00E948804DB
:100A0000882319F0CE010E94B004DF91CF910895A0
:100A1000AF92BF92CF92DF92EF92FF920F931F930C
:100A2000CF93DF93EC0100D000D0EDB7FEB7319645
:100A3000653B08F064EB70E080E090E0AF80B88444
:100A4000CC24DD2429853A8540E050E020833183A1
:100A50004283538320E030E040E050E0F4EBEF2E9F
:100A6000F12C012D112D0E9437077E876D870F9085
:100A70000F900F900F908B859C858F5F9F4F31F467
:100A800087EE91E062E171E00E9459048B859C85BC
:100A90008F5F9F4F49F0CE01039662E070E00E94A5
:100AA0006C04CE010E94B004DF91CF911F910F9191
:100AB000FF90EF90DF90CF90BF90AF900895CF93CD
:100AC000DF93EC017C876B872F8138856217730772
:100AD00010F43C872B8729853A858B859C852817C0
:100AE000390710F43C872B878B859C859E878D87E3
:100AF0006E814F81588529853A85CE0170E00E942C
:100B0000D6076B857C85CE010E949A0787EE91E01F
:100B10006FE271E00E9456046B857C8587EE91E060
:100B20004AE050E00E943904DF91CF910895BF92CE
:100B3000CF92DF92EF92FF920F931F938C01B62E0C
:100B40007A0169010E948007F8011582B682F08659
:100B5000E782D286C1868FEF9FEF948783871686C0
:100B600015861F910F91FF90EF90DF90CF90BF906F
:100B700008951F920F920FB60F9211242F933F9357
:100B80004F935F936F937F938F939F93AF93BF9395
:100B9000EF93FF938091090290910A02892B29F02B
:100BA000E0910902F0910A020995FF91EF91BF913E
:100BB000AF919F918F917F916F915F914F913F91F5
:100BC0002F910F900FBE0F901F9018951F920F92AC
:100BD0000FB60F9211242F933F934F935F936F9310
:100BE0007F938F939F93AF93BF93EF93FF938091E6
:100BF0000B0290910C02892B29F0E0910B02F091ED
:100C00000C020995FF91EF91BF91AF919F918F9148
:100C10007F916F915F914F913F912F910F900FBEF8
:100C20000F901F9018951F920F920FB60F921124DC
:100C30002F933F938F939F93AF93BF938091110214
:100C400090911202A0911302B091140230911502FA
:100C50000196A11DB11D232F2D5F2D3720F02D579B
:100C60000196A11DB11D209315028093110290934E
:100C70001202A0931302B093140280910D0290917E
:100C80000E02A0910F02B09110020196A11DB11D9C
:100C900080930D0290930E02A0930F02B093100266
:100CA000BF91AF919F918F913F912F910F900FBE68
:100CB0000F901F9018958FB7F894209111023091E2
:100CC000120240911302509114028FBFB901CA0160
:100CD0000895789484B5826084BD84B5816084BDB4
:100CE00085B5826085BD85B5816085BDEEE6F0E0A5
:100CF000808181608083E1E8F0E010828081826001
:100D00008083808181608083E0E8F0E08081816081
:100D10008083E1EBF0E0808184608083E0EBF0E0B1
:100D2000808181608083EAE7F0E080818460808355
:100D300080818260808380818160808380818068FF
:100D400080831092C1000895CF93DF93482F50E025
:100D5000CA018C529F4FFC01349140545F4FFA01FD
:100D60008491882369F190E0880F991FFC01EE556A
:100D7000FF4FA591B491FC01E455FF4FC591D4916B
:100D8000662351F42FB7F8948C91932F9095892373
:100D90008C93888189230BC0623061F42FB7F8945B
:100DA0008C91932F909589238C938881832B8883B2
:100DB0002FBF06C09FB7F8948C91832B8C939FBF55
:100DC000DF91CF910895482F50E0CA0188519F4F7D
:100DD000FC012491CA018C529F4FFC019491405414
:100DE0005F4FFA013491332309F440C0222351F1BB
:100DF000233071F0243028F42130A1F0223011F595
:100E000014C02630B1F02730C1F02430D9F404C02A
:100E1000809180008F7703C0809180008F7D8093C8
:100E2000800010C084B58F7702C084B58F7D84BDEB
:100E300009C08091B0008F7703C08091B0008F7D92
:100E40008093B000E32FF0E0EE0FFF1FE455FF4F5B
:100E5000A591B4912FB7F894662321F48C919095C5
:100E6000892302C08C91892B8C932FBF08952F92D8
:100E70003F924F925F926F927F928F929F92AF922A
:100E8000BF92CF92DF92EF92FF920F931F93DF9367
:100E9000CF93CDB7DEB73B014C0119012A016D8913
:100EA0007E898F89988D6A197B098C099D09621A40
:100EB000730A840A950AA40193010E941309E21897
:100EC000F30804091509A80197010E9487092A0D52
:100ED0003B1D4C1D5D1DB901CA01CF91DF911F91D2
:100EE0000F91FF90EF90DF90CF90BF90AF909F90C9
:100EF0008F907F906F905F904F903F902F900895CC
:100F0000FC01809116028C3090F480838F5F809377
:100F10001602815090E0FC01EE0FFF1FE80FF91F51
:100F2000E95EFD4F88EB9BE09283818308958FEF0C
:100F300080830895FC0120812C30B8F581819927A8
:100F400087FD909548E850E0481B590B440F551F0A
:100F5000440F551F6417750784F08281992787FD18
:100F6000909548E552E0481B590B440F551F440F1C
:100F7000551F641775070CF4AB0142505040CA016D
:100F8000AA2797FDA095BA2F880F991FAA1FBB1FEC
:100F90004FB7F89430E0F901EE0FFF1FE20FF31F97
:100FA000E95EFD4F928381834FBF0895CF92DF9218
:100FB000EF92FF921F93CF93DF93EC01162F7A01EC
:100FC000690188818C3008F064C0862F61E00E943E
:100FD000A406888190E0FC01EE0FFF1FE80FF91FC7
:100FE000E95EFD4F1F738081807C812B808380E2CE
:100FF00092E08E199F0964E070E00E9452096983B3
:1010000080E699E08C199D0964E070E00E94520925
:101010006A83A8818A2F6CE00E943209682F90E0D1
:10102000AC01440F551F480F591F440F551F440F63
:10103000551F20E030E0C901840F951FFC01EE0F21
:10104000FF1FE80FF91FE95EFD4F808186FD15C087
:101050002F5F3F4F2C30310571F724C01092800074
:1010600082E0809381001092850010928400B19AF2
:1010700080916F00826080936F008A2F90E0FC0166
:10108000EE0FFF1FE80FF91FE95EFD4F80818064BE
:1010900080838881DF91CF911F91FF90EF90DF9047
:1010A000CF9008956623D1F2E8CF1F920F920FB62A
:1010B0000F9211242F933F934F935F936F937F93DE
:1010C0008F939F93AF93BF93EF93FF9380913B02D6
:1010D00087FF05C010928500109284002BC02091DC
:1010E0003B02332727FD30958091160290E02817A8
:1010F000390704F580913B02992787FD9095FC0103
:10110000EE0FFF1FE80FF91FE95EFD4F808186FF9C
:1011100011C080913B02992787FD9095FC01EE0F4D
:10112000FF1FE80FF91FE95EFD4F80818F7360E0BC
:101130000E94E30680913B028F5F80933B022091E7
:101140003B02332727FD30958091160290E0281747
:1011500039070CF04EC080913B028C300CF049C036
:10116000209184003091850080913B02992787FD72
:101170009095FC01EE0FFF1FE80FF91FE95EFD4F90
:1011800081819281280F391F309389002093880034
:1011900080913B02992787FD9095FC01EE0FFF1F80
:1011A000E80FF91FE95EFD4F808186FF2BC080911B
:1011B0003B02992787FD9095FC01EE0FFF1FE80F7A
:1011C000F91FE95EFD4F80818F7361E00E94E306A5
:1011D00019C080E49CE905C080918400909185004D
:1011E000049690938900809388008FEF80933B0250
:1011F00009C08091840090918500049680549C4998
:1012000040F3EACFFF91EF91BF91AF919F918F9102
:101210007F916F915F914F913F912F910F900FBEF2
:101220000F901F901895629FD001739FF001829FCD
:10123000E00DF11D649FE00DF11D929FF00D839F65
:10124000F00D749FF00D659FF00D9927729FB00D02
:10125000E11DF91F639FB00DE11DF91FBD01CF0115
:1012600011240895991B79E004C0991F961708F07E
:10127000961B881F7A95C9F780950895AA1BBB1BFA
:1012800051E107C0AA1FBB1FA617B70710F0A61B86
:10129000B70B881F991F5A95A9F780959095BC01A7
:1012A000CD01089597FB092E07260AD077FD04D0BB
:1012B000E5DF06D000201AF4709561957F4F089500
:1012C000F6F7909581959F4F0895A1E21A2EAA1BDB
:1012D000BB1BFD010DC0AA1FBB1FEE1FFF1FA217E6
:1012E000B307E407F50720F0A21BB30BE40BF50BE3
:1012F000661F771F881F991F1A9469F7609570956C
:10130000809590959B01AC01BD01CF01089597FB9D
:10131000092E05260ED057FD04D0D7DF0AD0001CB9
:1013200038F450954095309521953F4F4F4F5F4F82
:101330000895F6F790958095709561957F4F8F4F42
:101340009F4F0895EE0FFF1F0590F491E02D099433
:04135000F894FFCF3F
:10135400434C4F5345443D313830004F50454E3D8A
:101364003000736572766F206E6F7420696E6974D5
:1013740069616C697A656400737465703A2000531E
:101384006572766F20696E69743A2000000000006F
:0C139400840229031A024B022B0274028F
:00000001FF
