:100000000C9480000C94B9050C94E6050C94A8009F
:100010000C94A8000C94A8000C94A8000C94A800C0
:100020000C94A8000C94A8000C94A8000C945508FB
:100030000C94A8000C94A8000C94A8000C94A800A0
:100040000C9413060C94A8000C940A010C9458010B
:100050000C94A8000C94A8000C94A8000C94A80080
:100060000C94A8000C94A8002A2A2A2A2A20525567
:100070004E4E494E473A20736572766F5F746573D2
:10008000742E696E6F002A2A2A2A2A205345545555
:10009000503A20736572766F5F746573742E696E63
:1000A0006F0000000000240027002A00000000006C
:1000B000250028002B000000000023002600290056
:1000C00004040404040404040202020202020303FE
:1000D0000303030301020408102040800102040806
:1000E0001020010204081020000000070002010097
:00000001FF
