:100000000C9455020C94851B0C94B21B0C94850225
:100010000C9485020C9485020C9485020C94850244
:100020000C9485020C9485020C9485020C94850234
:100030000C9485020C9485020C9485020C94850224
:100040000C94E6070C9485020C9464090C94B20994
:100050000C9485020C9485020C9485020C94850204
:100060000C9485020C948502084800420188C12145
:10007000A000000000801CC271988FF91C070000CE
:1000800000701CE2718EEF73A28F8B8228721EE7C4
:1000900071BE288AA2E8E384830008200020800340
:1000A0000202090C00000000000800000000808827
:1000B0004000004251BC2910108120000080222302
:1000C0008A984088A2882030308822258A92208809
:1000D00022024A826D8AA2288A88288AA2082204DB
:1000E000420110200020400002000808000000002B
:1000F0000008000000004008A1020002F80A2400E5
:1001000008A222000040320282942780A288208C1C
:10011000CF80BA280AA2200822022A826A8AA2284C
:100120000A88288A14052108220200EFF13CE7F131
:100130001EC34988A5711EAFF1BE688BA2E84308B3
:1001400001010002501C420008C2F9800F402A023F
:100150006114E8411C0F00030043BAE809A2E7C993
:100160003E021A82AA8A9EE8718848A9088220085D
:10017000020080280AA24888220229886A8AA26886
:10018000088848A99408210802000002F828A10262
:1001900008A2220000202682803E28422208008CED
:1001A000CF209A2F0AA2208822222A82288B82A876
:1001B000808848A914422010020080280AA24F8893
:1001C000220219882A8AA228708848A988884008AB
:1001D00001000000509E2C01108120088020224246
:1001E0008890282222842030300082288A92208819
:1001F00022224A82288B8228898888D822222010AD
:100200000200802C0AA240F0220229882A8AA22811
:1002100080888CA8144F4008010000020008CC021E
:10022000A000000880101CE27338C7211C83200046
:1002300000209CE8718E2FF0A2CF89BE2872022781
:100240007208878822E2E3A003FC00EBF13C4780C0
:100250002207499C28721E2F78308B5022E8838811
:10026000000000000000000000000004001000007A
:10027000000000000000100000000000000000006E
:10028000000000000000000C000000000000002042
:10029000000000000000007000E000000000020804
:1002A00000000000000700000000205F06442A2A2A
:1002B0002A2A2A2052554E4E494E473A20746865E4
:1002C000726D6F636F75706C652E696E6F00746808
:1002D00065726D6F636F75706C652E696E6F002A45
:1002E0002A2A2A2A2053455455503A2074686572A8
:1002F0006D6F636F75706C652E696E6F0000000026
:1003000000240027002A0000000000250028002B00
:100310000000000000230026002900040404040457
:1003200004040402020202020203030303030301A2
:100330000204081020408001020408102001020479
:10034000081020000000070002010000030406005E
:1003500000000000000000202031396B6270730043
:1003600020206C6F7720545820706F7765720020C2
:100370006D6F64653D002067726F75705F69643DE5
:1003800000436F6E666967204E65743A206E6F6435
:10039000655F69643D00436F6E6669673A20004E91
:1003A00065743A3A646F53656E643A2000206E6F4C
:1003B0007420666F756E6420696E20636F6E666967
:1003C000675F7265616400436F6E6669673A206DAE
:1003D0006F64756C652000206E6F7420666F756E9B
:1003E0006420696E20636F6E6669675F77726974F7
:1003F0006500436F6E6669673A206D6F64756C6562
:1004000020002020435243206D617463686573218E
:1004100000202043524320646F6573206E6F742068
:100420006D61746368210020627974657300206DCA
:10043000617829002076732E200020697320746F64
:100440006F206C61726765202800434F4E46494714
:100450003A2074686520636F6E66696720666F7204
:10046000206D6F64756C6520230020636F6E666974
:1004700067732000436F6E6669673A200020214E43
:100480004F4E45212000207266313200206C63649B
:10049000002073657269616C00436F6E6669672046
:1004A0004C6F673A00008B051E0B11241FBECFEF67
:1004B000D8E0DEBFCDBF809100018093D10780914D
:1004C00001018093D20711E0A0E0B1E0EAE1FCE392
:1004D00002C005900D92A637B107D9F717E0A6E73D
:1004E000B1E001C01D92A13DB107E1F714E0CAEAF5
:1004F000D4E004C02297FE010E94D01DC63AD10765
:10050000C9F70E94740B0C940B1E0C940000FB01A5
:10051000DC0102C001900D9241505040D8F708957F
:10052000A0E0B0E0E6E9F2E00C94DE1D7C01EB0116
:100530008A01690109C0CE012196F6010995F701EA
:1005400081937F010150104001151105A1F7CDB72E
:10055000DEB7E8E00C94FA1DA0E0B0E0E2EBF2E0D8
:100560000C94DE1DEC017B018A01690109C0CE01FA
:100570002196F70161917F01F60109950150104024
:1005800001151105A1F7CDB7DEB7E8E00C94FA1D0F
:10059000DF92EF92FF920F931F93D72E7A018C0177
:1005A000FA010995C80101966D2DF70109951F9172
:1005B0000F91FF90EF90DF900895AEE0B0E0E3EE92
:1005C000F2E00C94E21D0D891E898F89988D97FFAA
:1005D00002C080E090E801979E838D831A8309838F
:1005E00086E08C839E01255E3F4FCE010196698D8A
:1005F0007A8DA9010E940E034D815E8157FD0AC0CC
:100600002F813885421753070CF49A01020F131FEC
:10061000F80110822E96E4E00C94FE1DABE0B0E0F1
:10062000E4E1F3E00C94D41D3C012B015A01FC01E0
:1006300017821682838181FD03C06FEF7FEFC6C1F1
:100640009AE0892E1E010894211C311CF30123819C
:10065000F20123FD859123FF81912F01882309F465
:10066000B2C1853239F423FD859123FF81912F0199
:10067000853229F490E0B3010E940105E7CF982F5D
:10068000FF24EE249924FFE1FF15D0F09B3269F09E
:100690009C3228F4903259F0933291F40EC09D327E
:1006A00049F0903369F441E024C052E0F52A84E037
:1006B000F82A28C098E0F92A25C0E0E1FE2A22C0E5
:1006C000F7FC29C0892F80538A3070F4F6FE05C0EC
:1006D000989C902C1124980E15C0E89CE02C1124B5
:1006E000E80EF0E2FF2A0EC09E3229F4F6FC6BC140
:1006F00040E4F42A07C09C3619F450E8F52A02C0F9
:10070000983649F4F20123FD959123FF91912F0131
:10071000992309F0B8CF892F8554833018F080527F
:10072000833038F444E050E0A40EB51E5FE35983F3
:100730000FC0933631F0933779F0933509F056C0F6
:1007400020C0F5018081898342E050E0A40EB51EEF
:10075000610101E010E012C0F501C080D180F6FC1B
:1007600003C06FEF7FEF02C0692D70E042E050E000
:10077000A40EB51EC6010E94F6048C015FE7F522A7
:1007800014C0F501C080D180F6FC03C06FEF7FEF8D
:1007900002C0692D70E042E050E0A40EB51EC60113
:1007A0000E94EB048C0150E8F52AF3FE07C01AC042
:1007B00080E290E0B3010E940105EA948E2D90E062
:1007C00008171907A8F30EC0F601F7FC8591F7FE8C
:1007D00081916F0190E0B3010E940105E110EA945C
:1007E000015010400115110579F7EAC0943611F057
:1007F000993669F5F7FE08C0F50120813181428103
:10080000538184E090E00AC0F501808191819C01D0
:10081000442737FD4095542F82E090E0A80EB91E82
:100820009FE6F92257FF09C05095409530952195D4
:100830003F4F4F4F5F4FE0E8FE2ACA01B901A101C7
:100840002AE030E00E942D05D82ED21840C09537FE
:1008500029F41F2D1F7E2AE030E01DC01F2D197FB7
:100860009F3661F0903720F4983509F0ACC00FC086
:10087000903739F0983709F0A6C004C028E030E07E
:100880000AC0106114FD146020E130E004C014FDC2
:10089000166020E132E017FF08C0F5016081718128
:1008A0008281938144E050E008C0F501808191810C
:1008B000BC0180E090E042E050E0A40EB51EA10132
:1008C0000E942D05D82ED2188FE7F82EF122F6FEC1
:1008D0000BC05EEFF522D91438F4F4FE07C0F2FC29
:1008E00005C08FEEF82202C01D2D01C0192DF4FEA7
:1008F0000DC0FE01ED0DF11D8081803319F499EEDC
:10090000F92208C01F5FF2FE05C003C08F2D867854
:1009100009F01F5F0F2DF3FC14C0F0FE0FC01E1571
:1009200010F09D2C0BC09D2C9E0C911A1E2D06C004
:1009300080E290E0B3010E9401051F5F1E15C0F325
:1009400004C01E1510F4E11A01C0EE2404FF0FC00C
:1009500080E390E0B3010E94010502FF1DC001FD8C
:1009600003C088E790E00EC088E590E00BC0802FC0
:10097000867891F001FF02C08BE201C080E2F7FCB3
:100980008DE290E0B3010E94010506C080E390E093
:10099000B3010E9401059A94D914C0F3DA94F101CD
:1009A000ED0DF11D808190E0B3010E940105DD2075
:1009B000A9F706C080E290E0B3010E940105EA9425
:1009C000EE20C1F743CEF30166817781CB012B96F0
:1009D000E2E10C94F01DFC010590615070400110A3
:1009E000D8F7809590958E0F9F1F0895FC01615058
:1009F000704001900110D8F7809590958E0F9F1F41
:100A000008950F931F93CF93DF938C01EB018B819C
:100A100081FF1BC082FF0DC02E813F818C819D8193
:100A20002817390764F4E881F9810193F983E88391
:100A300006C0E885F985802F0995892B31F48E81D0
:100A40009F8101969F838E8302C00FEF1FEFC80125
:100A5000DF91CF911F910F910895FA01AA272830B5
:100A600051F1203181F1E8946F936E7F6E5F7F4F7B
:100A70008F4F9F4FAF4FB1E03ED0B4E03CD0670FF7
:100A8000781F891F9A1FA11D680F791F8A1F911D4A
:100A9000A11D6A0F711D811D911DA11D20D009F49A
:100AA00068943F912AE0269F11243019305D3193DC
:100AB000DEF6CF010895462F4770405D4193B3E0C5
:100AC0000FD0C9F7F6CF462F4F70405D4A3318F06C
:100AD000495D31FD4052419302D0A9F7EACFB4E01D
:100AE000A6959795879577956795BA95C9F70097D5
:100AF0006105710508959B01AC010A2E0694579576
:100B0000479537952795BA95C9F7620F731F841FCC
:100B1000951FA01D089586E791E06AE044ED0E94CC
:100B2000AB1581E592E061E00E947D1A1092A0026F
:100B30001092A3021092A6021092A90280913D0188
:100B400090913E01009719F480E090E001C0049676
:100B5000909342018093410108954F925F926F926A
:100B60007F928F929F92AF92BF92CF92DF92EF923D
:100B7000FF920F931F93DF93CF93CDB7DEB7A89764
:100B80000FB6F894DEBF0FBECDBF05C080E090E089
:100B900060E00E94841886E791E00E940418882390
:100BA000A9F781EA92E068EE73E00E94610D882364
:100BB00009F422C16AE070E080E090E00E943C0805
:100BC0007E010894E11CF11C8701CC24DD2441E165
:100BD000842E912C8C0E9D1E8FE00E946407F801DC
:100BE000819391938F01C80ED91E61E070E080E07F
:100BF00090E00E943C080815190571F7F701619112
:100C000071917F0180913D0190913E014AE050E059
:100C10000E949B0C80913D0190913E0160E071E04B
:100C20000E942F0DE016F10649F780913D01909149
:100C30003E010E94D80B34E0432E512C4C0C5D1C1D
:100C400023E0569447942A95E1F7B20180E090E0C2
:100C50000E94751C20E030E040E450E40E94031D37
:100C60006DA37EA38FA398A720E030E046E953E46C
:100C70000E94DF1B6B017C0129EB39E54BEC51E451
:100C80000E94031D29EF36E64BE95CE30E94DF1B5F
:100C90004B015C01C701B6012EEE3FE549ED5EEB6D
:100CA0000E94031DA70196010E94031D9B01AC0138
:100CB000C501B4010E94E01B4B015C01C701B601F4
:100CC00028E53AEC42E35DE30E94031DA70196018B
:100CD0000E94031DA70196010E94031D9B01AC0108
:100CE000C501B4010E94E01B20E030E040E05FE37A
:100CF0000E94E01B0E94441C3B014C014B0180E020
:100D000060E040E820E100E00E9416148DB79EB735
:100D10000E970FB6F8949EBF0FBE8DBF0DB71EB7CE
:100D20000F5F1F4F91E1A92EB12CAC0EBD1EEDB788
:100D3000FEB7B282A18284E190E0F80193838283BE
:100D400082E091E095838483578246826DA17EA1E3
:100D50008FA198A50E94441CF80171876087C70184
:100D6000B60120E030E040E05FE30E94E01B0E941B
:100D7000441CF80173876287758664860E94DD02D1
:100D80008DB79EB70E960FB6F8949EBF0FBE8DBF5F
:100D900080913D0190913E01B5010E94320D80E0AD
:100DA00060E0A5010E94521380E060E14FE72FE36D
:100DB00000E00E94ED14E3ECF4E0DF0190E0119616
:100DC0008C9111978D939F5F9F37C9F7E158FF4F23
:100DD000119297E0E33CF90781F71814190454F4D1
:100DE000959487946FE368198FE74FE72FE301E04D
:100DF0000E94A6130E946714A8960FB6F894DEBF4F
:100E00000FBECDBFCF91DF911F910F91FF90EF905B
:100E1000DF90CF90BF90AF909F908F907F906F901A
:100E20005F904F9008950F931F9364E670E080E009
:100E300090E00E943C080BE313E0C80140E051EE53
:100E400060E070E00E94ED0964E670E080E090E010
:100E50000E943C08C8016FED72E00E94F80B0E94EE
:100E60001D198FE391E00E9426198FE060E00E9437
:100E7000D00881E00E9461078AE10E9446150E9425
:100E80002B158FEF0E94401588E690E00E946F12AC
:100E900080E060E04EEC52E00E947C130E946714F8
:100EA0008EE992E068EE73E00E94450D80913D016D
:100EB00090913E016EEA72E00E94F80B1F910F9133
:100EC0000895809345010895982F8E3008F09E5024
:100ED0009770809145018295880F880F807C892BBF
:100EE00080937C0080917A00806480937A00809166
:100EF0007A0086FDFCCF2091780040917900942FF4
:100F000080E030E0282B392BC90108951F93CF933F
:100F1000DF93182FEB0161E00E94D008209709F4BD
:100F20004AC0CF3FD10509F449C0E12FF0E0ED5BA5
:100F3000FC4F84918330C1F0843028F4813051F02B
:100F40008230B1F50CC0863019F1873049F1843018
:100F500079F514C084B5806884BDC7BD33C084B53D
:100F6000806284BDC8BD2EC080918000806880935F
:100F70008000D0938900C093880024C080918000B5
:100F8000806280938000D0938B00C0938A001AC047
:100F90008091B00080688093B000C093B30012C00D
:100FA0008091B00080628093B000C093B4000AC00A
:100FB000C038D1051CF4812F60E002C0812F61E0B0
:100FC0000E940F09DF91CF911F9108951F920F92F8
:100FD0000FB60F9211242F933F938F939F93AF934C
:100FE000BF938091AE029091AF02A091B002B091F8
:100FF000B1023091B2020196A11DB11D232F2D5FC8
:101000002D3720F02D570196A11DB11D2093B2025E
:101010008093AE029093AF02A093B002B093B1025E
:101020008091AA029091AB02A091AC02B091AD0266
:101030000196A11DB11D8093AA029093AB02A093CB
:10104000AC02B093AD02BF91AF919F918F913F9150
:101050002F910F900FBE0F901F9018958FB7F89497
:101060002091AE023091AF024091B0025091B10296
:101070008FBFB901CA0108959B01AC017FB7F894F5
:101080008091AA029091AB02A091AC02B091AD0206
:1010900066B5A89B05C06F3F19F00196A11DB11D53
:1010A0007FBFBA2FA92F982F8827860F911DA11DCA
:1010B000B11D62E0880F991FAA1FBB1F6A95D1F767
:1010C000BC012DC0FFB7F8948091AA029091AB02A9
:1010D000A091AC02B091AD02E6B5A89B05C0EF3F70
:1010E00019F00196A11DB11DFFBFBA2FA92F982F8E
:1010F00088278E0F911DA11DB11DE2E0880F991F59
:10110000AA1FBB1FEA95D1F7861B970B885E9340F9
:10111000C8F2215030404040504068517C4F21156A
:1011200031054105510571F60895789484B58260C2
:1011300084BD84B5816084BD85B5826085BD85B57B
:10114000816085BDEEE6F0E0808181608083E1E82A
:10115000F0E0108280818260808380818160808362
:10116000E0E8F0E0808181608083E1EBF0E0808165
:1011700084608083E0EBF0E0808181608083EAE737
:10118000F0E08081846080838081826080838081C0
:10119000816080838081806880831092C10008957F
:1011A000CF93DF93482F50E0CA01815D9C4FFC0133
:1011B0003491455E5C4FFA018491882369F190E097
:1011C000880F991FFC01E350FD4FA591B491FC01DC
:1011D000E95FFC4FC591D491662351F42FB7F89481
:1011E0008C91932F909589238C93888189230BC0B0
:1011F000623061F42FB7F8948C91932F90958923E6
:101200008C938881832B88832FBF06C09FB7F89467
:101210008C91832B8C939FBFDF91CF910895482FA2
:1012200050E0CA018D5B9C4FFC012491CA01815D95
:101230009C4FFC019491455E5C4FFA01349133233D
:1012400009F440C0222351F1233071F0243028F4F6
:101250002130A1F0223011F514C02630B1F0273032
:10126000C1F02430D9F404C0809180008F7703C08E
:10127000809180008F7D8093800010C084B58F772F
:1012800002C084B58F7D84BD09C08091B0008F7786
:1012900003C08091B0008F7D8093B000E32FF0E019
:1012A000EE0FFF1FE95FFC4FA591B4912FB7F894A3
:1012B000662321F48C919095892302C08C91892B0F
:1012C0008C932FBF089508951F920F920FB60F921F
:1012D00011242F933F934F938F939F93EF93FF93FB
:1012E0008091C00082FD1DC04091C6002091F30294
:1012F0003091F4022F5F3F4F2F7330708091F502D1
:101300009091F6022817390771F0E091F302F091FD
:10131000F402ED54FD4F40833093F4022093F30226
:1013200002C08091C600FF91EF919F918F914F91E4
:101330003F912F910F900FBE0F901F901895E09145
:101340004703F0914803E05CFF4F81919191208128
:101350003181821B930B8F739070892B11F00E9447
:10136000630908951F920F920FB60F9211242F93C5
:101370003F938F939F93EF93FF9320913703309187
:1013800038038091390390913A032817390731F4D3
:101390008091C1008F7D8093C10014C0E09139031A
:1013A000F0913A03E950FD4F2081809139039091EB
:1013B0003A0301968F73907090933A0380933903A8
:1013C0002093C600FF91EF919F918F913F912F91B4
:1013D0000F900FBE0F901F901895AF92BF92DF92A3
:1013E000EF92FF920F931F93CF93DF93EC017A015B
:1013F0008B01DD24403081EE580780E0680780E0F3
:10140000780711F0DD24D39491E0A92EB12CEC895A
:10141000FD89DD2069F0C50108A002C0880F991F71
:101420000A94E2F7808360E079E08DE390E005C004
:10143000108260E874E88EE190E0A80197010E94B4
:10144000AC1D21503040404050405695479537954F
:10145000279580E12030380720F0DD2011F0DD24D1
:10146000D6CFE889F9893083EA89FB89208319A2DC
:10147000EE89FF89408121E030E0C9010C8C02C077
:10148000880F991F0A94E2F7482B4083EE89FF8961
:101490004081C9010D8C02C0880F991F0A94E2F7A0
:1014A000482B4083EE89FF894081C9010E8C02C020
:1014B000880F991F0A94E2F7482B4083EE89FF8931
:1014C00080810F8C02C0220F331F0A94E2F720950F
:1014D00028232083DF91CF911F910F91FF90EF90F0
:1014E000DF90BF90AF900895DC011C96ED91FC91C8
:1014F0001D97E05CFF4F2191319180819181281BE4
:10150000390B2F733070C9010895DC011C96ED91E1
:10151000FC911D97E05CFF4F20813181E054F04049
:10152000DF01AE5BBF4F8D919C9111972817390752
:1015300019F42FEF3FEF07C08D919C91E80FF91F31
:101540008081282F30E0C9010895DC011C96ED91BF
:10155000FC911D97E05CFF4F20813181E054F04009
:10156000DF01AE5BBF4F8D919C9111972817390712
:1015700019F42FEF3FEF10C08D919C911197E80F58
:10158000F91F20818D919C91119701968F73907016
:1015900011969C938E9330E0C9010895DC019196D9
:1015A0008C919197882339F05496ED91FC91559741
:1015B000808186FFF9CF91961C920895CF93DF9397
:1015C000EC01EE85FF85E05CFF4F20813181E05426
:1015D000F0402F5F3F4F2F733070DF01AE5BBF4F86
:1015E0008D919C91119728173907D1F3E05CFF4F3B
:1015F00080819181E054F040E80FF91F6083EE850F
:10160000FF85E05CFF4F31832083EE89FF892081D5
:1016100081E090E00F8C02C0880F991F0A94E2F7D6
:10162000282B208381E089A3EC89FD898081806457
:10163000808381E090E0DF91CF91089510923E0386
:1016400010923D0388EE93E0A0E0B0E080933F036A
:1016500090934003A0934103B09342038BE491E045
:1016600090933C0380933B0383EB92E09093480379
:101670008093470387EF92E090934A038093490356
:1016800085EC90E090934C0380934B0384EC90E0C6
:1016900090934E0380934D0380EC90E09093500321
:1016A00080934F0381EC90E0909352038093510319
:1016B00082EC90E0909354038093530386EC90E087
:1016C000909356038093550384E08093570383E0FF
:1016D0008093580387E08093590385E080935A03F1
:1016E00081E080935B030895CF93DF930E94950878
:1016F0000E941307CFE9D9E00E94AD052097E1F3DE
:101700000E949F09F9CFCF92DF92EF92FF920F9341
:101710001F93CF93DF937C016B018A01C0E0D0E07F
:101720000FC0D6016D916D01D701ED91FC91019033
:10173000F081E02DC7010995C80FD91F0150104055
:101740000115110571F7CE01DF91CF911F910F9116
:10175000FF90EF90DF90CF900895EF92FF920F935C
:101760001F93CF93DF937C018B01C0E0D0E0F801A1
:101770000F5F1F4F6491662359F0D701ED91FC91E3
:101780000190F081E02DC7010995C80FD91FEFCF57
:10179000CE01DF91CF911F910F91FF90EF900895AF
:1017A000DC01ED91FC910190F081E02D0995089507
:1017B000EF92FF920F931F938C01DC01ED91FC914E
:1017C0000190F081E02D6DE009957C01D801ED914B
:1017D000FC910190F081E02DC8016AE009959C011F
:1017E0002E0D3F1DC9011F910F91FF90EF9008959D
:1017F000EF92FF920F931F937C010E94AD0B8C011F
:10180000C7010E94D80B9C01200F311FC9011F91F5
:101810000F91FF90EF900895CF93DF93EC01611546
:10182000710519F420E030E00FC0DB010D900020BD
:10183000E9F71197A61BB70BE881F9810280F381C4
:10184000E02DAD0109959C01C901DF91CF9108956B
:101850004F925F927F928F929F92AF92BF92CF9260
:10186000DF92EF92FF920F931F93DF93CF93CDB749
:10187000DEB7A1970FB6F894DEBF0FBECDBF2C0127
:10188000742ECB01223008F42AE019A231E2C32ED3
:10189000D12CCC0EDD1E822E9924AA24BB24672DC8
:1018A000752FA50194010E94AC1D79018A01C80120
:1018B000B701A50194010E94661D472D461B08949F
:1018C000C108D1084A3010F4405D01C0495CF601FE
:1018D0004083E114F1040105110521F07E2C5F2DF8
:1018E000C801DDCFC201B6010E940C0CA1960FB653
:1018F000F894DEBF0FBECDBFCF91DF911F910F9146
:10190000FF90EF90DF90CF90BF90AF909F908F901F
:101910007F905F904F900895DC012115310541F4CF
:10192000ED91FC910190F081E02D642F09950895CF
:101930000E94280C0895EF92FF920F931F939A0133
:101940007B0100E010E0B801A7010E948C0C1F9100
:101950000F91FF90EF900895EF92FF920F931F93D6
:101960009A01E62EFF2400E010E0B801A7010E94D2
:101970008C0C1F910F91FF90EF900895CF92DF9202
:10198000EF92FF920F931F936C01E62E9A01FF24B2
:1019900000E010E0B801A7010E948C0C8C01C60188
:1019A0000E94D80B080F191FC8011F910F91FF90BB
:1019B000EF90DF90CF900895CF92DF92EF92FF9259
:1019C0000F931F93CF93DF93EC016A017B012115E5
:1019D000310541F4E881F9810190F081E02D642F17
:1019E00009951FC02A303105D1F477FF17C0E8816F
:1019F000F9810190F081E02D6DE209958C01442779
:101A00005527BA014C195D096E097F09CE012AE0FC
:101A10000E94280C9801280F391F04C02AE00E9458
:101A2000280C9C01C901DF91CF911F910F91FF906C
:101A3000EF90DF90CF900895EF92FF920F931F9356
:101A40007B019A010027F7FC0095102FB801A70130
:101A50000E94DC0C1F910F91FF90EF9008950E945F
:101A60000C0C0895EF92FF920F931F937C010E943C
:101A70000C0C8C01C7010E94D80B080F191FC8015C
:101A80001F910F91FF90EF9008950F931F93CF93A5
:101A9000DF938C01EB0180E06115710509F081E0B5
:101AA000F8018283882341F00E942E082197C60FF7
:101AB000D71FF801D183C083DF91CF911F910F9180
:101AC0000895EF92FF920F931F93CF93DF93EC0152
:101AD0007B018A81882311F400E00FC008811981FD
:101AE0000E942E08C801861B970B2AEE81369207AA
:101AF00010F400E006C0082F0195CE01B7010E9446
:101B0000450D802FDF91CF911F910F91FF90EF90A6
:101B10000895782FE89865B121E030E040E050E08A
:101B20000090460104C0220F331F441F551F0A9422
:101B3000D2F7322F822F8095862385B99EBD0DB4B2
:101B400007FEFDCF4EB57EBD0DB407FEFDCF2EB511
:101B5000942F80E045B1342B35B9E89A30E0282B3A
:101B6000392BC90108950E94890D089580915D0364
:101B700090915E038F7090935E0380935D038091DC
:101B80005D0390915E03886090935E0380935D0394
:101B900080915D0390915E030E94890D089580916C
:101BA000B403873009F059C09091B803992399F094
:101BB0008091B703891728F48091B703873408F41C
:101BC0004CC084E08093B40381E090E0909365037F
:101BD000809364039AC0809168032091B70390E0DA
:101BE000049630E08217930724F08091B70387347E
:101BF000A0F184E08093B40380916803833430F0D3
:101C000081E090E090936503809364038091670383
:101C100086FF12C08091B303282F30E0C9018F7175
:101C200090704F9749F08091670390E08227932747
:101C30008F719070892B89F4809164039091650372
:101C4000892B09F056C0E091B103F091B2033097AF
:101C500009F44FC080E0099558C08091B4038430E6
:101C600011F080E0089510926803809168038093DA
:101C7000B7038FEF9FEF90936503809364032091E8
:101C8000B5032223D9F08227282F22952827022E58
:101C9000269526952025022E269520252770082E8C
:101CA000892F269507942795902D822706942795AE
:101CB00090258227909365038093640387E0809347
:101CC000B40381E08093620383EA94E90E94890D62
:101CD00080915D0390915E03886D90935E03809385
:101CE0005D0380915D0390915E030E94890D80E009
:101CF00008958FEF9FEFAFEFBFEF8093AD03909309
:101D0000AE03A093AF03B093B00381E008950F93A7
:101D10001F93082F10E0C801966C0E94890D98014E
:101D20002F7730702F5F3F4F442737FD4095542F5A
:101D30006BEF72E485E090E00E94AC1DCA01B9012E
:101D4000000F012F001F110B980143E0220F331FDA
:101D50004A95E1F7201B310B2F5F3F4F442737FD9A
:101D60004095542F0E94AC1D93E0569547953795AA
:101D700027959A95D1F72D573C4F4F4F5F4FCA018A
:101D8000B90124E833E040E050E00E94AC1D20930C
:101D900063031F910F9108958091B403843069F01B
:101DA0008091B403873059F48091B703882339F4C4
:101DB0000E94B60D84E08093B40381E0089580E032
:101DC0000895982F86FD05C0907E8091B3038F7192
:101DD000980F90936703E091B103F091B2033097AD
:101DE00011F081E009958FEF9FEF90936503809349
:101DF000640380916403909165032091B503822769
:101E0000282F22952827022E269526952025022E5A
:101E1000269520252770082E892F2695079427952B
:101E2000902D82270694279590258227909365030D
:101E30008093640388E08093B40380915D03909164
:101E40005E03886390935E0380935D0380915D03DE
:101E500090915E030E94890D0895DF92EF92FF92A8
:101E60000F931F937B018C01DD2405C0D39416953D
:101E70000795F794E7948FEFE816F1040105110533
:101E800009F0A0F780915D0390915E0381FF0FC080
:101E900080915D0390915E038D7F90935E038093AC
:101EA0005D0380915D0390915E030E94890DE114B2
:101EB000F10401051105B9F0C701906E3D2D20E038
:101EC000822B932B0E94890D80915D0390915E037C
:101ED000826090935E0380935D0380915D03909197
:101EE0005E030E94890D1F910F91FF90EF90DF908C
:101EF0000895E89885B121E030E040E050E000909E
:101F0000460104C0220F331F441F551F0A94D2F705
:101F1000322F922F9095982395B91EBC0DB407FED1
:101F2000FDCF6EB51EBC0DB407FEFDCF2EB5962FAE
:101F300080E0622F70E0682B792B77FF0FC08091D3
:101F4000B403873059F48CB581608CBD1EBC0DB4D0
:101F500007FEFDCF2EB58CB58E7F8CBD85B1382B9D
:101F600035B9E89A7093600360935F0380915F03D3
:101F70009091600397FFECC08091B403873009F023
:101F800082C08091B703882371F49091B50399239F
:101F900051F08091B703E82FF0E0EA59FC4F9083AD
:101FA0008F5F8093B7038091B703E82FF0E0EA5981
:101FB000FC4F20838F5F8093B703809164039091DF
:101FC00065038227282F22952827022E26952695FD
:101FD0002025022E269520252770082E892F26954C
:101FE00007942795902D8227069427959025822780
:101FF000909365038093640320916203233040F53E
:102000008091B70390E060916303029770E00E94B3
:10201000991D892BE9F480915F0390916003E22F71
:10202000F0E090FF04C0E95AFE4F808104C0E95AF5
:10203000FE4F808182958F7080936203833040F4DD
:1020400090E0880F991F0196806A94690E94890D1B
:102050009091B803992329F08091B703891780F4F0
:102060000AC0809168032091B70390E0049630E0A5
:10207000821793072CF08091B703873408F468C067
:102080000E94B60D65C08091B40387FF2EC0E09119
:1020900068038091B4038F5F8093B4038150ED5F38
:1020A000E80FF0E0EA59FC4FE081809164039091E1
:1020B00065038E27282F22952827022E2695269500
:1020C0002025022E269520252770082E892F26955B
:1020D00007942795902D822706942795902582278F
:1020E00090936503809364032EC08091B4038F5F47
:1020F0008093B4038150833019F184302CF4882309
:1021000099F08130F9F416C08B3019F08C30D1F48D
:1021100002C0EDE218C0E091B503909168038EEF24
:10212000891B8093B4030FC0809164039091650371
:10213000E82F09C08091640390916503E92F03C0E3
:102140000E94B60DEAEA8E2F90E0986B0E94890DEE
:1021500080915F039091600396FF03C086E08093B7
:10216000B40380915F039091600394FF09C060E025
:1021700070E080E090E00E942D0F81E08093610389
:1021800080915F039091600395FF05C00E94B60D9A
:1021900084E08093B40308951F93182F409368033D
:1021A00029E633E0C90150E00E948702812F0E9496
:1021B000E10E1F9108958091B30390E08F719070AC
:1021C000892B41F080E069E77FE040E050E00E9429
:1021D0004F1B089580E00E94721B08951F93809307
:1021E000B3034093B5036093B6030E94DB101092D3
:1021F000B803E89885E092E890935E0380935D03CE
:1022000080915D0390915E030E94890D8091B603D9
:1022100090E074E0880F991F7A95E1F7876C9068D9
:102220000E94890D80E496EA0E94890D86E00E9452
:10223000870E82EA94E90E94890D8CEA92EC0E9452
:10224000890D1091B503112341F083E89AEC0E94A7
:10225000890D812F90E09E6C06C08BE89AEC0E945D
:10226000890D8DE29EEC0E94890D83E894EC0E941A
:10227000890D80E598E90E94890D87E79CEC0E9412
:10228000890D80E090EE0E94890D80E098EC0E941C
:10229000890D89E490EC0E94890D84E08093B40359
:1022A000E89A1F91089525B181E090E0A0E0B0E0A8
:1022B0000090460104C0880F991FAA1FBB1F0A94F3
:1022C000D2F7282B25B924B1822B84B98AE061E0AA
:1022D0000E940F098AE061E00E94D0088BE061E073
:1022E0000E94D0088CE060E00E94D0088DE061E0A0
:1022F0000E94D00880E58CBD8DB581608DBD82E0E7
:1023000060E00E94D00882E061E00E940F09089519
:10231000FF920F931F93182F062FF42E8093B30371
:102320004093B5036093B6030E9453110E94DB10E3
:1023300082E89AEC0E94890D80E09EEF0E94890D50
:1023400085E08093B40383B7817F06C083B7816043
:1023500083BF889583B78E7F83BF8091B403853018
:10236000A9F3812F602F4F2D0E94EE108091B303AF
:102370001F910F91FF900895439840E820E030E0CE
:10238000682F70E0842F90E086239723892B11F02B
:10239000409A01C040985C9A5C9A5C985C9846951B
:1023A0002F5F3F4F2830310569F70895582F87FD7B
:1023B00056C0603408F053C0E62FE695E695E695E2
:1023C00090E0262F30E04423C9F0F0E0F695FE2F90
:1023D000EE27F795E795E80FF91FED53FC4F209591
:1023E00030952770307081E090E002C0880F991F0F
:1023F0002A95E2F72081282B208319C0F0E0F6957A
:10240000FE2FEE27F795E795E80FF91FED53FC4FE8
:10241000209530952770307081E090E002C0880FE1
:10242000991F2A95E2F780952081822380838091ED
:10243000C307581710F45093C3078091C507851739
:1024400010F45093C5078091C407681710F4609387
:10245000C4078091C607861710F46093C6070895D5
:1024600087FD3CC06034D0F5E62FE695E695E6950D
:1024700090E070E04423C9F0F0E0F695FE2FEE27DF
:10248000F795E795E80FF91FED53FC4F60957095B0
:102490006770707081E090E002C0880F991F6A95A4
:1024A000E2F72081282B20830895F0E0F695FE2F97
:1024B000EE27F795E795E80FF91FED53FC4F609570
:1024C00070956770707081E090E002C0880F991F6E
:1024D0006A95E2F780952081822380830895FC012C
:1024E000019654915093B9039C012F5F3F4FFC011B
:1024F00044914093BA033093BE032093BD03459F9C
:10250000F0011124E20FF31FCF010196E491E09353
:10251000BB039C012F5F3F4FFC0194919093BC0340
:102520003093C0032093BF03F9018491882361F4A1
:10253000892F90E0880F991F0196280F391F30933B
:10254000C2032093C10304C01092C2031092C103BE
:10255000842F08957F928F929F92AF92BF92CF92D5
:10256000DF92EF92FF920F931F93CF93DF93582F39
:10257000762EE42F4091BB03E41708F484C0E41BDB
:102580004E2F8091BC03E81708F07DC06091BF0317
:102590007091C003FB0194916F5F7F4FFB01249109
:1025A00061507040992321F52091C1033091C203FD
:1025B000A0E0B0E080E0F901E80FF11DE491E4173C
:1025C00020F4A050BF4F8F5FF6CFE42FF0E0EE0F66
:1025D000FF1FE60FF71FCF0101964491FC012491E4
:1025E0000196FC01E4904D01840E911CE41A04C094
:1025F000949F40011124E92EB22E7CEFC72EC50E08
:10260000822F8F70C80E2091BD033091BE03C90187
:102610008C01DD2428C0FE0163E0F695E7956A95FC
:10262000E1F7E00FF11FE4918E2F90E0A0E0B0E021
:102630009E012770307004C0B695A7959795879531
:102640002A95D2F780FF06C08F2D8C0D6A2D41E0B0
:102650000E94D611F3942196FE14E8F28091BA03F9
:10266000080F111DD3948091B903D81628F4E40102
:10267000FF24AD2CA70CF0CFFCEFEF0E8B2D829535
:102680008F708E0D01C080E0DF91CF911F910F916F
:10269000FF90EF90DF90CF90BF90AF909F908F9082
:1026A0007F9008950F931F93CF93DF93182F062FDA
:1026B000EA0119C0812F602F0E94AA12180F90E022
:1026C000810F911D803891056CF02091B903822F04
:1026D00090E0800F911D8034910514F010E006C049
:1026E000020F10E021964881442321F7812FDF91CA
:1026F000CF911F910F9108950F931F93CF93DF9365
:10270000182F062FEA01FE01219644914423C1F0BF
:10271000812F602F0E94AA12180F90E0810F911D47
:102720008038910584F32091B903822F90E0800FC7
:10273000911D803491051CF4020F10E0E4CF10E0ED
:10274000812FDF91CF911F910F910895DF92EF922A
:10275000FF920F931F93182FE62EF42ED02E809108
:10276000C507811710F41093C5078091C307181788
:1027700010F41093C3078091C5078F1510F4F092E1
:10278000C5078091C307F81610F4F092C307809133
:10279000C6078E1510F4E092C6078091C407E816AC
:1027A00010F4E092C4078091C607821710F42093BA
:1027B000C6078091C407281710F42093C40700E0CF
:1027C000422F50E04E19510957FF03C050954195D3
:1027D0005F4F8F2D90E0811B910997FF03C090956B
:1027E00081959F4F841795073CF401E08E2DE12ED3
:1027F000182F822F2F2DF82EF11680F4E22E8F2D18
:10280000F12E182F0BC0002319F08E2D612F02C05E
:10281000812F6E2D4D2D0E9430121F5FF11698F7FB
:102820001F910F91FF90EF90DF900895CF92DF926C
:10283000EF92FF920F931F93CF93DF93982FD62E93
:10284000C02E9150392F340F9F5FDA945D2D520FB7
:10285000D3948091C307981710F49093C307809185
:10286000C407D81610F4D092C4078091C507831707
:1028700010F43093C5078091C607851710F4509364
:10288000C607092FE92EFF24E40EF11CCD2DD0E060
:10289000C20FD11D0CC0802F612F4C2D0E94301211
:1028A0001F5F812F90E08C179D07ACF30F5F802F87
:1028B00090E08E159F0514F41D2DF3CFDF91CF917D
:1028C0001F910F91FF90EF90DF90CF900895AF92FE
:1028D000BF92CF92DF92EF92FF920F931F93CF930D
:1028E000DF931091C307C090C507C11608F46AC0F2
:1028F0000091C4070695069506958091C607E82EB7
:10290000FF2453E0F594E7945A95E1F7812F90E086
:10291000049644E0959587954A95E1F73FE0D32EDC
:10292000D82280E1D82A27E0A22E1C5F9FE0B92E92
:10293000B122145038C0802F8A25806B0E94BC11B0
:102940008D2D0E94BC118B2D0E94BC1180EE0E9427
:10295000BC11AE015695542F442757954795712FBA
:102960004D535C4FFA01E70FF11D8081439A60E8F7
:1029700020E030E0E82FF0E0862F90E08E239F23C8
:10298000892B11F0409A01C040985C9A5C9A5C983F
:102990005C9866952F5F3F4F2830310569F77F5F60
:1029A000C71600F70F5FC02FD0E0EC16FD061CF62F
:1029B0001092C5071092C6078FE78093C3078FE375
:1029C0008093C407DF91CF911F910F91FF90EF90FB
:1029D000DF90CF90BF90AF9008950F93982F8F3FC7
:1029E00069F4002359F01092C5071092C6078FE7CB
:1029F0008093C3078FE38093C4072BC0491718F453
:102A0000842F492F982F261718F4822F262F682FEE
:102A1000002339F09093C3074093C5076093C40720
:102A200016C08091C307981710F49093C307809144
:102A3000C507841710F44093C5078091C407681731
:102A400010F46093C4078091C607821710F4209396
:102A5000C6070F91089580E094E0E3ECF3E0DF0116
:102A60009C011D9221503040E1F71092C307109253
:102A7000C4078FE78093C5078FE38093C607089547
:102A8000682F83E070E00E94860708951F93182F37
:102A90008EE061E00E94D00884E061E00E94D008EE
:102AA00081E161E00E94D00887E061E00E94D008E7
:102AB00087E060E00E940F0988E893E120E931E0B7
:102AC000F9013197F1F70197D9F787E061E00E94AA
:102AD0000F0983EA0E94BC1180EA0E94BC1180ECBD
:102AE0000E94BC1180E40E94BC118FE20E94BC11C4
:102AF00084E20E94BC111092C5071092C6078FE7AE
:102B00008093C3078FE38093C4078FEA0E94BC11B0
:102B100084EA0E94BC1181E80E94BC11812F8F734E
:102B20000E94BC110E942B151F910895FC01E053D7
:102B3000FF4F9081E05DF040933018F020E030E0EE
:102B400008C084E4989F900111242A5F3F4F2E0F04
:102B50003F1FC9010895FC018EE591E091838083B8
:102B60009091D107992371F08091D207882351F079
:102B70008F3140F4E852FF4F9083E85DF04080933E
:102B8000C70707C0E852FF4F4083E85DF0406093FD
:102B9000C70781E08283838308950895FF920F938E
:102BA0001F938C01F62E8BE393E061E873E00E94A3
:102BB000AD0B8BE393E06091C7074AE050E00E94C1
:102BC000AC0C8BE393E066E773E00E94AD0B085218
:102BD0001F4F8BE393E0F80160814AE050E00E94D0
:102BE000AC0C8BE393E06FE673E00E94AD0B8BE3DC
:102BF00093E06F2D4AE050E00E94AC0C8091C70733
:102C000063E0F80140810E948811F2E0FF1621F094
:102C100083E0F81611F50FC08BE393E060E673E0F4
:102C20000E94F80B87E598E90E94B30D82EB94E9C6
:102C30000E94B30D16C08BE393E067E573E00E943A
:102C4000F80B81E196EC0E94B30D81EC94E90E94AF
:102C5000B30D80E298E90E94B30D8BE393E00E94EC
:102C6000D80B83E00E94610785E060E00E94D008F5
:102C70001F910F91FF900895AF92BF92CF92DF9274
:102C8000EF92FF920F931F93DF93CF93CDB7DEB7F1
:102C90006C01ADB6BEB68B017B016115710579F093
:102CA0008BE393E066E973E00E94AD0B8BE393E066
:102CB000F80160814AE050E00E94BE0C0DC00F9206
:102CC000EDB6FEB60894E11CF11C81E0EDB7FEB74D
:102CD0008183B7010E94B218C601F70160810E948A
:102CE000CE150FB6F894BEBE0FBEADBECF91DF912C
:102CF0001F910F91FF90EF90DF90CF90BF90AF901A
:102D000008950F931F938C0185E00E94640706527B
:102D10001F4F8C5291409595879595958795F80111
:102D200080831F910F910895EF92FF920F931F934D
:102D3000CF93DF93EC01C053DF4F8881C05DD0405B
:102D4000882309F47DC01C81CF52DF4F8881C15D8B
:102D5000D04090E007970CF01F7DBE016A5F7F4F67
:102D6000812F4D810E94CC108BE393E06FE973E0DB
:102D70000E94AD0B812F90E030E2E32EF12CE8228F
:102D8000F92215FD03C066E171E002C06FE171E058
:102D90008BE393E00E942F0D8BE393E068E271E0F8
:102DA0000E942F0D8E010F521F4F8BE393E0F8010D
:102DB00060814AE050E00E94AC0C8BE393E06AE251
:102DC00071E00E942F0D8BE393E06E8140E150E0B3
:102DD0000E94AC0C8BE393E06EE271E00E942F0D39
:102DE0008BE393E06D814AE050E00E94BE0CEF2837
:102DF000D9F4C053DF4F8881C05DD040823050F09D
:102E0000DE011496FE01E85BFF4F88E801900D9209
:102E10008150E1F7FE01E053FF4F808181508083B4
:102E2000CF52DF4F18820CC0F80180818F5F808302
:102E30000E942E08CE52DF4F688379838A839B835A
:102E4000DF91CF911F910F91FF90EF900895EF9236
:102E5000FF920F931F93CF93DF93EC0146EDE42E87
:102E6000F12CE80EF91EF70180818823A1F10E9460
:102E7000CC0E882381F18E0109521F4FF70180810A
:102E8000B80141E00E94CC10F7011082F8011082D5
:102E900029C0CF52DF4F8881C15DD040882399F08F
:102EA0000E942E08CE52DF4F288139814A815B81F2
:102EB000C25DD0402C593F4F4F4F5F4F6217730791
:102EC0008407950778F00E94CC0E882359F0CE0134
:102ED0000E94941607C0C053DF4F8881C05DD04068
:102EE0008823B9F6DF91CF911F910F91FF90EF905A
:102EF0000895CF93DF93EC010E94CF0D882309F44E
:102F00007CC08091640390916503892B09F069C0AE
:102F10008091670387FD1DC0CE010E9481168091BC
:102F2000670385FF13C0909167039F718091C70766
:102F3000981711F4892F02C0892F8064CA52DF4F7D
:102F40008068888324968881239788838091690389
:102F500058C08091670385FD50C0CE010E94811644
:102F60002091670330E02F7130708091C70790E0A7
:102F70002817390709F041C0C053DF4F8881C05D71
:102F8000D0408823D1F1CF52DF4F8881C15DD0403E
:102F9000882399F180916803813011F080E002C0AC
:102FA00080916903C752DF4F888329978881C05D6C
:102FB000D040823050F0DE011496FE01E85BFF4FF6
:102FC00088E801900D928150E1F7FE01E053FF4F38
:102FD000808181508083CF52DF4F1882C15DD04005
:102FE0000CC08091640390916503892B31F08BE3D1
:102FF00093E060E371E00E94320DCE010E9427173A
:1030000080E0DF91CF910895EF92FF920F931F938D
:10301000CF93DF93EC0150EDE52EF12CE80EF91E75
:103020008C010A521F4F0BC0CE010E9479178823D2
:1030300071F461E070E080E090E00E943C08F701EC
:103040008081882389F7F8018081882369F7DF91DF
:10305000CF911F910F91FF90EF900895CF93DF9341
:10306000EC01DC01A053BF4F2C91233058F530E028
:1030700084E490E0289FF001299FF00D389FF00D27
:103080001124EC0FFD1F65838C9190E0FC0124E07E
:10309000EE0FFF1F2A95E1F7E80FF91F3196EE0FAB
:1030A000FF1FEE0FFF1FEC0FFD1F40838C918F5F02
:1030B0008C93813039F40E94CC0E882319F0CE0114
:1030C0000E949416DF91CF9108959C01411140E236
:1030D0008091C707482BC9010E942E1808959C01B2
:1030E000F999FECF32BD21BDF89A80B508959C01B3
:1030F000F999FECF1FBA32BD21BD60BD0FB6F8945D
:10310000FA9AF99A0FBE0895CF93DF93EC01462FF8
:10311000009721F440916803C9E6D3E04423F9F015
:1031200038812091CA07E091C807F091C90790E063
:1031300014C0A191B19112968C911297831761F4EA
:10314000ED91FC911197219641500280F381E02D81
:10315000CD01BE01099503C09F5F921750F3DF9127
:10316000CF9108951F93182F5091CA07A091C807B7
:10317000B091C90720E230E090E047C0ED91FD91A9
:1031800082814381811709F03DC0C90150E027E7E2
:1031900038E10E94AC024091CB075091CC07FA0174
:1031A000329720E030E06FEF7FEF21C0F999FECF3A
:1031B000205E3F4F32BD21BDF89A80B56827862F2B
:1031C00082958627082E869586958025082E8695D9
:1031D00080258770062E672F869507948795702D1A
:1031E000682706948795702568272F5130402E1741
:1031F0003F0708F4DBCFCA014E9647E758E10E942B
:10320000C80219C0240F311D9F5F951708F4B6CF6F
:103210008BE393E062EF73E00E94AD0B8BE393E0EE
:10322000612F4AE050E00E94AC0C8BE393E067ED25
:1032300073E00E94F80B1F91089580E290E06DE02A
:1032400070EF47E758E10E94C80208958F929F925D
:10325000AF92BF92DF92EF92FF920F931F93DF9393
:10326000CF93CDB7DEB7C054D0400FB6F894DEBFD1
:103270000FBECDBF5C0120E0322F3F5FE22FF0E0B8
:10328000EE0FFF1FEA0DFB1D80819181892B11F04C
:10329000232FF2CF2093CA07B092C907A092C80784
:1032A0008BE393E064E774E00E94AD0B8BE393E063
:1032B0006091CA074AE050E00E94AC0C8BE393E0B7
:1032C0006AE674E00E94AD0B1092CC071092CB0717
:1032D000EE244EC00E2D10E0F801EE0FFF1FEA0D98
:1032E000FB1D0190F081E02DF38080E48F15A8F59F
:1032F0008BE393E00E94D80B8BE393E06AE474E0E5
:103300000E94AD0B0F5F1F4F8BE393E0B8014AE0C3
:1033100050E00E941C0D8BE393E06AE374E00E948E
:10332000AD0B8BE393E06F2D4AE050E00E94AC0CB4
:103330008BE393E064E374E00E94AD0B8BE393E0D6
:1033400060E470E04AE050E00E941C0D8BE393E0E3
:103350006EE274E00E94F80B0AC08091CB07909156
:10336000CC078F0D911D9093CC078093CB07E394EE
:103370008091CA07E81608F4ADCF6091CB07709131
:10338000CC076E5F7F4F7093CC076093CB078BE3C6
:1033900093E04AE050E00E949B0C8BE393E067E2ED
:1033A00074E00E94F80B6091CB077091CC0720E08D
:1033B00030E04FEF5FEF21C0F999FECF205E3F4F25
:1033C00032BD21BDF89A80B54827842F8295842785
:1033D000082E869586958025082E869580258770EF
:1033E000042E452F869507948795502D48270694DF
:1033F0008795502548272F5130402617370708F466
:10340000DBCF452B01F18BE393E061E174E00E9497
:10341000F80B10E013C0E12FF0E0EE0FFF1FEA0DF4
:10342000FB1DA081B181ED91FC9111970190F0817C
:10343000E02DCD0160E070E009951F5F8091CA0723
:10344000181748F337C08BE393E062E074E00E9402
:10345000F80B90E2E92EF12CDD244E010894811C3A
:10346000911C24C00D2D10E0000F111F0A0D1B1D13
:10347000D801ED91FC914381C401B70150E02FE6E2
:1034800038E10E949002F801A081B181ED91FC9198
:1034900011970190F081E02DCD01B4010995D8017B
:1034A000ED91FC918381E80EF11CD3948091CA07C1
:1034B000D816C0F2C05CDF4F0FB6F894DEBF0FBE67
:1034C000CDBFCF91DF911F910F91FF90EF90DF90D3
:1034D000BF90AF909F908F90089508950895FC013C
:1034E000E45BFF4F1082EC54F04082E0868381E081
:1034F000878380E0816080870895FF920F931F93F8
:103500008C01F62EFC011382128286E691E09183F3
:1035100080830C9695838483C8010E946F1AF801FA
:10352000F1861F910F91FF90089504970E94991AB8
:103530000895CF93DF93EC01FB01BC01685F7F4FDF
:10354000309719F08081888705C08985888782E057
:103550000E94B2188BE393E069E974E00E94AD0B1E
:10356000888580FF06C08BE393E061E974E00E94E8
:10357000AD0B888581FF06C08BE393E06CE874E0B7
:103580000E94AD0B888582FF06C08BE393E066E85E
:1035900074E00E94AD0B8885882331F48BE393E0BF
:1035A0006DE774E00E94AD0B8BE393E00E94D80BB3
:1035B000DF91CF9108950F931F93CF93DF93EC0189
:1035C0008C01045B1F4FD8018C91FE01E80FF11DA7
:1035D0001286888580FF16C0BE01665F7F4F8BE331
:1035E00093E00E942F0DF8018081882359F0FE019D
:1035F000E80FF11D81858A3029F48BE393E06DE0BB
:103600000E94D00B888582FF1EC086E791E00E9451
:1036100096150097C1F0FC0182E081938E01045B56
:103620001F4FD8014C919E01265F3F4FCF01B9013A
:1036300050E00E948702F80160816F5F86E791E0A9
:1036400041E00E946518C45BDF4F1882DF91CF9183
:103650001F910F9108951F93CF93DF93EC01162FC5
:10366000C45BDF4F8881CC54D040813418F0CE0148
:103670000E94DB1ADE01A45BBF4F8C91FE01E80FB4
:10368000F11D12878F5F8C931A3019F4CE010E94BE
:10369000DB1A81E090E0DF91CF911F910895823095
:1036A00000F5E82FF0E0EE0FFF1FE353F84F7183B2
:1036B0006083882319F08130A1F408C080916900EB
:1036C0008C7F842B80936900E89A0895809169002B
:1036D000440F551F440F551F837F842B809369002F
:1036E000E99A0895823080F4882319F0813021F41A
:1036F00002C0E89801C0E998E82FF0E0EE0FFF1F44
:10370000E353F84F1182108208951F920F920FB663
:103710000F9211242F933F934F935F936F937F9357
:103720008F939F93AF93BF93EF93FF938091CD07B8
:103730009091CE07892B29F0E091CD07F091CE072B
:103740000995FF91EF91BF91AF919F918F917F91DB
:103750006F915F914F913F912F910F900FBE0F90FE
:103760001F9018951F920F920FB60F9211242F934E
:103770003F934F935F936F937F938F939F93AF93F9
:10378000BF93EF93FF938091CF079091D007892B40
:1037900029F0E091CF07F091D0070995FF91EF91C3
:1037A000BF91AF919F918F917F916F915F914F9159
:1037B0003F912F910F900FBE0F901F90189550586A
:1037C000BB27AA270ED0E5C0D6D030F0DBD020F042
:1037D00031F49F3F11F41EF4CBC00EF4E095E7FBEB
:1037E000C1C0E92FE7D080F3BA17620773078407D7
:1037F000950718F071F49EF5FFC00EF4E0950B2EBE
:10380000BA2FA02D0B01B90190010C01CA01A00132
:103810001124FF27591B99F0593F50F4503E68F18D
:103820001A16F040A22F232F342F4427585FF3CFCE
:10383000469537952795A795F0405395C9F77EF49F
:103840001F16BA0B620B730B840BBAF09150A1F0E8
:10385000FF0FBB1F661F771F881FC2F70EC0BA0F6E
:10386000621F731F841F48F4879577956795B795F6
:10387000F7959E3F08F0B3CF9395880F08F09927EE
:10388000EE0F97958795089504D06894B111B5C04F
:10389000089598D088F09F5790F0B92F9927B75185
:1038A000A0F0D1F0660F771F881F991F1AF0BA9504
:1038B000C9F712C0B13081F09FD0B1E008959CC02B
:1038C000672F782F8827B85F39F0B93FCCF38695FA
:1038D00077956795B395D9F73EF490958095709557
:1038E00061957F4F8F4F9F4F0895E89409C097FBD4
:1038F0003EF490958095709561957F4F8F4F9F4FC7
:103900009923A9F0F92F96E9BB279395F69587950A
:1039100077956795B795F111F8CFFAF4BB0F11F4CD
:1039200060FF1BC06F5F7F4F8F4F9F4F16C0882374
:1039300011F096E911C0772321F09EE8872F762FAA
:1039400005C0662371F096E8862F70E060E02AF0EB
:103950009A95660F771F881FDAF7880F96958795D7
:1039600097F9089597F99F6780E870E060E00895FF
:103970009FEF80EC089500240A9416161706180687
:103980000906089500240A94121613061406050663
:103990000895092E0394000C11F4882352F0BB0FF4
:1039A00040F4BF2B11F460FF04C06F5F7F4F8F4F57
:1039B0009F4F089557FD9058440F551F59F05F3F92
:1039C00071F04795880F97FB991F61F09F3F79F041
:1039D00087950895121613061406551FF2CF4695C3
:1039E000F1DF08C0161617061806991FF1CF869545
:1039F0007105610508940895E894BB276627772729
:103A0000CB0197F908950BD0C4CFB5DF28F0BADF0A
:103A100018F0952309F0A6CFABCF1124EECFCADF63
:103A2000A0F3959FD1F3950F50E0551F629FF001D1
:103A3000729FBB27F00DB11D639FAA27F00DB11D2A
:103A4000AA1F649F6627B00DA11D661F829F2227B3
:103A5000B00DA11D621F739FB00DA11D621F839F3A
:103A6000A00D611D221F749F3327A00D611D231F10
:103A7000849F600D211D822F762F6A2F11249F575E
:103A800050408AF0E1F088234AF0EE0FFF1FBB1F81
:103A9000661F771F881F91505040A9F79E3F510520
:103AA00070F060CFAACF5F3FECF3983EDCF38695D1
:103AB00077956795B795F795E7959F5FC1F7FE2BCB
:103AC000880F911D9695879597F90895629FD0016B
:103AD000739FF001829FE00DF11D649FE00DF11DC9
:103AE000929FF00D839FF00D749FF00D659FF00D78
:103AF0009927729FB00DE11DF91F639FB00DE11D65
:103B0000F91FBD01CF0111240895AA1BBB1B51E170
:103B100007C0AA1FBB1FA617B70710F0A61BB70B3D
:103B2000881F991F5A95A9F780959095BC01CD01E2
:103B3000089597FB092E07260AD077FD04D0E5DF0C
:103B400006D000201AF4709561957F4F0895F6F71E
:103B5000909581959F4F0895A1E21A2EAA1BBB1B39
:103B6000FD010DC0AA1FBB1FEE1FFF1FA217B30749
:103B7000E407F50720F0A21BB30BE40BF50B661F5F
:103B8000771F881F991F1A9469F760957095809523
:103B900090959B01AC01BD01CF010895EE0FFF1F71
:103BA0000590F491E02D09942F923F924F925F92ED
:103BB0006F927F928F929F92AF92BF92CF92DF923D
:103BC000EF92FF920F931F93CF93DF93CDB7DEB7A2
:103BD000CA1BDB0B0FB6F894DEBF0FBECDBF099436
:103BE0002A88398848885F846E847D848C849B848D
:103BF000AA84B984C884DF80EE80FD800C811B819B
:103C0000AA81B981CE0FD11D0FB6F894DEBF0FBEC9
:0A3C1000CDBFED010895F894FFCF39
:103C1A002000253034642025303464202530346473
:103C2A00202530336400206E6F2D41434B20002045
:103C3A0020772F41434B20002300203078003A00A0
:103C4A005246313220626164204352430051027667
:103C5A000100000000010200000000DE0A830B746C
:103C6A000AA50A850ACE0A340256000000003C164C
:103C7A00CD15000000002B1B830B991A6E1AFCFF4E
:063C8A000000951A6D1AFE
:00000001FF
