:100000000C94DE010C94221D0C944F1D0C940E02D6
:100010000C940E020C940E020C940E020C940E0220
:100020000C940E020C940E020C940E020C940E0210
:100030000C940E020C940E020C940E020C940E0200
:100040000C94A11D0C940E020C940C050C945A05F2
:100050000C940E020C940E020C940E020C940E02E0
:100060000C940E020C940E022A2A2A2A2A20525597
:100070004E4E494E473A2068656174696E675F6EFF
:100080006F64652E696E6F002A2A2A2A2A2053453A
:100090005455503A2068656174696E675F6E6F648D
:1000A000652E696E6F00202031396B6270730020FD
:1000B000206C6F7720545820706F77657200206D28
:1000C0006F64653D002067726F75705F69643D0005
:1000D000436F6E666967204E65743A206E6F646583
:1000E0005F69643D00436F6E6669673A20004E6544
:1000F000743A3A646F53656E643A2000206E6F74F0
:1001000020666F756E6420696E20636F6E66696726
:100110005F7265616400436F6E6669673A206D6F58
:1001200064756C652000206E6F7420666F756E6458
:1001300020696E20636F6E6669675F7772697465A8
:1001400000436F6E6669673A206D6F64756C652059
:10015000002020435243206D617463686573210061
:10016000202043524320646F6573206E6F74206DAE
:1001700061746368210020627974657300206D6189
:100180007829002076732E200020697320746F6F09
:10019000206C61726765202800434F4E4649473AFC
:1001A0002074686520636F6E66696720666F7220D1
:1001B0006D6F64756C6520230020636F6E666967E0
:1001C000732000436F6E6669673A200020214E4F0E
:1001D0004E45212000207266313200206C6364009D
:1001E0002073657269616C00436F6E666967204CAD
:1001F0006F673A002064657669636573004F7753D3
:1002000063616E20686173200020646576696365B0
:100210007300206F6620004F573A20666F756E643A
:1002200020004F573A204D697373696E67206465EB
:1002300076696365733A004F573A204E65772064BC
:100240006576696365733A202020200054696D65E6
:1002500020696E697469616C697A656400000000E8
:1002600000240027002A0000000000250028002BA1
:1002700000000000002300260029000404040404F8
:100280000404040202020202020303030303030143
:10029000020408102040800102040810200102041A
:1002A00008102000000007000201000003040600FF
:1002B00000000000000000005EBCE2613FDD83C280
:1002C0009C7E20A3FD1F419DC3217FFCA2401E5F99
:1002D00001E3BD3E6082DC237D9FC1421CFEA0E1A4
:1002E000BF5D0380DE3C62BEE0025CDF81633D7C7B
:1002F00022C09E1D43A1FF4618FAA427799BC584FE
:10030000DA3866E5BB5907DB856739BAE406581960
:1003100047A5FB7826C49A653BD987045AB8E6A757
:10032000F91B45C6987A24F8A6441A99C7257B3A42
:100330006486D85B05E7B98CD2306EEDB3510F4EB1
:1003400010F2AC2F7193CD114FADF3702ECC92D330
:100350008D6F31B2EC0E50AFF1134DCE90722C6D0B
:1003600033D18F0C52B0EE326C8ED0530DEFB1F012
:10037000AE4C1291CF2D73CA947628ABF51749086D
:1003800056B4EA6937D58B5709EBB536688AD495E8
:10039000CB2977F4AA4816E9B7550B88D6346A2BCF
:1003A0007597C94A14F6A8742AC896154BA9F7B6CA
:1003B000E80A54D7896B35000A04C60611241FBE0B
:1003C000CFEFD8E0DEBFCDBF8091000180938604DF
:1003D000809101018093870411E0A0E0B1E0E8E39F
:1003E000F8E402C005900D92A03DB107D9F714E0E2
:1003F000A0EDB1E001C01D92A638B107E1F713E00E
:10040000CCEBD3E004C02297FE010E94DF23C83B5F
:10041000D107C9F70E941C070C941A240C94000001
:10042000EF92FF920F93DF93CF93CDB7DEB7609734
:100430000FB6F894DEBF0FBECDBFA82F002309F47E
:1004400061C07E010894E11CF11C88E0F701119263
:100450008A95E9F729833A834B835C836D837E8396
:10046000AF83988780E2801BE82FFF27E7FDF09598
:100470004D815E816F817885181684F01D861E86F9
:100480001F86188A882799278E1B9F0B04C0769594
:100490006795579547958A95D2F728C0202F33271F
:1004A00027FD3095DB01CA01022E04C0B695A79541
:1004B000979587950A94D2F78D879E87AF87B88BDB
:1004C00004C0440F551F661F771FEA95D2F7898134
:1004D0009A81AB81BC8104C0B695A7959795879505
:1004E0002A95D2F7482B592B6A2B7B2B49875A87A1
:1004F0006B877C8729853A854B855C856D857E85F4
:10050000AF8598898A2F60960FB6F894DEBF0FBE2C
:10051000CDBFCF91DF910F91FF90EF9008950F9392
:100520001F93CF93DF93689F8001699F100D789F81
:10053000100D1124C8010E94AB02EC01009729F0B4
:1005400060E070E0A8010E94B603CE01DF91CF9178
:100550001F910F910895CF93DF93BC0182309105D5
:1005600010F462E070E0A0918404B0918504ED0184
:1005700040E050E0E0E0F0E021C0888199818617FA
:10058000970769F48A819B81309719F0938382835E
:1005900004C09093850480938404FE0134C06817DE
:1005A000790738F44115510519F08417950708F4B7
:1005B000AC01FE018A819B819C01E9012097E9F64B
:1005C00041155105A9F1CA01861B970B049708F440
:1005D000BA01E0E0F0E02AC08D919C911197841758
:1005E0009507F9F46417750781F412968D919C9123
:1005F0001397309719F09383828304C090938504F6
:1006000080938404FD0132964CC0CA01861B970B6F
:10061000FD01E80FF91F6193719302978D939C93ED
:1006200040C0FD01828193819C01D9011097A1F600
:100630008091820490918304892B41F4809173010D
:10064000909174019093830480938204409175018A
:10065000509176014115510541F44DB75EB7809137
:10066000710190917201481B590B209182043091C5
:100670008304CA01821B930B8617970780F0AB0196
:100680004E5F5F4F8417950750F0420F531F5093F2
:10069000830440938204F9016193719302C0E0E006
:1006A000F0E0CF01DF91CF910895CF93DF930097D2
:1006B00009F450C0EC0122971B821A82A091840495
:1006C000B0918504109709F140E050E0AC17BD07E8
:1006D00008F1BB83AA83FE0121913191E20FF31F40
:1006E000AE17BF0779F48D919C911197280F391F90
:1006F0002E5F3F4F3983288312968D919C911397DB
:100700009B838A834115510571F4D0938504C0936E
:10071000840420C012968D919C911397AD0100978F
:1007200011F0DC01D3CFFA01D383C283219131913F
:10073000E20FF31FCE17DF0769F488819981280F34
:10074000391F2E5F3F4FFA01318320838A819B81BD
:1007500093838283DF91CF910895FB01DC0102C076
:1007600001900D9241505040D8F70895DC0101C02E
:100770006D9341505040E0F70895A0E0B0E0E3EC05
:10078000F3E00C94ED237C01EB018A01690109C0BF
:10079000CE012196F6010995F70181937F01015061
:1007A000104001151105A1F7CDB7DEB7E8E00C94B4
:1007B0000924A0E0B0E0EFEDF3E00C94ED23EC01B0
:1007C0007B018A01690109C0CE012196F70161917F
:1007D0007F01F60109950150104001151105A1F79F
:1007E000CDB7DEB7E8E00C940924DF92EF92FF92D8
:1007F0000F931F93D72E7A018C01FA010995C80136
:1008000001966D2DF70109951F910F91FF90EF90C3
:10081000DF90089580ED91E064E040E10E94BF1B0D
:1008200089EE91E060ED71E040E10E94C21880E045
:1008300092E065E045E00E94BF1B89E192E060E044
:1008400072E045E00E94E91C84E292E06DE144ED33
:100850000E948D0E8FEF92E00E94E91B84E093E0EE
:100860000E9456138091770190917801009719F4B6
:1008700080E090E001C0049690937C0180937B011E
:10088000109254031092570310925A0308950F9335
:100890001F93A89584E292E00E94E610882329F035
:1008A00080E090E060E00E94661189EE91E06AE0ED
:1008B0000E94551689E192E068E70E94611C88E574
:1008C00093E06AE57EE10E94F009882309F44EC0B6
:1008D000809177019091780160E071E00E94D708E3
:1008E000009177011091780189EE91E060E00E941B
:1008F0002814AB01BC01C80122E030E00E94BE090F
:10090000809177019091780167E071E00E94D708AB
:10091000009177011091780189EE91E060E00E94EA
:100920004714BC01C8014AE050E00E94430880918E
:100930007701909178016BE071E00E94D7080091F7
:1009400077011091780189EE91E060E00E947614C1
:10095000BC01C8014AE050E00E9443088091770141
:10096000909178016EE071E00E94C1090E944B0EE7
:10097000823081F082E593E060E67AEE0E94F00931
:10098000882341F0809177019091780160E171E0D6
:100990000E94C1091F910F9108950F931F9304EEB8
:1009A00013E0C80140E051EE60E070E00E94950560
:1009B000C80168E870E00E94A00789E791E00E9402
:1009C000FF11609177017091780180ED91E00E94B4
:1009D000801980935B03609177017091780180E0CA
:1009E00092E00E9480198093510380917701909149
:1009F000780168E670E00E94A00728E288E190E0B4
:100A00000FB6F894A895809360000FBE2093600005
:100A10001F910F91089508951F920F920FB60F9294
:100A200011242F933F934F938F939F93EF93FF93B3
:100A30008091C00082FD1DC04091C60020919C03A2
:100A400030919D032F5F3F4F2F73307080919E0335
:100A500090919F032817390771F0E0919C03F09162
:100A60009D03E45AFC4F408330939D0320939C03E5
:100A700002C08091C600FF91EF919F918F914F919D
:100A80003F912F910F900FBE0F901F901895E091FE
:100A9000F003F091F103E05CFF4F8191919120818F
:100AA0003181821B930B8F739070892B11F00E9400
:100AB0000B0508951F920F920FB60F9211242F93DA
:100AC0003F938F939F93EF93FF932091E003309197
:100AD000E1038091E2039091E3032817390731F491
:100AE0008091C1008F7D8093C10014C0E091E2032A
:100AF000F091E303E056FC4F20818091E203909156
:100B0000E30301968F7390709093E3038093E20365
:100B10002093C600FF91EF919F918F913F912F916C
:100B20000F900FBE0F901F901895AF92BF92DF925B
:100B3000EF92FF920F931F93CF93DF93EC017A0113
:100B40008B01DD24403081EE580780E0680780E0AB
:100B5000780711F0DD24D39491E0A92EB12CEC8913
:100B6000FD89DD2069F0C50108A002C0880F991F2A
:100B70000A94E2F7808360E079E08DE390E005C0BD
:100B8000108260E874E88EE190E0A80197010E946D
:100B9000BB232150304040405040569547953795F3
:100BA000279580E12030380720F0DD2011F0DD248A
:100BB000D6CFE889F9893083EA89FB89208319A295
:100BC000EE89FF89408121E030E0C9010C8C02C030
:100BD000880F991F0A94E2F7482B4083EE89FF891A
:100BE0004081C9010D8C02C0880F991F0A94E2F759
:100BF000482B4083EE89FF894081C9010E8C02C0D9
:100C0000880F991F0A94E2F7482B4083EE89FF89E9
:100C100080810F8C02C0220F331F0A94E2F72095C7
:100C200028232083DF91CF911F910F91FF90EF90A8
:100C3000DF90BF90AF900895DC011C96ED91FC9180
:100C40001D97E05CFF4F2191319180819181281B9C
:100C5000390B2F733070C9010895DC011C96ED919A
:100C6000FC911D97E05CFF4F20813181E054F04002
:100C7000DF01AE5BBF4F8D919C911197281739070B
:100C800019F42FEF3FEF07C08D919C91E80FF91FEA
:100C90008081282F30E0C9010895DC011C96ED9178
:100CA000FC911D97E05CFF4F20813181E054F040C2
:100CB000DF01AE5BBF4F8D919C91119728173907CB
:100CC00019F42FEF3FEF10C08D919C911197E80F11
:100CD000F91F20818D919C91119701968F739070CF
:100CE00011969C938E9330E0C9010895DC01919692
:100CF0008C919197882339F05496ED91FC915597FA
:100D0000808186FFF9CF91961C920895CF93DF934F
:100D1000EC01EE85FF85E05CFF4F20813181E054DE
:100D2000F0402F5F3F4F2F733070DF01AE5BBF4F3E
:100D30008D919C91119728173907D1F3E05CFF4FF3
:100D400080819181E054F040E80FF91F6083EE85C7
:100D5000FF85E05CFF4F31832083EE89FF8920818E
:100D600081E090E00F8C02C0880F991F0A94E2F78F
:100D7000282B208381E089A3EC89FD898081806410
:100D8000808381E090E0DF91CF9108951092E70396
:100D90001092E60388EE93E0A0E0B0E08093E803D1
:100DA0009093E903A093EA03B093EB038DE891E0FD
:100DB0009093E5038093E4038CE593E09093F10333
:100DC0008093F00380EA93E09093F3038093F2031F
:100DD00085EC90E09093F5038093F40384EC90E02D
:100DE0009093F7038093F60380EC90E09093F903DF
:100DF0008093F80381EC90E09093FB038093FA03D7
:100E000082EC90E09093FD038093FC0386EC90E0ED
:100E10009093FF038093FE0384E08093000483E0BB
:100E20008093010487E08093020485E080930304AB
:100E300081E0809304040895CF93DF930E945A1EAB
:100E40000E94CD04C7E4D5E00E9447042097E1F357
:100E50000E944705F9CFCF92DF92EF92FF920F9356
:100E60001F93CF93DF937C016B018A01C0E0D0E038
:100E70000FC0D6016D916D01D701ED91FC910190EC
:100E8000F081E02DC7010995C80FD91F015010400E
:100E90000115110571F7CE01DF91CF911F910F91CF
:100EA000FF90EF90DF90CF900895EF92FF920F9315
:100EB0001F93CF93DF937C018B01C0E0D0E0F8015A
:100EC0000F5F1F4F6491662359F0D701ED91FC919C
:100ED0000190F081E02DC7010995C80FD91FEFCF10
:100EE000CE01DF91CF911F910F91FF90EF90089568
:100EF000DC01ED91FC910190F081E02D09950895C0
:100F0000EF92FF920F931F938C01DC01ED91FC9106
:100F10000190F081E02D6DE009957C01D801ED9103
:100F2000FC910190F081E02DC8016AE009959C01D7
:100F30002E0D3F1DC9011F910F91FF90EF90089555
:100F4000EF92FF920F931F937C010E9455078C0133
:100F5000C7010E9480079C01200F311FC9011F910A
:100F60000F91FF90EF900895CF93DF93EC016115FF
:100F7000710519F420E030E00FC0DB010D90002076
:100F8000E9F71197A61BB70BE881F9810280F3817D
:100F9000E02DAD0109959C01C901DF91CF91089524
:100FA0004F925F927F928F929F92AF92BF92CF9219
:100FB000DF92EF92FF920F931F93DF93CF93CDB702
:100FC000DEB7A1970FB6F894DEBF0FBECDBF2C01E0
:100FD000742ECB01223008F42AE019A231E2C32E8C
:100FE000D12CCC0EDD1E822E9924AA24BB24672D81
:100FF000752FA50194010E94BB2379018A01C801C4
:10100000B701A50194010E947523472D461B089442
:10101000C108D1084A3010F4405D01C0495CF601B6
:101020004083E114F1040105110521F07E2C5F2DB0
:10103000C801DDCFC201B6010E94B407A1960FB668
:10104000F894DEBF0FBECDBFCF91DF911F910F91FE
:10105000FF90EF90DF90CF90BF90AF909F908F90D8
:101060007F905F904F900895DC012115310541F488
:10107000ED91FC910190F081E02D642F0995089588
:101080000E94D0070895EF92FF920F931F939A0149
:101090007B0100E010E0B801A7010E9434081F9115
:1010A0000F91FF90EF900895EF92FF920F931F938F
:1010B0009A01E62EFF2400E010E0B801A7010E948B
:1010C00034081F910F91FF90EF900895CF92DF9217
:1010D000EF92FF920F931F936C01E62E9A01FF246B
:1010E00000E010E0B801A7010E9434088C01C6019D
:1010F0000E948007080F191FC8011F910F91FF90D0
:10110000EF90DF90CF900895CF92DF92EF92FF9211
:101110000F931F93CF93DF93EC016A017B0121159D
:10112000310541F4E881F9810190F081E02D642FCF
:1011300009951FC02A303105D1F477FF17C0E88127
:10114000F9810190F081E02D6DE209958C01442731
:101150005527BA014C195D096E097F09CE012AE0B5
:101160000E94D0079801280F391F04C02AE00E946E
:10117000D0079C01C901DF91CF911F910F91FF9082
:10118000EF90DF90CF900895EF92FF920F931F930F
:101190007B019A010027F7FC0095102FB801A701E9
:1011A0000E9484081F910F91FF90EF9008950E9474
:1011B000B40708957F928F929F92AF92BF92CF9281
:1011C000DF92EF92FF920F931F93CF93DF934C0127
:1011D0007A018B01722ECB01BA01A80197010E94FE
:1011E0007123882321F0C4016DE171E021C0C0E0CA
:1011F000D0E057016801E894D7F8C601B5012FEF98
:101200003FEF4FE75FE70E947123882351F4C60147
:10121000B5012FEF3FEF4FE75FE70E94BB211816A4
:1012200014F0C1E0D0E0219739F0C40161E271E02F
:101230000E94B407EC0193C0C801B7012FEF3FEF44
:101240004FE75FE40E940A23181654F0C801B70163
:101250002FEF3FEF4FE75FEC0E94BB21882324F480
:10126000C40165E271E0E4CFC801B70120E030E0DD
:1012700040E050E00E94BB2187FD03C0C0E0D0E009
:101280000EC0D401ED91FC910190F081E02DC401DC
:101290006DE20995EC0117FB109517F9109520E008
:1012A00030E040E05FE3DD240BC0CA01B90120E07B
:1012B00030E040E251E40E94BF219B01AC01D39495
:1012C000D71498F3C801B7010E9457215B016C0144
:1012D0000E942C227B018C01C401B801A7012AE0E5
:1012E00030E00E943408C80FD91F772039F0C401BC
:1012F00069E271E00E94B407C80FD91FC801B701A5
:101300000E9458229B01AC01C601B5010E945621E2
:1013100024C020E030E040E251E40E940E237B0133
:101320008C010E9427225B016C01CC24B7FCC09485
:10133000DC2CC401B601A5012AE030E00E9484083B
:10134000C80FD91FC601B5010E945A229B01AC01EA
:10135000C801B7010E9456217A947720D1F6CE01B8
:10136000DF91CF911F910F91FF90EF90DF90CF9081
:10137000BF90AF909F908F907F9008950E94DA0861
:101380000895EF92FF920F931F937C010E94B40780
:101390008C01C7010E948007080F191FC8011F9107
:1013A0000F91FF90EF9008950F931F93CF93DF93CA
:1013B0008C01EB0180E06115710509F081E0F80115
:1013C0008283882341F00E94E91D2197C60FD71F11
:1013D000F801D183C083DF91CF911F910F910895C0
:1013E000EF92FF920F931F93CF93DF93EC017B015A
:1013F0008A81882311F400E00FC0088119810E94BE
:10140000E91DC801861B970B2AEE8136920710F45E
:1014100000E006C0082F0195CE01B7010E94D40953
:10142000802FDF91CF911F910F91FF90EF90089542
:10143000782FE89865B121E030E040E050E000907E
:10144000830104C0220F331F441F551F0A94D2F793
:10145000322F822F8095862385B99EBD0DB407FE5D
:10146000FDCF4EB57EBD0DB407FEFDCF2EB5942F3A
:1014700080E045B1342B35B9E89A30E0282B392B80
:10148000C90108950E94180A089580910604909158
:1014900007048F70909307048093060480910604DC
:1014A00090910704886090930704809306048091CC
:1014B0000604909107040E94180A089580915D0423
:1014C000873009F059C090916104992399F0809177
:1014D0006004891728F480916004873408F44CC0B4
:1014E00084E080935D0481E090E090930E0480930B
:1014F0000D049AC0809111042091600490E004963C
:1015000030E08217930724F0809160048734A0F1C3
:1015100084E080935D0480911104833430F081E095
:1015200090E090930E0480930D048091100486FF48
:1015300012C080915C04282F30E0C9018F71907037
:101540004F9749F08091100490E0822793278F7184
:101550009070892B89F480910D0490910E04892B51
:1015600009F056C0E0915A04F0915B04309709F4F9
:101570004FC080E0099558C080915D04843011F01F
:1015800080E008951092110480911104809360040A
:101590008FEF9FEF90930E0480930D0420915E04D3
:1015A0002223D9F08227282F22952827022E26953C
:1015B00026952025022E269520252770082E892F76
:1015C000269507942795902D822706942795902598
:1015D000822790930E0480930D0487E080935D042E
:1015E00081E080930B0483EA94E90E94180A8091B9
:1015F000060490910704886D909307048093060475
:1016000080910604909107040E94180A80E00895D2
:101610008FEF9FEFAFEFBFEF809356049093570487
:10162000A0935804B093590481E008950F931F9339
:10163000082F10E0C801966C0E94180A98012F77B5
:1016400030702F5F3F4F442737FD4095542F6BEF8D
:1016500072E485E090E00E94BB23CA01B901000F4B
:10166000012F001F110B980143E0220F331F4A95F1
:10167000E1F7201B310B2F5F3F4F442737FD40958B
:10168000542F0E94BB2393E0569547953795279595
:101690009A95D1F72D573C4F4F4F5F4FCA01B90173
:1016A00024E833E040E050E00E94BB2320930C0488
:1016B0001F910F91089580915D04843069F08091AD
:1016C0005D04873059F480916004882339F40E94C6
:1016D000450A84E080935D0481E0089580E00895E8
:1016E000982F86FD05C0907E80915C048F71980FC5
:1016F00090931004E0915A04F0915B04309711F03C
:1017000081E009958FEF9FEF90930E0480930D0475
:1017100080910D0490910E0420915E048227282F61
:1017200022952827022E269526952025022E2695DD
:1017300020252770082E892F269507942795902D10
:101740008227069427959025822790930E048093F4
:101750000D0488E080935D04809106049091070455
:101760008863909307048093060480910604909107
:1017700007040E94180A0895DF92EF92FF920F93D8
:101780001F937B018C01DD2405C0D394169507952A
:10179000F794E7948FEFE816F1040105110509F0BD
:1017A000A0F7809106049091070481FF0FC08091FB
:1017B0000604909107048D7F90930704809306049C
:1017C00080910604909107040E94180AE114F10424
:1017D00001051105B9F0C701906E3D2D20E0822B67
:1017E000932B0E94180A809106049091070482604E
:1017F0009093070480930604809106049091070457
:101800000E94180A1F910F91FF90EF90DF900895AA
:10181000E89885B121E030E040E050E0009083019D
:1018200004C0220F331F441F551F0A94D2F7322FD2
:10183000922F9095982395B91EBC0DB407FEFDCF4D
:101840006EB51EBC0DB407FEFDCF2EB5962F80E001
:10185000622F70E0682B792B77FF0FC080915D04B9
:10186000873059F48CB581608CBD1EBC0DB407FE69
:10187000FDCF2EB58CB58E7F8CBD85B1382B35B99B
:10188000E89A709309046093080480910804909189
:10189000090497FFECC080915D04873009F082C095
:1018A00080916004882371F490915E04992351F033
:1018B00080916004E82FF0E0E15FFB4F90838F5F41
:1018C0008093600480916004E82FF0E0E15FFB4FBB
:1018D00020838F5F8093600480910D0490910E04AB
:1018E0008227282F22952827022E26952695202507
:1018F000022E269520252770082E892F26950794DD
:101900002795902D822706942795902582279093DE
:101910000E0480930D0420910B04233040F5809138
:10192000600490E060910C04029770E00E94A8238C
:10193000892BE9F48091080490910904E22FF0E0EA
:1019400090FF04C0E756FE4F808104C0E756FE4F6B
:10195000808182958F7080930B04833040F490E0F7
:10196000880F991F0196806A94690E94180A9091C5
:101970006104992329F080916004891780F40AC0DA
:10198000809111042091600490E0049630E0821769
:1019900093072CF080916004873408F468C00E949B
:1019A000450A65C080915D0487FF2EC0E091110457
:1019B00080915D048F5F80935D048150ED5FE80F3F
:1019C000F0E0E15FFB4FE08180910D0490910E0407
:1019D0008E27282F22952827022E2695269520250A
:1019E000022E269520252770082E892F26950794EC
:1019F0002795902D822706942795902582279093EE
:101A00000E0480930D042EC080915D048F5F80933F
:101A10005D048150833019F184302CF4882399F0CF
:101A20008130F9F416C08B3019F08C30D1F402C03B
:101A3000EDE218C0E0915E04909111048EEF891BD5
:101A400080935D040FC080910D0490910E04E82FE7
:101A500009C080910D0490910E04E92F03C00E94EB
:101A6000450AEAEA8E2F90E0986B0E94180A80914E
:101A700008049091090496FF03C086E080935D04FA
:101A8000809108049091090494FF09C060E070E01F
:101A900080E090E00E94BC0B81E080930A0480917A
:101AA00008049091090495FF05C00E94450A84E04E
:101AB00080935D0408951F93182F4093110422E131
:101AC00034E0C90150E00E94AD03812F0E94700BE9
:101AD0001F91089580915C0490E08F719070892B24
:101AE00041F080E068E07CE040E050E00E94EC1CC7
:101AF000089580E00E940F1D08951F9380935C0459
:101B000040935E0460935F040E946A0D109261042A
:101B1000E89885E092E8909307048093060480910A
:101B20000604909107040E94180A80915F0490E0D7
:101B300074E0880F991F7A95E1F7876C90680E948E
:101B4000180A80E496EA0E94180A86E00E94160BA2
:101B500082EA94E90E94180A8CEA92EC0E94180A20
:101B600010915E04112341F083E89AEC0E94180A58
:101B7000812F90E09E6C06C08BE89AEC0E94180AB8
:101B80008DE29EEC0E94180A83E894EC0E94180AE9
:101B900080E598E90E94180A87E79CEC0E94180AE1
:101BA00080E090EE0E94180A80E098EC0E94180AEB
:101BB00089E490EC0E94180A84E080935D04E89A1E
:101BC0001F91089525B181E090E0A0E0B0E0009081
:101BD000830104C0880F991FAA1FBB1F0A94D2F764
:101BE000282B25B924B1822B84B98AE061E00E94B8
:101BF000D41E8AE061E00E94951E8BE061E00E94A5
:101C0000951E8CE060E00E94951E8DE061E00E94D0
:101C1000951E80E58CBD8DB581608DBD82E060E054
:101C20000E94951E82E061E00E94D41E0895FF92FA
:101C30000F931F93182F062FF42E80935C0440936C
:101C40005E0460935F040E94E20D0E946A0D82E8C8
:101C50009AEC0E94180A80E09EEF0E94180A85E024
:101C600080935D0483B7817F06C083B7816083BFA3
:101C7000889583B78E7F83BF80915D048530A9F3FB
:101C8000812F602F4F2D0E947D0D80915C041F914C
:101C90000F91FF90089580916A0408956093620403
:101CA000709363048093640490936504209184018D
:101CB000309185014091860150918701260F371F91
:101CC000481F591F209366043093670440936804AB
:101CD0005093690482E080936A040E94E91D609336
:101CE0006B0470936C0480936D0490936E0408955C
:101CF000FC01E053FF4F9081E05DF040933018F01D
:101D000020E030E008C084E4989F900111242A5F0D
:101D10003F4F2E0F3F1FC9010895FC0180EA91E05B
:101D20009183808390918604992371F08091870438
:101D3000882351F08F3140F4E852FF4F9083E85DE3
:101D4000F04080936F0407C0E852FF4F4083E85D86
:101D5000F04060936F0481E0828383830895089547
:101D6000FF920F931F938C01F62E84EE93E060EDAB
:101D700070E00E94550784EE93E060916F044AE0A2
:101D800050E00E94540884EE93E065EC70E00E94FD
:101D9000550708521F4F84EE93E0F80160814AE036
:101DA00050E00E94540884EE93E06EEB70E00E94D5
:101DB000550784EE93E06F2D4AE050E00E945408EE
:101DC00080916F0463E0F80140810E94170EF2E0F9
:101DD000FF1621F083E0F81611F50FC084EE93E0B2
:101DE0006FEA70E00E94A00787E598E90E94420A26
:101DF00082EB94E90E94420A16C084EE93E066EA00
:101E000070E00E94A00781E196EC0E94420A81ECFA
:101E100094E90E94420A80E298E90E94420A84EE14
:101E200093E00E94800783E00E947C1D85E060E0D3
:101E30000E94951E1F910F91FF900895AF92BF923F
:101E4000CF92DF92EF92FF920F931F93DF93CF9386
:101E5000CDB7DEB76C01ADB6BEB68B017B016115A7
:101E6000710579F084EE93E065EE70E00E9455070D
:101E700084EE93E0F80160814AE050E00E94660839
:101E80000DC00F92EDB6FEB60894E11CF11C81E086
:101E9000EDB7FEB78183B7010E949411C601F70127
:101EA00060810E94B00E0FB6F894BEBE0FBEADBEEC
:101EB000CF91DF911F910F91FF90EF90DF90CF9026
:101EC000BF90AF9008950F931F938C0185E00E94FF
:101ED0007F1D06521F4F8C52914095958795959581
:101EE0008795F80180831F910F910895EF92FF92DB
:101EF0000F931F93CF93DF93EC01C053DF4F888183
:101F0000C05DD040882309F47DC01C81CF52DF4FD3
:101F10008881C15DD04090E007970CF01F7DBE0125
:101F20006A5F7F4F812F4D810E945B0D84EE93E0AD
:101F30006EEE70E00E945507812F90E030E2E32EB4
:101F4000F12CE822F92215FD03C06BE271E002C01A
:101F500064E371E084EE93E00E94D70884EE93E09E
:101F60006DE371E00E94D7088E010F521F4F84EE7F
:101F700093E0F80160814AE050E00E94540884EE4A
:101F800093E06FE371E00E94D70884EE93E06E81E6
:101F900040E150E00E94540884EE93E063E471E075
:101FA0000E94D70884EE93E06D814AE050E00E94E1
:101FB0006608EF28D9F4C053DF4F8881C05DD04058
:101FC000823050F0DE011496FE01E85BFF4F88E896
:101FD00001900D928150E1F7FE01E053FF4F8081A7
:101FE00081508083CF52DF4F18820CC0F80180816E
:101FF0008F5F80830E94E91DCE52DF4F6883798313
:102000008A839B83DF91CF911F910F91FF90EF9077
:102010000895EF92FF920F931F93CF93DF93EC01FC
:1020200046EDE42EF12CE80EF91EF701808188239D
:10203000A1F10E945B0B882381F18E0109521F4F91
:10204000F7018081B80141E00E945B0DF701108229
:10205000F801108229C0CF52DF4F8881C15DD04086
:10206000882399F00E94E91DCE52DF4F28813981E3
:102070004A815B81C25DD0402C593F4F4F4F5F4F2B
:10208000621773078407950778F00E945B0B88231B
:1020900059F0CE010E94760F07C0C053DF4F8881F0
:1020A000C05DD0408823B9F6DF91CF911F910F9189
:1020B000FF90EF900895CF93DF93EC010E945E0AAA
:1020C000882309F47CC080910D0490910E04892B23
:1020D00009F069C08091100487FD1DC0CE010E94E7
:1020E000630F8091100485FF13C0909110049F71BD
:1020F00080916F04981711F4892F02C0892F806492
:10210000CA52DF4F8068888324968881239788830A
:102110008091120458C08091100485FD50C0CE01FA
:102120000E94630F2091100430E02F713070809175
:102130006F0490E02817390709F041C0C053DF4F02
:102140008881C05DD0408823D1F1CF52DF4F888194
:10215000C15DD040882399F180911104813011F044
:1021600080E002C080911204C752DF4F8883299714
:102170008881C05DD040823050F0DE011496FE01AF
:10218000E85BFF4F88E801900D928150E1F7FE0176
:10219000E053FF4F808181508083CF52DF4F188200
:1021A000C15DD0400CC080910D0490910E04892B2C
:1021B00031F084EE93E065E471E00E94C109CE0144
:1021C0000E94091080E0DF91CF910895EF92FF9275
:1021D0000F931F93CF93DF93EC0150EDE52EF12C7D
:1021E000E80EF91E8C010A521F4F0BC0CE010E944F
:1021F0005B10882371F461E070E080E090E00E9461
:10220000F71DF7018081882389F7F80180818823F1
:1022100069F7DF91CF911F910F91FF90EF90089593
:10222000CF93DF93EC01DC01A053BF4F2C912330FF
:1022300058F530E084E490E0289FF001299FF00DEC
:10224000389FF00D1124EC0FFD1F65838C9190E0F9
:10225000FC0124E0EE0FFF1F2A95E1F7E80FF91FBC
:102260003196EE0FFF1FEE0FFF1FEC0FFD1F408397
:102270008C918F5F8C93813039F40E945B0B8823A3
:1022800019F0CE010E94760FDF91CF9108959C0145
:10229000411140E280916F04482BC9010E94101146
:1022A00008959C01F999FECF32BD21BDF89A80B501
:1022B00008959C01F999FECF1FBA32BD21BD60BDC2
:1022C0000FB6F894FA9AF99A0FBE0895CF93DF9358
:1022D000EC01462F009721F440911104C2E1D4E0B3
:1022E0004423F9F0388120917204E0917004F09158
:1022F000710490E014C0A191B19112968C91129743
:10230000831761F4ED91FC91119721964150028061
:10231000F381E02DCD01BE01099503C09F5F9217A7
:1023200050F3DF91CF9108951F93182F50917204AD
:10233000A0917004B091710420E230E090E047C0B9
:10234000ED91FD9182814381811709F03DC0C90162
:1023500050E029E531E10E94D90340917304509186
:102360007404FA01329720E030E06FEF7FEF21C074
:10237000F999FECF205E3F4F32BD21BDF89A80B55E
:102380006827862F82958627082E86958695802534
:10239000082E869580258770062E672F86950794D0
:1023A0008795702D682706948795702568272F518B
:1023B00030402E173F0708F4DBCFCA014E9649E59F
:1023C00051E10E94F50319C0240F311D9F5F95173D
:1023D00008F4B6CF84EE93E061E471E00E94550703
:1023E00084EE93E0612F4AE050E00E94540884EEAE
:1023F00093E066E271E00E94A0071F9108958F921A
:102400009F92AF92BF92DF92EF92FF920F931F9332
:10241000DF93CF93CDB7DEB7C054D0400FB6F8945A
:10242000DEBF0FBECDBF5C0120E0322F3F5FE22F49
:10243000F0E0EE0FFF1FEA0DFB1D80819181892BDB
:1024400011F0232FF2CF20937204B0927104A09266
:10245000700484EE93E063EC71E00E94550784EE13
:1024600093E0609172044AE050E00E94540884EEC8
:1024700093E069EB71E00E9455071092740410928A
:102480007304EE244EC00E2D10E0F801EE0FFF1F76
:10249000EA0DFB1D0190F081E02DF38080E48F15A3
:1024A000A8F584EE93E00E94800784EE93E069E94A
:1024B00071E00E9455070F5F1F4F84EE93E0B80153
:1024C0004AE050E00E94C40884EE93E069E871E0BD
:1024D0000E94550784EE93E06F2D4AE050E00E9481
:1024E000540884EE93E063E871E00E94550784EE9F
:1024F00093E060E470E04AE050E00E94C40884EE9B
:1025000093E06DE771E00E94A0070AC08091730418
:10251000909174048F0D911D9093740480937304B3
:10252000E39480917204E81608F4ADCF60917304CF
:10253000709174046E5F7F4F7093740460937304A2
:1025400084EE93E04AE050E00E94430884EE93E07A
:1025500066E771E00E94A0076091730470917404B3
:1025600020E030E04FEF5FEF21C0F999FECF205E11
:102570003F4F32BD21BDF89A80B54827842F829500
:102580008427082E869586958025082E8695802599
:102590008770042E452F869507948795502D4827E0
:1025A00006948795502548272F5130402617370726
:1025B00008F4DBCF452B01F184EE93E060E671E097
:1025C0000E94A00710E013C0E12FF0E0EE0FFF1F04
:1025D000EA0DFB1DA081B181ED91FC911197019055
:1025E000F081E02DCD0160E070E009951F5F8091E2
:1025F0007204181748F337C084EE93E061E571E088
:102600000E94A00790E2E92EF12CDD244E010894EF
:10261000811C911C24C00D2D10E0000F111F0A0D0C
:102620001B1DD801ED91FC914381C401B70150E01D
:1026300021E531E10E94BD03F801A081B181ED9156
:10264000FC9111970190F081E02DCD01B401099525
:10265000D801ED91FC918381E80EF11CD394809117
:102660007204D816C0F2C05CDF4F0FB6F894DEBF1C
:102670000FBECDBFCF91DF911F910F91FF90EF90D3
:10268000DF90BF90AF909F908F9008950895089528
:10269000FC01E45BFF4F1082EC54F04082E0868343
:1026A00081E0878380E08160808708950F931F9386
:1026B0008C01FC011382128288EA91E0918380836D
:1026C0000C9695838483C8010E944813F801818584
:1026D000887F856081871F910F91089504970E94DC
:1026E00072130895CF93DF93EC01FB01BC01685F87
:1026F0007F4F309719F08081888705C0898588874A
:1027000082E00E94941184EE93E068EE71E00E94F2
:102710005507888580FF06C084EE93E060EE71E087
:102720000E945507888581FF06C084EE93E06BED1B
:1027300071E00E945507888582FF06C084EE93E011
:1027400065ED71E00E9455078885882331F484EE99
:1027500093E06CEC71E00E94550784EE93E00E94D8
:102760008007DF91CF9108950F931F93CF93DF934D
:10277000EC018C01045B1F4FD8018C91FE01E80F26
:10278000F11D1286888580FF16C0BE01665F7F4FEF
:1027900084EE93E00E94D708F8018081882359F0E5
:1027A000FE01E80FF11D81858A3029F484EE93E063
:1027B0006DE00E947807888582FF1EC084E292E067
:1027C0000E94780E0097C1F0FC0182E081938E0197
:1027D000045B1F4FD8014C919E01265F3F4FCF01F4
:1027E000B90150E00E94AD03F80160816F5F84E29F
:1027F00092E041E00E944711C45BDF4F1882DF91F5
:10280000CF911F910F9108951F93CF93DF93EC0108
:10281000162FC45BDF4F8881CC54D040813418F030
:10282000CE010E94B413DE01A45BBF4F8C91FE0168
:10283000E80FF11D12878F5F8C931A3019F4CE01C7
:102840000E94B41381E090E0DF91CF911F91089531
:10285000FC018281681728F070E060E090EC8FE75F
:102860000FC0862F90E0880F991F880F991F028450
:10287000F385E02DE80FF91F7081618192818381DA
:10288000272F362F492F582FB901CA010895FC016F
:102890008281681718F020E030E826C086E0689F43
:1028A000C00111240388F489E02DE80FF91F9081FD
:1028B000818198170CF4892F928198170CF4892F35
:1028C000938198170CF4892F9481282F98170CF472
:1028D000292F9581822F92170CF4892F282F3327C7
:1028E00027FD3095285A3F4FC9010895FC01828188
:1028F000681718F020E030E826C086E0689FC00125
:1029000011240588F689E02DE80FF91F9081818157
:1029100089170CF4892F928189170CF4892F9381E0
:1029200089170CF4892F9481282F89170CF4292FEB
:102930009581822F29170CF4892F282F332727FD03
:102940003095285A3F4FC9010895AF92BF92CF9258
:10295000DF92EF92FF920F931F93DF93CF93CDB748
:10296000DEB7AA970FB6F894DEBF0FBECDBFFC014D
:102970000BA31CA32DA33EA34FA358A769A77AA717
:102980000190F081E02DDE01559634968EE00190A5
:102990000D928150E1F78E010B5E1F4FC8010E941E
:1029A0003F20C801BE016D5D7F4F0E941E20C801FF
:1029B0006EEB40E00E94D91F49E0E42EF12CEC0EB2
:1029C000FD1E5801C701DE2CC92E8E010E5E1F4F61
:1029D000C5010E94881FF70181937F01E017F1076D
:1029E000B9F78D2D9C2D68E00E94431F99898917A6
:1029F00069F52985222319F48A85882339F18E8582
:102A00008F3F21F58889803109F59A8580E0422F32
:102A100050E0482B592BDE011196E8EBF1E088E0FD
:102A200001900D928150E1F7ED85F0E0E076F070D5
:102A300034E0F695E7953A95E1F7EC0FFD1F21811B
:102A40003281209530952423352302C020E030E8E0
:102A5000C901AA960FB6F894DEBF0FBECDBFCF91C5
:102A6000DF911F910F91FF90EF90DF90CF90BF907B
:102A7000AF9008958F929F92AF92BF92CF92DF92C4
:102A8000EF92FF920F931F93CF93DF93EC01D22E1F
:102A9000C32EB42EA52E962E872E0E94A5149C011F
:102AA00080E82030380751F5CE012D2D3C2D4B2DDF
:102AB0005A2D692D782D0E94A5149C0180E82030A4
:102AC0003807E1F4CE012D2D3C2D4B2D5A2D692DCB
:102AD000782D0E94A5149C0180E82030380771F4FD
:102AE000CE012D2D3C2D4B2D5A2D692D782D0E9478
:102AF000A5149C0180E82030380701F185E02035DD
:102B00003807E1F0B901882777FD8095982F0E945A
:102B10005A2220E030E040E85DE30E940E2326E6E2
:102B200036E646EE5FE30E940E2320E030E040E010
:102B300052E40E945721E62F692F04C0E0E070E0C4
:102B400080EC6FE72E2F372F482F562FB901CA017F
:102B5000DF91CF911F910F91FF90EF90DF90CF9079
:102B6000BF90AF909F908F9008950F931F93DF9326
:102B7000CF93CDB7DEB72E970FB6F894DEBF0FBE5A
:102B8000CDBFFC010190F081E02DDE01119634965D
:102B90008EE001900D928150E1F78E010F5F1F4F83
:102BA000C8010E943F20C8010E941920C80164E4A6
:102BB00041E00E94D91F2E960FB6F894DEBF0FBEDB
:102BC000CDBFCF91DF911F910F910895DF92EF92CA
:102BD000FF920F931F93DF93CF93CDB7DEB7669726
:102BE0000FB6F894DEBF0FBECDBFFC010F87188B68
:102BF000298B3A8B4B8B5C8B6D8B7E8BDE2C019003
:102C0000F081E02DDE01119634968EE001900D9258
:102C10008150E1F78E010F5F1F4FC8010E943F20D6
:102C20006FE0E62EF12CEC0EFD1EC801B7010E94EC
:102C30001E20C8016EE440E00E94D91FC80160E078
:102C400040E00E94D91FC80160E040E00E94D91F07
:102C5000D294DD0C50EED522DA94C8016D2D40E0FF
:102C60000E94D91FC8010E943F20C801B7010E94DD
:102C70001E20C80168E441E00E94D91F6AE070E0AC
:102C800080E090E00E94F71DC8010E94281F669610
:102C90000FB6F894DEBF0FBECDBFCF91DF911F916D
:102CA0000F91FF90EF90DF9008952F923F924F92F7
:102CB0005F926F927F928F929F92AF92BF92CF92CC
:102CC000DF92EF92FF920F931F93CF93DF936C01EC
:102CD000762E0E9660E67AEE0E94F009882309F4BB
:102CE00055C0D60151968D919C915297019652965E
:102CF0009C938E935197803F910508F447C052965C
:102D00001C921E92519760E070E040E050E010E8A5
:102D100034C0E901D6015396ED91FC915497E40F2C
:102D2000F51F9E0121503040DF01AC0FBD1FE20FA7
:102D3000F31F80818C93D6015596ED91FC915697A7
:102D4000E40FF51FCE0FDF1FE20FF31F8081888392
:102D500021153105F1F65396ED91FC915497E40F4E
:102D6000F51F10835596ED91FC915697E40FF51FD2
:102D700010836F5F7F4F4A5F5F4FE6018A8190E06B
:102D8000681779071CF4C5E0D0E0C4CF0E94E91DA4
:102D90004B015C01F6018581882309F0A7C07720EB
:102DA00009F481C086819781A085B1850097A1052E
:102DB000B10509F478C085017401E81AF90A0A0B13
:102DC0001B0B672D70E080E090E028EE33E040E0E0
:102DD00050E00E9475236E157F058007910708F467
:102DE00062C06DC1CF016F2D0E94C718223219F049
:102DF000283209F04EC0D6011396ED91FC9114973C
:102E0000EF0DF11D8081871509F441C07082872D77
:102E100090E09C01220F331F220F331F1A96ED9171
:102E2000FC911B97E20FF31F208231824282538272
:102E30008C01000F111F080F191F000F111F53964F
:102E40002D913C915497200F311FC90160E870E02B
:102E500046E050E00E94B603E6012D893E89200F2E
:102E6000311FC90160E870E046E050E00E94B603FF
:102E7000888199816F2D0E94C718FC01C6018901C4
:102E80009A01AB01BF01EAE0EE2E0E94E6157394B1
:102E900008C0D6011396ED91FC911497EF0DF11D2A
:102EA0006082F3940EC07724FF240F2EF0E02F2EC3
:102EB000F0E03F2EF0EC4F2EFFE75F2EF02D662462
:102EC0006A94E601E881F9818389F81608F48ACFCB
:102ED000772009F4F4C0C6010E94B515F601868278
:102EE0009782A086B18681E08583E9C0813009F0B0
:102EF000E6C0E6018E819F81A885B985881A990A66
:102F0000AA0ABB0AEDEB8E169104A104B10408F4E1
:102F1000D6C0992441E0642E712C0F2EF0E02F2EA4
:102F2000F0E03F2EF0EC4F2EFFE75F2EF02DBBC000
:102F3000E601EB81FC81E90DF11DB080EFEFBE16DB
:102F400009F4B0C0CD01692D0E94C718FC01C6016B
:102F500089019A01AB01BF010E943A157B018C01E6
:102F6000E301092C02C0CC0FDD1F0A94E2F7A8018F
:102F700097010E947123D6011C962D913C911D97BB
:102F80008823D9F0CE0182239323892B81F08B2DC6
:102F900090E0880F991F880F991FE601EA85FB854D
:102FA000E80FF91F20823182428253827BC02C2B92
:102FB0003D2BF6013587248775C0CE01809590950D
:102FC00028233923D6011D963C932E931C97AB2CB6
:102FD000BB24C501880F991F880F991F1A96ED9180
:102FE000FC911B97E80FF91FE082F18202831383A3
:102FF000C801B70120E030E040E050E00E940A2321
:1030000088234CF0C801B70120E030E040E05FE3E6
:103010000E94572108C0C801B70120E030E040E01D
:103020005FE30E9456210E942722162F1855E501C2
:10303000CC0FDD1FCA0DDB1DCC0FDD1FD601539653
:10304000ED91FC915497EC0FFD1F8581803859F468
:10305000212F332727FD3095CF01B90146E050E0FD
:103060000E94B60306C08081803811F018170CF456
:103070001083D6015596ED91FC915697EC0FFD1FEC
:103080008581803859F4212F332727FD3095CF01D2
:10309000B90146E050E00E94B60304C08081811768
:1030A0000CF410839394E601A881B98153968C9116
:1030B0005397981608F43CCF1D8281E001C080E050
:1030C000DF91CF911F910F91FF90EF90DF90CF9004
:1030D000BF90AF909F908F907F906F905F904F9038
:1030E0003F902F9008950F931F93CF93DF93EC01A0
:1030F0008B0179836883413108F040E14A831D8266
:103100001D861C86F801828990E061E070E00E94D3
:103110008F028B839C83F80142896FEF70E050E04F
:103120000E94B6038A8190E064E070E00E948F0202
:103130008A879B878A8190E066E070E00E948F0218
:103140008B8B9C8B2A8116E0219F9001112460E8D3
:1031500070E0A9010E94B6038A8190E066E070E009
:103160000E948F028D8B9E8B2A81219F90011124BA
:1031700060E870E0A9010E94B603DF91CF911F9132
:103180000F910895FC01108A0E9473180895FC01A4
:103190008389681748F020E030E040E050E060E0CC
:1031A00070E080E090E00895862F90E033E0880F93
:1031B000991F3A95E1F70488F589E02DE80FF91F8A
:1031C000208131814281538164817581868197811B
:1031D0000895EF92FF921F93CF93DF93EC017B0151
:1031E00061157105B1F1EC89FD8980819181892B8F
:1031F0009281892B9381892B9481892B9581892BAD
:103200009681892B9781892B21F510E01FC0A12F72
:10321000B0E0CD0143E0880F991F4A95E1F7EC89B2
:10322000FD89E80FF91FAA0FBB1FAA0FBB1FAE0D28
:10323000BF1D2D913D914D915C912083318342833F
:10324000538314821582168217821F5F8A8918178A
:10325000F0F2DF91CF911F91FF90EF9008950895C4
:10326000CF92DF92EF92FF920F931F93DF93CF9352
:10327000CDB7DEB728970FB6F894DEBF0FBECDBF2F
:103280006B01E982FA820B831C832D833E834F837B
:103290005887CB0162E571E00E94D7088E010F5F6D
:1032A0001F4F65E0E62EF12CEC0EFD1EF80160814B
:1032B00070E054E0759567955A95E1F7C60140E1D5
:1032C00050E00E94C408F80161918F0170E06F70B6
:1032D0007070C60140E150E00E94C4080E151F0541
:1032E00029F728960FB6F894DEBF0FBECDBFCF9159
:1032F000DF911F910F91FF90EF90DF90CF90089595
:103300002F923F924F925F926F927F928F929F92F5
:10331000AF92BF92CF92DF92EF92FF920F931F93E3
:10332000DF93CF93CDB7DEB767970FB6F894DEBFC4
:103330000FBECDBF3C012B010DB71EB71F8B0E8BEF
:103340009C012C5F3F4F3D872C87C9010E94361F8F
:103350001B861A86222433241986AAC0CE01019620
:1033600067E00E94431F89809A80AB80BC80CD803B
:10337000DE80EF80F88410E020E030E040E050E0B4
:1033800060E070E08E871F87288B398B4A8B5B8BC0
:103390006C8B7D8B9401A501B601C70108E30E94E7
:1033A00010021E85121709F083C02F85231709F01C
:1033B0007FC03889341709F07BC04989451709F067
:1033C00077C05A89561709F073C06B89671709F0DF
:1033D0006FC07C89781709F06BC08D89891709F057
:1033E00067C0D30152965C9140E020E030E029C0F4
:1033F000D3015496ED91FC915597E20FF31F285F8E
:103400003F4F80819181A281B38188159905AA05DA
:10341000BB05B1F480829182A282B382C482D5823C
:10342000E682F78281E090E002C0880F991F4A95FA
:10343000E2F7EA85FB85E82BF92BFB87EA8735C0A5
:103440004F5F4517A8F240E020E030E02CC0D301E8
:103450005496ED91FC915597E20FF31F285F3F4F73
:1034600080819181892B9281892B9381892B9481F1
:10347000892B9581892B9681892B9781892B91F4B2
:1034800080829182A282B382C482D582E682F78250
:1034900081E090E002C0880F991F4A95E2F7282A40
:1034A000392A03C04F5F451790F2B985BF5FB987CE
:1034B0008C859D85BE016F5F7F4F0E948A20882387
:1034C00009F04CCF8C859D850E94361FF3018289BF
:1034D000838B41E050E004C02150D30153962C93DC
:1034E000F30123892223F1F0CA01821B910933E001
:1034F000880F991F3A95E1F70488F589E02DE81BBC
:10350000F90B80819181892B9281892B9381892B61
:103510009481892B9581892B9681892B9781892B81
:10352000D9F21FC121143104B9F1C20167E372E07D
:103530000E945507DD2429C0C1010D2C02C09695BB
:1035400087950A94E2F780FF1FC0C2016CE571E025
:103550000E94D7088D2D90E023E0880F991F2A95AF
:10356000E1F7D3015496ED91FC915597E80FF91FBF
:10357000E080F18002811381248135814681578169
:10358000C301B2010E943019D394F3018289D81685
:1035900098F2C2010E948007CA84DB84C228D32823
:1035A000C094D09481E090E0D30153960C9002C077
:1035B000880F991F0A94E2F70197C822D922C114F3
:1035C000D10409F44FC0C20162E272E00E945507C3
:1035D000BB2440C0C6010B2C02C0969587950A9467
:1035E000E2F780FF36C00B2D10E083E0000F111FC3
:1035F0008A95E1F7D3015496ED91FC915597E00F30
:10360000F11F80819181892B9281892B9381892B54
:103610009481892B9581892B9681892B9781892B80
:10362000C1F0C2016CE571E00E94D708D301549645
:10363000ED91FC915597E00FF11FE080F180028140
:1036400013812481358146815781C301B2010E94D3
:103650003019B394F3018389B81608F4BBCFC201C3
:103660000E948007EA85FB85D3015896FC93EE9370
:103670005797C20167E172E00E945507C201698550
:103680004AE050E00E945408C20162E172E00E94E8
:103690005507C201D30153966C914AE050E00E9455
:1036A0005408C20169E072E00E94A007F301828918
:1036B00090E0880F991F880F991F0DB71EB7081B40
:1036C000190B0FB6F8941EBF0FBE0DBF6DB77EB7B6
:1036D0006F5F7F4F40E01CC0842F90E0880F991FE0
:1036E000880F991F9B01280F391F880F991FD3013D
:1036F0005496ED91FC915597E80FF91F80819181C7
:10370000A281B381F90180839183A283B3834F5F48
:10371000D30152968C914817F8F286E00E949411DA
:103720008985EE89FF890FB6F894FEBF0FBEEDBF05
:1037300067960FB6F894DEBF0FBECDBFCF91DF9175
:103740001F910F91FF90EF90DF90CF90BF90AF90BF
:103750009F908F907F906F905F904F903F902F90B1
:1037600008952A853B8522293329D30157968D91C7
:103770009C9158972817390709F0D4CE73CF1F931F
:10378000CF93DF93EC01142F84EC91E0998388832D
:10379000CE0104960E942021113108F010E11A8B0D
:1037A0001B8A188E1F8A86E08A83812F90E0880FFB
:1037B000991F880F991F8B83812F90E068E070E03C
:1037C0000E948F028C8B9D8B1E8ADF91CF911F915F
:1037D0000895FC018CEC91E091838083148283E056
:1037E000828381E083830895FC01DB01611571050B
:1037F00019F08C91848305C0349683E0BF010E9448
:10380000941184EE93E06EE571E00E94C109089581
:103810001F93CF93DF93EB01443098F00E944B0E3F
:10382000182F688179818A819B810E944E0E112315
:1038300041F480917701909178016CE472E00E94EC
:10384000A007DF91CF911F9108950F931F93DF93EE
:10385000CF93CDB7DEB766970FB6F894DEBF0FBE35
:10386000CDBFFC010F87188B298B3A8B4B8B5C8B60
:103870006D8B7E8B0190F081E02DDE0111963496E8
:103880008EE001900D928150E1F78E010F5F1F4F86
:10389000C8010E943F20C801BE01615F7F4F0E94A6
:1038A0001E20C8010E94541F91E0892766960FB61A
:1038B000F894DEBF0FBECDBFCF91DF911F910F9166
:1038C0000895CF92DF92EF92FF920F931F93CF93C1
:1038D000DF93EC01D62E0E94E91D7B018C01DD20D7
:1038E00009F44DC08F819885A985BA850097A105F7
:1038F000B10509F444C0E81AF90A0A0B1B0B6D2D37
:1039000070E080E090E028EE33E040E050E00E947C
:1039100075236E157F058007910788F180E039C017
:10392000CF016F2D0E94C718222339F58881998114
:103930006F2D0E94C718FC01CE0189019A01AB01CD
:10394000BF010E94251CA6010F2C02C0440F551F69
:103950000A94E2F7409550952D813E81242335232A
:103960003E832D83EB81FC81EF0DF11D20E030E0E3
:10397000882311F021E030E02083F39404C0FF2479
:1039800021E0C22ED12CE881F9818389F81640F21A
:1039900081E0DF91CF911F910F91FF90EF90DF9029
:1039A000CF900895CF93DF93EC01FB017983688377
:1039B000413108F040E14A831E821D82828990E0F5
:1039C00061E070E00E948F028B839C83DF91CF9136
:1039D00008950E94D21C0895823000F5E82FF0E08F
:1039E000EE0FFF1FEB58FB4F71836083882319F0A4
:1039F0008130A1F408C0809169008C7F842B809372
:103A00006900E89A089580916900440F551F440F9A
:103A1000551F837F842B80936900E99A0895823033
:103A200080F4882319F0813021F402C0E89801C0A5
:103A3000E998E82FF0E0EE0FFF1FEB58FB4F1182E3
:103A4000108208951F920F920FB60F9211242F9398
:103A50003F934F935F936F937F938F939F93AF9316
:103A6000BF93EF93FF938091750490917604892B17
:103A700029F0E0917504F09176040995FF91EF919A
:103A8000BF91AF919F918F917F916F915F914F9176
:103A90003F912F910F900FBE0F901F9018951F927E
:103AA0000F920FB60F9211242F933F934F935F9372
:103AB0006F937F938F939F93AF93BF93EF93FF93F6
:103AC0008091770490917804892B29F0E091770414
:103AD000F09178040995FF91EF91BF91AF919F917B
:103AE0008F917F916F915F914F913F912F910F90A7
:103AF0000FBE0F901F901895809388010895982FFE
:103B00008E3008F09E509770809188018295880FC2
:103B1000880F807C892B80937C0080917A00806460
:103B200080937A0080917A0086FDFCCF2091780006
:103B300040917900942F80E030E0282B392BC90187
:103B400008951F920F920FB60F9211242F933F9357
:103B50008F939F93AF93BF9380917D0490917E0448
:103B6000A0917F04B0918004309181040196A11D41
:103B7000B11D232F2D5F2D3720F02D570196A11D4C
:103B8000B11D2093810480937D0490937E04A093C3
:103B90007F04B09380048091790490917A04A0917D
:103BA0007B04B0917C040196A11DB11D8093790422
:103BB00090937A04A0937B04B0937C04BF91AF915F
:103BC0009F918F913F912F910F900FBE0F901F905B
:103BD00018958FB7F89420917D0430917E04409120
:103BE0007F04509180048FBFB901CA0108959B01E1
:103BF000AC017FB7F8948091790490917A04A091F8
:103C00007B04B0917C0466B5A89B05C06F3F19F09A
:103C10000196A11DB11D7FBFBA2FA92F982F88270C
:103C2000860F911DA11DB11D62E0880F991FAA1F6B
:103C3000BB1F6A95D1F7BC012DC0FFB7F8948091E6
:103C4000790490917A04A0917B04B0917C04E6B54C
:103C5000A89B05C0EF3F19F00196A11DB11DFFBF44
:103C6000BA2FA92F982F88278E0F911DA11DB11D46
:103C7000E2E0880F991FAA1FBB1FEA95D1F7861BA8
:103C8000970B885E9340C8F221503040404050402E
:103C900068517C4F211531054105510571F6089594
:103CA000019739F0880F991F880F991F0297019784
:103CB000F1F70895789484B5826084BD84B58160FD
:103CC00084BD85B5826085BD85B5816085BDEEE624
:103CD000F0E0808181608083E1E8F0E01082808103
:103CE00082608083808181608083E0E8F0E0808171
:103CF00081608083E1EBF0E0808184608083E0EB91
:103D0000F0E0808181608083EAE7F0E08081846078
:103D100080838081826080838081816080838081D4
:103D2000806880831092C1000895CF93DF93482F5D
:103D300050E0CA0181579D4FFC01349145585D4FB9
:103D4000FA018491882369F190E0880F991FFC01A2
:103D5000E35AFD4FA591B491FC01E959FD4FC5917E
:103D6000D491662351F42FB7F8948C91932F9095AA
:103D700089238C93888189230BC0623061F42FB72B
:103D8000F8948C91932F909589238C938881832B21
:103D900088832FBF06C09FB7F8948C91832B8C9398
:103DA0009FBFDF91CF910895482F50E0CA018D55F4
:103DB0009D4FFC012491CA0181579D4FFC019491B4
:103DC00045585D4FFA013491332309F440C0222352
:103DD00051F1233071F0243028F42130A1F0223049
:103DE00011F514C02630B1F02730C1F02430D9F4D9
:103DF00004C0809180008F7703C0809180008F7D08
:103E00008093800010C084B58F7702C084B58F7D09
:103E100084BD09C08091B0008F7703C08091B0004D
:103E20008F7D8093B000E32FF0E0EE0FFF1FE95984
:103E3000FD4FA591B4912FB7F894662321F48C918E
:103E40009095892302C08C91892B8C932FBF089564
:103E5000FC01F894A181B28111969C911197808107
:103E60008095982311969C9378940895FC0113866D
:103E70001586148687E090E012863197009711F03E
:103E80000197FACF0895DC0180E00BC0E82FF0E045
:103E90008D9190E0E827F927E954FD4FE4916150B6
:103EA0008E2F662399F70895DF92EF92FF920F937A
:103EB0001F93FC01E08001811281F894F801828156
:103EC000DE2CD0948D21828381818E29818383E0B1
:103ED00090E00E94501EF80181818D2181838AE04B
:103EE00090E00E94501EF8010081789485E390E0F4
:103EF0000E94501E80E010E0FF240E211F21012BA4
:103F000009F081E01F910F91FF90EF90DF900895ED
:103F1000EF92FF920F931F93CF93DF937C0101E009
:103F200010E0C0E0D0E0C7010E94541F8111102BA7
:103F3000000F2196C830D105B1F7812FDF91CF91C5
:103F40001F910F91FF90EF9008951F93CF93DF93F0
:103F5000FC011081C181D281912F909560FF12C028
:103F6000F8948A8189238A838981812B89838AE0D5
:103F700090E00E94501E8A81812B8A83789487E387
:103F800090E011C0F8948A8189238A838981812BEA
:103F9000898381E490E00E94501E8A81812B8A836C
:103FA000789485E090E00E94501EDF91CF911F91A0
:103FB0000895CF92DF92EF92FF920F931F93CF93CA
:103FC000DF938C01E42EFF24F394C0E0D0E0C62EF2
:103FD000DD2460E08F2D90E08C219D21892B09F05C
:103FE00061E0C8010E94A51FFF0C2196C830D105D1
:103FF00081F7EE20A9F4F894D8011196ED91FC9187
:10400000129791818C918095982391831196ED91CF
:10401000FC91129792818C91809598239283789449
:10402000DF91CF911F910F91FF90EF90DF90CF9094
:1040300008956CEC40E00E94D91F0895EF92FF9222
:104040000F931F93CF93DF938C017B0165E540E0D5
:104050000E94D91FC0E0D0E0F701EC0FFD1FC8019E
:10406000608140E00E94D91F2196C830D105A1F798
:10407000DF91CF911F910F91FF90EF900895DF9204
:10408000EF92FF920F931F93CF93DF93FC01008178
:10409000C181D281F8948981D02ED0948D218983D9
:1040A00078941DE7E02EFF24115059F182E090E052
:1040B0000E94501E888190E08E219F21892BA1F3C0
:1040C000F8948A818D218A838981802B89837894D1
:1040D00084EF91E00E94501EF89489818D2189839C
:1040E00080E590E00E94501E888110E090E0E82278
:1040F000F922EF2809F411E0789484EA91E00E9413
:10410000501E812FDF91CF911F910F91FF90EF9063
:10411000DF900895AF92BF92DF92EF92FF920F93DC
:104120001F93CF93DF93EC015B018D85882309F00A
:1041300061C0CE010E943F20882329F41B861D8682
:104140001C8690E06BC0CE0160EF40E00E94D91F5A
:1041500001E0DD24EE24FF24F394CE010E94541FDD
:10416000182FCE010E94541F113019F48130E1F450
:1041700039C0181709F58B85081770F460E0FE0147
:10418000EE0DF11D838190E02F2D30E082239323EB
:10419000181619064CF003C060E0081729F0093022
:1041A00008F04CC00C874AC0FE01EE0DF11D838162
:1041B0008F29838361E009C0612FFE01EE0DF11D9F
:1041C0009F2D9095838189238383CE010E94A51F13
:1041D0000F5FFF0C19F4E394FF24F39487E08E152E
:1041E00008F0BBCF013430F0DB86DD2011F581E033
:1041F0008D871FC01B861D861C8690E0DE0120E097
:1042000030E0F501E20FF31F13968C911397808332
:104210002F5F3F4F11962830310599F7892FDF9195
:10422000CF911F910F91FF90EF90DF90BF90AF90D3
:1042300008958B818823F1F291E0E0CFD02EBDCF9D
:10424000FF920F931F938C01F62E862F60E00E9441
:10425000951E8F2D90E0FC01E157FD4FE491D801B0
:10426000EC9385589D4FFC016491E62FF0E0EE0F32
:10427000FF1FEF58FD4F8591949112969C938E935A
:1042800011971B961C921B971D961C921D971C96AE
:104290001C92F80187E090E012863197009711F0A8
:1042A0000197FACF1F910F91FF9008955058BB27A7
:1042B000AA270ED075C166D130F06BD120F031F451
:1042C0009F3F11F41EF45BC10EF4E095E7FB51C172
:1042D000E92F77D180F3BA17620773078407950730
:1042E00018F071F49EF58FC10EF4E0950B2EBA2FE5
:1042F000A02D0B01B90190010C01CA01A0011124EC
:10430000FF27591B99F0593F50F4503E68F11A1697
:10431000F040A22F232F342F4427585FF3CF469528
:1043200037952795A795F0405395C9F77EF41F164A
:10433000BA0B620B730B840BBAF09150A1F0FF0F14
:10434000BB1F661F771F881FC2F70EC0BA0F621F00
:10435000731F841F48F4879577956795B795F795F0
:104360009E3F08F0B3CF9395880F08F09927EE0F82
:10437000979587950895D9D008F481E008950CD0D9
:104380000FC107D140F0FED030F021F45F3F19F0AB
:10439000F0C0511139C1F3C014D198F39923C9F376
:1043A0005523B1F3951B550BBB27AA27621773073B
:1043B000840738F09F5F5F4F220F331F441FAA1FEF
:1043C000A9F333D00E2E3AF0E0E830D091505040AF
:1043D000E695001CCAF729D0FE2F27D0660F771F5D
:1043E000881FBB1F261737074807AB07B0E809F03F
:1043F000BB0B802DBF01FF2793585F4F2AF09E3FD4
:10440000510568F0B6C000C15F3FECF3983EDCF3A5
:10441000869577956795B795F7959F5FC9F7880F4C
:10442000911D9695879597F90895E1E0660F771F9E
:10443000881FBB1F621773078407BA0720F0621B2F
:10444000730B840BBA0BEE1F88F7E095089504D028
:104450006894B111D9C00895BCD088F09F5790F0EE
:10446000B92F9927B751A0F0D1F0660F771F881F99
:10447000991F1AF0BA95C9F712C0B13081F0C3D0B4
:10448000B1E00895C0C0672F782F8827B85F39F052
:10449000B93FCCF3869577956795B395D9F73EF4F8
:1044A00090958095709561957F4F8F4F9F4F0895A0
:1044B000E89409C097FB3EF49095809570956195BE
:1044C0007F4F8F4F9F4F9923A9F0F92F96E9BB2774
:1044D0009395F695879577956795B795F111F8CFF0
:1044E000FAF4BB0F11F460FF1BC06F5F7F4F8F4F5B
:1044F0009F4F16C0882311F096E911C0772321F051
:104500009EE8872F762F05C0662371F096E8862FE8
:1045100070E060E02AF09A95660F771F881FDAF73F
:10452000880F9695879597F90895990F0008550F6C
:10453000AA0BE0E8FEEF16161706E807F907C0F029
:1045400012161306E407F50798F0621B730B840B31
:10455000950B39F40A2661F0232B242B252B21F40B
:1045600008950A2609F4A140A6958FEF811D811DAB
:10457000089597F99F6780E870E060E008959FEFE5
:1045800080EC089500240A941616170618060906EA
:10459000089500240A9412161306140605060895B9
:1045A000092E0394000C11F4882352F0BB0F40F441
:1045B000BF2B11F460FF04C06F5F7F4F8F4F9F4F81
:1045C000089557FD9058440F551F59F05F3F71F003
:1045D0004795880F97FB991F61F09F3F79F087956A
:1045E0000895121613061406551FF2CF4695F1DFF3
:1045F00008C0161617061806991FF1CF8695710583
:10460000610508940895E894BB2766277727CB01B6
:1046100097F908958ADF08F48FEF08950BD0C0CF83
:10462000B1DF28F0B6DF18F0952309F0A2CFA7CFAD
:104630001124EACFC6DFA0F3959FD1F3950F50E088
:10464000551F629FF001729FBB27F00DB11D639F44
:10465000AA27F00DB11DAA1F649F6627B00DA11DEA
:10466000661F829F2227B00DA11D621F739FB00D90
:10467000A11D621F839FA00D611D221F749F332700
:10468000A00D611D231F849F600D211D822F762F99
:104690006A2F11249F5750408AF0E1F088234AF096
:1046A000EE0FFF1FBB1F661F771F881F91505040E2
:1046B000A9F79E3F510570F05CCFA6CF5F3FECF3AA
:1046C000983EDCF3869577956795B795F795E795CE
:1046D0009F5FC1F7FE2B880F911D9695879597F9DF
:1046E000089523DF880B990B0895629FD001739F73
:1046F000F001829FE00DF11D649FE00DF11D929F7E
:10470000F00D839FF00D749FF00D659FF00D9927BC
:10471000729FB00DE11DF91F639FB00DE11DF91FE0
:10472000BD01CF0111240895AA1BBB1B51E107C095
:10473000AA1FBB1FA617B70710F0A61BB70B881F31
:10474000991F5A95A9F780959095BC01CD010895C0
:1047500097FB092E07260AD077FD04D0E5DF06D0A7
:1047600000201AF4709561957F4F0895F6F79095A3
:1047700081959F4F0895A1E21A2EAA1BBB1BFD0134
:104780000DC0AA1FBB1FEE1FFF1FA217B307E40730
:10479000F50720F0A21BB30BE40BF50B661F771F88
:1047A000881F991F1A9469F7609570958095909568
:1047B0009B01AC01BD01CF010895EE0FFF1F0590D5
:1047C000F491E02D09942F923F924F925F926F9255
:1047D0007F928F929F92AF92BF92CF92DF92EF9291
:1047E000FF920F931F93CF93DF93CDB7DEB7CA1B12
:1047F000DB0B0FB6F894DEBF0FBECDBF09942A883D
:10480000398848885F846E847D848C849B84AA84E4
:10481000B984C884DF80EE80FD800C811B81AA8171
:10482000B981CE0FD11D0FB6F894DEBF0FBECDBF3C
:08483000ED010895F894FFCF9B
:1048380054656D703A200046205B002E2E005D0006
:1048480054696D65206E6F7420736574006E616EB7
:1048580000696E66006F7666002E00206E6F2D412F
:10486800434B20002020772F41434B20002300207A
:104878003078003A00524631322062616420435257
:104888004300307800202023003A200020004E54B6
:104898005054696D6520636F6E66696775726564EB
:1048A80000200088040000040324020000FF02D056
:1048B800010000022C010000010000000086062B08
:1048C800071C064D062D0676063402560000000029
:1048D8001E0FAF0E0000000004142B0772134713BD
:1048E800FCFF00006E1346130700030001000000E0
:1048F80000000000E9182F1900000000F41B081C34
:00000001FF
