:100000000C949A010C94911E0C94BE1E0C94CA017F
:100010000C94CA010C94CA010C94CA010C94CA0134
:100020000C94CA010C94CA010C94CA010C94CA0124
:100030000C94CA010C94CA010C94CA010C94CA0114
:100040000C9475050C94CA010C946A060C94B806BD
:100050000C94CA010C94CA010C94CA010C94CA01F4
:100060000C94CA010C94CA01526573657474696E6C
:10007000672E2E2E00526573657474696E672E2E7E
:100080002E002A2A2A2A2A2052554E4E494E473AF5
:100090002068656174696E675F6E6F64652E696E56
:1000A0006F005363616E6E696E672072656C617973
:1000B00073005363616E6E696E672074656D707353
:1000C000002A2A2A2A2A2053455455503A20686586
:1000D0006174696E675F6E6F64652E696E6F002074
:1000E0002031396B6270730020206C6F7720545878
:1000F00020706F77657200206D6F64653D0020672A
:10010000726F75705F69643D004E65743A206E6F62
:1001100064655F69643D003F3F3F3F2F3F3F2F3F96
:100120003F203F3F3A3F3F20555443004E5450201C
:1001300074696D6520696E697469616C697A65645A
:100140000020746F2031302D62697473004F575452
:100150003A2053657474696E672000206D61783AA7
:1001600000732C206D696E4D6178436F756E743A23
:10017000002073656E736F72732C206D696E4D6114
:100180007854696D65723A004F7754656D702068D8
:10019000617320002C206D697373656420002C202E
:1001A000616464656420002C206578706563746503
:1001B00064200020666F756E642000206D69737383
:1001C000696E672000206E657720230020666F75BA
:1001D0006E64202300005EBCE2613FDD83C29C7E32
:1001E00020A3FD1F419DC3217FFCA2401E5F01E3B0
:1001F000BD3E6082DC237D9FC1421CFEA0E1BF5D4D
:100200000380DE3C62BEE0025CDF81633D7C22C095
:100210009E1D43A1FF4618FAA427799BC584DA38AE
:1002200066E5BB5907DB856739BAE406581947A567
:10023000FB7826C49A653BD987045AB8E6A7F91B10
:1002400045C6987A24F8A6441A99C7257B3A64864D
:10025000D85B05E7B98CD2306EEDB3510F4E10F27A
:10026000AC2F7193CD114FADF3702ECC92D38D6F17
:1002700031B2EC0E50AFF1134DCE90722C6D33D1E4
:100280008F0C52B0EE326C8ED0530DEFB1F0AE4CFD
:100290001291CF2D73CA947628ABF517490856B43E
:1002A000EA6937D58B5709EBB536688AD495CB29DF
:1002B00077F4AA4816E9B7550B88D6346A2B759798
:1002C000C94A14F6A8742AC896154BA9F7B6E80AC5
:1002D00054D7896B3500000000240027002A000055
:1002E000000000250028002B00000000002300264D
:1002F00000290004040404040404040202020202AB
:1003000002030303030303010204081020408001D9
:100310000204081020010204081020000000070059
:1003200002010000030406000000000000000000BD
:100330007903240811241FBECFEFD8E0DEBFCDBF64
:10034000809100018093B905809101018093BA05E5
:1003500013E0A4E0B1E0E2E2F5E402C005900D9202
:10036000A833B107D9F715E0A8E3B3E001C01D92A7
:10037000A93BB107E1F713E0C4E3D3E004C022973F
:10038000FE010E948B22C033D107C9F70E947A0870
:100390000C948F220C940000EF92FF920F93DF9346
:1003A000CF93CDB7DEB760970FB6F894DEBF0FBE20
:1003B000CDBFA82F002309F461C07E010894E11C81
:1003C000F11C88E0F70111928A95E9F729833A83B5
:1003D0004B835C836D837E83AF83988780E2801B31
:1003E000E82FFF27E7FDF0954D815E816F817885CD
:1003F000181684F01D861E861F86188A882799275E
:100400008E1B9F0B04C076956795579547958A95E7
:10041000D2F728C0202F332727FD3095DB01CA01F2
:10042000022E04C0B695A795979587950A94D2F7A2
:100430008D879E87AF87B88B04C0440F551F661FFA
:10044000771FEA95D2F789819A81AB81BC8104C07C
:10045000B695A795979587952A95D2F7482B592B4E
:100460006A2B7B2B49875A876B877C8729853A853E
:100470004B855C856D857E85AF8598898A2F6096D2
:100480000FB6F894DEBF0FBECDBFCF91DF910F91B5
:10049000FF90EF9008950F931F93CF93DF93689F82
:1004A0008001699F100D789F100D1124C8010E94D2
:1004B0006702EC01009729F060E070E0A8010E945B
:1004C0007203CE01DF91CF911F910F910895CF93C9
:1004D000DF93BC018230910510F462E070E0A091DE
:1004E000B705B091B805ED0140E050E0E0E0F0E084
:1004F00021C0888199818617970769F48A819B8139
:10050000309719F09383828304C09093B805809349
:10051000B705FE0134C06817790738F44115510555
:1005200019F08417950708F4AC01FE018A819B81BC
:100530009C01E9012097E9F641155105A9F1CA018D
:10054000861B970B049708F4BA01E0E0F0E02AC09C
:100550008D919C91119784179507F9F4641775078D
:1005600081F412968D919C911397309719F0938393
:10057000828304C09093B8058093B705FD0132963D
:100580004CC0CA01861B970BFD01E80FF91F619350
:10059000719302978D939C9340C0FD01828193815A
:1005A0009C01D9011097A1F68091B5059091B605EF
:1005B000892B41F480917801909179019093B6054F
:1005C0008093B50540917A0150917B014115510509
:1005D00041F44DB75EB78091760190917701481B49
:1005E000590B2091B5053091B605CA01821B930BBA
:1005F0008617970780F0AB014E5F5F4F8417950712
:1006000050F0420F531F5093B6054093B505F901C2
:100610006193719302C0E0E0F0E0CF01DF91CF91F0
:100620000895CF93DF93009709F450C0EC0122970F
:100630001B821A82A091B705B091B805109709F1F5
:1006400040E050E0AC17BD0708F1BB83AA83FE0170
:1006500021913191E20FF31FAE17BF0779F48D910D
:100660009C911197280F391F2E5F3F4F39832883A4
:1006700012968D919C9113979B838A834115510506
:1006800071F4D093B805C093B70520C012968D9130
:100690009C911397AD01009711F0DC01D3CFFA01C3
:1006A000D383C28321913191E20FF31FCE17DF076D
:1006B00069F488819981280F391F2E5F3F4FFA0115
:1006C000318320838A819B8193838283DF91CF91C1
:1006D0000895FB01DC0102C001900D924150504091
:1006E000D8F70895DC0101C06D9341505040E0F708
:1006F00008950F9388E393E00E94C00E8FE094E08A
:1007000062E00E940F1110925B0410925E0410923E
:10071000610482E694E065E04EE751E025E00E9446
:100720003F178FE694E064E04EE652E024E10EE0ED
:100730000E9409170F910895AF92BF92CF92DF9256
:10074000EF92FF920F931F93CF93DF93A89506C06C
:100750006091440585E495E00E94B51288E393E03A
:100760000E94D3108823A1F78FE594E060E070E049
:100770000E94850B8823A9F080917C0190917D01D6
:1007800065E770E00E94010988E393E00E94D310BE
:1007900064E670E080E090E00E94CB0581E00E947A
:1007A000820E8FE694E06AE00E94FE14882309F42A
:1007B000FCC080917C0190917D0164E071E00E9419
:1007C000550A00917C0110917D010E94690EBC01C7
:1007D000C8014AE050E00E94B50900917C011091E7
:1007E0007D018FE594E00E946E0B68EE73E00E943D
:1007F0004022C8014AE050E00E94A40980917C0197
:1008000090917D016FE071E00E943F0B80917C012F
:1008100090917D016BE171E00E94550A80917C010D
:1008200090917D0140E050E060E070E00E94441251
:1008300080917C0190917D010E94E10880917C0172
:1008400090917D0162E271E00E943F0BCC24DD2497
:100850004CE0A42EB12C1C2D8FE694E06C2D0E9450
:10086000F412882309F477C01A3038F480917C019F
:1008700090917D0160E20E94D90880917C01909165
:100880007D01612F4AE050E00E94D20980917C01F5
:1008900090917D0161E371E00E94550A8FE694E03A
:1008A000612F0E94D5127B018C0120E030E048ECE2
:1008B00052E40E945B2088233CF480917C0190915B
:1008C0007D0160E20E94D90880917C0190917D01B8
:1008D000B801A70122E030E00E943C0B80917C012E
:1008E00090917D0164E371E00E94550AE601CC0F0E
:1008F000DD1FC60123E0880F991F2A95E1F7C80F75
:10090000D91FCA55DE4F80917C0190917D01BE01B7
:100910000E94550A10E008C080917C0190917D01F1
:1009200060E20E94D9081F5FFE0101900020E9F7F4
:100930003197EC1BFD0B212F30E0C5018E1B9F0B67
:100940002817390748F3C0FE06C080917C019091BA
:100950007D010E94E1080894C11CD11C84E1C816E5
:10096000D10409F078CF80917C0190917D010E94A3
:10097000E10880918B0490918C04019690938C04F3
:1009800080938B0444978CF080917C0190917D0141
:1009900068E670E00E94010964EF71E080E090E099
:1009A0000E94CB0581E00E94820E0E94BA1D823017
:1009B00081F089E594E060E67AEE0E94850B882359
:1009C00041F080917C0190917D0167E371E00E948C
:1009D0003F0BDF91CF911F910F91FF90EF90DF9030
:1009E000CF90BF90AF9008950F931F9329E288E1B5
:1009F00090E00FB6F894A895809360000FBE209306
:100A000060008DE090EFADEABBE080930001909331
:100A10000101A0930201B09303018EE195E040E053
:100A200051EE60E070E00E94F30688E393E06DE130
:100A300040E024ED0E94C50E80917C0190917D01E3
:100A400061EC70E00E94010980917C0190917D0130
:100A500062EB70E00E94010920917C0130917D01E0
:100A600084E06EE672E044E10E94CF17A895809181
:100A70007C0190917D0162EA70E00E940109209161
:100A80007C0130917D0185E06EE771E045E00E94D8
:100A9000CF17A8958FE594E060E375E70E94520BAD
:100AA0008CE594E060ED77E00E94520B80917C0130
:100AB00090917D0164E071E00E94550A00917C01F3
:100AC00010917D010E94690EBC01C8014AE050E00E
:100AD0000E94B50980917C0190917D0162E870E0EF
:100AE0000E9401091F910F9108951F920F920FB656
:100AF0000F9211242F933F938F939F93AF93BF93A4
:100B00008091910490919204A0919304B0919404E7
:100B1000309195040196A11DB11D232F2D5F2D3716
:100B200020F02D570196A11DB11D209395048093AF
:100B3000910490939204A0939304B09394048091B1
:100B40008D0490918E04A0918F04B0919004019631
:100B5000A11DB11D80938D0490938E04A0938F04EA
:100B6000B0939004BF91AF919F918F913F912F913E
:100B70000F900FBE0F901F9018958FB7F89420918B
:100B800091043091920440919304509194048FBF4A
:100B9000B901CA0108959B01AC017FB7F894809117
:100BA0008D0490918E04A0918F04B091900466B54D
:100BB000A89B05C06F3F19F00196A11DB11D7FBF15
:100BC000BA2FA92F982F8827860F911DA11DB11D1F
:100BD00062E0880F991FAA1FBB1F6A95D1F7BC015D
:100BE0002DC0FFB7F89480918D0490918E04A09150
:100BF0008F04B0919004E6B5A89B05C0EF3F19F0B3
:100C00000196A11DB11DFFBFBA2FA92F982F8827CC
:100C10008E0F911DA11DB11DE2E0880F991FAA1F23
:100C2000BB1FEA95D1F7861B970B885E9340C8F2ED
:100C3000215030404040504068517C4F21153105D3
:100C40004105510571F60895019739F0880F991FF4
:100C5000880F991F02970197F1F70895789484B54A
:100C6000826084BD84B5816084BD85B5826085BDA8
:100C700085B5816085BDEEE6F0E08081816080838E
:100C8000E1E8F0E010828081826080838081816071
:100C90008083E0E8F0E0808181608083E1EBF0E038
:100CA000808184608083E0EBF0E0808181608083DC
:100CB000EAE7F0E0808184608083808182608083C5
:100CC0008081816080838081806880831092C100F0
:100CD000089508951F920F920FB60F9211242F932B
:100CE0003F934F938F939F93EF93FF938091C00017
:100CF00082FD1DC04091C6002091D6043091D704DA
:100D00002F5F3F4F2F7330708091D8049091D9049A
:100D10002817390771F0E091D604F091D704EA560C
:100D2000FB4F40833093D7042093D60402C08091B8
:100D3000C600FF91EF919F918F914F913F912F911D
:100D40000F900FBE0F901F901895E0912A05F0911B
:100D50002B05E05CFF4F8191919120813181821BB5
:100D6000930B8F739070892B11F00E946906089580
:100D70001F920F920FB60F9211242F933F938F93D0
:100D80009F93EF93FF9320911A0530911B0580915B
:100D90001C0590911D052817390731F48091C10079
:100DA0008F7D8093C10014C0E0911C05F0911D055A
:100DB000E652FB4F208180911C0590911D05019604
:100DC0008F73907090931D0580931C052093C6002F
:100DD000FF91EF919F918F913F912F910F900FBEB7
:100DE0000F901F901895AF92BF92DF92EF92FF92F3
:100DF0000F931F93CF93DF93EC017A018B01DD24D6
:100E0000403081EE580780E0680780E0780711F0F5
:100E1000DD24D39491E0A92EB12CEC89FD89DD204D
:100E200069F0C50108A002C0880F991F0A94E2F773
:100E3000808360E079E08DE390E005C0108260E897
:100E400074E88EE190E0A80197010E94672221508A
:100E5000304040405040569547953795279580E162
:100E60002030380720F0DD2011F0DD24D6CFE889CE
:100E7000F9893083EA89FB89208319A2EE89FF89E9
:100E8000408121E030E0C9010C8C02C0880F991F1D
:100E90000A94E2F7482B4083EE89FF894081C9011B
:100EA0000D8C02C0880F991F0A94E2F7482B4083EB
:100EB000EE89FF894081C9010E8C02C0880F991FFD
:100EC0000A94E2F7482B4083EE89FF8980810F8CDA
:100ED00002C0220F331F0A94E2F7209528232083B3
:100EE000DF91CF911F910F91FF90EF90DF90BF9016
:100EF000AF900895DC011C96ED91FC911D97E05C8C
:100F0000FF4F2191319180819181281B390B2F73E3
:100F10003070C9010895DC011C96ED91FC911D977C
:100F2000E05CFF4F20813181E054F040DF01AE5B97
:100F3000BF4F8D919C9111972817390719F42FEF06
:100F40003FEF07C08D919C91E80FF91F8081282FFA
:100F500030E0C9010895DC011C96ED91FC911D97CC
:100F6000E05CFF4F20813181E054F040DF01AE5B57
:100F7000BF4F8D919C9111972817390719F42FEFC6
:100F80003FEF10C08D919C911197E80FF91F2081C0
:100F90008D919C91119701968F73907011969C93EF
:100FA0008E9330E0C9010895DC0191968C91919760
:100FB000882339F05496ED91FC915597808186FFF6
:100FC000F9CF91961C920895CF93DF93EC01EE85B3
:100FD000FF85E05CFF4F20813181E054F0402F5FBE
:100FE0003F4F2F733070DF01AE5BBF4F8D919C91EF
:100FF000119728173907D1F3E05CFF4F8081918169
:10100000E054F040E80FF91F6083EE85FF85E05C57
:10101000FF4F31832083EE89FF89208181E090E0BA
:101020000F8C02C0880F991F0A94E2F7282B2083A7
:1010300081E089A3EC89FD8980818064808381E0DF
:1010400090E0DF91CF910895109221051092200534
:1010500088EE93E0A0E0B0E0809322059093230512
:10106000A0932405B093250588E193E090931F0594
:1010700080931E0586E994E090932B0580932A05C2
:101080008AED94E090932D0580932C0585EC90E0FB
:1010900090932F0580932E0584EC90E0909331057A
:1010A0008093300580EC90E0909333058093320577
:1010B00081EC90E0909335058093340582EC90E0CC
:1010C000909337058093360586EC90E09093390530
:1010D0008093380584E080933A0583E080933B0554
:1010E00087E080933C0585E080933D0581E0809317
:1010F0003E050895CF93DF930E942E060E94F404CC
:10110000C5EAD6E00E949C032097E1F30E94A50661
:10111000F9CF0E9467020895CF92DF92EF92FF927B
:101120000F931F93CF93DF937C016B018A01C0E083
:10113000D0E00FC0D6016D916D01D701ED91FC910A
:101140000190F081E02DC7010995C80FD91F01500A
:1011500010400115110571F7CE01DF91CF911F915C
:101160000F91FF90EF90DF90CF900895EF92FF9254
:101170000F931F93CF93DF937C018B01C0E0D0E0EE
:10118000F8010F5F1F4F6491662359F0D701ED916D
:10119000FC910190F081E02DC7010995C80FD91F7E
:1011A000EFCFCE01DF91CF911F910F91FF90EF9084
:1011B0000895DC01ED91FC910190F081E02D0995FD
:1011C0000895EF92FF920F931F938C01DC01ED9134
:1011D000FC910190F081E02D6DE009957C01D80132
:1011E000ED91FC910190F081E02DC8016AE0099534
:1011F0009C012E0D3F1DC9011F910F91FF90EF9093
:101200000895EF92FF920F931F937C010E94B608FE
:101210008C01C7010E94E1089C01200F311FC90108
:101220001F910F91FF90EF900895CF93DF93EC0102
:101230006115710519F420E030E00FC0DB010D905D
:101240000020E9F71197A61BB70BE881F98102800E
:10125000F381E02DAD0109959C01C901DF91CF918A
:1012600008954F925F927F928F929F92AF92BF921A
:10127000CF92DF92EF92FF920F931F93DF93CF9362
:10128000CDB7DEB7A1970FB6F894DEBF0FBECDBFC6
:101290002C01742ECB01223008F42AE019A231E28D
:1012A000C32ED12CCC0EDD1E822E9924AA24BB2461
:1012B000672D752FA50194010E94672279018A018B
:1012C000C801B701A50194010E941522472D461BB4
:1012D0000894C108D1084A3010F4405D01C0495C4F
:1012E000F6014083E114F1040105110521F07E2C83
:1012F0005F2DC801DDCFC201B6010E941509A1967C
:101300000FB6F894DEBF0FBECDBFCF91DF911F9116
:101310000F91FF90EF90DF90CF90BF90AF909F9094
:101320008F907F905F904F900895DC0121153105DB
:1013300041F4ED91FC910190F081E02D642F09952D
:1013400008950E9431090895EF92FF920F931F9321
:101350009A017B0100E010E0B801A7010E94950905
:101360001F910F91FF90EF900895CF92DF92EF922F
:10137000FF920F931F936C017B019A0100E010E034
:10138000B801A7010E9495098C01C6010E94E108DD
:10139000080F191FC8011F910F91FF90EF90DF9068
:1013A000CF900895EF92FF920F931F939A01E62E2C
:1013B000FF2400E010E0B801A7010E9495091F91E9
:1013C0000F91FF90EF900895CF92DF92EF92FF92EE
:1013D0000F931F936C01E62E9A01FF2400E010E0AA
:1013E000B801A7010E9495098C01C6010E94E1087D
:1013F000080F191FC8011F910F91FF90EF90DF9008
:10140000CF900895CF92DF92EF92FF920F931F93A8
:10141000CF93DF93EC016A017B012115310541F483
:10142000E881F9810190F081E02D642F09951FC0BA
:101430002A303105D1F477FF17C0E881F981019096
:10144000F081E02D6DE209958C0144275527BA0102
:101450004C195D096E097F09CE012AE00E9431090D
:101460009801280F391F04C02AE00E9431099C010D
:10147000C901DF91CF911F910F91FF90EF90DF9005
:10148000CF900895EF92FF920F931F937B019A01E3
:101490000027F7FC0095102FB801A7010E94020A4F
:1014A0001F910F91FF90EF9008950E9415090895E4
:1014B0007F928F929F92AF92BF92CF92DF92EF92E4
:1014C000FF920F931F93CF93DF934C017A018B010F
:1014D000722ECB01BA01A80197010E941122882324
:1014E00021F0C40164E471E021C0C0E0D0E0570104
:1014F0006801E894D7F8C601B5012FEF3FEF4FE739
:101500005FE70E941122882351F4C601B5012FEF35
:101510003FEF4FE75FE70E945B20181614F0C1E031
:10152000D0E0219739F0C40168E471E00E94150908
:10153000EC0193C0C801B7012FEF3FEF4FE75FE425
:101540000E94AA21181654F0C801B7012FEF3FEFEF
:101550004FE75FEC0E945B20882324F4C4016CE415
:1015600071E0E4CFC801B70120E030E040E050E096
:101570000E945B2087FD03C0C0E0D0E00EC0D40114
:10158000ED91FC910190F081E02DC4016DE209958F
:10159000EC0117FB109517F9109520E030E040E0C2
:1015A0005FE3DD240BC0CA01B90120E030E040E276
:1015B00051E40E945F209B01AC01D394D71498F3AF
:1015C000C801B7010E94F71F5B016C010E94CC208B
:1015D0007B018C01C401B801A7012AE030E00E9420
:1015E0009509C80FD91F772039F0C40160E571E073
:1015F0000E941509C80FD91FC801B7010E94F82021
:101600009B01AC01C601B5010E94F61F24C020E079
:1016100030E040E251E40E94AE217B018C010E9447
:10162000C7205B016C01CC24B7FCC094DC2CC40146
:10163000B601A5012AE030E00E94020AC80FD91FB6
:10164000C601B5010E94FA209B01AC01C801B70197
:101650000E94F61F7A947720D1F6CE01DF91CF91C8
:101660001F910F91FF90EF90DF90CF90BF90AF90C0
:101670009F908F907F9008950E94580A0895EF924E
:10168000FF920F931F937C010E9415098C01C701E3
:101690000E94E108080F191FC8011F910F91FF90C8
:1016A000EF9008950F931F93CF93DF938C01EB017D
:1016B00080E06115710509F081E0F80182838823DB
:1016C00041F00E94BD052197C60FD71FF801D183B5
:1016D000C083DF91CF911F910F9108950F931F93B6
:1016E000FC018281882359F0008111810E94BD058F
:1016F0009801261B370B8AEE2136380710F020E0C0
:1017000030E0C9011F910F910895EF92FF920F935E
:101710001F93CF93DF93EC017B018A81882311F41F
:1017200000E00FC0088119810E94BD05C801861B19
:10173000970B2AEE8136920710F400E006C0082FBE
:101740000195CE01B7010E94520B802FDF91CF91FE
:101750001F910F91FF90EF900895782F8CB58160C5
:101760008CBD65B121E030E040E050E000900E0318
:1017700004C0220F331F441F551F0A94D2F7522F63
:10178000822F8095862385B99EBD0DB407FEFDCFBF
:101790008EB57EBD0DB407FEFDCF4EB5382F20E0CF
:1017A00085B1582B55B98CB58E7F8CBD50E0422B3E
:1017B000532BCA010895E8980E94AD0BE89A08954A
:1017C00080E090E00E94AD0B80919105853009F09A
:1017D00054C080E090EB0E94AD0B282F80919505BE
:1017E000882371F490919205992351F08091950589
:1017F000E82FF0E0EE5BFA4F90838F5F80939505C2
:1018000080919505E82FF0E0EE5BFA4F20838F5F23
:101810008093950580914005909141058227282F5E
:1018200022952827022E269526952025022E2695DC
:1018300020252770082E892F269507942795902D0F
:1018400082270694279590258227909341058093BF
:101850004005809144052091950590E0049630E084
:10186000821793072CF080919505873408F46DC09A
:101870008DE092E80E94AD0B08958091910587FF5D
:101880002EC0E0914405809191058F5F8093910572
:101890008150ED5FE80FF0E0EE5BFA4FE081809160
:1018A0004005909141058E27282F22952827022E4A
:1018B000269526952025022E269520252770082E70
:1018C000892F269507942795902D82270694279592
:1018D00090258227909341058093400530C08091E8
:1018E00091058F5F809391058150833019F1843089
:1018F0002CF4882399F0813009F516C0893019F04D
:101900008A30E1F402C0EDE21AC0E09192059091B4
:1019100044058EEF891B8093910511C0809140058D
:1019200090914105E82F0BC08091400590914105B1
:10193000E92F05C08DE092E80E94AD0BEAEA8E2FF8
:1019400090E0805098440E94AD0B089580919105DD
:10195000853009F042C0809144052091950590E0C2
:10196000049630E08217930724F080919505873420
:10197000A0F184E08093910580914405833430F098
:1019800081E090E09093410580934005809143056C
:1019900086FF12C080919005282F30E0C9018F7119
:1019A00090704F9749F08091430590E082279327EC
:1019B0008F719070892B89F4809140059091410539
:1019C000892B09F052C0E0918D05F0918E0530977A
:1019D00009F44BC080E0099554C080919105843092
:1019E00011F080E0089580918F05882351F0809355
:1019F000440510924305809143058093420583E09E
:101A000004C01092440580914405809395058FEFA2
:101A10009FEF9093410580934005209192052223EA
:101A2000D9F08227282F22952827022E2695269541
:101A30002025022E269520252770082E892F2695F1
:101A400007942795902D8227069427959025822725
:101A5000909341058093400585E0809391058DED3D
:101A600092E80E94AD0B80E008958FEF9FEFAFEFFB
:101A7000BFEF8093890590938A05A0938B05B0935F
:101A80008C0581E00895809191058430A9F08091C2
:101A90009105853099F480919505882379F480E04B
:101AA00090E00E94DB0B90FD09C08DE092E80E945F
:101AB000DB0B84E08093910581E0089580E0089538
:101AC000982F86FD05C0907E809190058F71980FAC
:101AD00090934305E0918D05F0918E05309711F0BC
:101AE00081E009958FEF9FEF90934105809340052A
:101AF0008091400590914105209192058227282FE1
:101B000022952827022E269526952025022E2695F9
:101B100020252770082E892F269507942795902D2C
:101B200082270694279590258227909341058093DC
:101B3000400586E0809391058DE392E80E94AD0B0D
:101B400008951F93182F4093440525E435E0C901FB
:101B500050E00E946903812F0E94600D1F9108953B
:101B600025B181E090E0A0E0B0E000900E0304C059
:101B7000880F991FAA1FBB1F0A94D2F7282B25B9DB
:101B800024B1822B84B98AE061E00E944F1F8AE071
:101B900061E00E94101F8BE061E00E94101F8CE04A
:101BA00060E00E94101F8DE061E00E94101F80E540
:101BB0008CBD8DB581608DBD82E060E00E94101FFC
:101BC00082E061E00E944F1F08951F93162F8093BB
:101BD00090054093920530939405209393050E94BD
:101BE000B00D80E090E00E94AD0B85E092E80E948D
:101BF000AD0B80E098EB02C080E090E00E94AD0B5E
:101C000082E00E94A31F892BB9F3812F90E0F4E0BA
:101C1000880F991FFA95E1F7876C90680E94AD0BC9
:101C20008091930590919405805090460E94AD0B51
:101C300086E096EC0E94AD0B82EA94E90E94AD0B1F
:101C40008CEA92EC0E94AD0B10919205112341F0A9
:101C500083E89AEC0E94AD0B812F90E09E6C06C049
:101C60008BE89AEC0E94AD0B8DE29EEC0E94AD0BCE
:101C700083E894EC0E94AD0B80E598E90E94AD0BDF
:101C800087E79CEC0E94AD0B80E090EE0E94AD0BCC
:101C900080E098EC0E94AD0B89E490EC0E94AD0BC3
:101CA00084E0809391058091900590E08F71907011
:101CB000892B41F080E060EE7BE040E050E00E9444
:101CC0005B1E03C080E00E947E1E809190051F91E4
:101CD0000895DF93CF9300D0CDB7DEB78091B505DF
:101CE0009091B6059E012F5F3F4F009719F4295B35
:101CF000354002C0281B390BC9010F900F90CF91BE
:101D0000DF9108951F93182F6AE070E080E090E063
:101D10000E94CB05112329F480E090E0A0E0B0E020
:101D200004C08DE090EFADEABBE08093000190939A
:101D30000101A0930201B093030128E088E190E043
:101D40000FB6F894A895809360000FBE20936000B2
:101D5000FFCFFC01E453FF4F9081EC5CF0409330E7
:101D600018F020E030E00AC082E2989F9001112430
:101D70002F5F3F4F220F331F2E0F3F1FC9010895C2
:101D8000FC01E453FF4F10820895FF920F931F93BD
:101D9000FC01F42E9091B905992371F08091BA0558
:101DA000882351F08F3140F4EC52FF4F9083E45D73
:101DB000F0408093960507C0EC52FF4F2083E45D0E
:101DC000F040609396058F010C521F4F809196054D
:101DD00063E0F801408120E436E00E94E50D809147
:101DE0007C0190917D0169E071E00E94B6088091CC
:101DF0007C0190917D01609196054AE050E00E943F
:101E0000D20980917C0190917D016EEF70E00E947B
:101E1000B60880917C0190917D01F80160814AE0D3
:101E200050E00E94D20980917C0190917D0167EF82
:101E300070E00E94B60880917C0190917D016F2D29
:101E40004AE050E00E94D209F1E0FF1621F082E062
:101E5000F81631F511C087E598E90E94DB0B82EB9B
:101E600094E90E94DB0B80917C0190917D0168EEEA
:101E700070E00E9401091AC081E196EC0E94DB0B20
:101E800081EC94E90E94DB0B80E298E90E94DB0B75
:101E900080917C0190917D016FED70E00E940109BD
:101EA00080917C0190917D010E94E10883E00E9475
:101EB000EB1E85E060E00E94101F1F910F91FF90C4
:101EC00008951F93CF93DF93EC01C453DF4F8881B4
:101ED000CC5CD0408823D9F11881C353DF4F88816F
:101EE000CD5CD04090E007970CF01F7DBE016E5F87
:101EF0007F4F812F49810E94A10D15FD1AC0C45347
:101F0000DF4F8881CC5CD040823048F0DE01FE019A
:101F1000EC5BFF4F88E801900D928150E1F7FE01E4
:101F2000E453FF4F808181508083C353DF4F188279
:101F30000EC0FE01E353FF4F80818F5F80830E94BC
:101F4000BD05C253DF4F688379838A839B83DF910A
:101F5000CF911F910895EF92FF920F931F93CF930C
:101F6000DF93EC0192EDE92EF12CEC0EFD1EF70152
:101F700080818823A1F10E94430D882381F18E0185
:101F80000D521F4FF7018081B80141E00E94A10D61
:101F9000F7011082F801108229C0C353DF4F8881F6
:101FA000CD5CD040882399F00E94BD05C253DF4F1D
:101FB000288139814A815B81CE5CD0402E5C3F4FC5
:101FC0004F4F5F4F621773078407950778F00E94A1
:101FD000430D882359F0CE010E94610F07C0C453FE
:101FE000DF4F8881CC5CD0408823B9F6DF91CF9158
:101FF0001F910F91FF90EF900895CF93DF93EC0125
:10200000DC01A453BF4F8C91833028F590E024E489
:1020100030E0829FF001839FF00D929FF00D11241C
:10202000EC0FFD1F61838C9190E0829FF001839FF4
:10203000F00D929FF00D1124EC0FFD1F40838C9149
:102040008F5F8C93813039F40E94430D882319F0FF
:10205000CE010E94610FDF91CF9108959C01411143
:1020600040E280919605482BC9010E94FD0F08951A
:102070000F931F938C0185E00E94EE1E0A521F4FA2
:102080008C5291409595879595958795F801808319
:102090001F910F910895CF93DF93EC010E94A60C3E
:1020A000882309F479C08091400590914105892BDE
:1020B00009F06EC08091430587FD1FC0CE010E94CC
:1020C00038108091430585FF13C0909143059F719F
:1020D00080919605981711F4892F02C0892F80648A
:1020E000CE52DF4F80688883249688812397888327
:1020F000809145058091450553C08091430585FD3C
:1021000042C0CE010E9438102091430530E02F716B
:1021100030708091960590E028173907E9F5C4538F
:10212000DF4F8881CC5CD0408823B1F1C353DF4FAF
:102130008881CD5CD040882379F18091440581303D
:1021400011F080E002C080914505CB52DF4F8883BB
:1021500029978881CC5CD040823048F0DE01FE01B6
:10216000EC5BFF4F88E801900D928150E1F7FE0192
:10217000E453FF4F808181508083C353DF4F188227
:10218000CD5CD04009C0809143058091430504C0D7
:102190008091400590914105CE010E94AB0F80E0F7
:1021A000DF91CF910895EF92FF920F931F93CF93FA
:1021B000DF93EC01C453DF4F8881CC5CD04088238F
:1021C000B9F4CE52DF4F8881C25DD040882381F4BC
:1021D000CE010E944B101CC0CE010E944B108823E0
:1021E000B9F461E070E080E090E00E94CB0508C0A7
:1021F0003CECE32EF12CEC0EFD1E8E010E521F4F17
:10220000F7018081882341F7F8018081882321F735
:10221000DF91CF911F910F91FF90EF900895FC01F6
:102220001382128288E293E0918380836583E85B66
:10223000FF4F10820895EF92FF920F931F93CF9359
:10224000DF9388E393E00E94A90EEC01009701F56B
:102250000E94BD057B018C010E94BD056E197F099E
:10226000800B910B6C5271408040904088F461E08B
:1022700070E080E090E00E94CB0588E393E00E944C
:102280004B1088E393E00E94A90E009729F3EC011C
:10229000CE01DF91CF911F910F91FF90EF900895A4
:1022A000EF92FF920F931F93CF93DF93EC018C017A
:1022B000085B1F4FD8018C91FE01E80FF11D1682BB
:1022C0008D8180FF16C0BE016A5F7F4F8EE195E071
:1022D0000E94550AF8018081882359F0FE01E80F19
:1022E000F11D85818A3029F48EE195E06DE00E9430
:1022F000D9088D8181FF86C08E01075B1F4FD801F1
:102300008C91882309F453C0CE010E941B11AC01AB
:10231000009709F445C0FC0182E081939F0162E5CA
:1023200071E086E0DB010D90BD01D9010D929D01A8
:102330008150C1F79F012A5F3F4FC75BDF4F888104
:10234000C954D0408B3040F06AE00E943422805D56
:1023500086839F01295F3F4FFE01E75BFF4F80812E
:102360006AE00E943422905DF90191939F0169E532
:1023700071E087E0DB010D90BD01D9010D929D0157
:102380008150C1F737966E2F641B88E393E041E0DC
:102390000E942E10C75BDF4F1882C954D04007C07F
:1023A000F8018081833688F58F5F80832EC0CE014F
:1023B0000E941B1129E4E22EF12CEC0EFD1E009769
:1023C000D9F0FC0182E081938E01085B1F4FD80198
:1023D0004C919E012A5F3F4FCF01B90150E00E940E
:1023E0006903F80160816F5F88E393E041E00E9438
:1023F0002E10D7011C9206C0F70180818F3F11F08B
:102400008F5F8083C85BDF4F1882DF91CF911F9170
:102410000F91FF90EF9008951F93CF93DF93EC01FE
:10242000162FC85BDF4F8881C854D040813418F024
:10243000CE010E945011DE01A85BBF4F8C91FE01BE
:10244000E80FF11D16838F5F8C931A3019F4CE01BB
:102450000E94501181E090E0DF91CF911F9108958B
:102460001F93CF93DF93EC01162F6A3018F4642F7B
:102470000E94D908CE01612F4AE050E00E94D209A3
:10248000DF91CF911F910895EF92FF920F931F93C9
:10249000CF93DF93EC017A018B010E94BA1D882350
:1024A00031F4CE0167E171E00E94B60857C0E11433
:1024B000F1040105110521F40E94E71D7B018C0147
:1024C000C801B7010E94991DBC01CE014AE050E04D
:1024D0000E94420ACE016FE20E94D908C801B701EA
:1024E0000E94A21D682FCE0140E30E943012CE014F
:1024F0006FE20E94D908C801B7010E94A81D682F89
:10250000CE0140E30E943012CE0160E20E94D90861
:10251000C801B7010E94B41D682FCE0140E30E949C
:102520003012CE016AE30E94D908C801B7010E94A7
:10253000AE1D682FCE0140E30E943012CE016AE347
:102540000E94D9080E94531E682FCE0140E30E94CA
:102550003012CE0161E671E00E94550ADF91CF9101
:102560001F910F91FF90EF9008951F93CF93DF93EA
:10257000EC0188818330A9F4643098F00E94BA1D80
:10258000182F69817A818B819C810E94BD1D112346
:1025900041F480917C0190917D016CE271E00E9498
:1025A0000109DF91CF911F910895FC018581681782
:1025B00028F070E060E090EC8FE70FC0862F90E08D
:1025C000880F991F880F991F0384F485E02DE80F69
:1025D000F91F7081618192818381272F362F492FC6
:1025E000582FB901CA01089570E033E0660F771FD4
:1025F0003A95E1F7DC011396ED91FC911497E60F03
:10260000F71F9781923211F481E0089580E09832AB
:1026100009F481E00895CF93DF93EC018A81882348
:1026200039F060E00E94101F8A8161E00E944F1F14
:10263000888199810E945A1B888199810E94341B4C
:102640008FE060E00E944F1F8881998164E441E03F
:102650000E94F41A8A81882319F061E00E94101FF9
:10266000DF91CF910895CF92DF92EF920F931F9356
:10267000DF93CF93CDB7DEB728970FB6F894DEBFC0
:102680000FBECDBF6C0109831A832B833C834D831E
:102690005E836F837887CE0101960E94421729835B
:1026A0003A834B835C836D837E838F839887F601A7
:1026B0008281882319F060E00E94101FF60180815A
:1026C00091810E945A1B8E010F5F1F4FF60180817E
:1026D0009181B8010E94391BF601808191816EE4DD
:1026E00040E00E94F41AF6018081918160E040E0B0
:1026F0000E94F41AF6018081918160E040E00E941E
:10270000F41AE294EE0C40EEE422EA94F6018081A1
:1027100091816E2D40E00E94F41AF6018081918132
:102720000E945A1BF60180819181B8010E94391BD9
:10273000F6018081918168E441E00E94F41A6AE028
:1027400070E080E090E00E94CB05F60180819181ED
:102750000E94431A28960FB6F894DEBF0FBECDBF75
:10276000CF91DF911F910F91EF90DF90CF9008955F
:10277000AF92BF92CF92DF92EF92FF920F931F938F
:10278000DF93CF93CDB7DEB76C970FB6F894DEBF6B
:102790000FBECDBF7C010D8B1E8B2F8B388F498FC9
:1027A0005A8F6B8F7C8FCE0145960E9442172983EA
:1027B0003A834B835C836D837E838F839887F70195
:1027C0008281882319F060E00E94101FF701808148
:1027D00091810E945A1BF70180819181BE016F5F38
:1027E0007F4F0E94391BF701808191816EEB40E0A1
:1027F0000E94F41A8FE061E00E944F1F8E01075F74
:102800001F4FC801B02EA92EF2E1CF2ED12CCC0E35
:10281000DD1EF701808191810E94A31AF801819346
:102820008F01EC15FD05A9F78B2D9A2D68E00E940C
:102830005E1A9989891709F042C08D858F3361F13D
:102840000D891E892F89388D498D5A8D6B8D7C8D10
:10285000C701EAE0EE2E0E94331380917C01909133
:102860007D016DE471E00E94B6080D891E892F89F3
:10287000388D498D5A8D6B8D7C8D80917C01909126
:102880007D010E94681780917C0190917D0161E437
:1028900071E00E94010913C02985203519F48A8549
:1028A000853069F08E858F3F51F48889803139F405
:1028B0009A8580E030E0282B392B2C7F02C020E065
:1028C00030E8C9016C960FB6F894DEBF0FBECDBFDD
:1028D000CF91DF911F910F91FF90EF90DF90CF90FC
:1028E000BF90AF9008958F929F92AF92BF92CF9278
:1028F000DF92EF92FF920F931F93CF93DF93EC0140
:1029000070E0A3E0660F771FAA95E1F7EB81FC81E9
:10291000E60FF71FF080E180D280C380B480A580ED
:10292000968087800F2D1E2D2D2D3C2D4B2D5A2D41
:10293000692D782D0E94B8139C0180E8203038075B
:1029400079F5CE012D2D3C2D4B2D5A2D692D782D4D
:102950000E94B8139C0180E82030380709F5CE01A9
:102960002D2D3C2D4B2D5A2D692D782D0E94B813FD
:102970009C0180E82030380799F4CE012D2D3C2DA4
:102980004B2D5A2D692D782D0E94B8139C0180E89B
:102990002030380729F4E0E070E080EC6FE71BC0DE
:1029A000B901882777FD8095982F0E94FA2020E0B2
:1029B00030E040E85DE30E94AE2126E636E646EED2
:1029C0005FE30E94AE2120E030E040E052E40E944C
:1029D000F71FE62F692F2E2F372F482F562FB901BB
:1029E000CA01DF91CF911F910F91FF90EF90DF907F
:1029F000CF90BF90AF909F908F9008952F923F926D
:102A00004F925F927F928F929F92AF92BF92CF929E
:102A1000DF92EF92FF920F931F93CF93DF93EC011E
:102A2000962E419660E67AEE0E94850B882309F483
:102A30004AC08C899D89AE89BF890196A11DB11DAF
:102A40008C8B9D8BAE8BBF8B803F9105A105B10513
:102A5000D0F11C8A1D8A1E8A1F8A90E006E010E8C9
:102A600029C0E88DF98DE60FF71FDA0111969F0155
:102A70002A0F3B1FE40FF51F8081F9018083EA8D47
:102A8000FB8DE60FF71FAE0FBF1FE40FF51F808110
:102A90008C9341505040FFEF4F3F5F0711F7E88D97
:102AA000F98DE60FF71F1083EA8DFB8DE60FF71FF8
:102AB00010839F5F8D81981730F4909FB00111248F
:102AC00044E050E0CECF0E94BD055B016C018E81D9
:102AD000882309F045C0992041F08F819885A98508
:102AE000BA850097A105B10531F45D8140E030E081
:102AF00080E090E022C086017501E81AF90A0A0B0D
:102B00001B0B692D70E080E090E028EE33E040E0A0
:102B100050E00E9415226E157F058007910728F36B
:102B200004C1EB81FC81E80FF91F2781223211F0EB
:102B3000283209F44F5F3F5F0896351790F344231E
:102B400051F0CE010E940B13AF82B886C986DA8697
:102B500081E08E83EAC0AF82B886C986DA86E3C098
:102B6000813009F0E2C08F819885A985BA85A81ABD
:102B7000B90ACA0ADB0A8DEBA816B104C104D10454
:102B800008F4D3C077240F2EF0E02F2EF0E03F2E74
:102B9000F0EC4F2EFFE75F2EF02DC0C0872C99245C
:102BA000C401B3E0880F991FBA95E1F7EB81FC816E
:102BB000E80FF91F8781823219F0883209F0ADC021
:102BC000CE01672D0E9473145B016C01A1E0EA2E17
:102BD000F12C012D112D072C04C0EE0CFF1C001F41
:102BE000111F0A94D2F7A60195010E9411222D858A
:102BF0003E854F855889882301F1D801C70182237A
:102C00009323A423B5230097A105B10569F0880C8F
:102C1000991C880C991CEB85FC85E80DF91D208218
:102C200031824282538279C02E293F29402B512B79
:102C30002D873E874F87588B70C0D801C70180957C
:102C40009095A095B095282339234A235B232D879F
:102C50003E874F87588BC401880F991F880F991F93
:102C6000EB85FC85E80FF91FA082B182C282D38276
:102C7000C601B50120E030E040E050E00E94AA210A
:102C800088234CF0C601B50120E030E040E05FE36E
:102C90000E94F71F08C0C601B50120E030E040E007
:102CA0005FE30E94F61F0E94C72078EAF72EF60E17
:102CB0008401000F111F080D191D000F111FE88D51
:102CC000F98DE00FF11F8581803859F42F2D3327BE
:102CD00027FD3095CF01B90146E050E00E94720314
:102CE00006C08081803811F0F8160CF4F082EA8D6D
:102CF000FB8DE00FF11F8581803859F42F2D33278C
:102D000027FD3095CF01B90146E050E00E947203E3
:102D100004C080818F150CF4F08273948D81781635
:102D200008F43CCF1E8281E001C080E0DF91CF91AA
:102D30001F910F91FF90EF90DF90CF90BF90AF90D9
:102D40009F908F907F905F904F903F902F9008952D
:102D5000BF92CF92DF92EF92FF920F931F93CF9388
:102D6000DF93EC01162F6A01B22EE02E8EE090E088
:102D70000E948908082FF92E612F0E943B1C0883AE
:102D8000F982EA82EE2021F08E2D60E00E94101F71
:102D9000DC82CB822B2D213208F020E22D831E8293
:102DA0001D861E861F86188A822F90E064E070E0E0
:102DB0000E944B028B879C878D8190E066E070E0DB
:102DC0000E944B02888F998F2D8116E0219F9001E0
:102DD000112460E870E0A9010E9472038D8190E0E7
:102DE00066E070E00E944B028A8F9B8F2D81219FAD
:102DF0009001112460E870E0A9010E947203DF9144
:102E0000CF911F910F91FF90EF90DF90CF90BF90E7
:102E100008950F93FC01138A0E94A8168FE061E0C9
:102E20000E94101F0F910895CF92DF92EF92FF92B0
:102E30000F931F93CF93DF93EC01D62E7A01C22E0E
:102E40008EE090E00E948908182F092F6D2D0E94B6
:102E50003B1C18830983FB82EA828C2D813208F0A7
:102E600080E28C831D821E821F821886DF91CF91A3
:102E70001F910F91FF90EF90DF90CF9008950E94E7
:102E800014170895DF93CF93CDB7DEB728970FB609
:102E9000F894DEBF0FBECDBFDC01FE0138969E0167
:102EA00003C08D9180833197E217F307D1F7298111
:102EB0003A814B815C816D817E818F8198852896D6
:102EC0000FB6F894DEBF0FBECDBFCF91DF9108954E
:102ED000CF92DF92EF92FF920F931F93DF93CF93E6
:102EE000CDB7DEB728970FB6F894DEBF0FBECDBFC3
:102EF0007C0109831A832B833C834D835E836F831C
:102F0000788766E671E00E94550A8E010F5F1F4FB9
:102F100099E0C92ED12CCC0EDD1EF801608170E045
:102F200084E0759567958A95E1F7C70140E150E027
:102F30000E94420AF80161918F0170E06F70707019
:102F4000C70140E150E00E94420A0C151D0529F717
:102F500028960FB6F894DEBF0FBECDBFCF91DF919C
:102F60001F910F91FF90EF90DF90CF900895FF9207
:102F70000F931F938C01F62E69E671E00E94550AAB
:102F8000C8016F2D4AE050E00E94D209C8016DE6E9
:102F900071E00E94550A1F910F91FF9008952F92A2
:102FA0003F924F925F926F927F928F929F92AF92D9
:102FB000BF92CF92DF92EF92FF920F931F93DF9316
:102FC000CF93CDB7DEB7E1970FB6F894DEBF0FBE53
:102FD000CDBF8AA74BA739016CA77DA72B01FB01A9
:102FE00040E050E060E070E020E031E0E32EF12CC2
:102FF000012D112D20C080819181892B9281892BF7
:103000009381892B9481892B9581892B9681892B9A
:103010009781892B71F0D801C701022E04C0880F57
:10302000991FAA1FBB1F0A94D2F7482B592B6A2B52
:103030007B2B2F5F38963BA52317E8F21F8E20E0ED
:1030400030E0DB01CA01022E04C0B695A795979522
:1030500087950A94D2F780FF03C08F8D8F5F8F8F83
:103060002F5F3F4F2032310561F78E010F5E1F4FFA
:10307000C8016AA50E943B1CC8010E94511A1EA2E9
:103080001FA218A619A61AA21BA21CA21DA219A251
:1030900018A20EA71FA7DE011896B9ABA8AB20C1D6
:1030A000CE01019667E00E945E1A882E9924AA2418
:1030B000BB24CC24DD24760129813A814B815C81BB
:1030C0006D817E818F81988508E30E94CC018216F4
:1030D00009F006C1931609F003C1A41609F000C156
:1030E000B51609F0FDC0C61609F0FAC0D71609F0EA
:1030F000F7C0E81609F0F4C0F91609F0F1C0FE01B6
:10310000709605C0D1018D911D018083319728A94A
:1031100039A9E217F307B1F719850A85EB84DC8436
:10312000CD84BE84AF8498888CA59DA5FC01FF2426
:103130005EC0808191812281338144815581668185
:1031400077813896181709F051C0091709F04EC059
:10315000E21609F04BC0D31609F048C0C41609F0B6
:1031600045C0B51609F042C0A61609F03FC0971633
:10317000E9F56114710411F1C3016AA50E94B71742
:10318000C3016CEC71E00E94B608C3016F2D4AE0E8
:1031900050E00E94D209C30160E771E00E94550A25
:1031A00009811A812B813C814D815E816F817885F7
:1031B000C3010E946817C3010E94E10881E090E00A
:1031C000A0E0B0E004C0880F991FAA1FBB1FFA94AB
:1031D000D2F72EA13FA148A559A5282B392B4A2B60
:1031E0005B2B2EA33FA348A759A777C0F3943BA519
:1031F000F31608F49ECF8CA59DA5FC01FF2469C0A1
:10320000DF018081918122813381448155816681F2
:1032100077813896892B822B832B842B852B862BC9
:10322000872B09F055C01C9311960C931197129699
:10323000EC9212971396DC9213971496CC921497F3
:103240001596BC9215971696AC92169717969C9267
:103250006114710411F1C3016AA50E94B717C3017B
:1032600065EC71E00E94B608C3016F2D4AE050E0A2
:103270000E94D209C30160E771E00E94550A0981EA
:103280001A812B813C814D815E816F817885C301DC
:103290000E946817C3010E94E10881E090E0A0E06D
:1032A000B0E004C0880F991FAA1FBB1FFA94D2F781
:1032B0002AA13BA14CA15DA1282B392B4A2B5B2BCA
:1032C0002AA33BA34CA35DA338A13F5F38A305C04D
:1032D000F3944BA5F41608F493CF59A15F5F59A35B
:1032E0001E010894211C311C8EA59FA5B1010E94CE
:1032F000A51B882309F0D4CE8EA59FA50E94511A44
:10330000A8A08F8DA80E99A1A91A09F46CC0C301B9
:103310006AA50E94B717C3016BEB71E00E94B60863
:10332000BB24CAA0DBA0ECA0FDA02EA13FA148A514
:1033300059A5C22AD32AE42AF52AC094D094E0944D
:10334000F0944AC0D701C6010B2C04C0B695A795CE
:10335000979587950A94D2F780FF39C0D2018C9156
:1033600011969C911197892B12969C911297892BFB
:1033700013969C911397892B14969C911497892BE3
:1033800015969C911597892B16969C911697892BCB
:1033900017969C91892BD9F0C30163E771E00E94D5
:1033A000550AC3016B2D4AE050E00E94D209C301C7
:1033B0006AE30E94D908F2010081118122813381E0
:1033C0004481558166817781C3010E946817B39457
:1033D00028E030E0420E531E3BA5B31608F4B2CFEE
:1033E000C3010E94E1086114710481F1C3016AA55F
:1033F0000E94B717C30163EB71E00E94B608C301D6
:1034000069A14AE050E00E94D209C30167EA71E075
:103410000E94B608C3016F8D4AE050E00E94D209B5
:10342000C3016EE971E00E94B608C30168A14AE0D9
:1034300050E00E94D209C30164E971E00E94B6081D
:10344000C3016A2D4AE050E00E94E4096EA17FA109
:1034500088A599A5E1960FB6F894DEBF0FBECDBF43
:10346000CF91DF911F910F91FF90EF90DF90CF9060
:10347000BF90AF909F908F907F906F905F904F9094
:103480003F902F900895FC01F894A181B28111968C
:103490009C91119780818095982311969C937894A4
:1034A0000895FC0113861586148687E090E0128645
:1034B0003197009711F00197FACF0895DC0180E071
:1034C0000BC0E82FF0E08D9190E0E827F927EB5250
:1034D000FE4FE49161508E2F662399F70895DF9295
:1034E000EF92FF920F931F93FC01E0800181128104
:1034F000F894F8018281DE2CD0948D218283818121
:103500008E29818383E090E00E942406F801818166
:103510008D2181838AE090E00E942406F8010081D9
:10352000789485E390E00E94240680E010E0FF2478
:103530000E211F21012B09F081E01F910F91FF90B7
:10354000EF90DF900895EF92FF920F931F93CF9328
:10355000DF937C0101E010E0C0E0D0E0C7010E94F1
:103560006F1A8111102B000F2196C830D105B1F7C9
:10357000812FDF91CF911F910F91FF90EF900895D0
:103580001F93CF93DF93FC011081C181D281912FD2
:10359000909560FF12C0F8948A8189238A8389817B
:1035A000812B89838AE090E00E9424068A81812B06
:1035B0008A83789487E390E011C0F8948A81892304
:1035C0008A838981812B898381E490E00E9424068B
:1035D0008A81812B8A83789485E090E00E9424067A
:1035E000DF91CF911F910895CF92DF92EF92FF92DA
:1035F0000F931F93CF93DF938C01E42EFF24F3945A
:10360000C0E0D0E0C62EDD2460E08F2D90E08C215C
:103610009D21892B09F061E0C8010E94C01AFF0CAE
:103620002196C830D10581F7EE20A9F4F894D8018D
:103630001196ED91FC91129791818C918095982330
:1036400091831196ED91FC91129792818C918095C6
:10365000982392837894DF91CF911F910F91FF90DF
:10366000EF90DF90CF9008956CEC40E00E94F41A48
:103670000895EF92FF920F931F93CF93DF938C01E6
:103680007B0165E540E00E94F41AC0E0D0E0F7015C
:10369000EC0FFD1FC801608140E00E94F41A2196E2
:1036A000C830D105A1F7DF91CF911F910F91FF9005
:1036B000EF900895DF92EF92FF920F931F93CF93B5
:1036C000DF93FC010081C181D281F8948981D02EE1
:1036D000D0948D21898378941DE7E02EFF2411502A
:1036E00059F182E090E00E942406888190E08E21CA
:1036F0009F21892BA1F3F8948A818D218A83898166
:10370000802B8983789484EF91E00E942406F894BA
:1037100089818D21898380E590E00E94240688813B
:1037200010E090E0E822F922EF2809F411E0789403
:1037300084EA91E00E942406812FDF91CF911F91AE
:103740000F91FF90EF90DF900895AF92BF92DF92BC
:10375000EF92FF920F931F93CF93DF93EC015B01E6
:103760008D85882309F061C0CE010E945A1B8823F1
:1037700029F41B861D861C8690E06BC0CE0160EF8D
:1037800040E00E94F41A01E0DD24EE24FF24F394CB
:10379000CE010E946F1A182FCE010E946F1A1130AD
:1037A00019F48130E1F439C0181709F58B85081731
:1037B00070F460E0FE01EE0DF11D838190E02F2D8D
:1037C00030E082239323181619064CF003C060E002
:1037D000081729F0093008F04CC00C874AC0FE01D8
:1037E000EE0DF11D83818F29838361E009C0612F74
:1037F000FE01EE0DF11D9F2D90958381892383831A
:10380000CE010E94C01A0F5FFF0C19F4E394FF244D
:10381000F39487E08E1508F0BBCF013430F0DB86DF
:10382000DD2011F581E08D871FC01B861D861C865B
:1038300090E0DE0120E030E0F501E20FF31F139687
:103840008C91139780832F5F3F4F1196283031055D
:1038500099F7892FDF91CF911F910F91FF90EF90F2
:10386000DF90BF90AF9008958B818823F1F291E0B3
:10387000E0CFD02EBDCFFF920F931F938C01F62E79
:10388000862F60E00E94101F8F2D90E0FC01E95F01
:10389000FC4FE491D801EC938D509D4FFC01649155
:1038A000E62FF0E0EE0FFF1FE751FD4F8591949159
:1038B00012969C938E9311971B961C921B971D96A4
:1038C0001C921D971C961C92F80187E090E01286CE
:1038D0003197009711F00197FACF1F910F91FF9048
:1038E00008958F929F92AF92BF92CF92DF92EF9204
:1038F000FF920F931F93CF93DF937B018C01EA011B
:103900002CE330E040E050E00E9467226883C80169
:10391000B7012CE330E040E050E00E946722122F14
:10392000032FF42EE52E622F732F842F952F2CE377
:1039300030E040E050E00E9467226983612F702FE1
:103940008F2D9E2D2CE330E040E050E00E94672256
:10395000122F032FF42EE52E622F732F842F952F15
:1039600028E130E040E050E00E9467226A83612F46
:10397000702F8F2D9E2D28E130E040E050E00E9416
:10398000672279018A01C801B7016C5F7F4F8F4FB1
:103990009F4F27E030E040E050E00E9467226F5FD9
:1039A0006B8320E0AA24BB24650101C02F5F822E17
:1039B0009924F401EE54F84FCF0183709070892B55
:1039C00099F4CF0164E670E00E945422892B39F407
:1039D000CF0160E971E00E945422892B29F48EE620
:1039E00091E0A0E0B0E004C08DE691E0A0E0B0E09E
:1039F000A80EB91ECA1EDB1EC501A0E0B0E0E81685
:103A0000F9060A071B0790F62E83F401EE54F84FCF
:103A100083E0882E912C8E229F228114910499F4A8
:103A2000CF0164E670E00E945422892B39F4CF0163
:103A300060E971E00E945422892B29F48EE691E01E
:103A4000A0E0B0E004C08DE691E0A0E0B0E0A81AEC
:103A5000B90ACA0ADB0A980187010A191B092C094D
:103A60003D09CF0164E670E00E9454227C01CF0141
:103A700060E971E00E945422AC01ECE2F3E060E006
:103A8000613051F48114910449F4E114F10441F4DA
:103A90004115510529F002C0808103C08CE101C0AD
:103AA0008DE190E0A0E0B0E0081719072A073B0776
:103AB00040F0081B190B2A0B3B0B6F5F31966C30E3
:103AC000F9F66F5F6D83802F8F5F8C83DF91CF91CD
:103AD0001F910F91FF90EF90DF90CF90BF90AF902C
:103AE0009F908F900895EF92FF920F931F937B0109
:103AF0008C018091AD059091AE05A091AF05B0917C
:103B0000B005E816F9060A071B0771F0C801B701EE
:103B100042EA55E00E94711CE092AD05F092AE05BC
:103B20000093AF051093B0051F910F91FF90EF9098
:103B300008950E94731D2091A80530E02E54384F3F
:103B4000C90108950E94731D8091A70590E0089512
:103B50000E94731D8091A60590E008950E94731D38
:103B60008091A30590E008950E94731D8091A405A3
:103B700090E008958091A105089560939905709350
:103B80009A0580939B0590939C0520910F0330919B
:103B900010034091110350911203260F371F481F45
:103BA000591F20939D0530939E0540939F05509388
:103BB000A00582E08093A1050E94BD056093A90540
:103BC0007093AA058093AB059093AC050895EF928E
:103BD000FF920F931F931CC02F5F3F4F4F4F5F4FBC
:103BE0002093990530939A0540939B0550939C052B
:103BF00088EE93E0A0E0B0E0E80EF91E0A1F1B1F5C
:103C0000E092A905F092AA050093AB051093AC05CC
:103C10000E94BD05E090A905F090AA050091AB05B2
:103C20001091AC056E197F09800B910B20919905BD
:103C300030919A0540919B0550919C05685E7340B8
:103C40008040904048F680919D0590919E05A091FE
:103C50009F05B091A005281739074A075B07B0F008
:103C6000E0919705F0919805309781F009956115DD
:103C700071058105910519F00E94BD1D07C090E0F6
:103C80008091A105811191E09093A1056091990522
:103C900070919A0580919B0590919C051F910F91C1
:103CA000FF90EF9008950E94E71D0E94731D809180
:103CB000A20590E00895823000F5E82FF0E0EE0FC5
:103CC000FF1FEF54FA4F71836083882319F081300E
:103CD000A1F408C0809169008C7F842B80936900D7
:103CE000E89A089580916900440F551F440F551FAD
:103CF000837F842B80936900E99A0895823080F451
:103D0000882319F0813021F402C0E89801C0E998B5
:103D1000E82FF0E0EE0FFF1FEF54FA4F11821082F0
:103D200008951F920F920FB60F9211242F933F9375
:103D30004F935F936F937F938F939F93AF93BF93B3
:103D4000EF93FF938091B1059091B205892B29F0F3
:103D5000E091B105F091B2050995FF91EF91BF9106
:103D6000AF919F918F917F916F915F914F913F9113
:103D70002F910F900FBE0F901F9018951F920F92CA
:103D80000FB60F9211242F933F934F935F936F932E
:103D90007F938F939F93AF93BF93EF93FF93809104
:103DA000B3059091B405892B29F0E091B305F0910A
:103DB000B4050995FF91EF91BF91AF919F918F91BC
:103DC0007F916F915F914F913F912F910F900FBE17
:103DD0000F901F901895809313030895982F8E309D
:103DE00008F09E509770809113038295880F880F7A
:103DF000807C892B80937C0080917A008064809302
:103E00007A0080917A0086FDFCCF20917800409165
:103E10007900942F80E030E0282B392BC9010895D8
:103E2000CF93DF93482F50E0CA01895F9C4FFC017C
:103E300034914D505D4FFA018491882369F190E0EF
:103E4000880F991FFC01EB52FD4FA591B491FC0125
:103E5000E152FD4FC591D491662351F42FB7F894E8
:103E60008C91932F909589238C93888189230BC003
:103E7000623061F42FB7F8948C91932F9095892339
:103E80008C938881832B88832FBF06C09FB7F894BB
:103E90008C91832B8C939FBFDF91CF910895482FF6
:103EA00050E0CA01855E9C4FFC012491CA01895FE4
:103EB0009C4FFC0194914D505D4FFA013491332396
:103EC00009F440C0222351F1233071F0243028F44A
:103ED0002130A1F0223011F514C02630B1F0273086
:103EE000C1F02430D9F404C0809180008F7703C0E2
:103EF000809180008F7D8093800010C084B58F7783
:103F000002C084B58F7D84BD09C08091B0008F77D9
:103F100003C08091B0008F7D8093B000E32FF0E06C
:103F2000EE0FFF1FE152FD4FA591B4912FB7F8940A
:103F3000662321F48C919095892302C08C91892B62
:103F40008C932FBF0895682F70E0CB01855E9C4F46
:103F5000FC012491CB01895F9C4FFC0144916D5081
:103F60007D4FFB019491992319F420E030E03CC08F
:103F7000222351F1233071F0243028F42130A1F0B4
:103F8000223011F514C02630B1F02730C1F02430B2
:103F9000D9F404C0809180008F7703C080918000A5
:103FA0008F7D8093800010C084B58F7702C084B568
:103FB0008F7D84BD09C08091B0008F7703C0809150
:103FC000B0008F7D8093B000892F90E0880F991FFB
:103FD00087519D4FFC01A591B4918C9120E030E078
:103FE000842311F021E030E0C90108955058BB2727
:103FF000AA270ED075C166D130F06BD120F031F414
:104000009F3F11F41EF45BC10EF4E095E7FB51C134
:10401000E92F77D180F3BA176207730784079507F2
:1040200018F071F49EF58FC10EF4E0950B2EBA2FA7
:10403000A02D0B01B90190010C01CA01A0011124AE
:10404000FF27591B99F0593F50F4503E68F11A165A
:10405000F040A22F232F342F4427585FF3CF4695EB
:1040600037952795A795F0405395C9F77EF41F160D
:10407000BA0B620B730B840BBAF09150A1F0FF0FD7
:10408000BB1F661F771F881FC2F70EC0BA0F621FC3
:10409000731F841F48F4879577956795B795F795B3
:1040A0009E3F08F0B3CF9395880F08F09927EE0F45
:1040B000979587950895D9D008F481E008950CD09C
:1040C0000FC107D140F0FED030F021F45F3F19F06E
:1040D000F0C0511139C1F3C014D198F39923C9F339
:1040E0005523B1F3951B550BBB27AA2762177307FE
:1040F000840738F09F5F5F4F220F331F441FAA1FB2
:10410000A9F333D00E2E3AF0E0E830D09150504071
:10411000E695001CCAF729D0FE2F27D0660F771F1F
:10412000881FBB1F261737074807AB07B0E809F001
:10413000BB0B802DBF01FF2793585F4F2AF09E3F96
:10414000510568F0B6C000C15F3FECF3983EDCF368
:10415000869577956795B795F7959F5FC9F7880F0F
:10416000911D9695879597F90895E1E0660F771F61
:10417000881FBB1F621773078407BA0720F0621BF2
:10418000730B840BBA0BEE1F88F7E095089504D0EB
:104190006894B111D9C00895BCD088F09F5790F0B1
:1041A000B92F9927B751A0F0D1F0660F771F881F5C
:1041B000991F1AF0BA95C9F712C0B13081F0C3D077
:1041C000B1E00895C0C0672F782F8827B85F39F015
:1041D000B93FCCF3869577956795B395D9F73EF4BB
:1041E00090958095709561957F4F8F4F9F4F089563
:1041F000E89409C097FB3EF4909580957095619581
:104200007F4F8F4F9F4F9923A9F0F92F96E9BB2736
:104210009395F695879577956795B795F111F8CFB2
:10422000FAF4BB0F11F460FF1BC06F5F7F4F8F4F1D
:104230009F4F16C0882311F096E911C0772321F013
:104240009EE8872F762F05C0662371F096E8862FAB
:1042500070E060E02AF09A95660F771F881FDAF702
:10426000880F9695879597F90895990F0008550F2F
:10427000AA0BE0E8FEEF16161706E807F907C0F0EC
:1042800012161306E407F50798F0621B730B840BF4
:10429000950B39F40A2661F0232B242B252B21F4CE
:1042A00008950A2609F4A140A6958FEF811D811D6E
:1042B000089597F99F6780E870E060E008959FEFA8
:1042C00080EC089500240A941616170618060906AD
:1042D000089500240A94121613061406050608957C
:1042E000092E0394000C11F4882352F0BB0F40F404
:1042F000BF2B11F460FF04C06F5F7F4F8F4F9F4F44
:10430000089557FD9058440F551F59F05F3F71F0C5
:104310004795880F97FB991F61F09F3F79F087952C
:104320000895121613061406551FF2CF4695F1DFB5
:1043300008C0161617061806991FF1CF8695710545
:10434000610508940895E894BB2766277727CB0179
:1043500097F908958ADF08F48FEF08950BD0C0CF46
:10436000B1DF28F0B6DF18F0952309F0A2CFA7CF70
:104370001124EACFC6DFA0F3959FD1F3950F50E04B
:10438000551F629FF001729FBB27F00DB11D639F07
:10439000AA27F00DB11DAA1F649F6627B00DA11DAD
:1043A000661F829F2227B00DA11D621F739FB00D53
:1043B000A11D621F839FA00D611D221F749F3327C3
:1043C000A00D611D231F849F600D211D822F762F5C
:1043D0006A2F11249F5750408AF0E1F088234AF059
:1043E000EE0FFF1FBB1F661F771F881F91505040A5
:1043F000A9F79E3F510570F05CCFA6CF5F3FECF36D
:10440000983EDCF3869577956795B795F795E79590
:104410009F5FC1F7FE2B880F911D9695879597F9A1
:10442000089523DF880B990B0895629FD001739F35
:10443000F001829FE00DF11D649FE00DF11D929F40
:10444000F00D839FF00D749FF00D659FF00D99277F
:10445000729FB00DE11DF91F639FB00DE11DF91FA3
:10446000BD01CF0111240895991B79E004C0991F63
:10447000961708F0961B881F7A95C9F780950895BE
:10448000AA1BBB1B51E107C0AA1FBB1FA617B7077A
:1044900010F0A61BB70B881F991F5A95A9F7809596
:1044A0009095BC01CD01089597FB092E07260AD0EF
:1044B00077FD04D0E5DF06D000201AF470956195F1
:1044C0007F4F0895F6F7909581959F4F0895A1E24B
:1044D0001A2EAA1BBB1BFD010DC0AA1FBB1FEE1F7E
:1044E000FF1FA217B307E407F50720F0A21BB30BC9
:1044F000E40BF50B661F771F881F991F1A9469F745
:1045000060957095809590959B01AC01BD01CF01A0
:104510000895EE0FFF1F0590F491E02D0994F89493
:02452000FFCFCB
:10452200467265652052414D3A20007320746F2017
:104532007265626F6F740054696D653A200054654C
:104542006D702073656E736F72733A20003A2000AB
:1045520046200054696D65206E6F74207365740087
:104562006E616E00696E66006F7666002E003C6CAE
:104572006F73742000206C696E65733E0020555481
:1045820043003078004F575B005D3A003A2000202C
:1045920023002000BB0500000F045400000032017C
:1045A20064054E00000031E8AB052200000031E551
:1045B2000F05C500000031FA6E0500000000000082
:1045C200000070616E656C0000000000687472206B
:1045D200696E000000006264726D20746F700000EA
:1045E2006C69766720746F7000006775657374205C
:1045F200626F74006661756320636F6C640066614C
:10460200756320686F7400006C69766720626F744E
:104612000000636F6C6420696E0000006661756360
:1046220020726574000066617563206F7574000006
:1046320066617563206320696E0067756573742017
:10464200746F70006264726D20746F700000687421
:104652007220686F740000006D697820696E000036
:10466200000068747220636F6C64000068747220CA
:10467200626F7400000068747220746F7000000032
:104682006E657732300000000000CC0000013191ED
:10469200D02828000001319C9C28DB00000131A1B8
:1046A2007A287200000131938E284300000131976D
:1046B200DE28D4000001318D2128FC00000131994F
:1046C200A928A800000131994528C70000013187B7
:1046D200D5281400000131A25B285D00000131934E
:1046E2005B28D400000131A4FB28B9000001319EEF
:1046F200172843000001318F9F28C700000131A411
:10470200F5285B00000131970A28A200000131A3BD
:1047120062287A000001318252283A000001319465
:10472200DF280000000000000000022C0100000150
:1047320000000000E4078C087A07AB078B07D40758
:10474200000000000C128C081F1C1F1E1F1E1F1FC2
:044752001E1F1E1FE9
:00000001FF
