:100000000C94F6010C947E220C94AB220C942602E4
:100010000C9426020C9426020C9426020C942602C0
:100020000C9426020C9426020C9426020C942602B0
:100030000C9426020C9426020C9426020C942602A0
:100040000C943E060C9426020C9433070C94810702
:100050000C9426020C9426020C9426020C94260280
:100060000C9426020C942602526573657474696EB2
:10007000672E2E2E00526573657474696E672E2E7E
:100080002E002A2A2A2A2A2052554E4E494E473AF5
:100090002068656174696E675F6E6F64652E696E56
:1000A0006F005363616E6E696E672072656C617973
:1000B00073005363616E6E696E672074656D707353
:1000C000002A2A2A2A2A2053455455503A20686586
:1000D0006174696E675F6E6F64652E696E6F002A6A
:1000E0002A2A2A2A2053455455503A2068656174BB
:1000F000696E675F6E6F64652E696E6F00202031D8
:10010000396B6270730020206C6F77205458207018
:100110006F77657200206D6F64653D002067726FB8
:1001200075705F69643D00436F6E666967204E6558
:10013000743A206E6F64655F69643D00436F6E665C
:1001400069673A2000206E6F7420666F756E6420B8
:10015000696E20636F6E6669675F726561640043F4
:100160006F6E6669673A206D6F64756C652000205C
:100170006E6F7420666F756E6420696E20636F6E9B
:100180006669675F777269746500436F6E66696759
:100190003A206D6F64756C65200020204352432027
:1001A0006D617463686573210020204352432064AD
:1001B0006F6573206E6F74206D6174636821002019
:1001C000627974657300206D617829002076732E42
:1001D000200020697320746F6F206C617267652046
:1001E0002800434F4E4649473A2074686520636FA4
:1001F0006E66696720666F72206D6F64756C65202E
:10020000230020636F6E666967732000436F6E661C
:1002100069673A200020214E4F4E45212000207270
:1002200066313200206C6364002073657269616C12
:1002300000436F6E666967204C6F673A0054696DC2
:100240006520696E697469616C697A6564002C2047
:100250006D697373656420002C206164646564209B
:10026000002C206578706563746564200020666FDB
:10027000756E642000206D697373696E67200020BD
:100280006E6577200020666F756E642000005EBC8E
:10029000E2613FDD83C29C7E20A3FD1F419DC321FF
:1002A0007FFCA2401E5F01E3BD3E6082DC237D9F98
:1002B000C1421CFEA0E1BF5D0380DE3C62BEE002E5
:1002C0005CDF81633D7C22C09E1D43A1FF4618FA7E
:1002D000A427799BC584DA3866E5BB5907DB8567B7
:1002E00039BAE406581947A5FB7826C49A653BD964
:1002F00087045AB8E6A7F91B45C6987A24F8A6449D
:100300001A99C7257B3A6486D85B05E7B98CD23049
:100310006EEDB3510F4E10F2AC2F7193CD114FAD66
:10032000F3702ECC92D38D6F31B2EC0E50AFF1132F
:100330004DCE90722C6D33D18F0C52B0EE326C8E4C
:10034000D0530DEFB1F0AE4C1291CF2D73CA94760D
:1003500028ABF517490856B4EA6937D58B5709EB2E
:10036000B536688AD495CB2977F4AA4816E9B755EB
:100370000B88D6346A2B7597C94A14F6A8742AC814
:1003800096154BA9F7B6E80A54D7896B35000000DB
:1003900000240027002A0000000000250028002B70
:1003A00000000000002300260029000404040404C7
:1003B0000404040202020202020303030303030112
:1003C00002040810204080010204081020010204E9
:1003D00008102000000007000201000003040600CE
:1003E00000000000000000002204ED0811241FBEE0
:1003F000CFEFD8E0DEBFCDBF8091000180932D0606
:100400008091010180932E0613E0A4E0B1E0E4ECBA
:10041000FCE402C005900D92A639B107D9F716E0A9
:10042000A6E9B3E001C01D92AD32B107E1F713E0D8
:10043000CCEED3E004C02297FE010E942526C83EE0
:10044000D107C9F70E9443090C9460260C94000060
:10045000EF92FF920F93DF93CF93CDB7DEB7609704
:100460000FB6F894DEBF0FBECDBFA82F002309F44E
:1004700061C07E010894E11CF11C88E0F701119233
:100480008A95E9F729833A834B835C836D837E8366
:10049000AF83988780E2801BE82FFF27E7FDF09568
:1004A0004D815E816F817885181684F01D861E86C9
:1004B0001F86188A882799278E1B9F0B04C0769564
:1004C0006795579547958A95D2F728C0202F3327EF
:1004D00027FD3095DB01CA01022E04C0B695A79511
:1004E000979587950A94D2F78D879E87AF87B88BAB
:1004F00004C0440F551F661F771FEA95D2F7898104
:100500009A81AB81BC8104C0B695A79597958795D4
:100510002A95D2F7482B592B6A2B7B2B49875A8770
:100520006B877C8729853A854B855C856D857E85C3
:10053000AF8598898A2F60960FB6F894DEBF0FBEFC
:10054000CDBFCF91DF910F91FF90EF9008950F9362
:100550001F93CF93DF93689F8001699F100D789F51
:10056000100D1124C8010E94C302EC01009729F06C
:1005700060E070E0A8010E94CE03CE01DF91CF9130
:100580001F910F910895CF93DF93BC0182309105A5
:1005900010F462E070E0A0912B06B0912C06ED0102
:1005A00040E050E0E0E0F0E021C0888199818617CA
:1005B000970769F48A819B81309719F0938382832E
:1005C00004C090932C0680932B06FE0134C068175C
:1005D000790738F44115510519F08417950708F487
:1005E000AC01FE018A819B819C01E9012097E9F61B
:1005F00041155105A9F1CA01861B970B049708F410
:10060000BA01E0E0F0E02AC08D919C911197841727
:100610009507F9F46417750781F412968D919C91F2
:100620001397309719F09383828304C090932C061C
:1006300080932B06FD0132964CC0CA01861B970B96
:10064000FD01E80FF91F6193719302978D939C93BD
:1006500040C0FD01828193819C01D9011097A1F6D0
:100660008091290690912A06892B41F480917F017F
:100670009091800190932A068093290640918101F0
:10068000509182014115510541F44DB75EB78091FB
:100690007D0190917E01481B590B209129063091D4
:1006A0002A06CA01821B930B8617970780F0AB01BD
:1006B0004E5F5F4F8417950750F0420F531F5093C2
:1006C0002A0640932906F9016193719302C0E0E084
:1006D000F0E0CF01DF91CF910895CF93DF930097A2
:1006E00009F450C0EC0122971B821A82A0912B06BC
:1006F000B0912C06109709F140E050E0AC17BD070F
:1007000008F1BB83AA83FE0121913191E20FF31F0F
:10071000AE17BF0779F48D919C911197280F391F5F
:100720002E5F3F4F3983288312968D919C911397AA
:100730009B838A834115510571F4D0932C06C09395
:100740002B0620C012968D919C911397AD010097B6
:1007500011F0DC01D3CFFA01D383C283219131910F
:10076000E20FF31FCE17DF0769F488819981280F04
:10077000391F2E5F3F4FFA01318320838A819B818D
:1007800093838283DF91CF910895FB01DC0102C046
:1007900001900D9241505040D8F70895DC0101C0FE
:1007A0006D9341505040E0F70895A0E0B0E0EBEDCC
:1007B000F3E00C9433267C01EB018A01690109C046
:1007C000CE012196F6010995F70181937F01015031
:1007D000104001151105A1F7CDB7DEB7E8E00C9484
:1007E0004F26A0E0B0E0E7EFF3E00C943326EC01F5
:1007F0007B018A01690109C0CE012196F70161914F
:100800007F01F60109950150104001151105A1F76E
:10081000CDB7DEB7E8E00C944F26DF92EF92FF925F
:100820000F931F93D72E7A018C01FA010995C80105
:1008300001966D2DF70109951F910F91FF90EF9093
:10084000DF90089586E993E06DE144ED0E94B710D2
:1008500081E794E00E94A51686E794E00E94321595
:100860008091830190918401009719F480E090E0D9
:1008700001C004969093400380933F031092C604F6
:100880001092C9041092CC048DEC94E065E04DEA1E
:1008900051E025E00E94781B8AED94E064E04DE988
:1008A00052E024E10E94531A0895EF92FF920F93B1
:1008B0001F93CF93DF93A89586E993E00E940313DB
:1008C000882329F080E090E060E00E9442138AECE7
:1008D00094E060E070E00E94370C8823A9F08091DA
:1008E00083019091840165E770E00E94CA0986E95E
:1008F00093E00E94031364E670E080E090E00E94C1
:10090000940681E00E947B108AED94E06AE00E94E8
:100910005718882309F414C18091830190918401B0
:1009200064E071E00E941E0B00918301109184012C
:100930000E946210BC01C8014AE050E00E947E0A99
:1009400080918301909184016FE071E00E941E0B01
:1009500000918301109184010E944022BC01C801D2
:100960004AE050E00E940B0B80918301909184013A
:100970006AE30E94A20900918301109184010E9400
:100980003822BC01C8014AE050E00E940B0B809164
:100990008301909184010E94AA0980918301909122
:1009A000840166E171E00E94080CC0E0D0E01C2FD9
:1009B0008AED94E06C2F0E940017882309F454C03C
:1009C000CA3038F4809183019091840160E20E94E2
:1009D000A2098091830190918401612F4AE050E047
:1009E0000E949B0A80918301909184016DE30E9493
:1009F000A2098AED94E0612F0E94E1167B018C012F
:100A000020E030E048EC52E40E94F52388233CF4D7
:100A1000809183019091840160E20E94A2098091FB
:100A2000830190918401B801A70122E030E00E9487
:100A3000050C809183019091840165E271E00E9430
:100A40001E0BBE01660F771FCE0123E0880F991F92
:100A50002A95E1F7680F791F6B527E4F80918301D1
:100A6000909184010E94080C2196C431D10509F0AF
:100A70009ECF809183019091840168E271E00E9491
:100A8000080CC0E0D0E08DEC94E06C2F0E94671A57
:100A90008823A9F180918301909184016C2F4AE011
:100AA00050E00E949B0A80918301909184016DE344
:100AB0000E94A20900918301109184018DEC94E0C1
:100AC0006C2F0E94581A682FC80170E04AE050E06D
:100AD0000E940B0B809183019091840160E20E943F
:100AE000A209BE0183E0660F771F8A95E1F76B5775
:100AF0007E4F80918301909184010E94080C219681
:100B0000C530D10509F0BFCF8091F5049091F6046E
:100B100001969093F6048093F50444978CF08091AD
:100B200083019091840168E670E00E94CA0964EF35
:100B300071E080E090E00E94940681E00E947B10CA
:100B40008DEC94E068E70E94BF1A0E949F218230DA
:100B500081F084EC94E060E67AEE0E94370C882302
:100B600041F0809183019091840161E371E00E94E2
:100B7000080CDF91CF911F910F91FF90EF90089596
:100B80000F931F9329E288E190E00FB6F894A8959F
:100B9000809360000FBE209360008DE090EFADEA7F
:100BA000BBE08093000190930101A0930201B093F8
:100BB000030108E815E0C80140E051EE60E070E094
:100BC0000E94BC07C8016FED70E00E94CA098DE366
:100BD00093E00E94DB13809183019091840161EC8A
:100BE00070E00E94CA09809183019091840162EBB8
:100BF00070E00E94CA09209183013091840184E051
:100C00006DE972E044E10E94081CA895809183017F
:100C10009091840162EA70E00E94CA0920918301E8
:100C20003091840185E06DEA71E045E00E94081C86
:100C3000A8958AEC94E060E67AEE0E941B0C809105
:100C400083019091840164E071E00E941E0B009189
:100C50008301109184010E946210BC01C8014AE026
:100C600050E00E947E0A809183019091840162E8A5
:100C700070E00E94CA091F910F9108951F920F9270
:100C80000FB60F9211242F933F938F939F93AF939F
:100C9000BF938091FB049091FC04A091FD04B0915E
:100CA000FE043091FF040196A11DB11D232F2D5F7D
:100CB0002D3720F02D570196A11DB11D2093FF0463
:100CC0008093FB049093FC04A093FD04B093FE0476
:100CD0008091F7049091F804A091F904B091FA047E
:100CE0000196A11DB11D8093F7049093F804A09381
:100CF000F904B093FA04BF91AF919F918F913F9106
:100D00002F910F900FBE0F901F9018958FB7F894EA
:100D10002091FB043091FC044091FD045091FE04AD
:100D20008FBFB901CA0108959B01AC017FB7F89448
:100D30008091F7049091F804A091F904B091FA041D
:100D400066B5A89B05C06F3F19F00196A11DB11DA6
:100D50007FBFBA2FA92F982F8827860F911DA11D1D
:100D6000B11D62E0880F991FAA1FBB1F6A95D1F7BA
:100D7000BC012DC0FFB7F8948091F7049091F8045E
:100D8000A091F904B091FA04E6B5A89B05C0EF3F25
:100D900019F00196A11DB11DFFBFBA2FA92F982FE1
:100DA00088278E0F911DA11DB11DE2E0880F991FAC
:100DB000AA1FBB1FEA95D1F7861B970B885E93404D
:100DC000C8F2215030404040504068517C4F2115BE
:100DD00031054105510571F60895019739F0880FE5
:100DE000991F880F991F02970197F1F7089578943A
:100DF00084B5826084BD84B5816084BD85B5826020
:100E000085BD85B5816085BDEEE6F0E080818160BD
:100E10008083E1E8F0E010828081826080838081BD
:100E200081608083E0E8F0E0808181608083E1EB95
:100E3000F0E0808184608083E0EBF0E0808181607D
:100E40008083EAE7F0E08081846080838081826033
:100E5000808380818160808380818068808310921C
:100E6000C100089508951F920F920FB60F9211249A
:100E70002F933F934F938F939F93EF93FF93809183
:100E8000C00082FD1DC04091C600209140053091F8
:100E900041052F5F3F4F2F73307080914205909135
:100EA00043052817390771F0E0914005F09141059D
:100EB000E050FB4F4083309341052093400502C032
:100EC0008091C600FF91EF919F918F914F913F913B
:100ED0002F910F900FBE0F901F901895E0919405E1
:100EE000F0919505E05CFF4F8191919120813181D6
:100EF000821B930B8F739070892B11F00E94320725
:100F000008951F920F920FB60F9211242F933F93C3
:100F10008F939F93EF93FF932091840530918505E4
:100F200080918605909187052817390731F48091C3
:100F3000C1008F7D8093C10014C0E0918605F091BF
:100F40008705EC5BFA4F208180918605909187059B
:100F500001968F73907090938705809386052093F8
:100F6000C600FF91EF919F918F913F912F910F902C
:100F70000FBE0F901F901895AF92BF92DF92EF9225
:100F8000FF920F931F93CF93DF93EC017A018B01B4
:100F9000DD24403081EE580780E0680780E0780764
:100FA00011F0DD24D39491E0A92EB12CEC89FD89B8
:100FB000DD2069F0C50108A002C0880F991F0A94BE
:100FC000E2F7808360E079E08DE390E005C0108275
:100FD00060E874E88EE190E0A80197010E94012684
:100FE00021503040404050405695479537952795C1
:100FF00080E12030380720F0DD2011F0DD24D6CF4D
:10100000E889F9893083EA89FB89208319A2EE896E
:10101000FF89408121E030E0C9010C8C02C0880FBB
:10102000991F0A94E2F7482B4083EE89FF8940819B
:10103000C9010D8C02C0880F991F0A94E2F7482B52
:101040004083EE89FF894081C9010E8C02C0880F60
:10105000991F0A94E2F7482B4083EE89FF8980812B
:101060000F8C02C0220F331F0A94E2F72095282329
:101070002083DF91CF911F910F91FF90EF90DF9030
:10108000BF90AF900895DC011C96ED91FC911D97E7
:10109000E05CFF4F2191319180819181281B390BB8
:1010A0002F733070C9010895DC011C96ED91FC91FD
:1010B0001D97E05CFF4F20813181E054F040DF015B
:1010C000AE5BBF4F8D919C9111972817390719F48A
:1010D0002FEF3FEF07C08D919C91E80FF91F8081A2
:1010E000282F30E0C9010895DC011C96ED91FC9198
:1010F0001D97E05CFF4F20813181E054F040DF011B
:10110000AE5BBF4F8D919C9111972817390719F449
:101110002FEF3FEF10C08D919C911197E80FF91FB1
:1011200020818D919C91119701968F7390701196EB
:101130009C938E9330E0C9010895DC0191968C91C7
:101140009197882339F05496ED91FC9155978081C1
:1011500086FFF9CF91961C920895CF93DF93EC010F
:10116000EE85FF85E05CFF4F20813181E054F04047
:101170002F5F3F4F2F733070DF01AE5BBF4F8D91FC
:101180009C91119728173907D1F3E05CFF4F8081BC
:101190009181E054F040E80FF91F6083EE85FF85F0
:1011A000E05CFF4F31832083EE89FF89208181E05D
:1011B00090E00F8C02C0880F991F0A94E2F7282B49
:1011C000208381E089A3EC89FD898081806480830C
:1011D00081E090E0DF91CF91089510928B051092FD
:1011E0008A0588EE93E0A0E0B0E080938C059093B0
:1011F0008D05A0938E05B0938F058FE493E09093B7
:1012000089058093880580E095E09093950580930B
:10121000940584E495E0909397058093960585EC7A
:1012200090E0909399058093980584EC90E09093DA
:101230009B0580939A0580EC90E090939D058093A8
:101240009C0581EC90E090939F0580939E0582EC35
:1012500090E09093A1058093A00586EC90E0909398
:10126000A3058093A20584E08093A40583E0809386
:10127000A50587E08093A60585E08093A70581E01A
:101280008093A8050895CF93DF930E94F7060E94EC
:10129000C005CEE6D7E00E9455042097E1F30E94F6
:1012A0006E07F9CF0E94C3020895CF92DF92EF92AA
:1012B000FF920F931F93CF93DF937C016B018A0101
:1012C000C0E0D0E00FC0D6016D916D01D701ED9166
:1012D000FC910190F081E02DC7010995C80FD91F3D
:1012E000015010400115110571F7CE01DF91CF912A
:1012F0001F910F91FF90EF90DF90CF900895EF92A4
:10130000FF920F931F93CF93DF937C018B01C0E07B
:10131000D0E0F8010F5F1F4F6491662359F0D701A9
:10132000ED91FC910190F081E02DC7010995C80F66
:10133000D91FEFCFCE01DF91CF911F910F91FF9079
:10134000EF900895DC01ED91FC910190F081E02D8A
:1013500009950895EF92FF920F931F938C01DC0182
:10136000ED91FC910190F081E02D6DE009957C01FB
:10137000D801ED91FC910190F081E02DC8016AE067
:1013800009959C012E0D3F1DC9011F910F91FF90E2
:10139000EF900895EF92FF920F931F937C010E94AC
:1013A0007F098C01C7010E94AA099C01200F311FEF
:1013B000C9011F910F91FF90EF900895CF93DF9394
:1013C000EC016115710519F420E030E00FC0DB017C
:1013D0000D900020E9F71197A61BB70BE881F98162
:1013E0000280F381E02DAD0109959C01C901DF91D7
:1013F000CF9108954F925F927F928F929F92AF927A
:10140000BF92CF92DF92EF92FF920F931F93DF93E1
:10141000CF93CDB7DEB7A1970FB6F894DEBF0FBE5E
:10142000CDBF2C01742ECB01223008F42AE019A282
:1014300031E2C32ED12CCC0EDD1E822E9924AA249B
:10144000BB24672D752FA50194010E940126790107
:101450008A01C801B701A50194010E94AF25472D5B
:10146000461B0894C108D1084A3010F4405D01C001
:10147000495CF6014083E114F1040105110521F0F6
:101480007E2C5F2DC801DDCFC201B6010E94DE09AE
:10149000A1960FB6F894DEBF0FBECDBFCF91DF91FE
:1014A0001F910F91FF90EF90DF90CF90BF90AF9082
:1014B0009F908F907F905F904F900895DC01211551
:1014C000310541F4ED91FC910190F081E02D642F04
:1014D000099508950E94FA090895EF92FF920F93DB
:1014E0001F939A017B0100E010E0B801A7010E9460
:1014F0005E0A1F910F91FF90EF900895CF92DF92B7
:10150000EF92FF920F931F936C017B019A0100E011
:1015100010E0B801A7010E945E0A8C01C6010E947A
:10152000AA09080F191FC8011F910F91FF90EF9092
:10153000DF90CF900895EF92FF920F931F939A013F
:10154000E62EFF2400E010E0B801A7010E945E0A29
:101550001F910F91FF90EF900895CF92DF92EF923D
:10156000FF920F931F936C01E62E9A01FF2400E077
:1015700010E0B801A7010E945E0A8C01C6010E941A
:10158000AA09080F191FC8011F910F91FF90EF9032
:10159000DF90CF900895CF92DF92EF92FF920F935A
:1015A0001F93CF93DF93EC016A017B012115310575
:1015B00041F4E881F9810190F081E02D642F0995D3
:1015C0001FC02A303105D1F477FF17C0E881F981B7
:1015D0000190F081E02D6DE209958C01442755279B
:1015E000BA014C195D096E097F09CE012AE00E94FB
:1015F000FA099801280F391F04C02AE00E94FA094D
:101600009C01C901DF91CF911F910F91FF90EF9045
:10161000DF90CF900895EF92FF920F931F937B017D
:101620009A010027F7FC0095102FB801A7010E942E
:10163000CB0A1F910F91FF90EF9008950E94DE0951
:1016400008957F928F929F92AF92BF92CF92DF9236
:10165000EF92FF920F931F93CF93DF934C017A0188
:101660008B01722ECB01BA01A80197010E94AB2514
:10167000882321F0C40161E471E021C0C0E0D0E022
:1016800057016801E894D7F8C601B5012FEF3FEF85
:101690004FE75FE70E94AB25882351F4C601B501EF
:1016A0002FEF3FEF4FE75FE70E94F523181614F086
:1016B000C1E0D0E0219739F0C40165E471E00E94F7
:1016C000DE09EC0193C0C801B7012FEF3FEF4FE7F0
:1016D0005FE40E944425181654F0C801B7012FEFAB
:1016E0003FEF4FE75FEC0E94F523882324F4C40109
:1016F00069E471E0E4CFC801B70120E030E040E0E8
:1017000050E00E94F52387FD03C0C0E0D0E00EC08A
:10171000D401ED91FC910190F081E02DC4016DE2C6
:101720000995EC0117FB109517F9109520E030E0B2
:1017300040E05FE3DD240BC0CA01B90120E030E0E6
:1017400040E251E40E94F9239B01AC01D394D714E9
:1017500098F3C801B7010E9491235B016C010E94BC
:1017600066247B018C01C401B801A7012AE030E0A6
:101770000E945E0AC80FD91F772039F0C4016DE4BA
:1017800071E00E94DE09C80FD91FC801B7010E948D
:1017900092249B01AC01C601B5010E94902324C094
:1017A00020E030E040E251E40E9448257B018C01BA
:1017B0000E9461245B016C01CC24B7FCC094DC2C3A
:1017C000C401B601A5012AE030E00E94CB0AC80F8F
:1017D000D91FC601B5010E9494249B01AC01C80128
:1017E000B7010E9490237A947720D1F6CE01DF9141
:1017F000CF911F910F91FF90EF90DF90CF90BF900E
:10180000AF909F908F907F9008950E94210B089534
:10181000EF92FF920F931F937C010E94DE098C01CF
:10182000C7010E94AA09080F191FC8011F910F9133
:10183000FF90EF9008950F931F93CF93DF938C0148
:10184000EB0180E06115710509F081E0F801828308
:10185000882341F00E9486062197C60FD71FF80102
:10186000D183C083DF91CF911F910F910895EF92A3
:10187000FF920F931F93CF93DF93EC017B018A813B
:10188000882311F400E00FC0088119810E948606A8
:10189000C801861B970B2AEE8136920710F400E0F0
:1018A00006C0082F0195CE01B7010E941B0C802FA6
:1018B000DF91CF911F910F91FF90EF900895782FB6
:1018C00065B121E030E040E050E00090450304C005
:1018D000220F331F441F551F0A94D2F7322F822F35
:1018E0008095862385B99EBD0DB407FEFDCF4EB50C
:1018F0007EBD0DB407FEFDCF2EB5942F80E045B11F
:10190000342B35B930E0282B392BC9010895E898DC
:101910000E945F0CE89A08958091AA059091AB050A
:101920008F709093AB058093AA058091AA05909142
:10193000AB0588609093AB058093AA058091AA05BA
:101940009091AB050E945F0C08951092B5058091AF
:10195000B505809304068FEF9FEF9093B2058093B7
:10196000B105209102062223D9F08227282F229543
:101970002827022E269526952025022E26952025FD
:101980002770082E892F269507942795902D82275A
:1019900006942795902582279093B2058093B105F0
:1019A00087E08093010681E08093AF0583EA94E9A4
:1019B0000E945F0C8091AA059091AB05886D909371
:1019C000AB058093AA058091AA059091AB050E9472
:1019D0005F0C089580910106873009F040C0809126
:1019E000B5052091040690E0049630E08217930735
:1019F00024F080910406873490F184E080930106FE
:101A00008091B505833430F081E090E09093B20589
:101A10008093B1058091B40586FF12C080910006C5
:101A2000282F30E0C9018F7190704F9749F0809155
:101A3000B40590E0822793278F719070892B79F4F9
:101A40008091B1059091B205892B99F4E091FE0542
:101A5000F091FF05309769F080E0099516C08091FC
:101A60000106843011F080E008950E94A50C80E00A
:101A700008958FEF9FEFAFEFBFEF8093FA0590933C
:101A8000FB05A093FC05B093FD0581E008950F933D
:101A90001F93082F10E0C801966C0E945F0C9801FC
:101AA0002F7730702F5F3F4F442737FD4095542FDD
:101AB0006BEF72E485E090E00E940126CA01B90153
:101AC000000F012F001F110B980143E0220F331F5D
:101AD0004A95E1F7201B310B2F5F3F4F442737FD1D
:101AE0004095542F0E94012693E0569547953795CF
:101AF00027959A95D1F72D573C4F4F4F5F4FCA010D
:101B0000B90124E833E040E050E00E940126209330
:101B1000B0051F910F910895809101068430A1F0C6
:101B200080910106873091F480910406882371F436
:101B30001EBC0DB407FEFDCF0EB400FC07C00E9412
:101B40008C0C84E08093010681E0089580E0089584
:101B5000982F86FD05C0907E809100068F71980FAA
:101B60009093B405E091FE05F091FF05309711F0D8
:101B700081E009958FEF9FEF9093B2058093B105B7
:101B80008091B1059091B205209102068227282FFD
:101B900022952827022E269526952025022E269569
:101BA00020252770082E892F269507942795902D9C
:101BB000822706942795902582279093B2058093DB
:101BC000B10588E0809301068091AA059091AB054C
:101BD00088639093AB058093AA058091AA059091A4
:101BE000AB050E945F0C0895DF92EF92FF920F9376
:101BF0001F937B018C01DD2405C0D39416950795B6
:101C0000F794E7948FEFE816F1040105110509F048
:101C1000A0F78091AA059091AB0581FF0FC080913C
:101C2000AA059091AB058D7F9093AB058093AA0593
:101C30008091AA059091AB050E945F0CE114F1041C
:101C400001051105B9F0C701906E3D2D20E0822BF2
:101C5000932B0E945F0C8091AA059091AB05826046
:101C60009093AB058093AA058091AA059091AB054E
:101C70000E945F0C1F910F91FF90EF90DF900895ED
:101C800085B121E030E040E050E00090450304C021
:101C9000220F331F441F551F0A94D2F7322F922F61
:101CA0009095982395B91EBC0DB407FEFDCF6EB577
:101CB0001EBC0DB407FEFDCF2EB5962F80E0622F1F
:101CC00070E0682B792B77FF0FC080910106873079
:101CD00059F48CB581608CBD1EBC0DB407FEFDCFE0
:101CE0002EB58CB58E7F8CBD85B1382B35B97093F0
:101CF000AD056093AC058091AC059091AD0597FF63
:101D0000E9C080910106873009F079C0809104060E
:101D1000882371F490910206992351F08091040672
:101D2000E82FF0E0ED54FA4F90838F5F8093040624
:101D300080910406E82FF0E0ED54FA4F20838F5F86
:101D4000809304068091B1059091B2058227282FD7
:101D500022952827022E269526952025022E2695A7
:101D600020252770082E892F269507942795902DDA
:101D7000822706942795902582279093B205809319
:101D8000B1052091AF05233040F58091040690E025
:101D90006091B005029770E00E94EE25892BE9F46E
:101DA0008091AC059091AD05E22FF0E090FF04C06A
:101DB000E55AFC4F808104C0E55AFC4F8081829532
:101DC0008F708093AF05833040F490E0880F991FA7
:101DD0000196806A94690E945F0C8091B5052091FC
:101DE000040690E0049630E0821793072CF080916F
:101DF0000406873408F46EC00E948C0C6BC080917E
:101E0000010687FF2EC0E091B505809101068F5F26
:101E1000809301068150ED5FE80FF0E0ED54FA4F3A
:101E2000E0818091B1059091B2058E27282F2295EF
:101E30002827022E269526952025022E2695202538
:101E40002770082E892F269507942795902D822795
:101E500006942795902582279093B2058093B1052B
:101E60002EC0809101068F5F8093010681508330E0
:101E700019F184302CF4882399F08130F9F416C0DC
:101E80008B3019F08C30D1F402C0EDE218C0E09133
:101E900002069091B5058EEF891B809301060FC055
:101EA0008091B1059091B205E82F09C08091B105EC
:101EB0009091B205E92F03C00E948C0CEAEA8E2FA4
:101EC00090E0986B0E945F0C80910106843011F4C1
:101ED0000E94A50C8091AC059091AD0596FF03C0C2
:101EE00086E0809301068091AC059091AD0594FF4A
:101EF00009C060E070E080E090E00E94F40D81E0B5
:101F00008093AE058091AC059091AD0595FF05C01D
:101F10000E948C0C84E08093010608951F93182F73
:101F20004093B50526EB35E0C90150E00E94C5039A
:101F3000812F0E94A80D1F91089525B181E090E0A6
:101F4000A0E0B0E00090450304C0880F991FAA1FCD
:101F5000BB1F0A94D2F7282B25B924B1822B84B950
:101F60008AE061E00E943C238AE061E00E94FD2259
:101F70008BE061E00E94FD228CE060E00E94FD2287
:101F80008DE061E00E94FD2280E58CBD8DB5816011
:101F90008DBD82E060E00E94FD2282E061E00E944F
:101FA0003C2308951F93809300064093020660939C
:101FB00003060E949D0F8091000690E08F71907043
:101FC000892B41F080E060E47EE040E050E00E9438
:101FD000482203C080E00E946B2282E89AEC0E94B3
:101FE0005F0C80E09EEF0E945F0C85E0809301060D
:101FF00083B7817F06C083B7816083BF889583B72D
:102000008E7F83BF809101068530A9F3F89485E027
:1020100092E89093AB058093AA058091AA059091D0
:10202000AB050E945F0C8091030690E074E0880F7E
:10203000991F7A95E1F7876C90680E945F0C80E4A5
:1020400096EA0E945F0C86E00E94470D82EA94E9BE
:102050000E945F0C8CEA92EC0E945F0C10910206C9
:10206000112341F083E89AEC0E945F0C812F90E0ED
:102070009E6C06C08BE89AEC0E945F0C8DE29EEC91
:102080000E945F0C83E894EC0E945F0C80E598E965
:102090000E945F0C87E79CEC0E945F0C80E090EE52
:1020A0000E945F0C80E098EC0E945F0C89E490EC49
:1020B0000E945F0C84E08093010678948091000672
:1020C0001F910895DF93CF9300D0CDB7DEB78091F5
:1020D000290690912A069E012F5F3F4F009719F421
:1020E0002D52364002C0281B390BC9010F900F90AA
:1020F000CF91DF9108951F93182F6AE070E080E080
:1021000090E00E949406112329F480E090E0A0E082
:10211000B0E004C08DE090EFADEABBE08093000139
:1021200090930101A0930201B093030128E088E19C
:1021300090E00FB6F894A895809360000FBE2093AE
:102140006000FFCFFC01E053FF4F9081E05DF04065
:10215000933018F020E030E008C084E4989F9001AC
:1021600011242A5F3F4F2E0F3F1FC9010895FC0124
:1021700082E693E09183808390912D06992371F0FC
:1021800080912E06882351F08F3140F4E852FF4FA2
:102190009083E85DF0408093050607C0E852FF4F4A
:1021A0004083E85DF0406093050681E0828383838D
:1021B000E053FF4F108208950895FF920F931F93ED
:1021C0008C01F62E88E895E067E271E00E947F09B5
:1021D00088E895E0609105064AE050E00E949B0A7D
:1021E00088E895E06CE171E00E947F0908521F4F7A
:1021F00088E895E0F80160814AE050E00E949B0A7F
:1022000088E895E065E171E00E947F0988E895E043
:102210006F2D4AE050E00E949B0A8091050663E022
:10222000F80140810E94D20FF2E0FF1621F083E016
:10223000F81611F50FC088E895E066E071E00E949D
:10224000CA0987E598E90E94870C82EB94E90E940D
:10225000870C16C088E895E06DEF70E00E94CA090F
:1022600081E196EC0E94870C81EC94E90E94870C36
:1022700080E298E90E94870C88E895E00E94AA090C
:1022800083E00E94D82285E060E00E94FD221F9139
:102290000F91FF900895AF92BF92CF92DF92EF928D
:1022A000FF920F931F93DF93CF93CDB7DEB76C01EF
:1022B000ADB6BEB68B017B016115710579F088E87A
:1022C00095E06CE371E00E947F0988E895E0F801F1
:1022D00060814AE050E00E94AD0A0DC00F92EDB659
:1022E000FEB60894E11CF11C81E0EDB7FEB78183D6
:1022F000B7010E947013C601F70160810E94DD10D2
:102300000FB6F894BEBE0FBEADBECF91DF911F9148
:102310000F91FF90EF90DF90CF90BF90AF90089516
:102320001F93CF93DF93EC01C053DF4F8881C05DD3
:10233000D0408823E1F11C81CF52DF4F8881C15DFD
:10234000D04090E007970CF01F7DBE016A5F7F4F81
:10235000812F4D810E948E0F15FD1BC0C053DF4F92
:102360008881C05DD040823050F0DE011496FE01BD
:10237000E85BFF4F88E801900D928150E1F7FE0184
:10238000E053FF4F808181508083CF52DF4F18820E
:102390000EC0FE01EF52FF4F80818F5F80830E944D
:1023A0008606CE52DF4F688379838A839B83DF91D1
:1023B000CF911F910895EF92FF920F931F93CF93A8
:1023C000DF93EC0186EDE82EF12CEC0EFD1EF701FB
:1023D00080818823A1F10E948C0D882381F18E01D8
:1023E00009521F4FF7018081B80141E00E948E0F12
:1023F000F7011082F801108229C0CF52DF4F888187
:10240000C15DD040882399F00E948606CE52DF4FEE
:10241000288139814A815B81C25DD0402E5C3F4F6B
:102420004F4F5F4F621773078407950778F00E943C
:102430008C0D882359F0CE010E94901107C0C05323
:10244000DF4F8881C05DD0408823B9F6DF91CF91FE
:102450001F910F91FF90EF900895CF93DF93EC01C0
:10246000DC01A053BF4F2C91233058F530E084E4B9
:1024700090E0289FF001299FF00D389FF00D112466
:10248000EC0FFD1F65838C9190E0FC0154E0EE0F92
:10249000FF1F5A95E1F7E80FF91F3196EE0FFF1F66
:1024A000EE0FFF1FEC0FFD1F40838C918F5F8C930D
:1024B000813039F40E948C0D882319F0CE010E94DE
:1024C0009011DF91CF9108959C01411140E28091DC
:1024D0000506482BC9010E942D1208950F931F93E2
:1024E0008C0185E00E94DB2206521F4F8C529140E6
:1024F0009595879595958795F80180831F910F9104
:102500000895CF93DF93EC010E94EA0C882309F42D
:1025100073C08091B1059091B205892B09F068C014
:102520008091B40587FD1DC0CE010E946E1280917E
:10253000B40585FF13C09091B4059F718091050685
:10254000981711F4892F02C0892F8064CA52DF4F77
:102550008068888324968881239788838091B60534
:102560004FC08091B40585FD47C0CE010E946E1218
:102570002091B40530E02F7130708091050690E015
:1025800028173907C9F5C053DF4F8881C05DD04097
:10259000882391F1CF52DF4F8881C15DD0408823DD
:1025A00059F18091B505813011F080E002C0809131
:1025B000B605C752DF4F888329978881C05DD04018
:1025C000823050F0DE011496FE01E85BFF4F88E890
:1025D00001900D928150E1F7FE01E053FF4F8081A1
:1025E00081508083CF52DF4F1882C15DD04004C03C
:1025F0008091B1059091B205CE010E94DB1180E07F
:10260000DF91CF910895EF92FF920F931F93CF9395
:10261000DF93EC0170EDE72EF12CE80EF91E8C0132
:102620000A521F4F0BC0CE010E948112882371F401
:1026300061E070E080E090E00E949406F701808104
:10264000882389F7F8018081882369F7DF91CF918A
:102650001F910F91FF90EF9008959C01F999FECF83
:1026600032BD21BDF89A80B508959C01F999FECF3D
:102670001FBA32BD21BD60BD0FB6F894FA9AF99A1F
:102680000FBE0895CF93DF93EC01462F009721F4FE
:102690004091B505C6EBD5E04423F9F0388120918F
:1026A0000806E0910606F091070690E014C0A1919B
:1026B000B19112968C911297831761F4ED91FC9170
:1026C0001197219641500280F381E02DCD01BE018A
:1026D000099503C09F5F921750F3DF91CF91089542
:1026E0001F93182F50910806A0910606B091070677
:1026F00020E230E090E047C0ED91FD91828143817E
:10270000811709F03DC0C90150E025E333E10E9483
:10271000F1034091090650910A06FA01329720E030
:1027200030E06FEF7FEF21C0F999FECF205E3F4F81
:1027300032BD21BDF89A80B56827862F82958627FD
:10274000082E869586958025082E8695802587708B
:10275000062E672F869507948795702D6827069417
:102760008795702568272F5130402E173F0708F4B2
:10277000DBCFCA014E9645E353E10E940D0419C018
:10278000240F311D9F5F951708F4B6CF88E895E0B8
:102790006AE871E00E947F0988E895E0612F4AE0CD
:1027A00050E00E949B0A88E895E06FE671E00E9485
:1027B000CA091F9108958F929F92AF92BF92DF92A4
:1027C000EF92FF920F931F93DF93CF93CDB7DEB7B6
:1027D000C054D0400FB6F894DEBF0FBECDBF5C0131
:1027E00020E0322F3F5FE22FF0E0EE0FFF1FEA0DF7
:1027F000FB1D80819181892B11F0232FF2CF209333
:102800000806B0920706A092060688E895E06CE0FC
:1028100072E00E947F0988E895E0609108064AE02E
:1028200050E00E949B0A88E895E062E072E00E9416
:102830007F0910920A0610920906EE244EC00E2D52
:1028400010E0F801EE0FFF1FEA0DFB1D0190F08173
:10285000E02DF38080E48F15A8F588E895E00E94CC
:10286000AA0988E895E062EE71E00E947F090F5F97
:102870001F4F88E895E0B8014AE050E00E940B0B3A
:1028800088E895E062ED71E00E947F0988E895E0B4
:102890006F2D4AE050E00E949B0A88E895E06CECBE
:1028A00071E00E947F0988E895E060E470E04AE00A
:1028B00050E00E940B0B88E895E066EC71E00E9406
:1028C000CA090AC08091090690910A068F0D911DD0
:1028D00090930A0680930906E39480910806E8160F
:1028E00008F4ADCF6091090670910A066E5F7F4FC4
:1028F00070930A066093090688E895E04AE050E084
:102900000E946D0A88E895E06FEB71E00E94CA09A9
:102910006091090670910A0620E030E04FEF5FEF0A
:1029200021C0F999FECF205E3F4F32BD21BDF89AFC
:1029300080B54827842F82958427082E8695869512
:102940008025082E869580258770042E452F869534
:1029500007948795502D482706948795502548273A
:102960002F5130402617370708F4DBCF452B01F1F4
:1029700088E895E069EA71E00E94CA0910E013C096
:10298000E12FF0E0EE0FFF1FEA0DFB1DA081B181EA
:10299000ED91FC9111970190F081E02DCD0160E067
:1029A00070E009951F5F80910806181748F337C03B
:1029B00088E895E06AE971E00E94CA0990E2E92E90
:1029C000F12CDD244E010894811C911C24C00D2D96
:1029D00010E0000F111F0A0D1B1DD801ED91FC9195
:1029E0004381C401B70150E02DE233E10E94D503D9
:1029F000F801A081B181ED91FC9111970190F081D6
:102A0000E02DCD01B4010995D801ED91FC918381B0
:102A1000E80EF11CD39480910806D816C0F2C05C71
:102A2000DF4F0FB6F894DEBF0FBECDBFCF91DF9161
:102A30001F910F91FF90EF90DF90BF90AF909F900C
:102A40008F90089508950895FC01E45BFF4F108274
:102A5000EC54F04082E0868381E0878380E08160EF
:102A6000808708950F931F938C01FC0113821282BB
:102A70008AE693E0918380830C9695838483C801D2
:102A80000E942415F8018185887F856081871F91C8
:102A90000F91089504970E944E150895CF93DF93E8
:102AA000EC01FB01BC01685F7F4F309719F080811A
:102AB000888705C08985888782E00E94701388E82E
:102AC00095E061E372E00E947F09888580FF06C07F
:102AD00088E895E069E272E00E947F09888581FFBD
:102AE00006C088E895E064E272E00E947F0988856C
:102AF00082FF06C088E895E06EE172E00E947F09DF
:102B00008885882331F488E895E065E172E00E94C9
:102B10007F0988E895E00E94AA09DF91CF91089586
:102B2000EF92FF920F931F93CF93DF9386E993E089
:102B30000E94A210EC01009701F50E9486067B011D
:102B40008C010E9486066E197F09800B910B6C52D6
:102B500071408040904088F461E070E080E090E057
:102B60000E94940686E993E00E94811286E993E030
:102B70000E94A210009729F3EC01CE01DF91CF91C2
:102B80001F910F91FF90EF900895EF92FF920F9396
:102B90001F93CF93DF93EC018C01045B1F4FD8018F
:102BA0008C91FE01E80FF11D1286888580FF16C00A
:102BB000BE01665F7F4F88E895E00E941E0BF8011A
:102BC0008081882359F0FE01E80FF11D81858A304C
:102BD00029F488E895E06DE00E94A209888582FFCB
:102BE00086C08E01035B1F4FD8018C91882309F4A6
:102BF00053C0CE010E949015AC01009709F445C066
:102C0000FC0182E081939F016FE471E086E0DB01CB
:102C10000D90BD01D9010D929D018150C1F79F0119
:102C20002A5F3F4FC35BDF4F8881CD54D0408B304C
:102C300040F06AE00E94CE25805D86839F01295F77
:102C40003F4FFE01E35BFF4F80816AE00E94CE258B
:102C5000905DF90191939F0166E571E087E0DB01EA
:102C60000D90BD01D9010D929D018150C1F737969C
:102C70006E2F641B86E993E041E00E946412C35BFF
:102C8000DF4F1882CD54D04007C0F80180818336D1
:102C900088F58F5F80832EC0CE010E9490152DE4B1
:102CA000E22EF12CEC0EFD1E0097D9F0FC0182E023
:102CB00081938E01045B1F4FD8014C919E01265FCA
:102CC0003F4FCF01B90150E00E94C503F801608178
:102CD0006F5F86E993E041E00E946412D7011C9285
:102CE00006C0F70180818F3F11F08F5F8083C45B46
:102CF000DF4F1882DF91CF911F910F91FF90EF90DE
:102D000008951F93CF93DF93EC01162FC45BDF4F21
:102D10008881CC54D040813418F0CE010E94C51572
:102D2000DE01A45BBF4F8C91FE01E80FF11D1287FD
:102D30008F5F8C931A3019F4CE010E94C51581E083
:102D400090E0DF91CF911F910895FC018EE793E011
:102D500091838083148283E0828381E0838308955A
:102D6000FC01DB016115710519F08C91848305C0AC
:102D7000349683E0BF010E94701388E895E06EE509
:102D800071E00E94080C08951F93CF93DF93EB012D
:102D9000443098F00E949F21182F688179818A81A0
:102DA0009B810E94A221112341F480918301909183
:102DB00084016DE372E00E94CA09DF91CF911F91F7
:102DC0000895FC018481681728F070E060E090ECC1
:102DD0008FE70FC0862F90E0880F991F880F991FEB
:102DE0000284F385E02DE80FF91F708161819281E3
:102DF0008381272F362F492F582FB901CA010895F3
:102E000070E033E0660F771F3A95E1F7DC01129628
:102E1000ED91FC911397E60FF71F9781923211F411
:102E200081E0089580E0983209F481E00895AF923E
:102E3000BF92CF92DF92EF92FF920F931F93DF9397
:102E4000CF93CDB7DEB7A4970FB6F894DEBF0FBE11
:102E5000CDBF7C010D8F1E8F2F8F38A349A35AA39E
:102E60006BA37CA3CE014D960E947B1B29833A83E2
:102E70004B835C836D837E838F839887F70180818A
:102E800091810E94601FF70180819181BE016F5F77
:102E90007F4F0E943F1FF701808191816EEB40E0E0
:102EA0000E94FA1E8E010F5E1F4FC801B02EA92E80
:102EB0007AE1C72ED12CCC0EDD1EF70180819181E5
:102EC0000E94A91EF80181938F01EC15FD05A9F759
:102ED0008B2D9A2D68E00E94641E998D891769F5E3
:102EE0002989222319F48A89882339F18E898F3F11
:102EF00021F5888D803109F59A8980E0422F50E0D4
:102F0000482B592BDE011996E2E8F3E088E00190A6
:102F10000D928150E1F7ED89F0E0E076F07064E029
:102F2000F695E7956A95E1F7EC0FFD1F218532854F
:102F3000209530952423352302C020E030E8C901D4
:102F4000A4960FB6F894DEBF0FBECDBFCF91DF9130
:102F50001F910F91FF90EF90DF90CF90BF90AF90B7
:102F600008958F929F92AF92BF92CF92DF92EF928D
:102F7000FF920F931F93CF93DF93EC0170E0E3E098
:102F8000660F771FEA95E1F7EA81FB81E60FF71FED
:102F9000F080E180D280C380B480A5809680878055
:102FA0000F2D1E2D2D2D3C2D4B2D5A2D692D782D9D
:102FB0000E9417179C0180E82030380751F5CE0198
:102FC0002D2D3C2D4B2D5A2D692D782D0E94171734
:102FD0009C0180E820303807E1F4CE012D2D3C2DF6
:102FE0004B2D5A2D692D782D0E9417179C0180E8D2
:102FF0002030380771F4CE012D2D3C2D4B2D5A2D4C
:10300000692D782D0E9417179C0180E82030380721
:1030100001F185E020353807E1F0B901882777FD17
:103020008095982F0E94942420E030E040E85DE3F2
:103030000E94482526E636E646EE5FE30E944825D4
:1030400020E030E040E052E40E949123E62F692F17
:1030500004C0E0E070E080EC6FE72E2F372F482FA0
:10306000562FB901CA01DF91CF911F910F91FF90A7
:10307000EF90DF90CF90BF90AF909F908F9008958A
:103080000F931F938C01FC01808191810E94601F2E
:10309000F801808191810E943A1FF801808191811D
:1030A00064E441E00E94FA1E1F910F9108952F924F
:1030B0003F924F925F927F928F929F92AF92BF9278
:1030C000CF92DF92EF92FF920F931F93CF93DF93F4
:1030D000EC01962E409660E67AEE0E94370C88232B
:1030E00009F44AC08B899C89AD89BE890196A11DCE
:1030F000B11D8B8B9C8BAD8BBE8B803F9105A10549
:10310000B105D0F11B8A1C8A1D8A1E8A90E006E058
:1031100010E829C0EF89F88DE60FF71FDA01119644
:103120009F012A0F3B1FE40FF51F8081F901808367
:10313000E98DFA8DE60FF71FAE0FBF1FE40FF51FE5
:1031400080818C9341505040FFEF4F3F5F0711F754
:10315000EF89F88DE60FF71F1083E98DFA8DE60FE2
:10316000F71F10839F5F8C81981730F4909FB001F8
:10317000112444E050E0CECF0E9486065B016C0132
:103180008D81882309F041C0992041F08E819F8173
:10319000A885B9850097A105B10531F45C8140E0AF
:1031A00030E080E090E022C086017501E81AF90A5B
:1031B0000A0B1B0B692D70E080E090E028EE33E0F5
:1031C00040E050E00E94AF256E157F058007910713
:1031D00028F300C1EA81FB81E80FF91F2781223221
:1031E00011F0283209F44F5F3F5F0896351790F3CE
:1031F000442309F4EFC0CE010E944018AE82BF8282
:10320000C886D98681E08D83E5C0813009F0E2C0AF
:103210008E819F81A885B985A81AB90ACA0ADB0AD6
:103220008DEBA816B104C104D10408F4D3C07724EF
:103230000F2EF0E02F2EF0E03F2EF0EC4F2EFFE7A8
:103240005F2EF02DC0C0872C9924C401B3E0880FF5
:10325000991FBA95E1F7EA81FB81E80FF91F878191
:10326000823219F0883209F0ADC0CE01672D0E947C
:10327000B1175B016C01A1E0EA2EF12C012D112D9B
:10328000072C04C0EE0CFF1C001F111F0A94D2F77C
:10329000A60195010E94AB252C853D854E855F8555
:1032A000882301F1D801C70182239323A423B523E6
:1032B0000097A105B10569F0880C991C880C991C30
:1032C000EA85FB85E80DF91D208231824282538216
:1032D00079C02E293F29402B512B2C873D874E87C3
:1032E0005F8770C0D801C70180959095A095B09573
:1032F000282339234A235B232C873D874E875F870A
:10330000C401880F991F880F991FEA85FB85E80F74
:10331000F91FA082B182C282D382C601B50120E02A
:1033200030E040E050E00E94442588234CF0C60184
:10333000B50120E030E040E05FE30E94912308C047
:10334000C601B50120E030E040E05FE30E94902339
:103350000E94612478EAF72EF60E8401000F111FF7
:10336000080D191D000F111FEF89F88DE00FF11FD7
:103370008581803859F42F2D332727FD3095CF01D3
:10338000B90146E050E00E94CE0306C0808180383B
:1033900011F0F8160CF4F082E98DFA8DE00FF11FB0
:1033A0008581803859F42F2D332727FD3095CF01A3
:1033B000B90146E050E00E94CE0304C080818F1521
:1033C0000CF4F08273948C81781608F43CCF1D8243
:1033D00081E001C080E0DF91CF911F910F91FF90BC
:1033E000EF90DF90CF90BF90AF909F908F907F90A5
:1033F0005F904F903F902F900895CF92DF92EF9281
:10340000FF920F931F93CF93DF93EC01D62E7A0197
:10341000C22E8EE090E00E945209182F092F6D2DC8
:103420000E94412018830983FB82EA828C2D81321D
:1034300008F080E28C831D821C861D861E861F86F6
:1034400090E064E070E00E94A7028A879B878C81ED
:1034500090E066E070E00E94A7028F8B988F2C812D
:1034600016E0219F9001112460E870E0A9010E94FC
:10347000CE038C8190E066E070E00E94A702898F05
:103480009A8F2C81219F9001112460E870E0A9019E
:103490000E94CE03DF91CF911F910F91FF90EF908B
:1034A000DF90CF900895FC01128A0E94FD190895C3
:1034B000FC018481681710F080E008950580F68192
:1034C000E02DE60FF11D8081811181E0089520E05B
:1034D00070E033E0660F771F3A95E1F7DC01129652
:1034E000ED91FC911397E60FF71F8781853009F462
:1034F00021E0822F0895EF92FF920F931F93DF93A5
:10350000CF93CDB7DEB760970FB6F894DEBF0FBE8E
:10351000CDBF7C0109871A872B873C874D875E8743
:103520006F87788BCE0109960E947B1B29833A8393
:103530004B835C836D837E838F839887F7018081C3
:1035400091810E94601FF70180819181BE016F5FB0
:103550007F4F0E943F1FF701808191810E94751E5D
:1035600091E0892760960FB6F894DEBF0FBECDBFFD
:10357000CF91DF911F910F91FF90EF9008958F925F
:103580009F92AF92BF92CF92DF92EF92FF920F93F2
:103590001F93CF93DF93EC01962E0E9486065B016A
:1035A0006C019920F9F089859A85AB85BC850097D7
:1035B000A105B105B9F086017501E81AF90A0A0BEF
:1035C0001B0B692D70E080E090E028EE33E040E0D6
:1035D00050E00E94AF256E157F058007910710F01F
:1035E00080E047C0A986BA86CB86DC86EE2461E0FF
:1035F000862E912CA12CB12C38C0EA81FB81CE2CD7
:10360000DD24C60153E0880F991F5A95E1F7E80FB2
:10361000F91F8781853041F5008111812281338135
:10362000448155816681782FCE010E947B1AA501C5
:1036300094010E2C04C0220F331F441F551F0A94FF
:10364000D2F7209530956F81788562237323788730
:103650006F83ED81FE81EC0DFD1D20E030E08823BD
:1036600011F021E030E02083E3948C81E81628F209
:1036700081E0DF91CF911F910F91FF90EF90DF904C
:10368000CF90BF90AF909F908F900895CF92DF9290
:10369000EF92FF920F931F93CF93DF93EC01D62EFF
:1036A0007A01C22E8EE090E00E945209182F092F55
:1036B0006D2D0E94412018830983FB82EA828C2DA4
:1036C00090E29C1508F480E28C8318861F828C2D72
:1036D00090E061E070E00E94A7028D839E83DF91FD
:1036E000CF911F910F91FF90EF90DF90CF900895B1
:1036F0000E94461B0895DF93CF93CDB7DEB728977E
:103700000FB6F894DEBF0FBECDBFDC01FE013896C8
:103710009E0103C08D9180833197E217F307D1F7A3
:1037200029813A814B815C816D817E818F81988571
:1037300028960FB6F894DEBF0FBECDBFCF91DF91B4
:103740000895CF92DF92EF92FF920F931F93DF9332
:10375000CF93CDB7DEB728970FB6F894DEBF0FBE74
:10376000CDBF7C0109831A832B833C834D835E8309
:103770006F83788761E771E00E941E0B8E010F5FF7
:103780001F4F99E0C92ED12CCC0EDD1EF8016081AF
:1037900070E084E0759567958A95E1F7C70140E18F
:1037A00050E00E940B0BF80161918F0170E06F7087
:1037B0007070C70140E150E00E940B0B0C151D0515
:1037C00029F728960FB6F894DEBF0FBECDBFCF9174
:1037D000DF911F910F91FF90EF90DF90CF900895B0
:1037E000FF920F931F938C01F62E64E771E00E9405
:1037F0001E0BC8016F2D4AE050E00E949B0AC801D1
:1038000068E771E00E941E0B1F910F91FF900895D1
:103810002F923F924F925F926F927F928F929F92E0
:10382000AF92BF92CF92DF92EF92FF920F931F93CE
:10383000DF93CF93CDB7DEB7E1970FB6F894DEBF35
:103840000FBECDBF8AA74BA739016CA77DA778A370
:103850006F8FFB0140E050E060E070E020E001E0AD
:1038600010E021C080819181892B9281892B9381E5
:10387000892B9481892B9581892B9681892B97811E
:10388000892B79F0C801022E02C0880F991F0A9473
:10389000E2F7AA2797FDA095BA2F482B592B6A2B40
:1038A0007B2B2F5F38963BA52317E0F21BA220E06D
:1038B00030E0E1E0F0E0CF01022E02C0880F991F56
:1038C0000A94E2F7AA2797FDA095BA2F842395239F
:1038D000A623B7230097A105B10519F08BA18F5F2F
:1038E0008BA32F5F3F4F2032310529F78E010F5EEA
:1038F0001F4FC8016AA50E944120C8010E94571E9F
:103900002224332421011EA21FA218A619A61DA23B
:103910001CA20EA71FA7DE011896B9ABA8ABFDC06D
:10392000CE01019667E00E94641E882E9924AA2485
:10393000BB24CC24DD24760129813A814B815C8132
:103940006D817E818F81988508E30E94280282160E
:1039500009F0E3C0931609F0E0C0A41609F0DDC039
:10396000B51609F0DAC0C61609F0D7C0D71609F0A7
:10397000D4C0E81609F0D1C0F91609F0CEC0FE0196
:10398000709607C0A9A1BAA18D91BAA3A9A38083FB
:10399000319728A939A9E217F307A1F719850A85F4
:1039A000EB84DC84CD84BE84AF8498888CA59DA5EF
:1039B000FC01FF2444C080819181228133814481B4
:1039C00055816681778138961817C1F50917B1F5C9
:1039D000E216A1F5D31691F5C41681F5B51671F569
:1039E000A61661F5971651F561147104B9F0C3017B
:1039F0006AA50E94F01BC30165E872E00E947F097E
:103A000009811A812B813C814D815E816F8178858E
:103A1000C3010E94A11BC3010E94AA0981E090E09A
:103A2000A0E0B0E004C0880F991FAA1FBB1FFA9442
:103A3000D2F7282A392A4A2A5B2A6CC0F3943BA57C
:103A4000F31608F4B8CF8CA59DA5FC01FF245EC039
:103A5000DF0180819181228133814481558166819A
:103A600077813896892B822B832B842B852B862B71
:103A7000872B09F04AC01C9311960C93119712964C
:103A8000EC9212971396DC9213971496CC9214979B
:103A90001596BC9215971696AC92169717969C920F
:103AA00061147104B9F0C3016AA50E94F01BC3013F
:103AB0006FE772E00E947F0909811A812B813C81A6
:103AC0004D815E816F817885C3010E94A11BC30176
:103AD0000E94AA0981E090E0A0E0B0E004C0880F55
:103AE000991FAA1FBB1FFA94D2F72EA13FA148A588
:103AF00059A5282B392B4A2B5B2B2EA33FA348A774
:103B000059A73CA13F5F3CA305C0F3944BA5F41615
:103B100008F49ECF5DA15F5F5DA3CE0101969AA3DD
:103B200089A38EA59FA5BE016F5F7F4F0E94AB1F2B
:103B3000882309F0F5CE8EA59FA50E94571EACA044
:103B40009BA1A90EADA1AA1A09F463C0C3016AA57D
:103B50000E94F01BC30165E772E00E947F09BB244D
:103B6000CEA0DFA0E8A4F9A4C228D328E428F52831
:103B7000C094D094E094F09428E0822E912C8C0E86
:103B80009D1E40C0D701C6010B2C04C0B695A79559
:103B9000979587950A94D2F780FF2DC0EF8DF8A1F5
:103BA00080819181892B9281892B9381892B9481AA
:103BB000892B9581892B9681892B9781892BD9F027
:103BC000C3016BE771E00E941E0BAF8DB8A1FE012F
:103BD000709603C08D9180833197E815F905D1F770
:103BE00009851A852B853C854D855E856F8578898D
:103BF000C3010E94A11BB3942F8D38A1285F3F4FB2
:103C000038A32F8F3BA5B31608F4BCCFC3010E9485
:103C1000AA096114710481F1C3016AA50E94F01B15
:103C2000C3016DE672E00E947F09C3016DA14AE005
:103C300050E00E949B0AC30161E672E00E947F0986
:103C4000C3016BA14AE050E00E949B0AC30168E5F2
:103C500072E00E947F09C3016CA14AE050E00E941B
:103C60009B0AC3016EE472E00E947F09C3016A2DC2
:103C70004AE050E00E94AD0AB101C201E1960FB6E0
:103C8000F894DEBF0FBECDBFCF91DF911F910F9192
:103C9000FF90EF90DF90CF90BF90AF909F908F906C
:103CA0007F906F905F904F903F902F900895FC0110
:103CB00013861586148687E090E012863197009768
:103CC00011F00197FACF0895DC0180E00BC0E82FD6
:103CD000F0E08D9190E0E827F927E357FD4FE4915C
:103CE00061508E2F662399F70895DF92EF92FF922D
:103CF0000F931F93FC01E08001811281F894F80179
:103D00008281DE2CD0948D21828381818E298183D2
:103D100083E090E00E94ED06F80181818D2181838E
:103D20008AE090E00E94ED06F8010081789485E336
:103D300090E00E94ED0680E010E0FF240E211F219C
:103D4000012B09F081E01F910F91FF90EF90DF9020
:103D50000895EF92FF920F931F93CF93DF937C010F
:103D600001E010E0C0E0D0E0C7010E94751E8111A3
:103D7000102B000F2196C830D105B1F7812FDF91AC
:103D8000CF911F910F91FF90EF9008951F93CF93C4
:103D9000DF93FC011081C181D281912F909560FF4A
:103DA00012C0F8948A8189238A838981812B89832F
:103DB0008AE090E00E94ED068A81812B8A837894C4
:103DC00087E390E011C0F8948A8189238A838981EE
:103DD000812B898381E490E00E94ED068A81812B0A
:103DE0008A83789485E090E00E94ED06DF91CF9180
:103DF0001F910895CF92DF92EF92FF920F931F933E
:103E0000CF93DF938C01E42EFF24F394C0E0D0E045
:103E1000C62EDD2460E08F2D90E08C219D21892B22
:103E200009F061E0C8010E94C61EFF0C2196C8304F
:103E3000D10581F7EE20A9F4F894D8011196ED91FF
:103E4000FC91129791818C91809598239183119682
:103E5000ED91FC91129792818C9180959823928399
:103E60007894DF91CF911F910F91FF90EF90DF90A9
:103E7000CF9008956CEC40E00E94FA1E0895EF92F6
:103E8000FF920F931F93CF93DF938C017B0165E526
:103E900040E00E94FA1EC0E0D0E0F701EC0FFD1FE9
:103EA000C801608140E00E94FA1E2196C830D10509
:103EB000A1F7DF91CF911F910F91FF90EF9008959F
:103EC000DF92EF92FF920F931F93CF93DF93FC014A
:103ED0000081C181D281F8948981D02ED0948D2126
:103EE000898378941DE7E02EFF24115059F182E078
:103EF00090E00E94ED06888190E08E219F21892B21
:103F0000A1F3F8948A818D218A838981802B89830A
:103F1000789484EF91E00E94ED06F89489818D21D8
:103F2000898380E590E00E94ED06888110E090E0B2
:103F3000E822F922EF2809F411E0789484EA91E06C
:103F40000E94ED06812FDF91CF911F910F91FF907D
:103F5000EF90DF900895AF92BF92DF92EF92FF92C1
:103F60000F931F93CF93DF93EC015B018D85882323
:103F700009F061C0CE010E94601F882329F41B86CE
:103F80001D861C8690E06BC0CE0160EF40E00E9471
:103F9000FA1E01E0DD24EE24FF24F394CE010E94FA
:103FA000751E182FCE010E94751E113019F4813034
:103FB000E1F439C0181709F58B85081770F460E033
:103FC000FE01EE0DF11D838190E02F2D30E0822364
:103FD0009323181619064CF003C060E0081729F067
:103FE000093008F04CC00C874AC0FE01EE0DF11DEF
:103FF00083818F29838361E009C0612FFE01EE0D6B
:10400000F11D9F2D9095838189238383CE010E948A
:10401000C61E0F5FFF0C19F4E394FF24F39487E0AE
:104020008E1508F0BBCF013430F0DB86DD2011F5B2
:1040300081E08D871FC01B861D861C8690E0DE01F7
:1040400020E030E0F501E20FF31F13968C911397F7
:1040500080832F5F3F4F11962830310599F7892FC4
:10406000DF91CF911F910F91FF90EF90DF90BF9064
:10407000AF9008958B818823F1F291E0E0CFD02EAC
:10408000BDCFFF920F931F938C01F62E862F60E019
:104090000E94FD228F2D90E0FC01E154FC4FE49141
:1040A000D801EC9385559C4FFC016491E62FF0E01C
:1040B000EE0FFF1FEF55FC4F8591949112969C9344
:1040C0008E9311971B961C921B971D961C921D9701
:1040D0001C961C92F80187E090E0128631970097B9
:1040E00011F00197FACF1F910F91FF9008958F92D1
:1040F0009F92AF92BF92CF92DF92EF92FF920F9377
:104100001F93CF93DF937B018C01EA012CE330E016
:1041100040E050E00E9401266883C801B7012CE30B
:1041200030E040E050E00E940126122F032FF42ED1
:10413000E52E622F732F842F952F2CE330E040E083
:1041400050E00E9401266983612F702F8F2D9E2DD4
:104150002CE330E040E050E00E940126122F032FB4
:10416000F42EE52E622F732F842F952F28E130E057
:1041700040E050E00E9401266A83612F702F8F2D4E
:104180009E2D28E130E040E050E00E9401267901B8
:104190008A01C801B7016C5F7F4F8F4F9F4F27E0A7
:1041A00030E040E050E00E9401266F5F6B8320E02A
:1041B000AA24BB24650101C02F5F822E9924F4013B
:1041C000EE54F84FCF0183709070892B99F4CF0192
:1041D00064E670E00E94EE25892B39F4CF0160E996
:1041E00071E00E94EE25892B29F48EE691E0A0E093
:1041F000B0E004C08DE691E0A0E0B0E0A80EB91EEA
:10420000CA1EDB1EC501A0E0B0E0E816F9060A07E9
:104210001B0790F62E83F401EE54F84F83E0882EAE
:10422000912C8E229F228114910499F4CF0164E68F
:1042300070E00E94EE25892B39F4CF0160E971E02E
:104240000E94EE25892B29F48EE691E0A0E0B0E0F3
:1042500004C08DE691E0A0E0B0E0A81AB90ACA0A4D
:10426000DB0A980187010A191B092C093D09CF01B6
:1042700064E670E00E94EE257C01CF0160E971E008
:104280000E94EE25AC01EAE8F3E060E0613051F411
:104290008114910449F4E114F10441F441155105EC
:1042A00029F002C0808103C08CE101C08DE190E063
:1042B000A0E0B0E0081719072A073B0740F0081BE9
:1042C000190B2A0B3B0B6F5F31966C30F9F66F5F61
:1042D0006D83802F8F5F8C83DF91CF911F910F9122
:1042E000FF90EF90DF90CF90BF90AF909F908F9016
:1042F0000895EF92FF920F931F937B018C018091A1
:10430000210690912206A0912306B0912406E8167A
:10431000F9060A071B0771F0C801B70146E156E02C
:104320000E947720E0922106F09222060093230655
:10433000109324061F910F91FF90EF9008958091A4
:104340001506089560930D0670930E0680930F0670
:104350009093100620914603309147034091480303
:1043600050914903260F371F481F591F20931106EC
:1043700030931206409313065093140682E0809304
:1043800015060E94860660931D0670931E06809394
:104390001F06909320060895EF92FF920F931F93AC
:1043A0001CC02F5F3F4F4F4F5F4F20930D06309340
:1043B0000E0640930F065093100688EE93E0A0E09F
:1043C000B0E0E80EF91E0A1F1B1FE0921D06F092D6
:1043D0001E0600931F06109320060E948606E0909A
:1043E0001D06F0901E0600911F06109120066E1902
:1043F0007F09800B910B20910D0630910E064091A4
:104400000F0650911006685E73408040904048F659
:104410008091110690911206A0911306B091140696
:10442000281739074A075B07B0F0E0910B06F091B7
:104430000C06309781F0099561157105810591058C
:1044400019F00E94A22107C090E080911506811109
:1044500091E09093150660910D0670910E06809183
:104460000F06909110061F910F91FF90EF90089505
:104470000E94CC210E9479218091170690E0089536
:104480000E94CC210E9479218091180690E0089525
:10449000823000F5E82FF0E0EE0FFF1FEB5DF94FE3
:1044A00071836083882319F08130A1F408C0809162
:1044B00069008C7F842B80936900E89A089580912D
:1044C0006900440F551F440F551F837F842B809331
:1044D0006900E99A0895823080F4882319F08130C8
:1044E00021F402C0E89801C0E998E82FF0E0EE0F4F
:1044F000FF1FEB5DF94F1182108208951F920F92FA
:104500000FB60F9211242F933F934F935F936F93A6
:104510007F938F939F93AF93BF93EF93FF9380917C
:10452000250690912606892B29F0E0912506F09129
:1045300026060995FF91EF91BF91AF919F918F91C1
:104540007F916F915F914F913F912F910F900FBE8F
:104550000F901F9018951F920F920FB60F92112473
:104560002F933F934F935F936F937F938F939F937B
:10457000AF93BF93EF93FF93809127069091280606
:10458000892B29F0E0912706F09128060995FF91E3
:10459000EF91BF91AF919F918F917F916F915F91BB
:1045A0004F913F912F910F900FBE0F901F90189534
:1045B00080934A030895982F8E3008F09E5097708C
:1045C00080914A038295880F880F807C892B809385
:1045D0007C0080917A00806480937A0080917A00D8
:1045E00086FDFCCF2091780040917900942F80E0E7
:1045F00030E0282B392BC9010895CF93DF93482F42
:1046000050E0CA0181549C4FFC01349145555C4FE8
:10461000FA018491882369F190E0880F991FFC01C9
:10462000E357FC4FA591B491FC01E956FC4FC591AD
:10463000D491662351F42FB7F8948C91932F9095D1
:1046400089238C93888189230BC0623061F42FB752
:10465000F8948C91932F909589238C938881832B48
:1046600088832FBF06C09FB7F8948C91832B8C93BF
:104670009FBFDF91CF910895482F50E0CA018D521E
:104680009C4FFC012491CA0181549C4FFC019491E0
:1046900045555C4FFA013491332309F440C022237D
:1046A00051F1233071F0243028F42130A1F0223070
:1046B00011F514C02630B1F02730C1F02430D9F400
:1046C00004C0809180008F7703C0809180008F7D2F
:1046D0008093800010C084B58F7702C084B58F7D31
:1046E00084BD09C08091B0008F7703C08091B00075
:1046F0008F7D8093B000E32FF0E0EE0FFF1FE956AF
:10470000FC4FA591B4912FB7F894662321F48C91B6
:104710009095892302C08C91892B8C932FBF08958B
:104720005058BB27AA270ED075C166D130F06BD187
:1047300020F031F49F3F11F41EF45BC10EF4E095BC
:10474000E7FB51C1E92F77D180F3BA1762077307EE
:104750008407950718F071F49EF58FC10EF4E0956B
:104760000B2EBA2FA02D0B01B90190010C01CA012B
:10477000A0011124FF27591B99F0593F50F4503ED6
:1047800068F11A16F040A22F232F342F4427585FC8
:10479000F3CF469537952795A795F0405395C9F7E0
:1047A0007EF41F16BA0B620B730B840BBAF0915098
:1047B000A1F0FF0FBB1F661F771F881FC2F70EC037
:1047C000BA0F621F731F841F48F48795779567950A
:1047D000B795F7959E3F08F0B3CF9395880F08F0F3
:1047E0009927EE0F979587950895D9D008F481E021
:1047F00008950CD00FC107D140F0FED030F021F465
:104800005F3F19F0F0C0511139C1F3C014D198F3D2
:104810009923C9F35523B1F3951B550BBB27AA2741
:1048200062177307840738F09F5F5F4F220F331FB3
:10483000441FAA1FA9F333D00E2E3AF0E0E830D07F
:1048400091505040E695001CCAF729D0FE2F27D082
:10485000660F771F881FBB1F261737074807AB0750
:10486000B0E809F0BB0B802DBF01FF2793585F4FC5
:104870002AF09E3F510568F0B6C000C15F3FECF3DF
:10488000983EDCF3869577956795B795F7959F5F8A
:10489000C9F7880F911D9695879597F90895E1E0DE
:1048A000660F771F881FBB1F621773078407BA073D
:1048B00020F0621B730B840BBA0BEE1F88F7E09598
:1048C000089504D06894B111D9C00895BCD088F07F
:1048D0009F5790F0B92F9927B751A0F0D1F0660FEC
:1048E000771F881F991F1AF0BA95C9F712C0B13007
:1048F00081F0C3D0B1E00895C0C0672F782F88271A
:10490000B85F39F0B93FCCF3869577956795B39545
:10491000D9F73EF490958095709561957F4F8F4FB4
:104920009F4F0895E89409C097FB3EF490958095B9
:10493000709561957F4F8F4F9F4F9923A9F0F92F65
:1049400096E9BB279395F695879577956795B795E3
:10495000F111F8CFFAF4BB0F11F460FF1BC06F5FC9
:104960007F4F8F4F9F4F16C0882311F096E911C0DB
:10497000772321F09EE8872F762F05C0662371F0FC
:1049800096E8862F70E060E02AF09A95660F771F10
:10499000881FDAF7880F9695879597F90895990FEC
:1049A0000008550FAA0BE0E8FEEF16161706E807F9
:1049B000F907C0F012161306E407F50798F0621B1A
:1049C000730B840B950B39F40A2661F0232B242BEF
:1049D000252B21F408950A2609F4A140A6958FEF0E
:1049E000811D811D089597F99F6780E870E060E060
:1049F00008959FEF80EC089500240A941616170678
:104A000018060906089500240A94121613061406BF
:104A100005060895092E0394000C11F4882352F022
:104A2000BB0F40F4BF2B11F460FF04C06F5F7F4FDA
:104A30008F4F9F4F089557FD9058440F551F59F0C1
:104A40005F3F71F04795880F97FB991F61F09F3F7B
:104A500079F087950895121613061406551FF2CFA4
:104A60004695F1DF08C0161617061806991FF1CFF4
:104A700086957105610508940895E894BB2766271B
:104A80007727CB0197F908958ADF08F48FEF08950F
:104A90000BD0C0CFB1DF28F0B6DF18F0952309F0B6
:104AA000A2CFA7CF1124EACFC6DFA0F3959FD1F301
:104AB000950F50E0551F629FF001729FBB27F00DCC
:104AC000B11D639FAA27F00DB11DAA1F649F662721
:104AD000B00DA11D661F829F2227B00DA11D621F70
:104AE000739FB00DA11D621F839FA00D611D221F2A
:104AF000749F3327A00D611D231F849F600D211D0E
:104B0000822F762F6A2F11249F5750408AF0E1F0B0
:104B100088234AF0EE0FFF1FBB1F661F771F881FF9
:104B200091505040A9F79E3F510570F05CCFA6CF41
:104B30005F3FECF3983EDCF3869577956795B795E4
:104B4000F795E7959F5FC1F7FE2B880F911D96950E
:104B5000879597F9089523DF880B990B0895629F35
:104B6000D001739FF001829FE00DF11D649FE00D65
:104B7000F11D929FF00D839FF00D749FF00D659FC6
:104B8000F00D9927729FB00DE11DF91F639FB00DC5
:104B9000E11DF91FBD01CF0111240895991B79E092
:104BA00004C0991F961708F0961B881F7A95C9F7BD
:104BB00080950895AA1BBB1B51E107C0AA1FBB1F0C
:104BC000A617B70710F0A61BB70B881F991F5A9599
:104BD000A9F780959095BC01CD01089597FB092E0A
:104BE00007260AD077FD04D0E5DF06D000201AF4AE
:104BF000709561957F4F0895F6F7909581959F4F39
:104C00000895A1E21A2EAA1BBB1BFD010DC0AA1F0D
:104C1000BB1FEE1FFF1FA217B307E407F50720F025
:104C2000A21BB30BE40BF50B661F771F881F991FA0
:104C30001A9469F760957095809590959B01AC01E9
:104C4000BD01CF010895EE0FFF1F0590F491E02DF7
:104C500009942F923F924F925F926F927F928F9220
:104C60009F92AF92BF92CF92DF92EF92FF920F93FB
:104C70001F93CF93DF93CDB7DEB7CA1BDB0B0FB605
:104C8000F894DEBF0FBECDBF09942A8839884888C2
:104C90005F846E847D848C849B84AA84B984C88458
:104CA000DF80EE80FD800C811B81AA81B981CE0F4F
:104CB000D11D0FB6F894DEBF0FBECDBFED01089534
:044CC000F894FFCF96
:104CC400467265652052414D3A200054696D653A3B
:104CD400200054656D702073656E736F72733A2093
:104CE4000046200052656C6179733A200054696D66
:104CF40065206E6F7420736574003A20006E616ED7
:104D040000696E66006F7666002E003C6C6F7374EB
:104D14002000206C696E65733E004E545054696DDA
:104D24006520636F6E66696775726564003078002C
:104D34004F575B005D3A00200020002F06000076EC
:104D44000467756573740000006C6976696E6700AA
:104D540000626564726F6F6D00706F6C617269736D
:104D64000000000000000000005400000032016454
:104D7400054E00000031E8AB052200000031E50FCC
:104D840005C500000031FA6E0500000000000000B7
:104D94000070616E656C0000000000687472206928
:104DA4006E000000006264726D20746F7000006C0D
:104DB40069766720746F700000677565737420628C
:104DC4006F74006661756320636F6C64006661755F
:104DD4006320686F7400006C69766720626F7400EA
:104DE40000636F6C6420696E000000666175632067
:104DF400726574000066617563206F7574000066E7
:104E0400617563206320696E00677565737420742F
:104E14006F70006264726D20746F70000000000097
:104E2400000000000000000000000000000000007E
:104E3400000000000000000000000000000000006E
:104E4400000000000000000000000000000000005E
:104E5400000000000000000000CC0000013191D0EF
:104E64002828000001319C9C28DB00000131A17A34
:104E7400287200000131938E28430000013197DE2F
:104E840028D4000001318D2128FC0000013199A9AA
:104E940028A800000131994528C70000013187D5B1
:104EA400281400000131A25B285D00000131935BEE
:104EB40028D400000131A4FB28B9000001319E1759
:104EC4002843000001318F9F2800000000000000EB
:104ED40000000000000000000000000000000000CE
:104EE40000000000000000000000000000000000BE
:104EF40000000000000000000096030000710400A0
:104F040000022C0100000100000000AD0855094317
:104F140008740854089D08340256000000004B1120
:104F2400DC1000000000811655094E152315FCFF06
:104F340000004A15221500000000B016C416070030
:104F44000300010000001F1C1F1E1F1E1F1F1E1F29
:024F54001E1F1E
:00000001FF
