:100000000C94D5010C9450200C947D200C94050286
:100010000C9405020C9405020C9405020C94050244
:100020000C9405020C9405020C9405020C94050234
:100030000C9405020C9405020C9405020C94050224
:100040000C948B050C9405020C9466070C94B40771
:100050000C9405020C9405020C9405020C94050204
:100060000C9405020C9405022A2A2A2A2A205255A9
:100070004E4E494E473A2074656D705F6E6F6465F1
:100080002E696E6F002A2A2A2A2A20534554555079
:100090003A2074656D705F6E6F64652E696E6F00D7
:1000A0002A2A2A2A2A2053455455503A2074656D2D
:1000B000705F6E6F64652E696E6F00000000002433
:1000C0000027002A0000000000250028002B000067
:1000D0000000002300260029000404040404040492
:1000E00004020202020202030303030303010204E7
:1000F00008102040800102040810200102040810AA
:1001000020000000070002010000030406000000B8
:100110000000000000202031396B62707300202045
:100120006C6F7720545820706F77657200206D6F68
:1001300064653D002067726F75705F69643D0043C0
:100140006F6E666967204E65743A206E6F64655FF6
:1001500069643D00436F6E6669673A2000206E6FE8
:100160007420666F756E6420696E20636F6E6669B9
:10017000675F7265616400436F6E6669673A206D00
:100180006F64756C652000206E6F7420666F756EED
:100190006420696E20636F6E6669675F7772697449
:1001A0006500436F6E6669673A206D6F64756C65B4
:1001B00020002020435243206D61746368657321E1
:1001C00000202043524320646F6573206E6F7420BB
:1001D0006D61746368210020627974657300206D1D
:1001E000617829002076732E200020697320746FB7
:1001F0006F206C61726765202800434F4E46494767
:100200003A2074686520636F6E66696720666F7256
:10021000206D6F64756C6520230020636F6E6669C6
:1002200067732000436F6E6669673A200020214E95
:100230004F4E45212000207266313200206C6364ED
:10024000002073657269616C00436F6E6669672098
:100250004C6F673A002C206D697373656420002C25
:1002600020616464656420002C2065787065637487
:100270006564200020666F756E642000206D6973D0
:1002800073696E672000206E6577200020666F75A9
:100290006E642000005EBCE2613FDD83C29C7E2074
:1002A000A3FD1F419DC3217FFCA2401E5F01E3BD52
:1002B0003E6082DC237D9FC1421CFEA0E1BF5D0346
:1002C00080DE3C62BEE0025CDF81633D7C22C09E3A
:1002D0001D43A1FF4618FAA427799BC584DA386626
:1002E000E5BB5907DB856739BAE406581947A5FB12
:1002F0007826C49A653BD987045AB8E6A7F91B4506
:10030000C6987A24F8A6441A99C7257B3A6486D8F9
:100310005B05E7B98CD2306EEDB3510F4E10F2ACE5
:100320002F7193CD114FADF3702ECC92D38D6F31D1
:10033000B2EC0E50AFF1134DCE90722C6D33D18FC5
:100340000C52B0EE326C8ED0530DEFB1F0AE4C12B9
:1003500091CF2D73CA947628ABF517490856B4EAA5
:100360006937D58B5709EBB536688AD495CB297791
:10037000F4AA4816E9B7550B88D6346A2B7597C985
:100380004A14F6A8742AC896154BA9F7B6E80A5479
:10039000D7896B3554696D6520696E697469616CC4
:1003A000697A656400000104200911241FBECFEFA3
:1003B000D8E0DEBFCDBF80910001809368048091BA
:1003C00001018093690411E0A4E0B1E0E2E4F7E404
:1003D00002C005900D92A83CB107D9F714E0A8EC33
:1003E000B1E001C01D92A836B107E1F713E0CAEAF7
:1003F000D3E004C02297FE010E946423C63AD107CD
:10040000C9F70E9476090C949F230C940000EF9288
:10041000FF920F93DF93CF93CDB7DEB760970FB600
:10042000F894DEBF0FBECDBFA82F002309F461C032
:100430007E010894E11CF11C88E0F70111928A9575
:10044000E9F729833A834B835C836D837E83AF8393
:10045000988780E2801BE82FFF27E7FDF0954D810C
:100460005E816F817885181684F01D861E861F8632
:10047000188A882799278E1B9F0B04C0769567954D
:10048000579547958A95D2F728C0202F332727FD07
:100490003095DB01CA01022E04C0B695A795979549
:1004A00087950A94D2F78D879E87AF87B88B04C053
:1004B000440F551F661F771FEA95D2F789819A81ED
:1004C000AB81BC8104C0B695A795979587952A9571
:1004D000D2F7482B592B6A2B7B2B49875A876B877E
:1004E0007C8729853A854B855C856D857E85AF85C2
:1004F00098898A2F60960FB6F894DEBF0FBECDBFE5
:10050000CF91DF910F91FF90EF9008950F931F937C
:10051000CF93DF93689F8001699F100D789F100D26
:100520001124C8010E94A202EC01009729F060E0AA
:1005300070E0A8010E94AD03CE01DF91CF911F9121
:100540000F910895CF93DF93BC018230910510F491
:1005500062E070E0A0916604B0916704ED0140E0B4
:1005600050E0E0E0F0E021C088819981861797078C
:1005700069F48A819B81309719F09383828304C048
:100580009093670480936604FE0134C0681779076E
:1005900038F44115510519F08417950708F4AC019A
:1005A000FE018A819B819C01E9012097E9F64115B2
:1005B0005105A9F1CA01861B970B049708F4BA01EB
:1005C000E0E0F0E02AC08D919C9111978417950787
:1005D000F9F46417750781F412968D919C91139725
:1005E000309719F09383828304C0909367048093BB
:1005F0006604FD0132964CC0CA01861B970BFD01B3
:10060000E80FF91F6193719302978D939C9340C0FB
:10061000FD01828193819C01D9011097A1F68091FF
:10062000640490916504892B41F480916C01909150
:100630006D01909365048093640440916E01509124
:100640006F014115510541F44DB75EB780916A01C4
:1006500090916B01481B590B209164043091650403
:10066000CA01821B930B8617970780F0AB014E5F80
:100670005F4F8417950750F0420F531F5093650446
:1006800040936404F9016193719302C0E0E0F0E0EB
:10069000CF01DF91CF910895CF93DF93009709F4B5
:1006A00050C0EC0122971B821A82A0916604B0917F
:1006B0006704109709F140E050E0AC17BD0708F15E
:1006C000BB83AA83FE0121913191E20FF31FAE1784
:1006D000BF0779F48D919C911197280F391F2E5FD8
:1006E0003F4F3983288312968D919C9113979B835A
:1006F0008A834115510571F4D0936704C093660451
:1007000020C012968D919C911397AD01009711F026
:10071000DC01D3CFFA01D383C28321913191E20F5F
:10072000F31FCE17DF0769F488819981280F391FDD
:100730002E5F3F4FFA01318320838A819B8193830F
:100740008283DF91CF910895FB01DC0102C001900B
:100750000D9241505040D8F70895DC0101C06D93CF
:1007600041505040E0F70895A0E0B0E0EAEBF3E03C
:100770000C9472237C01EB018A01690109C0CE014E
:100780002196F6010995F70181937F0101501040F0
:1007900001151105A1F7CDB7DEB7E8E00C948E2363
:1007A000A0E0B0E0E6EDF3E00C947223EC017B01F5
:1007B0008A01690109C0CE012196F70161917F018B
:1007C000F60109950150104001151105A1F7CDB7AB
:1007D000DEB7E8E00C948E23DF92EF92FF920F9346
:1007E0001F93D72E7A018C01FA010995C801019651
:1007F0006D2DF70109951F910F91FF90EF90DF90FC
:1008000008951092CA018BEE91E065E04BEC51E047
:1008100024E00E940C1981E08093060287E092E0B8
:100820006DE144ED0E94790F82EE92E00E940D1E70
:1008300087EE92E00E9423148091700190917101E3
:10084000009719F480E090E001C004969093750140
:10085000809374010895BF92CF92DF92EF92FF923E
:100860000F931F93DF93CF9300D000D0CDB7DEB7A7
:1008700018C01091EF0380E090E060E00E948B12BE
:10088000809170019091710164E071E00E94340BDD
:100890008091700190917101612F4AE050E00E94B7
:1008A000C30A87E092E00E94CF11882311F78BEEF4
:1008B00091E065E00E940C17882309F4ACC0809198
:1008C0007001909171016BE071E00E94340B009116
:1008D0007001109171010E941220BC01C8014AE010
:1008E00050E00E94210B80917001909171016AE3A8
:1008F0000E94D50900917001109171010E940A2097
:10090000BC01C8014AE050E00E94210B80917001B7
:10091000909171010E94DD096E010894C11CD11CE7
:10092000BB248BEE91E06B2D0E94B515882309F452
:1009300055C08BEE91E06B2D0E9496157B018C01CA
:1009400020E030E040E05FE30E94D0200E94A02140
:10095000F601608380910602882311F482E101C0D0
:100960008D5F60E00E94BE0680910602882311F42C
:1009700083E101C0835F60E00E94BE068091700148
:100980009091710162E171E00E94340B80917001DD
:10099000909171016B2D4AE050E00E94B10A809164
:1009A00070019091710168E171E00E94340B8091B7
:1009B000700190917101B801A70122E030E00E941E
:1009C0001B0C80910602882311F483E101C0835F30
:1009D0000894C11CD11C61E00E94BE06B394F4E0EF
:1009E000BF1609F09ECF8091350390913603019692
:1009F0009093360380933503059769F487E092E07E
:100A00000E94CF1168EC70E080E090E00E94E10568
:100A100081E00E943D0F0F900F900F900F90CF91AB
:100A2000DF911F910F91FF90EF90DF90CF90BF90DB
:100A3000089529E288E190E00FB6F894A895809394
:100A400060000FBE209360008DE090EFADEABBE048
:100A50008093000190930101A0930201B0930301E0
:100A600088EC93E040E051EE60E070E00E94EF0718
:100A700088EC93E060EA70E00E94FD0982E791E073
:100A80000E94CC12809170019091710165E870E034
:100A90000E94FD0980910602882311F482E101C0C1
:100AA0008D5F61E00E947F0680910602882311F429
:100AB00082E101C08D5F61E00E94BE068091060266
:100AC000882311F483E101C0835F61E00E947F0607
:100AD00080910602882311F483E101C0835F61E005
:100AE0000E94BE06209170013091710185E06BEC8F
:100AF00071E044E00E949E1988EC91E065E070E0AE
:100B00000E94410C809170019091710168E670E043
:100B10000E94FD0908951F920F920FB60F921124A3
:100B20002F933F938F939F93AF93BF9380913B03FA
:100B300090913C03A0913D03B0913E0330913F035F
:100B40000196A11DB11D232F2D5F2D3720F02D57AC
:100B50000196A11DB11D20933F0380933B03909309
:100B60003C03A0933D03B0933E03809137039091E3
:100B70003803A0913903B0913A030196A11DB11D2C
:100B80008093370390933803A0933903B0933A03CB
:100B9000BF91AF919F918F913F912F910F900FBE79
:100BA0000F901F9018958FB7F89420913B033091C8
:100BB0003C0340913D0350913E038FBFB901CA01F0
:100BC00008959B01AC017FB7F89480913703909111
:100BD0003803A0913903B0913A0366B5A89B05C0CC
:100BE0006F3F19F00196A11DB11D7FBFBA2FA92F2C
:100BF000982F8827860F911DA11DB11D62E0880FD7
:100C0000991FAA1FBB1F6A95D1F7BC012DC0FFB762
:100C1000F8948091370390913803A0913903B091F3
:100C20003A03E6B5A89B05C0EF3F19F00196A11D58
:100C3000B11DFFBFBA2FA92F982F88278E0F911DA6
:100C4000A11DB11DE2E0880F991FAA1FBB1FEA95E5
:100C5000D1F7861B970B885E9340C8F22150304035
:100C60004040504068517C4F2115310541055105E8
:100C700071F60895019739F0880F991F880F991F11
:100C800002970197F1F70895789484B5826084BD46
:100C900084B5816084BD85B5826085BD85B5816080
:100CA00085BDEEE6F0E0808181608083E1E8F0E0E0
:100CB0001082808182608083808181608083E0E80F
:100CC000F0E0808181608083E1EBF0E080818460EE
:100CD0008083E0EBF0E0808181608083EAE7F0E0F0
:100CE0008081846080838081826080838081816054
:100CF00080838081806880831092C1000895CF93A3
:100D0000DF93482F50E0CA0183519F4FFC0134917B
:100D100047525F4FFA018491882369F190E0880F70
:100D2000991FFC01E554FF4FA591B491FC01EB53D1
:100D3000FF4FC591D491662351F42FB7F8948C914D
:100D4000932F909589238C93888189230BC06230DF
:100D500061F42FB7F8948C91932F909589238C93FD
:100D60008881832B88832FBF06C09FB7F8948C910E
:100D7000832B8C939FBFDF91CF910895482F50E034
:100D8000CA018F5F9E4FFC012491CA0183519F4F7E
:100D9000FC01949147525F4FFA013491332309F4D7
:100DA00040C0222351F1233071F0243028F4213047
:100DB000A1F0223011F514C02630B1F02730C1F077
:100DC0002430D9F404C0809180008F7703C08091D3
:100DD00080008F7D8093800010C084B58F7702C023
:100DE00084B58F7D84BD09C08091B0008F7703C02A
:100DF0008091B0008F7D8093B000E32FF0E0EE0F84
:100E0000FF1FEB53FF4FA591B4912FB7F8946623C2
:100E100021F48C919095892302C08C91892B8C931D
:100E20002FBF0895682F70E0CB018F5F9E4FFC01AC
:100E30002491CB0183519F4FFC01449167527F4F16
:100E4000FB019491992319F420E030E03CC0222367
:100E500051F1233071F0243028F42130A1F02230F8
:100E600011F514C02630B1F02730C1F02430D9F488
:100E700004C0809180008F7703C0809180008F7DB7
:100E80008093800010C084B58F7702C084B58F7DB9
:100E900084BD09C08091B0008F7703C08091B000FD
:100EA0008F7D8093B000892F90E0880F991F815328
:100EB0009F4FFC01A591B4918C9120E030E08423F8
:100EC00011F021E030E0C901089508951F920F92BA
:100ED0000FB60F9211242F933F934F938F939F93AD
:100EE000EF93FF938091C00082FD1DC04091C6002A
:100EF00020918003309181032F5F3F4F2F7330701B
:100F000080918203909183032817390771F0E09153
:100F10008003F0918103E05CFC4F408330938103B8
:100F20002093800302C08091C600FF91EF919F91B2
:100F30008F914F913F912F910F900FBE0F901F9067
:100F40001895E091D403F091D503E05CFF4F8191B7
:100F5000919120813181821B930B8F739070892B2B
:100F600011F00E94650708951F920F920FB60F921D
:100F700011242F933F938F939F93EF93FF9320918F
:100F8000C4033091C5038091C6039091C70328170D
:100F9000390731F48091C1008F7D8093C10014C066
:100FA000E091C603F091C703EC57FC4F208180917C
:100FB000C6039091C70301968F7390709093C703F7
:100FC0008093C6032093C600FF91EF919F918F916C
:100FD0003F912F910F900FBE0F901F901895AF92D9
:100FE000BF92DF92EF92FF920F931F93CF93DF9305
:100FF000EC017A018B01DD24403081EE580780E05E
:10100000680780E0780711F0DD24D39491E0A92EE1
:10101000B12CEC89FD89DD2069F0C50108A002C072
:10102000880F991F0A94E2F7808360E079E08DE3EE
:1010300090E005C0108260E874E88EE190E0A801BD
:1010400097010E9440232150304040405040569527
:1010500047953795279580E12030380720F0DD202F
:1010600011F0DD24D6CFE889F9893083EA89FB893C
:10107000208319A2EE89FF89408121E030E0C90177
:101080000C8C02C0880F991F0A94E2F7482B40830A
:10109000EE89FF894081C9010D8C02C0880F991F1C
:1010A0000A94E2F7482B4083EE89FF894081C90109
:1010B0000E8C02C0880F991F0A94E2F7482B4083D8
:1010C000EE89FF8980810F8C02C0220F331F0A94A2
:1010D000E2F7209528232083DF91CF911F910F9174
:1010E000FF90EF90DF90BF90AF900895DC011C96C9
:1010F000ED91FC911D97E05CFF4F21913191808132
:101100009181281B390B2F733070C9010895DC01C0
:101110001C96ED91FC911D97E05CFF4F2081318181
:10112000E054F040DF01AE5BBF4F8D919C91119771
:101130002817390719F42FEF3FEF07C08D919C91C5
:10114000E80FF91F8081282F30E0C9010895DC01E4
:101150001C96ED91FC911D97E05CFF4F2081318141
:10116000E054F040DF01AE5BBF4F8D919C91119731
:101170002817390719F42FEF3FEF10C08D919C917C
:101180001197E80FF91F20818D919C91119701967D
:101190008F73907011969C938E9330E0C9010895DF
:1011A000DC0191968C919197882339F05496ED91BA
:1011B000FC915597808186FFF9CF91961C920895F6
:1011C000CF93DF93EC01EE85FF85E05CFF4F20813C
:1011D0003181E054F0402F5F3F4F2F733070DF01BB
:1011E000AE5BBF4F8D919C91119728173907D1F3B2
:1011F000E05CFF4F80819181E054F040E80FF91FDF
:101200006083EE85FF85E05CFF4F31832083EE89AC
:10121000FF89208181E090E00F8C02C0880F991F28
:101220000A94E2F7282B208381E089A3EC89FD89C9
:1012300080818064808381E090E0DF91CF91089588
:101240001092CB031092CA0388EE93E0A0E0B0E0C6
:101250008093CC039093CD03A093CE03B093CF03A0
:1012600084E891E09093C9038093C80380E493E0FD
:101270009093D5038093D40384E893E09093D703AD
:101280008093D60385EC90E09093D9038093D803A4
:1012900084EC90E09093DB038093DA0380EC90E0A1
:1012A0009093DD038093DC0381EC90E09093DF0367
:1012B0008093DE0382EC90E09093E1038093E0035F
:1012C00086EC90E09093E3038093E20384E08093C4
:1012D000E40383E08093E50387E08093E60385E001
:1012E0008093E70381E08093E8030895CF93DF9331
:1012F0000E9444060E941905C1EAD7E00E942B040F
:101300002097E1F30E94A107F9CF0E94A20208955D
:10131000CF92DF92EF92FF920F931F93CF93DF93C1
:101320007C016B018A01C0E0D0E00FC0D6016D9155
:101330006D01D701ED91FC910190F081E02DC70185
:101340000995C80FD91F015010400115110571F7FB
:10135000CE01DF91CF911F910F91FF90EF90DF9021
:10136000CF900895EF92FF920F931F93CF93DF9347
:101370007C018B01C0E0D0E0F8010F5F1F4F64914A
:10138000662359F0D701ED91FC910190F081E02D99
:10139000C7010995C80FD91FEFCFCE01DF91CF91BB
:1013A0001F910F91FF90EF900895DC01ED91FC915A
:1013B0000190F081E02D09950895EF92FF920F932F
:1013C0001F938C01DC01ED91FC910190F081E02DE7
:1013D0006DE009957C01D801ED91FC910190F081BF
:1013E000E02DC8016AE009959C012E0D3F1DC90141
:1013F0001F910F91FF90EF900895EF92FF920F933E
:101400001F937C010E94B2098C01C7010E94DD0973
:101410009C01200F311FC9011F910F91FF90EF9088
:101420000895CF93DF93EC016115710519F420E065
:1014300030E00FC0DB010D900020E9F71197A61BEB
:10144000B70BE881F9810280F381E02DAD010995A8
:101450009C01C901DF91CF9108954F925F927F92D5
:101460008F929F92AF92BF92CF92DF92EF92FF92B4
:101470000F931F93DF93CF93CDB7DEB7A1970FB62E
:10148000F894DEBF0FBECDBF2C01742ECB012230ED
:1014900008F42AE019A231E2C32ED12CCC0EDD1EB5
:1014A000822E9924AA24BB24672D752FA5019401AF
:1014B0000E94402379018A01C801B701A501940166
:1014C0000E94EE22472D461B0894C108D1084A30DD
:1014D00010F4405D01C0495CF6014083E114F10461
:1014E0000105110521F07E2C5F2DC801DDCFC20161
:1014F000B6010E94110AA1960FB6F894DEBF0FBE86
:10150000CDBFCF91DF911F910F91FF90EF90DF90B2
:10151000CF90BF90AF909F908F907F905F904F90B3
:101520000895DC012115310541F4ED91FC91019004
:10153000F081E02D642F099508950E942D0A0895E9
:10154000EF92FF920F931F939A017B0100E010E04E
:10155000B801A7010E94910A1F910F91FF90EF908F
:101560000895EF92FF920F931F939A01E62EFF24A6
:1015700000E010E0B801A7010E94910A1F910F91AD
:10158000FF90EF900895CF92DF92EF92FF920F932A
:101590001F936C01E62E9A01FF2400E010E0B801D1
:1015A000A7010E94910A8C01C6010E94DD09080F63
:1015B000191FC8011F910F91FF90EF90DF90CF90FE
:1015C0000895CF92DF92EF92FF920F931F93CF93E4
:1015D000DF93EC016A017B012115310541F4E881BB
:1015E000F9810190F081E02D642F09951FC02A3008
:1015F0003105D1F477FF17C0E881F9810190F081BE
:10160000E02D6DE209958C0144275527BA014C194C
:101610005D096E097F09CE012AE00E942D0A98011A
:10162000280F391F04C02AE00E942D0A9C01C9011D
:10163000DF91CF911F910F91FF90EF90DF90CF90AE
:101640000895EF92FF920F931F937B019A01002759
:10165000F7FC0095102FB801A7010E94E10A1F9125
:101660000F91FF90EF9008950E94110A08957F92C4
:101670008F929F92AF92BF92CF92DF92EF92FF92A2
:101680000F931F93CF93DF934C017A018B01722E3E
:10169000CB01BA01A80197010E94EA22882321F018
:1016A000C4016AE171E021C0C0E0D0E057016801E7
:1016B000E894D7F8C601B5012FEF3FEF4FE75FE79A
:1016C0000E94EA22882351F4C601B5012FEF3FEFB3
:1016D0004FE75FE70E943421181614F0C1E0D0E014
:1016E000219739F0C4016EE171E00E94110AEC010A
:1016F00093C0C801B7012FEF3FEF4FE75FE40E94AF
:101700008322181654F0C801B7012FEF3FEF4FE7BF
:101710005FEC0E943421882324F4C40162E271E06A
:10172000E4CFC801B70120E030E040E050E00E9483
:10173000342187FD03C0C0E0D0E00EC0D401ED919C
:10174000FC910190F081E02DC4016DE20995EC015E
:1017500017FB109517F9109520E030E040E05FE3AB
:10176000DD240BC0CA01B90120E030E040E251E4C1
:101770000E9438219B01AC01D394D71498F3C8017F
:10178000B7010E94D0205B016C010E94A5217B0162
:101790008C01C401B801A7012AE030E00E94910A3F
:1017A000C80FD91F772039F0C40166E271E00E94AA
:1017B000110AC80FD91FC801B7010E94D1219B018E
:1017C000AC01C601B5010E94CF2024C020E030E06A
:1017D00040E251E40E9487227B018C010E94A021FB
:1017E0005B016C01CC24B7FCC094DC2CC401B601B5
:1017F000A5012AE030E00E94E10AC80FD91FC60106
:10180000B5010E94D3219B01AC01C801B7010E9420
:10181000CF207A947720D1F6CE01DF91CF911F911E
:101820000F91FF90EF90DF90CF90BF90AF909F907F
:101830008F907F900895EF92FF920F931F937C01FA
:101840000E94370B8C01C7010E94DD09080F191F88
:10185000C8011F910F91FF90EF900895EF92FF92B2
:101860000F931F937C010E94110A8C01C7010E94F3
:10187000DD09080F191FC8011F910F91FF90EF900C
:1018800008950F931F93CF93DF938C01EB0180E0BA
:101890006115710509F081E0F8018283882341F028
:1018A0000E94D3052197C60FD71FF801D183C083AB
:1018B000DF91CF911F910F910895EF92FF920F93B7
:1018C0001F93CF93DF93EC017B018A81882311F46E
:1018D00000E00FC0088119810E94D305C801861B52
:1018E000970B2AEE8136920710F400E006C0082F0D
:1018F0000195CE01B7010E94410C802FDF91CF915D
:101900001F910F91FF90EF900895782F8CB5816013
:101910008CBD65B121E030E040E050E000907A01FC
:1019200004C0220F331F441F551F0A94D2F7522FB1
:10193000822F8095862385B99EBD0DB407FEFDCF0D
:101940008EB57EBD0DB407FEFDCF4EB5382F20E01D
:1019500085B1582B55B98CB58E7F8CBD50E0422B8C
:10196000532BCA010895E8980E94850CE89A0895BF
:1019700080E090E00E94850C80913B04853009F066
:1019800054C080E090EB0E94850C282F80913F048A
:10199000882371F490913C04992351F080913F0485
:1019A000E82FF0E0E451FC4F90838F5F80933F0479
:1019B00080913F04E82FF0E0E451FC4F20838F5FDB
:1019C00080933F048091EA039091EB038227282FB4
:1019D00022952827022E269526952025022E26952B
:1019E00020252770082E892F269507942795902D5E
:1019F000822706942795902582279093EB03809366
:101A0000EA038091EE0320913F0490E0049630E0D9
:101A1000821793072CF080913F04873408F46DC03F
:101A20008DE092E80E94850C089580913B0487FF29
:101A30002EC0E091EE0380913B048F5F80933B04C6
:101A40008150ED5FE80FF0E0E451FC4FE0818091C0
:101A5000EA039091EB038E27282F22952827022E48
:101A6000269526952025022E269520252770082EBE
:101A7000892F269507942795902D822706942795E0
:101A8000902582279093EB038093EA0330C08091E6
:101A90003B048F5F80933B048150833019F1843085
:101AA0002CF4882399F0813009F516C0893019F09B
:101AB0008A30E1F402C0EDE21AC0E0913C0490915A
:101AC000EE038EEF891B80933B0411C08091EA03E3
:101AD0009091EB03E82F0BC08091EA039091EB0308
:101AE000E92F05C08DE092E80E94850CEAEA8E2F6E
:101AF00090E0805098440E94850C089580913B04AA
:101B0000853009F042C08091EE0320913F0490E0BF
:101B1000049630E08217930724F080913F048734C5
:101B2000A0F184E080933B048091EE03833430F095
:101B300081E090E09093EB038093EA038091ED03C2
:101B400086FF12C080913A04282F30E0C9018F71BE
:101B500090704F9749F08091ED0390E08227932792
:101B60008F719070892B89F48091EA039091EB0337
:101B7000892B09F052C0E0913704F0913804309776
:101B800009F44BC080E0099554C080913B04843037
:101B900011F080E0089580913904882351F08093FA
:101BA000EE031092ED038091ED038093EC0383E04C
:101BB00004C01092EE038091EE0380933F048FEFF8
:101BC0009FEF9093EB038093EA0320913C04222340
:101BD000D9F08227282F22952827022E2695269590
:101BE0002025022E269520252770082E892F269540
:101BF00007942795902D8227069427959025822774
:101C00009093EB038093EA0385E080933B048DED92
:101C100092E80E94850C80E008958FEF9FEFAFEF70
:101C2000BFEF8093330490933404A0933504B093B2
:101C3000360481E0089580913B04853099F48091C9
:101C40003F04882379F480E090E00E94B30C90FD7B
:101C500009C08DE092E80E94B30C84E080933B04BD
:101C600081E0089580E00895982F86FD05C0907E5C
:101C700080913A048F71980F9093ED03E0913704AF
:101C8000F0913804309711F081E009958FEF9FEFC4
:101C90009093EB038093EA038091EA039091EB0326
:101CA00020913C048227282F22952827022E269552
:101CB00026952025022E269520252770082E892F6F
:101CC000269507942795902D822706942795902591
:101CD00082279093EB038093EA0386E080933B0492
:101CE0008DE392E80E94850C08951F93182F40936E
:101CF000EE032FEE33E0C90150E00E94A403812FD0
:101D00000E94340E1F91089525B181E090E0A0E07B
:101D1000B0E000907A0104C0880F991FAA1FBB1F72
:101D20000A94D2F7282B25B924B1822B84B98AE0F2
:101D300061E00E94BE068AE061E00E947F068BE0BF
:101D400061E00E947F068CE060E00E947F068DE0EB
:101D500061E00E947F0680E58CBD8DB581608DBD00
:101D600082E060E00E947F0682E061E00E94BE06A1
:101D700008951F93162F80933A0440933C043093A8
:101D80003E0420933D040E94840E80E090E00E9477
:101D9000850C85E092E80E94850C80E098EB02C0FB
:101DA00080E090E00E94850C82E00E941207892B5F
:101DB000B9F3812F90E0F4E0880F991FFA95E1F7CD
:101DC000876C90680E94850C80913D0490913E0440
:101DD000805090460E94850C86E096EC0E94850C0F
:101DE00082EA94E90E94850C8CEA92EC0E94850CB0
:101DF00010913C04112341F083E89AEC0E94850C79
:101E0000812F90E09E6C06C08BE89AEC0E94850CB6
:101E10008DE29EEC0E94850C83E894EC0E94850C78
:101E200080E598E90E94850C87E79CEC0E94850C70
:101E300080E090EE0E94850C80E098EC0E94850C7A
:101E400089E490EC0E94850C84E080933B048091AF
:101E50003A0490E08F719070892B41F080E068EB3C
:101E60007CE040E050E00E941A2003C080E00E9425
:101E70003D2080913A041F9108951F93182F6AE026
:101E800070E080E090E00E94E105112329F480E0F9
:101E900090E0A0E0B0E004C08DE090EFADEABBE0E0
:101EA0008093000190930101A0930201B09303017C
:101EB00028E088E190E00FB6F894A8958093600040
:101EC0000FBE20936000FFCFFC01E053FF4F9081D5
:101ED000E05DF040933018F020E030E008C084E48A
:101EE000989F900111242A5F3F4F2E0F3F1FC90179
:101EF0000895FC0184E991E09183808390916804C6
:101F0000992371F080916904882351F08F3140F456
:101F1000E852FF4F9083E85DF0408093400407C093
:101F2000E852FF4F4083E85DF0406093400481E059
:101F300082838383E053FF4F108208950895FF92B8
:101F40000F931F938C01F62E88EC93E06FE371E002
:101F50000E94B20988EC93E0609140044AE050E0AE
:101F60000E94B10A88EC93E064E371E00E94B20938
:101F700008521F4F88EC93E0F80160814AE050E07E
:101F80000E94B10A88EC93E06DE271E00E94B20910
:101F900088EC93E06F2D4AE050E00E94B10A8091F6
:101FA000400463E0F801408120E436E00E94B90E6D
:101FB000F2E0FF1621F083E0F81611F50FC088EC6F
:101FC00093E06EE171E00E94FD0987E598E90E94C7
:101FD000B30C82EB94E90E94B30C16C088EC93E03A
:101FE00065E171E00E94FD0981E196EC0E94B30C6D
:101FF00081EC94E90E94B30C80E298E90E94B30C52
:1020000088EC93E00E94DD0983E00E94AA2085E02D
:1020100060E00E947F061F910F91FF900895AF929C
:10202000BF92CF92DF92EF92FF920F931F93DF93B5
:10203000CF93CDB7DEB76C01ADB6BEB68B017B01D9
:102040006115710579F088EC93E064E571E00E9418
:10205000B20988EC93E0F80160814AE050E00E9408
:10206000C30A0DC00F92EDB6FEB60894E11CF11C38
:1020700081E0EDB7FEB78183B7010E942012C6014F
:10208000F70160810E949F0F0FB6F894BEBE0FBE8D
:10209000ADBECF91DF911F910F91FF90EF90DF9038
:1020A000CF90BF90AF9008951F93CF93DF93EC0133
:1020B000C053DF4F8881C05DD0408823E1F11C818F
:1020C000CF52DF4F8881C15DD04090E007970CF080
:1020D0001F7DBE016A5F7F4F812F4D810E94750E6B
:1020E00015FD1BC0C053DF4F8881C05DD0408230DA
:1020F00050F0DE011496FE01E85BFF4F88E8019086
:102100000D928150E1F7FE01E053FF4F8081815035
:102110008083CF52DF4F18820EC0FE01EF52FF4F77
:1021200080818F5F80830E94D305CE52DF4F68830A
:1021300079838A839B83DF91CF911F910895EF92DA
:10214000FF920F931F93CF93DF93EC0186EDE82E60
:10215000F12CEC0EFD1EF70180818823A1F10E9475
:102160001B0E882381F18E0109521F4FF7018081D8
:10217000B80141E00E94750EF7011082F80110824B
:1021800029C0CF52DF4F8881C15DD040882399F0AC
:102190000E94D305CE52DF4F288139814A815B816D
:1021A000C25DD0402E5C3F4F4F4F5F4F62177307A9
:1021B0008407950778F00E941B0E882359F0CE0102
:1021C0000E94541007C0C053DF4F8881C05DD040CB
:1021D0008823B9F6DF91CF911F910F91FF90EF9077
:1021E0000895CF93DF93EC01DC01A053BF4F2C91F6
:1021F000233058F530E084E490E0289FF001299FD7
:10220000F00D389FF00D1124EC0FFD1F65838C91AC
:1022100090E0FC0154E0EE0FFF1F5A95E1F7E80F44
:10222000F91F3196EE0FFF1FEE0FFF1FEC0FFD1F82
:1022300040838C918F5F8C93813039F40E941B0E08
:10224000882319F0CE010E945410DF91CF91089598
:102250009C01411140E280914004482BC9010E9439
:10226000F11008950F931F938C0185E00E94AD201B
:1022700006521F4F8C52914095958795959587955D
:10228000F80180831F910F910895CF93DF93EC01A4
:102290000E947E0D882309F47BC08091EA0390910F
:1022A000EB03892B09F070C08091ED0387FD1FC0FF
:1022B000CE010E9432118091ED0385FF13C09091F1
:1022C000ED039F7180914004981711F4892F02C08B
:1022D000892F8064CA52DF4F806888832496888162
:1022E000239788838091EF038091EF0355C08091FD
:1022F000ED0385FD44C0CE010E9432112091ED0313
:1023000030E02F7130708091400490E02817390739
:1023100009F03EC0C053DF4F8881C05DD0408823A4
:10232000B9F1CF52DF4F8881C15DD040882381F160
:102330008091EE03813011F080E002C08091EF03C4
:10234000C752DF4F888329978881C05DD040823093
:1023500050F0DE011496FE01E85BFF4F88E8019023
:102360000D928150E1F7FE01E053FF4F80818150D3
:102370008083CF52DF4F1882C15DD04009C0809169
:10238000ED038091ED0304C08091EA039091EB038B
:10239000CE010E949F1080E0DF91CF910895EF92CF
:1023A000FF920F931F93CF93DF93EC01C053DF4F46
:1023B0008881C05DD0408823B9F4CA52DF4F88813C
:1023C000C65DD040882381F4CE010E9445111CC017
:1023D000CE010E9445118823B9F461E070E080E0ED
:1023E00090E00E94E10508C070EDE72EF12CEC0EA4
:1023F000FD1E8E010A521F4FF7018081882341F78D
:10240000F8018081882321F7DF91CF911F910F91EF
:10241000FF90EF9008959C01F999FECF32BD21BD48
:10242000F89A80B508959C01F999FECF1FBA32BD84
:1024300021BD60BD0FB6F894FA9AF99A0FBE0895BF
:102440001F93182F50914304A0914104B09142046E
:1024500020E230E090E047C0ED91FD918281438120
:10246000811709F03DC0C90150E023E132E10E942B
:10247000D0034091440450914504FA01329720E082
:1024800030E06FEF7FEF21C0F999FECF205E3F4F24
:1024900032BD21BDF89A80B56827862F82958627A0
:1024A000082E869586958025082E8695802587702E
:1024B000062E672F869507948795702D68270694BA
:1024C0008795702568272F5130402E173F0708F455
:1024D000DBCFCA014E9643E152E10E94EC0319C0E2
:1024E000240F311D9F5F951708F4B6CF88EC93E059
:1024F00062EA71E00E94B20988EC93E0612F4AE041
:1025000050E00E94B10A88EC93E067E871E00E9415
:10251000FD091F9108951F93CF93DF93EC01462F80
:10252000009721F44091EE03CFEED3E0442381F1F4
:10253000188120914304E0914104F091420490E01D
:1025400014C0A191B19112968C911297811761F4E8
:10255000ED91FC911197219641500280F381E02D7D
:10256000CD01BE01099514C09F5F921750F3809171
:1025700070019091710168E271E00E94340B8091CA
:10258000700190917101612F4AE050E00E94C30AEE
:10259000DF91CF911F9108958F929F92AF92BF923A
:1025A000DF92EF92FF920F931F93DF93CF93CDB7FC
:1025B000DEB7C054D0400FB6F894DEBF0FBECDBF1B
:1025C0005C0120E0322F3F5FE22FF0E0EE0FFF1FB3
:1025D000EA0DFB1D80819181892B11F0232FF2CF11
:1025E00020934304B0924204A092410488EC93E00B
:1025F00064E272E00E94B20988EC93E060914304C7
:102600004AE050E00E94B10A88EC93E06AE172E08F
:102610000E94B2091092450410924404EE244EC068
:102620000E2D10E0F801EE0FFF1FEA0DFB1D0190CB
:10263000F081E02DF38080E48F15A8F588EC93E01D
:102640000E94DD0988EC93E06AEF71E00E94B20914
:102650000F5F1F4F88EC93E0B8014AE050E00E9402
:10266000210B88EC93E06AEE71E00E94B20988ECDD
:1026700093E06F2D4AE050E00E94B10A88EC93E0AD
:1026800064EE71E00E94B20988EC93E060E470E0CF
:102690004AE050E00E94210B88EC93E06EED71E07F
:1026A0000E94FD090AC080914404909145048F0D59
:1026B000911D9093450480934404E39480914304D6
:1026C000E81608F4ADCF60914404709145046E5F44
:1026D0007F4F709345046093440488EC93E04AE094
:1026E00050E00E94A00A88EC93E067ED71E00E9440
:1026F000FD0960914404709145044FEF5FEF20E0C5
:1027000030E021C0F999FECF205E3F4F32BD21BDA0
:10271000F89A80B54827842F82958427082E8695BD
:1027200086958025082E869580258770042E452F56
:10273000869507948795502D4827069487955025B0
:1027400048272F5130402617370708F4DBCF452B99
:1027500001F188EC93E061EC71E00E94FD0910E06A
:1027600013C0E12FF0E0EE0FFF1FEA0DFB1DA0816B
:10277000B181ED91FC9111970190F081E02DCD0197
:1027800060E070E009951F5F80914304181748F3DB
:1027900037C088EC93E062EB71E00E94FD0990E2A3
:1027A000E92EF12CDD244E010894811C911C24C0DB
:1027B0000D2D10E0000F111F0A0D1B1DD801ED910A
:1027C000FC914381C401B70150E02BE032E10E944B
:1027D000B403F801A081B181ED91FC9111970190B2
:1027E000F081E02DCD01B4010995D801ED91FC9166
:1027F0008381E80EF11CD39480914304D816C0F273
:10280000C05CDF4F0FB6F894DEBF0FBECDBFCF91D7
:10281000DF911F910F91FF90EF90DF90BF90AF90ED
:102820009F908F90089508950895FC01E45BFF4FF9
:102830001082EC54F04082E0868381E0878380E060
:102840008160808708950F931F938C01FC01138290
:1028500012828CE991E0918380830C969583848326
:10286000C8010E941514F8018185887F85608187E1
:102870001F910F91089504970E943F140895CF93DC
:10288000DF93EC01FB01BC01685F7F4F309719F0CB
:102890008081888705C08985888782E00E94201210
:1028A00088EC93E069E472E00E94B209888580FFB9
:1028B00006C088EC93E061E472E00E94B20988856A
:1028C00081FF06C088EC93E06CE372E00E94B209DD
:1028D000888582FF06C088EC93E066E372E00E9480
:1028E000B2098885882331F488EC93E06DE272E0C8
:1028F0000E94B20988EC93E00E94DD09DF91CF913C
:102900000895EF92FF920F931F93CF93DF9387E089
:1029100092E00E94640FEC01009701F50E94D3053C
:102920007B018C010E94D3056E197F09800B910BEE
:102930006C5271408040904088F461E070E080E02B
:1029400090E00E94E10587E092E00E94451187E057
:1029500092E00E94640F009729F3EC01CE01DF9111
:10296000CF911F910F91FF90EF900895EF92FF92FA
:102970000F931F93CF93DF93EC018C01045B1F4FE8
:10298000D8018C91FE01E80FF11D1286888580FF29
:1029900016C0BE01665F7F4F88EC93E00E94340B47
:1029A000F8018081882359F0FE01E80FF11D81852F
:1029B0008A3029F488EC93E06DE00E94D50988857F
:1029C00082FF86C08E01035B1F4FD8018C91882344
:1029D00009F453C0CE010E948114AC01009709F4A0
:1029E00045C0FC0182E081939F016CE371E086E0C9
:1029F000DB010D90BD01D9010D929D018150C1F700
:102A00009F012A5F3F4FC35BDF4F8881CD54D04089
:102A10008B3040F06AE00E940D23805D86839F0129
:102A2000295F3F4FFE01E35BFF4F80816AE00E9418
:102A30000D23905DF90191939F0163E471E087E0BC
:102A4000DB010D90BD01D9010D929D018150C1F7AF
:102A500037966E2F641B87E092E041E00E942811B8
:102A6000C35BDF4F1882CD54D04007C0F80180818E
:102A7000833688F58F5F80832EC0CE010E9481143B
:102A80002DE4E22EF12CEC0EFD1E0097D9F0FC0196
:102A900082E081938E01045B1F4FD8014C919E010F
:102AA000265F3F4FCF01B90150E00E94A403F80117
:102AB00060816F5F87E092E041E00E942811D701BA
:102AC0001C9206C0F70180818F3F11F08F5F8083D9
:102AD000C45BDF4F1882DF91CF911F910F91FF9060
:102AE000EF9008951F93CF93DF93EC01162FC45BF3
:102AF000DF4F8881CC54D040813418F0CE010E9441
:102B0000B614DE01A45BBF4F8C91FE01E80FF11DEE
:102B100012878F5F8C931A3019F4CE010E94B6147D
:102B200081E090E0DF91CF911F910895FC018481B5
:102B3000681728F070E060E090EC8FE70FC0862FF8
:102B400090E0880F991F880F991F0284F385E02D6C
:102B5000E80FF91F7081618192818381272F362FC1
:102B6000492F582FB901CA01089570E033E0660F6C
:102B7000771F3A95E1F7DC011296ED91FC911397DE
:102B8000E60FF71F9781923211F481E0089580E0FB
:102B9000983209F481E00895AF92BF92CF92DF920C
:102BA000EF92FF920F931F93DF93CF93CDB7DEB7D2
:102BB000A4970FB6F894DEBF0FBECDBF7C010D8F7A
:102BC0001E8F2F8F38A349A35AA36BA37CA3CE01DA
:102BD0004D960E94111929833A834B835C836D8340
:102BE0007E838F839887F701808191810E94F61CF4
:102BF000F70180819181BE016F5F7F4F0E94D51CDC
:102C0000F701808191816EEB40E00E94901C8E0163
:102C10000F5E1F4FC801B02EA92E7AE1C72ED12C0E
:102C2000CC0EDD1EF701808191810E943F1CF801CE
:102C300081938F01EC15FD05A9F78B2D9A2D68E086
:102C40000E94FA1B998D891769F52989222319F4A5
:102C50008A89882339F18E898F3F21F5888D8031CB
:102C600009F59A8980E0422F50E0482B592BDE016C
:102C70001996ECEAF1E088E001900D928150E1F7BD
:102C8000ED89F0E0E076F07064E0F695E7956A95FE
:102C9000E1F7EC0FFD1F2185328520953095242327
:102CA000352302C020E030E8C901A4960FB6F8949D
:102CB000DEBF0FBECDBFCF91DF911F910F91FF906F
:102CC000EF90DF90CF90BF90AF9008958F929F923A
:102CD000AF92BF92CF92DF92EF92FF920F931F932A
:102CE000CF93DF93EC0170E0E3E0660F771FEA9586
:102CF000E1F7EA81FB81E60FF71FF080E180D280E7
:102D0000C380B480A580968087800F2D1E2D2D2D29
:102D10003C2D4B2D5A2D692D782D0E94CC159C01F0
:102D200080E82030380751F5CE012D2D3C2D4B2D5C
:102D30005A2D692D782D0E94CC159C0180E82030F9
:102D40003807E1F4CE012D2D3C2D4B2D5A2D692D48
:102D5000782D0E94CC159C0180E82030380771F452
:102D6000CE012D2D3C2D4B2D5A2D692D782D0E94F5
:102D7000CC159C0180E82030380701F185E0203532
:102D80003807E1F0B901882777FD8095982F0E94D8
:102D9000D32120E030E040E85DE30E94872226E670
:102DA00036E646EE5FE30E94872220E030E040E016
:102DB00052E40E94D020E62F692F04C0E0E070E0CA
:102DC00080EC6FE72E2F372F482F562FB901CA01FD
:102DD000DF91CF911F910F91FF90EF90DF90CF90F7
:102DE000BF90AF909F908F9008950F931F938C0189
:102DF000FC01808191810E94F61CF8018081918103
:102E00000E94D01CF8018081918164E441E00E941D
:102E1000901C1F910F9108952F923F924F925F92B5
:102E20007F928F929F92AF92BF92CF92DF92EF925A
:102E3000FF920F931F93CF93DF93EC01962E409652
:102E400060E67AEE0E945D0C882309F44AC08B8903
:102E50009C89AD89BE890196A11DB11D8B8B9C8B70
:102E6000AD8BBE8B803F9105A105B105D0F11B8ACA
:102E70001C8A1D8A1E8A90E006E010E829C0EF89AE
:102E8000F88DE60FF71FDA0111969F012A0F3B1FFD
:102E9000E40FF51F8081F9018083E98DFA8DE60F3B
:102EA000F71FAE0FBF1FE40FF51F80818C934150B9
:102EB0005040FFEF4F3F5F0711F7EF89F88DE60FA6
:102EC000F71F1083E98DFA8DE60FF71F10839F5FC0
:102ED0008C81981730F4909FB001112444E050E0A9
:102EE000CECF0E94D3055B016C018D81882309F050
:102EF00045C0992041F08E819F81A885B9850097B2
:102F0000A105B10531F45C8140E030E080E090E063
:102F100022C086017501E81AF90A0A0B1B0B692DFC
:102F200070E080E090E028EE33E040E050E00E9466
:102F3000EE226E157F058007910728F304C1EA8110
:102F4000FB81E80FF91F2781223211F0283209F4A2
:102F50004F5F3F5F0896351790F3442351F0CE0141
:102F60000E94F516AE82BF82C886D98681E08D8325
:102F7000EAC0AE82BF82C886D986E3C0813009F03C
:102F8000E2C08E819F81A885B985A81AB90ACA0AAC
:102F9000DB0A8DEBA816B104C104D10408F4D3C038
:102FA00077240F2EF0E02F2EF0E03F2EF0EC4F2E86
:102FB000FFE75F2EF02DC0C0872C9924C401B3E039
:102FC000880F991FBA95E1F7EA81FB81E80FF91F95
:102FD0008781823219F0883209F0ADC0CE01672DA9
:102FE0000E9466165B016C01A1E0EA2EF12C012D16
:102FF000112D072C04C0EE0CFF1C001F111F0A949A
:10300000D2F7A60195010E94EA222C853D854E85C6
:103010005F85882301F1D801C70182239323A4236C
:10302000B5230097A105B10569F0880C991C880C9F
:10303000991CEA85FB85E80DF91D208231824282C8
:10304000538279C02E293F29402B512B2C873D8755
:103050004E875F8770C0D801C70180959095A09575
:10306000B095282339234A235B232C873D874E873D
:103070005F87C401880F991F880F991FEA85FB8518
:10308000E80FF91FA082B182C282D382C601B501C6
:1030900020E030E040E050E00E94832288234CF0A2
:1030A000C601B50120E030E040E05FE30E94D0209F
:1030B00008C0C601B50120E030E040E05FE30E94B7
:1030C000CF200E94A02178EAF72EF60E8401000F8F
:1030D000111F080D191D000F111FEF89F88DE00F4A
:1030E000F11F8581803859F42F2D332727FD309526
:1030F000CF01B90146E050E00E94AD0306C08081D7
:10310000803811F0F8160CF4F082E98DFA8DE00F9A
:10311000F11F8581803859F42F2D332727FD3095F5
:10312000CF01B90146E050E00E94AD0304C08081A8
:103130008F150CF4F08273948C81781608F43CCFD0
:103140001D8281E001C080E0DF91CF911F910F913E
:10315000FF90EF90DF90CF90BF90AF909F908F90B7
:103160007F905F904F903F902F900895CF92DF9285
:10317000EF92FF920F931F93CF93DF93EC01D62E24
:103180007A01C22E8EE090E00E948509182F092F47
:103190006D2D0E94D71D18830983FB82EA828C2D36
:1031A000813208F080E28C831D821C861D861E867B
:1031B0001F8690E064E070E00E9486028A879B8709
:1031C0008C8190E066E070E00E9486028F8B988F81
:1031D0002C8116E0219F9001112460E870E0A90184
:1031E0000E94AD038C8190E066E070E00E94860250
:1031F000898F9A8F2C81219F9001112460E870E0C3
:10320000A9010E94AD03DF91CF911F910F91FF9013
:10321000EF90DF90CF900895FC01128A0E94B618BB
:103220000895DF93CF93CDB7DEB728970FB6F89404
:10323000DEBF0FBECDBFDC01FE0138969E0103C08C
:103240008D9180833197E217F307D1F729813A8175
:103250004B815C816D817E818F81988528960FB628
:10326000F894DEBF0FBECDBFCF91DF910895CF920E
:10327000DF92EF92FF920F931F93DF93CF93CDB71F
:10328000DEB728970FB6F894DEBF0FBECDBF7C0126
:1032900009831A832B833C834D835E836F837887F6
:1032A0006BE471E00E94340B8E010F5F1F4F99E0B9
:1032B000C92ED12CCC0EDD1EF801608170E084E0B7
:1032C000759567958A95E1F7C70140E150E00E9446
:1032D000210BF80161918F0170E06F707070C70170
:1032E00040E150E00E94210B0C151D0529F728969E
:1032F0000FB6F894DEBF0FBECDBFCF91DF911F9107
:103300000F91FF90EF90DF90CF900895FF920F9371
:103310001F938C01F62E6EE471E00E94340BC801FD
:103320006F2D4AE050E00E94B10AC80162E571E0E9
:103330000E94340B1F910F91FF9008952F923F929E
:103340004F925F926F927F928F929F92AF92BF92B5
:10335000CF92DF92EF92FF920F931F93DF93CF9361
:10336000CDB7DEB7E1970FB6F894DEBF0FBECDBF85
:103370008AA74BA739016CA77DA778A36F8FFB01A4
:1033800040E050E060E070E020E001E010E021C0AB
:1033900080819181892B9281892B9381892B9481C2
:1033A000892B9581892B9681892B9781892B79F09F
:1033B000C801022E02C0880F991F0A94E2F7AA27BB
:1033C00097FDA095BA2F482B592B6A2B7B2B2F5F8B
:1033D00038963BA52317E0F21BA220E030E0E1E0A5
:1033E000F0E0CF01022E02C0880F991F0A94E2F785
:1033F000AA2797FDA095BA2F84239523A623B72348
:103400000097A105B10519F08BA18F5F8BA32F5FEA
:103410003F4F2032310529F78E010F5E1F4FC80143
:103420006AA50E94D71DC8010E94ED1B22243324E7
:1034300021011EA21FA218A619A61DA21CA20EA73A
:103440001FA7DE011896B9ABA8ABFDC0CE0101964F
:1034500067E00E94FA1B882E9924AA24BB24CC245E
:10346000DD24760129813A814B815C816D817E81E9
:103470008F81988508E30E940702821609F0E3C055
:10348000931609F0E0C0A41609F0DDC0B51609F0E6
:10349000DAC0C61609F0D7C0D71609F0D4C0E816AE
:1034A00009F0D1C0F91609F0CEC0FE01709607C030
:1034B000A9A1BAA18D91BAA3A9A38083319728A904
:1034C00039A9E217F307A1F719850A85EB84DC8493
:1034D000CD84BE84AF8498888CA59DA5FC01FF2473
:1034E00044C08081918122813381448155816681EC
:1034F000778138961817C1F50917B1F5E216A1F5CD
:10350000D31691F5C41681F5B51671F5A61661F5B9
:10351000971651F561147104B9F0C3016AA50E94B0
:103520008619C3016CE872E00E94B20909811A8110
:103530002B813C814D815E816F817885C3010E9422
:103540003719C3010E94DD0981E090E0A0E0B0E0FE
:1035500004C0880F991FAA1FBB1FFA94D2F7282A0C
:10356000392A4A2A5B2A6CC0F3943BA5F31608F467
:10357000B8CF8CA59DA5FC01FF245EC0DF01808132
:10358000918122813381448155816681778138968A
:10359000892B822B832B842B852B862B872B09F061
:1035A0004AC01C9311960C9311971296EC921297A5
:1035B0001396DC9213971496CC9214971596BC929E
:1035C00015971696AC92169717969C9261147104F3
:1035D000B9F0C3016AA50E948619C30166E872E0CA
:1035E0000E94B20909811A812B813C814D815E8143
:1035F0006F817885C3010E943719C3010E94DD09DC
:1036000081E090E0A0E0B0E004C0880F991FAA1FFD
:10361000BB1FFA94D2F72EA13FA148A559A5282B8C
:10362000392B4A2B5B2B2EA33FA348A759A73CA1BC
:103630003F5F3CA305C0F3944BA5F41608F49ECF5E
:103640005DA15F5F5DA3CE0101969AA389A38EA5BC
:103650009FA5BE016F5F7F4F0E94411D882309F027
:10366000F5CE8EA59FA50E94ED1BACA09BA1A90E37
:10367000ADA1AA1A09F463C0C3016AA50E94861904
:10368000C3016CE772E00E94B209BB24CEA0DFA0A8
:10369000E8A4F9A4C228D328E428F528C094D0943B
:1036A000E094F09428E0822E912C8C0E9D1E40C058
:1036B000D701C6010B2C04C0B695A79597958795A1
:1036C0000A94D2F780FF2DC0EF8DF8A180819181FF
:1036D000892B9281892B9381892B9481892B9581C8
:1036E000892B9681892B9781892BD9F0C30165E5B8
:1036F00071E00E94340BAF8DB8A1FE01709603C03B
:103700008D9180833197E815F905D1F709851A85E0
:103710002B853C854D855E856F857889C3010E9428
:103720003719B3942F8D38A1285F3F4F38A32F8FBF
:103730003BA5B31608F4BCCFC3010E94DD09611498
:10374000710481F1C3016AA50E948619C30164E76F
:1037500072E00E94B209C3016DA14AE050E00E94EC
:10376000B10AC30168E672E00E94B209C3016BA10D
:103770004AE050E00E94B10AC3016FE572E00E9486
:10378000B209C3016CA14AE050E00E94B10AC30132
:1037900065E572E00E94B209C3016A2D4AE050E07B
:1037A0000E94C30AB101C201E1960FB6F894DEBFD0
:1037B0000FBECDBFCF91DF911F910F91FF90EF9082
:1037C000DF90CF90BF90AF909F908F907F906F9041
:1037D0005F904F903F902F900895FC0113861586BF
:1037E000148687E090E012863197009711F00197D8
:1037F000FACF0895DC0180E00BC0E82FF0E08D9156
:1038000090E0E827F927EC56FD4FE49161508E2FA8
:10381000662399F70895DF92EF92FF920F931F931B
:10382000FC01E08001811281F894F8018281DE2C94
:10383000D0948D21828381818E29818383E090E0E1
:103840000E943A06F80181818D2181838AE090E00F
:103850000E943A06F8010081789485E390E00E9486
:103860003A0680E010E0FF240E211F21012B09F011
:1038700081E01F910F91FF90EF90DF900895EF92FC
:10388000FF920F931F93CF93DF937C0101E010E031
:10389000C0E0D0E0C7010E940B1C8111102B000F6B
:1038A0002196C830D105B1F7812FDF91CF911F91BB
:1038B0000F91FF90EF9008951F93CF93DF93FC013A
:1038C0001081C181D281912F909560FF12C0F89430
:1038D0008A8189238A838981812B89838AE090E088
:1038E0000E943A068A81812B8A83789487E390E04C
:1038F00011C0F8948A8189238A838981812B8983E5
:1039000081E490E00E943A068A81812B8A83789430
:1039100085E090E00E943A06DF91CF911F910895D3
:10392000CF92DF92EF92FF920F931F93CF93DF938B
:103930008C01E42EFF24F394C0E0D0E0C62EDD24F9
:1039400060E08F2D90E08C219D21892B09F061E0B2
:10395000C8010E945C1CFF0C2196C830D10581F77C
:10396000EE20A9F4F894D8011196ED91FC911297EC
:1039700091818C918095982391831196ED91FC9182
:10398000129792818C918095982392837894DF91FD
:10399000CF911F910F91FF90EF90DF90CF900895FE
:1039A0006CEC40E00E94901C0895EF92FF920F9300
:1039B0001F93CF93DF938C017B0165E540E00E946C
:1039C000901CC0E0D0E0F701EC0FFD1FC801608142
:1039D00040E00E94901C2196C830D105A1F7DF91EC
:1039E000CF911F910F91FF90EF900895DF92EF928A
:1039F000FF920F931F93CF93DF93FC010081C1814E
:103A0000D281F8948981D02ED0948D2189837894A5
:103A10001DE7E02EFF24115059F182E090E00E9452
:103A20003A06888190E08E219F21892BA1F3F8949A
:103A30008A818D218A838981802B8983789484EF80
:103A400091E00E943A06F89489818D21898380E56E
:103A500090E00E943A06888110E090E0E822F92286
:103A6000EF2809F411E0789484EA91E00E943A0684
:103A7000812FDF91CF911F910F91FF90EF90DF90F9
:103A80000895AF92BF92DF92EF92FF920F931F9330
:103A9000CF93DF93EC015B018D85882309F061C032
:103AA000CE010E94F61C882329F41B861D861C86E5
:103AB00090E06BC0CE0160EF40E00E94901C01E0FE
:103AC000DD24EE24FF24F394CE010E940B1C182F5A
:103AD000CE010E940B1C113019F48130E1F439C081
:103AE000181709F58B85081770F460E0FE01EE0DDC
:103AF000F11D838190E02F2D30E08223932318164F
:103B000019064CF003C060E0081729F0093008F0EE
:103B10004CC00C874AC0FE01EE0DF11D83818F2938
:103B2000838361E009C0612FFE01EE0DF11D9F2D21
:103B30009095838189238383CE010E945C1C0F5F53
:103B4000FF0C19F4E394FF24F39487E08E1508F03A
:103B5000BBCF013430F0DB86DD2011F581E08D87AD
:103B60001FC01B861D861C8690E0DE0120E030E031
:103B7000F501E20FF31F13968C91139780832F5F4B
:103B80003F4F11962830310599F7892FDF91CF915A
:103B90001F910F91FF90EF90DF90BF90AF9008952D
:103BA0008B818823F1F291E0E0CFD02EBDCFFF9240
:103BB0000F931F938C01F62E862F60E00E947F06E4
:103BC0008F2D90E0FC01E351FF4FE491D801EC937D
:103BD00087529F4FFC016491E62FF0E0EE0FFF1F2C
:103BE000E153FF4F8591949112969C938E93119778
:103BF0001B961C921B971D961C921D971C961C923F
:103C0000F80187E090E012863197009711F0019754
:103C1000FACF1F910F91FF900895FC0188EB91E07E
:103C200091838083148283E0828381E0838308957B
:103C3000FC01DB016115710519F08C91848305C0CD
:103C4000349683E0BF010E94201288EC93E067E580
:103C500071E00E942E0C08951F93CF93DF93EB0128
:103C6000443098F00E94711F182F688179818A81F1
:103C70009B810E94741F112341F4809170019091E7
:103C8000710164E973E00E94FD09DF91CF911F91FA
:103C900008958F929F92AF92BF92CF92DF92EF9250
:103CA000FF920F931F93CF93DF937B018C01EA0167
:103CB0002CE330E040E050E00E9440236883C801DC
:103CC000B7012CE330E040E050E00E944023122F87
:103CD000032FF42EE52E622F732F842F952F2CE3C4
:103CE00030E040E050E00E9440236983612F702F54
:103CF0008F2D9E2D2CE330E040E050E00E944023C9
:103D0000122F032FF42EE52E622F732F842F952F61
:103D100028E130E040E050E00E9440236A83612FB8
:103D2000702F8F2D9E2D28E130E040E050E00E9462
:103D3000402379018A01C801B7016C5F7F4F8F4F23
:103D40009F4F27E030E040E050E00E9440236F5F4B
:103D50006B8320E0AA24BB24650101C02F5F822E63
:103D60009924F401EE54F84FCF0183709070892BA1
:103D700099F4CF0164E670E00E942D23892B39F479
:103D8000CF0160E971E00E942D23892B29F48EE692
:103D900091E0A0E0B0E004C08DE691E0A0E0B0E0EA
:103DA000A80EB91ECA1EDB1EC501A0E0B0E0E816D1
:103DB000F9060A071B0790F62E83F401EE54F84F1C
:103DC00083E0882E912C8E229F228114910499F4F5
:103DD000CF0164E670E00E942D23892B39F4CF01D6
:103DE00060E971E00E942D23892B29F48EE691E091
:103DF000A0E0B0E004C08DE691E0A0E0B0E0A81A39
:103E0000B90ACA0ADB0A980187010A191B092C0999
:103E10003D09CF0164E670E00E942D237C01CF01B3
:103E200060E971E00E942D23AC01ECEBF1E060E071
:103E3000613051F48114910449F4E114F10441F426
:103E40004115510529F002C0808103C08CE101C0F9
:103E50008DE190E0A0E0B0E0081719072A073B07C2
:103E600040F0081B190B2A0B3B0B6F5F31966C302F
:103E7000F9F66F5F6D83802F8F5F8C83DF91CF9119
:103E80001F910F91FF90EF90DF90CF90BF90AF9078
:103E90009F908F900895EF92FF920F931F937B0155
:103EA0008C0180915C0490915D04A0915E04B091BE
:103EB0005F04E816F9060A071B0771F0C801B7018D
:103EC00041E554E00E94491EE0925C04F0925D04DA
:103ED00000935E0410935F041F910F91FF90EF9089
:103EE00008958091500408956093480470934904A4
:103EF00080934A0490934B0420917B0130917C0184
:103F000040917D0150917E01260F371F481F591F98
:103F100020934C0430934D0440934E0450934F042F
:103F200082E0809350040E94D305609358047093FC
:103F3000590480935A0490935B040895EF92FF9282
:103F40000F931F931CC02F5F3F4F4F4F5F4F209326
:103F500048043093490440934A0450934B0488EE3C
:103F600093E0A0E0B0E0E80EF91E0A1F1B1FE092EC
:103F70005804F092590400935A0410935B040E9471
:103F8000D305E0905804F090590400915A04109120
:103F90005B046E197F09800B910B209148043091CE
:103FA000490440914A0450914B04685E734080403C
:103FB000904048F680914C0490914D04A0914E049D
:103FC000B0914F04281739074A075B07B0F0E0911A
:103FD0004604F0914704309781F009956115710509
:103FE0008105910519F00E94741F07C090E080912F
:103FF0005004811191E090935004609148047091B5
:10400000490480914A0490914B041F910F91FF90B5
:10401000EF9008950E949E1F0E944B1F80915204B2
:1040200090E008950E949E1F0E944B1F80915304B0
:1040300090E00895823000F5E82FF0E0EE0FFF1FCA
:10404000E05AFB4F71836083882319F08130A1F41B
:1040500008C0809169008C7F842B80936900E89A66
:10406000089580916900440F551F440F551F837FA9
:10407000842B80936900E99A0895823080F4882324
:1040800019F0813021F402C0E89801C0E998E82FC6
:10409000F0E0EE0FFF1FE05AFB4F118210820895EF
:1040A0001F920F920FB60F9211242F933F934F93AD
:1040B0005F936F937F938F939F93AF93BF93EF9390
:1040C000FF938091600490916104892B29F0E09125
:1040D0006004F09161040995FF91EF91BF91AF9158
:1040E0009F918F917F916F915F914F913F912F9110
:1040F0000F900FBE0F901F9018951F920F920FB642
:104100000F9211242F933F934F935F936F937F935D
:104110008F939F93AF93BF93EF93FF93809162042C
:1041200090916304892B29F0E0916204F09163047B
:104130000995FF91EF91BF91AF919F918F917F91E1
:104140006F915F914F913F912F910F900FBE0F9004
:104150001F90189580937F010895982F8E3008F056
:104160009E50977080917F018295880F880F807C88
:10417000892B80937C0080917A00806480937A0000
:1041800080917A0086FDFCCF2091780040917900E3
:10419000942F80E030E0282B392BC9010895505826
:1041A000BB27AA270ED075C166D130F06BD120F0A5
:1041B00031F49F3F11F41EF45BC10EF4E095E7FB70
:1041C00051C1E92F77D180F3BA17620773078407CB
:1041D000950718F071F49EF58FC10EF4E0950B2E43
:1041E000BA2FA02D0B01B90190010C01CA01A00149
:1041F0001124FF27591B99F0593F50F4503E68F1A4
:104200001A16F040A22F232F342F4427585FF3CFE4
:10421000469537952795A795F0405395C9F77EF4B5
:104220001F16BA0B620B730B840BBAF09150A1F0FE
:10423000FF0FBB1F661F771F881FC2F70EC0BA0F84
:10424000621F731F841F48F4879577956795B7950C
:10425000F7959E3F08F0B3CF9395880F08F0992704
:10426000EE0F979587950895D9D008F481E00895C9
:104270000CD00FC107D140F0FED030F021F45F3FE9
:1042800019F0F0C0511139C1F3C014D198F399233A
:10429000C9F35523B1F3951B550BBB27AA2762170A
:1042A0007307840738F09F5F5F4F220F331F441F4F
:1042B000AA1FA9F333D00E2E3AF0E0E830D0915087
:1042C0005040E695001CCAF729D0FE2F27D0660F74
:1042D000771F881FBB1F261737074807AB07B0E8B3
:1042E00009F0BB0B802DBF01FF2793585F4F2AF0C9
:1042F0009E3F510568F0B6C000C15F3FECF3983EA9
:10430000DCF3869577956795B795F7959F5FC9F725
:10431000880F911D9695879597F90895E1E0660FAE
:10432000771F881FBB1F621773078407BA0720F027
:10433000621B730B840BBA0BEE1F88F7E095089590
:1043400004D06894B111D9C00895BCD088F09F57AB
:1043500090F0B92F9927B751A0F0D1F0660F771FD1
:10436000881F991F1AF0BA95C9F712C0B13081F0B1
:10437000C3D0B1E00895C0C0672F782F8827B85FF9
:1043800039F0B93FCCF3869577956795B395D9F712
:104390003EF490958095709561957F4F8F4F9F4F1C
:1043A0000895E89409C097FB3EF490958095709528
:1043B00061957F4F8F4F9F4F9923A9F0F92F96E971
:1043C000BB279395F695879577956795B795F111E6
:1043D000F8CFFAF4BB0F11F460FF1BC06F5F7F4F83
:1043E0008F4F9F4F16C0882311F096E911C0772395
:1043F00021F09EE8872F762F05C0662371F096E89E
:10440000862F70E060E02AF09A95660F771F881F6C
:10441000DAF7880F9695879597F90895990F000810
:10442000550FAA0BE0E8FEEF16161706E807F90786
:10443000C0F012161306E407F50798F0621B730B21
:10444000840B950B39F40A2661F0232B242B252BA2
:1044500021F408950A2609F4A140A6958FEF811D45
:10446000811D089597F99F6780E870E060E00895E6
:104470009FEF80EC089500240A941616170618067C
:104480000906089500240A94121613061406050658
:104490000895092E0394000C11F4882352F0BB0FE9
:1044A00040F4BF2B11F460FF04C06F5F7F4F8F4F4C
:1044B0009F4F089557FD9058440F551F59F05F3F87
:1044C00071F04795880F97FB991F61F09F3F79F036
:1044D00087950895121613061406551FF2CF4695B8
:1044E000F1DF08C0161617061806991FF1CF86953A
:1044F0007105610508940895E894BB27662777271E
:10450000CB0197F908958ADF08F48FEF08950BD057
:10451000C0CFB1DF28F0B6DF18F0952309F0A2CFA5
:10452000A7CF1124EACFC6DFA0F3959FD1F3950F53
:1045300050E0551F629FF001729FBB27F00DB11D27
:10454000639FAA27F00DB11DAA1F649F6627B00DB7
:10455000A11D661F829F2227B00DA11D621F739FA0
:10456000B00DA11D621F839FA00D611D221F749FAE
:104570003327A00D611D231F849F600D211D822FF5
:10458000762F6A2F11249F5750408AF0E1F088233C
:104590004AF0EE0FFF1FBB1F661F771F881F915049
:1045A0005040A9F79E3F510570F05CCFA6CF5F3F0A
:1045B000ECF3983EDCF3869577956795B795F7957C
:1045C000E7959F5FC1F7FE2B880F911D9695879504
:1045D00097F9089523DF880B990B0895629FD00106
:1045E000739FF001829FE00DF11D649FE00DF11DAE
:1045F000929FF00D839FF00D749FF00D659FF00D5D
:104600009927729FB00DE11DF91F639FB00DE11D49
:10461000F91FBD01CF0111240895991B79E004C051
:10462000991F961708F0961B881F7A95C9F78095F1
:104630000895AA1BBB1B51E107C0AA1FBB1FA617E9
:10464000B70710F0A61BB70B881F991F5A95A9F73B
:1046500080959095BC01CD01089597FB092E072602
:104660000AD077FD04D0E5DF06D000201AF470955B
:1046700061957F4F0895F6F7909581959F4F089526
:10468000A1E21A2EAA1BBB1BFD010DC0AA1FBB1F56
:10469000EE1FFF1FA217B307E407F50720F0A21BC8
:1046A000B30BE40BF50B661F771F881F991F1A9435
:1046B00069F760957095809590959B01AC01BD015F
:1046C000CF010895EE0FFF1F0590F491E02D09949E
:1046D0002F923F924F925F926F927F928F929F9212
:1046E000AF92BF92CF92DF92EF92FF920F931F9300
:1046F000CF93DF93CDB7DEB7CA1BDB0B0FB6F894B1
:10470000DEBF0FBECDBF09942A88398848885F84F0
:104710006E847D848C849B84AA84B984C884DF8061
:10472000EE80FD800C811B81AA81B981CE0FD11D45
:104730000FB6F894DEBF0FBECDBFED010895F8941B
:02474000FFCFA9
:10474200526563763A200054696D653A20005465DB
:104752006D7020003D006E616E00696E66006F76BE
:1047620066002E006661696C656420746F2064695E
:1047720073706174636820003C6C6F737420002056
:104782006C696E65733E003078004F575B005D3A8E
:104792000020004E545054696D6520636F6E666947
:1047A20067757265640020006A040000E702070270
:1047B2000000E2020000022C0100000100000000E3
:1047C200E00888097608A7088708D00800000000DA
:1047D2000F109E0F00000000721588093F14141478
:1047E200FCFF00003B14131407000300010000004B
:1047F20000000000181E2C1E1F1C1F1E1F1E1F1F44
:044802001E1F1E1F38
:00000001FF
