:100000000C94D2010C94BC1E0C94E91E0C940202B8
:100010000C9402020C9402020C9402020C94020250
:100020000C9402020C9402020C9402020C94020240
:100030000C9402020C9402020C9402020C94020230
:100040000C941C050C9402020C9411060C945F068F
:100050000C9402020C9402020C9402020C94020210
:100060000C9402020C9402022A2A2A2A2A205255AF
:100070004E4E494E473A2074656D705F6E6F6465F1
:100080002E696E6F002A2A2A2A2A20534554555079
:100090003A2074656D705F6E6F64652E696E6F00D7
:1000A000206E6F7420666F756E6420696E20636FBA
:1000B0006E6669675F7265616400436F6E6669674B
:1000C0003A206D6F64756C652000206E6F74206639
:1000D0006F756E6420696E20636F6E6669675F7707
:1000E0007269746500436F6E6669673A206D6F646C
:1000F000756C6520002020435243206D6174636855
:1001000065732100202043524320646F6573206E85
:100110006F74206D61746368210020627974657367
:1001200000206D617829002076732E2000206973ED
:1001300020746F6F206C61726765202800434F4EFA
:100140004649473A2074686520636F6E6669672088
:10015000666F72206D6F64756C6520230020636F7D
:100160006E666967732000436F6E6669673A2000A8
:1001700020214E4F4E452120002072663132002052
:100180006C6364002073657269616C00436F6E6616
:100190006967204C6F673A00202031396B627073B9
:1001A0000020206C6F7720545820706F77657200A4
:1001B000206D6F64653D002067726F75705F6964C4
:1001C0003D00436F6E666967204E65743A206E6F1E
:1001D00064655F69643D00436F6E6669673A20003D
:1001E0004E65743A3A646F53656E643A2000206439
:1001F000657669636573004F775363616E2068614C
:10020000732000206465766963657300206F662043
:10021000004F573A20666F756E6420004F573A20A2
:100220004D697373696E6720646576696365733AB7
:10023000004F573A204E6577206465766963657391
:100240003A2020202000005EBCE2613FDD83C29C9A
:100250007E20A3FD1F419DC3217FFCA2401E5F01A4
:10026000E3BD3E6082DC237D9FC1421CFEA0E1BF56
:100270005D0380DE3C62BEE0025CDF81633D7C2288
:10028000C09E1D43A1FF4618FAA427799BC584DAB6
:100290003866E5BB5907DB856739BAE40658194764
:1002A000A5FB7826C49A653BD987045AB8E6A7F916
:1002B0001B45C6987A24F8A6441A99C7257B3A6448
:1002C00086D85B05E7B98CD2306EEDB3510F4E1076
:1002D000F2AC2F7193CD114FADF3702ECC92D38D24
:1002E0006F31B2EC0E50AFF1134DCE90722C6D33D6
:1002F000D18F0C52B0EE326C8ED0530DEFB1F0AE08
:100300004C1291CF2D73CA947628ABF51749085635
:10031000B4EA6937D58B5709EBB536688AD495CBE3
:100320002977F4AA4816E9B7550B88D6346A2B7595
:1003300097C94A14F6A8742AC896154BA9F7B6E8C7
:100340000A54D7896B3500000000240027002A00DA
:1003500000000000250028002B0000000000230002
:100360002600290004040404040404040202020216
:100370000202030303030303010204081020408068
:1003800001020408102001020408102000000007E8
:10039000000201000003040600000000000000004D
:1003A000FE03CB0711241FBECFEFD8E0DEBFCDBFC9
:1003B000809100018093C503809101018093C60361
:1003C00011E0A0E0B1E0E8E2F5E402C005900D9292
:1003D000AE38B107D9F713E0AEE8B1E001C01D9225
:1003E000A53CB107E1F713E0C4EAD3E004C02297CB
:1003F000FE010E945722C03AD107C9F70E94210886
:100400000C9492220C940000EF92FF920F93DF93D2
:10041000CF93CDB7DEB760970FB6F894DEBF0FBEAF
:10042000CDBFA82F002309F461C07E010894E11C10
:10043000F11C88E0F70111928A95E9F729833A8344
:100440004B835C836D837E83AF83988780E2801BC0
:10045000E82FFF27E7FDF0954D815E816F8178855C
:10046000181684F01D861E861F86188A88279927ED
:100470008E1B9F0B04C076956795579547958A9577
:10048000D2F728C0202F332727FD3095DB01CA0182
:10049000022E04C0B695A795979587950A94D2F732
:1004A0008D879E87AF87B88B04C0440F551F661F8A
:1004B000771FEA95D2F789819A81AB81BC8104C00C
:1004C000B695A795979587952A95D2F7482B592BDE
:1004D0006A2B7B2B49875A876B877C8729853A85CE
:1004E0004B855C856D857E85AF8598898A2F609662
:1004F0000FB6F894DEBF0FBECDBFCF91DF910F9145
:10050000FF90EF9008950F931F93CF93DF93689F11
:100510008001699F100D789F100D1124C8010E9461
:100520009F02EC01009729F060E070E0A8010E94B2
:10053000AA03CE01DF91CF911F910F910895CF9320
:10054000DF93BC018230910510F462E070E0A0916D
:10055000C303B091C403ED0140E050E0E0E0F0E0FF
:1005600021C0888199818617970769F48A819B81C8
:10057000309719F09383828304C09093C4038093CF
:10058000C303FE0134C06817790738F441155105DB
:1005900019F08417950708F4AC01FE018A819B814C
:1005A0009C01E9012097E9F641155105A9F1CA011D
:1005B000861B970B049708F4BA01E0E0F0E02AC02C
:1005C0008D919C91119784179507F9F4641775071D
:1005D00081F412968D919C911397309719F0938323
:1005E000828304C09093C4038093C303FD013296B9
:1005F0004CC0CA01861B970BFD01E80FF91F6193E0
:10060000719302978D939C9340C0FD0182819381E9
:100610009C01D9011097A1F68091C1039091C2036A
:10062000892B41F480913E0190913F019093C20348
:100630008093C10340914001509141014115510502
:1006400041F44DB75EB780913C0190913D01481B4C
:10065000590B2091C1033091C203CA01821B930B35
:100660008617970780F0AB014E5F5F4F84179507A1
:1006700050F0420F531F5093C2034093C103F9013E
:100680006193719302C0E0E0F0E0CF01DF91CF9180
:100690000895CF93DF93009709F450C0EC0122979F
:1006A0001B821A82A091C303B091C403109709F171
:1006B00040E050E0AC17BD0708F1BB83AA83FE0100
:1006C00021913191E20FF31FAE17BF0779F48D919D
:1006D0009C911197280F391F2E5F3F4F3983288334
:1006E00012968D919C9113979B838A834115510596
:1006F00071F4D093C403C093C30320C012968D91AC
:100700009C911397AD01009711F0DC01D3CFFA0152
:10071000D383C28321913191E20FF31FCE17DF07FC
:1007200069F488819981280F391F2E5F3F4FFA01A4
:10073000318320838A819B8193838283DF91CF9150
:100740000895FB01DC0102C001900D924150504020
:10075000D8F70895DC0101C06D9341505040E0F797
:100760000895A0E0B0E0E7EBF3E00C9465227C0193
:10077000EB018A01690109C0CE012196F6010995B4
:10078000F70181937F010150104001151105A1F778
:10079000CDB7DEB7E8E00C948122A0E0B0E0E3ED55
:1007A000F3E00C946522EC017B018A01690109C028
:1007B000CE012196F70161917F01F6010995015063
:1007C000104001151105A1F7CDB7DEB7E8E00C9494
:1007D0008122DF92EF92FF920F931F93D72E7A011F
:1007E0008C01FA010995C80101966D2DF701099553
:1007F0001F910F91FF90EF90DF900895109290015C
:1008000081E991E065E044E00E942E1C8AEA91E0D3
:1008100061E971E044E00E94311982EC91E06DE100
:1008200044ED0E94641289E592E00E947911809162
:10083000420190914301009719F480E090E001C0DB
:10084000049690934701809346010895AF92BF921A
:10085000CF92DF92EF92FF920F931F93DF93CF938C
:1008600000D000D0CDB7DEB7A89582EC91E00E9411
:100870003214882329F080E090E060E00E94620F4B
:100880008AEA91E06AE00E94C416882309F47FC0D6
:100890006E010894C11CD11CAC2C35C08AEA91E0D1
:1008A0006B2D0E94F5147B018C0120E030E040E0CC
:1008B0005FE30E94CF1F0E949F20F60161936F01AA
:1008C000809142019091430160E071E00E94DC0957
:1008D00080914201909143016B2D4AE050E00E94CB
:1008E0005909809142019091430166E071E00E94B4
:1008F000DC098091420190914301B801A70122E0F7
:1009000030E00E94C30ABC2CBA188091C101B8160D
:1009100028F20BC082EC91E00E943214882329F067
:1009200080E090E060E00E94620F82EC91E00E9423
:100930004F12009779F3FC0184E081938E010F5FE1
:100940001F4F9601201B310BCF01B801A9010E9456
:10095000A1030894C11CD11C6C2D601B82EC91E09A
:1009600041E00E94EB1464E670E080E090E00E94B9
:1009700072058091A6029091A70201969093A7021A
:100980008093A602039719F480E00E9442110F9011
:100990000F900F900F90CF91DF911F910F91FF90CB
:1009A000EF90DF90CF90BF90AF9008950F931F937B
:1009B00064E670E080E090E00E94720509E313E0D5
:1009C000C80140E051EE60E070E00E949A0664E6E3
:1009D00070E080E090E00E947205C80165E870E078
:1009E0000E94A50884E491E00E94FB0F60914201FF
:1009F0007091430181E991E00E94EF198093C10158
:100A00008EE891E06AE070E00E94D60A809142018F
:100A10009091430168E670E00E94A5082FE088E10C
:100A200090E00FB6F894A895809360000FBE2093D5
:100A300060001F910F9108951F920F920FB60F92B1
:100A400011242F933F938F939F93AF93BF938091E4
:100A5000AC029091AD02A091AE02B091AF02309184
:100A6000B0020196A11DB11D232F2D5F2D3720F05F
:100A70002D570196A11DB11D2093B0028093AC02A9
:100A80009093AD02A093AE02B093AF028091A80202
:100A90009091A902A091AA02B091AB020196A11D6A
:100AA000B11D8093A8029093A902A093AA02B093CB
:100AB000AB02BF91AF919F918F913F912F910F907A
:100AC0000FBE0F901F9018958FB7F8942091AC022D
:100AD0003091AD024091AE025091AF028FBFB9018B
:100AE000CA0108959B01AC017FB7F8948091A802D8
:100AF0009091A902A091AA02B091AB0266B5A89B01
:100B000005C06F3F19F00196A11DB11D7FBFBA2F1F
:100B1000A92F982F8827860F911DA11DB11D62E076
:100B2000880F991FAA1FBB1F6A95D1F7BC012DC062
:100B3000FFB7F8948091A8029091A902A091AA020F
:100B4000B091AB02E6B5A89B05C0EF3F19F0019646
:100B5000A11DB11DFFBFBA2FA92F982F88278E0F77
:100B6000911DA11DB11DE2E0880F991FAA1FBB1F97
:100B7000EA95D1F7861B970B885E9340C8F2215007
:100B800030404040504068517C4F211531054105AF
:100B9000510571F60895019739F0880F991F880F54
:100BA000991F02970197F1F70895789484B58260B0
:100BB00084BD84B5816084BD85B5826085BD85B501
:100BC000816085BDEEE6F0E0808181608083E1E8B0
:100BD000F0E01082808182608083808181608083E8
:100BE000E0E8F0E0808181608083E1EBF0E08081EB
:100BF00084608083E0EBF0E0808181608083EAE7BD
:100C0000F0E0808184608083808182608083808145
:100C1000816080838081806880831092C100089504
:100C200008951F920F920FB60F9211242F933F93A6
:100C30004F938F939F93EF93FF938091C00082FD1A
:100C40001DC04091C6002091F1023091F2022F5F49
:100C50003F4F2F7330708091F3029091F402281768
:100C6000390771F0E091F102F091F202EF54FD4F7B
:100C700040833093F2022093F10202C08091C600BB
:100C8000FF91EF919F918F914F913F912F910F90F5
:100C90000FBE0F901F901895E0914503F091460309
:100CA000E05CFF4F8191919120813181821B930BF8
:100CB0008F739070892B11F00E94100608951F9277
:100CC0000F920FB60F9211242F933F938F939F9300
:100CD000EF93FF93209135033091360380913703D2
:100CE000909138032817390731F48091C1008F7D26
:100CF0008093C10014C0E0913703F0913803EB50AA
:100D0000FD4F2081809137039091380301968F73B6
:100D1000907090933803809337032093C600FF911F
:100D2000EF919F918F913F912F910F900FBE0F9058
:100D30001F901895AF92BF92DF92EF92FF920F93A0
:100D40001F93CF93DF93EC017A018B01DD244030B8
:100D500081EE580780E0680780E0780711F0DD2415
:100D6000D39491E0A92EB12CEC89FD89DD2069F0A6
:100D7000C50108A002C0880F991F0A94E2F780837A
:100D800060E079E08DE390E005C0108260E874E8EF
:100D90008EE190E0A80197010E943322215030405B
:100DA00040405040569547953795279580E1203033
:100DB000380720F0DD2011F0DD24D6CFE889F9894D
:100DC0003083EA89FB89208319A2EE89FF8940815B
:100DD00021E030E0C9010C8C02C0880F991F0A94F1
:100DE000E2F7482B4083EE89FF894081C9010D8CD1
:100DF00002C0880F991F0A94E2F7482B4083EE89BE
:100E0000FF894081C9010E8C02C0880F991F0A9486
:100E1000E2F7482B4083EE89FF8980810F8C02C066
:100E2000220F331F0A94E2F7209528232083DF91B5
:100E3000CF911F910F91FF90EF90DF90BF90AF90F7
:100E40000895DC011C96ED91FC911D97E05CFF4F2D
:100E50002191319180819181281B390B2F73307042
:100E6000C9010895DC011C96ED91FC911D97E05C91
:100E7000FF4F20813181E054F040DF01AE5BBF4F76
:100E80008D919C9111972817390719F42FEF3FEF97
:100E900007C08D919C91E80FF91F8081282F30E0C9
:100EA000C9010895DC011C96ED91FC911D97E05C51
:100EB000FF4F20813181E054F040DF01AE5BBF4F36
:100EC0008D919C9111972817390719F42FEF3FEF57
:100ED00010C08D919C911197E80FF91F20818D9181
:100EE0009C91119701968F73907011969C938E939D
:100EF00030E0C9010895DC0191968C919197882387
:100F000039F05496ED91FC915597808186FFF9CF89
:100F100091961C920895CF93DF93EC01EE85FF85A7
:100F2000E05CFF4F20813181E054F0402F5F3F4F64
:100F30002F733070DF01AE5BBF4F8D919C91119785
:100F400028173907D1F3E05CFF4F80819181E0548D
:100F5000F040E80FF91F6083EE85FF85E05CFF4FEE
:100F600031832083EE89FF89208181E090E00F8C1E
:100F700002C0880F991F0A94E2F7282B208381E092
:100F800089A3EC89FD8980818064808381E090E081
:100F9000DF91CF91089510923C0310923B0388EEAD
:100FA00093E0A0E0B0E080933D0390933E03A093D4
:100FB0003F03B093400382E591E090933A0380931E
:100FC000390381EB92E0909346038093450385EFCC
:100FD00092E0909348038093470385EC90E09093D0
:100FE0004A038093490384EC90E090934C038093F0
:100FF0004B0380EC90E090934E0380934D0381EC83
:1010000090E09093500380934F0382EC90E0909394
:1010100052038093510386EC90E0909354038093A5
:10102000530384E08093550383E08093560387E065
:101030008093570385E08093580381E080935903A0
:101040000895CF93DF930E94D5050E94D604CCE487
:10105000D6E00E9426042097E1F30E944C06F9CFC7
:10106000CF92DF92EF92FF920F931F93CF93DF9374
:101070007C016B018A01C0E0D0E00FC0D6016D9108
:101080006D01D701ED91FC910190F081E02DC70138
:101090000995C80FD91F015010400115110571F7AE
:1010A000CE01DF91CF911F910F91FF90EF90DF90D4
:1010B000CF900895EF92FF920F931F93CF93DF93FA
:1010C0007C018B01C0E0D0E0F8010F5F1F4F6491FD
:1010D000662359F0D701ED91FC910190F081E02D4C
:1010E000C7010995C80FD91FEFCFCE01DF91CF916E
:1010F0001F910F91FF90EF900895DC01ED91FC910D
:101100000190F081E02D09950895EF92FF920F93E1
:101110001F938C01DC01ED91FC910190F081E02D99
:101120006DE009957C01D801ED91FC910190F08171
:10113000E02DC8016AE009959C012E0D3F1DC901F3
:101140001F910F91FF90EF900895EF92FF920F93F0
:101150001F937C010E945A088C01C7010E948508D8
:101160009C01200F311FC9011F910F91FF90EF903B
:101170000895CF93DF93EC016115710519F420E018
:1011800030E00FC0DB010D900020E9F71197A61B9E
:10119000B70BE881F9810280F381E02DAD0109955B
:1011A0009C01C901DF91CF9108954F925F927F9288
:1011B0008F929F92AF92BF92CF92DF92EF92FF9267
:1011C0000F931F93DF93CF93CDB7DEB7A1970FB6E1
:1011D000F894DEBF0FBECDBF2C01742ECB012230A0
:1011E00008F42AE019A231E2C32ED12CCC0EDD1E68
:1011F000822E9924AA24BB24672D752FA501940162
:101200000E94332279018A01C801B701A501940126
:101210000E94ED21472D461B0894C108D1084A3091
:1012200010F4405D01C0495CF6014083E114F10413
:101230000105110521F07E2C5F2DC801DDCFC20113
:10124000B6010E94B908A1960FB6F894DEBF0FBE92
:10125000CDBFCF91DF911F910F91FF90EF90DF9065
:10126000CF90BF90AF909F908F907F905F904F9066
:101270000895DC012115310541F4ED91FC910190B7
:10128000F081E02D642F099508950E94D5080895F6
:10129000EF92FF920F931F939A017B0100E010E001
:1012A000B801A7010E9439091F910F91FF90EF909B
:1012B0000895EF92FF920F931F939A01E62EFF2459
:1012C00000E010E0B801A7010E9439091F910F91B9
:1012D000FF90EF900895CF92DF92EF92FF920F93DD
:1012E0001F936C01E62E9A01FF2400E010E0B80184
:1012F000A7010E9439098C01C6010E948508080FC8
:10130000191FC8011F910F91FF90EF90DF90CF90B0
:101310000895CF92DF92EF92FF920F931F93CF9396
:10132000DF93EC016A017B012115310541F4E8816D
:10133000F9810190F081E02D642F09951FC02A30BA
:101340003105D1F477FF17C0E881F9810190F08170
:10135000E02D6DE209958C0144275527BA014C19FF
:101360005D096E097F09CE012AE00E94D508980127
:10137000280F391F04C02AE00E94D5089C01C9012A
:10138000DF91CF911F910F91FF90EF90DF90CF9061
:101390000895EF92FF920F931F937B019A0100270C
:1013A000F7FC0095102FB801A7010E9489091F9131
:1013B0000F91FF90EF9008950E94B90808957F92D1
:1013C0008F929F92AF92BF92CF92DF92EF92FF9255
:1013D0000F931F93CF93DF934C017A018B01722EF1
:1013E000CB01BA01A80197010E94E921882321F0CD
:1013F000C40168E071E021C0C0E0D0E0570168019D
:10140000E894D7F8C601B5012FEF3FEF4FE75FE74C
:101410000E94E921882351F4C601B5012FEF3FEF67
:101420004FE75FE70E943320181614F0C1E0D0E0C8
:10143000219739F0C4016CE071E00E94B908EC0119
:1014400093C0C801B7012FEF3FEF4FE75FE40E9461
:101450008221181654F0C801B7012FEF3FEF4FE774
:101460005FEC0E943320882324F4C40160E171E022
:10147000E4CFC801B70120E030E040E050E00E9436
:10148000332087FD03C0C0E0D0E00EC0D401ED9151
:10149000FC910190F081E02DC4016DE20995EC0111
:1014A00017FB109517F9109520E030E040E05FE35E
:1014B000DD240BC0CA01B90120E030E040E251E474
:1014C0000E9437209B01AC01D394D71498F3C80134
:1014D000B7010E94CF1F5B016C010E94A4207B0119
:1014E0008C01C401B801A7012AE030E00E9439094B
:1014F000C80FD91F772039F0C40164E171E00E9460
:10150000B908C80FD91FC801B7010E94D0209B019C
:10151000AC01C601B5010E94CE1F24C020E030E01E
:1015200040E251E40E9486217B018C010E949F20B1
:101530005B016C01CC24B7FCC094DC2CC401B60167
:10154000A5012AE030E00E948909C80FD91FC60111
:10155000B5010E94D2209B01AC01C801B7010E94D5
:10156000CE1F7A947720D1F6CE01DF91CF911F91D3
:101570000F91FF90EF90DF90CF90BF90AF909F9032
:101580008F907F900895EF92FF920F931F937C01AD
:101590000E94DF098C01C7010E948508080F191FEE
:1015A000C8011F910F91FF90EF9008950F931F9323
:1015B000CF93DF938C01EB0180E06115710509F099
:1015C00081E0F8018283882341F00E94640521971D
:1015D000C60FD71FF801D183C083DF91CF911F9130
:1015E0000F910895EF92FF920F931F93CF93DF9384
:1015F000EC017B018A81882311F400E00FC008818F
:1016000019810E946405C801861B970B2AEE81365A
:10161000920710F400E006C0082F0195CE01B70133
:101620000E94D60A802FDF91CF911F910F91FF90DA
:10163000EF900895782FE89865B121E030E040E020
:1016400050E000904C0104C0220F331F441F551F6F
:101650000A94D2F7322F822F8095862385B99EBDBA
:101660000DB407FEFDCF4EB57EBD0DB407FEFDCF18
:101670002EB5942F80E045B1342B35B9E89A30E08F
:10168000282B392BC90108950E941A0B08958091C7
:101690005B0390915C038F7090935C0380935B037A
:1016A00080915B0390915C03886090935C038093CE
:1016B0005B0380915B0390915C030E941A0B089579
:1016C0008091B203873009F059C09091B6039923F5
:1016D00099F08091B503891728F48091B503873478
:1016E00008F44CC084E08093B20381E090E09093D2
:1016F0006303809362039AC0809166032091B503CF
:1017000090E0049630E08217930724F08091B503AF
:101710008734A0F184E08093B20380916603833420
:1017200030F081E090E090936303809362038091B6
:10173000650386FF12C08091B103282F30E0C901F4
:101740008F7190704F9749F08091650390E08227E8
:1017500093278F719070892B89F480916203909107
:101760006303892B09F056C0E091AF03F091B003F9
:10177000309709F44FC080E0099558C08091B203BA
:10178000843011F080E00895109266038091660322
:101790008093B5038FEF9FEF909363038093620371
:1017A0002091B3032223D9F08227282F22952827BE
:1017B000022E269526952025022E26952025277077
:1017C000082E892F269507942795902D8227069419
:1017D000279590258227909363038093620387E087
:1017E0008093B20381E08093600383EA94E90E94CE
:1017F0001A0B80915B0390915C03886D90935C035E
:1018000080935B0380915B0390915C030E941A0BB1
:1018100080E008958FEF9FEFAFEFBFEF8093AB03B2
:101820009093AC03A093AD03B093AE0381E0089511
:101830000F931F93082F10E0C801966C0E941A0B9B
:1018400098012F7730702F5F3F4F442737FD409529
:10185000542F6BEF72E485E090E00E943322CA01BE
:10186000B901000F012F001F110B980143E0220F57
:10187000331F4A95E1F7201B310B2F5F3F4F442761
:1018800037FD4095542F0E94332293E0569547959B
:10189000379527959A95D1F72D573C4F4F4F5F4F6E
:1018A000CA01B90124E833E040E050E00E9433224D
:1018B000209361031F910F9108958091B2038430AA
:1018C00069F08091B203873059F48091B503882381
:1018D00039F40E94470B84E08093B20381E00895BD
:1018E00080E00895982F86FD05C0907E8091B10319
:1018F0008F71980F90936503E091AF03F091B0035F
:10190000309711F081E009958FEF9FEF909363037B
:101910008093620380916203909163032091B303EB
:101920008227282F22952827022E269526952025C6
:10193000022E269520252770082E892F269507949C
:101940002795902D8227069427959025822790939E
:1019500063038093620388E08093B20380915B030A
:1019600090915C03886390935C0380935B03809108
:101970005B0390915C030E941A0B0895DF92EF9233
:10198000FF920F931F937B018C01DD2405C0D3943C
:1019900016950795F794E7948FEFE816F104010583
:1019A000110509F0A0F780915B0390915C0381FF22
:1019B0000FC080915B0390915C038D7F90935C03DB
:1019C00080935B0380915B0390915C030E941A0BF0
:1019D000E114F10401051105B9F0C701906E3D2D28
:1019E00020E0822B932B0E941A0B80915B03909135
:1019F0005C03826090935C0380935B0380915B0344
:101A000090915C030E941A0B1F910F91FF90EF9031
:101A1000DF900895E89885B121E030E040E050E0A3
:101A200000904C0104C0220F331F441F551F0A941D
:101A3000D2F7322F922F9095982395B91EBC0DB4F2
:101A400007FEFDCF6EB51EBC0DB407FEFDCF2EB553
:101A5000962F80E0622F70E0682B792B77FF0FC004
:101A60008091B203873059F48CB581608CBD1EBC67
:101A70000DB407FEFDCF2EB58CB58E7F8CBD85B124
:101A8000382B35B9E89A70935E0360935D038091BB
:101A90005D0390915E0397FFECC08091B2038730A5
:101AA00009F082C08091B503882371F49091B3034B
:101AB000992351F08091B503E82FF0E0EC59FC4FE9
:101AC00090838F5F8093B5038091B503E82FF0E09A
:101AD000EC59FC4F20838F5F8093B50380916203A4
:101AE000909163038227282F22952827022E26957E
:101AF00026952025022E269520252770082E892F31
:101B0000269507942795902D822706942795902552
:101B100082279093630380936203209160032330B4
:101B200040F58091B50390E060916103029770E009
:101B30000E942022892BE9F480915D0390915E033D
:101B4000E22FF0E090FF04C0E25AFE4F808104C013
:101B5000E25AFE4F808182958F70809360038330BC
:101B600040F490E0880F991F0196806A94690E9462
:101B70001A0B9091B603992329F08091B503891728
:101B800080F40AC0809166032091B50390E004962A
:101B900030E0821793072CF08091B503873408F466
:101BA00068C00E94470B65C08091B20387FF2EC0BA
:101BB000E09166038091B2038F5F8093B2038150FE
:101BC000ED5FE80FF0E0EC59FC4FE081809162039B
:101BD000909163038E27282F22952827022E269581
:101BE00026952025022E269520252770082E892F40
:101BF000269507942795902D822706942795902562
:101C0000822790936303809362032EC08091B20376
:101C10008F5F8093B2038150833019F184302CF4AC
:101C2000882399F08130F9F416C08B3019F08C308C
:101C3000D1F402C0EDE218C0E091B30390916603C5
:101C40008EEF891B8093B2030FC080916203909145
:101C50006303E82F09C08091620390916303E92F29
:101C600003C00E94470BEAEA8E2F90E0986B0E9417
:101C70001A0B80915D0390915E0396FF03C086E08E
:101C80008093B20380915D0390915E0394FF09C03D
:101C900060E070E080E090E00E94BE0C81E0809304
:101CA0005F0380915D0390915E0395FF05C00E94E4
:101CB000470B84E08093B20308951F93182F40933D
:101CC000660327E633E0C90150E00E94A103812F9B
:101CD0000E94720C1F9108958091B10390E08F7162
:101CE0009070892B41F080E06AE07DE040E050E0B8
:101CF0000E94861E089580E00E94A91E08951F93E9
:101D00008093B1034093B3036093B4030E946C0EBD
:101D10001092B603E89885E092E890935C03809374
:101D20005B0380915B0390915C030E941A0B80918E
:101D3000B40390E074E0880F991F7A95E1F7876CFF
:101D400090680E941A0B80E496EA0E941A0B86E0C3
:101D50000E94180C82EA94E90E941A0B8CEA92EC19
:101D60000E941A0B1091B303112341F083E89AECFF
:101D70000E941A0B812F90E09E6C06C08BE89AECB3
:101D80000E941A0B8DE29EEC0E941A0B83E894ECE1
:101D90000E941A0B80E598E90E941A0B87E79CECD9
:101DA0000E941A0B80E090EE0E941A0B80E098ECE3
:101DB0000E941A0B89E490EC0E941A0B84E0809335
:101DC000B203E89A1F91089525B181E090E0A0E068
:101DD000B0E000904C0104C0880F991FAA1FBB1FE0
:101DE0000A94D2F7282B25B924B1822B84B98AE032
:101DF00061E00E947A1F8AE061E00E943B1F8BE055
:101E000061E00E943B1F8CE060E00E943B1F8DE080
:101E100061E00E943B1F80E58CBD8DB581608DBD6A
:101E200082E060E00E943B1F82E061E00E947A1F36
:101E30000895FF920F931F93182F062FF42E80936F
:101E4000B1034093B3036093B4030E94E40E0E9475
:101E50006C0E82E89AEC0E941A0B80E09EEF0E94C2
:101E60001A0B85E08093B20383B7817F06C083B7E6
:101E7000816083BF889583B78E7F83BF8091B203D3
:101E80008530A9F3812F602F4F2D0E947F0E809106
:101E9000B1031F910F91FF9008959C01F999FECF16
:101EA00032BD21BDF89A80B508959C01F999FECF05
:101EB0001FBA32BD21BD60BD0FB6F894FA9AF99AE7
:101EC0000FBE0895CF93DF93EC01462F009721F4C6
:101ED00040916603C7E6D3E04423F9F038812091AE
:101EE000B903E091B703F091B80390E014C0A19159
:101EF000B19112968C911297831761F4ED91FC9138
:101F00001197219641500280F381E02DCD01BE0151
:101F1000099503C09F5F921750F3DF91CF91089509
:101F20001F93182F5091B903A091B703B091B80334
:101F300020E230E090E047C0ED91FD918281438145
:101F4000811709F03DC0C90150E025E53FE00E943E
:101F5000CD034091BA035091BB03FA01329720E0C0
:101F600030E06FEF7FEF21C0F999FECF205E3F4F49
:101F700032BD21BDF89A80B56827862F82958627C5
:101F8000082E869586958025082E86958025877053
:101F9000062E672F869507948795702D68270694DF
:101FA0008795702568272F5130402E173F0708F47A
:101FB000DBCFCA014E9645E55FE00E94E90319C0F8
:101FC000240F311D9F5F951708F4B6CF89E393E086
:101FD00065EE70E00E945A0889E393E0612F4AE0C1
:101FE00050E00E94590989E393E06AEC70E00E9496
:101FF000A5081F9108958F929F92AF92BF92DF9292
:10200000EF92FF920F931F93DF93CF93CDB7DEB77D
:10201000C054D0400FB6F894DEBF0FBECDBF5C01F8
:1020200020E0322F3F5FE22FF0E0EE0FFF1FEA0DBE
:10203000FB1D80819181892B11F0232FF2CF2093FA
:10204000B903B092B803A092B70389E393E067E6BF
:1020500071E00E945A0889E393E06091B9034AE075
:1020600050E00E94590989E393E06DE571E00E9418
:102070005A081092BB031092BA03EE244EC00E2DE4
:1020800010E0F801EE0FFF1FEA0DFB1D0190F0813B
:10209000E02DF38080E48F15A8F589E393E00E949A
:1020A000850889E393E06DE371E00E945A080F5FB1
:1020B0001F4F89E393E0B8014AE050E00E94C9094C
:1020C00089E393E06DE271E00E945A0889E393E0AE
:1020D0006F2D4AE050E00E94590989E393E067E2DE
:1020E00071E00E945A0889E393E060E470E04AE0FE
:1020F00050E00E94C90989E393E061E271E00E9427
:10210000A5080AC08091BA039091BB038F0D911D61
:102110009093BB038093BA03E3948091B903E816CC
:1021200008F4ADCF6091BA037091BB036E5F7F4F2F
:102130007093BB036093BA0389E393E04AE050E0F5
:102140000E94480989E393E06AE171E00E94A508D2
:102150006091BA037091BB0320E030E04FEF5FEF76
:1021600021C0F999FECF205E3F4F32BD21BDF89AC4
:1021700080B54827842F82958427082E86958695DA
:102180008025082E869580258770042E452F8695FC
:1021900007948795502D4827069487955025482702
:1021A0002F5130402617370708F4DBCF452B01F1BC
:1021B00089E393E064E071E00E94A50810E013C099
:1021C000E12FF0E0EE0FFF1FEA0DFB1DA081B181B2
:1021D000ED91FC9111970190F081E02DCD0160E02F
:1021E00070E009951F5F8091B903181748F337C055
:1021F00089E393E065EF70E00E94A50890E2E92E84
:10220000F12CDD244E010894811C911C24C00D2D5D
:1022100010E0000F111F0A0D1B1DD801ED91FC915C
:102220004381C401B70150E02DE43FE00E94B103B7
:10223000F801A081B181ED91FC9111970190F0819D
:10224000E02DCD01B4010995D801ED91FC91838178
:10225000E80EF11CD3948091B903D816C0F2C05C8B
:10226000DF4F0FB6F894DEBF0FBECDBFCF91DF9129
:102270001F910F91FF90EF90DF90BF90AF909F90D4
:102280008F9008951F93182F6AE070E080E090E02F
:102290000E947205112329F480E090E0A0E0B0E0F4
:1022A00004C08DE090EFADEABBE080930001909315
:1022B0000101A0930201B093030128E088E190E0BE
:1022C0000FB6F894A895809360000FBE209360002D
:1022D000FFCF08950895FC01E45BFF4F1082EC549A
:1022E000F04082E0868381E0878380E081608087A0
:1022F00008950F931F938C01FC011382128285E6CF
:1023000091E0918380830C9695838483C8010E9419
:102310006B11F8018185887F856081871F910F91FE
:10232000089504970E9495110895CF93DF93EC01CF
:10233000FB01BC01685F7F4F309719F0808188876F
:1023400005C08985888782E00E94900F89E393E029
:102350006CE871E00E945A08888580FF06C089E316
:1023600093E064E871E00E945A08888581FF06C006
:1023700089E393E06FE771E00E945A08888582FF45
:1023800006C089E393E069E771E00E945A088885F6
:10239000882331F489E393E060E771E00E945A08F2
:1023A00089E393E00E948508DF91CF9108950F9310
:1023B0001F93CF93DF93EC018C01045B1F4FD80177
:1023C0008C91FE01E80FF11D1286888580FF16C0F2
:1023D000BE01665F7F4F89E393E00E94DC09F8014C
:1023E0008081882359F0FE01E80FF11D81858A3034
:1023F00029F489E393E06DE00E947D08888582FFDF
:1024000022C08091BC038130F1F082EC91E00E9407
:102410004F120097C1F0FC0182E081938E01045BB2
:102420001F4FD8014C919E01265F3F4FCF01B9014C
:1024300050E00E94A103F80160816F5F82EC91E09F
:1024400041E00E94EB14C45BDF4F1882DF91CF9113
:102450001F910F9108951F93CF93DF93EC01162FD7
:10246000C45BDF4F8881CC54D040813418F0CE015A
:102470000E94D711DE01A45BBF4F8C91FE01E80FD3
:10248000F11D12878F5F8C931A3019F4CE010E94D0
:10249000D71181E090E0DF91CF911F910895FC0169
:1024A000E457FF4F9081EC58F040923018F020E054
:1024B00030E008C084E4989F900111242A5F3F4FC8
:1024C0002E0F3F1FC9010895FC0189E791E0918318
:1024D00080839091C503992371F08091C60388236E
:1024E00051F08F3140F4EC56FF4F9083E459F040A7
:1024F0008093BC0307C0EC56FF4F4083E459F04083
:102500006093BC0381E08283838308950895FF92E2
:102510000F931F938C01F62E89E393E062EC71E038
:102520000E945A0889E393E06091BC034AE050E0BE
:102530000E94590989E393E067EB71E00E945A0811
:102540000C561F4F89E393E0F80160814AE050E0A8
:102550000E94590989E393E060EB71E00E945A08F8
:1025600089E393E06F2D4AE050E00E945909809181
:10257000BC0363E0F80140810E94190FF2E0FF16EE
:1025800021F083E0F81611F50FC089E393E061EACA
:1025900071E00E94A50887E598E90E94440B82EB50
:1025A00094E90E94440B16C089E393E068E971E066
:1025B0000E94A50881E196EC0E94440B81EC94E90D
:1025C0000E94440B80E298E90E94440B89E393E067
:1025D0000E94850883E00E94161F85E060E00E944B
:1025E0003B1F1F910F91FF900895AF92BF92CF9222
:1025F000DF92EF92FF920F931F93DF93CF93CDB7AC
:10260000DEB76C01ADB6BEB68B017B0161157105FD
:1026100079F089E393E067ED71E00E945A0889E35D
:1026200093E0F80160814AE050E00E946B090DC020
:102630000F92EDB6FEB60894E11CF11C81E0EDB7F7
:10264000FEB78183B7010E94900FC601F701608138
:102650000E9487120FB6F894BEBE0FBEADBECF91DA
:10266000DF911F910F91FF90EF90DF90CF90BF907F
:10267000AF9008950F931F938C0185E00E94191F5E
:102680000A561F4F8C529140959587959595879541
:10269000F80180831F910F910895EF92FF920F939D
:1026A0001F93CF93DF93EC01C457DF4F8881CC5841
:1026B000D040882309F47DC01C81C357DF4F888137
:1026C000CD58D04090E007970CF01F7DBE016A5FA7
:1026D0007F4F812F4D810E945D0E89E393E060EE74
:1026E00071E00E945A08812F90E030E2E32EF12C35
:1026F000E822F92215FD03C066E171E002C06FE136
:1027000071E089E393E00E94DC0989E393E068E2E9
:1027100071E00E94DC098E0103571F4F89E393E0AB
:10272000F80160814AE050E00E94590989E393E092
:102730006AE271E00E94DC0989E393E06E8140E186
:1027400050E00E94590989E393E06EE271E00E9433
:10275000DC0989E393E06D814AE050E00E946B0957
:10276000EF28D9F4C457DF4F8881CC58D04082304D
:1027700050F0DE011496FE01E85BFF4F84E4019007
:102780000D928150E1F7FE01E457FF4F80818150A7
:102790008083C357DF4F18820CC0F80180818F5FA0
:1027A00080830E946405C257DF4F688379838A83E0
:1027B0009B83DF91CF911F910F91FF90EF90089530
:1027C000EF92FF920F931F93CF93DF93EC0142E9B7
:1027D000E42EF12CE80EF91EF70180818823A1F187
:1027E0000E945D0C882381F18E010D561F4FF70169
:1027F0008081B80141E00E945D0EF7011082F8016E
:10280000108229C0C357DF4F8881CD58D04088231C
:1028100099F00E946405C257DF4F288139814A81AF
:102820005B81CE58D0402C593F4F4F4F5F4F6217BE
:1028300073078407950778F00E945D0C882359F090
:10284000CE010E944D1307C0C457DF4F8881CC587A
:10285000D0408823B9F6DF91CF911F910F91FF905F
:10286000EF900895CF93DF93EC010E94600B8823D3
:1028700009F473C08091620390916303892B09F07E
:1028800068C08091650387FD1DC0CE010E943A1388
:102890008091650385FF13C0909165039F718091BE
:1028A000BC03981711F4892F02C0892F8064CE567B
:1028B000DF4F80688883249688812397888380915E
:1028C00067034FC08091650385FD47C0CE010E941C
:1028D0003A132091650330E02F7130708091BC0372
:1028E00090E028173907C9F5C457DF4F8881CC58C5
:1028F000D040882391F1C357DF4F8881CD58D04015
:10290000882359F180916603813011F080E002C084
:1029100080916703CB56DF4F888329978881CC58F5
:10292000D040823050F0DE011496FE01E85BFF4F8C
:1029300084E401900D928150E1F7FE01E457FF4FCE
:10294000808181508083C357DF4F1882CD58D0409B
:1029500004C08091620390916303CE010E94E01352
:1029600080E0DF91CF910895CF93DF93EC01DC01FC
:10297000A457BF4F2C91223058F530E084E490E00A
:10298000289FF001299FF00D389FF00D1124EC0FC6
:10299000FD1F65838C9190E0FC0124E0EE0FFF1F8A
:1029A0002A95E1F7E80FF91F3196EE0FFF1FEE0FA2
:1029B000FF1FEC0FFD1F40838C918F5F8C93813044
:1029C00039F40E945D0C882319F0CE010E944D134A
:1029D000DF91CF9108959C01411140E28091BC03A9
:1029E000482BC9010E94B4140895FC018281681724
:1029F00028F070E060E090EC8FE70FC0862F90E049
:102A0000880F991F880F991F0284F385E02DE80F26
:102A1000F91F7081618192818381272F362F492F81
:102A2000582FB901CA010895AF92BF92CF92DF9299
:102A3000EF92FF920F931F93DF93CF93CDB7DEB743
:102A4000AA970FB6F894DEBF0FBECDBFFC010BA353
:102A50001CA32DA33EA34FA358A769A77AA7019053
:102A6000F081E02DDE01559634968EE001900D92B6
:102A70008150E1F78E010B5E1F4FC8010E946F1D50
:102A8000C801BE016D5D7F4F0E944E1DC8016EEBF7
:102A900040E00E94091D49E0E42EF12CEC0EFD1EE1
:102AA0005801C701DE2CC92E8E010E5E1F4FC501D5
:102AB0000E94B81CF70181937F01E017F107B9F775
:102AC0008D2D9C2D68E00E94731C9989891769F5EA
:102AD0002985222319F48A85882339F18E858F3F31
:102AE00021F58889803109F59A8580E0422F50E0F0
:102AF000482B592BDE011196EDE7F1E088E00190BB
:102B00000D928150E1F7ED85F0E0E076F07034E071
:102B1000F695E7953A95E1F7EC0FFD1F218132819B
:102B2000209530952423352302C020E030E8C901E8
:102B3000AA960FB6F894DEBF0FBECDBFCF91DF913E
:102B40001F910F91FF90EF90DF90CF90BF90AF90CB
:102B500008958F929F92AF92BF92CF92DF92EF92A1
:102B6000FF920F931F93CF93DF93EC01D22EC32ECE
:102B7000B42EA52E962E872E0E9414159C0180E857
:102B80002030380751F5CE012D2D3C2D4B2D5A2DDF
:102B9000692D782D0E9414159C0180E8203038079B
:102BA000E1F4CE012D2D3C2D4B2D5A2D692D782D84
:102BB0000E9414159C0180E82030380771F4CE0182
:102BC0002D2D3C2D4B2D5A2D692D782D0E9414153D
:102BD0009C0180E82030380701F185E02035380776
:102BE000E1F0B901882777FD8095982F0E94D220C7
:102BF00020E030E040E85DE30E94862126E636E6EC
:102C000046EE5FE30E94862120E030E040E052E49F
:102C10000E94CF1FE62F692F04C0E0E070E080EC37
:102C20006FE72E2F372F482F562FB901CA01DF919A
:102C3000CF911F910F91FF90EF90DF90CF90BF90B9
:102C4000AF909F908F9008950F931F93DF93CF9332
:102C5000CDB7DEB72E970FB6F894DEBF0FBECDBF4F
:102C6000FC010190F081E02DDE01119634968EE09A
:102C700001900D928150E1F78E010F5F1F4FC80147
:102C80000E946F1DC8010E94491DC80164E441E013
:102C90000E94091D2E960FB6F894DEBF0FBECDBF61
:102CA000CF91DF911F910F910895DF92EF92FF92E4
:102CB0000F931F93DF93CF93CDB7DEB766970FB611
:102CC000F894DEBF0FBECDBFFC010F87188B298B98
:102CD0003A8B4B8B5C8B6D8B7E8BDE2C0190F08165
:102CE000E02DDE01119634968EE001900D92815018
:102CF000E1F78E010F5F1F4FC8010E946F1D6FE04B
:102D0000E62EF12CEC0EFD1EC801B7010E944E1DEF
:102D1000C8016EE440E00E94091DC80160E040E087
:102D20000E94091DC80160E040E00E94091DD29484
:102D3000DD0C50EED522DA94C8016D2D40E00E94E2
:102D4000091DC8010E946F1DC801B7010E944E1DD8
:102D5000C80168E441E00E94091D6AE070E080E07B
:102D600090E00E947205C8010E94581C66960FB63A
:102D7000F894DEBF0FBECDBFCF91DF911F910F91B1
:102D8000FF90EF90DF9008952F923F924F925F92C5
:102D90006F927F928F929F92AF92BF92CF92DF926B
:102DA000EF92FF920F931F93CF93DF936C01762ED8
:102DB0000E9660E67AEE0E94F20A882309F455C066
:102DC000D60151968D919C915297019652969C9363
:102DD0008E935197803F910508F447C052961C92FC
:102DE0001E92519760E070E040E050E010E834C07F
:102DF000E901D6015396ED91FC915497E40FF51F2C
:102E00009E0121503040DF01AC0FBD1FE20FF31FC8
:102E100080818C93D6015596ED91FC915697E40FE5
:102E2000F51FCE0FDF1FE20FF31F8081888321156E
:102E30003105F1F65396ED91FC915497E40FF51F8F
:102E400010835596ED91FC915697E40FF51F108372
:102E50006F5F7F4F4A5F5F4FE6018A8190E068179E
:102E600079071CF4C5E0D0E0C4CF0E9464054B0193
:102E70005C01F6018581882309F0A7C0772009F459
:102E800081C086819781A085B1850097A105B10594
:102E900009F478C085017401E81AF90A0A0B1B0BC2
:102EA000672D70E080E090E028EE33E040E050E0F5
:102EB0000E94ED216E157F058007910708F462C01E
:102EC0006DC1CF016F2D0E943619223219F02832C0
:102ED00009F04EC0D6011396ED91FC911497EF0DB9
:102EE000F11D8081871509F441C07082872D90E023
:102EF0009C01220F331F220F331F1A96ED91FC9174
:102F00001B97E20FF31F20823182428253828C0191
:102F1000000F111F080F191F000F111F53962D913D
:102F20003C915497200F311FC90160E870E046E0E2
:102F300050E00E94AA03E6012D893E89200F311F2F
:102F4000C90160E870E046E050E00E94AA03888171
:102F500099816F2D0E943619FC01C60189019A01E1
:102F6000AB01BF01EAE0EE2E0E945516739408C033
:102F7000D6011396ED91FC911497EF0DF11D60822F
:102F8000F3940EC07724FF240F2EF0E02F2EF0E0F4
:102F90003F2EF0EC4F2EFFE75F2EF02D66246A9453
:102FA000E601E881F9818389F81608F48ACF772051
:102FB00009F4F4C0C6010E942416F60186829782A5
:102FC000A086B18681E08583E9C0813009F0E6C042
:102FD000E6018E819F81A885B985881A990AAA0A77
:102FE000BB0AEDEB8E169104A104B10408F4D6C01F
:102FF000992441E0642E712C0F2EF0E02F2EF0E08A
:103000003F2EF0EC4F2EFFE75F2EF02DBBC0E60108
:10301000EB81FC81E90DF11DB080EFEFBE1609F4E4
:10302000B0C0CD01692D0E943619FC01C60189018D
:103030009A01AB01BF010E94A9157B018C01E3013C
:10304000092C02C0CC0FDD1F0A94E2F7A8019701FA
:103050000E94E921D6011C962D913C911D97882351
:10306000D9F0CE0182239323892B81F08B2D90E020
:10307000880F991F880F991FE601EA85FB85E80FE5
:10308000F91F20823182428253827BC02C2B3D2B40
:10309000F6013587248775C0CE0180959095282349
:1030A0003923D6011D963C932E931C97AB2CBB2441
:1030B000C501880F991F880F991F1A96ED91FC91F1
:1030C0001B97E80FF91FE082F18202831383C80186
:1030D000B70120E030E040E050E00E9482218823E8
:1030E0004CF0C801B70120E030E040E05FE30E940F
:1030F000CF1F08C0C801B70120E030E040E05FE327
:103100000E94CE1F0E949F20162F1855E501CC0F5C
:10311000DD1FCA0DDB1DCC0FDD1FD6015396ED91CF
:10312000FC915497EC0FFD1F8581803859F4212FB5
:10313000332727FD3095CF01B90146E050E00E94CA
:10314000AA0306C08081803811F018170CF4108390
:10315000D6015596ED91FC915697EC0FFD1F858198
:10316000803859F4212F332727FD3095CF01B9013D
:1031700046E050E00E94AA0304C0808181170CF44D
:1031800010839394E601A881B98153968C9153974B
:10319000981608F43CCF1D8281E001C080E0DF91E9
:1031A000CF911F910F91FF90EF90DF90CF90BF9044
:1031B000AF909F908F907F906F905F904F903F90D7
:1031C0002F9008950F931F93CF93DF93EC018B0102
:1031D00079836883413108F040E14A831D821D866E
:1031E0001C86F801828990E061E070E00E94830211
:1031F0008B839C83F80142896FEF70E050E00E945E
:10320000AA038A8190E064E070E00E9483028A87CA
:103210009B878A8190E066E070E00E9483028B8B3E
:103220009C8B2A8116E0219F9001112460E870E0B8
:10323000A9010E94AA038A8190E066E070E00E94E2
:1032400083028D8B9E8B2A81219F9001112460E83F
:1032500070E0A9010E94AA03DF91CF911F910F9105
:103260000895FC01108A0E94E2180895FC018389E8
:10327000681748F020E030E040E050E060E070E0A7
:1032800080E090E00895862F90E033E0880F991F4A
:103290003A95E1F70488F589E02DE80FF91F2081C0
:1032A000318142815381648175818681978108953E
:1032B000EF92FF921F93CF93DF93EC017B01611597
:1032C0007105B1F1EC89FD8980819181892B928111
:1032D000892B9381892B9481892B9581892B9681C8
:1032E000892B9781892B21F510E01FC0A12FB0E019
:1032F000CD0143E0880F991F4A95E1F7EC89FD89DC
:10330000E80FF91FAA0FBB1FAA0FBB1FAE0DBF1DF1
:103310002D913D914D915C91208331834283538364
:1033200014821582168217821F5F8A891817F0F29D
:10333000DF91CF911F91FF90EF9008950895CF9264
:10334000DF92EF92FF920F931F93DF93CF93CDB74E
:10335000DEB728970FB6F894DEBF0FBECDBF6B0166
:10336000E982FA820B831C832D833E834F83588727
:10337000CB0160E371E00E94DC098E010F5F1F4FFB
:1033800065E0E62EF12CEC0EFD1EF801608170E088
:1033900054E0759567955A95E1F7C60140E150E014
:1033A0000E94C909F80161918F0170E06F7070701F
:1033B000C60140E150E00E94C9090E151F0529F71A
:1033C00028960FB6F894DEBF0FBECDBFCF91DF9128
:1033D0001F910F91FF90EF90DF90CF9008952F9263
:1033E0003F924F925F926F927F928F929F92AF9295
:1033F000BF92CF92DF92EF92FF920F931F93DF93D2
:10340000CF93CDB7DEB767970FB6F894DEBF0FBE88
:10341000CDBF3C012B010DB71EB71F8B0E8B9C013E
:103420002C5F3F4F3D872C87C9010E94661C1B867D
:103430001A86222433241986AAC0CE01019667E099
:103440000E94731C89809A80AB80BC80CD80DE8016
:10345000EF80F88410E020E030E040E050E060E0F1
:1034600070E08E871F87288B398B4A8B5B8B6C8B28
:103470007D8B9401A501B601C70108E30E940402F7
:103480001E85121709F083C02F85231709F07FC00E
:103490003889341709F07BC04989451709F077C08E
:1034A0005A89561709F073C06B89671709F06FC006
:1034B0007C89781709F06BC08D89891709F067C07E
:1034C000D30152965C9140E020E030E029C0D30166
:1034D0005496ED91FC915597E20FF31F285F3F4FF3
:1034E00080819181A281B38188159905AA05BB05C8
:1034F000B1F480829182A282B382C482D582E682B4
:10350000F78281E090E002C0880F991F4A95E2F7A8
:10351000EA85FB85E82BF92BFB87EA8735C04F5FEF
:103520004517A8F240E020E030E02CC0D3015496CB
:10353000ED91FC915597E20FF31F285F3F4F80817B
:103540009181892B9281892B9381892B9481892B5D
:103550009581892B9681892B9781892B91F4808283
:103560009182A282B382C482D582E682F78281E010
:1035700090E002C0880F991F4A95E2F7282A392A5D
:1035800003C04F5F451790F2B985BF5FB9878C853F
:103590009D85BE016F5F7F4F0E94BA1D882309F091
:1035A0004CCF8C859D850E94661CF3018289838B9C
:1035B00041E050E004C02150D30153962C93F30115
:1035C00023892223F1F0CA01821B910933E0880F7D
:1035D000991F3A95E1F70488F589E02DE81BF90B6E
:1035E00080819181892B9281892B9381892B948170
:1035F000892B9581892B9681892B9781892BD9F2EB
:103600001FC121143104B9F1C20161E372E00E94CB
:103610005A08DD2429C0C1010D2C02C0969587955A
:103620000A94E2F780FF1FC0C2016AE371E00E94C2
:10363000DC098D2D90E023E0880F991F2A95E1F792
:10364000D3015496ED91FC915597E80FF91FE08056
:10365000F180028113812481358146815781C30124
:10366000B2010E949F19D394F3018289D81698F26F
:10367000C2010E948508CA84DB84C228D328C09472
:10368000D09481E090E0D30153960C9002C0880F53
:10369000991F0A94E2F70197C822D922C114D104D4
:1036A00009F44FC0C2016CE172E00E945A08BB24C9
:1036B00040C0C6010B2C02C0969587950A94E2F78C
:1036C00080FF36C00B2D10E083E0000F111F8A959C
:1036D000E1F7D3015496ED91FC915597E00FF11F5E
:1036E00080819181892B9281892B9381892B94816F
:1036F000892B9581892B9681892B9781892BC1F004
:10370000C2016AE371E00E94DC09D3015496ED9195
:10371000FC915597E00FF11FE080F1800281138149
:103720002481358146815781C301B2010E949F19CE
:10373000B394F3018389B81608F4BBCFC2010E9489
:103740008508EA85FB85D3015896FC93EE9357973D
:10375000C20161E172E00E945A08C20169854AE033
:1037600050E00E945909C2016CE072E00E945A08C0
:10377000C201D30153966C914AE050E00E9459096E
:10378000C20163E072E00E94A508F301828990E023
:10379000880F991F880F991F0DB71EB7081B190BAB
:1037A0000FB6F8941EBF0FBE0DBF6DB77EB76F5F2B
:1037B0007F4F40E01CC0842F90E0880F991F880F36
:1037C000991F9B01280F391F880F991FD301549609
:1037D000ED91FC915597E80FF91F80819181A281AD
:1037E000B381F90180839183A283B3834F5FD301B7
:1037F00052968C914817F8F286E00E94900F8985C6
:10380000EE89FF890FB6F894FEBF0FBEEDBF679635
:103810000FB6F894DEBF0FBECDBFCF91DF911F91E1
:103820000F91FF90EF90DF90CF90BF90AF909F905F
:103830008F907F906F905F904F903F902F90089562
:103840002A853B8522293329D30157968D919C9156
:1038500058972817390709F0D4CE73CF1F93CF9309
:10386000DF93EC01142F89E891E099838883CE01DE
:1038700004960E94501E113108F010E11A8B1B8A29
:10388000188E1F8A86E08A83812F90E0880F991F07
:10389000880F991F8B83812F90E068E070E00E9471
:1038A00083028C8B9D8B1E8ADF91CF911F9108958F
:1038B000FC01F894A181B28111969C9111978081AD
:1038C0008095982311969C9378940895FC01138613
:1038D0001586148687E090E012863197009711F0E4
:1038E0000197FACF0895DC0180E00BC0E82FF0E0EB
:1038F0008D9190E0E827F927EA5BFD4FE491615054
:103900008E2F662399F70895DF92EF92FF920F931F
:103910001F93FC01E08001811281F894F8018281FB
:10392000DE2CD0948D21828381818E29818383E056
:1039300090E00E94CB05F80181818D2181838AE08E
:1039400090E00E94CB05F8010081789485E390E037
:103950000E94CB0580E010E0FF240E211F21012BE7
:1039600009F081E01F910F91FF90EF90DF90089593
:10397000EF92FF920F931F93CF93DF937C0101E0AF
:1039800010E0C0E0D0E0C7010E94841C8111102B20
:10399000000F2196C830D105B1F7812FDF91CF916B
:1039A0001F910F91FF90EF9008951F93CF93DF9396
:1039B000FC011081C181D281912F909560FF12C0CE
:1039C000F8948A8189238A838981812B89838AE07B
:1039D00090E00E94CB058A81812B8A83789487E3CB
:1039E00090E011C0F8948A8189238A838981812B90
:1039F000898381E490E00E94CB058A81812B8A83B0
:103A0000789485E090E00E94CB05DF91CF911F91E3
:103A10000895CF92DF92EF92FF920F931F93CF936F
:103A2000DF938C01E42EFF24F394C0E0D0E0C62E97
:103A3000DD2460E08F2D90E08C219D21892B09F001
:103A400061E0C8010E94D51CFF0C2196C830D10549
:103A500081F7EE20A9F4F894D8011196ED91FC912C
:103A6000129791818C918095982391831196ED9175
:103A7000FC91129792818C918095982392837894EF
:103A8000DF91CF911F910F91FF90EF90DF90CF903A
:103A900008956CEC40E00E94091D0895EF92FF929A
:103AA0000F931F93CF93DF938C017B0165E540E07B
:103AB0000E94091DC0E0D0E0F701EC0FFD1FC80116
:103AC000608140E00E94091D2196C830D105A1F710
:103AD000DF91CF911F910F91FF90EF900895DF92AA
:103AE000EF92FF920F931F93CF93DF93FC0100811E
:103AF000C181D281F8948981D02ED0948D2189837F
:103B000078941DE7E02EFF24115059F182E090E0F7
:103B10000E94CB05888190E08E219F21892BA1F303
:103B2000F8948A818D218A838981802B8983789476
:103B300084EF91E00E94CB05F89489818D218983DF
:103B400080E590E00E94CB05888110E090E0E822BB
:103B5000F922EF2809F411E0789484EA91E00E94B8
:103B6000CB05812FDF91CF911F910F91FF90EF90A7
:103B7000DF900895AF92BF92DF92EF92FF920F9382
:103B80001F93CF93DF93EC015B018D85882309F0B0
:103B900061C0CE010E946F1D882329F41B861D86FB
:103BA0001C8690E06BC0CE0160EF40E00E94091DD2
:103BB00001E0DD24EE24FF24F394CE010E94841C56
:103BC000182FCE010E94841C113019F48130E1F4C9
:103BD00039C0181709F58B85081770F460E0FE01ED
:103BE000EE0DF11D838190E02F2D30E08223932391
:103BF000181619064CF003C060E0081729F00930C8
:103C000008F04CC00C874AC0FE01EE0DF11D838107
:103C10008F29838361E009C0612FFE01EE0DF11D44
:103C20009F2D9095838189238383CE010E94D51C8B
:103C30000F5FFF0C19F4E394FF24F39487E08E15D3
:103C400008F0BBCF013430F0DB86DD2011F581E0D8
:103C50008D871FC01B861D861C8690E0DE0120E03C
:103C600030E0F501E20FF31F13968C9113978083D8
:103C70002F5F3F4F11962830310599F7892FDF913B
:103C8000CF911F910F91FF90EF90DF90BF90AF9079
:103C900008958B818823F1F291E0E0CFD02EBDCF43
:103CA000FF920F931F938C01F62E862F60E00E94E7
:103CB0003B1F8F2D90E0FC01E858FC4FE491D801A8
:103CC000EC938C599C4FFC016491E62FF0E0EE0FD1
:103CD000FF1FE65AFC4F8591949112969C938E9308
:103CE00011971B961C921B971D961C921D971C9654
:103CF0001C92F80187E090E012863197009711F04E
:103D00000197FACF1F910F91FF900895823000F52F
:103D1000E82FF0E0EE0FFF1FE354FC4F7183608348
:103D2000882319F08130A1F408C0809169008C7F4C
:103D3000842B80936900E89A089580916900440F6C
:103D4000551F440F551F837F842B80936900E99A88
:103D50000895823080F4882319F0813021F402C064
:103D6000E89801C0E998E82FF0E0EE0FFF1FE35458
:103D7000FC4F1182108208951F920F920FB60F927E
:103D800011242F933F934F935F936F937F938F9360
:103D90009F93AF93BF93EF93FF938091BD03909157
:103DA000BE03892B29F0E091BD03F091BE03099574
:103DB000FF91EF91BF91AF919F918F917F916F9103
:103DC0005F914F913F912F910F900FBE0F901F90D9
:103DD00018951F920F920FB60F9211242F933F93B5
:103DE0004F935F936F937F938F939F93AF93BF9303
:103DF000EF93FF938091BF039091C003892B29F02B
:103E0000E091BF03F091C0030995FF91EF91BF913D
:103E1000AF919F918F917F916F915F914F913F9162
:103E20002F910F900FBE0F901F90189580934D010A
:103E30000895982F8E3008F09E50977080914D0114
:103E40008295880F880F807C892B80937C008091DD
:103E50007A00806480937A0080917A0086FDFCCF9E
:103E60002091780040917900942F80E030E0282B59
:103E7000392BC9010895CF93DF93482F50E0CA0131
:103E800088589C4FFC0134914C595C4FFA01849145
:103E9000882369F190E0880F991FFC01EA5BFC4FD1
:103EA000A591B491FC01E05BFC4FC591D4916623D0
:103EB00051F42FB7F8948C91932F909589238C937C
:103EC000888189230BC0623061F42FB7F8948C91FC
:103ED000932F909589238C938881832B88832FBF80
:103EE00006C09FB7F8948C91832B8C939FBFDF9172
:103EF000CF910895482F50E0CA0184579C4FFC0190
:103F00002491CA0188589C4FFC0194914C595C4FF4
:103F1000FA013491332309F440C0222351F12330B4
:103F200071F0243028F42130A1F0223011F514C0B2
:103F30002630B1F02730C1F02430D9F404C080918C
:103F400080008F7703C0809180008F7D80938000F8
:103F500010C084B58F7702C084B58F7D84BD09C041
:103F60008091B0008F7703C08091B0008F7D8093E7
:103F7000B000E32FF0E0EE0FFF1FE05BFC4FA591D8
:103F8000B4912FB7F894662321F48C9190958923EE
:103F900002C08C91892B8C932FBF08955058BB275A
:103FA000AA270ED075C166D130F06BD120F031F464
:103FB0009F3F11F41EF45BC10EF4E095E7FB51C185
:103FC000E92F77D180F3BA17620773078407950743
:103FD00018F071F49EF58FC10EF4E0950B2EBA2FF8
:103FE000A02D0B01B90190010C01CA01A0011124FF
:103FF000FF27591B99F0593F50F4503E68F11A16AB
:10400000F040A22F232F342F4427585FF3CF46953B
:1040100037952795A795F0405395C9F77EF41F165D
:10402000BA0B620B730B840BBAF09150A1F0FF0F27
:10403000BB1F661F771F881FC2F70EC0BA0F621F13
:10404000731F841F48F4879577956795B795F79503
:104050009E3F08F0B3CF9395880F08F09927EE0F95
:10406000979587950895D9D008F481E008950CD0EC
:104070000FC107D140F0FED030F021F45F3F19F0BE
:10408000F0C0511139C1F3C014D198F39923C9F389
:104090005523B1F3951B550BBB27AA27621773074E
:1040A000840738F09F5F5F4F220F331F441FAA1F02
:1040B000A9F333D00E2E3AF0E0E830D091505040C2
:1040C000E695001CCAF729D0FE2F27D0660F771F70
:1040D000881FBB1F261737074807AB07B0E809F052
:1040E000BB0B802DBF01FF2793585F4F2AF09E3FE7
:1040F000510568F0B6C000C15F3FECF3983EDCF3B9
:10410000869577956795B795F7959F5FC9F7880F5F
:10411000911D9695879597F90895E1E0660F771FB1
:10412000881FBB1F621773078407BA0720F0621B42
:10413000730B840BBA0BEE1F88F7E095089504D03B
:104140006894B111D9C00895BCD088F09F5790F001
:10415000B92F9927B751A0F0D1F0660F771F881FAC
:10416000991F1AF0BA95C9F712C0B13081F0C3D0C7
:10417000B1E00895C0C0672F782F8827B85F39F065
:10418000B93FCCF3869577956795B395D9F73EF40B
:1041900090958095709561957F4F8F4F9F4F0895B3
:1041A000E89409C097FB3EF49095809570956195D1
:1041B0007F4F8F4F9F4F9923A9F0F92F96E9BB2787
:1041C0009395F695879577956795B795F111F8CF03
:1041D000FAF4BB0F11F460FF1BC06F5F7F4F8F4F6E
:1041E0009F4F16C0882311F096E911C0772321F064
:1041F0009EE8872F762F05C0662371F096E8862FFC
:1042000070E060E02AF09A95660F771F881FDAF752
:10421000880F9695879597F90895990F0008550F7F
:10422000AA0BE0E8FEEF16161706E807F907C0F03C
:1042300012161306E407F50798F0621B730B840B44
:10424000950B39F40A2661F0232B242B252B21F41E
:1042500008950A2609F4A140A6958FEF811D811DBE
:10426000089597F99F6780E870E060E008959FEFF8
:1042700080EC089500240A941616170618060906FD
:10428000089500240A9412161306140605060895CC
:10429000092E0394000C11F4882352F0BB0F40F454
:1042A000BF2B11F460FF04C06F5F7F4F8F4F9F4F94
:1042B000089557FD9058440F551F59F05F3F71F016
:1042C0004795880F97FB991F61F09F3F79F087957D
:1042D0000895121613061406551FF2CF4695F1DF06
:1042E00008C0161617061806991FF1CF8695710596
:1042F000610508940895E894BB2766277727CB01CA
:1043000097F908958ADF08F48FEF08950BD0C0CF96
:10431000B1DF28F0B6DF18F0952309F0A2CFA7CFC0
:104320001124EACFC6DFA0F3959FD1F3950F50E09B
:10433000551F629FF001729FBB27F00DB11D639F57
:10434000AA27F00DB11DAA1F649F6627B00DA11DFD
:10435000661F829F2227B00DA11D621F739FB00DA3
:10436000A11D621F839FA00D611D221F749F332713
:10437000A00D611D231F849F600D211D822F762FAC
:104380006A2F11249F5750408AF0E1F088234AF0A9
:10439000EE0FFF1FBB1F661F771F881F91505040F5
:1043A000A9F79E3F510570F05CCFA6CF5F3FECF3BD
:1043B000983EDCF3869577956795B795F795E795E1
:1043C0009F5FC1F7FE2B880F911D9695879597F9F2
:1043D000089523DF880B990B0895629FD001739F86
:1043E000F001829FE00DF11D649FE00DF11D929F91
:1043F000F00D839FF00D749FF00D659FF00D9927D0
:10440000729FB00DE11DF91F639FB00DE11DF91FF3
:10441000BD01CF0111240895AA1BBB1B51E107C0A8
:10442000AA1FBB1FA617B70710F0A61BB70B881F44
:10443000991F5A95A9F780959095BC01CD010895D3
:1044400097FB092E07260AD077FD04D0E5DF06D0BA
:1044500000201AF4709561957F4F0895F6F79095B6
:1044600081959F4F0895A1E21A2EAA1BBB1BFD0147
:104470000DC0AA1FBB1FEE1FFF1FA217B307E40743
:10448000F50720F0A21BB30BE40BF50B661F771F9B
:10449000881F991F1A9469F760957095809590957B
:1044A0009B01AC01BD01CF010895EE0FFF1F0590E8
:1044B000F491E02D09942F923F924F925F926F9268
:1044C0007F928F929F92AF92BF92CF92DF92EF92A4
:1044D000FF920F931F93CF93DF93CDB7DEB7CA1B25
:1044E000DB0B0FB6F894DEBF0FBECDBF09942A8850
:1044F000398848885F846E847D848C849B84AA84F8
:10450000B984C884DF80EE80FD800C811B81AA8184
:10451000B981CE0FD11D0FB6F894DEBF0FBECDBF4F
:08452000ED010895F894FFCFAE
:1045280054656D7020003D006E616E00696E660016
:104538006F7666002E00206E6F2D41434B200020C1
:1045480020772F41434B20002300203078003A0089
:10455800307800202023003A200020002000C703E4
:1045680000005902C2010000910100000201000090
:1045780000008B0730082107520732077B073402F7
:1045880056000000002B12300895116A11FCFF003C
:10459800009111691100000000F51286120700034E
:0E45A80000010000000000000058199E1900DC
:00000001FF
