:100000000C94D2010C94FC1F0C9429200C94020235
:100010000C9402020C9402020C9402020C94020250
:100020000C9402020C9402020C9402020C94020240
:100030000C9402020C9402020C9402020C94020230
:100040000C9479050C9402020C9401070C944F0750
:100050000C9402020C9402020C9402020C94020210
:100060000C9402020C9402022A2A2A2A2A205255AF
:100070004E4E494E473A2074656D705F6E6F6465F1
:100080002E696E6F002A2A2A2A2A20534554555079
:100090003A2074656D705F6E6F64652E696E6F00D7
:1000A00000000000240027002A00000000002500B6
:1000B00028002B0000000000230026002900040473
:1000C0000404040404040202020202020303030300
:1000D00003030102040810204080010204081020DC
:1000E00001020408102000000007000201000003C4
:1000F00004060000000000000000206E6F742066FF
:100100006F756E6420696E20636F6E6669675F72DB
:1001100065616400436F6E6669673A206D6F647550
:100120006C652000206E6F7420666F756E642069A8
:100130006E20636F6E6669675F77726974650043EE
:100140006F6E6669673A206D6F64756C652000207C
:1001500020435243206D6174636865732100202041
:1001600043524320646F6573206E6F74206D617419
:100170006368210020627974657300206D617829BD
:10018000002076732E200020697320746F6F206C1E
:1001900061726765202800434F4E4649473A2074F4
:1001A000686520636F6E66696720666F72206D6F89
:1001B00064756C6520230020636F6E666967732029
:1001C00000436F6E6669673A200020214E4F4E450E
:1001D000212000207266313200206C63640020739D
:1001E000657269616C00436F6E666967204C6F676A
:1001F0003A00202031396B6270730020206C6F77D9
:1002000020545820706F77657200206D6F64653DD3
:10021000002067726F75705F69643D00436F6E66A2
:100220006967204E65743A206E6F64655F69643D4E
:1002300000436F6E6669673A20004E65743A3A640F
:100240006F53656E643A2000206465766963657358
:10025000004F775363616E206861732000206465EE
:10026000766963657300206F6620004F573A2066F9
:100270006F756E6420004F573A204D697373696E35
:100280006720646576696365733A004F573A204E7C
:10029000657720646576696365733A2020202000C5
:1002A000005EBCE2613FDD83C29C7E20A3FD1F4156
:1002B0009DC3217FFCA2401E5F01E3BD3E6082DC46
:1002C000237D9FC1421CFEA0E1BF5D0380DE3C6236
:1002D000BEE0025CDF81633D7C22C09E1D43A1FF26
:1002E0004618FAA427799BC584DA3866E5BB590716
:1002F000DB856739BAE406581947A5FB7826C49A06
:10030000653BD987045AB8E6A7F91B45C6987A24F5
:10031000F8A6441A99C7257B3A6486D85B05E7B9E5
:100320008CD2306EEDB3510F4E10F2AC2F7193CDD5
:10033000114FADF3702ECC92D38D6F31B2EC0E50C5
:10034000AFF1134DCE90722C6D33D18F0C52B0EEB5
:10035000326C8ED0530DEFB1F0AE4C1291CF2D73A5
:10036000CA947628ABF517490856B4EA6937D58B95
:100370005709EBB536688AD495CB2977F4AA481685
:10038000E9B7550B88D6346A2B7597C94A14F6A875
:10039000742AC896154BA9F7B6E80A54D7896B3565
:1003A000FE03BB0811241FBECFEFD8E0DEBFCDBFD8
:1003B0008091000180931A048091010180931B04B5
:1003C00011E0A0E0B1E0E2E8F6E402C005900D9291
:1003D000AE39B107D9F714E0AEE9B1E001C01D9222
:1003E000AA31B107E1F713E0C4EAD3E004C02297D1
:1003F000FE010E940423C03AD107C9F70E941109E7
:100400000C943F230C940000EF92FF920F93DF9324
:10041000CF93CDB7DEB760970FB6F894DEBF0FBEAF
:10042000CDBFA82F002309F461C07E010894E11C10
:10043000F11C88E0F70111928A95E9F729833A8344
:100440004B835C836D837E83AF83988780E2801BC0
:10045000E82FFF27E7FDF0954D815E816F8178855C
:10046000181684F01D861E861F86188A88279927ED
:100470008E1B9F0B04C076956795579547958A9577
:10048000D2F728C0202F332727FD3095DB01CA0182
:10049000022E04C0B695A795979587950A94D2F732
:1004A0008D879E87AF87B88B04C0440F551F661F8A
:1004B000771FEA95D2F789819A81AB81BC8104C00C
:1004C000B695A795979587952A95D2F7482B592BDE
:1004D0006A2B7B2B49875A876B877C8729853A85CE
:1004E0004B855C856D857E85AF8598898A2F609662
:1004F0000FB6F894DEBF0FBECDBFCF91DF910F9145
:10050000FF90EF9008950F931F93CF93DF93689F11
:100510008001699F100D789F100D1124C8010E9461
:100520009F02EC01009729F060E070E0A8010E94B2
:10053000AA03CE01DF91CF911F910F910895CF9320
:10054000DF93BC018230910510F462E070E0A0916D
:100550001804B0911904ED0140E050E0E0E0F0E053
:1005600021C0888199818617970769F48A819B81C8
:10057000309719F09383828304C090931904809379
:100580001804FE0134C06817790738F44115510585
:1005900019F08417950708F4AC01FE018A819B814C
:1005A0009C01E9012097E9F641155105A9F1CA011D
:1005B000861B970B049708F4BA01E0E0F0E02AC02C
:1005C0008D919C91119784179507F9F4641775071D
:1005D00081F412968D919C911397309719F0938323
:1005E000828304C09093190480931804FD0132960D
:1005F0004CC0CA01861B970BFD01E80FF91F6193E0
:10060000719302978D939C9340C0FD0182819381E9
:100610009C01D9011097A1F68091160490911704BE
:10062000892B41F480914F019091500190931704D0
:10063000809316044091510150915201411551058A
:1006400041F44DB75EB780914D0190914E01481B2A
:10065000590B2091160430911704CA01821B930B89
:100660008617970780F0AB014E5F5F4F84179507A1
:1006700050F0420F531F5093170440931604F90192
:100680006193719302C0E0E0F0E0CF01DF91CF9180
:100690000895CF93DF93009709F450C0EC0122979F
:1006A0001B821A82A0911804B0911904109709F1C5
:1006B00040E050E0AC17BD0708F1BB83AA83FE0100
:1006C00021913191E20FF31FAE17BF0779F48D919D
:1006D0009C911197280F391F2E5F3F4F3983288334
:1006E00012968D919C9113979B838A834115510596
:1006F00071F4D0931904C093180420C012968D9100
:100700009C911397AD01009711F0DC01D3CFFA0152
:10071000D383C28321913191E20FF31FCE17DF07FC
:1007200069F488819981280F391F2E5F3F4FFA01A4
:10073000318320838A819B8193838283DF91CF9150
:100740000895FB01DC0102C001900D924150504020
:10075000D8F70895DC0101C06D9341505040E0F797
:100760000895A0E0B0E0E7EBF3E00C9412237C01E5
:10077000EB018A01690109C0CE012196F6010995B4
:10078000F70181937F010150104001151105A1F778
:10079000CDB7DEB7E8E00C942E23A0E0B0E0E3EDA7
:1007A000F3E00C941223EC017B018A01690109C07A
:1007B000CE012196F70161917F01F6010995015063
:1007C000104001151105A1F7CDB7DEB7E8E00C9494
:1007D0002E23DF92EF92FF920F931F93D72E7A0171
:1007E0008C01FA010995C80101966D2DF701099553
:1007F0001F910F91FF90EF90DF9008951092A0014C
:1008000081EA91E065E044E00E946E1D8AEB91E090
:1008100061EA71E044E00E94711A81E08093D201A4
:1008200083ED91E06DE144ED0E9467138EEA92E062
:100830000E947C128091530190915401009719F409
:1008400080E090E001C00496909358018093570196
:100850000895AF92BF92CF92DF92EF92FF920F93E3
:100860001F93DF93CF9300D000D0CDB7DEB7A8950C
:1008700005C080E090E060E00E94651083ED91E0AB
:100880000E94CA158823A9F78AEB91E06AE00E94CA
:100890000418882309F4B4C07E010894E11CF11CFB
:1008A0001E2D55C08AEB91E0602F0E9435165B012A
:1008B0006C0120E030E040E05FE30E947C200E9479
:1008C0004C21F70160838091D201882311F482E1E9
:1008D00001C08D5F60E00E94AC068091D201882348
:1008E00011F483E101C0835F60E00E94AC06809157
:1008F00053019091540160E071E00E94CC0A809114
:10090000530190915401602F4AE050E00E94490A3F
:10091000809153019091540166E071E00E94CC0AED
:100920008091530190915401B601A50122E030E07D
:100930000E94B30B8091D201882311F483E101C09E
:10094000835F0894E11CF11C61E00E94AC060E2D4F
:10095000011B8091D101081708F4A4CF11C08EE8C3
:1009600093E068E071E00E94C60B83ED91E00E9485
:100970003515882329F080E090E060E00E94651042
:1009800083ED91E00E945213009749F3FC0184E04B
:1009900081938E010F5F1F4F9701201B310BCF01F9
:1009A000B801A9010E94A1030894E11CF11C6E2D5D
:1009B000601B83ED91E041E00E942B168091FB02C9
:1009C0009091FC0201969093FC028093FB020A979F
:1009D000B9F464E670E080E090E00E94CF0583ED1A
:1009E00091E00E94351568EC70E080E090E00E9494
:1009F000CF0583ED91E00E94351580E00E944512FD
:100A00000F900F900F900F90CF91DF911F910F914A
:100A1000FF90EF90DF90CF90BF90AF90089564E685
:100A200070E080E090E00E94CF058EE893E040E027
:100A300051EE60E070E00E948A0764E670E080E0BA
:100A400090E00E94CF058EE893E065E870E00E9498
:100A5000950985E591E00E94FE108091D2018823DE
:100A600011F482E101C08D5F61E00E946D0680910A
:100A7000D201882311F482E101C08D5F61E00E9400
:100A8000AC068091D201882311F483E101C0835F19
:100A900061E00E946D068091D201882311F483E108
:100AA00001C0835F61E00E94AC06609153017091C8
:100AB000540181EA91E00E942F1B8093D1018EE9BD
:100AC00091E06AE070E00E94D90B8091530190910F
:100AD000540168E670E00E9495092FE088E190E0FB
:100AE0000FB6F894A895809360000FBE2093600025
:100AF00008951F920F920FB60F9211242F933F93D8
:100B00008F939F93AF93BF938091010390910203C2
:100B1000A0910303B0910403309105030196A11D38
:100B2000B11D232F2D5F2D3720F02D570196A11DCC
:100B3000B11D209305038093010390930203A093BA
:100B40000303B09304038091FD029091FE02A091F3
:100B5000FF02B09100030196A11DB11D8093FD021B
:100B60009093FE02A093FF02B0930003BF91AF9158
:100B70009F918F913F912F910F900FBE0F901F90DB
:100B800018958FB7F894209101033091020340919A
:100B90000303509104038FBFB901CA0108959B015B
:100BA000AC017FB7F8948091FD029091FE02A09174
:100BB000FF02B091000366B5A89B05C06F3F19F016
:100BC0000196A11DB11D7FBFBA2FA92F982F88278D
:100BD000860F911DA11DB11D62E0880F991FAA1FEC
:100BE000BB1F6A95D1F7BC012DC0FFB7F894809167
:100BF000FD029091FE02A091FF02B0910003E6B5C4
:100C0000A89B05C0EF3F19F00196A11DB11DFFBFC4
:100C1000BA2FA92F982F88278E0F911DA11DB11DC6
:100C2000E2E0880F991FAA1FBB1FEA95D1F7861B28
:100C3000970B885E9340C8F22150304040405040AE
:100C400068517C4F211531054105510571F6089514
:100C5000019739F0880F991F880F991F0297019704
:100C6000F1F70895789484B5826084BD84B581607D
:100C700084BD85B5826085BD85B5816085BDEEE6A4
:100C8000F0E0808181608083E1E8F0E01082808183
:100C900082608083808181608083E0E8F0E08081F1
:100CA00081608083E1EBF0E0808184608083E0EB11
:100CB000F0E0808181608083EAE7F0E080818460F9
:100CC0008083808182608083808181608083808155
:100CD000806880831092C1000895CF93DF93482FDE
:100CE00050E0CA018E529F4FFC01349142545F4F35
:100CF000FA018491882369F190E0880F991FFC0123
:100D0000E056FF4FA591B491FC01E655FF4FC59108
:100D1000D491662351F42FB7F8948C91932F90952A
:100D200089238C93888189230BC0623061F42FB7AB
:100D3000F8948C91932F909589238C938881832BA1
:100D400088832FBF06C09FB7F8948C91832B8C9318
:100D50009FBFDF91CF910895482F50E0CA018A517B
:100D60009F4FFC012491CA018E529F4FFC01949128
:100D700042545F4FFA013491332309F440C02223D7
:100D800051F1233071F0243028F42130A1F02230C9
:100D900011F514C02630B1F02730C1F02430D9F459
:100DA00004C0809180008F7703C0809180008F7D88
:100DB0008093800010C084B58F7702C084B58F7D8A
:100DC00084BD09C08091B0008F7703C08091B000CE
:100DD0008F7D8093B000E32FF0E0EE0FFF1FE6550C
:100DE000FF4FA591B4912FB7F894662321F48C910D
:100DF0009095892302C08C91892B8C932FBF0895E5
:100E000008951F920F920FB60F9211242F933F93C4
:100E10004F938F939F93EF93FF938091C00082FD38
:100E20001DC04091C60020914603309147032F5FBB
:100E30003F4F2F73307080914803909149032817DA
:100E4000390771F0E0914603F0914703EA5FFC4FE8
:100E50004083309347032093460302C08091C6002D
:100E6000FF91EF919F918F914F913F912F910F9013
:100E70000FBE0F901F901895E0919A03F0919B037D
:100E8000E05CFF4F8191919120813181821B930B16
:100E90008F739070892B11F00E94000708951F92A4
:100EA0000F920FB60F9211242F933F938F939F931E
:100EB000EF93FF9320918A0330918B0380918C03F1
:100EC00090918D032817390731F48091C1008F7DEF
:100ED0008093C10014C0E0918C03F0918D03E65B18
:100EE000FC4F208180918C0390918D0301968F732C
:100EF000907090938D0380938C032093C600FF9194
:100F0000EF919F918F913F912F910F900FBE0F9076
:100F10001F901895AF92BF92DF92EF92FF920F93BE
:100F20001F93CF93DF93EC017A018B01DD244030D6
:100F300081EE580780E0680780E0780711F0DD2433
:100F4000D39491E0A92EB12CEC89FD89DD2069F0C4
:100F5000C50108A002C0880F991F0A94E2F7808398
:100F600060E079E08DE390E005C0108260E874E80D
:100F70008EE190E0A80197010E94E02221503040CC
:100F800040405040569547953795279580E1203051
:100F9000380720F0DD2011F0DD24D6CFE889F9896B
:100FA0003083EA89FB89208319A2EE89FF89408179
:100FB00021E030E0C9010C8C02C0880F991F0A940F
:100FC000E2F7482B4083EE89FF894081C9010D8CEF
:100FD00002C0880F991F0A94E2F7482B4083EE89DC
:100FE000FF894081C9010E8C02C0880F991F0A94A5
:100FF000E2F7482B4083EE89FF8980810F8C02C085
:10100000220F331F0A94E2F7209528232083DF91D3
:10101000CF911F910F91FF90EF90DF90BF90AF9015
:101020000895DC011C96ED91FC911D97E05CFF4F4B
:101030002191319180819181281B390B2F73307060
:10104000C9010895DC011C96ED91FC911D97E05CAF
:10105000FF4F20813181E054F040DF01AE5BBF4F94
:101060008D919C9111972817390719F42FEF3FEFB5
:1010700007C08D919C91E80FF91F8081282F30E0E7
:10108000C9010895DC011C96ED91FC911D97E05C6F
:10109000FF4F20813181E054F040DF01AE5BBF4F54
:1010A0008D919C9111972817390719F42FEF3FEF75
:1010B00010C08D919C911197E80FF91F20818D919F
:1010C0009C91119701968F73907011969C938E93BB
:1010D00030E0C9010895DC0191968C9191978823A5
:1010E00039F05496ED91FC915597808186FFF9CFA8
:1010F00091961C920895CF93DF93EC01EE85FF85C6
:10110000E05CFF4F20813181E054F0402F5F3F4F82
:101110002F733070DF01AE5BBF4F8D919C911197A3
:1011200028173907D1F3E05CFF4F80819181E054AB
:10113000F040E80FF91F6083EE85FF85E05CFF4F0C
:1011400031832083EE89FF89208181E090E00F8C3C
:1011500002C0880F991F0A94E2F7282B208381E0B0
:1011600089A3EC89FD8980818064808381E090E09F
:10117000DF91CF910895109291031092900388EE21
:1011800093E0A0E0B0E08093920390939303A09348
:101190009403B093950383E691E090938F0380933B
:1011A0008E0386E093E090939B0380939A038AE4F6
:1011B00093E090939D0380939C0385EC90E0909343
:1011C0009F0380939E0384EC90E09093A10380930F
:1011D000A00380EC90E09093A3038093A20381ECA2
:1011E00090E09093A5038093A40382EC90E0909309
:1011F000A7038093A60386EC90E09093A9038093C5
:10120000A80384E08093AA0383E08093AB0387E084
:101210008093AC0385E08093AD0381E08093AE03BF
:101220000895CF93DF930E9432060E940F05CCE30E
:10123000D7E00E9429042097E1F30E943C07F9CFF0
:10124000CF92DF92EF92FF920F931F93CF93DF9392
:101250007C016B018A01C0E0D0E00FC0D6016D9126
:101260006D01D701ED91FC910190F081E02DC70156
:101270000995C80FD91F015010400115110571F7CC
:10128000CE01DF91CF911F910F91FF90EF90DF90F2
:10129000CF900895EF92FF920F931F93CF93DF9318
:1012A0007C018B01C0E0D0E0F8010F5F1F4F64911B
:1012B000662359F0D701ED91FC910190F081E02D6A
:1012C000C7010995C80FD91FEFCFCE01DF91CF918C
:1012D0001F910F91FF90EF900895DC01ED91FC912B
:1012E0000190F081E02D09950895EF92FF920F9300
:1012F0001F938C01DC01ED91FC910190F081E02DB8
:101300006DE009957C01D801ED91FC910190F0818F
:10131000E02DC8016AE009959C012E0D3F1DC90111
:101320001F910F91FF90EF900895EF92FF920F930E
:101330001F937C010E944A098C01C7010E94750914
:101340009C01200F311FC9011F910F91FF90EF9059
:101350000895CF93DF93EC016115710519F420E036
:1013600030E00FC0DB010D900020E9F71197A61BBC
:10137000B70BE881F9810280F381E02DAD01099579
:101380009C01C901DF91CF9108954F925F927F92A6
:101390008F929F92AF92BF92CF92DF92EF92FF9285
:1013A0000F931F93DF93CF93CDB7DEB7A1970FB6FF
:1013B000F894DEBF0FBECDBF2C01742ECB012230BE
:1013C00008F42AE019A231E2C32ED12CCC0EDD1E86
:1013D000822E9924AA24BB24672D752FA501940180
:1013E0000E94E02279018A01C801B701A501940198
:1013F0000E949A22472D461B0894C108D1084A3002
:1014000010F4405D01C0495CF6014083E114F10431
:101410000105110521F07E2C5F2DC801DDCFC20131
:10142000B6010E94A909A1960FB6F894DEBF0FBEBF
:10143000CDBFCF91DF911F910F91FF90EF90DF9083
:10144000CF90BF90AF909F908F907F905F904F9084
:101450000895DC012115310541F4ED91FC910190D5
:10146000F081E02D642F099508950E94C509089523
:10147000EF92FF920F931F939A017B0100E010E01F
:10148000B801A7010E94290A1F910F91FF90EF90C8
:101490000895EF92FF920F931F939A01E62EFF2477
:1014A00000E010E0B801A7010E94290A1F910F91E6
:1014B000FF90EF900895CF92DF92EF92FF920F93FB
:1014C0001F936C01E62E9A01FF2400E010E0B801A2
:1014D000A7010E94290A8C01C6010E947509080F04
:1014E000191FC8011F910F91FF90EF90DF90CF90CF
:1014F0000895CF92DF92EF92FF920F931F93CF93B5
:10150000DF93EC016A017B012115310541F4E8818B
:10151000F9810190F081E02D642F09951FC02A30D8
:101520003105D1F477FF17C0E881F9810190F0818E
:10153000E02D6DE209958C0144275527BA014C191D
:101540005D096E097F09CE012AE00E94C509980154
:10155000280F391F04C02AE00E94C5099C01C90157
:10156000DF91CF911F910F91FF90EF90DF90CF907F
:101570000895EF92FF920F931F937B019A0100272A
:10158000F7FC0095102FB801A7010E94790A1F915E
:101590000F91FF90EF9008950E94A90908957F92FE
:1015A0008F929F92AF92BF92CF92DF92EF92FF9273
:1015B0000F931F93CF93DF934C017A018B01722E0F
:1015C000CB01BA01A80197010E949622882321F03D
:1015D000C4016CE071E021C0C0E0D0E057016801B7
:1015E000E894D7F8C601B5012FEF3FEF4FE75FE76B
:1015F0000E949622882351F4C601B5012FEF3FEFD8
:101600004FE75FE70E94E020181614F0C1E0D0E039
:10161000219739F0C40160E171E00E94A909EC0151
:1016200093C0C801B7012FEF3FEF4FE75FE40E947F
:101630002F22181654F0C801B7012FEF3FEF4FE7E4
:101640005FEC0E94E020882324F4C40164E171E08F
:10165000E4CFC801B70120E030E040E050E00E9454
:10166000E02087FD03C0C0E0D0E00EC0D401ED91C2
:10167000FC910190F081E02DC4016DE20995EC012F
:1016800017FB109517F9109520E030E040E05FE37C
:10169000DD240BC0CA01B90120E030E040E251E492
:1016A0000E94E4209B01AC01D394D71498F3C801A5
:1016B000B7010E947C205B016C010E9451217B01DB
:1016C0008C01C401B801A7012AE030E00E94290A78
:1016D000C80FD91F772039F0C40168E171E00E947A
:1016E000A909C80FD91FC801B7010E947D219B011C
:1016F000AC01C601B5010E947B2024C020E030E08F
:1017000040E251E40E9433227B018C010E944C2173
:101710005B016C01CC24B7FCC094DC2CC401B60185
:10172000A5012AE030E00E94790AC80FD91FC6013E
:10173000B5010E947F219B01AC01C801B7010E9445
:101740007B207A947720D1F6CE01DF91CF911F9143
:101750000F91FF90EF90DF90CF90BF90AF909F9050
:101760008F907F900895EF92FF920F931F937C01CB
:101770000E94CF0A8C01C7010E947509080F191F2A
:10178000C8011F910F91FF90EF900895EF92FF9283
:101790000F931F937C010E94A9098C01C7010E942D
:1017A0007509080F191FC8011F910F91FF90EF9045
:1017B00008950F931F93CF93DF938C01EB0180E08B
:1017C0006115710509F081E0F8018283882341F0F9
:1017D0000E94C1052197C60FD71FF801D183C0838E
:1017E000DF91CF911F910F910895EF92FF920F9388
:1017F0001F93CF93DF93EC017B018A81882311F43F
:1018000000E00FC0088119810E94C105C801861B34
:10181000970B2AEE8136920710F400E006C0082FDD
:101820000195CE01B7010E94D90B802FDF91CF9196
:101830001F910F91FF90EF900895782FE89865B170
:1018400021E030E040E050E000905D0104C0220F54
:10185000331F441F551F0A94D2F7322F822F8095D1
:10186000862385B99EBD0DB407FEFDCF4EB57EBD66
:101870000DB407FEFDCF2EB5942F80E045B1342B7B
:1018800035B9E89A30E0282B392BC90108950E9418
:101890001D0C08958091B0039091B1038F709093C7
:1018A000B1038093B0038091B0039091B10388603D
:1018B0009093B1038093B0038091B0039091B103F2
:1018C0000E941D0C089580910704873009F059C0CB
:1018D00090910B04992399F080910A04891728F4B8
:1018E00080910A04873408F44CC084E08093070494
:1018F00081E090E09093B8038093B7039AC0809101
:10190000BB0320910A0490E0049630E0821793070D
:1019100024F080910A048734A0F184E080930704C6
:101920008091BB03833430F081E090E09093B80362
:101930008093B7038091BA0386FF12C0809106049A
:10194000282F30E0C9018F7190704F9749F0809136
:10195000BA0390E0822793278F719070892B89F4C6
:101960008091B7039091B803892B09F056C0E0919C
:101970000404F0910504309709F44FC080E0099504
:1019800058C080910704843011F080E008951092CF
:10199000BB038091BB0380930A048FEF9FEF90936A
:1019A000B8038093B703209108042223D9F082273B
:1019B000282F22952827022E269526952025022EAF
:1019C000269520252770082E892F26950794279580
:1019D000902D822706942795902582279093B8030F
:1019E0008093B70387E08093070481E08093B50379
:1019F00083EA94E90E941D0C8091B0039091B10399
:101A0000886D9093B1038093B0038091B00390915F
:101A1000B1030E941D0C80E008958FEF9FEFAFEFA0
:101A2000BFEF8093000490930104A0930204B0934D
:101A3000030481E008950F931F93082F10E0C8015D
:101A4000966C0E941D0C98012F7730702F5F3F4FCE
:101A5000442737FD4095542F6BEF72E485E090E00A
:101A60000E94E022CA01B901000F012F001F110BD3
:101A7000980143E0220F331F4A95E1F7201B310BF9
:101A80002F5F3F4F442737FD4095542F0E94E0229F
:101A900093E056954795379527959A95D1F72D5709
:101AA0003C4F4F4F5F4FCA01B90124E833E040E09B
:101AB00050E00E94E0222093B6031F910F910895F9
:101AC00080910704843069F080910704873059F4CD
:101AD00080910A04882339F40E944A0C84E08093A0
:101AE000070481E0089580E00895982F86FD05C0E1
:101AF000907E809106048F71980F9093BA03E091C5
:101B00000404F0910504309711F081E009958FEFFE
:101B10009FEF9093B8038093B7038091B7039091A0
:101B2000B803209108048227282F22952827022E07
:101B3000269526952025022E269520252770082EED
:101B4000892F269507942795902D8227069427950F
:101B5000902582279093B8038093B70388E0809301
:101B600007048091B0039091B10388639093B1030F
:101B70008093B0038091B0039091B1030E941D0C3B
:101B80000895DF92EF92FF920F931F937B018C01D8
:101B9000DD2405C0D39416950795F794E7948FEF4D
:101BA000E816F1040105110509F0A0F78091B003D2
:101BB0009091B10381FF0FC08091B0039091B10368
:101BC0008D7F9093B1038093B0038091B003909187
:101BD000B1030E941D0CE114F10401051105B9F0D7
:101BE000C701906E3D2D20E0822B932B0E941D0C8F
:101BF0008091B0039091B10382609093B103809380
:101C0000B0038091B0039091B1030E941D0C1F910D
:101C10000F91FF90EF90DF900895E89885B121E053
:101C200030E040E050E000905D0104C0220F331F1F
:101C3000441F551F0A94D2F7322F922F9095982364
:101C400095B91EBC0DB407FEFDCF6EB51EBC0DB41C
:101C500007FEFDCF2EB5962F80E0622F70E0682B37
:101C6000792B77FF0FC080910704873059F48CB52A
:101C700081608CBD1EBC0DB407FEFDCF2EB58CB5AA
:101C80008E7F8CBD85B1382B35B9E89A7093B3033C
:101C90006093B2038091B2039091B30397FFECC0BD
:101CA00080910704873009F082C080910A0488235C
:101CB00071F490910804992351F080910A04E82F5F
:101CC000F0E0E754FC4F90838F5F80930A0480918B
:101CD0000A04E82FF0E0E754FC4F20838F5F8093E5
:101CE0000A048091B7039091B8038227282F229588
:101CF0002827022E269526952025022E269520257A
:101D00002770082E892F269507942795902D8227D6
:101D100006942795902582279093B8038093B70364
:101D20002091B503233040F580910A0490E0609142
:101D3000B603029770E00E94CD22892BE9F48091CE
:101D4000B2039091B303E22FF0E090FF04C0E15999
:101D5000FE4F808104C0E159FE4F808182958F70D3
:101D60008093B503833040F490E0880F991F01966B
:101D7000806A94690E941D0C90910B04992329F0AC
:101D800080910A04891780F40AC08091BB032091D6
:101D90000A0490E0049630E0821793072CF08091BB
:101DA0000A04873408F468C00E944A0C65C0809118
:101DB000070487FF2EC0E091BB03809107048F5F6B
:101DC000809307048150ED5FE80FF0E0E754FC4F8B
:101DD000E0818091B7039091B8038E27282F229538
:101DE0002827022E269526952025022E2695202589
:101DF0002770082E892F269507942795902D8227E6
:101E000006942795902582279093B8038093B70373
:101E10002EC0809107048F5F809307048150833028
:101E200019F184302CF4882399F08130F9F416C02C
:101E30008B3019F08C30D1F402C0EDE218C0E09183
:101E400008049091BB038EEF891B809307040FC099
:101E50008091B7039091B803E82F09C08091B70330
:101E60009091B803E92F03C00E944A0CEAEA8E2F32
:101E700090E0986B0E941D0C8091B2039091B30387
:101E800096FF03C086E0809307048091B20390918F
:101E9000B30394FF09C060E070E080E090E00E942E
:101EA000C10D81E08093B4038091B2039091B3039C
:101EB00095FF05C00E944A0C84E0809307040895B2
:101EC0001F93182F4093BB032CEB33E0C90150E064
:101ED0000E94A103812F0E94750D1F91089580918A
:101EE000060490E08F719070892B41F080E06DE0E6
:101EF0007EE040E050E00E94C61F089580E00E940E
:101F0000E91F08951F93809306044093080460938B
:101F100009040E946F0F10920B04E89885E092E884
:101F20009093B1038093B0038091B0039091B1037B
:101F30000E941D0C8091090490E074E0880F991FA5
:101F40007A95E1F7876C90680E941D0C80E496EA10
:101F50000E941D0C86E00E941B0D82EA94E90E94FB
:101F60001D0C8CEA92EC0E941D0C109108041123A8
:101F700041F083E89AEC0E941D0C812F90E09E6C4A
:101F800006C08BE89AEC0E941D0C8DE29EEC0E942C
:101F90001D0C83E894EC0E941D0C80E598E90E94DA
:101FA0001D0C87E79CEC0E941D0C80E090EE0E94C7
:101FB0001D0C80E098EC0E941D0C89E490EC0E94BE
:101FC0001D0C84E080930704E89A1F91089525B1C1
:101FD00081E090E0A0E0B0E000905D0104C0880FD7
:101FE000991FAA1FBB1F0A94D2F7282B25B924B129
:101FF000822B84B98AE061E00E94AC068AE061E04D
:102000000E946D068BE061E00E946D068CE060E04E
:102010000E946D068DE061E00E946D0680E58CBD3A
:102020008DB581608DBD82E060E00E946D0682E02A
:1020300061E00E94AC060895FF920F931F93182F42
:10204000062FF42E8093060440930804609309043D
:102050000E94E70F0E946F0F82E89AEC0E941D0C0D
:1020600080E09EEF0E941D0C85E08093070483B7FB
:10207000817F06C083B7816083BF889583B78E7FD9
:1020800083BF809107048530A9F3812F602F4F2DE6
:102090000E94820F809106041F910F91FF90089576
:1020A0009C01F999FECF32BD21BDF89A80B5089503
:1020B0009C01F999FECF1FBA32BD21BD60BD0FB69C
:1020C000F894FA9AF99A0FBE0895CF93DF93EC0132
:1020D000462F009721F44091BB03CCEBD3E044237F
:1020E000F9F0388120910E04E0910C04F0910D0478
:1020F00090E014C0A191B19112968C911297831720
:1021000061F4ED91FC911197219641500280F38189
:10211000E02DCD01BE01099503C09F5F921750F3DA
:10212000DF91CF9108951F93182F50910E04A09125
:102130000C04B0910D0420E230E090E047C0ED9136
:10214000FD9182814381811709F03DC0C90150E0B2
:1021500028E530E10E94CD0340910F045091100416
:10216000FA01329720E030E06FEF7FEF21C0F9995C
:10217000FECF205E3F4F32BD21BDF89A80B5682763
:10218000862F82958627082E869586958025082E8F
:10219000869580258770062E672F869507948795EC
:1021A000702D682706948795702568272F51304039
:1021B0002E173F0708F4DBCFCA014E9648E550E1E1
:1021C0000E94E90319C0240F311D9F5F951708F481
:1021D000B6CF8EE893E06FE371E00E944A098EE883
:1021E00093E0612F4AE050E00E94490A8EE893E0B4
:1021F00064E271E00E9495091F9108958F929F9269
:10220000AF92BF92DF92EF92FF920F931F93DF93F3
:10221000CF93CDB7DEB7C054D0400FB6F894DEBF31
:102220000FBECDBF5C0120E0322F3F5FE22FF0E018
:10223000EE0FFF1FEA0DFB1D80819181892B11F0AC
:10224000232FF2CF20930E04B0920D04A0920C0421
:102250008EE893E061EC71E00E944A098EE893E019
:1022600060910E044AE050E00E94490A8EE893E033
:1022700067EB71E00E944A091092100410920F045B
:10228000EE244EC00E2D10E0F801EE0FFF1FEA0DF8
:10229000FB1D0190F081E02DF38080E48F15A8F5FF
:1022A0008EE893E00E9475098EE893E067E971E09B
:1022B0000E944A090F5F1F4F8EE893E0B8014AE081
:1022C00050E00E94B90A8EE893E067E871E00E944E
:1022D0004A098EE893E06F2D4AE050E00E94490AD7
:1022E0008EE893E061E871E00E944A098EE893E08D
:1022F00060E470E04AE050E00E94B90A8EE893E0A2
:102300006BE771E00E9495090AC080910F049091DB
:1023100010048F0D911D9093100480930F04E3948B
:1023200080910E04E81608F4ADCF60910F0470910F
:1023300010046E5F7F4F7093100460930F048EE85B
:1023400093E04AE050E00E94380A8EE893E064E7A8
:1023500071E00E94950960910F047091100420E0D3
:1023600030E04FEF5FEF21C0F999FECF205E3F4F85
:1023700032BD21BDF89A80B54827842F82958427E5
:10238000082E869586958025082E8695802587704F
:10239000042E452F869507948795502D482706943F
:1023A0008795502548272F5130402617370708F4C6
:1023B000DBCF452B01F18EE893E06EE571E00E94E2
:1023C000950910E013C0E12FF0E0EE0FFF1FEA0DBA
:1023D000FB1DA081B181ED91FC9111970190F081DD
:1023E000E02DCD0160E070E009951F5F80910E0443
:1023F000181748F337C08EE893E06FE471E00E944D
:10240000950990E2E92EF12CDD244E010894811CFF
:10241000911C24C00D2D10E0000F111F0A0D1B1D73
:10242000D801ED91FC914381C401B70150E020E552
:1024300030E10E94B103F801A081B181ED91FC91DE
:1024400011970190F081E02DCD01B4010995D801DB
:10245000ED91FC918381E80EF11CD39480910E04E0
:10246000D816C0F2C05CDF4F0FB6F894DEBF0FBEC7
:10247000CDBFCF91DF911F910F91FF90EF90DF9033
:10248000BF90AF909F908F9008951F93182F6AE090
:1024900070E080E090E00E94CF05112329F480E0F5
:1024A00090E0A0E0B0E004C08DE090EFADEABBE0CA
:1024B0008093000190930101A0930201B093030166
:1024C00028E088E190E00FB6F894A895809360002A
:1024D0000FBE20936000FFCF08950895FC01E45BD8
:1024E000FF4F1082EC54F04082E0868381E08783C6
:1024F00080E08160808708950F931F938C01FC0119
:102500001382128286E791E0918380830C969583F3
:102510008483C8010E946E12F8018185887F8560DE
:1025200081871F910F91089504970E949812089532
:10253000CF93DF93EC01FB01BC01685F7F4F3097C5
:1025400019F08081888705C08985888782E00E948C
:1025500093108EE893E066EE71E00E944A09888548
:1025600080FF06C08EE893E06EED71E00E944A099C
:10257000888581FF06C08EE893E069ED71E00E94D6
:102580004A09888582FF06C08EE893E063ED71E01A
:102590000E944A098885882331F48EE893E06AEC2A
:1025A00071E00E944A098EE893E00E947509DF916C
:1025B000CF9108950F931F93CF93DF93EC018C017C
:1025C000045B1F4FD8018C91FE01E80FF11D1286AC
:1025D000888580FF16C0BE01665F7F4F8EE893E05E
:1025E0000E94CC0AF8018081882359F0FE01E80F8F
:1025F000F11D81858A3029F48EE893E06DE00E9418
:102600006D09888582FF22C0809111048130F1F02C
:1026100083ED91E00E9452130097C1F0FC0182E02B
:1026200081938E01045B1F4FD8014C919E01265F60
:102630003F4FCF01B90150E00E94A103F801608132
:102640006F5F83ED91E041E00E942B16C45BDF4F8A
:102650001882DF91CF911F910F9108951F93CF930F
:10266000DF93EC01162FC45BDF4F8881CC54D04040
:10267000813418F0CE010E94DA12DE01A45BBF4F54
:102680008C91FE01E80FF11D12878F5F8C931A3039
:1026900019F4CE010E94DA1281E090E0DF91CF912F
:1026A0001F910895FC01E053FF4F9081E05DF040E1
:1026B000933018F020E030E008C084E4989F900147
:1026C00011242A5F3F4F2E0F3F1FC9010895FC01BF
:1026D0008AE891E09183808390911A04992371F0A4
:1026E00080911B04882351F08F3140F4E852FF4F52
:1026F0009083E85DF0408093110407C0E852FF4FDB
:102700004083E85DF0406093110481E0828383831D
:1027100008950895FF920F931F938C01F62E8EE873
:1027200093E06CE172E00E944A098EE893E06091C8
:1027300011044AE050E00E94490A8EE893E061E10A
:1027400072E00E944A0908521F4F8EE893E0F80198
:1027500060814AE050E00E94490A8EE893E06AE016
:1027600072E00E944A098EE893E06F2D4AE050E043
:102770000E94490A8091110463E0F80140810E949F
:102780001C10F2E0FF1621F083E0F81611F50FC0DF
:102790008EE893E06BEF71E00E94950987E598E978
:1027A0000E94470C82EB94E90E94470C16C08EE809
:1027B00093E062EF71E00E94950981E196EC0E943E
:1027C000470C81EC94E90E94470C80E298E90E9452
:1027D000470C8EE893E00E94750983E00E94562022
:1027E00085E060E00E946D061F910F91FF900895B3
:1027F000AF92BF92CF92DF92EF92FF920F931F930F
:10280000DF93CF93CDB7DEB76C01ADB6BEB68B010B
:102810007B016115710579F08EE893E061E372E068
:102820000E944A098EE893E0F80160814AE050E096
:102830000E945B0A0DC00F92EDB6FEB60894E11C33
:10284000F11C81E0EDB7FEB78183B7010E949310C0
:10285000C601F70160810E948A130FB6F894BEBECC
:102860000FBEADBECF91DF911F910F91FF90EF9002
:10287000DF90CF90BF90AF9008950F931F938C017E
:1028800085E00E94592006521F4F8C529140959529
:10289000879595958795F80180831F910F910895ED
:1028A000EF92FF920F931F93CF93DF93EC01C053EE
:1028B000DF4F8881C05DD040882309F47DC01C8132
:1028C000CF52DF4F8881C15DD04090E007970CF078
:1028D0001F7DBE016A5F7F4F812F4D810E94600F77
:1028E0008EE893E06AE372E00E944A09812F90E04B
:1028F00030E2E32EF12CE822F92215FD03C06AE153
:1029000071E002C063E271E08EE893E00E94CC0ABD
:102910008EE893E06CE271E00E94CC0A8E010F52C7
:102920001F4F8EE893E0F80160814AE050E00E947A
:10293000490A8EE893E06EE271E00E94CC0A8EE8CC
:1029400093E06E8140E150E00E94490A8EE893E0F6
:1029500062E371E00E94CC0A8EE893E06D814AE068
:1029600050E00E945B0AEF28D9F4C053DF4F888102
:10297000C05DD040823050F0DE011496FE01E85B6D
:10298000FF4F88E801900D928150E1F7FE01E0537E
:10299000FF4F808181508083CF52DF4F18820CC05F
:1029A000F80180818F5F80830E94C105CE52DF4F86
:1029B000688379838A839B83DF91CF911F910F91E5
:1029C000FF90EF900895EF92FF920F931F93CF9394
:1029D000DF93EC0146EDE42EF12CE80EF91EF70131
:1029E00080818823A1F10E94600D882381F18E01EE
:1029F00009521F4FF7018081B80141E00E94600F2A
:102A0000F7011082F801108229C0CF52DF4F888170
:102A1000C15DD040882399F00E94C105CE52DF4F9E
:102A2000288139814A815B81C25DD0402C593F4F5A
:102A30004F4F5F4F621773078407950778F00E9426
:102A4000600D882359F0CE010E94501407C0C05376
:102A5000DF4F8881C05DD0408823B9F6DF91CF91E8
:102A60001F910F91FF90EF900895CF93DF93EC01AA
:102A70000E94630C882309F486C08091B70390916B
:102A8000B803892B09F073C08091BA0387FD1DC07C
:102A9000CE010E943D148091BA0385FF13C090912E
:102AA000BA039F7180911104981711F4892F02C005
:102AB000892F8064CA52DF4F80688883249688817A
:102AC000239788838091BC0362C08091BA0385FDFF
:102AD0005AC0CE010E943D148091D201882311F486
:102AE00082E101C08D5F61E00E94AC062091BA03D3
:102AF00030E02F7130708091110490E02817390771
:102B000009F041C0C053DF4F8881C05DD0408823A9
:102B1000D1F1CF52DF4F8881C15DD040882399F138
:102B20008091BB03813011F080E002C08091BC0332
:102B3000C752DF4F888329978881C05DD04082309B
:102B400050F0DE011496FE01E85BFF4F88E801902B
:102B50000D928150E1F7FE01E053FF4F80818150DB
:102B60008083CF52DF4F1882C15DD0400CC080916E
:102B7000B7039091B803892B31F08EE893E064E3BA
:102B800071E00E94C60BCE010E94E31480E0DF9149
:102B9000CF910895EF92FF920F931F93CF93DF93FE
:102BA000EC0150EDE52EF12CE80EF91E8C010A52D5
:102BB0001F4F0BC0CE010E943515882371F461E0D0
:102BC00070E080E090E00E94CF05F70180818823CB
:102BD00089F7F8018081882369F7DF91CF911F91F0
:102BE0000F91FF90EF900895CF93DF93EC01DC01FC
:102BF000A053BF4F2C91233058F530E084E490E08F
:102C0000289FF001299FF00D389FF00D1124EC0F43
:102C1000FD1F65838C9190E0FC0124E0EE0FFF1F07
:102C20002A95E1F7E80FF91F3196EE0FFF1FEE0F1F
:102C3000FF1FEC0FFD1F40838C918F5F8C938130C1
:102C400039F40E94600D882319F0CE010E945014BF
:102C5000DF91CF9108959C01411140E280911104D0
:102C6000482BC9010E94F4150895FC018281681760
:102C700028F070E060E090EC8FE70FC0862F90E0C6
:102C8000880F991F880F991F0284F385E02DE80FA4
:102C9000F91F7081618192818381272F362F492FFF
:102CA000582FB901CA010895AF92BF92CF92DF9217
:102CB000EF92FF920F931F93DF93CF93CDB7DEB7C1
:102CC000AA970FB6F894DEBF0FBECDBFFC010BA3D1
:102CD0001CA32DA33EA34FA358A769A77AA70190D1
:102CE000F081E02DDE01559634968EE001900D9234
:102CF0008150E1F78E010B5E1F4FC8010E94AF1E8D
:102D0000C801BE016D5D7F4F0E948E1EC8016EEB33
:102D100040E00E94491E49E0E42EF12CEC0EFD1E1D
:102D20005801C701DE2CC92E8E010E5E1F4FC50152
:102D30000E94F81DF70181937F01E017F107B9F7B1
:102D40008D2D9C2D68E00E94B31D9989891769F526
:102D50002985222319F48A85882339F18E858F3FAE
:102D600021F58889803109F59A8580E0422F50E06D
:102D7000482B592BDE011196EEE8F1E088E0019036
:102D80000D928150E1F7ED85F0E0E076F07034E0EF
:102D9000F695E7953A95E1F7EC0FFD1F2181328119
:102DA000209530952423352302C020E030E8C90166
:102DB000AA960FB6F894DEBF0FBECDBFCF91DF91BC
:102DC0001F910F91FF90EF90DF90CF90BF90AF9049
:102DD00008958F929F92AF92BF92CF92DF92EF921F
:102DE000FF920F931F93CF93DF93EC01D22EC32E4C
:102DF000B42EA52E962E872E0E9454169C0180E894
:102E00002030380751F5CE012D2D3C2D4B2D5A2D5C
:102E1000692D782D0E9454169C0180E820303807D7
:102E2000E1F4CE012D2D3C2D4B2D5A2D692D782D01
:102E30000E9454169C0180E82030380771F4CE01BE
:102E40002D2D3C2D4B2D5A2D692D782D0E94541679
:102E50009C0180E82030380701F185E020353807F3
:102E6000E1F0B901882777FD8095982F0E947F2196
:102E700020E030E040E85DE30E94332226E636E6BB
:102E800046EE5FE30E94332220E030E040E052E46F
:102E90000E947C20E62F692F04C0E0E070E080EC07
:102EA0006FE72E2F372F482F562FB901CA01DF9118
:102EB000CF911F910F91FF90EF90DF90CF90BF9037
:102EC000AF909F908F9008950F931F93DF93CF93B0
:102ED000CDB7DEB72E970FB6F894DEBF0FBECDBFCD
:102EE000FC010190F081E02DDE01119634968EE018
:102EF00001900D928150E1F78E010F5F1F4FC801C5
:102F00000E94AF1EC8010E94891EC80164E441E00E
:102F10000E94491E2E960FB6F894DEBF0FBECDBF9D
:102F2000CF91DF911F910F910895DF92EF92FF9261
:102F30000F931F93DF93CF93CDB7DEB766970FB68E
:102F4000F894DEBF0FBECDBFFC010F87188B298B15
:102F50003A8B4B8B5C8B6D8B7E8BDE2C0190F081E2
:102F6000E02DDE01119634968EE001900D92815095
:102F7000E1F78E010F5F1F4FC8010E94AF1E6FE087
:102F8000E62EF12CEC0EFD1EC801B7010E948E1E2C
:102F9000C8016EE440E00E94491EC80160E040E0C4
:102FA0000E94491EC80160E040E00E94491ED29480
:102FB000DD0C50EED522DA94C8016D2D40E00E9460
:102FC000491EC8010E94AF1EC801B7010E948E1E93
:102FD000C80168E441E00E94491E6AE070E080E0B8
:102FE00090E00E94CF05C8010E94981D66960FB61A
:102FF000F894DEBF0FBECDBFCF91DF911F910F912F
:10300000FF90EF90DF9008952F923F924F925F9242
:103010006F927F928F929F92AF92BF92CF92DF92E8
:10302000EF92FF920F931F93CF93DF936C01762E55
:103030000E9660E67AEE0E94F50B882309F455C0DF
:10304000D60151968D919C915297019652969C93E0
:103050008E935197803F910508F447C052961C9279
:103060001E92519760E070E040E050E010E834C0FC
:10307000E901D6015396ED91FC915497E40FF51FA9
:103080009E0121503040DF01AC0FBD1FE20FF31F46
:1030900080818C93D6015596ED91FC915697E40F63
:1030A000F51FCE0FDF1FE20FF31F808188832115EC
:1030B0003105F1F65396ED91FC915497E40FF51F0D
:1030C00010835596ED91FC915697E40FF51F1083F0
:1030D0006F5F7F4F4A5F5F4FE6018A8190E068171C
:1030E00079071CF4C5E0D0E0C4CF0E94C1054B01B4
:1030F0005C01F6018581882309F0A7C0772009F4D7
:1031000081C086819781A085B1850097A105B10511
:1031100009F478C085017401E81AF90A0A0B1B0B3F
:10312000672D70E080E090E028EE33E040E050E072
:103130000E949A226E157F058007910708F462C0ED
:103140006DC1CF016F2D0E94761A223219F02832FC
:1031500009F04EC0D6011396ED91FC911497EF0D36
:10316000F11D8081871509F441C07082872D90E0A0
:103170009C01220F331F220F331F1A96ED91FC91F1
:103180001B97E20FF31F20823182428253828C010F
:10319000000F111F080F191F000F111F53962D91BB
:1031A0003C915497200F311FC90160E870E046E060
:1031B00050E00E94AA03E6012D893E89200F311FAD
:1031C000C90160E870E046E050E00E94AA038881EF
:1031D00099816F2D0E94761AFC01C60189019A011E
:1031E000AB01BF01EAE0EE2E0E949517739408C070
:1031F000D6011396ED91FC911497EF0DF11D6082AD
:10320000F3940EC07724FF240F2EF0E02F2EF0E071
:103210003F2EF0EC4F2EFFE75F2EF02D66246A94D0
:10322000E601E881F9818389F81608F48ACF7720CE
:1032300009F4F4C0C6010E946417F60186829782E1
:10324000A086B18681E08583E9C0813009F0E6C0BF
:10325000E6018E819F81A885B985881A990AAA0AF4
:10326000BB0AEDEB8E169104A104B10408F4D6C09C
:10327000992441E0642E712C0F2EF0E02F2EF0E007
:103280003F2EF0EC4F2EFFE75F2EF02DBBC0E60186
:10329000EB81FC81E90DF11DB080EFEFBE1609F462
:1032A000B0C0CD01692D0E94761AFC01C6018901CA
:1032B0009A01AB01BF010E94E9167B018C01E30179
:1032C000092C02C0CC0FDD1F0A94E2F7A801970178
:1032D0000E949622D6011C962D913C911D97882321
:1032E000D9F0CE0182239323892B81F08B2D90E09E
:1032F000880F991F880F991FE601EA85FB85E80F63
:10330000F91F20823182428253827BC02C2B3D2BBD
:10331000F6013587248775C0CE01809590952823C6
:103320003923D6011D963C932E931C97AB2CBB24BE
:10333000C501880F991F880F991F1A96ED91FC916E
:103340001B97E80FF91FE082F18202831383C80103
:10335000B70120E030E040E050E00E942F228823B7
:103360004CF0C801B70120E030E040E05FE30E948C
:103370007C2008C0C801B70120E030E040E05FE3F6
:103380000E947B200E944C21162F1855E501CC0F7E
:10339000DD1FCA0DDB1DCC0FDD1FD6015396ED914D
:1033A000FC915497EC0FFD1F8581803859F4212F33
:1033B000332727FD3095CF01B90146E050E00E9448
:1033C000AA0306C08081803811F018170CF410830E
:1033D000D6015596ED91FC915697EC0FFD1F858116
:1033E000803859F4212F332727FD3095CF01B901BB
:1033F00046E050E00E94AA0304C0808181170CF4CB
:1034000010839394E601A881B98153968C915397C8
:10341000981608F43CCF1D8281E001C080E0DF9166
:10342000CF911F910F91FF90EF90DF90CF90BF90C1
:10343000AF909F908F907F906F905F904F903F9054
:103440002F9008950F931F93CF93DF93EC018B017F
:1034500079836883413108F040E14A831D821D86EB
:103460001C86F801828990E061E070E00E9483028E
:103470008B839C83F80142896FEF70E050E00E94DB
:10348000AA038A8190E064E070E00E9483028A8748
:103490009B878A8190E066E070E00E9483028B8BBC
:1034A0009C8B2A8116E0219F9001112460E870E036
:1034B000A9010E94AA038A8190E066E070E00E9460
:1034C00083028D8B9E8B2A81219F9001112460E8BD
:1034D00070E0A9010E94AA03DF91CF911F910F9183
:1034E0000895FC01108A0E94221A0895FC01838924
:1034F000681748F020E030E040E050E060E070E025
:1035000080E090E00895862F90E033E0880F991FC7
:103510003A95E1F70488F589E02DE80FF91F20813D
:1035200031814281538164817581868197810895BB
:10353000EF92FF921F93CF93DF93EC017B01611514
:103540007105B1F1EC89FD8980819181892B92818E
:10355000892B9381892B9481892B9581892B968145
:10356000892B9781892B21F510E01FC0A12FB0E096
:10357000CD0143E0880F991F4A95E1F7EC89FD8959
:10358000E80FF91FAA0FBB1FAA0FBB1FAE0DBF1D6F
:103590002D913D914D915C912083318342835383E2
:1035A00014821582168217821F5F8A891817F0F21B
:1035B000DF91CF911F91FF90EF9008950895CF92E2
:1035C000DF92EF92FF920F931F93DF93CF93CDB7CC
:1035D000DEB728970FB6F894DEBF0FBECDBF6B01E4
:1035E000E982FA820B831C832D833E834F835887A5
:1035F000CB0161E471E00E94CC0A8E010F5F1F4F86
:1036000065E0E62EF12CEC0EFD1EF801608170E005
:1036100054E0759567955A95E1F7C60140E150E091
:103620000E94B90AF80161918F0170E06F707070AB
:10363000C60140E150E00E94B90A0E151F0529F7A6
:1036400028960FB6F894DEBF0FBECDBFCF91DF91A5
:103650001F910F91FF90EF90DF90CF9008952F92E0
:103660003F924F925F926F927F928F929F92AF9212
:10367000BF92CF92DF92EF92FF920F931F93DF934F
:10368000CF93CDB7DEB767970FB6F894DEBF0FBE06
:10369000CDBF3C012B010DB71EB71F8B0E8B9C01BC
:1036A0002C5F3F4F3D872C87C9010E94A61D1B86BA
:1036B0001A86222433241986AAC0CE01019667E017
:1036C0000E94B31D89809A80AB80BC80CD80DE8053
:1036D000EF80F88410E020E030E040E050E060E06F
:1036E00070E08E871F87288B398B4A8B5B8B6C8BA6
:1036F0007D8B9401A501B601C70108E30E94040275
:103700001E85121709F083C02F85231709F07FC08B
:103710003889341709F07BC04989451709F077C00B
:103720005A89561709F073C06B89671709F06FC083
:103730007C89781709F06BC08D89891709F067C0FB
:10374000D30152965C9140E020E030E029C0D301E3
:103750005496ED91FC915597E20FF31F285F3F4F70
:1037600080819181A281B38188159905AA05BB0545
:10377000B1F480829182A282B382C482D582E68231
:10378000F78281E090E002C0880F991F4A95E2F726
:10379000EA85FB85E82BF92BFB87EA8735C04F5F6D
:1037A0004517A8F240E020E030E02CC0D301549649
:1037B000ED91FC915597E20FF31F285F3F4F8081F9
:1037C0009181892B9281892B9381892B9481892BDB
:1037D0009581892B9681892B9781892B91F4808201
:1037E0009182A282B382C482D582E682F78281E08E
:1037F00090E002C0880F991F4A95E2F7282A392ADB
:1038000003C04F5F451790F2B985BF5FB9878C85BC
:103810009D85BE016F5F7F4F0E94FA1E882309F0CD
:103820004CCF8C859D850E94A61DF3018289838BD8
:1038300041E050E004C02150D30153962C93F30192
:1038400023892223F1F0CA01821B910933E0880FFA
:10385000991F3A95E1F70488F589E02DE81BF90BEB
:1038600080819181892B9281892B9381892B9481ED
:10387000892B9581892B9681892B9781892BD9F268
:103880001FC121143104B9F1C2016BE872E00E943A
:103890004A09DD2429C0C1010D2C02C096958795E7
:1038A0000A94E2F780FF1FC0C2016BE471E00E943E
:1038B000CC0A8D2D90E023E0880F991F2A95E1F71F
:1038C000D3015496ED91FC915597E80FF91FE080D4
:1038D000F180028113812481358146815781C301A2
:1038E000B2010E94DF1AD394F3018289D81698F2AC
:1038F000C2010E947509CA84DB84C228D328C094FF
:10390000D09481E090E0D30153960C9002C0880FD0
:10391000991F0A94E2F70197C822D922C114D10451
:1039200009F44FC0C20166E772E00E944A09BB2455
:1039300040C0C6010B2C02C0969587950A94E2F709
:1039400080FF36C00B2D10E083E0000F111F8A9519
:10395000E1F7D3015496ED91FC915597E00FF11FDB
:1039600080819181892B9281892B9381892B9481EC
:10397000892B9581892B9681892B9781892BC1F081
:10398000C2016BE471E00E94CC0AD3015496ED9120
:10399000FC915597E00FF11FE080F18002811381C7
:1039A0002481358146815781C301B2010E94DF1A0B
:1039B000B394F3018389B81608F4BBCFC2010E9407
:1039C0007509EA85FB85D3015896FC93EE935797CA
:1039D000C2016BE672E00E944A09C20169854AE0B1
:1039E00050E00E94490AC20166E672E00E944A095C
:1039F000C201D30153966C914AE050E00E94490AFB
:103A0000C2016DE572E00E949509F301828990E0A0
:103A1000880F991F880F991F0DB71EB7081B190B28
:103A20000FB6F8941EBF0FBE0DBF6DB77EB76F5FA8
:103A30007F4F40E01CC0842F90E0880F991F880FB3
:103A4000991F9B01280F391F880F991FD301549686
:103A5000ED91FC915597E80FF91F80819181A2812A
:103A6000B381F90180839183A283B3834F5FD30134
:103A700052968C914817F8F286E00E94931089853F
:103A8000EE89FF890FB6F894FEBF0FBEEDBF6796B3
:103A90000FB6F894DEBF0FBECDBFCF91DF911F915F
:103AA0000F91FF90EF90DF90CF90BF90AF909F90DD
:103AB0008F907F906F905F904F903F902F900895E0
:103AC0002A853B8522293329D30157968D919C91D4
:103AD00058972817390709F0D4CE73CF1F93CF9387
:103AE000DF93EC01142F8AE991E099838883CE015A
:103AF00004960E94901F113108F010E11A8B1B8A66
:103B0000188E1F8A86E08A83812F90E0880F991F84
:103B1000880F991F8B83812F90E068E070E00E94EE
:103B200083028C8B9D8B1E8ADF91CF911F9108950C
:103B3000FC01F894A181B28111969C91119780812A
:103B40008095982311969C9378940895FC01138690
:103B50001586148687E090E012863197009711F061
:103B60000197FACF0895DC0180E00BC0E82FF0E068
:103B70008D9190E0E827F927E056FD4FE4916150E0
:103B80008E2F662399F70895DF92EF92FF920F939D
:103B90001F93FC01E08001811281F894F801828179
:103BA000DE2CD0948D21828381818E29818383E0D4
:103BB00090E00E942806F80181818D2181838AE0AE
:103BC00090E00E942806F8010081789485E390E057
:103BD0000E94280680E010E0FF240E211F21012B07
:103BE00009F081E01F910F91FF90EF90DF90089511
:103BF000EF92FF920F931F93CF93DF937C0101E02D
:103C000010E0C0E0D0E0C7010E94C41D8111102B5C
:103C1000000F2196C830D105B1F7812FDF91CF91E8
:103C20001F910F91FF90EF9008951F93CF93DF9313
:103C3000FC011081C181D281912F909560FF12C04B
:103C4000F8948A8189238A838981812B89838AE0F8
:103C500090E00E9428068A81812B8A83789487E3EA
:103C600090E011C0F8948A8189238A838981812B0D
:103C7000898381E490E00E9428068A81812B8A83CF
:103C8000789485E090E00E942806DF91CF911F9103
:103C90000895CF92DF92EF92FF920F931F93CF93ED
:103CA000DF938C01E42EFF24F394C0E0D0E0C62E15
:103CB000DD2460E08F2D90E08C219D21892B09F07F
:103CC00061E0C8010E94151EFF0C2196C830D10585
:103CD00081F7EE20A9F4F894D8011196ED91FC91AA
:103CE000129791818C918095982391831196ED91F3
:103CF000FC91129792818C9180959823928378946D
:103D0000DF91CF911F910F91FF90EF90DF90CF90B7
:103D100008956CEC40E00E94491E0895EF92FF92D6
:103D20000F931F93CF93DF938C017B0165E540E0F8
:103D30000E94491EC0E0D0E0F701EC0FFD1FC80152
:103D4000608140E00E94491E2196C830D105A1F74C
:103D5000DF91CF911F910F91FF90EF900895DF9227
:103D6000EF92FF920F931F93CF93DF93FC0100819B
:103D7000C181D281F8948981D02ED0948D218983FC
:103D800078941DE7E02EFF24115059F182E090E075
:103D90000E942806888190E08E219F21892BA1F323
:103DA000F8948A818D218A838981802B89837894F4
:103DB00084EF91E00E942806F89489818D218983FF
:103DC00080E590E00E942806888110E090E0E822DB
:103DD000F922EF2809F411E0789484EA91E00E9436
:103DE0002806812FDF91CF911F910F91FF90EF90C7
:103DF000DF900895AF92BF92DF92EF92FF920F9300
:103E00001F93CF93DF93EC015B018D85882309F02D
:103E100061C0CE010E94AF1E882329F41B861D8637
:103E20001C8690E06BC0CE0160EF40E00E94491E0E
:103E300001E0DD24EE24FF24F394CE010E94C41D92
:103E4000182FCE010E94C41D113019F48130E1F405
:103E500039C0181709F58B85081770F460E0FE016A
:103E6000EE0DF11D838190E02F2D30E0822393230E
:103E7000181619064CF003C060E0081729F0093045
:103E800008F04CC00C874AC0FE01EE0DF11D838185
:103E90008F29838361E009C0612FFE01EE0DF11DC2
:103EA0009F2D9095838189238383CE010E94151EC7
:103EB0000F5FFF0C19F4E394FF24F39487E08E1551
:103EC00008F0BBCF013430F0DB86DD2011F581E056
:103ED0008D871FC01B861D861C8690E0DE0120E0BA
:103EE00030E0F501E20FF31F13968C911397808356
:103EF0002F5F3F4F11962830310599F7892FDF91B9
:103F0000CF911F910F91FF90EF90DF90BF90AF90F6
:103F100008958B818823F1F291E0E0CFD02EBDCFC0
:103F2000FF920F931F938C01F62E862F60E00E9464
:103F30006D068F2D90E0FC01EE52FF4FE491D80109
:103F4000EC9382549F4FFC016491E62FF0E0EE0F5A
:103F5000FF1FEC54FF4F8591949112969C938E9382
:103F600011971B961C921B971D961C921D971C96D1
:103F70001C92F80187E090E012863197009711F0CB
:103F80000197FACF1F910F91FF900895823000F5AD
:103F9000E82FF0E0EE0FFF1FEE5EFB4F71836083B2
:103FA000882319F08130A1F408C0809169008C7FCA
:103FB000842B80936900E89A089580916900440FEA
:103FC000551F440F551F837F842B80936900E99A06
:103FD0000895823080F4882319F0813021F402C0E2
:103FE000E89801C0E998E82FF0E0EE0FFF1FEE5EC1
:103FF000FB4F1182108208951F920F920FB60F92FD
:1040000011242F933F934F935F936F937F938F93DD
:104010009F93AF93BF93EF93FF938091120490917E
:104020001304892B29F0E0911204F09113040995EF
:10403000FF91EF91BF91AF919F918F917F916F9180
:104040005F914F913F912F910F900FBE0F901F9056
:1040500018951F920F920FB60F9211242F933F9332
:104060004F935F936F937F938F939F93AF93BF9380
:10407000EF93FF938091140490911504892B29F0FC
:10408000E0911404F09115040995FF91EF91BF910F
:10409000AF919F918F917F916F915F914F913F91E0
:1040A0002F910F900FBE0F901F90189580935E0177
:1040B0000895982F8E3008F09E50977080915E0181
:1040C0008295880F880F807C892B80937C0080915B
:1040D0007A00806480937A0080917A0086FDFCCF1C
:1040E0002091780040917900942F80E030E0282BD7
:1040F000392BC90108955058BB27AA270ED075C186
:1041000066D130F06BD120F031F49F3F11F41EF4F2
:104110005BC10EF4E095E7FB51C1E92F77D180F345
:10412000BA17620773078407950718F071F49EF5B4
:104130008FC10EF4E0950B2EBA2FA02D0B01B90103
:1041400090010C01CA01A0011124FF27591B99F00D
:10415000593F50F4503E68F11A16F040A22F232F19
:10416000342F4427585FF3CF469537952795A79569
:10417000F0405395C9F77EF41F16BA0B620B730B10
:10418000840BBAF09150A1F0FF0FBB1F661F771F81
:10419000881FC2F70EC0BA0F621F731F841F48F436
:1041A000879577956795B795F7959E3F08F0B3CFBC
:1041B0009395880F08F09927EE0F979587950895A6
:1041C000D9D008F481E008950CD00FC107D140F098
:1041D000FED030F021F45F3F19F0F0C0511139C129
:1041E000F3C014D198F39923C9F35523B1F3951B68
:1041F000550BBB27AA2762177307840738F09F5F08
:104200005F4F220F331F441FAA1FA9F333D00E2E76
:104210003AF0E0E830D091505040E695001CCAF7E3
:1042200029D0FE2F27D0660F771F881FBB1F2617A8
:1042300037074807AB07B0E809F0BB0B802DBF017B
:10424000FF2793585F4F2AF09E3F510568F0B6C094
:1042500000C15F3FECF3983EDCF386957795679558
:10426000B795F7959F5FC9F7880F911D969587952C
:1042700097F90895E1E0660F771F881FBB1F62174B
:1042800073078407BA0720F0621B730B840BBA0B09
:10429000EE1F88F7E095089504D06894B111D9C055
:1042A0000895BCD088F09F5790F0B92F9927B75147
:1042B000A0F0D1F0660F771F881F991F1AF0BA95EA
:1042C000C9F712C0B13081F0C3D0B1E00895C0C0C9
:1042D000672F782F8827B85F39F0B93FCCF38695E0
:1042E00077956795B395D9F73EF49095809570953D
:1042F00061957F4F8F4F9F4F0895E89409C097FBBA
:104300003EF490958095709561957F4F8F4F9F4FAC
:104310009923A9F0F92F96E9BB279395F6958795F0
:1043200077956795B795F111F8CFFAF4BB0F11F4B3
:1043300060FF1BC06F5F7F4F8F4F9F4F16C088235A
:1043400011F096E911C0772321F09EE8872F762F90
:1043500005C0662371F096E8862F70E060E02AF0D1
:104360009A95660F771F881FDAF7880F96958795BD
:1043700097F90895990F0008550FAA0BE0E8FEEF92
:1043800016161706E807F907C0F012161306E40719
:10439000F50798F0621B730B840B950B39F40A2612
:1043A00061F0232B242B252B21F408950A2609F4F0
:1043B000A140A6958FEF811D811D089597F99F67F4
:1043C00080E870E060E008959FEF80EC089500249D
:1043D0000A941616170618060906089500240A946A
:1043E00012161306140605060895092E0394000CF0
:1043F00011F4882352F0BB0F40F4BF2B11F460FF7F
:1044000004C06F5F7F4F8F4F9F4F089557FD9058A7
:10441000440F551F59F05F3F71F04795880F97FB88
:10442000991F61F09F3F79F0879508951216130642
:104430001406551FF2CF4695F1DF08C01616170671
:104440001806991FF1CF86957105610508940895A6
:10445000E894BB2766277727CB0197F908958ADF71
:1044600008F48FEF08950BD0C0CFB1DF28F0B6DF8E
:1044700018F0952309F0A2CFA7CF1124EACFC6DF09
:10448000A0F3959FD1F3950F50E0551F629FF00167
:10449000729FBB27F00DB11D639FAA27F00DB11DC0
:1044A000AA1F649F6627B00DA11D661F829F222749
:1044B000B00DA11D621F739FB00DA11D621F839FD0
:1044C000A00D611D221F749F3327A00D611D231FA6
:1044D000849F600D211D822F762F6A2F11249F57F4
:1044E00050408AF0E1F088234AF0EE0FFF1FBB1F17
:1044F000661F771F881F91505040A9F79E3F5105B6
:1045000070F05CCFA6CF5F3FECF3983EDCF386956E
:1045100077956795B795F795E7959F5FC1F7FE2B60
:10452000880F911D9695879597F9089523DF880B3D
:10453000990B0895629FD001739FF001829FE00D57
:10454000F11D649FE00DF11D929FF00D839FF00D12
:10455000749FF00D659FF00D9927729FB00DE11DBE
:10456000F91F639FB00DE11DF91FBD01CF0111249B
:104570000895AA1BBB1B51E107C0AA1FBB1FA617AA
:10458000B70710F0A61BB70B881F991F5A95A9F7FC
:1045900080959095BC01CD01089597FB092E0726C3
:1045A0000AD077FD04D0E5DF06D000201AF470951C
:1045B00061957F4F0895F6F7909581959F4F0895E7
:1045C000A1E21A2EAA1BBB1BFD010DC0AA1FBB1F17
:1045D000EE1FFF1FA217B307E407F50720F0A21B89
:1045E000B30BE40BF50B661F771F881F991F1A94F6
:1045F00069F760957095809590959B01AC01BD0120
:10460000CF010895EE0FFF1F0590F491E02D09945E
:104610002F923F924F925F926F927F928F929F92D2
:10462000AF92BF92CF92DF92EF92FF920F931F93C0
:10463000CF93DF93CDB7DEB7CA1BDB0B0FB6F89471
:10464000DEBF0FBECDBF09942A88398848885F84B1
:104650006E847D848C849B84AA84B984C884DF8022
:10466000EE80FD800C811B81AA81B981CE0FD11D06
:104670000FB6F894DEBF0FBECDBFED010895F894DC
:02468000FFCF6A
:1046820054656D7020003D00572E2E006E616E0045
:10469200696E66006F7666002E00206E6F2D4143B4
:1046A2004B20002020772F41434B20002300203055
:1046B20078003A005246313220626164204352430C
:1046C20000307800202023003A2000200020001C27
:1046D200040000AE02D3010000A1010000020100AB
:1046E2000000007B0820091108420822086B0834E8
:1046F2000256000000002E13200998126D12FCFFD2
:10470200000094126C1200000000F81389130700D5
:0E47120003000100000000000000981ADE1AEB
:00000001FF
