:100000000C9460010C94171E0C94441E0C949001E7
:100010000C9490010C9490010C9490010C9490011C
:100020000C9490010C9490010C9490010C9490010C
:100030000C9490010C9490010C9490010C949001FC
:100040000C9497050C9490010C9472070C94C007C3
:100050000C9490010C9490010C9490010C949001DC
:100060000C9490010C949001526573657474696EE0
:10007000672E2E2E002A2A2A2A2A2052554E4E4911
:100080004E473A2077617465725F6C6576656C2EB9
:10009000696E6F005363616E6E696E672074656D83
:1000A0007073002A2A2A2A2A2053455455503A2090
:1000B00077617465725F6C6576656C2E696E6F0032
:1000C00000000000240027002A0000000000250096
:1000D00028002B0000000000230026002900040453
:1000E00004040404040402020202020203030303E0
:1000F00003030102040810204080010204081020BC
:1001000001020408102000000007000201000003A3
:1001100004060000000000000000202031396B625E
:1001200070730020206C6F7720545820706F7765B3
:100130007200206D6F64653D002067726F75705F9F
:1001400069643D004E65743A206E6F64655F696452
:100150003D002C206D697373656420002C20616460
:1001600064656420002C2065787065637465642084
:100170000020666F756E642000206D697373696E70
:10018000672000206E6577200020666F756E642002
:1001900000005EBCE2613FDD83C29C7E20A3FD1FA8
:1001A000419DC3217FFCA2401E5F01E3BD3E6082F2
:1001B000DC237D9FC1421CFEA0E1BF5D0380DE3CCD
:1001C00062BEE0025CDF81633D7C22C09E1D43A1D4
:1001D000FF4618FAA427799BC584DA3866E5BB592F
:1001E00007DB856739BAE406581947A5FB7826C4AA
:1001F0009A653BD987045AB8E6A7F91B45C6987A91
:1002000024F8A6441A99C7257B3A6486D85B05E78B
:10021000B98CD2306EEDB3510F4E10F2AC2F7193FA
:10022000CD114FADF3702ECC92D38D6F31B2EC0E59
:1002300050AFF1134DCE90722C6D33D18F0C52B064
:10024000EE326C8ED0530DEFB1F0AE4C1291CF2D3B
:1002500073CA947628ABF517490856B4EA6937D5BE
:100260008B5709EBB536688AD495CB2977F4AA4821
:1002700016E9B7550B88D6346A2B7597C94A14F618
:10028000A8742AC896154BA9F7B6E80A54D7896B03
:10029000353F3F3F3F2F3F3F2F3F3F203F3F3A3FBC
:1002A0003F20555443004E54502074696D652069B9
:1002B0006E697469616C697A656400003F032C099A
:1002C00011241FBECFEFD8E0DEBFCDBF809100016B
:1002D00080931E048091010180931F0411E0A4E02B
:1002E000B1E0E0EAF2E402C005900D92A439B10752
:1002F000D9F714E0A4E9B1E001C01D92AE31B10715
:10030000E1F712E0C0ECD2E004C02297FE010E94A7
:100310004A21CC3BD107C9F70E9482090C944E2197
:100320000C940000EF92FF920F93DF93CF93CDB721
:10033000DEB760970FB6F894DEBF0FBECDBFA82F13
:10034000002309F461C07E010894E11CF11C88E0DF
:10035000F70111928A95E9F729833A834B835C83ED
:100360006D837E83AF83988780E2801BE82FFF2711
:10037000E7FDF0954D815E816F817885181684F0D8
:100380001D861E861F86188A882799278E1B9F0B1D
:1003900004C076956795579547958A95D2F728C0FA
:1003A000202F332727FD3095DB01CA01022E04C020
:1003B000B695A795979587950A94D2F78D879E87CE
:1003C000AF87B88B04C0440F551F661F771FEA958F
:1003D000D2F789819A81AB81BC8104C0B695A7957B
:1003E000979587952A95D2F7482B592B6A2B7B2B0B
:1003F00049875A876B877C8729853A854B855C8539
:100400006D857E85AF8598898A2F60960FB6F894A2
:10041000DEBF0FBECDBFCF91DF910F91FF90EF9068
:1004200008950F931F93CF93DF93689F8001699F77
:10043000100D789F100D1124C8010E942D02EC01AF
:10044000009729F060E070E0A8010E943803CE0117
:10045000DF91CF911F910F910895CF93DF93BC014E
:100460008230910510F462E070E0A0911C04B0911C
:100470001D04ED0140E050E0E0E0F0E021C08881A3
:1004800099818617970769F48A819B81309719F0C3
:100490009383828304C090931D0480931C04FE0107
:1004A00034C06817790738F44115510519F08417DD
:1004B000950708F4AC01FE018A819B819C01E9014A
:1004C0002097E9F641155105A9F1CA01861B970B42
:1004D000049708F4BA01E0E0F0E02AC08D919C9105
:1004E000119784179507F9F46417750781F412962C
:1004F0008D919C911397309719F09383828304C058
:1005000090931D0480931C04FD0132964CC0CA01D7
:10051000861B970BFD01E80FF91F619371930297FA
:100520008D939C9340C0FD01828193819C01D901F0
:100530001097A1F680911A0490911B04892B41F425
:1005400080915C0190915D0190931B0480931A044B
:1005500040915E0150915F014115510541F44DB745
:100560005EB780915A0190915B01481B590B209115
:100570001A0430911B04CA01821B930B861797073C
:1005800080F0AB014E5F5F4F8417950750F0420F2C
:10059000531F50931B0440931A04F9016193719304
:1005A00002C0E0E0F0E0CF01DF91CF910895CF935A
:1005B000DF93009709F450C0EC0122971B821A8246
:1005C000A0911C04B0911D04109709F140E050E087
:1005D000AC17BD0708F1BB83AA83FE0121913191BD
:1005E000E20FF31FAE17BF0779F48D919C9111971D
:1005F000280F391F2E5F3F4F3983288312968D9124
:100600009C9113979B838A834115510571F4D09374
:100610001D04C0931C0420C012968D919C911397C9
:10062000AD01009711F0DC01D3CFFA01D383C2836F
:1006300021913191E20FF31FCE17DF0769F4888112
:100640009981280F391F2E5F3F4FFA013183208394
:100650008A819B8193838283DF91CF910895FB01EF
:10066000DC0102C001900D9241505040D8F708952E
:10067000DC0101C06D9341505040E0F7089584EBD8
:1006800091E067E044E951E024E00E9451168FECCC
:1006900091E00E946B0F86EA92E062E00E94BA113C
:1006A00008956091A9038AEA93E00E94D71B0895F8
:1006B000FF920F931F93CF93DF93182FF62E08E02E
:1006C000C0E0D0E005C0812F0E947505C80FD91F7A
:1006D0000150C8F7249683E0D595C7958A95E1F730
:1006E000809160019091610164E071E00E944C0B87
:1006F0008091600190916101612F4AE050E00E9479
:10070000C90A80916001909161016CE071E00E94E2
:100710004C0B8091600190916101BE014AE050E074
:100720000E94390B80916001909161016CE071E051
:100730000E944C0B0091600110916101BE0188275D
:1007400077FD8095982F0E94B91F23E333E343E59B
:1007500050E40E946D2020E030E040E85AE30E941F
:100760006D20AB01BC01C80122E030E00E94330CD7
:10077000809160019091610160E171E00E94490CFB
:1007800081E0CD32D80724F08F2D61E00E94CA06A7
:10079000CE01DF91CF911F910F91FF900895BF92ED
:1007A000CF92DF92EF92FF920F931F93DF93CF933D
:1007B000CDB7DEB728970FB6F894DEBF0FBECDBF1A
:1007C000A89502C00E9451038FEC91E00E947E1117
:1007D0008823C1F784EB91E06AE00E9451148823DA
:1007E00009F4DEC089E061E00E94CA0695E0C92EE6
:1007F000D12CCC0EDD1EBB2484EB91E06B2D0E942E
:10080000FA128823A9F184EB91E06B2D0E94DB1290
:100810007B018C0120E030E040E05FE30E94B61EE7
:100820000E94861FF60161936F0180916001909193
:10083000610162E171E00E944C0B80916001909136
:1008400061016B2D4AE050E00E94C90A809160016D
:100850009091610168E171E00E944C0B8091600110
:1008600090916101B801A70122E030E00E94360CAE
:10087000B394F4E0BF1609F0BFCF08C08FEC91E04D
:100880000E94F610882311F00E9451038FEC91E032
:100890000E94540F009791F3FC0184E081938E0134
:1008A0000B5F1F4F9601201B310BCF01B801A9012F
:1008B0000E942F030894C11CD11C6C2D601B8FEC6F
:1008C00091E041E00E94D91086E060E00E94CA06F3
:1008D00080E166E00E9458039A83898381E166E0A3
:1008E0000E9458039C838B8308C08FEC91E00E9488
:1008F000F610882311F00E9451038FEC91E00E94C2
:10090000540FFC01009789F387E0808389819A81E5
:10091000928381838B819C81948383838FEC91E08C
:1009200065E041E00E94D91089E060E00E94CA06BB
:1009300080916001909161016AE171E00E944C0B2D
:10094000809160019091610140E050E060E070E0D2
:100950000E94661B80916001909161010E94E909EB
:100960008091F0029091F10201969093F1028093B0
:10097000F0020597ACF0809160019091610168E60A
:1009800070E00E94090A8FEC91E00E947E1164E6FB
:1009900070E080E090E00E94ED0581E00E942D0F64
:1009A00028960FB6F894DEBF0FBECDBFCF91DF9172
:1009B0001F910F91FF90EF90DF90CF90BF9008951F
:1009C0000F931F9329E288E190E00FB6F894A89561
:1009D000809360000FBE209360008DE090EFADEA41
:1009E000BBE08093000190930101A0930201B093BA
:1009F000030183E893E040E051EE60E070E00E9484
:100A0000FB078FEC91E06DE140E024ED0E94700F58
:100A1000809160019091610163EA70E00E94090A8F
:100A200089E061E00E94CA0686E061E00E94CA0691
:100A300089E061E00E948B0686E061E00E948B06FF
:100A400064EF71E080E090E00E94ED0589E060E0F5
:100A50000E94CA0686E060E00E94CA0680E160E06B
:100A60000E948B0681E160E00E948B0681E00E947B
:100A7000720584E060E00E94CA0684E061E00E94A2
:100A80008B06809160019091610164E970E00E94A1
:100A9000090A209160013091610187E064E971E009
:100AA00044E00E94E316809160019091610161E24F
:100AB00071E00E944C0B00916001109161010E9455
:100AC000140FBC01C8014AE050E00E94AC0A8091BA
:100AD00060019091610165E770E00E94090A1F9131
:100AE0000F910895809362010895982F8E3008F039
:100AF0009E509770809162018295880F880F807C4C
:100B0000892B80937C0080917A00806480937A00A6
:100B100080917A0086FDFCCF209178004091790089
:100B2000942F80E030E0282B392BC90108951F92C3
:100B30000F920FB60F9211242F933F938F939F9391
:100B4000AF93BF938091F6029091F702A091F802C3
:100B5000B091F9023091FA020196A11DB11D232F27
:100B60002D5F2D3720F02D570196A11DB11D20932B
:100B7000FA028093F6029093F702A093F802B093E2
:100B8000F9028091F2029091F302A091F402B091E7
:100B9000F5020196A11DB11D8093F2029093F3021C
:100BA000A093F402B093F502BF91AF919F918F9102
:100BB0003F912F910F900FBE0F901F9018958FB7F8
:100BC000F8942091F6023091F7024091F80250918A
:100BD000F9028FBFB901CA0108959B01AC017FB72B
:100BE000F8948091F2029091F302A091F402B091F6
:100BF000F50266B5A89B05C06F3F19F00196A11DCF
:100C0000B11D7FBFBA2FA92F982F8827860F911D5E
:100C1000A11DB11D62E0880F991FAA1FBB1F6A9515
:100C2000D1F7BC012DC0FFB7F8948091F2029091EA
:100C3000F302A091F402B091F502E6B5A89B05C0BD
:100C4000EF3F19F00196A11DB11DFFBFBA2FA92FCB
:100C5000982F88278E0F911DA11DB11DE2E0880FEE
:100C6000991FAA1FBB1FEA95D1F7861B970B885EB9
:100C70009340C8F2215030404040504068517C4F72
:100C8000211531054105510571F60895019739F097
:100C9000880F991F880F991F02970197F1F7089500
:100CA000789484B5826084BD84B5816084BD85B547
:100CB000826085BD85B5816085BDEEE6F0E080810E
:100CC00081608083E1E8F0E010828081826080832F
:100CD000808181608083E0E8F0E0808181608083B2
:100CE000E1EBF0E0808184608083E0EBF0E08081E4
:100CF00081608083EAE7F0E0808184608083808186
:100D0000826080838081816080838081806880832D
:100D10001092C1000895CF93DF93482F50E0CA018D
:100D20008E509F4FFC01349142525F4FFA018491E3
:100D3000882369F190E0880F991FFC01E054FF4F70
:100D4000A591B491FC01E653FF4FC591D491662360
:100D500051F42FB7F8948C91932F909589238C930D
:100D6000888189230BC0623061F42FB7F8948C918D
:100D7000932F909589238C938881832B88832FBF11
:100D800006C09FB7F8948C91832B8C939FBFDF9103
:100D9000CF910895482F50E0CA018A5F9E4FFC0111
:100DA0002491CA018E509F4FFC01949142525F4F93
:100DB000FA013491332309F440C0222351F1233046
:100DC00071F0243028F42130A1F0223011F514C044
:100DD0002630B1F02730C1F02430D9F404C080911E
:100DE00080008F7703C0809180008F7D809380008A
:100DF00010C084B58F7702C084B58F7D84BD09C0D3
:100E00008091B0008F7703C08091B0008F7D809378
:100E1000B000E32FF0E0EE0FFF1FE653FF4FA59168
:100E2000B4912FB7F894662321F48C91909589237F
:100E300002C08C91892B8C932FBF0895682F70E08E
:100E4000CB018A5F9E4FFC012491CB018E509F4FB6
:100E5000FC01449162527F4FFB019491992319F454
:100E600020E030E03CC0222351F1233071F02430E7
:100E700028F42130A1F0223011F514C02630B1F051
:100E80002730C1F02430D9F404C0809180008F77DE
:100E900003C0809180008F7D8093800010C084B556
:100EA0008F7702C084B58F7D84BD09C08091B0006A
:100EB0008F7703C08091B0008F7D8093B000892F21
:100EC00090E0880F991F8C529F4FFC01A591B4911F
:100ED0008C9120E030E0842311F021E030E0C90162
:100EE000089508951F920F920FB60F9211242F9319
:100EF0003F934F938F939F93EF93FF938091C00005
:100F000082FD1DC04091C60020913B0330913C03FF
:100F10002F5F3F4F2F73307080913D0390913E03C0
:100F20002817390771F0E0913B03F0913C03E5503D
:100F3000FD4F408330933C0320933B0302C08091DC
:100F4000C600FF91EF919F918F914F913F912F910B
:100F50000F900FBE0F901F901895E0918F03F091A6
:100F60009003E05CFF4F8191919120813181821B40
:100F7000930B8F739070892B11F00E947107089565
:100F80001F920F920FB60F9211242F933F938F93BE
:100F90009F93EF93FF9320917F0330918003809183
:100FA0008103909182032817390731F48091C100A1
:100FB0008F7D8093C10014C0E0918103F091820382
:100FC000E15CFC4F20818091810390918203019626
:100FD0008F73907090938203809381032093C60057
:100FE000FF91EF919F918F913F912F910F900FBEA5
:100FF0000F901F901895AF92BF92DF92EF92FF92E1
:101000000F931F93CF93DF93EC017A018B01DD24C3
:10101000403081EE580780E0680780E0780711F0E3
:10102000DD24D39491E0A92EB12CEC89FD89DD203B
:1010300069F0C50108A002C0880F991F0A94E2F761
:10104000808360E079E08DE390E005C0108260E885
:1010500074E88EE190E0A80197010E9426212150BA
:10106000304040405040569547953795279580E150
:101070002030380720F0DD2011F0DD24D6CFE889BC
:10108000F9893083EA89FB89208319A2EE89FF89D7
:10109000408121E030E0C9010C8C02C0880F991F0B
:1010A0000A94E2F7482B4083EE89FF894081C90109
:1010B0000D8C02C0880F991F0A94E2F7482B4083D9
:1010C000EE89FF894081C9010E8C02C0880F991FEB
:1010D0000A94E2F7482B4083EE89FF8980810F8CC8
:1010E00002C0220F331F0A94E2F7209528232083A1
:1010F000DF91CF911F910F91FF90EF90DF90BF9004
:10110000AF900895DC011C96ED91FC911D97E05C79
:10111000FF4F2191319180819181281B390B2F73D1
:101120003070C9010895DC011C96ED91FC911D976A
:10113000E05CFF4F20813181E054F040DF01AE5B85
:10114000BF4F8D919C9111972817390719F42FEFF4
:101150003FEF07C08D919C91E80FF91F8081282FE8
:1011600030E0C9010895DC011C96ED91FC911D97BA
:10117000E05CFF4F20813181E054F040DF01AE5B45
:10118000BF4F8D919C9111972817390719F42FEFB4
:101190003FEF10C08D919C911197E80FF91F2081AE
:1011A0008D919C91119701968F73907011969C93DD
:1011B0008E9330E0C9010895DC0191968C9191974E
:1011C000882339F05496ED91FC915597808186FFE4
:1011D000F9CF91961C920895CF93DF93EC01EE85A1
:1011E000FF85E05CFF4F20813181E054F0402F5FAC
:1011F0003F4F2F733070DF01AE5BBF4F8D919C91DD
:10120000119728173907D1F3E05CFF4F8081918156
:10121000E054F040E80FF91F6083EE85FF85E05C45
:10122000FF4F31832083EE89FF89208181E090E0A8
:101230000F8C02C0880F991F0A94E2F7282B208395
:1012400081E089A3EC89FD8980818064808381E0CD
:1012500090E0DF91CF91089510928603109285035C
:1012600088EE93E0A0E0B0E080938703909388033A
:10127000A0938903B0938A038CE691E09093840352
:10128000809383038BEF92E09093900380938F037E
:101290008FE393E0909392038093910385EC90E029
:1012A000909394038093930384EC90E0909396033F
:1012B0008093950380EC90E090939803809397033C
:1012C00081EC90E090939A038093990382EC90E0F4
:1012D00090939C0380939B0386EC90E090939E03F5
:1012E00080939D0384E080939F0383E08093A00319
:1012F00087E08093A10385E08093A20381E080933F
:10130000A3030895CF93DF930E9450060E94E00448
:10131000CDEAD7E00E94CF032097E1F30E94AD070A
:10132000F9CF0E942D020895CF92DF92EF92FF92A3
:101330000F931F93CF93DF937C016B018A01C0E071
:10134000D0E00FC0D6016D916D01D701ED91FC91F8
:101350000190F081E02DC7010995C80FD91F0150F8
:1013600010400115110571F7CE01DF91CF911F914A
:101370000F91FF90EF90DF90CF900895EF92FF9242
:101380000F931F93CF93DF937C018B01C0E0D0E0DC
:10139000F8010F5F1F4F6491662359F0D701ED915B
:1013A000FC910190F081E02DC7010995C80FD91F6C
:1013B000EFCFCE01DF91CF911F910F91FF90EF9072
:1013C0000895DC01ED91FC910190F081E02D0995EB
:1013D0000895EF92FF920F931F938C01DC01ED9122
:1013E000FC910190F081E02D6DE009957C01D80120
:1013F000ED91FC910190F081E02DC8016AE0099522
:101400009C012E0D3F1DC9011F910F91FF90EF9080
:101410000895EF92FF920F931F937C010E94BE09E3
:101420008C01C7010E94E9099C01200F311FC901ED
:101430001F910F91FF90EF900895CF93DF93EC01F0
:101440006115710519F420E030E00FC0DB010D904B
:101450000020E9F71197A61BB70BE881F9810280FC
:10146000F381E02DAD0109959C01C901DF91CF9178
:1014700008954F925F927F928F929F92AF92BF9208
:10148000CF92DF92EF92FF920F931F93DF93CF9350
:10149000CDB7DEB7A1970FB6F894DEBF0FBECDBFB4
:1014A0002C01742ECB01223008F42AE019A231E27B
:1014B000C32ED12CCC0EDD1E822E9924AA24BB244F
:1014C000672D752FA50194010E94262179018A01BB
:1014D000C801B701A50194010E94D420472D461BE5
:1014E0000894C108D1084A3010F4405D01C0495C3D
:1014F000F6014083E114F1040105110521F07E2C71
:101500005F2DC801DDCFC201B6010E941D0AA19660
:101510000FB6F894DEBF0FBECDBFCF91DF911F9104
:101520000F91FF90EF90DF90CF90BF90AF909F9082
:101530008F907F905F904F900895DC0121153105C9
:1015400041F4ED91FC910190F081E02D642F09951B
:1015500008950E94390A0895CF92DF92EF92FF9288
:101560000F931F936C017B019A0100E010E0B8011A
:10157000A7010E949D0A8C01C6010E94E909080F7B
:10158000191FC8011F910F91FF90EF90DF90CF902E
:101590000895EF92FF920F931F939A01E62EFF2476
:1015A00000E010E0B801A7010E949D0A1F910F9171
:1015B000FF90EF900895CF92DF92EF92FF920F93FA
:1015C0001F936C01E62E9A01FF2400E010E0B801A1
:1015D000A7010E949D0A8C01C6010E94E909080F1B
:1015E000191FC8011F910F91FF90EF90DF90CF90CE
:1015F0000895CF92DF92EF92FF920F931F93CF93B4
:10160000DF93EC016A017B012115310541F4E8818A
:10161000F9810190F081E02D642F09951FC02A30D7
:101620003105D1F477FF17C0E881F9810190F0818D
:10163000E02D6DE209958C0144275527BA014C191C
:101640005D096E097F09CE012AE00E94390A9801DE
:10165000280F391F04C02AE00E94390A9C01C901E1
:10166000DF91CF911F910F91FF90EF90DF90CF907E
:101670000895EF92FF920F931F937B019A01002729
:10168000F7FC0095102FB801A7010E94F90A1F91DD
:101690000F91FF90EF9008950E941D0A08957F9288
:1016A0008F929F92AF92BF92CF92DF92EF92FF9272
:1016B0000F931F93CF93DF934C017A018B01722E0E
:1016C000CB01BA01A80197010E94D020882321F004
:1016D000C4016CE271E021C0C0E0D0E057016801B4
:1016E000E894D7F8C601B5012FEF3FEF4FE75FE76A
:1016F0000E94D020882351F4C601B5012FEF3FEF9F
:101700004FE75FE70E941A1F181614F0C1E0D0E0FF
:10171000219739F0C40160E371E00E941D0AEC01D9
:1017200093C0C801B7012FEF3FEF4FE75FE40E947E
:101730006920181654F0C801B7012FEF3FEF4FE7AB
:101740005FEC0E941A1F882324F4C40164E371E053
:10175000E4CFC801B70120E030E040E050E00E9453
:101760001A1F87FD03C0C0E0D0E00EC0D401ED9188
:10177000FC910190F081E02DC4016DE20995EC012E
:1017800017FB109517F9109520E030E040E05FE37B
:10179000DD240BC0CA01B90120E030E040E251E491
:1017A0000E941E1F9B01AC01D394D71498F3C8016B
:1017B000B7010E94B61E5B016C010E948B1F7B016A
:1017C0008C01C401B801A7012AE030E00E949D0A03
:1017D000C80FD91F772039F0C40168E371E00E9477
:1017E0001D0AC80FD91FC801B7010E94B71F9B016E
:1017F000AC01C601B5010E94B51E24C020E030E056
:1018000040E251E40E946D207B018C010E94861F02
:101810005B016C01CC24B7FCC094DC2CC401B60184
:10182000A5012AE030E00E94F90AC80FD91FC601BD
:10183000B5010E94B91F9B01AC01C801B7010E940C
:10184000B51E7A947720D1F6CE01DF91CF911F910A
:101850000F91FF90EF90DF90CF90BF90AF909F904F
:101860008F907F9008950E944F0B0895EF92FF9202
:101870000F931F937C010E944F0B8C01C7010E94A4
:10188000E909080F191FC8011F910F91FF90EF90F0
:101890000895EF92FF920F931F937C010E941D0AFF
:1018A0008C01C7010E94E909080F191FC8011F9187
:1018B0000F91FF90EF900895782F8CB581608CBDCB
:1018C00065B121E030E040E050E00090630104C0E9
:1018D000220F331F441F551F0A94D2F7522F822F15
:1018E0008095862385B99EBD0DB407FEFDCF8EB5CC
:1018F0007EBD0DB407FEFDCF4EB5382F20E085B17B
:10190000582B55B98CB58E7F8CBD50E0422B532B94
:10191000CA010895E8980E945C0CE89A089580E056
:1019200090E00E945C0C8091F603853009F054C071
:1019300080E090EB0E945C0C282F8091FA038823B2
:1019400071F49091F703992351F08091FA03E82FF5
:10195000F0E0E955FC4F90838F5F8093FA0380910C
:10196000FA03E82FF0E0E955FC4F20838F5F809366
:10197000FA038091A5039091A6038227282F229530
:101980002827022E269526952025022E26952025ED
:101990002770082E892F269507942795902D82274A
:1019A00006942795902582279093A6038093A503FC
:1019B0008091A9032091FA0390E0049630E0821709
:1019C00093072CF08091FA03873408F46DC08DE002
:1019D00092E80E945C0C08958091F60387FF2EC068
:1019E000E091A9038091F6038F5F8093F603815005
:1019F000ED5FE80FF0E0E955FC4FE0818091A50331
:101A00009091A6038E27282F22952827022E26950F
:101A100026952025022E269520252770082E892F11
:101A2000269507942795902D822706942795902533
:101A300082279093A6038093A50330C08091F6037C
:101A40008F5F8093F6038150833019F184302CF43A
:101A5000882399F0813009F516C0893019F08A3051
:101A6000E1F402C0EDE21AC0E091F7039091A903FE
:101A70008EEF891B8093F60311C08091A50390918E
:101A8000A603E82F0BC08091A5039091A603E92F30
:101A900005C08DE092E80E945C0CEAEA8E2F90E08F
:101AA000805098440E945C0C08958091F603853024
:101AB00009F042C08091A9032091FA0390E00496B6
:101AC00030E08217930724F08091FA038734A0F165
:101AD00084E08093F6038091A903833430F081E0A1
:101AE00090E09093A6038093A5038091A80386FFBE
:101AF00012C08091F503282F30E0C9018F719070DA
:101B00004F9749F08091A80390E0822793278F7127
:101B10009070892B89F48091A5039091A603892B5D
:101B200009F052C0E091F203F091F303309709F409
:101B30004BC080E0099554C08091F603843011F0C9
:101B400080E008958091F403882351F08093A903E5
:101B50001092A8038091A8038093A70383E004C098
:101B60001092A9038091A9038093FA038FEF9FEF4E
:101B70009093A6038093A5032091F7032223D9F025
:101B80008227282F22952827022E26952695202564
:101B9000022E269520252770082E892F269507943A
:101BA0002795902D8227069427959025822790933C
:101BB000A6038093A50385E08093F6038DED92E85C
:101BC0000E945C0C80E008958FEF9FEFAFEFBFEFB6
:101BD0008093EE039093EF03A093F003B093F1038F
:101BE00081E008958091F603853099F48091FA039D
:101BF000882379F480E090E00E948A0C90FD09C06F
:101C00008DE092E80E948A0C84E08093F60381E0E4
:101C1000089580E00895982F86FD05C0907E8091FC
:101C2000F5038F71980F9093A803E091F203F09160
:101C3000F303309711F081E009958FEF9FEF9093B8
:101C4000A6038093A5038091A5039091A6032091FC
:101C5000F7038227282F22952827022E26952695DE
:101C60002025022E269520252770082E892F2695BF
:101C700007942795902D82270694279590258227F3
:101C80009093A6038093A50386E08093F6038DE3EB
:101C900092E80E945C0C08951F93182F4093A903AB
:101CA0002AEA33E0C90150E00E942F03812F0E94ED
:101CB0000B0E1F91089525B181E090E0A0E0B0E007
:101CC0000090630104C0880F991FAA1FBB1F0A94CC
:101CD000D2F7282B25B924B1822B84B98AE061E0A0
:101CE0000E94CA068AE061E00E948B068BE061E0F8
:101CF0000E948B068CE060E00E948B068DE061E024
:101D00000E948B0680E58CBD8DB581608DBD82E023
:101D100060E00E948B0682E061E00E94CA0608959E
:101D20001F93162F8093F5034093F7033093F90325
:101D30002093F8030E945B0E80E090E00E945C0C10
:101D400085E092E80E945C0C80E098EB02C080E0A5
:101D500090E00E945C0C82E00E941E07892BB9F380
:101D6000812F90E0F4E0880F991FFA95E1F7876CD6
:101D700090680E945C0C8091F8039091F903805068
:101D800090460E945C0C86E096EC0E945C0C82EA15
:101D900094E90E945C0C8CEA92EC0E945C0C10911D
:101DA000F703112341F083E89AEC0E945C0C812F29
:101DB00090E09E6C06C08BE89AEC0E945C0C8DE271
:101DC0009EEC0E945C0C83E894EC0E945C0C80E525
:101DD00098E90E945C0C87E79CEC0E945C0C80E018
:101DE00090EE0E945C0C80E098EC0E945C0C89E410
:101DF00090EC0E945C0C84E08093F6038091F503E4
:101E000090E08F719070892B41F080E06FE87CE06A
:101E100040E050E00E94E11D03C080E00E94041EEB
:101E20008091F5031F910895DF93CF9300D0CDB734
:101E3000DEB780911A0490911B049E012F5F3F4FE3
:101E4000009719F42E51344002C0281B390BC901E8
:101E50000F900F90CF91DF9108951F93182F6AE094
:101E600070E080E090E00E94ED05112329F480E00D
:101E700090E0A0E0B0E004C08DE090EFADEABBE000
:101E80008093000190930101A0930201B09303019C
:101E900028E088E190E00FB6F894A8958093600060
:101EA0000FBE20936000FFCFFC01E453FF4F9081F1
:101EB000EC5CF040933018F020E030E00AC082E2A1
:101EC000989F900111242F5F3F4F220F331F2E0F39
:101ED0003F1FC9010895FC01E453FF4F108208958C
:101EE000FF920F931F93FC01F42E90911E049923EF
:101EF00071F080911F04882351F08F3140F4EC522F
:101F0000FF4F9083E45DF0408093FB0307C0EC52E9
:101F1000FF4F2083E45DF0406093FB038F010C5280
:101F20001F4F8091FB0363E0F801408120E436E01D
:101F30000E94900E809160019091610164E471E0D3
:101F40000E94BE0980916001909161016091FB0344
:101F50004AE050E00E94C90A8091600190916101BD
:101F600069E371E00E94BE09809160019091610176
:101F7000F80160814AE050E00E94C90A8091600146
:101F80009091610162E371E00E94BE09809160015D
:101F9000909161016F2D4AE050E00E94C90AF1E082
:101FA000FF1621F082E0F81631F511C087E598E9B7
:101FB0000E948A0C82EB94E90E948A0C8091600155
:101FC0009091610163E271E00E94090A1AC081E107
:101FD00096EC0E948A0C81EC94E90E948A0C80E2C3
:101FE00098E90E948A0C80916001909161016AE1F8
:101FF00071E00E94090A80916001909161010E9444
:10200000E90983E00E94720585E060E00E948B068A
:102010001F910F91FF9008951F93CF93DF93EC01D1
:10202000C453DF4F8881CC5CD0408823D9F118811C
:10203000C353DF4F8881CD5CD04090E007970CF010
:102040001F7DBE016E5F7F4F812F49810E944C0E24
:1020500015FD1AC0C453DF4F8881CC5CD04082305C
:1020600048F0DE01FE01EC5BFF4F88E801900D9225
:102070008150E1F7FE01E453FF4F8081815080835E
:10208000C353DF4F18820EC0FE01E353FF4F808120
:102090008F5F80830E94DF05C253DF4F688379839F
:1020A0008A839B83DF91CF911F910895EF92FF92D6
:1020B0000F931F93CF93DF93EC0192EDE92EF12C58
:1020C000EC0EFD1EF70180818823A1F10E94F20D24
:1020D000882381F18E010D521F4FF7018081B801D5
:1020E00041E00E944C0EF7011082F801108229C0D5
:1020F000C353DF4F8881CD5CD040882399F00E9484
:10210000DF05C253DF4F288139814A815B81CE5C74
:10211000D0402E5C3F4F4F4F5F4F621773078407CD
:10212000950778F00E94F20D882359F0CE010E94A5
:102130000C1007C0C453DF4F8881CC5CD04088238B
:10214000B9F6DF91CF911F910F91FF90EF90089515
:10215000CF93DF93EC01DC01A453BF4F8C9183300C
:1021600028F590E024E430E0829FF001839FF00D99
:10217000929FF00D1124EC0FFD1F61838C9190E074
:10218000829FF001839FF00D929FF00D1124EC0FC0
:10219000FD1F40838C918F5F8C93813039F40E94B6
:1021A000F20D882319F0CE010E940C10DF91CF911F
:1021B00008959C01411140E28091FB03482BC90125
:1021C0000E94A81008950F931F938C0185E00E9430
:1021D00075050A521F4F8C5291409595879595959C
:1021E0008795F80180831F910F910895CF93DF9316
:1021F000EC010E94550D882309F479C08091A50354
:102200009091A603892B09F06EC08091A80387FDE9
:102210001FC0CE010E94E3108091A80385FF13C068
:102220009091A8039F718091FB03981711F4892F57
:1022300002C0892F8064CE52DF4F80688883249645
:102240008881239788838091AA038091AA0353C031
:102250008091A80385FD42C0CE010E94E310209129
:10226000A80330E02F7130708091FB0390E02817B5
:102270003907E9F5C453DF4F8881CC5CD04088230F
:10228000B1F1C353DF4F8881CD5CD040882379F111
:102290008091A903813011F080E002C08091AA03EF
:1022A000CB52DF4F888329978881CC5CD040823025
:1022B00048F0DE01FE01EC5BFF4F88E801900D92D3
:1022C0008150E1F7FE01E453FF4F8081815080830C
:1022D000C353DF4F1882CD5CD04009C08091A80362
:1022E0008091A80304C08091A5039091A603CE011C
:1022F0000E94561080E0DF91CF910895EF92FF92F7
:102300000F931F93CF93DF93EC01C453DF4F88816A
:10231000CC5CD0408823B9F4CE52DF4F8881C25DB7
:10232000D040882381F4CE010E94F6101CC0CE015B
:102330000E94F6108823B9F461E070E080E090E03C
:102340000E94ED0508C03CECE32EF12CEC0EFD1EC6
:102350008E010E521F4FF7018081882341F7F8014B
:102360008081882321F7DF91CF911F910F91FF90FA
:10237000EF900895FC01138212828CE791E0918323
:1023800080836583E85BFF4F10820895EF92FF9290
:102390000F931F93CF93DF938FEC91E00E94540F24
:1023A000EC01009701F50E94DF057B018C010E9482
:1023B000DF056E197F09800B910B6C5271408040D4
:1023C000904088F461E070E080E090E00E94ED05CC
:1023D0008FEC91E00E94F6108FEC91E00E94540F78
:1023E000009729F3EC01CE01DF91CF911F910F915E
:1023F000FF90EF900895EF92FF920F931F93CF936A
:10240000DF93EC018C01085B1F4FD8018C91FE011A
:10241000E80FF11D16828D818823B1F0BE016A5F3D
:102420007F4F83E893E00E944C0BF8018081882362
:1024300059F0FE01E80FF11D85818A3029F483E807
:1024400093E06DE00E94E1098D8181FF86C08E01DD
:10245000075B1F4FD8018C91882309F453C0CE012C
:102460000E94C611AC01009709F445C0FC0182E04E
:1024700081939F016AE371E086E0DB010D90BD016D
:10248000D9010D929D018150C1F79F012A5F3F4FF5
:10249000C75BDF4F8881C954D0408B3040F06AE081
:1024A0000E94F320805D86839F01295F3F4FFE01DC
:1024B000E75BFF4F80816AE00E94F320905DF901A5
:1024C00091939F0161E471E087E0DB010D90BD0114
:1024D000D9010D929D018150C1F737966E2F641B73
:1024E0008FEC91E041E00E94D910C75BDF4F18826A
:1024F000C954D04007C0F8018081833688F58F5FCA
:1025000080832EC0CE010E94C61129E4E22EF12C58
:10251000EC0EFD1E0097D9F0FC0182E081938E0144
:10252000085B1F4FD8014C919E012A5F3F4FCF019E
:10253000B90150E00E942F03F80160816F5F8FECBA
:1025400091E041E00E94D910D7011C9206C0F7012A
:1025500080818F3F11F08F5F8083C85BDF4F1882CF
:10256000DF91CF911F910F91FF90EF9008951F93EE
:10257000CF93DF93EC01162FC85BDF4F8881C854DF
:10258000D040813418F0CE010E94FB11DE01A85B1F
:10259000BF4F8C91FE01E80FF11D16838F5F8C9366
:1025A0001A3019F4CE010E94FB1181E090E0DF9116
:1025B000CF911F910895FC018481681728F070E085
:1025C00060E090EC8FE70FC0862F90E0880F991F96
:1025D000880F991F0284F385E02DE80FF91F7081A1
:1025E000618192818381272F362F492F582FB9017E
:1025F000CA01089570E033E0660F771F3A95E1F75E
:10260000DC011296ED91FC911397E60FF71F97816D
:10261000923211F481E0089580E0983209F481E06B
:102620000895AF92BF92CF92DF92EF92FF920F93F5
:102630001F93DF93CF93CDB7DEB7A4970FB6F8946F
:10264000DEBF0FBECDBF7C010D8F1E8F2F8F38A335
:1026500049A35AA36BA37CA3CE014D960E945616A4
:1026600029833A834B835C836D837E838F83988732
:10267000F701808191810E943B1AF701808191814D
:10268000BE016F5F7F4F0E941A1AF701808191810E
:102690006EEB40E00E94D5198E010F5E1F4FC801FE
:1026A000B02EA92E7AE1C72ED12CCC0EDD1EF7015B
:1026B000808191810E948419F80181938F01EC152A
:1026C000FD05A9F78B2D9A2D68E00E943F19998D81
:1026D000891769F52989222319F48A89882339F110
:1026E0008E898F3F21F5888D803109F59A8980E0A8
:1026F000422F50E0482B592BDE011996E0E8F1E01B
:1027000088E001900D928150E1F7ED89F0E0E076EC
:10271000F07064E0F695E7956A95E1F7EC0FFD1F20
:1027200021853285209530952423352302C020E071
:1027300030E8C901A4960FB6F894DEBF0FBECDBF36
:10274000CF91DF911F910F91FF90EF90DF90CF908D
:10275000BF90AF9008958F929F92AF92BF92CF9209
:10276000DF92EF92FF920F931F93CF93DF93EC01D1
:1027700070E0E3E0660F771FEA95E1F7EA81FB81FD
:10278000E60FF71FF080E180D280C380B480A5807F
:10279000968087800F2D1E2D2D2D3C2D4B2D5A2DD3
:1027A000692D782D0E9411139C0180E82030380794
:1027B00051F5CE012D2D3C2D4B2D5A2D692D782D07
:1027C0000E9411139C0180E820303807E1F4CE010B
:1027D0002D2D3C2D4B2D5A2D692D782D0E94111336
:1027E0009C0180E82030380771F4CE012D2D3C2D5E
:1027F0004B2D5A2D692D782D0E9411139C0180E8D4
:102800002030380701F185E020353807E1F0B901C3
:10281000882777FD8095982F0E94B91F20E030E02F
:1028200040E85DE30E946D2026E636E646EE5FE373
:102830000E946D2020E030E040E052E40E94B61E8D
:10284000E62F692F04C0E0E070E080EC6FE72E2FE8
:10285000372F482F562FB901CA01DF91CF911F9111
:102860000F91FF90EF90DF90CF90BF90AF909F902F
:102870008F9008950F931F938C01FC0180819181AB
:102880000E943B1AF801808191810E94151AF8017B
:102890008081918164E441E00E94D5191F910F91DC
:1028A00008952F923F924F925F927F928F929F92C4
:1028B000AF92BF92CF92DF92EF92FF920F931F934E
:1028C000CF93DF93EC01962E409660E67AEE0E945D
:1028D0008D1E882309F44AC08B899C89AD89BE89E5
:1028E0000196A11DB11D8B8B9C8BAD8BBE8B803F48
:1028F0009105A105B105D0F11B8A1C8A1D8A1E8A8B
:1029000090E006E010E829C0EF89F88DE60FF71F88
:10291000DA0111969F012A0F3B1FE40FF51F8081FA
:10292000F9018083E98DFA8DE60FF71FAE0FBF1F07
:10293000E40FF51F80818C9341505040FFEF4F3FD3
:102940005F0711F7EF89F88DE60FF71F1083E98D08
:10295000FA8DE60FF71F10839F5F8C81981730F474
:10296000909FB001112444E050E0CECF0E94DF05DB
:102970005B016C018D81882309F045C0992041F0ED
:102980008E819F81A885B9850097A105B10531F495
:102990005C8140E030E080E090E022C0860175017B
:1029A000E81AF90A0A0B1B0B692D70E080E090E031
:1029B00028EE33E040E050E00E94D4206E157F0501
:1029C0008007910728F304C1EA81FB81E80FF91F12
:1029D0002781223211F0283209F44F5F3F5F0896B9
:1029E000351790F3442351F0CE010E943A14AE8281
:1029F000BF82C886D98681E08D83EAC0AE82BF825D
:102A0000C886D986E3C0813009F0E2C08E819F81FB
:102A1000A885B985A81AB90ACA0ADB0A8DEBA816D7
:102A2000B104C104D10408F4D3C077240F2EF0E020
:102A30002F2EF0E03F2EF0EC4F2EFFE75F2EF02D13
:102A4000C0C0872C9924C401B3E0880F991FBA95A0
:102A5000E1F7EA81FB81E80FF91F8781823219F0E3
:102A6000883209F0ADC0CE01672D0E94AB135B0127
:102A70006C01A1E0EA2EF12C012D112D072C04C0D0
:102A8000EE0CFF1C001F111F0A94D2F7A60195013E
:102A90000E94D0202C853D854E855F85882301F1DD
:102AA000D801C70182239323A423B5230097A1054E
:102AB000B10569F0880C991C880C991CEA85FB8586
:102AC000E80DF91D208231824282538279C02E297D
:102AD0003F29402B512B2C873D874E875F8770C045
:102AE000D801C70180959095A095B09528233923EA
:102AF0004A235B232C873D874E875F87C401880F5D
:102B0000991F880F991FEA85FB85E80FF91FA0829E
:102B1000B182C282D382C601B50120E030E040E03C
:102B200050E00E94692088234CF0C601B50120E0E6
:102B300030E040E05FE30E94B61E08C0C601B50168
:102B400020E030E040E05FE30E94B51E0E94861F57
:102B500078EAF72EF60E8401000F111F080D191DDB
:102B6000000F111FEF89F88DE00FF11F858180386C
:102B700059F42F2D332727FD3095CF01B90146E0B9
:102B800050E00E94380306C08081803811F0F816AA
:102B90000CF4F082E98DFA8DE00FF11F8581803809
:102BA00059F42F2D332727FD3095CF01B90146E089
:102BB00050E00E94380304C080818F150CF4F0822D
:102BC00073948C81781608F43CCF1D8281E001C09B
:102BD00080E0DF91CF911F910F91FF90EF90DF90F8
:102BE000CF90BF90AF909F908F907F905F904F90CD
:102BF0003F902F900895CF92DF92EF92FF920F9324
:102C00001F93CF93DF93EC01D62E7A01C22E8EE074
:102C100090E00E949109182F092F6D2D0E941C1B16
:102C200018830983FB82EA828C2D813208F080E2CE
:102C30008C831D821C861D861E861F8690E064E0A4
:102C400070E00E9411028A879B878C8190E066E089
:102C500070E00E9411028F8B988F2C8116E0219FCB
:102C60009001112460E870E0A9010E9438038C8172
:102C700090E066E070E00E941102898F9A8F2C81AB
:102C8000219F9001112460E870E0A9010E9438039F
:102C9000DF91CF911F910F91FF90EF90DF90CF9038
:102CA0000895FC01128A0E94FB150895DF93CF93CB
:102CB000CDB7DEB728970FB6F894DEBF0FBECDBFF5
:102CC000DC01FE0138969E0103C08D91808331970F
:102CD000E217F307D1F729813A814B815C816D813D
:102CE0007E818F81988528960FB6F894DEBF0FBE3F
:102CF000CDBFCF91DF910895CF92DF92EF92FF92F7
:102D00000F931F93DF93CF93CDB7DEB728970FB6FE
:102D1000F894DEBF0FBECDBF7C0109831A832B83DD
:102D20003C834D835E836F83788769E471E00E9402
:102D30004C0B8E010F5F1F4F99E0C92ED12CCC0E8A
:102D4000DD1EF801608170E084E0759567958A95D5
:102D5000E1F7C70140E150E00E94390BF8016191B1
:102D60008F0170E06F707070C70140E150E00E9409
:102D7000390B0C151D0529F728960FB6F894DEBF00
:102D80000FBECDBFCF91DF911F910F91FF90EF90BC
:102D9000DF90CF900895FF920F931F938C01F62E32
:102DA0006CE471E00E944C0BC8016F2D4AE050E0CA
:102DB0000E94C90AC80160E571E00E944C0B1F9196
:102DC0000F91FF9008952F923F924F925F926F92D2
:102DD0007F928F929F92AF92BF92CF92DF92EF92AB
:102DE000FF920F931F93DF93CF93CDB7DEB7E19799
:102DF0000FB6F894DEBF0FBECDBF8AA74BA739012F
:102E00006CA77DA778A36F8FFB0140E050E060E0E6
:102E100070E020E001E010E021C080819181892BE9
:102E20009281892B9381892B9481892B9581892B80
:102E30009681892B9781892B79F0C801022E02C0D7
:102E4000880F991F0A94E2F7AA2797FDA095BA2F39
:102E5000482B592B6A2B7B2B2F5F38963BA52317CA
:102E6000E0F21BA220E030E0E1E0F0E0CF01022E32
:102E700002C0880F991F0A94E2F7AA2797FDA09530
:102E8000BA2F84239523A623B7230097A105B10564
:102E900019F08BA18F5F8BA32F5F3F4F203231053D
:102EA00029F78E010F5E1F4FC8016AA50E941C1BE7
:102EB000C8010E9432192224332421011EA21FA21C
:102EC00018A619A61DA21CA20EA71FA7DE01189600
:102ED000B9ABA8ABFDC0CE01019667E00E943F19D7
:102EE000882E9924AA24BB24CC24DD2476012981B0
:102EF0003A814B815C816D817E818F81988508E369
:102F00000E949201821609F0E3C0931609F0E0C016
:102F1000A41609F0DDC0B51609F0DAC0C61609F02E
:102F2000D7C0D71609F0D4C0E81609F0D1C0F916F9
:102F300009F0CEC0FE01709607C0A9A1BAA18D917B
:102F4000BAA3A9A38083319728A939A9E217F30767
:102F5000A1F719850A85EB84DC84CD84BE84AF8417
:102F600098888CA59DA5FC01FF2444C08081918197
:102F70002281338144815581668177813896181783
:102F8000C1F50917B1F5E216A1F5D31691F5C416EE
:102F900081F5B51671F5A61661F5971651F5611410
:102FA0007104B9F0C3016AA50E94CB16C30169E898
:102FB00071E00E94BE0909811A812B813C814D81FB
:102FC0005E816F817885C3010E947C16C3010E94D7
:102FD000E90981E090E0A0E0B0E004C0880F991F0B
:102FE000AA1FBB1FFA94D2F7282A392A4A2A5B2A39
:102FF0006CC0F3943BA5F31608F4B8CF8CA59DA53F
:10300000FC01FF245EC0DF01808191812281338138
:1030100044815581668177813896892B822B832B59
:10302000842B852B862B872B09F04AC01C93119685
:103030000C9311971296EC9212971396DC921397B9
:103040001496CC9214971596BC9215971696AC923E
:10305000169717969C9261147104B9F0C3016AA582
:103060000E94CB16C30163E871E00E94BE0909818A
:103070001A812B813C814D815E816F817885C301EE
:103080000E947C16C3010E94E90981E090E0A0E063
:10309000B0E004C0880F991FAA1FBB1FFA94D2F793
:1030A0002EA13FA148A559A5282B392B4A2B5B2BD4
:1030B0002EA33FA348A759A73CA13F5F3CA305C04F
:1030C000F3944BA5F41608F49ECF5DA15F5F5DA35A
:1030D000CE0101969AA389A38EA59FA5BE016F5F1D
:1030E0007F4F0E94861A882309F0F5CE8EA59FA5F2
:1030F0000E943219ACA09BA1A90EADA1AA1A09F495
:1031000063C0C3016AA50E94CB16C30169E771E0E1
:103110000E94BE09BB24CEA0DFA0E8A4F9A4C22867
:10312000D328E428F528C094D094E094F09428E0C3
:10313000822E912C8C0E9D1E40C0D701C6010B2CF7
:1031400004C0B695A795979587950A94D2F780FF06
:103150002DC0EF8DF8A180819181892B9281892BDF
:103160009381892B9481892B9581892B9681892B39
:103170009781892BD9F0C30163E571E00E944C0B64
:10318000AF8DB8A1FE01709603C08D9180833197F9
:10319000E815F905D1F709851A852B853C854D85FC
:1031A0005E856F857889C3010E947C16B3942F8D4C
:1031B00038A1285F3F4F38A32F8F3BA5B31608F4E3
:1031C000BCCFC3010E94E9096114710481F1C301FC
:1031D0006AA50E94CB16C30161E771E00E94BE0997
:1031E000C3016DA14AE050E00E94C90AC30165E62F
:1031F00071E00E94BE09C3016BA14AE050E00E9449
:10320000C90AC3016CE571E00E94BE09C3016CA14B
:103210004AE050E00E94C90AC30162E571E00E94E1
:10322000BE09C3016A2D4AE050E00E94DB0AB101E9
:10323000C201E1960FB6F894DEBF0FBECDBFCF91AD
:10324000DF911F910F91FF90EF90DF90CF90BF9093
:10325000AF909F908F907F906F905F904F903F9036
:103260002F900895FC0113861586148687E090E060
:1032700012863197009711F00197FACF0895DC017B
:1032800080E00BC0E82FF0E08D9190E0E827F9276F
:10329000EF56FE4FE49161508E2F662399F7089503
:1032A000DF92EF92FF920F931F93FC01E080018168
:1032B0001281F894F8018281DE2CD0948D218283D2
:1032C00081818E29818383E090E00E944606F80187
:1032D00081818D2181838AE090E00E944606F80179
:1032E0000081789485E390E00E94460680E010E03B
:1032F000FF240E211F21012B09F081E01F910F9166
:10330000FF90EF90DF900895EF92FF920F931F933D
:10331000CF93DF937C0101E010E0C0E0D0E0C70173
:103320000E9450198111102B000F2196C830D10531
:10333000B1F7812FDF91CF911F910F91FF90EF9007
:1033400008951F93CF93DF93FC011081C181D28137
:10335000912F909560FF12C0F8948A8189238A8307
:103360008981812B89838AE090E00E9446068A81C8
:10337000812B8A83789487E390E011C0F8948A8146
:1033800089238A838981812B898381E490E00E944B
:1033900046068A81812B8A83789485E090E00E949A
:1033A0004606DF91CF911F910895CF92DF92EF9261
:1033B000FF920F931F93CF93DF938C01E42EFF2492
:1033C000F394C0E0D0E0C62EDD2460E08F2D90E0C5
:1033D0008C219D21892B09F061E0C8010E94A1196F
:1033E000FF0C2196C830D10581F7EE20A9F4F8949E
:1033F000D8011196ED91FC91129791818C91809555
:10340000982391831196ED91FC91129792818C9162
:103410008095982392837894DF91CF911F910F919B
:10342000FF90EF90DF90CF9008956CEC40E00E9409
:10343000D5190895EF92FF920F931F93CF93DF93C7
:103440008C017B0165E540E00E94D519C0E0D0E029
:10345000F701EC0FFD1FC801608140E00E94D51903
:103460002196C830D105A1F7DF91CF911F910F911F
:10347000FF90EF900895DF92EF92FF920F931F93CA
:10348000CF93DF93FC010081C181D281F8948981BF
:10349000D02ED0948D21898378941DE7E02EFF24CF
:1034A000115059F182E090E00E944606888190E038
:1034B0008E219F21892BA1F3F8948A818D218A8303
:1034C0008981802B8983789484EF91E00E9446065D
:1034D000F89489818D21898380E590E00E944606D9
:1034E000888110E090E0E822F922EF2809F411E049
:1034F000789484EA91E00E944606812FDF91CF9173
:103500001F910F91FF90EF90DF900895AF92BF92BF
:10351000DF92EF92FF920F931F93CF93DF93EC0113
:103520005B018D85882309F061C0CE010E943B1AA2
:10353000882329F41B861D861C8690E06BC0CE0173
:1035400060EF40E00E94D51901E0DD24EE24FF2465
:10355000F394CE010E945019182FCE010E945019E9
:10356000113019F48130E1F439C0181709F58B8551
:10357000081770F460E0FE01EE0DF11D838190E00C
:103580002F2D30E082239323181619064CF003C028
:1035900060E0081729F0093008F04CC00C874AC0D9
:1035A000FE01EE0DF11D83818F29838361E009C047
:1035B000612FFE01EE0DF11D9F2D909583818923D2
:1035C0008383CE010E94A1190F5FFF0C19F4E394CD
:1035D000FF24F39487E08E1508F0BBCF013430F060
:1035E000DB86DD2011F581E08D871FC01B861D86DF
:1035F0001C8690E0DE0120E030E0F501E20FF31FD1
:1036000013968C91139780832F5F3F4F119628302C
:10361000310599F7892FDF91CF911F910F91FF907D
:10362000EF90DF90BF90AF9008958B818823F1F2E7
:1036300091E0E0CFD02EBDCFFF920F931F938C016E
:10364000F62E862F60E00E948B068F2D90E0FC0105
:10365000EE50FF4FE491D801EC9382529F4FFC0152
:103660006491E62FF0E0EE0FFF1FEC52FF4F8591C3
:10367000949112969C938E9311971B961C921B9774
:103680001D961C921D971C961C92F80187E090E0F5
:1036900012863197009711F00197FACF1F910F9181
:1036A000FF9008951F93CF93DF93EC01162F6A309C
:1036B00018F4642F0E94E109CE01612F4AE050E026
:1036C0000E94C90ADF91CF911F910895EF92FF9256
:1036D0000F931F93CF93DF93EC017A018B010E942C
:1036E000401D882331F4CE0161E972E00E94BE09D9
:1036F00057C0E114F1040105110521F40E946D1D6C
:103700007B018C01C801B7010E941F1DBC01CE01C5
:103710004AE050E00E94390BCE016FE20E94E109BD
:10372000C801B7010E94281D682FCE0140E30E9406
:10373000521BCE016FE20E94E109C801B7010E944D
:103740002E1D682FCE0140E30E94521BCE0160E285
:103750000E94E109C801B7010E943A1D682FCE01FD
:1037600040E30E94521BCE016AE30E94E109C801B6
:10377000B7010E94341D682FCE0140E30E94521B06
:10378000CE016AE30E94E1090E94D91D682FCE0193
:1037900040E30E94521BCE0165E571E00E944C0B94
:1037A000DF91CF911F910F91FF90EF9008951F939C
:1037B000CF93DF93EC0188818330A9F4643098F0D3
:1037C0000E94401D182F69817A818B819C810E9403
:1037D000431D112341F4809160019091610166EADB
:1037E00072E00E94090ADF91CF911F9108958F9294
:1037F0009F92AF92BF92CF92DF92EF92FF920F9380
:103800001F93CF93DF937B018C01EA012CE330E01F
:1038100040E050E00E9426216883C801B7012CE3F4
:1038200030E040E050E00E942621122F032FF42EBA
:10383000E52E622F732F842F952F2CE330E040E08C
:1038400050E00E9426216983612F702F8F2D9E2DBD
:103850002CE330E040E050E00E942621122F032F9D
:10386000F42EE52E622F732F842F952F28E130E060
:1038700040E050E00E9426216A83612F702F8F2D37
:103880009E2D28E130E040E050E00E9426217901A1
:103890008A01C801B7016C5F7F4F8F4F9F4F27E0B0
:1038A00030E040E050E00E9426216F5F6B8320E013
:1038B000AA24BB24650101C02F5F822E9924F40144
:1038C000EE54F84FCF0183709070892B99F4CF019B
:1038D00064E670E00E941321892B39F4CF0160E97E
:1038E00071E00E941321892B29F48EE691E0A0E07B
:1038F000B0E004C08DE691E0A0E0B0E0A80EB91EF3
:10390000CA1EDB1EC501A0E0B0E0E816F9060A07F2
:103910001B0790F62E83F401EE54F84F83E0882EB7
:10392000912C8E229F228114910499F4CF0164E698
:1039300070E00E941321892B39F4CF0160E971E016
:103940000E941321892B29F48EE691E0A0E0B0E0DB
:1039500004C08DE691E0A0E0B0E0A81AB90ACA0A56
:10396000DB0A980187010A191B092C093D09CF01BF
:1039700064E670E00E9413217C01CF0160E971E0F0
:103980000E941321AC01E8E8F1E060E0613051F4FD
:103990008114910449F4E114F10441F441155105F5
:1039A00029F002C0808103C08CE101C08DE190E06C
:1039B000A0E0B0E0081719072A073B0740F0081BF2
:1039C000190B2A0B3B0B6F5F31966C30F9F66F5F6A
:1039D0006D83802F8F5F8C83DF91CF911F910F912B
:1039E000FF90EF90DF90CF90BF90AF909F908F901F
:1039F0000895EF92FF920F931F937B018C018091AA
:103A0000120490911304A0911404B0911504E816C7
:103A1000F9060A071B0771F0C801B70147E054E037
:103A20000E94F71BE0921204F09213040093140416
:103A3000109315041F910F91FF90EF9008950E942D
:103A4000F91C20910D0430E02E54384FC90108951F
:103A50000E94F91C80910C0490E008950E94F91CCA
:103A600080910B0490E008950E94F91C8091080455
:103A700090E008950E94F91C8091090490E0089557
:103A80008091060408956093FE037093FF03809372
:103A900000049093010420916401309165014091EC
:103AA000660150916701260F371F481F591F209349
:103AB000020430930304409304045093050482E00D
:103AC000809306040E94DF0560930E0470930F0438
:103AD00080931004909311040895EF92FF920F9336
:103AE0001F931CC02F5F3F4F4F4F5F4F2093FE032C
:103AF0003093FF03409300045093010488EE93E059
:103B0000A0E0B0E0E80EF91E0A1F1B1FE0920E04B1
:103B1000F0920F0400931004109311040E94DF052B
:103B2000E0900E04F0900F04009110041091110425
:103B30006E197F09800B910B2091FE033091FF03DA
:103B40004091000450910104685E734080409040B1
:103B500048F68091020490910304A0910404B0916E
:103B60000504281739074A075B07B0F0E091FC030A
:103B7000F091FD03309781F009956115710581057C
:103B8000910519F00E94431D07C090E08091060442
:103B9000811191E0909306046091FE037091FF0300
:103BA00080910004909101041F910F91FF90EF907C
:103BB00008950E946D1D0E94F91C8091070490E0F9
:103BC0000895823000F5E82FF0E0EE0FFF1FEA5E67
:103BD000FB4F71836083882319F08130A1F408C002
:103BE000809169008C7F842B80936900E89A089506
:103BF00080916900440F551F440F551F837F842B0C
:103C000080936900E99A0895823080F4882319F03E
:103C1000813021F402C0E89801C0E998E82FF0E073
:103C2000EE0FFF1FEA5EFB4F1182108208951F9274
:103C30000F920FB60F9211242F933F934F935F93E0
:103C40006F937F938F939F93AF93BF93EF93FF9364
:103C50008091160490911704892B29F0E0911604A5
:103C6000F09117040995FF91EF91BF91AF919F914A
:103C70008F917F916F915F914F913F912F910F9015
:103C80000FBE0F901F9018951F920F920FB60F92B4
:103C900011242F933F934F935F936F937F938F9351
:103CA0009F93AF93BF93EF93FF93809118049091EC
:103CB0001904892B29F0E0911804F0911904099551
:103CC000FF91EF91BF91AF919F918F917F916F91F4
:103CD0005F914F913F912F910F900FBE0F901F90CA
:103CE00018950F931F93CF93DF938C01EB0180E026
:103CF0006115710509F081E0F8018283882341F0A4
:103D00000E94DF052197C60FD71FF801D183C0831A
:103D1000DF91CF911F910F910895EF92FF920F9332
:103D20001F93CF93DF93EC017B018A81882311F4E9
:103D300000E00FC0088119810E94DF05C801861BC1
:103D4000970B2AEE8136920710F400E006C0082F88
:103D50000195CE01B7010E94711E802FDF91CF9196
:103D60001F910F91FF90EF9008955058BB27AA27FD
:103D70000ED075C166D130F06BD120F031F49F3F89
:103D800011F41EF45BC10EF4E095E7FB51C1E92F7D
:103D900077D180F3BA17620773078407950718F085
:103DA00071F49EF58FC10EF4E0950B2EBA2FA02D65
:103DB0000B01B90190010C01CA01A0011124FF27D8
:103DC000591B99F0593F50F4503E68F11A16F040D3
:103DD000A22F232F342F4427585FF3CF46953795D2
:103DE0002795A795F0405395C9F77EF41F16BA0B97
:103DF000620B730B840BBAF09150A1F0FF0FBB1F45
:103E0000661F771F881FC2F70EC0BA0F621F731F8D
:103E1000841F48F4879577956795B795F7959E3FEA
:103E200008F0B3CF9395880F08F09927EE0F979578
:103E300087950895D9D008F481E008950CD00FC17A
:103E400007D140F0FED030F021F45F3F19F0F0C010
:103E5000511139C1F3C014D198F39923C9F35523F3
:103E6000B1F3951B550BBB27AA276217730784076D
:103E700038F09F5F5F4F220F331F441FAA1FA9F323
:103E800033D00E2E3AF0E0E830D091505040E69515
:103E9000001CCAF729D0FE2F27D0660F771F881F76
:103EA000BB1F261737074807AB07B0E809F0BB0B65
:103EB000802DBF01FF2793585F4F2AF09E3F510589
:103EC00068F0B6C000C15F3FECF3983EDCF3869526
:103ED00077956795B795F7959F5FC9F7880F911DFF
:103EE0009695879597F90895E1E0660F771F881FEB
:103EF000BB1F621773078407BA0720F0621B730B9E
:103F0000840BBA0BEE1F88F7E095089504D06894EF
:103F1000B111D9C00895BCD088F09F5790F0B92F47
:103F20009927B751A0F0D1F0660F771F881F991F0E
:103F30001AF0BA95C9F712C0B13081F0C3D0B1E020
:103F40000895C0C0672F782F8827B85F39F0B93F30
:103F5000CCF3869577956795B395D9F73EF4909510
:103F60008095709561957F4F8F4F9F4F0895E8948E
:103F700009C097FB3EF490958095709561957F4FB1
:103F80008F4F9F4F9923A9F0F92F96E9BB2793955F
:103F9000F695879577956795B795F111F8CFFAF46F
:103FA000BB0F11F460FF1BC06F5F7F4F8F4F9F4FA0
:103FB00016C0882311F096E911C0772321F09EE8FE
:103FC000872F762F05C0662371F096E8862F70E064
:103FD00060E02AF09A95660F771F881FDAF7880F3E
:103FE0009695879597F90895990F0008550FAA0B94
:103FF000E0E8FEEF16161706E807F907C0F01216FC
:104000001306E407F50798F0621B730B840B950BFE
:1040100039F40A2661F0232B242B252B21F4089553
:104020000A2609F4A140A6958FEF811D811D0895F0
:1040300097F99F6780E870E060E008959FEF80EC5B
:10404000089500240A9416161706180609060895FE
:1040500000240A9412161306140605060895092E64
:104060000394000C11F4882352F0BB0F40F4BF2BD3
:1040700011F460FF04C06F5F7F4F8F4F9F4F089513
:1040800057FD9058440F551F59F05F3F71F0479509
:10409000880F97FB991F61F09F3F79F087950895EE
:1040A000121613061406551FF2CF4695F1DF08C00D
:1040B000161617061806991FF1CF8695710561052A
:1040C00008940895E894BB2766277727CB0197F9D2
:1040D00008958ADF08F48FEF08950BD0C0CFB1DFC9
:1040E00028F0B6DF18F0952309F0A2CFA7CF11244E
:1040F000EACFC6DFA0F3959FD1F3950F50E0551F8F
:10410000629FF001729FBB27F00DB11D639FAA272C
:10411000F00DB11DAA1F649F6627B00DA11D661F7B
:10412000829F2227B00DA11D621F739FB00DA11D9C
:10413000621F839FA00D611D221F749F3327A00D56
:10414000611D231F849F600D211D822F762F6A2FF2
:1041500011249F5750408AF0E1F088234AF0EE0F77
:10416000FF1FBB1F661F771F881F91505040A9F784
:104170009E3F510570F05CCFA6CF5F3FECF3983EB9
:10418000DCF3869577956795B795F795E7959F5FEB
:10419000C1F7FE2B880F911D9695879597F9089585
:1041A00023DF880B990B0895629FD001739FF00164
:1041B000829FE00DF11D649FE00DF11D929FF00DB7
:1041C000839FF00D749FF00D659FF00D9927729FEE
:1041D000B00DE11DF91F639FB00DE11DF91FBD0179
:1041E000CF0111240895991B79E004C0991F9617F7
:1041F00008F0961B881F7A95C9F780950895AA1B29
:10420000BB1B51E107C0AA1FBB1FA617B70710F0C1
:10421000A61BB70B881F991F5A95A9F780959095F3
:10422000BC01CD01089597FB092E07260AD077FD22
:1042300004D0E5DF06D000201AF4709561957F4F19
:104240000895F6F7909581959F4F0895A1E21A2E53
:10425000AA1BBB1BFD010DC0AA1FBB1FEE1FFF1F2A
:10426000A217B307E407F50720F0A21BB30BE40B7A
:10427000F50B661F771F881F991F1A9469F76095C1
:104280007095809590959B01AC01BD01CF0108957B
:10429000EE0FFF1F0590F491E02D0994F894FFCFE5
:1042A0005761746572202300203D2000560054653C
:1042B0006D7020003D0054696D653A2000467265BE
:1042C000652052414D3A20006E616E00696E6600B5
:1042D0006F7666002E003C6C6F73742000206C6952
:1042E0006E65733E003078004F575B005D3A0020EA
:1042F000002055544300200020040000A6020102C3
:104300002C01000000000000EC0894098208B308AA
:104310009308DC0800000000B712940907000300AE
:10432000010000001F1C1F1E1F1E1F1F1E1F1E1F1F
:00000001FF
