:100000000C94D4010C945A200C9487200C94040274
:100010000C9404020C9404020C9404020C94040248
:100020000C9404020C9404020C9404020C94040238
:100030000C9404020C9404020C9404020C94040228
:100040000C94E2050C9404020C946A070C94B80713
:100050000C9404020C9404020C9404020C94040208
:100060000C9404020C9404022A2A2A2A2A205255AB
:100070004E4E494E473A2077617465725F6C6576E3
:10008000656C2E696E6F002A2A2A2A2A205345544D
:1000900055503A2077617465725F6C6576656C2E99
:1000A000696E6F0000000000240027002A00000095
:1000B0000000250028002B0000000000230026007F
:1000C00029000404040404040404020202020202DB
:1000D000030303030303010204081020408001020C
:1000E000040810200102040810200000000700028C
:1000F00001000003040600000000000000002020B2
:1001000031396B6270730020206C6F772054582057
:10011000706F77657200206D6F64653D00206772B7
:100120006F75705F69643D00436F6E666967204E4E
:1001300065743A206E6F64655F69643D00436F6E5D
:100140006669673A20004E65743A3A646F53656E8B
:10015000643A20002064657669636573004F7753C5
:1001600063616E2068617320002064657669636551
:100170007300206F6620004F573A20666F756E64DB
:1001800020004F573A204D697373696E672064658C
:1001900076696365733A004F573A204E657720645D
:1001A0006576696365733A2020202000005EBCE21A
:1001B000613FDD83C29C7E20A3FD1F419DC3217F43
:1001C000FCA2401E5F01E3BD3E6082DC237D9FC137
:1001D000421CFEA0E1BF5D0380DE3C62BEE0025C2B
:1001E000DF81633D7C22C09E1D43A1FF4618FAA417
:1001F00027799BC584DA3866E5BB5907DB85673903
:10020000BAE406581947A5FB7826C49A653BD987F6
:10021000045AB8E6A7F91B45C6987A24F8A6441AEA
:1002200099C7257B3A6486D85B05E7B98CD2306ED6
:10023000EDB3510F4E10F2AC2F7193CD114FADF3C2
:10024000702ECC92D38D6F31B2EC0E50AFF1134DB6
:10025000CE90722C6D33D18F0C52B0EE326C8ED0AA
:10026000530DEFB1F0AE4C1291CF2D73CA94762896
:10027000ABF517490856B4EA6937D58B5709EBB582
:1002800036688AD495CB2977F4AA4816E9B7550B76
:1002900088D6346A2B7597C94A14F6A8742AC8966A
:1002A000154BA9F7B6E80A54D7896B35206E6F74E1
:1002B00020666F756E6420696E20636F6E66696775
:1002C0005F7265616400436F6E6669673A206D6FA7
:1002D00064756C652000206E6F7420666F756E64A7
:1002E00020696E20636F6E6669675F7772697465F7
:1002F00000436F6E6669673A206D6F64756C6520A8
:10030000002020435243206D6174636865732100AF
:10031000202043524320646F6573206E6F74206DFC
:1003200061746368210020627974657300206D61D7
:100330007829002076732E200020697320746F6F57
:10034000206C61726765202800434F4E4649473A4A
:100350002074686520636F6E66696720666F72201F
:100360006D6F64756C6520230020636F6E6669672E
:10037000732000436F6E6669673A200020214E4F5C
:100380004E45212000207266313200206C636400EB
:100390002073657269616C00436F6E666967204CFB
:1003A0006F673A000004240911241FBECFEFD8E084
:1003B000DEBFCDBF809100018093220480910101B6
:1003C0008093230411E0A0E0B1E0E4EFF6E402C082
:1003D00005900D92AA3AB107D9F714E0AAEAB1E064
:1003E00001C01D92A232B107E1F713E0C8EAD3E0E1
:1003F00004C02297FE010E943D23C43AD107C9F7E9
:100400000E947A090C9478230C940000EF92FF92DA
:100410000F93DF93CF93CDB7DEB760970FB6F89405
:10042000DEBF0FBECDBFA82F002309F461C07E013F
:100430000894E11CF11C88E0F70111928A95E9F714
:1004400029833A834B835C836D837E83AF83988754
:1004500080E2801BE82FFF27E7FDF0954D815E814C
:100460006F817885181684F01D861E861F86188A6F
:10047000882799278E1B9F0B04C076956795579503
:1004800047958A95D2F728C0202F332727FD30952E
:10049000DB01CA01022E04C0B695A79597958795F2
:1004A0000A94D2F78D879E87AF87B88B04C0440F1C
:1004B000551F661F771FEA95D2F789819A81AB8114
:1004C000BC8104C0B695A795979587952A95D2F7D4
:1004D000482B592B6A2B7B2B49875A876B877C8744
:1004E00029853A854B855C856D857E85AF859889A4
:1004F0008A2F60960FB6F894DEBF0FBECDBFCF91A6
:10050000DF910F91FF90EF9008950F931F93CF937A
:10051000DF93689F8001699F100D789F100D112453
:10052000C8010E94A102EC01009729F060E070E090
:10053000A8010E94AC03CE01DF91CF911F910F91D2
:100540000895CF93DF93BC018230910510F462E0EF
:1005500070E0A0912004B0912104ED0140E050E052
:10056000E0E0F0E021C0888199818617970769F45F
:100570008A819B81309719F09383828304C0909382
:10058000210480932004FE0134C06817790738F4F1
:100590004115510519F08417950708F4AC01FE01C7
:1005A0008A819B819C01E9012097E9F6411551055B
:1005B000A9F1CA01861B970B049708F4BA01E0E081
:1005C000F0E02AC08D919C91119784179507F9F45A
:1005D0006417750781F412968D919C91139730974B
:1005E00019F09383828304C09093210480932004A4
:1005F000FD0132964CC0CA01861B970BFD01E80F26
:10060000F91F6193719302978D939C9340C0FD01F4
:10061000828193819C01D9011097A1F680911E04DB
:1006200090911F04892B41F480915A0190915B01B4
:1006300090931F0480931E0440915C0150915D01D2
:100640004115510541F44DB75EB780915801909125
:100650005901481B590B20911E0430911F04CA01F7
:10066000821B930B8617970780F0AB014E5F5F4F9D
:100670008417950750F0420F531F50931F04409367
:100680001E04F9016193719302C0E0E0F0E0CF0134
:10069000DF91CF910895CF93DF93009709F450C075
:1006A000EC0122971B821A82A0912004B0912104B0
:1006B000109709F140E050E0AC17BD0708F1BB838B
:1006C000AA83FE0121913191E20FF31FAE17BF07FC
:1006D00079F48D919C911197280F391F2E5F3F4F10
:1006E0003983288312968D919C9113979B838A83DB
:1006F0004115510571F4D0932104C093200420C00A
:1007000012968D919C911397AD01009711F0DC0129
:10071000D3CFFA01D383C28321913191E20FF31F2A
:10072000CE17DF0769F488819981280F391F2E5F62
:100730003F4FFA01318320838A819B819383828397
:10074000DF91CF910895FB01DC0102C001900D9271
:1007500041505040D8F70895DC0101C06D934150DD
:100760005040E0F70895A0E0B0E0E9EBF3E00C942E
:100770004B237C01EB018A01690109C0CE0121965E
:10078000F6010995F70181937F0101501040011591
:100790001105A1F7CDB7DEB7E8E00C946723A0E020
:1007A000B0E0E5EDF3E00C944B23EC017B018A0112
:1007B000690109C0CE012196F70161917F01F6011F
:1007C00009950150104001151105A1F7CDB7DEB70D
:1007D000E8E00C946723DF92EF92FF920F931F9350
:1007E000D72E7A018C01FA010995C80101966D2D69
:1007F000F70109951F910F91FF90EF90DF900895F9
:100800008AEA91E067E044E00E947E1683EC91E082
:100810006AEA71E044E00E9481138BED91E06DE1A2
:1008200044ED0E94810C86EB92E00E94DB1A8091DD
:100830005E0190915F01009719F480E090E001C0A3
:10084000049690936301809362010895AF92BF92E2
:10085000CF92DF92EF92FF920F931F93DF93CF938C
:1008600000D000D000D0CDB7DEB7A89505C080E09D
:1008700090E060E00E94EB188BED91E00E94DA0EB0
:100880008823A9F783EC91E06AE00E941411882381
:1008900009F4F1C089E061E00E94150783E0C82EE9
:1008A000D12CCC0EDD1EAC2C35C083EC91E06B2D31
:1008B0000E94450F7B018C0120E030E040E05FE3C7
:1008C0000E94B5200E948521F60161936F018091FD
:1008D0005E0190915F0160E071E00E94350B8091B4
:1008E0005E0190915F016B2D4AE050E00E94B20AD8
:1008F00080915E0190915F0166E071E00E94350B8E
:1009000080915E0190915F01B801A70122E030E083
:100910000E941F0CBC2CBA188091DA01B81628F27C
:100920000BC08BED91E00E944F0E882329F080E0F0
:1009300090E060E00E94EB188BED91E00E946C0C5F
:10094000009779F3FC0184E081938E010D5F1F4FC6
:100950009601201B310BCF01B801A9010E94A3030E
:100960000894C11CD11C6C2D601B8BED91E041E003
:100970000E943B0F81E10E94C0059A838983809188
:100980005E0190915F0168E071E00E94350B698122
:100990007A8180915E0190915F014AE050E00E946F
:1009A000220B80915E0190915F0161E171E00E94F4
:1009B000350B00915E0110915F0169817A81882772
:1009C00077FD8095982F0E94B82123E333E343E518
:1009D00050E40E946C2220E030E040E85AE30E949C
:1009E0006C22AB01BC01C80122E030E00E941C0C6B
:1009F00080915E0190915F0165E171E00E94320C8F
:100A000060E089819A818D5291400CF061E086E02E
:100A10000E9415070BC08BED91E00E944F0E8823BA
:100A200029F080E090E060E00E94EB188BED91E00F
:100A30000E946C0CFC01009771F387E08083898130
:100A40009A81928381838BED91E063E041E00E9483
:100A50003B0F89E060E00E941507809103039091AD
:100A600004030196909304038093030305971CF0FD
:100A700081E00E94450C26960FB6F894DEBF0FBEAB
:100A8000CDBFCF91DF911F910F91FF90EF90DF903D
:100A9000CF90BF90AF9008950F931F9364E670E0DE
:100AA00080E090E00E94380606E913E0C80140E0CB
:100AB00051EE60E070E00E94F30764E670E080E0D1
:100AC00090E00E943806C80167E870E00E94FE09C5
:100AD00080E691E00E94841989E061E00E94150798
:100AE00086E061E00E94150789E061E00E94D60679
:100AF00086E061E00E94D60668EC70E080E090E05D
:100B00000E94380689E060E00E94150786E060E0F8
:100B10000E94150780E160E00E94D60681E160E056
:100B20000E94D60681E00E94BD0584E060E00E943C
:100B3000150784E061E00E94D60660915E01709125
:100B40005F018AEA91E00E943F148093DA0180916C
:100B50005E0190915F0168E670E00E94FE0928E264
:100B600088E190E00FB6F894A895809360000FBEDE
:100B7000209360001F910F9108958093680108955C
:100B8000982F8E3008F09E50977080916801829562
:100B9000880F880F807C892B80937C0080917A005D
:100BA000806480937A0080917A0086FDFCCF20914A
:100BB000780040917900942F80E030E0282B392B89
:100BC000C90108951F920F920FB60F9211242F930F
:100BD0003F938F939F93AF93BF938091090390911D
:100BE0000A03A0910B03B0910C0330910D03019601
:100BF000A11DB11D232F2D5F2D3720F02D570196FC
:100C0000A11DB11D20930D038093090390930A0346
:100C1000A0930B03B0930C038091050390910603FE
:100C2000A0910703B09108030196A11DB11D809307
:100C3000050390930603A0930703B0930803BF91A5
:100C4000AF919F918F913F912F910F900FBE0F9079
:100C50001F9018958FB7F8942091090330910A03DB
:100C600040910B0350910C038FBFB901CA01089545
:100C70009B01AC017FB7F894809105039091060326
:100C8000A0910703B091080366B5A89B05C06F3F0C
:100C900019F00196A11DB11D7FBFBA2FA92F982F62
:100CA0008827860F911DA11DB11D62E0880F991F35
:100CB000AA1FBB1F6A95D1F7BC012DC0FFB7F894DE
:100CC0008091050390910603A0910703B09108035A
:100CD000E6B5A89B05C0EF3F19F00196A11DB11D17
:100CE000FFBFBA2FA92F982F88278E0F911DA11D06
:100CF000B11DE2E0880F991FAA1FBB1FEA95D1F72B
:100D0000861B970B885E9340C8F2215030404040CC
:100D1000504068517C4F211531054105510571F650
:100D20000895019739F0880F991F880F991F02972E
:100D30000197F1F70895789484B5826084BD84B5F5
:100D4000816084BD85B5826085BD85B5816085BDC6
:100D5000EEE6F0E0808181608083E1E8F0E01082DF
:100D6000808182608083808181608083E0E8F0E020
:100D7000808181608083E1EBF0E08081846080830A
:100D8000E0EBF0E0808181608083EAE7F0E0808141
:100D900084608083808182608083808181608083A1
:100DA0008081806880831092C1000895CF93DF9383
:100DB000482F50E0CA018A529F4FFC0134914E5394
:100DC0005F4FFA018491882369F190E0880F991FA1
:100DD000FC01EC55FF4FA591B491FC01E255FF4F8A
:100DE000C591D491662351F42FB7F8948C91932F29
:100DF000909589238C93888189230BC0623061F49C
:100E00002FB7F8948C91932F909589238C93888198
:100E1000832B88832FBF06C09FB7F8948C91832BB8
:100E20008C939FBFDF91CF910895482F50E0CA0166
:100E300086519F4FFC012491CA018A529F4FFC01A9
:100E400094914E535F4FFA013491332309F440C01B
:100E5000222351F1233071F0243028F42130A1F005
:100E6000223011F514C02630B1F02730C1F0243003
:100E7000D9F404C0809180008F7703C080918000F6
:100E80008F7D8093800010C084B58F7702C084B5B9
:100E90008F7D84BD09C08091B0008F7703C08091A1
:100EA000B0008F7D8093B000E32FF0E0EE0FFF1FC6
:100EB000E255FF4FA591B4912FB7F894662321F422
:100EC0008C919095892302C08C91892B8C932FBF94
:100ED000089508951F920F920FB60F9211242F9329
:100EE0003F934F938F939F93EF93FF938091C00015
:100EF00082FD1DC04091C60020914E0330914F03EA
:100F00002F5F3F4F2F7330708091500390915103AA
:100F10002817390771F0E0914E03F0914F03E25F1B
:100F2000FC4F408330934F0320934E0302C08091C7
:100F3000C600FF91EF919F918F914F913F912F911B
:100F40000F900FBE0F901F901895E091A203F091A3
:100F5000A303E05CFF4F8191919120813181821B3D
:100F6000930B8F739070892B11F00E94690708957D
:100F70001F920F920FB60F9211242F933F938F93CE
:100F80009F93EF93FF93209192033091930380916D
:100F90009403909195032817390731F48091C1008B
:100FA0008F7D8093C10014C0E0919403F09195036C
:100FB000EE5AFC4F20818091940390919503019605
:100FC0008F73907090939503809394032093C60041
:100FD000FF91EF919F918F913F912F910F900FBEB5
:100FE0000F901F901895AF92BF92DF92EF92FF92F1
:100FF0000F931F93CF93DF93EC017A018B01DD24D4
:10100000403081EE580780E0680780E0780711F0F3
:10101000DD24D39491E0A92EB12CEC89FD89DD204B
:1010200069F0C50108A002C0880F991F0A94E2F771
:10103000808360E079E08DE390E005C0108260E895
:1010400074E88EE190E0A80197010E9419232150D5
:10105000304040405040569547953795279580E160
:101060002030380720F0DD2011F0DD24D6CFE889CC
:10107000F9893083EA89FB89208319A2EE89FF89E7
:10108000408121E030E0C9010C8C02C0880F991F1B
:101090000A94E2F7482B4083EE89FF894081C90119
:1010A0000D8C02C0880F991F0A94E2F7482B4083E9
:1010B000EE89FF894081C9010E8C02C0880F991FFB
:1010C0000A94E2F7482B4083EE89FF8980810F8CD8
:1010D00002C0220F331F0A94E2F7209528232083B1
:1010E000DF91CF911F910F91FF90EF90DF90BF9014
:1010F000AF900895DC011C96ED91FC911D97E05C8A
:10110000FF4F2191319180819181281B390B2F73E1
:101110003070C9010895DC011C96ED91FC911D977A
:10112000E05CFF4F20813181E054F040DF01AE5B95
:10113000BF4F8D919C9111972817390719F42FEF04
:101140003FEF07C08D919C91E80FF91F8081282FF8
:1011500030E0C9010895DC011C96ED91FC911D97CA
:10116000E05CFF4F20813181E054F040DF01AE5B55
:10117000BF4F8D919C9111972817390719F42FEFC4
:101180003FEF10C08D919C911197E80FF91F2081BE
:101190008D919C91119701968F73907011969C93ED
:1011A0008E9330E0C9010895DC0191968C9191975E
:1011B000882339F05496ED91FC915597808186FFF4
:1011C000F9CF91961C920895CF93DF93EC01EE85B1
:1011D000FF85E05CFF4F20813181E054F0402F5FBC
:1011E0003F4F2F733070DF01AE5BBF4F8D919C91ED
:1011F000119728173907D1F3E05CFF4F8081918167
:10120000E054F040E80FF91F6083EE85FF85E05C55
:10121000FF4F31832083EE89FF89208181E090E0B8
:101220000F8C02C0880F991F0A94E2F7282B2083A5
:1012300081E089A3EC89FD8980818064808381E0DD
:1012400090E0DF91CF910895109299031092980346
:1012500088EE93E0A0E0B0E080939A0390939B0324
:10126000A0939C03B0939D038EE691E09093970327
:10127000809396038EE093E09093A3038093A20360
:1012800082E593E09093A5038093A40385EC90E01E
:101290009093A7038093A60384EC90E09093A90316
:1012A0008093A80380EC90E09093AB038093AA0313
:1012B00081EC90E09093AD038093AC0382EC90E0DE
:1012C0009093AF038093AE0386EC90E09093B103CC
:1012D0008093B00384E08093B20383E08093B303F0
:1012E00087E08093B40385E08093B50381E0809329
:1012F000B6030895CF93DF930E949B060E944C058E
:10130000C5EAD7E00E9426042097E1F30E94A507D2
:10131000F9CFCF92DF92EF92FF920F931F93CF936B
:10132000DF937C016B018A01C0E0D0E00FC0D601E1
:101330006D916D01D701ED91FC910190F081E02D4F
:10134000C7010995C80FD91F01501040011511059B
:1013500071F7CE01DF91CF911F910F91FF90EF9028
:10136000DF90CF900895EF92FF920F931F93CF934A
:10137000DF937C018B01C0E0D0E0F8010F5F1F4FCD
:101380006491662359F0D701ED91FC910190F081B1
:10139000E02DC7010995C80FD91FEFCFCE01DF910E
:1013A000CF911F910F91FF90EF900895DC01ED9187
:1013B000FC910190F081E02D09950895EF92FF9244
:1013C0000F931F938C01DC01ED91FC910190F08152
:1013D000E02D6DE009957C01D801ED91FC91019023
:1013E000F081E02DC8016AE009959C012E0D3F1D9A
:1013F000C9011F910F91FF90EF900895EF92FF9216
:101400000F931F937C010E94B3098C01C7010E94B6
:10141000DE099C01200F311FC9011F910F91FF9020
:10142000EF900895CF93DF93EC016115710519F4E6
:1014300020E030E00FC0DB010D900020E9F71197AC
:10144000A61BB70BE881F9810280F381E02DAD0185
:1014500009959C01C901DF91CF9108954F925F9248
:101460007F928F929F92AF92BF92CF92DF92EF9234
:10147000FF920F931F93DF93CF93CDB7DEB7A19762
:101480000FB6F894DEBF0FBECDBF2C01742ECB017A
:10149000223008F42AE019A231E2C32ED12CCC0E5E
:1014A000DD1E822E9924AA24BB24672D752FA50149
:1014B00094010E94192379018A01C801B701A5018D
:1014C00094010E94D322472D461B0894C108D108DD
:1014D0004A3010F4405D01C0495CF6014083E114DC
:1014E000F1040105110521F07E2C5F2DC801DDCF2F
:1014F000C201B6010E94120AA1960FB6F894DEBF8F
:101500000FBECDBFCF91DF911F910F91FF90EF9054
:10151000DF90CF90BF90AF909F908F907F905F9023
:101520004F900895DC012115310541F4ED91FC91B6
:101530000190F081E02D642F099508950E942E0AF4
:101540000895EF92FF920F931F939A017B0100E0A1
:1015500010E0B801A7010E94920A1F910F91FF901D
:10156000EF900895EF92FF920F931F939A01E62E4A
:10157000FF2400E010E0B801A7010E94920A1F9129
:101580000F91FF90EF900895CF92DF92EF92FF922C
:101590000F931F936C01E62E9A01FF2400E010E0E8
:1015A000B801A7010E94920A8C01C6010E94DE09BF
:1015B000080F191FC8011F910F91FF90EF90DF9046
:1015C000CF900895CF92DF92EF92FF920F931F93E7
:1015D000CF93DF93EC016A017B012115310541F4C2
:1015E000E881F9810190F081E02D642F09951FC0F9
:1015F0002A303105D1F477FF17C0E881F9810190D5
:10160000F081E02D6DE209958C0144275527BA0140
:101610004C195D096E097F09CE012AE00E942E0A4D
:101620009801280F391F04C02AE00E942E0A9C014D
:10163000C901DF91CF911F910F91FF90EF90DF9043
:10164000CF900895EF92FF920F931F937B019A0121
:101650000027F7FC0095102FB801A7010E94E20AAD
:101660001F910F91FF90EF9008950E94120A089524
:101670007F928F929F92AF92BF92CF92DF92EF9222
:10168000FF920F931F93CF93DF934C017A018B014D
:10169000722ECB01BA01A80197010E94CF228823A4
:1016A00021F0C40167E171E021C0C0E0D0E0570142
:1016B0006801E894D7F8C601B5012FEF3FEF4FE777
:1016C0005FE70E94CF22882351F4C601B5012FEFB6
:1016D0003FEF4FE75FE70E941921181614F0C1E0B1
:1016E000D0E0219739F0C4016BE171E00E94120A49
:1016F000EC0193C0C801B7012FEF3FEF4FE75FE464
:101700000E946822181654F0C801B7012FEF3FEF6E
:101710004FE75FEC0E941921882324F4C4016FE194
:1017200071E0E4CFC801B70120E030E040E050E0D4
:101730000E94192187FD03C0C0E0D0E00EC0D40193
:10174000ED91FC910190F081E02DC4016DE20995CD
:10175000EC0117FB109517F9109520E030E040E000
:101760005FE3DD240BC0CA01B90120E030E040E2B4
:1017700051E40E941D219B01AC01D394D71498F32E
:10178000C801B7010E94B5205B016C010E948A214B
:101790007B018C01C401B801A7012AE030E00E945E
:1017A000920AC80FD91F772039F0C40163E271E0B3
:1017B0000E94120AC80FD91FC801B7010E94B621A2
:1017C0009B01AC01C601B5010E94B42024C020E0F9
:1017D00030E040E251E40E946C227B018C010E94C7
:1017E00085215B016C01CC24B7FCC094DC2CC401C6
:1017F000B601A5012AE030E00E94E20AC80FD91F15
:10180000C601B5010E94B8219B01AC01C801B70116
:101810000E94B4207A947720D1F6CE01DF91CF9147
:101820001F910F91FF90EF90DF90CF90BF90AF90FE
:101830009F908F907F9008950E94380B0895EF92AB
:10184000FF920F931F937C010E94380B8C01C701FC
:101850000E94DE09080F191FC8011F910F91FF9008
:10186000EF900895EF92FF920F931F937C010E94D7
:10187000120A8C01C7010E94DE09080F191FC80156
:101880001F910F91FF90EF9008951F93182F6AE01A
:1018900070E080E090E00E943806112329F480E097
:1018A00090E0A0E0B0E004C08DE090EFADEABBE0D6
:1018B0008093000190930101A0930201B093030172
:1018C00028E088E190E00FB6F894A8958093600036
:1018D0000FBE20936000FFCFFC01E053FF4F9081CB
:1018E000E05DF040933018F020E030E008C084E480
:1018F000989F900111242A5F3F4F2E0F3F1FC9016F
:101900000895FC018EE791E09183808390912204F9
:10191000992371F080912304882351F08F3140F492
:10192000E852FF4F9083E85DF0408093B80307C012
:10193000E852FF4F4083E85DF0406093B80381E0D8
:101940008283838308950895FF920F931F938C01E0
:10195000F62E86E993E068E271E00E94B30986E919
:1019600093E06091B8034AE050E00E94B20A86E931
:1019700093E06DE171E00E94B30908521F4F86E9C0
:1019800093E0F80160814AE050E00E94B20A86E9E3
:1019900093E066E171E00E94B30986E993E06F2D60
:1019A0004AE050E00E94B20A8091B80363E0F80177
:1019B00040810E94F01FF2E0FF1621F083E0F8164C
:1019C00011F50FC086E993E067E071E00E94FE091F
:1019D00087E598E90E941B1C82EB94E90E941B1C7E
:1019E00016C086E993E06EEF70E00E94FE0981E187
:1019F00096EC0E941B1C81EC94E90E941B1C80E267
:101A000098E90E941B1C86E993E00E94DE0983E0AE
:101A10000E94BD0585E060E00E94D6061F910F91EF
:101A2000FF900895AF92BF92CF92DF92EF92FF9214
:101A30000F931F93DF93CF93CDB7DEB76C01ADB695
:101A4000BEB68B017B016115710579F086E993E0E3
:101A50006DE371E00E94B30986E993E0F8016081CB
:101A60004AE050E00E94C40A0DC00F92EDB6FEB6E7
:101A70000894E11CF11C81E0EDB7FEB78183B7014A
:101A80000E941919C601F70160810E94A40C0FB6CB
:101A9000F894BEBE0FBEADBECF91DF911F910F91E6
:101AA000FF90EF90DF90CF90BF90AF9008950F938D
:101AB0001F938C0185E00E94C00506521F4F8C5277
:101AC00091409595879595958795F80180831F910D
:101AD0000F910895EF92FF920F931F93CF93DF938F
:101AE000EC01C053DF4F8881C05DD040882309F4EA
:101AF0007DC01C81CF52DF4F8881C15DD04090E016
:101B000007970CF01F7DBE016A5F7F4F812F4D81CB
:101B10000E94341F86E993E066E471E00E94B309F5
:101B2000812F90E030E2E32EF12CE822F92215FD1E
:101B300003C065E271E002C06EE271E086E993E005
:101B40000E94350B86E993E067E371E00E94350B54
:101B50008E010F521F4F86E993E0F80160814AE041
:101B600050E00E94B20A86E993E069E371E00E94C6
:101B7000350B86E993E06E8140E150E00E94B20AA5
:101B800086E993E06DE371E00E94350B86E993E00E
:101B90006D814AE050E00E94C40AEF28D9F4C05396
:101BA000DF4F8881C05DD040823050F0DE01149656
:101BB000FE01E85BFF4F88E801900D928150E1F74C
:101BC000FE01E053FF4F808181508083CF52DF4F71
:101BD00018820CC0F80180818F5F80830E942A06E2
:101BE000CE52DF4F688379838A839B83DF91CF91C5
:101BF0001F910F91FF90EF900895EF92FF920F9336
:101C00001F93CF93DF93EC0146EDE42EF12CE80E09
:101C1000F91EF70180818823A1F10E94341D8823D9
:101C200081F18E0109521F4FF7018081B80141E017
:101C30000E94341FF7011082F801108229C0CF5290
:101C4000DF4F8881C15DD040882399F00E942A0629
:101C5000CE52DF4F288139814A815B81C25DD040FD
:101C60002C593F4F4F4F5F4F6217730784079507FB
:101C700078F00E94341D882359F0CE010E946A0D2D
:101C800007C0C053DF4F8881C05DD0408823B9F6BC
:101C9000DF91CF911F910F91FF90EF900895CF9317
:101CA000DF93EC010E94371C882309F47CC08091EB
:101CB000C5039091C603892B09F069C08091C803C0
:101CC00087FD1DC0CE010E94570D8091C80385FF7E
:101CD00013C09091C8039F718091B803981711F4B5
:101CE000892F02C0892F8064CA52DF4F80688883A1
:101CF00024968881239788838091CA0358C0809155
:101D0000C80385FD50C0CE010E94570D2091C80325
:101D100030E02F7130708091B80390E028173907B8
:101D200009F041C0C053DF4F8881C05DD040882397
:101D3000D1F1CF52DF4F8881C15DD040882399F126
:101D40008091C903813011F080E002C08091CA0304
:101D5000C752DF4F888329978881C05DD040823089
:101D600050F0DE011496FE01E85BFF4F88E8019019
:101D70000D928150E1F7FE01E053FF4F80818150C9
:101D80008083CF52DF4F1882C15DD0400CC080915C
:101D9000C5039091C603892B31F086E993E06FE388
:101DA00071E00E94320CCE010E94FD0D80E0DF91B7
:101DB000CF910895EF92FF920F931F93CF93DF93EC
:101DC000EC0150EDE52EF12CE80EF91E8C010A52C3
:101DD0001F4F0BC0CE010E944F0E882371F461E0AB
:101DE00070E080E090E00E943806F701808188234F
:101DF00089F7F8018081882369F7DF91CF911F91DE
:101E00000F91FF90EF900895CF93DF93EC01DC01E9
:101E1000A053BF4F2C91233058F530E084E490E07C
:101E2000289FF001299FF00D389FF00D1124EC0F31
:101E3000FD1F65838C9190E0FC0124E0EE0FFF1FF5
:101E40002A95E1F7E80FF91F3196EE0FFF1FEE0F0D
:101E5000FF1FEC0FFD1F40838C918F5F8C938130AF
:101E600039F40E94341D882319F0CE010E946A0DB6
:101E7000DF91CF9108959C01411140E28091B80318
:101E8000482BC9010E94040F0895FC018281681744
:101E900028F070E060E090EC8FE70FC0862F90E0B4
:101EA000880F991F880F991F0284F385E02DE80F92
:101EB000F91F7081618192818381272F362F492FED
:101EC000582FB901CA010895AF92BF92CF92DF9205
:101ED000EF92FF920F931F93DF93CF93CDB7DEB7AF
:101EE000AA970FB6F894DEBF0FBECDBFFC010BA3BF
:101EF0001CA32DA33EA34FA358A769A77AA70190BF
:101F0000F081E02DDE01559634968EE001900D9221
:101F10008150E1F78E010B5E1F4FC8010E94BF1771
:101F2000C801BE016D5D7F4F0E949E17C8016EEB18
:101F300040E00E94591749E0E42EF12CEC0EFD1E02
:101F40005801C701DE2CC92E8E010E5E1F4FC50140
:101F50000E940817F70181937F01E017F107B9F795
:101F60008D2D9C2D68E00E94C3169989891769F50B
:101F70002985222319F48A85882339F18E858F3F9C
:101F800021F58889803109F59A8580E0422F50E05B
:101F9000482B592BDE011196E2E8F1E088E0019030
:101FA0000D928150E1F7ED85F0E0E076F07034E0DD
:101FB000F695E7953A95E1F7EC0FFD1F2181328107
:101FC000209530952423352302C020E030E8C90154
:101FD000AA960FB6F894DEBF0FBECDBFCF91DF91AA
:101FE0001F910F91FF90EF90DF90CF90BF90AF9037
:101FF00008958F929F92AF92BF92CF92DF92EF920D
:10200000FF920F931F93CF93DF93EC01D22EC32E39
:10201000B42EA52E962E872E0E94640F9C0180E878
:102020002030380751F5CE012D2D3C2D4B2D5A2D4A
:10203000692D782D0E94640F9C0180E820303807BC
:10204000E1F4CE012D2D3C2D4B2D5A2D692D782DEF
:102050000E94640F9C0180E82030380771F4CE01A3
:102060002D2D3C2D4B2D5A2D692D782D0E94640F5E
:102070009C0180E82030380701F185E020353807E1
:10208000E1F0B901882777FD8095982F0E94B8214B
:1020900020E030E040E85DE30E946C2226E636E670
:1020A00046EE5FE30E946C2220E030E040E052E424
:1020B0000E94B520E62F692F04C0E0E070E080ECBC
:1020C0006FE72E2F372F482F562FB901CA01DF9106
:1020D000CF911F910F91FF90EF90DF90CF90BF9025
:1020E000AF909F908F9008950F931F93DF93CF939E
:1020F000CDB7DEB72E970FB6F894DEBF0FBECDBFBB
:10210000FC010190F081E02DDE01119634968EE005
:1021100001900D928150E1F78E010F5F1F4FC801B2
:102120000E94BF17C8010E949917C80164E441E0EA
:102130000E9459172E960FB6F894DEBF0FBECDBF82
:10214000CF91DF911F910F910895DF92EF92FF924F
:102150000F931F93DF93CF93CDB7DEB766970FB67C
:10216000F894DEBF0FBECDBFFC010F87188B298B03
:102170003A8B4B8B5C8B6D8B7E8BDE2C0190F081D0
:10218000E02DDE01119634968EE001900D92815083
:10219000E1F78E010F5F1F4FC8010E94BF176FE06C
:1021A000E62EF12CEC0EFD1EC801B7010E949E1711
:1021B000C8016EE440E00E945917C80160E040E0A9
:1021C0000E945917C80160E040E00E945917D2945C
:1021D000DD0C50EED522DA94C8016D2D40E00E944E
:1021E0005917C8010E94BF17C801B7010E949E1766
:1021F000C80168E441E00E9459176AE070E080E09D
:1022000090E00E943806C8010E94A81666960FB694
:10221000F894DEBF0FBECDBFCF91DF911F910F911C
:10222000FF90EF90DF9008952F923F924F925F9230
:102230006F927F928F929F92AF92BF92CF92DF92D6
:10224000EF92FF920F931F93CF93DF936C01762E43
:102250000E9660E67AEE0E94C91B882309F455C0E9
:10226000D60151968D919C915297019652969C93CE
:102270008E935197803F910508F447C052961C9267
:102280001E92519760E070E040E050E010E834C0EA
:10229000E901D6015396ED91FC915497E40FF51F97
:1022A0009E0121503040DF01AC0FBD1FE20FF31F34
:1022B00080818C93D6015596ED91FC915697E40F51
:1022C000F51FCE0FDF1FE20FF31F808188832115DA
:1022D0003105F1F65396ED91FC915497E40FF51FFB
:1022E00010835596ED91FC915697E40FF51F1083DE
:1022F0006F5F7F4F4A5F5F4FE6018A8190E068170A
:1023000079071CF4C5E0D0E0C4CF0E942A064B0137
:102310005C01F6018581882309F0A7C0772009F4C4
:1023200081C086819781A085B1850097A105B105FF
:1023300009F478C085017401E81AF90A0A0B1B0B2D
:10234000672D70E080E090E028EE33E040E050E060
:102350000E94D3226E157F058007910708F462C0A2
:102360006DC1CF016F2D0E948613223219F02832E1
:1023700009F04EC0D6011396ED91FC911497EF0D24
:10238000F11D8081871509F441C07082872D90E08E
:102390009C01220F331F220F331F1A96ED91FC91DF
:1023A0001B97E20FF31F20823182428253828C01FD
:1023B000000F111F080F191F000F111F53962D91A9
:1023C0003C915497200F311FC90160E870E046E04E
:1023D00050E00E94AC03E6012D893E89200F311F99
:1023E000C90160E870E046E050E00E94AC038881DB
:1023F00099816F2D0E948613FC01C60189019A0103
:10240000AB01BF01EAE0EE2E0E94A510739408C054
:10241000D6011396ED91FC911497EF0DF11D60829A
:10242000F3940EC07724FF240F2EF0E02F2EF0E05F
:102430003F2EF0EC4F2EFFE75F2EF02D66246A94BE
:10244000E601E881F9818389F81608F48ACF7720BC
:1024500009F4F4C0C6010E947410F60186829782C6
:10246000A086B18681E08583E9C0813009F0E6C0AD
:10247000E6018E819F81A885B985881A990AAA0AE2
:10248000BB0AEDEB8E169104A104B10408F4D6C08A
:10249000992441E0642E712C0F2EF0E02F2EF0E0F5
:1024A0003F2EF0EC4F2EFFE75F2EF02DBBC0E60174
:1024B000EB81FC81E90DF11DB080EFEFBE1609F450
:1024C000B0C0CD01692D0E948613FC01C6018901AF
:1024D0009A01AB01BF010E94F90F7B018C01E3015E
:1024E000092C02C0CC0FDD1F0A94E2F7A801970166
:1024F0000E94CF22D6011C962D913C911D978823D6
:10250000D9F0CE0182239323892B81F08B2D90E08B
:10251000880F991F880F991FE601EA85FB85E80F50
:10252000F91F20823182428253827BC02C2B3D2BAB
:10253000F6013587248775C0CE01809590952823B4
:102540003923D6011D963C932E931C97AB2CBB24AC
:10255000C501880F991F880F991F1A96ED91FC915C
:102560001B97E80FF91FE082F18202831383C801F1
:10257000B70120E030E040E050E00E94682288236C
:102580004CF0C801B70120E030E040E05FE30E947A
:10259000B52008C0C801B70120E030E040E05FE3AB
:1025A0000E94B4200E948521162F1855E501CC0FFA
:1025B000DD1FCA0DDB1DCC0FDD1FD6015396ED913B
:1025C000FC915497EC0FFD1F8581803859F4212F21
:1025D000332727FD3095CF01B90146E050E00E9436
:1025E000AC0306C08081803811F018170CF41083FA
:1025F000D6015596ED91FC915697EC0FFD1F858104
:10260000803859F4212F332727FD3095CF01B901A8
:1026100046E050E00E94AC0304C0808181170CF4B6
:1026200010839394E601A881B98153968C915397B6
:10263000981608F43CCF1D8281E001C080E0DF9154
:10264000CF911F910F91FF90EF90DF90CF90BF90AF
:10265000AF909F908F907F906F905F904F903F9042
:102660002F9008950F931F93CF93DF93EC018B016D
:1026700079836883413108F040E14A831D821D86D9
:102680001C86F801828990E061E070E00E9485027A
:102690008B839C83F80142896FEF70E050E00E94C9
:1026A000AC038A8190E064E070E00E9485028A8732
:1026B0009B878A8190E066E070E00E9485028B8BA8
:1026C0009C8B2A8116E0219F9001112460E870E024
:1026D000A9010E94AC038A8190E066E070E00E944C
:1026E00085028D8B9E8B2A81219F9001112460E8A9
:1026F00070E0A9010E94AC03DF91CF911F910F916F
:102700000895FC01108A0E9432130895FC01838908
:10271000681748F020E030E040E050E060E070E012
:1027200080E090E00895862F90E033E0880F991FB5
:102730003A95E1F70488F589E02DE80FF91F20812B
:1027400031814281538164817581868197810895A9
:10275000EF92FF921F93CF93DF93EC017B01611502
:102760007105B1F1EC89FD8980819181892B92817C
:10277000892B9381892B9481892B9581892B968133
:10278000892B9781892B21F510E01FC0A12FB0E084
:10279000CD0143E0880F991F4A95E1F7EC89FD8947
:1027A000E80FF91FAA0FBB1FAA0FBB1FAE0DBF1D5D
:1027B0002D913D914D915C912083318342835383D0
:1027C00014821582168217821F5F8A891817F0F209
:1027D000DF91CF911F91FF90EF9008950895CF92D0
:1027E000DF92EF92FF920F931F93DF93CF93CDB7BA
:1027F000DEB728970FB6F894DEBF0FBECDBF6B01D2
:10280000E982FA820B831C832D833E834F83588792
:10281000CB016CE471E00E94350B8E010F5F1F4FFE
:1028200065E0E62EF12CEC0EFD1EF801608170E0F3
:1028300054E0759567955A95E1F7C60140E150E07F
:102840000E94220BF80161918F0170E06F7070702F
:10285000C60140E150E00E94220B0E151F0529F72A
:1028600028960FB6F894DEBF0FBECDBFCF91DF9193
:102870001F910F91FF90EF90DF90CF9008952F92CE
:102880003F924F925F926F927F928F929F92AF9200
:10289000BF92CF92DF92EF92FF920F931F93DF933D
:1028A000CF93CDB7DEB767970FB6F894DEBF0FBEF4
:1028B000CDBF3C012B010DB71EB71F8B0E8B9C01AA
:1028C0002C5F3F4F3D872C87C9010E94B6161B869F
:1028D0001A86222433241986AAC0CE01019667E005
:1028E0000E94C31689809A80AB80BC80CD80DE8038
:1028F000EF80F88410E020E030E040E050E060E05D
:1029000070E08E871F87288B398B4A8B5B8B6C8B93
:102910007D8B9401A501B601C70108E30E94060260
:102920001E85121709F083C02F85231709F07FC079
:102930003889341709F07BC04989451709F077C0F9
:102940005A89561709F073C06B89671709F06FC071
:102950007C89781709F06BC08D89891709F067C0E9
:10296000D30152965C9140E020E030E029C0D301D1
:102970005496ED91FC915597E20FF31F285F3F4F5E
:1029800080819181A281B38188159905AA05BB0533
:10299000B1F480829182A282B382C482D582E6821F
:1029A000F78281E090E002C0880F991F4A95E2F714
:1029B000EA85FB85E82BF92BFB87EA8735C04F5F5B
:1029C0004517A8F240E020E030E02CC0D301549637
:1029D000ED91FC915597E20FF31F285F3F4F8081E7
:1029E0009181892B9281892B9381892B9481892BC9
:1029F0009581892B9681892B9781892B91F48082EF
:102A00009182A282B382C482D582E682F78281E07B
:102A100090E002C0880F991F4A95E2F7282A392AC8
:102A200003C04F5F451790F2B985BF5FB9878C85AA
:102A30009D85BE016F5F7F4F0E940A18882309F0B1
:102A40004CCF8C859D850E94B616F3018289838BBD
:102A500041E050E004C02150D30153962C93F30180
:102A600023892223F1F0CA01821B910933E0880FE8
:102A7000991F3A95E1F70488F589E02DE81BF90BD9
:102A800080819181892B9281892B9381892B9481DB
:102A9000892B9581892B9681892B9781892BD9F256
:102AA0001FC121143104B9F1C20167E971E00E942C
:102AB000B309DD2429C0C1010D2C02C0969587956C
:102AC0000A94E2F780FF1FC0C20166E571E00E9430
:102AD000350B8D2D90E023E0880F991F2A95E1F7A3
:102AE000D3015496ED91FC915597E80FF91FE080C2
:102AF000F180028113812481358146815781C30190
:102B0000B2010E94EF13D394F3018289D81698F290
:102B1000C2010E94DE09CA84DB84C228D328C09483
:102B2000D09481E090E0D30153960C9002C0880FBE
:102B3000991F0A94E2F70197C822D922C114D1043F
:102B400009F44FC0C20162E871E00E94B309BB24DE
:102B500040C0C6010B2C02C0969587950A94E2F7F7
:102B600080FF36C00B2D10E083E0000F111F8A9507
:102B7000E1F7D3015496ED91FC915597E00FF11FC9
:102B800080819181892B9281892B9381892B9481DA
:102B9000892B9581892B9681892B9781892BC1F06F
:102BA000C20166E571E00E94350BD3015496ED91A8
:102BB000FC915597E00FF11FE080F18002811381B5
:102BC0002481358146815781C301B2010E94EF13F0
:102BD000B394F3018389B81608F4BBCFC2010E94F5
:102BE000DE09EA85FB85D3015896FC93EE9357974F
:102BF000C20167E771E00E94B309C20169854AE03A
:102C000050E00E94B20AC20162E771E00E94B3097B
:102C1000C201D30153966C914AE050E00E94B20A7F
:102C2000C20169E671E00E94FE09F301828990E029
:102C3000880F991F880F991F0DB71EB7081B190B16
:102C40000FB6F8941EBF0FBE0DBF6DB77EB76F5F96
:102C50007F4F40E01CC0842F90E0880F991F880FA1
:102C6000991F9B01280F391F880F991FD301549674
:102C7000ED91FC915597E80FF91F80819181A28118
:102C8000B381F90180839183A283B3834F5FD30122
:102C900052968C914817F8F286E00E94191989859E
:102CA000EE89FF890FB6F894FEBF0FBEEDBF6796A1
:102CB0000FB6F894DEBF0FBECDBFCF91DF911F914D
:102CC0000F91FF90EF90DF90CF90BF90AF909F90CB
:102CD0008F907F906F905F904F903F902F900895CE
:102CE0002A853B8522293329D30157968D919C91C2
:102CF00058972817390709F0D4CE73CF1F93CF9375
:102D0000DF93EC01142F8EE891E099838883CE0144
:102D100004960E94A018113108F010E11A8B1B8A4A
:102D2000188E1F8A86E08A83812F90E0880F991F72
:102D3000880F991F8B83812F90E068E070E00E94DC
:102D400085028C8B9D8B1E8ADF91CF911F910895F8
:102D5000FC01F894A181B28111969C911197808118
:102D60008095982311969C9378940895FC0113867E
:102D70001586148687E090E012863197009711F04F
:102D80000197FACF0895DC0180E00BC0E82FF0E056
:102D90008D9190E0E827F927E455FE4FE4916150CA
:102DA0008E2F662399F70895DF92EF92FF920F938B
:102DB0001F93FC01E08001811281F894F801828167
:102DC000DE2CD0948D21828381818E29818383E0C2
:102DD00090E00E949106F80181818D2181838AE033
:102DE00090E00E949106F8010081789485E390E0DC
:102DF0000E94910680E010E0FF240E211F21012B8C
:102E000009F081E01F910F91FF90EF90DF900895FE
:102E1000EF92FF920F931F93CF93DF937C0101E01A
:102E200010E0C0E0D0E0C7010E94D4168111102B41
:102E3000000F2196C830D105B1F7812FDF91CF91D6
:102E40001F910F91FF90EF9008951F93CF93DF9301
:102E5000FC011081C181D281912F909560FF12C039
:102E6000F8948A8189238A838981812B89838AE0E6
:102E700090E00E9491068A81812B8A83789487E36F
:102E800090E011C0F8948A8189238A838981812BFB
:102E9000898381E490E00E9491068A81812B8A8354
:102EA000789485E090E00E949106DF91CF911F9188
:102EB0000895CF92DF92EF92FF920F931F93CF93DB
:102EC000DF938C01E42EFF24F394C0E0D0E0C62E03
:102ED000DD2460E08F2D90E08C219D21892B09F06D
:102EE00061E0C8010E942517FF0C2196C830D1056A
:102EF00081F7EE20A9F4F894D8011196ED91FC9198
:102F0000129791818C918095982391831196ED91E0
:102F1000FC91129792818C9180959823928378945A
:102F2000DF91CF911F910F91FF90EF90DF90CF90A5
:102F300008956CEC40E00E9459170895EF92FF92BB
:102F40000F931F93CF93DF938C017B0165E540E0E6
:102F50000E945917C0E0D0E0F701EC0FFD1FC80137
:102F6000608140E00E9459172196C830D105A1F731
:102F7000DF91CF911F910F91FF90EF900895DF9215
:102F8000EF92FF920F931F93CF93DF93FC01008189
:102F9000C181D281F8948981D02ED0948D218983EA
:102FA00078941DE7E02EFF24115059F182E090E063
:102FB0000E949106888190E08E219F21892BA1F3A8
:102FC000F8948A818D218A838981802B89837894E2
:102FD00084EF91E00E949106F89489818D21898384
:102FE00080E590E00E949106888110E090E0E82260
:102FF000F922EF2809F411E0789484EA91E00E9424
:103000009106812FDF91CF911F910F91FF90EF904B
:10301000DF900895AF92BF92DF92EF92FF920F93ED
:103020001F93CF93DF93EC015B018D85882309F01B
:1030300061C0CE010E94BF17882329F41B861D861C
:103040001C8690E06BC0CE0160EF40E00E945917F3
:1030500001E0DD24EE24FF24F394CE010E94D41677
:10306000182FCE010E94D416113019F48130E1F4EA
:1030700039C0181709F58B85081770F460E0FE0158
:10308000EE0DF11D838190E02F2D30E082239323FC
:10309000181619064CF003C060E0081729F0093033
:1030A00008F04CC00C874AC0FE01EE0DF11D838173
:1030B0008F29838361E009C0612FFE01EE0DF11DB0
:1030C0009F2D9095838189238383CE010E942517AC
:1030D0000F5FFF0C19F4E394FF24F39487E08E153F
:1030E00008F0BBCF013430F0DB86DD2011F581E044
:1030F0008D871FC01B861D861C8690E0DE0120E0A8
:1031000030E0F501E20FF31F13968C911397808343
:103110002F5F3F4F11962830310599F7892FDF91A6
:10312000CF911F910F91FF90EF90DF90BF90AF90E4
:1031300008958B818823F1F291E0E0CFD02EBDCFAE
:10314000FF920F931F938C01F62E862F60E00E9452
:10315000D6068F2D90E0FC01EA52FF4FE491D80192
:10316000EC938E539F4FFC016491E62FF0E0EE0F3D
:10317000FF1FE854FF4F8591949112969C938E9374
:1031800011971B961C921B971D961C921D971C96BF
:103190001C92F80187E090E012863197009711F0B9
:1031A0000197FACF1F910F91FF9008959C01F99913
:1031B000FECF32BD21BDF89A80B508959C01F999E2
:1031C000FECF1FBA32BD21BD60BD0FB6F894FA9A8A
:1031D000F99A0FBE0895CF93DF93EC01462F009725
:1031E00021F44091C903CAECD3E04423F9F03881BB
:1031F0002091BB03E091B903F091BA0390E014C0B1
:10320000A191B19112968C911297831761F4ED916F
:10321000FC911197219641500280F381E02DCD0160
:10322000BE01099503C09F5F921750F3DF91CF91C4
:1032300008951F93182F5091BB03A091B903B0912B
:10324000BA0320E230E090E047C0ED91FD91828129
:103250004381811709F03DC0C90150E02EED38E1EE
:103260000E94CF034091BC035091BD03FA013297F5
:1032700020E030E06FEF7FEF21C0F999FECF205EB4
:103280003F4F32BD21BDF89A80B56827862F8295C1
:103290008627082E869586958025082E869580257A
:1032A0008770062E672F869507948795702D68275F
:1032B00006948795702568272F5130402E173F07B9
:1032C00008F4DBCFCA014E964EED58E10E94EB03A5
:1032D00019C0240F311D9F5F951708F4B6CF86E9FA
:1032E00093E061EF72E00E94B30986E993E0612FF9
:1032F0004AE050E00E94B20A86E993E066ED72E08F
:103300000E94FE091F9108958F929F92AF92BF92E3
:10331000DF92EF92FF920F931F93DF93CF93CDB77E
:10332000DEB7C054D0400FB6F894DEBF0FBECDBF9D
:103330005C0120E0322F3F5FE22FF0E0EE0FFF1F35
:10334000EA0DFB1D80819181892B11F0232FF2CF93
:103350002093BB03B092BA03A092B90386E993E02D
:1033600063E773E00E94B30986E993E06091BB03D1
:103370004AE050E00E94B20A86E993E069E673E011
:103380000E94B3091092BD031092BC03EE244EC0FC
:103390000E2D10E0F801EE0FFF1FEA0DFB1D01904E
:1033A000F081E02DF38080E48F15A8F586E993E0A5
:1033B0000E94DE0986E993E069E473E00E94B309A4
:1033C0000F5F1F4F86E993E0B8014AE050E00E948A
:1033D000220B86E993E069E373E00E94B30986E972
:1033E00093E06F2D4AE050E00E94B20A86E993E034
:1033F00063E373E00E94B30986E993E060E470E060
:103400004AE050E00E94220B86E993E06DE273E00F
:103410000E94FE090AC08091BC039091BD038F0DEC
:10342000911D9093BD038093BC03E3948091BB03F3
:10343000E81608F4ADCF6091BC037091BD036E5FD8
:103440007F4F7093BD036093BC0386E993E04AE02D
:1034500050E00E94A10A86E993E066E273E00E94D0
:10346000FE096091BC037091BD0320E030E04FEF96
:103470005FEF21C0F999FECF205E3F4F32BD21BDE5
:10348000F89A80B54827842F82958427082E869540
:1034900086958025082E869580258770042E452FD9
:1034A000869507948795502D482706948795502533
:1034B00048272F5130402617370708F4DBCF452B1C
:1034C00001F186E993E060E173E00E94FE0910E0FB
:1034D00013C0E12FF0E0EE0FFF1FEA0DFB1DA081EE
:1034E000B181ED91FC9111970190F081E02DCD011A
:1034F00060E070E009951F5F8091BB03181748F3E7
:1035000037C086E993E061E073E00E94FE0990E233
:10351000E92EF12CDD244E010894811C911C24C05D
:103520000D2D10E0000F111F0A0D1B1DD801ED918C
:10353000FC914381C401B70150E026ED38E10E94BF
:10354000B303F801A081B181ED91FC911197019035
:10355000F081E02DCD01B4010995D801ED91FC91E8
:103560008381E80EF11CD3948091BB03D816C0F27E
:10357000C05CDF4F0FB6F894DEBF0FBECDBFCF915A
:10358000DF911F910F91FF90EF90DF90BF90AF9070
:103590009F908F90089508950895FC01E45BFF4F7C
:1035A0001082EC54F04082E0868381E0878380E0E3
:1035B0008160808708950F931F938C01FC01138213
:1035C000128286E991E0918380830C9695838483AF
:1035D000C8010E94CD1AF8018185887F85608187A6
:1035E0001F910F91089504970E94F71A0895CF93A1
:1035F000DF93EC01FB01BC01685F7F4F309719F04E
:103600008081888705C08985888782E00E94191992
:1036100086E993E068E973E00E94B309888580FF3A
:1036200006C086E993E060E973E00E94B3098885EB
:1036300081FF06C086E993E06BE873E00E94B3095E
:10364000888582FF06C086E993E065E873E00E9402
:10365000B3098885882331F486E993E06CE773E049
:103660000E94B30986E993E00E94DE09DF91CF91C1
:1036700008950F931F93CF93DF93EC018C01045BAC
:103680001F4FD8018C91FE01E80FF11D128688852D
:1036900080FF16C0BE01665F7F4F86E993E00E94FF
:1036A000350BF8018081882359F0FE01E80FF11DE8
:1036B00081858A3029F486E993E06DE00E94D6097D
:1036C000888582FF1EC08BED91E00E946C0C0097F4
:1036D000C1F0FC0182E081938E01045B1F4FD80191
:1036E0004C919E01265F3F4FCF01B90150E00E94EF
:1036F000A303F80160816F5F8BED91E041E00E94D0
:103700003B0FC45BDF4F1882DF91CF911F910F9168
:1037100008951F93CF93DF93EC01162FC45BDF4F07
:103720008881CC54D040813418F0CE010E94391BDE
:10373000DE01A45BBF4F8C91FE01E80FF11D1287E3
:103740008F5F8C931A3019F4CE010E94391B81E0EF
:1037500090E0DF91CF911F9108950F931F93CF9326
:10376000DF938C01EB0180E06115710509F081E0C8
:10377000F8018283882341F00E942A062197C60F10
:10378000D71FF801D183C083DF91CF911F910F9193
:103790000895EF92FF920F931F93CF93DF93EC0165
:1037A0007B018A81882311F400E00FC00881198110
:1037B0000E942A06C801861B970B2AEE81369207C3
:1037C00010F400E006C0082F0195CE01B7010E9459
:1037D000AD1B802FDF91CF911F910F91FF90EF9044
:1037E0000895782FE89865B121E030E040E050E09E
:1037F0000090690104C0220F331F441F551F0A9413
:10380000D2F7322F822F8095862385B99EBD0DB4C5
:1038100007FEFDCF4EB57EBD0DB407FEFDCF2EB524
:10382000942F80E045B1342B35B9E89A30E0282B4D
:10383000392BC90108950E94F11B08958091BE03A0
:103840009091BF038F709093BF038093BE038091CC
:10385000BE039091BF0388609093BF038093BE0323
:103860008091BE039091BF030E94F11B0895809147
:103870001504873009F059C090911904992399F0E3
:1038800080911804891728F480911804873408F46B
:103890004CC084E08093150481E090E09093C603CF
:1038A0008093C5039AC08091C9032091180490E0C9
:1038B000049630E08217930724F08091180487342F
:1038C000A0F184E0809315048091C903833430F023
:1038D00081E090E09093C6038093C5038091C80374
:1038E00086FF12C080911404282F30E0C9018F7127
:1038F00090704F9749F08091C80390E082279327FA
:103900008F719070892B89F48091C5039091C603C3
:10391000892B09F056C0E0911204F09113043097FE
:1039200009F44FC080E0099558C080911504843097
:1039300011F080E008951092C9038091C90380932B
:1039400018048FEF9FEF9093C6038093C5032091D7
:1039500016042223D9F08227282F22952827022E09
:10396000269526952025022E269520252770082E9F
:10397000892F269507942795902D822706942795C1
:10398000902582279093C6038093C50387E0809398
:10399000150481E08093C30383EA94E90E94F11B3C
:1039A0008091BE039091BF03886D9093BF03809375
:1039B000BE038091BE039091BF030E94F11B80E083
:1039C00008958FEF9FEFAFEFBFEF80930E049093BA
:1039D0000F04A0931004B093110481E008950F9395
:1039E0001F93082F10E0C801966C0E94F11B9801EC
:1039F0002F7730702F5F3F4F442737FD4095542F6E
:103A00006BEF72E485E090E00E941923CA01B901CE
:103A1000000F012F001F110B980143E0220F331FED
:103A20004A95E1F7201B310B2F5F3F4F442737FDAD
:103A30004095542F0E94192393E05695479537954A
:103A400027959A95D1F72D573C4F4F4F5F4FCA019D
:103A5000B90124E833E040E050E00E9419232093AC
:103A6000C4031F910F91089580911504843069F06B
:103A700080911504873059F480911804882339F413
:103A80000E941E1C84E08093150481E0089580E06C
:103A90000895982F86FD05C0907E809114048F7143
:103AA000980F9093C803E0911204F091130430979B
:103AB00011F081E009958FEF9FEF9093C6038093FB
:103AC000C5038091C5039091C603209116048227F7
:103AD000282F22952827022E269526952025022E6E
:103AE000269520252770082E892F2695079427953F
:103AF000902D822706942795902582279093C603C0
:103B00008093C50388E0809315048091BE03909153
:103B1000BF0388639093BF038093BE038091BE036D
:103B20009091BF030E94F11B0895DF92EF92FF92E4
:103B30000F931F937B018C01DD2405C0D394169550
:103B40000795F794E7948FEFE816F1040105110546
:103B500009F0A0F78091BE039091BF0381FF0FC0D1
:103B60008091BE039091BF038D7F9093BF0380939C
:103B7000BE038091BE039091BF030E94F11BE1142C
:103B8000F10401051105B9F0C701906E3D2D20E04B
:103B9000822B932B0E94F11B8091BE039091BF0357
:103BA00082609093BF038093BE038091BE03909187
:103BB000BF030E94F11B1F910F91FF90EF90DF90C8
:103BC0000895E89885B121E030E040E050E00090B1
:103BD000690104C0220F331F441F551F0A94D2F7F6
:103BE000322F922F9095982395B91EBC0DB407FEE5
:103BF000FDCF6EB51EBC0DB407FEFDCF2EB5962FC2
:103C000080E0622F70E0682B792B77FF0FC08091E6
:103C10001504873059F48CB581608CBD1EBC0DB481
:103C200007FEFDCF2EB58CB58E7F8CBD85B1382BB0
:103C300035B9E89A7093C1036093C0038091C003C3
:103C40009091C10397FFECC080911504873009F073
:103C500082C080911804882371F4909116049923EE
:103C600051F080911804E82FF0E0E953FC4F908365
:103C70008F5F8093180480911804E82FF0E0E953D7
:103C8000FC4F20838F5F809318048091C50390912F
:103C9000C6038227282F22952827022E26952695AF
:103CA0002025022E269520252770082E892F26955F
:103CB00007942795902D8227069427959025822793
:103CC0009093C6038093C5032091C303233040F52E
:103CD0008091180490E06091C403029770E00E9404
:103CE0000623892BE9F48091C0039091C103E22F50
:103CF000F0E090FF04C0EA55FE4F808104C0EA5511
:103D0000FE4F808182958F708093C303833040F48F
:103D100090E0880F991F0196806A94690E94F11BB8
:103D200090911904992329F080911804891780F43F
:103D30000AC08091C9032091180490E0049630E0F5
:103D4000821793072CF080911804873408F468C018
:103D50000E941E1C65C08091150487FF2EC0E09153
:103D6000C903809115048F5F809315048150ED5F26
:103D7000E80FF0E0E953FC4FE0818091C50390919A
:103D8000C6038E27282F22952827022E26952695B2
:103D90002025022E269520252770082E892F26956E
:103DA00007942795902D82270694279590258227A2
:103DB0009093C6038093C5032EC0809115048F5F36
:103DC000809315048150833019F184302CF48823BA
:103DD00099F08130F9F416C08B3019F08C30D1F4A1
:103DE00002C0EDE218C0E09116049091C9038EEF75
:103DF000891B809315040FC08091C5039091C60361
:103E0000E82F09C08091C5039091C603E92F03C034
:103E10000E941E1CEAEA8E2F90E0986B0E94F11B14
:103E20008091C0039091C10396FF03C086E0809308
:103E300015048091C0039091C10394FF09C060E014
:103E400070E080E090E00E94951D81E08093C203C5
:103E50008091C0039091C10395FF05C00E941E1C74
:103E600084E08093150408951F93182F4093C9038D
:103E70002AEC33E0C90150E00E94A303812F0E9485
:103E8000491D1F9108958091140490E08F719070E6
:103E9000892B41F080E061EE7DE140E050E00E943E
:103EA0002420089580E00E94472008951F93809366
:103EB000140440931604609317040E94431F109249
:103EC0001904E89885E092E89093BF038093BE03BD
:103ED0008091BE039091BF030E94F11B8091170453
:103EE00090E074E0880F991F7A95E1F7876C9068ED
:103EF0000E94F11B80E496EA0E94F11B86E00E947A
:103F0000EF1C82EA94E90E94F11B8CEA92EC0E9479
:103F1000F11B10911604112341F083E89AEC0E94E2
:103F2000F11B812F90E09E6C06C08BE89AEC0E94FA
:103F3000F11B8DE29EEC0E94F11B83E894EC0E9441
:103F4000F11B80E598E90E94F11B87E79CEC0E9439
:103F5000F11B80E090EE0E94F11B80E098EC0E9443
:103F6000F11B89E490EC0E94F11B84E0809315041E
:103F7000E89A1F91089525B181E090E0A0E0B0E0BB
:103F80000090690104C0880F991FAA1FBB1F0A94E3
:103F9000D2F7282B25B924B1822B84B98AE061E0BD
:103FA0000E9415078AE061E00E94D6068BE061E07E
:103FB0000E94D6068CE060E00E94D6068DE061E0AB
:103FC0000E94D60680E58CBD8DB581608DBD82E0F6
:103FD00060E00E94D60682E061E00E941507089525
:103FE000FF920F931F93182F062FF42E8093140423
:103FF00040931604609317040E94BB1F0E94431F46
:1040000082E89AEC0E94F11B80E09EEF0E94F11B77
:1040100085E08093150483B7817F06C083B78160F4
:1040200083BF889583B78E7F83BF809115048530C9
:10403000A9F3812F602F4F2D0E94561F80911404E9
:104040001F910F91FF900895823000F5E82FF0E066
:10405000EE0FFF1FE65EFB4F71836083882319F02C
:104060008130A1F408C0809169008C7F842B8093FB
:104070006900E89A089580916900440F551F440F24
:10408000551F837F842B80936900E99A08958230BD
:1040900080F4882319F0813021F402C0E89801C02F
:1040A000E998E82FF0E0EE0FFF1FE65EFB4F11826C
:1040B000108208951F920F920FB60F9211242F9322
:1040C0003F934F935F936F937F938F939F93AF93A0
:1040D000BF93EF93FF9380911A0490911B04892B57
:1040E00029F0E0911A04F0911B040995FF91EF91DA
:1040F000BF91AF919F918F917F916F915F914F9100
:104100003F912F910F900FBE0F901F9018951F9207
:104110000F920FB60F9211242F933F934F935F93FB
:104120006F937F938F939F93AF93BF93EF93FF937F
:1041300080911C0490911D04892B29F0E0911C04AE
:10414000F0911D040995FF91EF91BF91AF919F915F
:104150008F917F916F915F914F913F912F910F9030
:104160000FBE0F901F9018955058BB27AA270ED04E
:1041700075C166D130F06BD120F031F49F3F11F45E
:104180001EF45BC10EF4E095E7FB51C1E92F77D136
:1041900080F3BA17620773078407950718F071F464
:1041A0009EF58FC10EF4E0950B2EBA2FA02D0B01BA
:1041B000B90190010C01CA01A0011124FF27591B6C
:1041C00099F0593F50F4503E68F11A16F040A22F72
:1041D000232F342F4427585FF3CF469537952795E3
:1041E000A795F0405395C9F77EF41F16BA0B620BE2
:1041F000730B840BBAF09150A1F0FF0FBB1F661F29
:10420000771F881FC2F70EC0BA0F621F731F841F6B
:1042100048F4879577956795B795F7959E3F08F091
:10422000B3CF9395880F08F09927EE0F9795879550
:104230000895D9D008F481E008950CD00FC107D1BA
:1042400040F0FED030F021F45F3F19F0F0C0511182
:1042500039C1F3C014D198F39923C9F35523B1F3AD
:10426000951B550BBB27AA2762177307840738F0E5
:104270009F5F5F4F220F331F441FAA1FA9F333D044
:104280000E2E3AF0E0E830D091505040E695001CF8
:10429000CAF729D0FE2F27D0660F771F881FBB1FB4
:1042A000261737074807AB07B0E809F0BB0B802D8E
:1042B000BF01FF2793585F4F2AF09E3F510568F0DA
:1042C000B6C000C15F3FECF3983EDCF3869577956E
:1042D0006795B795F7959F5FC9F7880F911D9695DC
:1042E000879597F90895E1E0660F771F881FBB1F38
:1042F000621773078407BA0720F0621B730B840BE5
:10430000BA0BEE1F88F7E095089504D06894B111B8
:10431000D9C00895BCD088F09F5790F0B92F992745
:10432000B751A0F0D1F0660F771F881F991F1AF0C0
:10433000BA95C9F712C0B13081F0C3D0B1E0089589
:10434000C0C0672F782F8827B85F39F0B93FCCF30A
:10435000869577956795B395D9F73EF490958095B6
:10436000709561957F4F8F4F9F4F0895E89409C0D6
:1043700097FB3EF490958095709561957F4F8F4F98
:104380009F4F9923A9F0F92F96E9BB279395F695AE
:10439000879577956795B795F111F8CFFAF4BB0F2C
:1043A00011F460FF1BC06F5F7F4F8F4F9F4F16C090
:1043B000882311F096E911C0772321F09EE8872F1A
:1043C000762F05C0662371F096E8862F70E060E0D6
:1043D0002AF09A95660F771F881FDAF7880F96954F
:1043E000879597F90895990F0008550FAA0BE0E8F3
:1043F000FEEF16161706E807F907C0F012161306A7
:10440000E407F50798F0621B730B840B950B39F4E6
:104410000A2661F0232B242B252B21F408950A264C
:1044200009F4A140A6958FEF811D811D089597F98C
:104430009F6780E870E060E008959FEF80EC08954A
:1044400000240A9416161706180609060895002473
:104450000A9412161306140605060895092E0394ED
:10446000000C11F4882352F0BB0F40F4BF2B11F461
:1044700060FF04C06F5F7F4F8F4F9F4F089557FDC0
:104480009058440F551F59F05F3F71F04795880FC2
:1044900097FB991F61F09F3F79F087950895121659
:1044A00013061406551FF2CF4695F1DF08C0161605
:1044B00017061806991FF1CF8695710561050894B6
:1044C0000895E894BB2766277727CB0197F90895CD
:1044D0008ADF08F48FEF08950BD0C0CFB1DF28F04A
:1044E000B6DF18F0952309F0A2CFA7CF1124EACFA9
:1044F000C6DFA0F3959FD1F3950F50E0551F629F43
:10450000F001729FBB27F00DB11D639FAA27F00D2C
:10451000B11DAA1F649F6627B00DA11D661F829F53
:104520002227B00DA11D621F739FB00DA11D621F38
:10453000839FA00D611D221F749F3327A00D611D55
:10454000231F849F600D211D822F762F6A2F112437
:104550009F5750408AF0E1F088234AF0EE0FFF1F8A
:10456000BB1F661F771F881F91505040A9F79E3FC1
:10457000510570F05CCFA6CF5F3FECF3983EDCF3C3
:10458000869577956795B795F795E7959F5FC1F7FE
:10459000FE2B880F911D9695879597F9089523DF37
:1045A000880B990B0895629FD001739FF001829F41
:1045B000E00DF11D649FE00DF11D929FF00D839FB2
:1045C000F00D749FF00D659FF00D9927729FB00D4F
:1045D000E11DF91F639FB00DE11DF91FBD01CF0162
:1045E00011240895AA1BBB1B51E107C0AA1FBB1FC2
:1045F000A617B70710F0A61BB70B881F991F5A956F
:10460000A9F780959095BC01CD01089597FB092EDF
:1046100007260AD077FD04D0E5DF06D000201AF483
:10462000709561957F4F0895F6F7909581959F4F0E
:104630000895A1E21A2EAA1BBB1BFD010DC0AA1FE3
:10464000BB1FEE1FFF1FA217B307E407F50720F0FB
:10465000A21BB30BE40BF50B661F771F881F991F76
:104660001A9469F760957095809590959B01AC01BF
:10467000BD01CF010895EE0FFF1F0590F491E02DCD
:1046800009942F923F924F925F926F927F928F92F6
:104690009F92AF92BF92CF92DF92EF92FF920F93D1
:1046A0001F93CF93DF93CDB7DEB7CA1BDB0B0FB6DB
:1046B000F894DEBF0FBECDBF09942A883988488898
:1046C0005F846E847D848C849B84AA84B984C8842E
:1046D000DF80EE80FD800C811B81AA81B981CE0F25
:1046E000D11D0FB6F894DEBF0FBECDBFED0108950A
:0446F000F894FFCF6C
:1046F40054656D7020003D005761746572203D2043
:1047040000203D200056006E616E00696E66006FE9
:104714007666002E00206E6F2D41434B2000202032
:10472400772F41434B20002300203078003A005279
:1047340046313220626164204352430030780020C5
:104744002023003A20002000200024040000B602A8
:10475400DB010000AA010000010200000000E408DF
:1047640089097A08AB088B08D40800000000120DF0
:10477400A30C070003000100000000000000A813C0
:10478400EE1300000000891B8909F71ACC1AFCFFFC
:0A4794000000F31ACB1A340256009D
:00000001FF
