:100000000C94D4010C94BD230C94EA230C940402A8
:100010000C9404020C9404020C9404020C94040248
:100020000C9404020C9404020C9404020C94040238
:100030000C9404020C9404020C9404020C94040228
:100040000C94C1080C9404020C94490A0C94970A6D
:100050000C9404020C9404020C9404020C94040208
:100060000C9404020C9404022A2A2A2A2A205255AB
:100070004E4E494E473A2077617465725F6C6576E3
:10008000656C2E696E6F002A2A2A2A2A205345544D
:1000900055503A2077617465725F6C6576656C2E99
:1000A000696E6F0000000000240027002A00000095
:1000B0000000250028002B0000000000230026007F
:1000C00029000404040404040404020202020202DB
:1000D000030303030303010204081020408001020C
:1000E000040810200102040810200000000700028C
:1000F00001000003040600000000000000002020B2
:1001000031396B6270730020206C6F772054582057
:10011000706F77657200206D6F64653D00206772B7
:100120006F75705F69643D00436F6E666967204E4E
:1001300065743A206E6F64655F69643D00436F6E5D
:100140006669673A20004E65743A3A646F53656E8B
:10015000643A20002064657669636573004F7753C5
:1001600063616E2068617320002064657669636551
:100170007300206F6620004F573A20666F756E64DB
:1001800020004F573A204D697373696E672064658C
:1001900076696365733A004F573A204E657720645D
:1001A0006576696365733A2020202000005EBCE21A
:1001B000613FDD83C29C7E20A3FD1F419DC3217F43
:1001C000FCA2401E5F01E3BD3E6082DC237D9FC137
:1001D000421CFEA0E1BF5D0380DE3C62BEE0025C2B
:1001E000DF81633D7C22C09E1D43A1FF4618FAA417
:1001F00027799BC584DA3866E5BB5907DB85673903
:10020000BAE406581947A5FB7826C49A653BD987F6
:10021000045AB8E6A7F91B45C6987A24F8A6441AEA
:1002200099C7257B3A6486D85B05E7B98CD2306ED6
:10023000EDB3510F4E10F2AC2F7193CD114FADF3C2
:10024000702ECC92D38D6F31B2EC0E50AFF1134DB6
:10025000CE90722C6D33D18F0C52B0EE326C8ED0AA
:10026000530DEFB1F0AE4C1291CF2D73CA94762896
:10027000ABF517490856B4EA6937D58B5709EBB582
:1002800036688AD495CB2977F4AA4816E9B7550B76
:1002900088D6346A2B7597C94A14F6A8742AC8966A
:1002A000154BA9F7B6E80A54D7896B35206E6F74E1
:1002B00020666F756E6420696E20636F6E66696775
:1002C0005F7265616400436F6E6669673A206D6FA7
:1002D00064756C652000206E6F7420666F756E64A7
:1002E00020696E20636F6E6669675F7772697465F7
:1002F00000436F6E6669673A206D6F64756C6520A8
:10030000002020435243206D6174636865732100AF
:10031000202043524320646F6573206E6F74206DFC
:1003200061746368210020627974657300206D61D7
:100330007829002076732E200020697320746F6F57
:10034000206C61726765202800434F4E4649473A4A
:100350002074686520636F6E66696720666F72201F
:100360006D6F64756C6520230020636F6E6669672E
:10037000732000436F6E6669673A200020214E4F5C
:100380004E45212000207266313200206C636400EB
:100390002073657269616C00436F6E666967204CFB
:1003A0006F673A00A106030C11241FBECFEFD8E0FF
:1003B000DEBFCDBF8091000180932B0480910101AD
:1003C00080932C0411E0A0E0B1E0EAEBFDE402C070
:1003D00005900D92A23BB107D9F714E0A2EBB1E072
:1003E00001C01D92AB32B107E1F713E0C8EAD3E0D8
:1003F00004C02297FE010E94A026C43AD107C9F783
:100400000E94590C0C94DB260C940000EF92FF9292
:100410000F93DF93CF93CDB7DEB760970FB6F89405
:10042000DEBF0FBECDBFA82F002309F461C07E013F
:100430000894E11CF11C88E0F70111928A95E9F714
:1004400029833A834B835C836D837E83AF83988754
:1004500080E2801BE82FFF27E7FDF0954D815E814C
:100460006F817885181684F01D861E861F86188A6F
:10047000882799278E1B9F0B04C076956795579503
:1004800047958A95D2F728C0202F332727FD30952E
:10049000DB01CA01022E04C0B695A79597958795F2
:1004A0000A94D2F78D879E87AF87B88B04C0440F1C
:1004B000551F661F771FEA95D2F789819A81AB8114
:1004C000BC8104C0B695A795979587952A95D2F7D4
:1004D000482B592B6A2B7B2B49875A876B877C8744
:1004E00029853A854B855C856D857E85AF859889A4
:1004F0008A2F60960FB6F894DEBF0FBECDBFCF91A6
:10050000DF910F91FF90EF9008950F931F93CF937A
:10051000DF93689F8001699F100D789F100D112453
:10052000C8010E94A102EC01009729F060E070E090
:10053000A8010E94AC03CE01DF91CF911F910F91D2
:100540000895CF93DF93BC018230910510F462E0EF
:1005500070E0A0912904B0912A04ED0140E050E040
:10056000E0E0F0E021C0888199818617970769F45F
:100570008A819B81309719F09383828304C0909382
:100580002A0480932904FE0134C06817790738F4DF
:100590004115510519F08417950708F4AC01FE01C7
:1005A0008A819B819C01E9012097E9F6411551055B
:1005B000A9F1CA01861B970B049708F4BA01E0E081
:1005C000F0E02AC08D919C91119784179507F9F45A
:1005D0006417750781F412968D919C91139730974B
:1005E00019F09383828304C090932A048093290492
:1005F000FD0132964CC0CA01861B970BFD01E80F26
:10060000F91F6193719302978D939C9340C0FD01F4
:10061000828193819C01D9011097A1F680912704D2
:1006200090912804892B41F4809163019091640199
:1006300090932804809327044091650150916601AE
:100640004115510541F44DB75EB78091610190911C
:100650006201481B590B2091270430912804CA01DC
:10066000821B930B8617970780F0AB014E5F5F4F9D
:100670008417950750F0420F531F5093280440935E
:100680002704F9016193719302C0E0E0F0E0CF012B
:10069000DF91CF910895CF93DF93009709F450C075
:1006A000EC0122971B821A82A0912904B0912A049E
:1006B000109709F140E050E0AC17BD0708F1BB838B
:1006C000AA83FE0121913191E20FF31FAE17BF07FC
:1006D00079F48D919C911197280F391F2E5F3F4F10
:1006E0003983288312968D919C9113979B838A83DB
:1006F0004115510571F4D0932A04C093290420C0F8
:1007000012968D919C911397AD01009711F0DC0129
:10071000D3CFFA01D383C28321913191E20FF31F2A
:10072000CE17DF0769F488819981280F391F2E5F62
:100730003F4FFA01318320838A819B819383828397
:10074000DF91CF910895FB01DC0102C001900D9271
:1007500041505040D8F70895DC0101C06D934150DD
:100760005040E0F70895A0E0B0E0E9EBF3E00C942E
:10077000AE267C01EB018A01690109C0CE012196F8
:10078000F6010995F70181937F0101501040011591
:100790001105A1F7CDB7DEB7E8E00C94CA26A0E0BA
:1007A000B0E0E5EDF3E00C94AE26EC017B018A01AC
:1007B000690109C0CE012196F70161917F01F6011F
:1007C00009950150104001151105A1F7CDB7DEB70D
:1007D000E8E00C94CA26DF92EF92FF920F931F93EA
:1007E000D72E7A018C01FA010995C80101966D2D69
:1007F000F70109951F910F91FF90EF90DF900895F9
:10080000AEE0B0E0E6E0F4E00C94B2260D891E897B
:1008100086E08C831A8309838FEF9FE79E838D8305
:100820009E01275E3F4FCE0101966F89788DA90109
:100830000E9424042F813885020F131FF8011082B3
:100840002E96E4E00C94CE26ABE0B0E0EAE2F4E0D1
:100850000C94A4263C012B015A01FC01178216823C
:10086000838181FD03C06FEF7FEFC6C19AE0892EBF
:100870001E010894211C311CF3012381F20123FD88
:10088000859123FF81912F01882309F4B2C185321C
:1008900039F423FD859123FF81912F01853229F4BD
:1008A00090E0B3010E941706E7CF982FFF24EE24B3
:1008B0009924FFE1FF15D0F09B3269F09C3228F4B7
:1008C000903259F0933291F40EC09D3249F090333A
:1008D00069F441E024C052E0F52A84E0F82A28C0F7
:1008E00098E0F92A25C0E0E1FE2A22C0F7FC29C0E1
:1008F000892F80538A3070F4F6FE05C0989C902CA6
:100900001124980E15C0E89CE02C1124E80EF0E2AA
:10091000FF2A0EC09E3229F4F6FC6BC140E4F42A93
:1009200007C09C3619F450E8F52A02C0983649F4FD
:10093000F20123FD959123FF91912F01992309F055
:10094000B8CF892F8554833018F08052833038F423
:1009500044E050E0A40EB51E5FE359830FC0933608
:1009600031F0933779F0933509F056C020C0F50186
:100970008081898342E050E0A40EB51E610101E050
:1009800010E012C0F501C080D180F6FC03C06FEF0B
:100990007FEF02C0692D70E042E050E0A40EB51E6A
:1009A000C6010E940C068C015FE7F52214C0F50118
:1009B000C080D180F6FC03C06FEF7FEF02C0692DCD
:1009C00070E042E050E0A40EB51EC6010E94010690
:1009D0008C0150E8F52AF3FE07C01AC080E290E0CF
:1009E000B3010E941706EA948E2D90E008171907AC
:1009F000A8F30EC0F601F7FC8591F7FE81916F0117
:100A000090E0B3010E941706E110EA9401501040F3
:100A10000115110579F7EAC0943611F0993669F598
:100A2000F7FE08C0F501208131814281538184E0C5
:100A300090E00AC0F501808191819C01442737FD37
:100A40004095542F82E090E0A80EB91E9FE6F9224F
:100A500057FF09C050954095309521953F4F4F4F16
:100A60005F4FE0E8FE2ACA01B901A1012AE030E0A7
:100A70000E944306D82ED21840C0953729F41F2D66
:100A80001F7E2AE030E01DC01F2D197F9F3661F0C8
:100A9000903720F4983509F0ACC00FC0903739F08A
:100AA000983709F0A6C004C028E030E00AC0106101
:100AB00014FD146020E130E004C014FD166020E154
:100AC00032E017FF08C0F501608171818281938156
:100AD00044E050E008C0F50180819181BC0180E0D4
:100AE00090E042E050E0A40EB51EA1010E94430632
:100AF000D82ED2188FE7F82EF122F6FE0BC05EEF4B
:100B0000F522D91438F4F4FE07C0F2FC05C08FEECC
:100B1000F82202C01D2D01C0192DF4FE0DC0FE01EA
:100B2000ED0DF11D8081803319F499EEF92208C092
:100B30001F5FF2FE05C003C08F2D867809F01F5F8E
:100B40000F2DF3FC14C0F0FE0FC01E1510F09D2CED
:100B50000BC09D2C9E0C911A1E2D06C080E290E0C9
:100B6000B3010E9417061F5F1E15C0F304C01E15B7
:100B700010F4E11A01C0EE2404FF0FC080E390E0FE
:100B8000B3010E94170602FF1DC001FD03C088E7E4
:100B900090E00EC088E590E00BC0802F867891F041
:100BA00001FF02C08BE201C080E2F7FC8DE290E021
:100BB000B3010E94170606C080E390E0B3010E94D3
:100BC00017069A94D914C0F3DA94F101ED0DF11DD2
:100BD000808190E0B3010E941706DD20A9F706C0CE
:100BE00080E290E0B3010E941706EA94EE20C1F77C
:100BF00043CEF30166817781CB012B96E2E10C9421
:100C0000C026FC010590615070400110D8F7809516
:100C100090958E0F9F1F0895FC01615070400190C8
:100C20000110D8F7809590958E0F9F1F08950F9310
:100C30001F93CF93DF938C01EB018B8181FF1BC04E
:100C400082FF0DC02E813F818C819D81281739073D
:100C500064F4E881F9810193F983E88306C0E885AB
:100C6000F985802F0995892B31F48E819F8101961A
:100C70009F838E8302C00FEF1FEFC801DF91CF91DA
:100C80001F910F910895FA01AA27283051F12031C0
:100C900081F1E8946F936E7F6E5F7F4F8F4F9F4F10
:100CA000AF4FB1E03ED0B4E03CD0670F781F891F52
:100CB0009A1FA11D680F791F8A1F911DA11D6A0F20
:100CC000711D811D911DA11D20D009F468943F91D3
:100CD0002AE0269F11243019305D3193DEF6CF01D2
:100CE0000895462F4770405D4193B3E00FD0C9F798
:100CF000F6CF462F4F70405D4A3318F0495D31FD05
:100D00004052419302D0A9F7EACFB4E0A695979557
:100D1000879577956795BA95C9F70097610571052D
:100D200008959B01AC010A2E069457954795379577
:100D30002795BA95C9F7620F731F841F951FA01DD1
:100D4000089582EB91E067E044E00E945D198BEC2E
:100D500091E062EB71E044E00E94601683EE91E066
:100D60006DE144ED0E94600F8EEB92E00E94BA1D8F
:100D70008091670190916801009719F480E090E0FC
:100D800001C0049690936C0180936B010895FF92CB
:100D90000F931F93CF93DF93182FF62E08E0C0E038
:100DA000D0E005C0812F0E949F08C80FD91F0150B5
:100DB000C8F7249683E0D595C7958A95E1F7809189
:100DC00067019091680160E071E00E94140E8091CB
:100DD000670190916801612F4AE050E00E94910DF7
:100DE000809167019091680168E071E00E94140EA3
:100DF0008091670190916801BE014AE050E00E9435
:100E0000010E809167019091680168E071E00E9495
:100E1000140E0091670110916801BE01882777FDCB
:100E20008095982F0E941B2523E333E343E550E48C
:100E30000E94CF2520E030E040E85AE30E94CF2511
:100E4000AB01BC01C80122E030E00E94FB0E8091A2
:100E50006701909168016CE071E00E94110F81E0E0
:100E6000CD32D80724F08F2D61E00E94F409CE0125
:100E7000DF91CF911F910F91FF900895AF92BF9294
:100E8000CF92DF92EF92FF920F931F93DF93CF9356
:100E9000CDB7DEB728970FB6F894DEBF0FBECDBF33
:100EA000A89505C080E090E060E00E94CA1B83EE38
:100EB00091E00E94B9118823A9F78BEC91E06AE0D8
:100EC0000E94F313882309F4B5C089E061E00E9411
:100ED000F40995E0C92ED12CCC0EDD1EAC2C35C00A
:100EE0008BEC91E06B2D0E9424127B018C0120E0A1
:100EF00030E040E05FE30E9418240E94E824F601FD
:100F000061936F0180916701909168016EE071E0DB
:100F10000E94140E80916701909168016B2D4AE048
:100F200050E00E94910D809167019091680164E109
:100F300071E00E94140E8091670190916801B801E0
:100F4000A70122E030E00E94FE0EBC2CBA1880916E
:100F5000E201B81628F20BC083EE91E00E942E1138
:100F6000882329F080E090E060E00E94CA1B83EEB5
:100F700091E00E944B0F009779F3FC0184E081938C
:100F80008E010B5F1F4F9601201B310BCF01B80163
:100F9000A9010E94A3030894C11CD11C6C2D601BE5
:100FA00083EE91E041E00E941A1286E060E00E9428
:100FB000F40980E166E00E94C7069A83898381E193
:100FC00066E00E94C7069C838B830BC083EE91E092
:100FD0000E942E11882329F080E090E060E00E94BA
:100FE000CA1B83EE91E00E944B0FFC01009771F346
:100FF00087E0808389819A81928381838B819C8120
:101000009483838383EE91E065E041E00E941A12AD
:1010100089E060E00E94F40980910C0390910D0337
:10102000019690930D0380930C0305971CF081E0CB
:101030000E94240F28960FB6F894DEBF0FBECDBFD6
:10104000CF91DF911F910F91FF90EF90DF90CF90A4
:10105000BF90AF9008950F931F9364E670E080E017
:1010600090E00E9417090FE913E0C80140E051EE3B
:1010700060E070E00E94D20A64E670E080E090E0F8
:101080000E941709C80167E870E00E94DD0C89E63C
:1010900091E00E94631C89E061E00E94F40986E00F
:1010A00061E00E94F40989E061E00E94B50986E0F0
:1010B00061E00E94B50968EC70E080E090E00E9479
:1010C000170989E060E00E94F40986E060E00E9470
:1010D000F40980E160E00E94B50981E160E00E94CE
:1010E000B50981E00E949C0884E060E00E94F40958
:1010F00084E061E00E94B509609167017091680128
:1011000082EB91E00E941E178093E20180916701BB
:101110009091680168E670E00E94DD0C28E288E1A9
:1011200090E00FB6F894A895809360000FBE2093CE
:1011300060001F910F910895809371010895982F79
:101140008E3008F09E509770809171018295880FC3
:10115000880F807C892B80937C0080917A0080644A
:1011600080937A0080917A0086FDFCCF20917800F0
:1011700040917900942F80E030E0282B392BC90171
:1011800008951F920F920FB60F9211242F933F9341
:101190008F939F93AF93BF9380911203909113030A
:1011A000A0911403B0911503309116030196A11D6F
:1011B000B11D232F2D5F2D3720F02D570196A11D36
:1011C000B11D209316038093120390931303A093F1
:1011D0001403B093150380910E0390910F03A09117
:1011E0001003B09111030196A11DB11D80930E0350
:1011F00090930F03A0931003B0931103BF91AF918D
:101200009F918F913F912F910F900FBE0F901F9044
:1012100018958FB7F89420911203309113034091E1
:101220001403509115038FBFB901CA0108959B01A2
:10123000AC017FB7F89480910E0390910F03A091B9
:101240001003B091110366B5A89B05C06F3F19F05C
:101250000196A11DB11D7FBFBA2FA92F982F8827F6
:10126000860F911DA11DB11D62E0880F991FAA1F55
:10127000BB1F6A95D1F7BC012DC0FFB7F8948091D0
:101280000E0390910F03A0911003B0911103E6B5E6
:10129000A89B05C0EF3F19F00196A11DB11DFFBF2E
:1012A000BA2FA92F982F88278E0F911DA11DB11D30
:1012B000E2E0880F991FAA1FBB1FEA95D1F7861B92
:1012C000970B885E9340C8F2215030404040504018
:1012D00068517C4F211531054105510571F608957E
:1012E000019739F0880F991F880F991F029701976E
:1012F000F1F70895789484B5826084BD84B58160E7
:1013000084BD85B5826085BD85B5816085BDEEE60D
:10131000F0E0808181608083E1E8F0E010828081EC
:1013200082608083808181608083E0E8F0E080815A
:1013300081608083E1EBF0E0808184608083E0EB7A
:10134000F0E0808181608083EAE7F0E08081846062
:1013500080838081826080838081816080838081BE
:10136000806880831092C1000895CF93DF93482F47
:1013700050E0CA018A529F4FFC0134914E535F4F97
:10138000FA018491882369F190E0880F991FFC018C
:10139000EC55FF4FA591B491FC01E255FF4FC5916B
:1013A000D491662351F42FB7F8948C91932F909594
:1013B00089238C93888189230BC0623061F42FB715
:1013C000F8948C91932F909589238C938881832B0B
:1013D00088832FBF06C09FB7F8948C91832B8C9382
:1013E0009FBFDF91CF910895482F50E0CA018651E9
:1013F0009F4FFC012491CA018A529F4FFC01949196
:101400004E535F4FFA013491332309F440C0222335
:1014100051F1233071F0243028F42130A1F0223032
:1014200011F514C02630B1F02730C1F02430D9F4C2
:1014300004C0809180008F7703C0809180008F7DF1
:101440008093800010C084B58F7702C084B58F7DF3
:1014500084BD09C08091B0008F7703C08091B00037
:101460008F7D8093B000E32FF0E0EE0FFF1FE25579
:10147000FF4FA591B4912FB7F894662321F48C9176
:101480009095892302C08C91892B8C932FBF08954E
:1014900008951F920F920FB60F9211242F933F932E
:1014A0004F938F939F93EF93FF938091C00082FDA2
:1014B0001DC04091C60020915703309158032F5F03
:1014C0003F4F2F7330708091590390915A03281722
:1014D000390771F0E0915703F0915803E95EFC4F32
:1014E0004083309358032093570302C08091C60075
:1014F000FF91EF919F918F914F913F912F910F907D
:101500000FBE0F901F901895E091AB03F091AC03C4
:10151000E05CFF4F8191919120813181821B930B7F
:101520008F739070892B11F00E94480A08951F92C2
:101530000F920FB60F9211242F933F938F939F9387
:10154000EF93FF9320919B0330919C0380919D0327
:1015500090919E032817390731F48091C1008F7D47
:101560008093C10014C0E0919D03F0919E03E55A61
:10157000FC4F208180919D0390919E0301968F7373
:10158000907090939E0380939D032093C600FF91DB
:10159000EF919F918F913F912F910F900FBE0F90E0
:1015A0001F901895AF92BF92DF92EF92FF920F9328
:1015B0001F93CF93DF93EC017A018B01DD24403040
:1015C00081EE580780E0680780E0780711F0DD249D
:1015D000D39491E0A92EB12CEC89FD89DD2069F02E
:1015E000C50108A002C0880F991F0A94E2F7808302
:1015F00060E079E08DE390E005C0108260E874E877
:101600008EE190E0A80197010E947C262150304095
:1016100040405040569547953795279580E12030BA
:10162000380720F0DD2011F0DD24D6CFE889F989D4
:101630003083EA89FB89208319A2EE89FF894081E2
:1016400021E030E0C9010C8C02C0880F991F0A9478
:10165000E2F7482B4083EE89FF894081C9010D8C58
:1016600002C0880F991F0A94E2F7482B4083EE8945
:10167000FF894081C9010E8C02C0880F991F0A940E
:10168000E2F7482B4083EE89FF8980810F8C02C0EE
:10169000220F331F0A94E2F7209528232083DF913D
:1016A000CF911F910F91FF90EF90DF90BF90AF907F
:1016B0000895DC011C96ED91FC911D97E05CFF4FB5
:1016C0002191319180819181281B390B2F733070CA
:1016D000C9010895DC011C96ED91FC911D97E05C19
:1016E000FF4F20813181E054F040DF01AE5BBF4FFE
:1016F0008D919C9111972817390719F42FEF3FEF1F
:1017000007C08D919C91E80FF91F8081282F30E050
:10171000C9010895DC011C96ED91FC911D97E05CD8
:10172000FF4F20813181E054F040DF01AE5BBF4FBD
:101730008D919C9111972817390719F42FEF3FEFDE
:1017400010C08D919C911197E80FF91F20818D9108
:101750009C91119701968F73907011969C938E9324
:1017600030E0C9010895DC0191968C91919788230E
:1017700039F05496ED91FC915597808186FFF9CF11
:1017800091961C920895CF93DF93EC01EE85FF852F
:10179000E05CFF4F20813181E054F0402F5F3F4FEC
:1017A0002F733070DF01AE5BBF4F8D919C9111970D
:1017B00028173907D1F3E05CFF4F80819181E05415
:1017C000F040E80FF91F6083EE85FF85E05CFF4F76
:1017D00031832083EE89FF89208181E090E00F8CA6
:1017E00002C0880F991F0A94E2F7282B208381E01A
:1017F00089A3EC89FD8980818064808381E090E009
:10180000DF91CF9108951092A2031092A10388EE68
:1018100093E0A0E0B0E08093A3039093A403A0938F
:10182000A503B093A60387E791E09093A00380936C
:101830009F0387E193E09093AC038093AB038BE528
:1018400093E09093AE038093AD0385EC90E090938A
:10185000B0038093AF0384EC90E09093B203809345
:10186000B10380EC90E09093B4038093B30381ECD8
:1018700090E09093B6038093B50382EC90E0909350
:10188000B8038093B70386EC90E09093BA038093FB
:10189000B90384E08093BB0383E08093BC0387E0BB
:1018A0008093BD0385E08093BE0381E08093BF03F6
:1018B0000895CF93DF930E947A090E942B08C4E811
:1018C000DAE00E943E072097E1F30E94840AF9CFF4
:1018D000CF92DF92EF92FF920F931F93CF93DF93FC
:1018E0007C016B018A01C0E0D0E00FC0D6016D9190
:1018F0006D01D701ED91FC910190F081E02DC701C0
:101900000995C80FD91F015010400115110571F735
:10191000CE01DF91CF911F910F91FF90EF90DF905B
:10192000CF900895EF92FF920F931F93CF93DF9381
:101930007C018B01C0E0D0E0F8010F5F1F4F649184
:10194000662359F0D701ED91FC910190F081E02DD3
:10195000C7010995C80FD91FEFCFCE01DF91CF91F5
:101960001F910F91FF90EF900895DC01ED91FC9194
:101970000190F081E02D09950895EF92FF920F9369
:101980001F938C01DC01ED91FC910190F081E02D21
:101990006DE009957C01D801ED91FC910190F081F9
:1019A000E02DC8016AE009959C012E0D3F1DC9017B
:1019B0001F910F91FF90EF900895EF92FF920F9378
:1019C0001F937C010E94920C8C01C7010E94BD0CE8
:1019D0009C01200F311FC9011F910F91FF90EF90C3
:1019E0000895CF93DF93EC016115710519F420E0A0
:1019F00030E00FC0DB010D900020E9F71197A61B26
:101A0000B70BE881F9810280F381E02DAD010995E2
:101A10009C01C901DF91CF9108954F925F927F920F
:101A20008F929F92AF92BF92CF92DF92EF92FF92EE
:101A30000F931F93DF93CF93CDB7DEB7A1970FB668
:101A4000F894DEBF0FBECDBF2C01742ECB01223027
:101A500008F42AE019A231E2C32ED12CCC0EDD1EEF
:101A6000822E9924AA24BB24672D752FA5019401E9
:101A70000E947C2679018A01C801B701A501940161
:101A80000E943626472D461B0894C108D1084A30CB
:101A900010F4405D01C0495CF6014083E114F1049B
:101AA0000105110521F07E2C5F2DC801DDCFC2019B
:101AB000B6010E94F10CA1960FB6F894DEBF0FBEDE
:101AC000CDBFCF91DF911F910F91FF90EF90DF90ED
:101AD000CF90BF90AF909F908F907F905F904F90EE
:101AE0000895DC012115310541F4ED91FC9101903F
:101AF000F081E02D642F099508950E940D0D089541
:101B0000EF92FF920F931F939A017B0100E010E088
:101B1000B801A7010E94710D1F910F91FF90EF90E6
:101B20000895EF92FF920F931F939A01E62EFF24E0
:101B300000E010E0B801A7010E94710D1F910F9104
:101B4000FF90EF900895CF92DF92EF92FF920F9364
:101B50001F936C01E62E9A01FF2400E010E0B8010B
:101B6000A7010E94710D8C01C6010E94BD0C080FD7
:101B7000191FC8011F910F91FF90EF90DF90CF9038
:101B80000895CF92DF92EF92FF920F931F93CF931E
:101B9000DF93EC016A017B012115310541F4E881F5
:101BA000F9810190F081E02D642F09951FC02A3042
:101BB0003105D1F477FF17C0E881F9810190F081F8
:101BC000E02D6DE209958C0144275527BA014C1987
:101BD0005D096E097F09CE012AE00E940D0D980172
:101BE000280F391F04C02AE00E940D0D9C01C90175
:101BF000DF91CF911F910F91FF90EF90DF90CF90E9
:101C00000895EF92FF920F931F937B019A01002793
:101C1000F7FC0095102FB801A7010E94C10D1F917C
:101C20000F91FF90EF9008950E94F10C08957F921C
:101C30008F929F92AF92BF92CF92DF92EF92FF92DC
:101C40000F931F93CF93DF934C017A018B01722E78
:101C5000CB01BA01A80197010E943226882321F006
:101C6000C40166E171E021C0C0E0D0E05701680125
:101C7000E894D7F8C601B5012FEF3FEF4FE75FE7D4
:101C80000E943226882351F4C601B5012FEF3FEFA1
:101C90004FE75FE70E947C24181614F0C1E0D0E003
:101CA000219739F0C4016AE171E00E94F10CEC0166
:101CB00093C0C801B7012FEF3FEF4FE75FE40E94E9
:101CC000CB25181654F0C801B7012FEF3FEF4FE7AF
:101CD0005FEC0E947C24882324F4C4016EE171E04F
:101CE000E4CFC801B70120E030E040E050E00E94BE
:101CF0007C2487FD03C0C0E0D0E00EC0D401ED918C
:101D0000FC910190F081E02DC4016DE20995EC0198
:101D100017FB109517F9109520E030E040E05FE3E5
:101D2000DD240BC0CA01B90120E030E040E251E4FB
:101D30000E9480249B01AC01D394D71498F3C8016E
:101D4000B7010E9418245B016C010E94ED247B0105
:101D50008C01C401B801A7012AE030E00E94710D96
:101D6000C80FD91F772039F0C40162E271E00E94E8
:101D7000F10CC80FD91FC801B7010E9419259B019A
:101D8000AC01C601B5010E94172424C020E030E058
:101D900040E251E40E94CF257B018C010E94E8249F
:101DA0005B016C01CC24B7FCC094DC2CC401B601EF
:101DB000A5012AE030E00E94C10DC80FD91FC6015D
:101DC000B5010E941B259B01AC01C801B7010E940F
:101DD00017247A947720D1F6CE01DF91CF911F910D
:101DE0000F91FF90EF90DF90CF90BF90AF909F90BA
:101DF0008F907F9008950E94170E0895EF92FF92A2
:101E00000F931F937C010E94170E8C01C7010E9443
:101E1000BD0C080F191FC8011F910F91FF90EF9083
:101E20000895EF92FF920F931F937C010E94F10C93
:101E30008C01C7010E94BD0C080F191FC8011F911A
:101E40000F91FF90EF9008951F93182F6AE070E0B4
:101E500080E090E00E941709112329F480E090E0CF
:101E6000A0E0B0E004C08DE090EFADEABBE080936D
:101E7000000190930101A0930201B093030128E0B7
:101E800088E190E00FB6F894A895809360000FBEAB
:101E900020936000FFCFFC01E053FF4F9081E05D95
:101EA000F040933018F020E030E008C084E4989FC0
:101EB000900111242A5F3F4F2E0F3F1FC901089543
:101EC000FC0187E891E09183808390912B04992312
:101ED00071F080912C04882351F08F3140F4E85246
:101EE000FF4F9083E85DF0408093C10307C0E85244
:101EF000FF4F4083E85DF0406093C10381E082833F
:101F0000838308950895FF920F931F938C01F62EFB
:101F10008FE993E068E271E00E94920C8FE993E010
:101F20006091C1034AE050E00E94910D8FE993E077
:101F30006DE171E00E94920C08521F4F8FE993E00F
:101F4000F80160814AE050E00E94910D8FE993E032
:101F500066E171E00E94920C8FE993E06F2D4AE0F8
:101F600050E00E94910D8091C10363E0F80140812F
:101F70000E945323F2E0FF1621F083E0F81611F5DA
:101F80000FC08FE993E067E071E00E94DD0C87E508
:101F900098E90E947E1F82EB94E90E947E1F16C082
:101FA0008FE993E06EEF70E00E94DD0C81E196EC2A
:101FB0000E947E1F81EC94E90E947E1F80E298E9D6
:101FC0000E947E1F8FE993E00E94BD0C83E00E9477
:101FD0009C0885E060E00E94B5091F910F91FF9079
:101FE0000895AF92BF92CF92DF92EF92FF920F933C
:101FF0001F93DF93CF93CDB7DEB76C01ADB6BEB6FE
:102000008B017B016115710579F08FE993E06DE338
:1020100071E00E94920C8FE993E0F80160814AE040
:1020200050E00E94A30D0DC00F92EDB6FEB60894CD
:10203000E11CF11C81E0EDB7FEB78183B7010E947E
:10204000F81BC601F70160810E94830F0FB6F89458
:10205000BEBE0FBEADBECF91DF911F910F91FF901D
:10206000EF90DF90CF90BF90AF9008950F931F93A4
:102070008C0185E00E949F0806521F4F8C529140B0
:102080009595879595958795F80180831F910F9178
:102090000895EF92FF920F931F93CF93DF93EC017C
:1020A000C053DF4F8881C05DD040882309F47DC0D4
:1020B0001C81CF52DF4F8881C15DD04090E00797EF
:1020C0000CF01F7DBE016A5F7F4F812F4D810E9402
:1020D00097228FE993E066E471E00E94920C812FD1
:1020E00090E030E2E32EF12CE822F92215FD03C046
:1020F00064E271E002C06DE271E08FE993E00E945A
:10210000140E8FE993E066E371E00E94140E8E01D5
:102110000F521F4F8FE993E0F80160814AE050E0D1
:102120000E94910D8FE993E068E371E00E94140E24
:102130008FE993E06E8140E150E00E94910D8FE9BC
:1021400093E06CE371E00E94140E8FE993E06D81DF
:102150004AE050E00E94A30DEF28D9F4C053DF4FAE
:102160008881C05DD040823050F0DE011496FE01BF
:10217000E85BFF4F88E801900D928150E1F7FE0186
:10218000E053FF4F808181508083CF52DF4F188210
:102190000CC0F80180818F5F80830E940909CE52B4
:1021A000DF4F688379838A839B83DF91CF911F916F
:1021B0000F91FF90EF900895EF92FF920F931F936E
:1021C000CF93DF93EC0146EDE42EF12CE80EF91EDF
:1021D000F70180818823A1F10E949720882381F153
:1021E0008E0109521F4FF7018081B80141E00E9422
:1021F0009722F7011082F801108229C0CF52DF4FD9
:102200008881C15DD040882399F00E940909CE528F
:10221000DF4F288139814A815B81C25DD0402C59D2
:102220003F4F4F4F5F4F621773078407950778F052
:102230000E949720882359F0CE010E94491007C0C0
:10224000C053DF4F8881C05DD0408823B9F6DF914D
:10225000CF911F910F91FF90EF900895CF93DF934F
:10226000EC010E949A1F882309F47CC08091CE0360
:102270009091CF03892B09F069C08091D10387FD2C
:102280001DC0CE010E9436108091D10385FF13C07E
:102290009091D1039F718091C103981711F4892FF8
:1022A00002C0892F8064CA52DF4F806888832496D9
:1022B0008881239788838091D30358C08091D1036C
:1022C00085FD50C0CE010E9436102091D10330E030
:1022D0002F7130708091C10390E02817390709F001
:1022E00041C0C053DF4F8881C05DD0408823D1F109
:1022F000CF52DF4F8881C15DD040882399F1809112
:10230000D203813011F080E002C08091D303C75224
:10231000DF4F888329978881C05DD040823050F09C
:10232000DE011496FE01E85BFF4F88E801900D92F4
:102330008150E1F7FE01E053FF4F8081815080839F
:10234000CF52DF4F1882C15DD0400CC08091CE03C8
:102350009091CF03892B31F08FE993E06EE371E028
:102360000E94110FCE010E94DC1080E0DF91CF911E
:102370000895EF92FF920F931F93CF93DF93EC0199
:1023800050EDE52EF12CE80EF91E8C010A521F4F7C
:102390000BC0CE010E942E11882371F461E070E021
:1023A00080E090E00E941709F7018081882389F777
:1023B000F8018081882369F7DF91CF911F910F91F8
:1023C000FF90EF900895CF93DF93EC01DC01A053D1
:1023D000BF4F2C91233058F530E084E490E0289FE3
:1023E000F001299FF00D389FF00D1124EC0FFD1F17
:1023F00065838C9190E0FC0124E0EE0FFF1F2A958D
:10240000E1F7E80FF91F3196EE0FFF1FEE0FFF1FE8
:10241000EC0FFD1F40838C918F5F8C93813039F4DA
:102420000E949720882319F0CE010E944910DF9165
:10243000CF9108959C01411140E28091C103482B46
:10244000C9010E94E3110895FC018281681728F0F8
:1024500070E060E090EC8FE70FC0862F90E0880F6F
:10246000991F880F991F0284F385E02DE80FF91F4B
:102470007081618192818381272F362F492F582FB8
:10248000B901CA010895AF92BF92CF92DF92EF9245
:10249000FF920F931F93DF93CF93CDB7DEB7AA9729
:1024A0000FB6F894DEBF0FBECDBFFC010BA31CA37B
:1024B0002DA33EA34FA358A769A77AA70190F08147
:1024C000E02DDE01559634968EE001900D928150FC
:1024D000E1F78E010B5E1F4FC8010E949E1AC801D2
:1024E000BE016D5D7F4F0E947D1AC8016EEB40E01A
:1024F0000E94381A49E0E42EF12CEC0EFD1E580122
:10250000C701DE2CC92E8E010E5E1F4FC5010E9431
:10251000E719F70181937F01E017F107B9F78D2DD6
:102520009C2D68E00E94A2199989891769F529856F
:10253000222319F48A85882339F18E858F3F21F56E
:102540008889803109F59A8580E0422F50E0482B38
:10255000592BDE011196EBE8F1E088E001900D9235
:102560008150E1F7ED85F0E0E076F07034E0F6952B
:10257000E7953A95E1F7EC0FFD1F21813281209517
:1025800030952423352302C020E030E8C901AA9603
:102590000FB6F894DEBF0FBECDBFCF91DF911F9174
:1025A0000F91FF90EF90DF90CF90BF90AF90089584
:1025B0008F929F92AF92BF92CF92DF92EF92FF9253
:1025C0000F931F93CF93DF93EC01D22EC32EB42E23
:1025D000A52E962E872E0E9443129C0180E8203063
:1025E000380751F5CE012D2D3C2D4B2D5A2D692D3F
:1025F000782D0E9443129C0180E820303807E1F4D6
:10260000CE012D2D3C2D4B2D5A2D692D782D0E945C
:1026100043129C0180E82030380771F4CE012D2D43
:102620003C2D4B2D5A2D692D782D0E9443129C0173
:1026300080E82030380701F185E020353807E1F0E7
:10264000B901882777FD8095982F0E941B2520E0EF
:1026500030E040E85DE30E94CF2526E636E646EE10
:102660005FE30E94CF2520E030E040E052E40E948A
:102670001824E62F692F04C0E0E070E080EC6FE7DB
:102680002E2F372F482F562FB901CA01DF91CF9136
:102690001F910F91FF90EF90DF90CF90BF90AF9080
:1026A0009F908F9008950F931F93DF93CF93CDB793
:1026B000DEB72E970FB6F894DEBF0FBECDBFFC017C
:1026C0000190F081E02DDE01119634968EE00190AC
:1026D0000D928150E1F78E010F5F1F4FC8010E94DC
:1026E0009E1AC8010E94781AC80164E441E00E9461
:1026F000381A2E960FB6F894DEBF0FBECDBFCF911D
:10270000DF911F910F910895DF92EF92FF920F9347
:102710001F93DF93CF93CDB7DEB766970FB6F894CC
:10272000DEBF0FBECDBFFC010F87188B298B3A8B04
:102730004B8B5C8B6D8B7E8BDE2C0190F081E02DC2
:10274000DE01119634968EE001900D928150E1F7F2
:102750008E010F5F1F4FC8010E949E1A6FE0E62E88
:10276000F12CEC0EFD1EC801B7010E947D1AC801B4
:102770006EE440E00E94381AC80160E040E00E9428
:10278000381AC80160E040E00E94381AD294DD0C8B
:1027900050EED522DA94C8016D2D40E00E94381A1F
:1027A000C8010E949E1AC801B7010E947D1AC80183
:1027B00068E441E00E94381A6AE070E080E090E04E
:1027C0000E941709C8010E94871966960FB6F894EF
:1027D000DEBF0FBECDBFCF91DF911F910F91FF9054
:1027E000EF90DF9008952F923F924F925F926F92F9
:1027F0007F928F929F92AF92BF92CF92DF92EF9291
:10280000FF920F931F93CF93DF936C01762E0E965A
:1028100060E67AEE0E942C1F882309F455C0D60189
:1028200051968D919C915297019652969C938E93BE
:102830005197803F910508F447C052961C921E9212
:10284000519760E070E040E050E010E834C0E901EA
:10285000D6015396ED91FC915497E40FF51F9E011C
:1028600021503040DF01AC0FBD1FE20FF31F80810C
:102870008C93D6015596ED91FC915697E40FF51F78
:10288000CE0FDF1FE20FF31F8081888321153105F2
:10289000F1F65396ED91FC915497E40FF51F1083D8
:1028A0005596ED91FC915697E40FF51F10836F5FDD
:1028B0007F4F4A5F5F4FE6018A8190E06817790792
:1028C0001CF4C5E0D0E0C4CF0E9409094B015C01B3
:1028D000F6018581882309F0A7C0772009F481C01B
:1028E00086819781A085B1850097A105B10509F47E
:1028F00078C085017401E81AF90A0A0B1B0B672DD1
:1029000070E080E090E028EE33E040E050E00E948C
:1029100036266E157F058007910708F462C06DC1E9
:10292000CF016F2D0E946516223219F0283209F06E
:102930004EC0D6011396ED91FC911497EF0DF11D49
:102940008081871509F441C07082872D90E09C0139
:10295000220F331F220F331F1A96ED91FC911B9704
:10296000E20FF31F20823182428253828C01000FDA
:10297000111F080F191F000F111F53962D913C9125
:102980005497200F311FC90160E870E046E050E025
:102990000E94AC03E6012D893E89200F311FC90139
:1029A00060E870E046E050E00E94AC0388819981C5
:1029B0006F2D0E946516FC01C60189019A01AB01C9
:1029C000BF01EAE0EE2E0E948413739408C0D60182
:1029D0001396ED91FC911497EF0DF11D6082F39425
:1029E0000EC07724FF240F2EF0E02F2EF0E03F2EB4
:1029F000F0EC4F2EFFE75F2EF02D66246A94E6017F
:102A0000E881F9818389F81608F48ACF772009F4E0
:102A1000F4C0C6010E945313F60186829782A086F5
:102A2000B18681E08583E9C0813009F0E6C0E60126
:102A30008E819F81A885B985881A990AAA0ABB0A3E
:102A4000EDEB8E169104A104B10408F4D6C09924CC
:102A500041E0642E712C0F2EF0E02F2EF0E03F2E7F
:102A6000F0EC4F2EFFE75F2EF02DBBC0E601EB81AF
:102A7000FC81E90DF11DB080EFEFBE1609F4B0C086
:102A8000CD01692D0E946516FC01C60189019A01DC
:102A9000AB01BF010E94D8127B018C01E301092C1C
:102AA00002C0CC0FDD1F0A94E2F7A80197010E9433
:102AB0003226D6011C962D913C911D978823D9F082
:102AC000CE0182239323892B81F08B2D90E0880FF8
:102AD000991F880F991FE601EA85FB85E80FF91F0A
:102AE00020823182428253827BC02C2B3D2BF60107
:102AF0003587248775C0CE0180959095282339238A
:102B0000D6011D963C932E931C97AB2CBB24C5017C
:102B1000880F991F880F991F1A96ED91FC911B97AA
:102B2000E80FF91FE082F18202831383C801B70125
:102B300020E030E040E050E00E94CB2588234CF0BC
:102B4000C801B70120E030E040E05FE30E941824B4
:102B500008C0C801B70120E030E040E05FE30E9418
:102B600017240E94E824162F1855E501CC0FDD1F0D
:102B7000CA0DDB1DCC0FDD1FD6015396ED91FC91E4
:102B80005497EC0FFD1F8581803859F4212F33278E
:102B900027FD3095CF01B90146E050E00E94AC031B
:102BA00006C08081803811F018170CF41083D6010C
:102BB0005596ED91FC915697EC0FFD1F858180385D
:102BC00059F4212F332727FD3095CF01B90146E075
:102BD00050E00E94AC0304C0808181170CF4108384
:102BE0009394E601A881B98153968C9153979816D6
:102BF00008F43CCF1D8281E001C080E0DF91CF91DD
:102C00001F910F91FF90EF90DF90CF90BF90AF900A
:102C10009F908F907F906F905F904F903F902F90FC
:102C200008950F931F93CF93DF93EC018B0179836A
:102C30006883413108F040E14A831D821D861C866D
:102C4000F801828990E061E070E00E9485028B8348
:102C50009C83F80142896FEF70E050E00E94AC0362
:102C60008A8190E064E070E00E9485028A879B87F9
:102C70008A8190E066E070E00E9485028B8B9C8BDD
:102C80002A8116E0219F9001112460E870E0A901DB
:102C90000E94AC038A8190E066E070E00E948502A9
:102CA0008D8B9E8B2A81219F9001112460E870E01A
:102CB000A9010E94AC03DF91CF911F910F9108955C
:102CC000FC01108A0E9411160895FC01838968177F
:102CD00048F020E030E040E050E060E070E080E06C
:102CE00090E00895862F90E033E0880F991F3A9581
:102CF000E1F70488F589E02DE80FF91F2081318183
:102D00004281538164817581868197810895EF9214
:102D1000FF921F93CF93DF93EC017B016115710547
:102D2000B1F1EC89FD8980819181892B9281892B78
:102D30009381892B9481892B9581892B9681892B6D
:102D40009781892B21F510E01FC0A12FB0E0CD01A4
:102D500043E0880F991F4A95E1F7EC89FD89E80F58
:102D6000F91FAA0FBB1FAA0FBB1FAE0DBF1D2D91D0
:102D70003D914D915C912083318342835383148232
:102D80001582168217821F5F8A891817F0F2DF9169
:102D9000CF911F91FF90EF9008950895CF92DF9209
:102DA000EF92FF920F931F93DF93CF93CDB7DEB7D0
:102DB00028970FB6F894DEBF0FBECDBF6B01E98236
:102DC000FA820B831C832D833E834F835887CB016C
:102DD0006BE471E00E94140E8E010F5F1F4F65E0DF
:102DE000E62EF12CEC0EFD1EF801608170E054E03F
:102DF000759567955A95E1F7C60140E150E00E944C
:102E0000010EF80161918F0170E06F707070C60162
:102E100040E150E00E94010E0E151F0529F728968B
:102E20000FB6F894DEBF0FBECDBFCF91DF911F91DB
:102E30000F91FF90EF90DF90CF9008952F923F92E7
:102E40004F925F926F927F928F929F92AF92BF92BA
:102E5000CF92DF92EF92FF920F931F93DF93CF9366
:102E6000CDB7DEB767970FB6F894DEBF0FBECDBF04
:102E70003C012B010DB71EB71F8B0E8B9C012C5FE5
:102E80003F4F3D872C87C9010E9495191B861A86E2
:102E9000222433241986AAC0CE01019667E00E943D
:102EA000A21989809A80AB80BC80CD80DE80EF80C3
:102EB000F88410E020E030E040E050E060E070E0B6
:102EC0008E871F87288B398B4A8B5B8B6C8B7D8B16
:102ED0009401A501B601C70108E30E9406021E8500
:102EE000121709F083C02F85231709F07FC0388996
:102EF000341709F07BC04989451709F077C05A8912
:102F0000561709F073C06B89671709F06FC07C8989
:102F1000781709F06BC08D89891709F067C0D30154
:102F200052965C9140E020E030E029C0D3015496F5
:102F3000ED91FC915597E20FF31F285F3F4F808181
:102F40009181A281B38188159905AA05BB05B1F4C9
:102F500080829182A282B382C482D582E682F78285
:102F600081E090E002C0880F991F4A95E2F7EA8558
:102F7000FB85E82BF92BFB87EA8735C04F5F4517A8
:102F8000A8F240E020E030E02CC0D3015496ED914F
:102F9000FC915597E20FF31F285F3F4F808191818D
:102FA000892B9281892B9381892B9481892B9581FF
:102FB000892B9681892B9781892B91F4808291822C
:102FC000A282B382C482D582E682F78281E090E059
:102FD00002C0880F991F4A95E2F7282A392A03C0B0
:102FE0004F5F451790F2B985BF5FB9878C859D8586
:102FF000BE016F5F7F4F0E94E91A882309F04CCF12
:103000008C859D850E949519F3018289838B41E00F
:1030100050E004C02150D30153962C93F30123892F
:103020002223F1F0CA01821B910933E0880F991F16
:103030003A95E1F70488F589E02DE81BF90B8081CA
:103040009181892B9281892B9381892B9481892B62
:103050009581892B9681892B9781892BD9F21FC164
:1030600021143104B9F1C20167E971E00E94920CA8
:10307000DD2429C0C1010D2C02C0969587950A94C4
:10308000E2F780FF1FC0C20165E571E00E94140EE7
:103090008D2D90E023E0880F991F2A95E1F7D30149
:1030A0005496ED91FC915597E80FF91FE080F1805F
:1030B000028113812481358146815781C301B20188
:1030C0000E94CE16D394F3018289D81698F2C201D9
:1030D0000E94BD0CCA84DB84C228D328C094D0943B
:1030E00081E090E0D30153960C9002C0880F991FA5
:1030F0000A94E2F70197C822D922C114D10409F435
:103100004FC0C20162E871E00E94920CBB2440C033
:10311000C6010B2C02C0969587950A94E2F780FFB2
:1031200036C00B2D10E083E0000F111F8A95E1F7E8
:10313000D3015496ED91FC915597E00FF11F8081DA
:103140009181892B9281892B9381892B9481892B61
:103150009581892B9681892B9781892BC1F0C2019A
:1031600065E571E00E94140ED3015496ED91FC9137
:103170005597E00FF11FE080F180028113812481D7
:10318000358146815781C301B2010E94CE16B394A6
:10319000F3018389B81608F4BBCFC2010E94BD0CAD
:1031A000EA85FB85D3015896FC93EE935797C201AD
:1031B00067E771E00E94920CC20169854AE050E025
:1031C0000E94910DC20162E771E00E94920CC2015F
:1031D000D30153966C914AE050E00E94910DC201D8
:1031E00069E671E00E94DD0CF301828990E0880FAE
:1031F000991F880F991F0DB71EB7081B190B0FB623
:10320000F8941EBF0FBE0DBF6DB77EB76F5F7F4FC7
:1032100040E01CC0842F90E0880F991F880F991FF1
:103220009B01280F391F880F991FD3015496ED91E8
:10323000FC915597E80FF91F80819181A281B3819C
:10324000F90180839183A283B3834F5FD3015296A8
:103250008C914817F8F286E00E94F81B8985EE8968
:10326000FF890FB6F894FEBF0FBEEDBF67960FB68D
:10327000F894DEBF0FBECDBFCF91DF911F910F91AC
:10328000FF90EF90DF90CF90BF90AF909F908F9086
:103290007F906F905F904F903F902F9008952A8578
:1032A0003B8522293329D30157968D919C915897BC
:1032B0002817390709F0D4CE73CF1F93CF93DF932C
:1032C000EC01142F87E991E099838883CE0104965D
:1032D0000E947F1B113108F010E11A8B1B8A188E97
:1032E0001F8A86E08A83812F90E0880F991F880FBC
:1032F000991F8B83812F90E068E070E00E94850227
:103300008C8B9D8B1E8ADF91CF911F910895FC01BC
:10331000F894A181B28111969C911197808180953A
:10332000982311969C9378940895FC011386158632
:10333000148687E090E012863197009711F001978C
:10334000FACF0895DC0180E00BC0E82FF0E08D910A
:1033500090E0E827F927E455FE4FE49161508E2F65
:10336000662399F70895DF92EF92FF920F931F93D0
:10337000FC01E08001811281F894F8018281DE2C49
:10338000D0948D21828381818E29818383E090E096
:103390000E947009F80181818D2181838AE090E08B
:1033A0000E947009F8010081789485E390E00E9402
:1033B000700980E010E0FF240E211F21012B09F08D
:1033C00081E01F910F91FF90EF90DF900895EF92B1
:1033D000FF920F931F93CF93DF937C0101E010E0E6
:1033E000C0E0D0E0C7010E94B3198111102B000F7B
:1033F0002196C830D105B1F7812FDF91CF911F9170
:103400000F91FF90EF9008951F93CF93DF93FC01EE
:103410001081C181D281912F909560FF12C0F894E4
:103420008A8189238A838981812B89838AE090E03C
:103430000E9470098A81812B8A83789487E390E0C7
:1034400011C0F8948A8189238A838981812B898399
:1034500081E490E00E9470098A81812B8A837894AC
:1034600085E090E00E947009DF91CF911F9108954F
:10347000CF92DF92EF92FF920F931F93CF93DF9340
:103480008C01E42EFF24F394C0E0D0E0C62EDD24AE
:1034900060E08F2D90E08C219D21892B09F061E067
:1034A000C8010E94041AFF0C2196C830D10581F78B
:1034B000EE20A9F4F894D8011196ED91FC911297A1
:1034C00091818C918095982391831196ED91FC9137
:1034D000129792818C918095982392837894DF91B2
:1034E000CF911F910F91FF90EF90DF90CF900895B3
:1034F0006CEC40E00E94381A0895EF92FF920F930F
:103500001F93CF93DF938C017B0165E540E00E9420
:10351000381AC0E0D0E0F701EC0FFD1FC801608150
:1035200040E00E94381A2196C830D105A1F7DF91FA
:10353000CF911F910F91FF90EF900895DF92EF923E
:10354000FF920F931F93CF93DF93FC010081C18102
:10355000D281F8948981D02ED0948D21898378945A
:103560001DE7E02EFF24115059F182E090E00E9407
:103570007009888190E08E219F21892BA1F3F89416
:103580008A818D218A838981802B8983789484EF35
:1035900091E00E947009F89489818D21898380E5EA
:1035A00090E00E947009888110E090E0E822F92202
:1035B000EF2809F411E0789484EA91E00E94700900
:1035C000812FDF91CF911F910F91FF90EF90DF90AE
:1035D0000895AF92BF92DF92EF92FF920F931F93E5
:1035E000CF93DF93EC015B018D85882309F061C0E7
:1035F000CE010E949E1A882329F41B861D861C86F4
:1036000090E06BC0CE0160EF40E00E94381A01E00C
:10361000DD24EE24FF24F394CE010E94B319182F69
:10362000CE010E94B319113019F48130E1F439C090
:10363000181709F58B85081770F460E0FE01EE0D90
:10364000F11D838190E02F2D30E082239323181603
:1036500019064CF003C060E0081729F0093008F0A3
:103660004CC00C874AC0FE01EE0DF11D83818F29ED
:10367000838361E009C0612FFE01EE0DF11D9F2DD6
:103680009095838189238383CE010E94041A0F5F62
:10369000FF0C19F4E394FF24F39487E08E1508F0EF
:1036A000BBCF013430F0DB86DD2011F581E08D8762
:1036B0001FC01B861D861C8690E0DE0120E030E0E6
:1036C000F501E20FF31F13968C91139780832F5F00
:1036D0003F4F11962830310599F7892FDF91CF910F
:1036E0001F910F91FF90EF90DF90BF90AF900895E2
:1036F0008B818823F1F291E0E0CFD02EBDCFFF92F5
:103700000F931F938C01F62E862F60E00E94B5095F
:103710008F2D90E0FC01EA52FF4FE491D801EC9329
:103720008E539F4FFC016491E62FF0E0EE0FFF1FD8
:10373000E854FF4F8591949112969C938E93119724
:103740001B961C921B971D961C921D971C961C92F3
:10375000F80187E090E012863197009711F0019709
:10376000FACF1F910F91FF9008959C01F999FECF18
:1037700032BD21BDF89A80B508959C01F999FECF1C
:103780001FBA32BD21BD60BD0FB6F894FA9AF99AFE
:103790000FBE0895CF93DF93EC01462F009721F4DD
:1037A0004091D203C3EDD3E04423F9F03881209156
:1037B000C403E091C203F091C30390E014C0A1914F
:1037C000B19112968C911297831761F4ED91FC914F
:1037D0001197219641500280F381E02DCD01BE0169
:1037E000099503C09F5F921750F3DF91CF91089521
:1037F0001F93182F5091C403A091C203B091C3032B
:1038000020E230E090E047C0ED91FD91828143815C
:10381000811709F03DC0C90150E02DEB3BE10E944A
:10382000CF034091C5035091C603FA01329720E0BF
:1038300030E06FEF7FEF21C0F999FECF205E3F4F60
:1038400032BD21BDF89A80B56827862F82958627DC
:10385000082E869586958025082E8695802587706A
:10386000062E672F869507948795702D68270694F6
:103870008795702568272F5130402E173F0708F491
:10388000DBCFCA014E964DEB5BE10E94EB0319C002
:10389000240F311D9F5F951708F4B6CF8FE993E091
:1038A00061EF72E00E94920C8FE993E0612F4AE091
:1038B00050E00E94910D8FE993E066ED72E00E9466
:1038C000DD0C1F9108958F929F92AF92BF92DF926D
:1038D000EF92FF920F931F93DF93CF93CDB7DEB795
:1038E000C054D0400FB6F894DEBF0FBECDBF5C0110
:1038F00020E0322F3F5FE22FF0E0EE0FFF1FEA0DD6
:10390000FB1D80819181892B11F0232FF2CF209311
:10391000C403B092C303A092C2038FE993E063E7AC
:1039200073E00E94920C8FE993E06091C4034AE037
:1039300050E00E94910D8FE993E069E673E00E94E8
:10394000920C1092C6031092C503EE244EC00E2DA9
:1039500010E0F801EE0FFF1FEA0DFB1D0190F08152
:10396000E02DF38080E48F15A8F58FE993E00E94A5
:10397000BD0C8FE993E069E473E00E94920C0F5F45
:103980001F4F8FE993E0B8014AE050E00E94010E1A
:103990008FE993E069E373E00E94920C8FE993E072
:1039A0006F2D4AE050E00E94910D8FE993E063E3B0
:1039B00073E00E94920C8FE993E060E470E04AE0CB
:1039C00050E00E94010E8FE993E06DE273E00E94E7
:1039D000DD0C0AC08091C5039091C6038F0D911D27
:1039E0009093C6038093C503E3948091C403E816C3
:1039F00008F4ADCF6091C5037091C6036E5F7F4F31
:103A00007093C6036093C5038FE993E04AE050E0EA
:103A10000E94800D8FE993E066E273E00E94DD0C66
:103A20006091C5037091C60320E030E04FEF5FEF77
:103A300021C0F999FECF205E3F4F32BD21BDF89ADB
:103A400080B54827842F82958427082E86958695F1
:103A50008025082E869580258770042E452F869513
:103A600007948795502D4827069487955025482719
:103A70002F5130402617370708F4DBCF452B01F1D3
:103A80008FE993E060E173E00E94DD0C10E013C069
:103A9000E12FF0E0EE0FFF1FEA0DFB1DA081B181C9
:103AA000ED91FC9111970190F081E02DCD0160E046
:103AB00070E009951F5F8091C403181748F337C061
:103AC0008FE993E061E073E00E94DD0C90E2E92E63
:103AD000F12CDD244E010894811C911C24C00D2D75
:103AE00010E0000F111F0A0D1B1DD801ED91FC9174
:103AF0004381C401B70150E025EB3BE10E94B303D1
:103B0000F801A081B181ED91FC9111970190F081B4
:103B1000E02DCD01B4010995D801ED91FC9183818F
:103B2000E80EF11CD3948091C403D816C0F2C05C97
:103B3000DF4F0FB6F894DEBF0FBECDBFCF91DF9140
:103B40001F910F91FF90EF90DF90BF90AF909F90EB
:103B50008F90089508950895FC01E45BFF4F108253
:103B6000EC54F04082E0868381E0878380E08160CE
:103B7000808708950F931F938C01FC01138212829A
:103B80008FE991E0918380830C9695838483C801AB
:103B90000E94AC1DF8018185887F856081871F9117
:103BA0000F91089504970E94D61D0895CF93DF9337
:103BB000EC01FB01BC01685F7F4F309719F08081F9
:103BC000888705C08985888782E00E94F81B8FE975
:103BD00093E068E973E00E94920C888580FF06C03C
:103BE0008FE993E060E973E00E94920C888581FF81
:103BF00006C08FE993E06BE873E00E94920C888521
:103C000082FF06C08FE993E065E873E00E94920CA2
:103C10008885882331F48FE993E06CE773E00E9494
:103C2000920C8FE993E00E94BD0CDF91CF91089533
:103C3000EF92FF920F931F93CF93DF9383EE91E068
:103C40000E944B0FEC010097D1F40E9409097B01FF
:103C50008C010E9409096E197F09800B910B643653
:103C600071058105910558F483EE91E00E942E11B3
:103C700083EE91E00E944B0F009759F3EC01CE01C7
:103C8000DF91CF911F910F91FF90EF900895EF92E8
:103C9000FF920F931F93CF93DF93EC018C01045B92
:103CA0001F4FD8018C91FE01E80FF11D1286888507
:103CB00080FF16C0BE01665F7F4F8FE993E00E94D0
:103CC000140EF8018081882359F0FE01E80FF11DE0
:103CD00081858A3029F48FE993E06DE00E94B50C6C
:103CE000888582FF6FC08E01035B1F4FD8018C91C6
:103CF0008823E9F1CE010E94181E009789F19C01EA
:103D000082E0F90181939F0100D000D000D0ADB7CF
:103D1000BEB71196EDB7FEB73283218387E591E0F8
:103D200013969C938E931297F801808114968C932E
:103D3000149715961C920E9400042DB73EB72A5F77
:103D40003F4F0FB6F8943EBF0FBE2DBF682F6F5F79
:103D500083EE91E041E00E941A12D8011C9207C044
:103D6000F80180818F3F89F18F5F80832EC0CE0163
:103D70000E94181E2DE4E22EF12CEC0EFD1E009781
:103D8000D9F0FC0182E081938E01045B1F4FD801C2
:103D90004C919E01265F3F4FCF01B90150E00E9438
:103DA000A303F80160816F5F83EE91E041E00E9420
:103DB0001A12D7011C9206C0F70180818F3F11F0C3
:103DC0008F5F8083C45BDF4F1882DF91CF911F919B
:103DD0000F91FF90EF9008951F93CF93DF93EC0125
:103DE000162FC45BDF4F8881CC54D040813418F04B
:103DF000CE010E94471EDE01A45BBF4F8C91FE01E5
:103E0000E80FF11D12878F5F8C931A3019F4CE01E1
:103E10000E94471E81E090E0DF91CF911F910895AD
:103E20000F931F93CF93DF938C01EB0180E061151B
:103E3000710509F081E0F8018283882341F00E9436
:103E400009092197C60FD71FF801D183C083DF91DD
:103E5000CF911F910F910895EF92FF920F931F93AF
:103E6000CF93DF93EC017B018A81882311F400E07A
:103E70000FC0088119810E940909C801861B970B90
:103E80002AEE8136920710F400E006C0082F019553
:103E9000CE01B7010E94101F802FDF91CF911F919B
:103EA0000F91FF90EF900895782FE89865B121E089
:103EB00030E040E050E00090720104C0220F331F58
:103EC000441F551F0A94D2F7322F822F80958623E4
:103ED00085B99EBD0DB407FEFDCF4EB57EBD0DB4B8
:103EE00007FEFDCF2EB5942F80E045B1342B35B9B8
:103EF000E89A30E0282B392BC90108950E94541FFD
:103F000008958091C7039091C8038F709093C80360
:103F10008093C7038091C7039091C80388609093F2
:103F2000C8038093C7038091C7039091C8030E9480
:103F3000541F089580911E04873009F059C0909154
:103F40002204992399F080912104891728F4809103
:103F50002104873408F44CC084E080931E0481E07F
:103F600090E09093CF038093CE039AC08091D203C8
:103F70002091210490E0049630E08217930724F00A
:103F8000809121048734A0F184E080931E04809105
:103F9000D203833430F081E090E09093CF0380939C
:103FA000CE038091D10386FF12C080911D04282F7B
:103FB00030E0C9018F7190704F9749F08091D10323
:103FC00090E0822793278F719070892B89F48091DC
:103FD000CE039091CF03892B09F056C0E0911B04CA
:103FE000F0911C04309709F44FC080E0099558C047
:103FF00080911E04843011F080E008951092D20365
:104000008091D203809321048FEF9FEF9093CF0391
:104010008093CE0320911F042223D9F08227282FDA
:1040200022952827022E269526952025022E2695B4
:1040300020252770082E892F269507942795902DE7
:10404000822706942795902582279093CF0380930B
:10405000CE0387E080931E0481E08093CC0383EA43
:1040600094E90E94541F8091C7039091C803886D02
:104070009093C8038093C7038091C7039091C803AE
:104080000E94541F80E008958FEF9FEFAFEFBFEFC6
:104090008093170490931804A0931904B0931A0402
:1040A00081E008950F931F93082F10E0C801966CCC
:1040B0000E94541F98012F7730702F5F3F4F442785
:1040C00037FD4095542F6BEF72E485E090E00E943D
:1040D0007C26CA01B901000F012F001F110B9801A6
:1040E00043E0220F331F4A95E1F7201B310B2F5F6E
:1040F0003F4F442737FD4095542F0E947C2693E084
:1041000056954795379527959A95D1F72D573C4F5A
:104110004F4F5F4FCA01B90124E833E040E050E05F
:104120000E947C262093CD031F910F9108958091CA
:104130001E04843069F080911E04873059F4809108
:104140002104882339F40E94811F84E080931E0497
:1041500081E0089580E00895982F86FD05C0907E47
:1041600080911D048F71980F9093D103E0911B04EF
:10417000F0911C04309711F081E009958FEF9FEFCB
:104180009093CF038093CE038091CE039091CF0381
:1041900020911F048227282F22952827022E26955A
:1041A00026952025022E269520252770082E892F5A
:1041B000269507942795902D82270694279590257C
:1041C00082279093CF038093CE0388E080931E04D0
:1041D0008091C7039091C80388639093C80380932C
:1041E000C7038091C7039091C8030E94541F08958C
:1041F000DF92EF92FF920F931F937B018C01DD24DE
:1042000005C0D39416950795F794E7948FEFE816B9
:10421000F1040105110509F0A0F78091C703909101
:10422000C80381FF0FC08091C7039091C8038D7FA1
:104230009093C8038093C7038091C7039091C803EC
:104240000E94541FE114F10401051105B9F0C701E2
:10425000906E3D2D20E0822B932B0E94541F809165
:10426000C7039091C80382609093C8038093C703EB
:104270008091C7039091C8030E94541F1F910F9112
:10428000FF90EF90DF900895E89885B121E030E04D
:1042900040E050E00090720104C0220F331F441F21
:1042A000551F0A94D2F7322F922F9095982395B9E3
:1042B0001EBC0DB407FEFDCF6EB51EBC0DB407FECF
:1042C000FDCF2EB5962F80E0622F70E0682B792B02
:1042D00077FF0FC080911E04873059F48CB5816040
:1042E0008CBD1EBC0DB407FEFDCF2EB58CB58E7FE8
:1042F0008CBD85B1382B35B9E89A7093CA036093A9
:10430000C9038091C9039091CA0397FFECC08091C3
:104310001E04873009F082C080912104882371F443
:1043200090911F04992351F080912104E82FF0E02F
:10433000E053FC4F90838F5F809321048091210490
:10434000E82FF0E0E053FC4F20838F5F809321043F
:104350008091CE039091CF038227282F2295282782
:10436000022E269526952025022E2695202527709B
:10437000082E892F269507942795902D822706943D
:104380002795902582279093CF038093CE03209189
:10439000CC03233040F58091210490E06091CD035F
:1043A000029770E00E946926892BE9F48091C90385
:1043B0009091CA03E22FF0E090FF04C0E155FE4F58
:1043C000808104C0E155FE4F808182958F7080937B
:1043D000CC03833040F490E0880F991F0196806AE7
:1043E00094690E94541F90912204992329F080918E
:1043F0002104891780F40AC08091D20320912104FE
:1044000090E0049630E0821793072CF0809121040D
:10441000873408F468C00E94811F65C080911E0423
:1044200087FF2EC0E091D20380911E048F5F80939E
:104430001E048150ED5FE80FF0E0E053FC4FE08197
:104440008091CE039091CF038E27282F2295282785
:10445000022E269526952025022E269520252770AA
:10446000082E892F269507942795902D822706944C
:104470002795902582279093CF038093CE032EC05B
:1044800080911E048F5F80931E048150833019F148
:1044900084302CF4882399F08130F9F416C08B30E5
:1044A00019F08C30D1F402C0EDE218C0E0911F0485
:1044B0009091D2038EEF891B80931E040FC08091D0
:1044C000CE039091CF03E82F09C08091CE03909145
:1044D000CF03E92F03C00E94811FEAEA8E2F90E0EC
:1044E000986B0E94541F8091C9039091CA0396FF54
:1044F00003C086E080931E048091C9039091CA0393
:1045000094FF09C060E070E080E090E00E94F82035
:1045100081E08093CB038091C9039091CA0395FFFA
:1045200005C00E94811F84E080931E0408951F939C
:10453000182F4093D20323ED33E0C90150E00E94CD
:10454000A303812F0E94AC201F91089580911D0428
:1045500090E08F719070892B41F080E064E471E20B
:1045600040E050E00E948723089580E00E94AA2343
:1045700008951F9380931D0440931F0460932004AB
:104580000E94A62210922204E89885E092E8909377
:10459000C8038093C7038091C7039091C8030E940A
:1045A000541F8091200490E074E0880F991F7A9541
:1045B000E1F7876C90680E94541F80E496EA0E949D
:1045C000541F86E00E94522082EA94E90E94541F00
:1045D0008CEA92EC0E94541F10911F04112341F0A9
:1045E00083E89AEC0E94541F812F90E09E6C06C0D5
:1045F0008BE89AEC0E94541F8DE29EEC0E94541F9F
:1046000083E894EC0E94541F80E598E90E94541FAF
:1046100087E79CEC0E94541F80E090EE0E94541F9C
:1046200080E098EC0E94541F89E490EC0E94541F93
:1046300084E080931E04E89A1F91089525B181E0DB
:1046400090E0A0E0B0E00090720104C0880F991FD4
:10465000AA1FBB1F0A94D2F7282B25B924B1822B9D
:1046600084B98AE061E00E94F4098AE061E00E9476
:10467000B5098BE061E00E94B5098CE060E00E9422
:10468000B5098DE061E00E94B50980E58CBD8DB56E
:1046900081608DBD82E060E00E94B50982E061E04A
:1046A0000E94F4090895FF920F931F93182F062F6D
:1046B000F42E80931D0440931F04609320040E94F5
:1046C0001E230E94A62282E89AEC0E94541F80E0DA
:1046D0009EEF0E94541F85E080931E0483B7817F64
:1046E00006C083B7816083BF889583B78E7F83BF01
:1046F00080911E048530A9F3812F602F4F2D0E94D9
:10470000B92280911D041F910F91FF90089582306E
:1047100000F5E82FF0E0EE0FFF1FED5DFB4F71831A
:104720006083882319F08130A1F408C0809169006A
:104730008C7F842B80936900E89A089580916900AA
:10474000440F551F440F551F837F842B80936900AE
:10475000E99A0895823080F4882319F0813021F499
:1047600002C0E89801C0E998E82FF0E0EE0FFF1FC3
:10477000ED5DFB4F1182108208951F920F920FB6CC
:104780000F9211242F933F934F935F936F937F93D7
:104790008F939F93AF93BF93EF93FF9380912304E5
:1047A00090912404892B29F0E0912304F0912404B2
:1047B0000995FF91EF91BF91AF919F918F917F915B
:1047C0006F915F914F913F912F910F900FBE0F907E
:1047D0001F9018951F920F920FB60F9211242F93CE
:1047E0003F934F935F936F937F938F939F93AF9379
:1047F000BF93EF93FF938091250490912604892B1A
:1048000029F0E0912504F09126040995FF91EF919C
:10481000BF91AF919F918F917F916F915F914F91D8
:104820003F912F910F900FBE0F901F9018955058E9
:10483000BB27AA270ED075C166D130F06BD120F00E
:1048400031F49F3F11F41EF45BC10EF4E095E7FBD9
:1048500051C1E92F77D180F3BA1762077307840734
:10486000950718F071F49EF58FC10EF4E0950B2EAC
:10487000BA2FA02D0B01B90190010C01CA01A001B2
:104880001124FF27591B99F0593F50F4503E68F10D
:104890001A16F040A22F232F342F4427585FF3CF4E
:1048A000469537952795A795F0405395C9F77EF41F
:1048B0001F16BA0B620B730B840BBAF09150A1F068
:1048C000FF0FBB1F661F771F881FC2F70EC0BA0FEE
:1048D000621F731F841F48F4879577956795B79576
:1048E000F7959E3F08F0B3CF9395880F08F099276E
:1048F000EE0F979587950895D9D008F481E0089533
:104900000CD00FC107D140F0FED030F021F45F3F52
:1049100019F0F0C0511139C1F3C014D198F39923A3
:10492000C9F35523B1F3951B550BBB27AA27621773
:104930007307840738F09F5F5F4F220F331F441FB8
:10494000AA1FA9F333D00E2E3AF0E0E830D09150F0
:104950005040E695001CCAF729D0FE2F27D0660FDD
:10496000771F881FBB1F261737074807AB07B0E81C
:1049700009F0BB0B802DBF01FF2793585F4F2AF032
:104980009E3F510568F0B6C000C15F3FECF3983E12
:10499000DCF3869577956795B795F7959F5FC9F78F
:1049A000880F911D9695879597F90895E1E0660F18
:1049B000771F881FBB1F621773078407BA0720F091
:1049C000621B730B840BBA0BEE1F88F7E0950895FA
:1049D00004D06894B111D9C00895BCD088F09F5715
:1049E00090F0B92F9927B751A0F0D1F0660F771F3B
:1049F000881F991F1AF0BA95C9F712C0B13081F01B
:104A0000C3D0B1E00895C0C0672F782F8827B85F62
:104A100039F0B93FCCF3869577956795B395D9F77B
:104A20003EF490958095709561957F4F8F4F9F4F85
:104A30000895E89409C097FB3EF490958095709591
:104A400061957F4F8F4F9F4F9923A9F0F92F96E9DA
:104A5000BB279395F695879577956795B795F1114F
:104A6000F8CFFAF4BB0F11F460FF1BC06F5F7F4FEC
:104A70008F4F9F4F16C0882311F096E911C07723FE
:104A800021F09EE8872F762F05C0662371F096E807
:104A9000862F70E060E02AF09A95660F771F881FD6
:104AA000DAF7880F9695879597F90895990F00087A
:104AB000550FAA0BE0E8FEEF16161706E807F907F0
:104AC000C0F012161306E407F50798F0621B730B8B
:104AD000840B950B39F40A2661F0232B242B252B0C
:104AE00021F408950A2609F4A140A6958FEF811DAF
:104AF000811D089597F99F6780E870E060E0089550
:104B00009FEF80EC089500240A94161617061806E5
:104B10000906089500240A941216130614060506C1
:104B20000895092E0394000C11F4882352F0BB0F52
:104B300040F4BF2B11F460FF04C06F5F7F4F8F4FB5
:104B40009F4F089557FD9058440F551F59F05F3FF0
:104B500071F04795880F97FB991F61F09F3F79F09F
:104B600087950895121613061406551FF2CF469521
:104B7000F1DF08C0161617061806991FF1CF8695A3
:104B80007105610508940895E894BB276627772787
:104B9000CB0197F908958ADF08F48FEF08950BD0C1
:104BA000C0CFB1DF28F0B6DF18F0952309F0A2CF0F
:104BB000A7CF1124EACFC6DFA0F3959FD1F3950FBD
:104BC00050E0551F629FF001729FBB27F00DB11D91
:104BD000639FAA27F00DB11DAA1F649F6627B00D21
:104BE000A11D661F829F2227B00DA11D621F739F0A
:104BF000B00DA11D621F839FA00D611D221F749F18
:104C00003327A00D611D231F849F600D211D822F5E
:104C1000762F6A2F11249F5750408AF0E1F08823A5
:104C20004AF0EE0FFF1FBB1F661F771F881F9150B2
:104C30005040A9F79E3F510570F05CCFA6CF5F3F73
:104C4000ECF3983EDCF3869577956795B795F795E5
:104C5000E7959F5FC1F7FE2B880F911D969587956D
:104C600097F9089523DF880B990B0895629FD0016F
:104C7000739FF001829FE00DF11D649FE00DF11D17
:104C8000929FF00D839FF00D749FF00D659FF00DC6
:104C90009927729FB00DE11DF91F639FB00DE11DB3
:104CA000F91FBD01CF0111240895AA1BBB1B51E1BF
:104CB00007C0AA1FBB1FA617B70710F0A61BB70B8C
:104CC000881F991F5A95A9F780959095BC01CD0131
:104CD000089597FB092E07260AD077FD04D0E5DF5B
:104CE00006D000201AF4709561957F4F0895F6F76D
:104CF000909581959F4F0895A1E21A2EAA1BBB1B88
:104D0000FD010DC0AA1FBB1FEE1FFF1FA217B30797
:104D1000E407F50720F0A21BB30BE40BF50B661FAD
:104D2000771F881F991F1A9469F760957095809571
:104D300090959B01AC01BD01CF010895EE0FFF1FBF
:104D40000590F491E02D09942F923F924F925F923B
:104D50006F927F928F929F92AF92BF92CF92DF928B
:104D6000EF92FF920F931F93CF93DF93CDB7DEB7F0
:104D7000CA1BDB0B0FB6F894DEBF0FBECDBF099484
:104D80002A88398848885F846E847D848C849B84DB
:104D9000AA84B984C884DF80EE80FD800C811B81E9
:104DA000AA81B981CE0FD11D0FB6F894DEBF0FBE18
:0A4DB000CDBFED010895F894FFCF88
:104DBA005761746572202300203D20005600546517
:104DCA006D7020003D006E616E00696E66006F7640
:104DDA0066002E00206E6F2D41434B200020207765
:104DEA002F41434B20002300203078003A005246DE
:104DFA00313220626164204352430030780020201F
:104E0A0023003A200020004D6973736564202564ED
:104E1A000020002D040000BE02E3010000B20100E0
:104E2A0000010200000000C30B680C590B8A0B6AD0
:104E3A000BB30B00000000F10F820F070003000103
:104E4A00000000000000008716CD1600000000ECEC
:104E5A001E680CD61DAB1DFCFF0000D21DAA1D3416
:024E6A000256EE
:00000001FF
