:100000000C944A010C947C1B0C94A91B0C94720157
:100010000C9472010C9472010C9472010C94720194
:100020000C9472010C9472010C9472010C94720184
:100030000C9472010C9472010C9472010C94720174
:100040000C9415070C9472010C9493080C94E1081D
:100050000C9472010C9472010C9472010C94720154
:100060000C9472010C94720143616E6E6F74207374
:10007000656E642074696D652075706461746500D7
:1000800053656E742074696D652075706461746564
:1000900000206C656E3D005246313220524356209E
:1000A0007061636B65743A206864723D3078004912
:1000B000503A2000455448206C696E6B3A0042610A
:1000C00073656D656E74204757002A2A2A2A2A20F4
:1000D00052554E4E494E473A20726631322D756464
:1000E000702D67772E696E6F004661696C656420BC
:1000F000746F206163636573732045746865726E05
:10010000657420636F6E74726F6C6C65720052461A
:1001100031323A2062002A2A2A2A2A20534554558D
:10012000503A20726631322D7564702D67772E69D2
:100130006E6F0020286D792067726F75702069736B
:10014000203078005544503A2043616E6E6F742021
:10015000666F7277617264206D6573736167652085
:10016000666F722067726F75702030780000000033
:1001700000240027002A0000000000250028002B92
:1001800000000000002300260029000404040404E9
:100190000404040202020202020303030303030134
:1001A000020408102040800102040810200102040B
:1001B00008102000000007000201000003040600F0
:1001C00000000000000000000108000604000145D6
:1001D0000000820000400020504F5354202446204D
:1001E000485454502F312E300D0A486F73743A2002
:1001F00024460D0A244624534163636570743A20F3
:100200002A2F2A0D0A436F6E74656E742D4C656E2D
:100210006774683A2024440D0A436F6E74656E74E7
:100220002D547970653A206170706C6963617469EE
:100230006F6E2F782D7777772D666F726D2D7572B3
:100240006C656E636F6465640D0A0D0A2453004784
:100250004554202446245320485454502F312E30E6
:100260000D0A486F73743A2024460D0A24460D0A7D
:100270000D0A004163636570743A20746578742FC9
:1002800068746D6C00E30004FA00010000000100D6
:10029000C5014D0A11241FBECFEFD8E0DEBFCDBF90
:1002A00011E0A0E0B1E0E4E1FDE302C005900D92B1
:1002B000AA3CB107D9F716E0AAECB1E001C01D9243
:1002C000AD36B107E1F712E0C4E9D2E004C02297ED
:1002D000FE010E94841EC039D107C9F70E94A30AFB
:1002E0000C94881E0C940000FB01DC0102C00590F8
:1002F0000D9241505040D8F70895FB01DC0104C035
:100300008D910190801921F441505040C8F7881B0D
:10031000990B0895FB01DC0102C001900D92415040
:100320005040D8F70895282F442321F08091EF0101
:10033000841749F58091F001882329F58091F10116
:10034000883309F58091ED018B37E9F4E22FF92F1D
:1003500080911C02838380911D02828380911E0202
:10036000818380911F028083FB018091200283831F
:1003700080912102828380912202818380912302D5
:10038000808381E0089580E0089510924A041092DD
:100390004D04109250041092530484E0809354044E
:1003A00083E0809355041092C1031092C00388E942
:1003B00091E09093BF038093BE030895EF92FF9264
:1003C0000F931F93F62EE72E042F8FE097E26FE531
:1003D00071E04FE057E20E94E00F89E08093F40162
:1003E00084ED8093F5018FE18093F60127EF31E0F2
:1003F000C9016F2D7E2D402F50E00E948A0110E030
:10040000C80103960E945811809156049091570498
:10041000A0915804B09159040196A11DB11D80937B
:10042000560490935704A0935804B09359041F9115
:100430000F91FF90EF900895EF92FF920F931F930B
:10044000CF93DF93EC018C0107571F4FD8018C919C
:10045000FE01E80FF11D148284E0E82EF12CEC0E71
:10046000FD1E8CE395E0B7010E944E0CF80100815F
:10047000002359F0FE01E00FF11D83818A3029F439
:100480008CE395E06DE00E94FF0AE881F9818E011E
:1004900007571F4F0480F581E02DCE01B701D80129
:1004A0004C910995F8011082DF91CF911F910F9126
:1004B000FF90EF9008959C01DC01A757BF4F8C91EE
:1004C000F901E80FF11D64838F5F8C93843810F479
:1004D0006A3019F4C9010E941C0281E090E008957D
:1004E000FC018081882311F482E101C08D5F0E94AC
:1004F0003E0808958FE163E044ED0E942D190895B0
:10050000CF93DF938CE395E040E051EE60E070E044
:100510000E941C098CE395E066E171E00E94270BC4
:1005200080915504882311F483E101C0835F61E069
:100530000E94FF0780915504882311F483E101C0D4
:10054000835F61E00E943E0880915504882311F486
:1005500082E101C08D5F61E00E94FF0785E594E0C4
:1005600061E00E94700280915404882311F482E1BA
:1005700001C08D5F61E00E94FF0784E594E061E0C7
:100580000E94700264EF71E080E090E00E946B07CF
:100590008CE395E06EE071E00E94DC0A8CE395E06C
:1005A00063E070E04AE050E00E941C0C8CE395E0B0
:1005B00060E071E00E944E0C8CE395E064ED70E029
:1005C0004AE050E00E941C0C8CE395E063E071E08F
:1005D0000E944E0C8CE395E06FE170E04AE050E041
:1005E0000E942F0C0E947A028CE395E066E071E095
:1005F0000E944E0CC0E0D0E0FE01E959FE4F8CE3B2
:1006000095E0608140E150E00E94CA0BC53029F0BE
:100610008CE395E06AE30E94FF0A2196C630D1057B
:1006200059F78CE395E00E94070B0CC08CE395E032
:1006300069EE70E00E94270B68EE73E080E090E0C6
:100640000E946B0784EF91E067E671E048E00E944A
:10065000EF0E882359F38DE691E06FE571E0AB0171
:100660000E94CC0E88E494E06CE474E00E94F114E3
:100670008BE494E068EE73E00E94F1148CE395E063
:100680006AEC70E00E94270B8EEB93E06EEB70E05B
:100690000E94270B80915504882311F483E101C047
:1006A000835F60E00E943E0885E594E060E00E9480
:1006B0007002DF91CF91089585E00E94F3068C527D
:1006C0009140969587959695879508954091F1016B
:1006D0008091EF018F3009F04AC08091EE0187329E
:1006E00009F045C08091F001882309F040C04850CE
:1006F0004330E8F14634D8F58091F501843D19F195
:100700008EEB93E064E471E00E94DC0A8EEB93E0F0
:100710006091F50140E150E00E94CA0B8EEB93E03E
:1007200063E371E00E94DC0A8EEB93E064ED70E01D
:100730004AE050E00E941C0C8EEB93E06CE071E00C
:100740000E94510C12C08091F4019091F601883002
:1007500011F481EE05C08295880F807E9F71892BF0
:10076000435067EF71E00E94681881E0089580E0CF
:100770000895DF92EF92FF920F931F93DF93CF9331
:1007800000D000D00F92CDB7DEB70E94FA0C8823BC
:1007900009F414C30E94B10F882309F00FC388E441
:1007A00094E068E873E10E94F114882309F411C30E
:1007B00083E691E06BE70E9487110BC38CE395E021
:1007C00064EB70E00E94DC0A0E94FA0C882319F4A2
:1007D0006EE071E002C063E171E08CE395E00E949D
:1007E0004E0C8CE395E066E171E00E944E0C0E9495
:1007F000B10F882319F46BE171E002C06EE171E082
:100800008CE395E00E944E0C8CE395E00E94070B70
:10081000DEC28FE097E26FE571E04FE057E20E94A1
:10082000E00F1092F40184ED8093F5018FE1809345
:10083000F60188E08093F70180915A048093F801D3
:1008400080915E048093F901809162048093FA01A3
:10085000809156048093FB01ACEFB1E0E6E6F4E052
:100860008EE101900D928150E1F7AAE1B2E0E4E857
:10087000F4E08EE101900D928150E1F78EE1E6E621
:10088000F4E0DF01982F1D929A95E9F7E4E8F4E08F
:10089000DF011D928A95E9F724EF31E088E392E0C9
:1008A000821B90E00E945811809156049091570449
:1008B000A0915804B09159040196A11DB11D8093D7
:1008C000560490935704A0935804B09359048FEAA8
:1008D00090E06AE875E00E94AA148CE395E067E274
:1008E00071E00E944E0C40915A0450915B0460915B
:1008F0005C0470915D048CE395E02AE030E00E9496
:10090000BB0B8CE395E062E371E00E944E0C4091DA
:100910005E0450915F0460916004709161048CE307
:1009200095E02AE030E00E94BB0B8CE395E068E3A1
:1009300071E00E944E0C40916204509163046091FA
:100940006404709165048CE395E02AE030E00E9435
:10095000BB0B8CE395E062E371E00E944E0C40918A
:1009600056045091570460915804709159048CE3D7
:1009700095E02AE030E00E94BB0B8CE395E00E94FA
:10098000070BDD24D3940E945C15882309F4C5C0AD
:100990008091E7059091E805892B09F0BEC0809110
:1009A0005A0490915B04A0915C04B0915D0401969F
:1009B000A11DB11D80935A0490935B04A0935C0425
:1009C000B0935D040091EA050F71802F82508D3144
:1009D000D8F48091EA0586FD07C00E945C03E02FF1
:1009E000F0E0EB59FB4F80838091EA05807E8038F0
:1009F00059F48091EB05813039F48091EC05E02FBA
:100A0000F0E0ED57FB4F80838EEB93E067E970E0F9
:100A10000E94DC0A6091EA058EEB93E040E150E031
:100A20000E94CA0B8EEB93E061E970E00E94DC0A41
:100A30006091EB058EEB93E04AE050E00E94CA0B18
:100A40008EEB93E063E471E00E944E0CE02FF0E047
:100A5000EA59FB4F8EEB93E060814AE050E00E9440
:100A6000CA0B8EEB93E00E94070B9091EA058091F0
:100A7000EA05803E11F408E004C0092F02950695AE
:100A800007708091EA05813E09F408E08FE097E263
:100A90006FE571E04FE057E20E94E00F0093F40130
:100AA0008091E9058093F5018091EA058F7180932B
:100AB000F6014091EB0527EF31E0ECEEF5E0C901DE
:100AC000BF0150E00E948A018091EB0590E00396FF
:100AD0000E9458118091560490915704A091580497
:100AE000B09159040196A11DB11D809356049093B5
:100AF0005704A0935804B093590481E594E064E648
:100B000070E00E94D51480915504882311F483E18C
:100B100001C0835F61E00E943E080E94390D8C0194
:100B20000E94D8110B3211050CF415C18091D60129
:100B3000883009F010C18091D701882309F00BC1DA
:100B40008091E101813109F006C1809162049091A8
:100B50006304A0916404B09165040196A11DB11DC8
:100B60008093620490936304A0936404B09365043B
:100B70008091ED01833409F4EEC00E94660388235E
:100B800061F08EE494E064E670E00E94D51485E59F
:100B900094E061E00E947002DEC082EA94E066EABE
:100BA00074E04BE70E949301882309F4D4C060915C
:100BB000A2047091A3048091A4049091A5046058AC
:100BC0007E478A4A93486093A2047093A30480935B
:100BD000A4049093A5040E94B01A0E945916882379
:100BE000A1F1FE01319685E0DF011D928A95E9F7BA
:100BF00083E089838091A2049091A304A091A4042E
:100C0000B091A5048A839B83AC83BD838FE1BF0130
:100C100045E00E94591880915E0490915F04A09174
:100C20006004B09161040196A11DB11D80935E0422
:100C300090935F04A0936004B09361048EEB93E003
:100C400060E870E00E94270B0FC08EEB93E068E62F
:100C500070E00E94270B8091AA048F5F8093AA0402
:100C6000853120F00E947A021092AA040E94DA1ABA
:100C70007B018C010E94891ABC018EEB93E04AE053
:100C800050E00E941C0C8EEB93E06FE20E94FF0A82
:100C9000C801B7010E94921ABC018EEB93E04AE0B2
:100CA00050E00E941C0C8EEB93E06FE20E94FF0A62
:100CB000C801B7010E94981ABC018EEB93E04AE08C
:100CC00050E00E941C0C8EEB93E060E20E94FF0A51
:100CD000C801B7010E94AA1ABC018EEB93E04AE05A
:100CE00050E00E941C0C8EEB93E06AE30E94FF0A26
:100CF000C801B7010E94A41ABC018EEB93E04AE040
:100D000050E00E941C0C8EEB93E06AE30E94FF0A05
:100D1000C801B7010E949E1ABC018EEB93E04AE025
:100D200050E00E941C0C8EEB93E06AE471E00E949C
:100D30004E0C4091A2045091A3046091A4047091C0
:100D4000A5048EEB93E02AE030E00E94BB0B8EEB13
:100D500093E00E94070B81E594E060E070E00E9460
:100D6000F114882351F080915504882311F483E114
:100D700001C0835F60E00E943E088EE494E060E082
:100D800070E00E94F114882329F085E594E060E08A
:100D90000E94700281E0D82684E594E06D2D0E94C7
:100DA00070020F900F900F900F900F90CF91DF91E6
:100DB0001F910F91FF90EF90DF90089588E494E0E9
:100DC00060EA7FE00E94F114882309F0F7CCDD246B
:100DD000DACD8BE494E064E273E10E94F11488239D
:100DE00009F017CDCECD982F8E3008F09E50977019
:100DF000809171018295880F880F807C892B809368
:100E00007C0080917A00806480937A0080917A00DF
:100E100086FDFCCF2091780040917900942F80E0EE
:100E200030E0282B392BC90108951F920F920FB67D
:100E30000F9211242F933F938F939F93AF93BF9360
:100E40008091AF049091B004A091B104B091B2042C
:100E50003091B3040196A11DB11D232F2D5F2D37B5
:100E600020F02D570196A11DB11D2093B30480934E
:100E7000AF049093B004A093B104B093B2048091F6
:100E8000AB049091AC04A091AD04B091AE04019676
:100E9000A11DB11D8093AB049093AC04A093AD044D
:100EA000B093AE04BF91AF919F918F913F912F91DD
:100EB0000F900FBE0F901F9018958FB7F894209148
:100EC000AF043091B0044091B1045091B2048FBF8F
:100ED000B901CA0108959B01AC017FB7F8948091D4
:100EE000AB049091AC04A091AD04B091AE0466B592
:100EF000A89B05C06F3F19F00196A11DB11D7FBFD2
:100F0000BA2FA92F982F8827860F911DA11DB11DDB
:100F100062E0880F991FAA1FBB1F6A95D1F7BC0119
:100F20002DC0FFB7F8948091AB049091AC04A091D0
:100F3000AD04B091AE04E6B5A89B05C0EF3F19F033
:100F40000196A11DB11DFFBFBA2FA92F982F882789
:100F50008E0F911DA11DB11DE2E0880F991FAA1FE0
:100F6000BB1FEA95D1F7861B970B885E9340C8F2AA
:100F7000215030404040504068517C4F2115310590
:100F80004105510571F60895789484B5826084BD59
:100F900084B5816084BD85B5826085BD85B581607D
:100FA00085BDEEE6F0E0808181608083E1E8F0E0DD
:100FB0001082808182608083808181608083E0E80C
:100FC000F0E0808181608083E1EBF0E080818460EB
:100FD0008083E0EBF0E0808181608083EAE7F0E0ED
:100FE0008081846080838081826080838081816051
:100FF00080838081806880831092C1000895CF93A0
:10100000DF93482F50E0CA0181569E4FFC01349176
:1010100045575E4FFA018491882369F190E0880F6B
:10102000991FFC01E359FE4FA591B491FC01E958C9
:10103000FE4FC591D491662351F42FB7F8948C914B
:10104000932F909589238C93888189230BC06230DC
:1010500061F42FB7F8948C91932F909589238C93FA
:101060008881832B88832FBF06C09FB7F8948C910B
:10107000832B8C939FBFDF91CF910895482F50E031
:10108000CA018D549E4FFC012491CA0181569E4F86
:10109000FC01949145575E4FFA013491332309F4D2
:1010A00040C0222351F1233071F0243028F4213044
:1010B000A1F0223011F514C02630B1F02730C1F074
:1010C0002430D9F404C0809180008F7703C08091D0
:1010D00080008F7D8093800010C084B58F7702C020
:1010E00084B58F7D84BD09C08091B0008F7703C027
:1010F0008091B0008F7D8093B000E32FF0E0EE0F81
:10110000FF1FE958FE4FA591B4912FB7F8946623BD
:1011100021F48C919095892302C08C91892B8C931A
:101120002FBF089508951F920F920FB60F921124AA
:101130002F933F934F938F939F93EF93FF938091C0
:10114000C00082FD1DC04091C6002091F404309182
:10115000F5042F5F3F4F2F7330708091F60490910C
:10116000F7042817390771F0E091F404F091F504C1
:10117000EC54FB4F40833093F5042093F40402C0F9
:101180008091C600FF91EF919F918F914F913F9178
:101190002F910F900FBE0F901F901895E09148056A
:1011A000F0914905E05CFF4F81919191208131815F
:1011B000821B930B8F739070892B11F00E94920801
:1011C00008951F920F920FB60F9211242F933F9301
:1011D0008F939F93EF93FF932091380530913905BA
:1011E00080913A0590913B052817390731F4809199
:1011F000C1008F7D8093C10014C0E0913A05F09149
:101200003B05E850FB4F208180913A0590913B05CA
:1012100001968F73907090933B0580933A052093CD
:10122000C600FF91EF919F918F913F912F910F9069
:101230000FBE0F901F901895AF92BF92DF92EF9262
:10124000FF920F931F93CF93DF93EC017A018B01F1
:10125000DD24403081EE580780E0680780E07807A1
:1012600011F0DD24D39491E0A92EB12CEC89FD89F5
:10127000DD2069F0C50108A002C0880F991F0A94FB
:10128000E2F7808360E079E08DE390E005C01082B2
:1012900060E874E88EE190E0A80197010E94601E6A
:1012A00021503040404050405695479537952795FE
:1012B00080E12030380720F0DD2011F0DD24D6CF8A
:1012C000E889F9893083EA89FB89208319A2EE89AC
:1012D000FF89408121E030E0C9010C8C02C0880FF9
:1012E000991F0A94E2F7482B4083EE89FF894081D9
:1012F000C9010D8C02C0880F991F0A94E2F7482B90
:101300004083EE89FF894081C9010E8C02C0880F9D
:10131000991F0A94E2F7482B4083EE89FF89808168
:101320000F8C02C0220F331F0A94E2F72095282366
:101330002083DF91CF911F910F91FF90EF90DF906D
:10134000BF90AF900895DC011C96ED91FC911D9724
:10135000E05CFF4F2191319180819181281B390BF5
:101360002F733070C9010895DC011C96ED91FC913A
:101370001D97E05CFF4F20813181E054F040DF0198
:10138000AE5BBF4F8D919C9111972817390719F4C7
:101390002FEF3FEF07C08D919C91E80FF91F8081DF
:1013A000282F30E0C9010895DC011C96ED91FC91D5
:1013B0001D97E05CFF4F20813181E054F040DF0158
:1013C000AE5BBF4F8D919C9111972817390719F487
:1013D0002FEF3FEF10C08D919C911197E80FF91FEF
:1013E00020818D919C91119701968F739070119629
:1013F0009C938E9330E0C9010895DC0191968C9105
:101400009197882339F05496ED91FC9155978081FE
:1014100086FFF9CF91961C920895CF93DF93EC014C
:10142000EE85FF85E05CFF4F20813181E054F04084
:101430002F5F3F4F2F733070DF01AE5BBF4F8D9139
:101440009C91119728173907D1F3E05CFF4F8081F9
:101450009181E054F040E80FF91F6083EE85FF852D
:10146000E05CFF4F31832083EE89FF89208181E09A
:1014700090E00F8C02C0880F991F0A94E2F7282B86
:10148000208381E089A3EC89FD8980818064808349
:1014900081E090E0DF91CF91089510923F05109286
:1014A0003E0588EE93E0A0E0B0E080934005909385
:1014B0004105A0934205B093430582EA91E09093E1
:1014C0003D0580933C0584EB94E09093490580931F
:1014D000480588EF94E090934B0580934A0585EC8E
:1014E00090E090934D0580934C0584EC90E09093B0
:1014F0004F0580934E0580EC90E0909351058093CA
:10150000500581EC90E0909353058093520582EC56
:1015100090E0909355058093540586EC90E090936D
:1015200057058093560584E08093580583E08093A7
:10153000590587E080935A0585E080935B0581E03B
:1015400080935C050895CF93DF930E94C4070E94A7
:101550008002CEECD8E00E94B9032097E1F30E940C
:10156000CE08F9CFCF92DF92EF92FF920F931F93A5
:10157000CF93DF937C016B018A01C0E0D0E00FC004
:10158000D6016D916D01D701ED91FC910190F08133
:10159000E02DC7010995C80FD91F01501040011552
:1015A000110571F7CE01DF91CF911F910F91FF903F
:1015B000EF90DF90CF900895EF92FF920F931F93DB
:1015C000CF93DF937C018B01C0E0D0E0F8010F5F87
:1015D0001F4F6491662359F0D701ED91FC91019062
:1015E000F081E02DC7010995C80FD91FEFCFCE01BB
:1015F000DF91CF911F910F91FF90EF900895DC0143
:10160000ED91FC910190F081E02D09950895EF9204
:10161000FF920F931F938C01DC01ED91FC910190DF
:10162000F081E02D6DE009957C01D801ED91FC91F0
:101630000190F081E02DC8016AE009959C012E0D12
:101640003F1DC9011F910F91FF90EF900895EF92F8
:10165000FF920F931F937C010E94DC0A8C01C7014B
:101660000E94070B9C01200F311FC9011F910F9190
:10167000FF90EF900895CF93DF93EC016115710512
:1016800019F420E030E00FC0DB010D900020E9F7F5
:101690001197A61BB70BE881F9810280F381E02D39
:1016A000AD0109959C01C901DF91CF9108954F9239
:1016B0005F927F928F929F92AF92BF92CF92DF9272
:1016C000EF92FF920F931F93DF93CF93CDB7DEB7C7
:1016D000A1970FB6F894DEBF0FBECDBF2C01742EBC
:1016E000CB01223008F42AE019A231E2C32ED12C1A
:1016F000CC0EDD1E822E9924AA24BB24672D752FC3
:10170000A50194010E94601E79018A01C801B701F8
:10171000A50194010E941A1E472D461B0894C1087A
:10172000D1084A3010F4405D01C0495CF6014083A5
:10173000E114F1040105110521F07E2C5F2DC80193
:10174000DDCFC201B6010E943B0BA1960FB6F89403
:10175000DEBF0FBECDBFCF91DF911F910F91FF90E4
:10176000EF90DF90CF90BF90AF909F908F907F9041
:101770005F904F900895DC012115310541F4ED9102
:10178000FC910190F081E02D642F099508950E944D
:10179000570B0895EF92FF920F931F939A01E62E35
:1017A000FF2400E010E0B801A7010E94BB0B1F91CD
:1017B0000F91FF90EF900895CF92DF92EF92FF92FA
:1017C0000F931F93CF93DF93EC016A017B012115E7
:1017D000310541F4E881F9810190F081E02D642F19
:1017E00009951FC02A303105D1F477FF17C0E88171
:1017F000F9810190F081E02D6DE209958C0144277B
:101800005527BA014C195D096E097F09CE012AE0FE
:101810000E94570B9801280F391F04C02AE00E942C
:10182000570B9C01C901DF91CF911F910F91FF9040
:10183000EF90DF90CF900895EF92FF920F931F9358
:101840007B019A010027F7FC0095102FB801A70132
:101850000E94DC0B1F910F91FF90EF900895CF92A3
:10186000DF92EF92FF920F931F936C017B019A011D
:101870000027F7FC0095102FB801A7010E94DC0B90
:101880008C01C6010E94070B080F191FC8011F9188
:101890000F91FF90EF90DF90CF9008950E943B0B47
:1018A0000895EF92FF920F931F937C010E943B0BD0
:1018B0008C01C7010E94070B080F191FC8011F9157
:1018C0000F91FF90EF9008958091600561E00E9474
:1018D0003E0878940895FF920F931F93082F162FB8
:1018E000F42EF8948091600560E00E943E081F711C
:1018F000102B1EBD0DB407FEFDCFFEBC0DB407FEC0
:10190000FDCF0E94640C1F910F91FF9008951F93CB
:10191000182F282F30E0207630708091610590E0FC
:101920002817390799F080EA6FE143E00E946B0CB9
:10193000412F40764093610550E085E055954795ED
:101940008A95E1F780E86FE10E946B0C1F91089582
:101950000F931F93182F062F0E94870C80E4612F8E
:10196000402F0E946B0C1F910F9108950F931F93AE
:10197000182F072F0E94A80C812F8F5F602F0E94C5
:10198000A80C1F910F91089588E360EB0E94A80CAA
:10199000089588E361EB0E94A80C08950F931F93AC
:1019A000182F062FF8948091600560E00E943E0891
:1019B000802F8F71812B8EBD0DB407FEFDCF1EBC15
:1019C0000DB407FEFDCF07FF04C01EBC0DB407FE1B
:1019D000FDCF1EB50E94640C812F1F910F910895B9
:1019E0001F93182F0E94870C80E0612F0E94CE0C5D
:1019F0001F91089584ED61E10E94A80C82ED61E0E1
:101A00000E94A80C8AEE0E94F00C80FDFBCF82EDB4
:101A100060E00E94A80C89ED0E94F00C90E0969581
:101A2000879596958795817008950F931F93CF930F
:101A3000DF93EC018B01F8948091600560E00E94D7
:101A40003E088AE38EBD0DB407FEFDCF09C01EBC63
:101A50000DB407FEFDCF8EB5F80181938F0121975C
:101A60002097A9F70E94640CDF91CF911F910F91ED
:101A700008950F931F93DF93CF9300D000D000D031
:101A8000CDB7DEB789E30E94F00C882319F400E09B
:101A900010E048C0609162057091630580E00E948B
:101AA000B60C86E090E0BE016F5F7F4F0E94150D7F
:101AB00089819A8190936305809362052B813C8193
:101AC000E0915E05F0915F058D8187FD03C000E028
:101AD00010E00EC0245030408F01015010402017FC
:101AE000310708F48901C8016AEC71E00E94150D04
:101AF000F801E653FE4F1082609162057091630514
:101B00008CE06130780724F08CE06FEF7BE003C05D
:101B1000615070408CE00E94B60C80E86EE140E4B9
:101B20000E946B0CC80126960FB6F894DEBF0FBE5C
:101B3000CDBFCF91DF911F910F9108950F931F9308
:101B4000CF93DF938C01EB01F8948091600560E006
:101B50000E943E088AE78EBD0DB407FEFDCF08C087
:101B600088818EBD0DB407FEFDCF21960150104037
:101B700001151105A9F70E94640CDF91CF911F9107
:101B80000F9108958AE061E00E94FF078AE061E01A
:101B90000E943E088BE061E00E94FF078DE061E05B
:101BA0000E94FF078CE060E00E94FF078BE061E08D
:101BB0000E943E088BE060E00E943E088DE060E0FD
:101BC0000E943E0880E58CBD8DB581608DBD089575
:101BD0001F93CF93DF93EB01142F90935F058093B6
:101BE0005E050CB406FC02C00E94C20D1093600595
:101BF000812F61E00E94FF070E94640C8FEF60E07C
:101C00004FEF0E946B0C62E070E080E090E00E9479
:101C10006B0780E06DE10E94CE0C8823D1F3109217
:101C200063051092620588E060E070E00E94B60CE7
:101C30008CE060E070E00E94B60C8AE06FEF7BE021
:101C40000E94B60C84E060E07CE00E94B60C86E066
:101C50006FEF71E10E94B60C0E94C90C88E26FE33D
:101C600070E30E94B60C80E369EF77EF0E94B60C38
:101C700080EC6DE00E94A80C81EC60E00E94A80C52
:101C800080E862EC42E30E946B0C86EC62E17CE04F
:101C90000E94B60C84EC62E10E94A80C8AEC6CED08
:101CA00075E00E94B60C84EE68810E94A80C85EE57
:101CB00069810E94A80C82EE6A810E94A80C83EEC2
:101CC0006B810E94A80C80EE6C810E94A80C81EEB2
:101CD0006D810E94A80C84ED60E10E94A80C86ED45
:101CE00060E071E00E94B60C8AEE0E94F00C80FD6C
:101CF000FBCF8FE10E94870C80E86BE140EC0E94F3
:101D00006B0C80E86FE144E00E946B0C82E70E945C
:101D1000F00C863008F08F5FDF91CF911F9108950E
:101D2000CF93DF93EC0115C08CE10E94F00C81FF92
:101D300010C08CE395E062E571E00E94510C80E8F0
:101D40006FE140E80E946B0C80EA6FE140E80E947E
:101D50006B0C80E06FE10E94CE0C83FDE5CF82E04A
:101D600060E07CE00E94B60CBE016050744F86E0DB
:101D70000E94B60C8AE760E040E00E946B0CCE0146
:101D80006AEC71E00E949E0D80E86FE148E00E94DD
:101D90006B0CDF91CF9108950F931F93CF93DF9337
:101DA0009C01EB018A011092A205009729F08AE8B4
:101DB00095E0B9010E94C914209719F0CE010E9444
:101DC00046100115110529F08AE995E0B8010E9435
:101DD000C91481E0DF91CF911F910F910895AF92C7
:101DE000BF92CF92DF92FF920F931F93CF93DF9317
:101DF0008C01EB01F42E1092A20538E341E050E093
:101E000060E070E018C0832F90E0FC01B3E0F5952E
:101E1000E795BA95E1F7EC59FA4F877090705A013F
:101E20006B0104C0AA0CBB1CCC1CDD1C8A95D2F72C
:101E300020812A292083315031F784E895E0BE01C2
:101E40000E94C114C80164E875E04F2D0E94E80D9E
:101E5000DF91CF911F910F91FF90DF90CF90BF90B6
:101E6000AF900895DF92EF92FF920F931F93CF935D
:101E7000DF93D82E862FBA01213041F4675F7F4F60
:101E80009B0140E050E0695070400EC0223029F0C4
:101E900020E030E040E050E007C0625070409B011D
:101EA00040E050E06E5F7F4FE82EFF248AEC91E027
:101EB000E80EF91E8B01E7010FC0F881E0E089818F
:101EC00090E08E2B9F2BA0E0B0E0280F391F4A1F17
:101ED0005B1F2296025010400230110570F7CB01B3
:101EE0008E7FD701A80FB91F6817790779F08C91F9
:101EF00090E0A0E0B0E0BA2FA92F982F882702C069
:101F000040E050E0280F391F4A1F5B1FCA01AA2773
:101F1000BB270097A105B10599F7C9018095909558
:101F2000ED2DF0E0E653FE4F90838183DF91CF915A
:101F30001F910F91FF90EF90DF9008951092E201B2
:101F40001092E30180E48093DE011092DF01809320
:101F5000E00188E16EE044E150E020E00E94320FB1
:101F600008958091A40586958095817008950F93BA
:101F70001F93BC010AEC11E0C8010E94C114C80102
:101F8000069664E875E00E94C1141F910F910895B0
:101F9000EF92FF920F931F937B010E94B70F08EE01
:101FA00011E0C801B7010E94C914C80104976AE88A
:101FB00075E00E94C9141F910F91FF90EF90089552
:101FC000EF92FF920F931F93CF93DF937C01EB016E
:101FD0008A018FEA95E00E94C80F8881807F803E49
:101FE00049F088819981AA81BB818F5F9F4FAF4F54
:101FF000BF4F31F48AEC91E06EEA71E00E94C114A7
:1020000088E08093D6011092D70188ED91E06FECC3
:1020100071E049E050E00E9474011092DA0181E120
:102020008093E1011093EE010093EF01F092EC0137
:10203000E092ED011092F0011092F2011092F30182
:10204000DF91CF911F910F91FF90EF900895EF9244
:10205000FF920F931F9300ED11E0C8010E94B70F8C
:1020600074E1E72EF12CE00EF11EC8014896B7018D
:102070000E94C914C7016AE875E00E94C9140E9451
:102080009E0F1F910F91FF90EF900895BC0181E08A
:102090008093A40582E995E00E94C91408950F93E6
:1020A0001F938C0188969093DA018093DB010E9444
:1020B0009E0F1092FC011092FD01045E1F4F82E3FF
:1020C0006AE1A80122E00E94320FC8014A960E94EC
:1020D000900E1F910F910895CF93DF939C01862F4F
:1020E00080618093F901643029F02115310511F4E4
:1020F00021E030E09091EE018091EC018093EE01BF
:102100009093EC019091EF018091ED018093EF01AC
:102110009093ED01C3EFD1E08881A901480F511DD3
:102120002C814C832883252F3327219751E0CF3EE4
:10213000D50791F71D861E8680E589871092DA0102
:1021400088E28093DB010E94271084E08B871C8645
:1021500082E36AE14CE150E022E00E94320F86E324
:1021600090E00E94900EDF91CF910895E82FA0910A
:10217000DA01B091DB01F091F8014091EE0150E0FD
:10218000292F30E04217530709F08EC08091EF01EC
:102190008E1709F089C08091F901E82F81FF4EC0A8
:1021A0001092DA018CE28093DB010E94271082E119
:1021B0008093F9019091EE018091EC018093EE0102
:1021C0009093EC019091EF018091ED018093EF01EC
:1021D0009093ED01E3EFF1E021E030E08081A9018F
:1021E000480F511D44831082252F3327319751E02A
:1021F000EF3EF50799F715861686118212828091B7
:102200007701838314828D5F8093770182E0818BD5
:1022100084E0828B95E0938B148A80E68187938794
:1022200088E7848782E36AE140E250E022E00E948E
:10223000320F8AE390E00E94900E36C084FF34C0D3
:102240004F2F50E084E0559547958A95E1F79A2FF6
:1022500080E02B2F30E0282B392BCA01880F991FE3
:10226000880F991F281B390B2451304037FF02C0BB
:1022700020E030E03093B6052093B505232B69F0BC
:102280009A01220F331F220F331F2E5D3F4F6850DC
:1022900070406217730740F009C0E0FF05C080E09E
:1022A00090E060E00E946C1020E030E0C9010895E9
:1022B0000F931F93DF93CF930F92CDB7DEB78C01AF
:1022C000045E1F4F1093DA010C511040802F845E82
:1022D0008093DB0189830E949E0F085F1F4F10933C
:1022E000F001898184518093F101085F1F4F88E2DA
:1022F0006AE1A80121E00E94320FC8014A960E94BB
:10230000900E0F90CF91DF911F910F910895FF9242
:102310000F931F939C01F62E8FEA95E0B9010E945E
:10232000C80F06ED11E088E08093D6011092D70126
:10233000C80102966FEC71E049E050E00E94740120
:102340008CE48093DB0181E18093E1010E949E0F88
:102350001092EE018BE78093EF018AE08093EC010D
:10236000F092ED011092F00188E38093F101109258
:10237000F2011092F301025E1F4F80E3F801119207
:102380008A95E9F7C80165E872E04AE050E00E94EA
:10239000740188E26AE140E450E021E00E94320FDB
:1023A0008AE590E00E94900E1F910F91FF90089592
:1023B000DF92EF92FF920F931F93CF93DF93EC0185
:1023C0008091A205882319F0CE010E94C31C20979A
:1023D00009F0C3C08091A4058570F1F1809174016A
:1023E00090917501892BC1F50E94FA0C8823A1F107
:1023F0008EEA91E00E94B70F88E08093D601A6E0B4
:10240000FA2EF092D70188ED91E067EC71E048E098
:1024100050E00E9474010AEE11E0D8011D92FA9476
:10242000E9F7C8010A9764E875E00E94C114C80181
:10243000069662E975E00E94C914C80104976AE82B
:1024400075E00E94C9148091A40588608093A4055A
:102450008AE290E00E94900E0E94FA0C882349F0D4
:10246000809174019091750101969093750180930C
:1024700074018091A505813009F0EFC18091A40518
:1024800081FFEBC102E00093A505809176018F5F8B
:10249000809376018F711091A6051295110F107E11
:1024A000182BE090A705D090A8058FEA95E06EE97B
:1024B00075E00E94C80FF8E0FF2EF092D60110924E
:1024C000D70188ED91E06FEC71E049E050E00E94A7
:1024D00074018CE28093DB0186E08093E1010E942D
:1024E0009E0FE092EE01D092EF018BE08093EC0121
:1024F0001093ED01E0EFF1E0DF011D92FA94E9F7AE
:10250000809177018093F2018D5F8093770180E65F
:102510008093F8010093F90183E08093FA0110920F
:10252000FB011092FC011092FD011092FE0110922D
:10253000FF010093000284E08093010200930202F5
:1025400086E28093030282E36AE140E250E022E007
:102550000E94320F8AE390E09BC0C932D10508F493
:102560007CC11091D601183009F082C18091D70149
:10257000863009F07DC180EF91E06AE875E044E0C3
:1025800050E00E947D01009709F072C18091DF0147
:10259000813029F580ED91E00E94B70F1092DE01A5
:1025A00082E08093DF018AEE91E060EE71E00E94AC
:1025B000C11480EE91E064E875E00E94C11480EFE0
:1025C00091E066EE71E00E94C91486EE91E06AE83F
:1025D00075E00E94C9148AE290E00E94900E8091FA
:1025E000A40583FF3AC11091DF01123009F035C113
:1025F00086EE91E062E975E044E050E00E947D01E2
:10260000009709F02AC18FEA95E060EE71E00E9420
:10261000C1141093A40521C1183009F01EC1809186
:10262000D701882309F019C18091D801853409F0B8
:1026300014C188EE91E06AE875E044E050E00E9441
:102640007D01009709F009C18091E101813019F500
:102650008091EC018830F9F4E091A905F091AA0588
:10266000309719F084EE91E009950E94271010929E
:10267000EC018091EE01883F28F08091EF018F5F9F
:102680008093EF018091EE01885F8093EE01CE018F
:102690000E94900EE2C00E943D14882351F0809168
:1026A000E101813131F4CE010E944214882309F006
:1026B000D4C0C633D10528F48091E101863009F0F9
:1026C000CCC08091EE018B3009F0BEC084EE91E069
:1026D0006EE975E044E050E00E947D01009709F04A
:1026E000BCC08091F901382F82FF13C0E091AB0587
:1026F000F091AC05309759F08091EF018295869565
:10270000877063E040E050E020E030E0099585E02C
:1027100090C09091DA0180E02091DB01022F10E05F
:10272000082B192B8091F801482F50E0E4E05595D3
:102730004795EA95E1F7CA01880F991F880F991FFD
:10274000081B190B0451104017FF02C000E010E0F5
:102750008091A505823079F531FF21C034FF1FC07B
:1027600080E090E060E00E946C1088E18093F901C5
:10277000E091AD05F091AE05309719F420E030E01E
:1027800007C08091ED0182958695877009959C011F
:1027900083E08093A505C9010E944F105EC081E0CF
:1027A0008093A50534FF03C080E090E002C0C8011B
:1027B000019664E046C0833081F50115110579F179
:1027C000E091AB05F091AC05309749F1440F551FEE
:1027D000440F551FCE0108974E5D5F4F8417950734
:1027E00008F4AC01C801840F951FC817D90710F071
:1027F000980103C09E01241B350B8091EF01829547
:102800008695877060E009958091A305882319F06B
:10281000C80168E016C0C80108C08530F1F030FF7B
:102820000BC08330D1F0C801019669E00E946C10A2
:1028300086E08093A50511C00115110571F0C8014E
:1028400060E00E946C1009C0809172019091730148
:10285000BE010E94B6109C0102C020E030E0C90118
:10286000DF91CF911F910F91FF90EF90DF9008952E
:10287000CA32D10508F0D0CEF0CF8091DF058111AA
:1028800081E00895CF92DF92EF92FF920F931F9312
:10289000CF93DF93C7EBD5E030E0CC24DD2429C013
:1028A0002A814B818091EE0190E0042F10E0801787
:1028B0009107D9F49091EF019217B9F48C81882394
:1028C000A1F02091F10130E028503040F090F0016B
:1028D000EE242E0D3F1DE881F981892F942F64EE9F
:1028E00071E044EF51E0099531E00894C11CD11C1E
:1028F00025968091DF0590E0C816D9068CF2832FCB
:10290000DF91CF911F910F91FF90EF90DF90CF90CB
:1029100008950F931F93CF93DF938C01C0E0D0E015
:10292000F801EC0FFD1F8CE395E060814AE050E078
:102930000E94CA0BC33029F08CE395E06EE20E943E
:10294000FF0A2196C430D10559F7DF91CF911F912D
:102950000F910895EF92FF920F931F939C017B01BB
:102960000CE315E0C801B9010E94DC0AC7010E940E
:102970008914C8010E94070B1F910F91FF90EF90DF
:102980000895DC01FB0186E001900D928150E1F792
:1029900008959C01FB0180819181A281B381F9019D
:1029A00080839183A283B38308950F931F93CF9362
:1029B000DF938C01EB0180E06115710509F081E086
:1029C000F8018283882341F00E945D072197C60F9A
:1029D000D71FF801D183C083DF91CF911F910F9151
:1029E0000895EF92FF920F931F93CF93DF93EC0123
:1029F0007B018A81882311F400E00FC008811981CE
:102A00000E945D07C801861B970B2AEE813692074C
:102A100010F400E006C0082F0195CE01B7010E9416
:102A2000D514802FDF91CF911F910F91FF90EF90E0
:102A30000895782FE89865B121E030E040E050E05B
:102A40000090780104C0220F331F441F551F0A94C1
:102A5000D2F7322F822F8095862385B99EBD0DB483
:102A600007FEFDCF4EB57EBD0DB407FEFDCF2EB5E2
:102A7000942F80E045B1342B35B9E89A30E0282B0B
:102A8000392BC90108958091E0059091E1058F707F
:102A90009093E1058093E0058091E0059091E10538
:102AA00088609093E1058093E0058091E005909126
:102AB000E1050E941915089580913706873009F0C5
:102AC00059C090913B06992399F080913A06891755
:102AD00028F480913A06873408F44CC084E080934F
:102AE000370681E090E09093E8058093E7059AC06F
:102AF0008091EB0520913A0690E0049630E0821731
:102B0000930724F080913A068734A0F184E0809303
:102B100037068091EB05833430F081E090E09093AC
:102B2000E8058093E7058091EA0586FF12C0809151
:102B30003606282F30E0C9018F7190704F9749F009
:102B40008091EA0590E0822793278F719070892BFE
:102B500089F48091E7059091E805892B09F056C02A
:102B6000E0913406F0913506309709F44FC080E0CB
:102B7000099558C080913706843011F080E008959F
:102B80001092EB058091EB0580933A068FEF9FEF53
:102B90009093E8058093E705209138062223D9F029
:102BA0008227282F22952827022E26952695202534
:102BB000022E269520252770082E892F269507940A
:102BC0002795902D8227069427959025822790930C
:102BD000E8058093E70587E08093370681E08093DE
:102BE000E50583EA94E90E9419158091E00590912A
:102BF000E105886D9093E1058093E0058091E00503
:102C00009091E1050E94191580E008958FEF9FEFE4
:102C1000AFEFBFEF8093300690933106A09332065A
:102C2000B093330681E008950F931F93082F10E0AF
:102C3000C801966C0E94191598012F7730702F5F8C
:102C40003F4F442737FD4095542F6BEF72E485E0EA
:102C500090E00E94601ECA01B901000F012F001F01
:102C6000110B980143E0220F331F4A95E1F7201B17
:102C7000310B2F5F3F4F442737FD4095542F0E9463
:102C8000601E93E056954795379527959A95D1F70D
:102C90002D573C4F4F4F5F4FCA01B90124E833E035
:102CA00040E050E00E94601E2093E6051F910F91C6
:102CB000089580913706843069F080913706873017
:102CC00059F480913A06882339F40E94431584E030
:102CD0008093370681E0089580E00895982F86FD5F
:102CE00005C0907E809136068F71980F9093EA050B
:102CF000E0913406F0913506309711F081E00995A6
:102D00008FEF9FEF9093E8058093E7058091E705AB
:102D10009091E805209138068227282F22952827B0
:102D2000022E269526952025022E269520252770F1
:102D3000082E892F269507942795902D8227069493
:102D40002795902582279093E8058093E70588E0F2
:102D5000809337068091E0059091E1058863909318
:102D6000E1058093E0058091E0059091E1050E94E6
:102D700019150895DF92EF92FF920F931F937B0135
:102D80008C01DD2405C0D39416950795F794E7943C
:102D90008FEFE816F1040105110509F0A0F7809105
:102DA000E0059091E10581FF0FC08091E0059091D1
:102DB000E1058D7F9093E1058093E0058091E0052A
:102DC0009091E1050E941915E114F1040105110526
:102DD000B9F0C701906E3D2D20E0822B932B0E940D
:102DE00019158091E0059091E10582609093E105CD
:102DF0008093E0058091E0059091E1050E9419150E
:102E00001F910F91FF90EF90DF900895E89885B1A2
:102E100021E030E040E050E00090780104C0220F53
:102E2000331F441F551F0A94D2F7322F922F9095CB
:102E3000982395B91EBC0DB407FEFDCF6EB51EBC20
:102E40000DB407FEFDCF2EB5962F80E0622F70E007
:102E5000682B792B77FF0FC080913706873059F4A4
:102E60008CB581608CBD1EBC0DB407FEFDCF2EB5A8
:102E70008CB58E7F8CBD85B1382B35B9E89A7093AF
:102E8000E3056093E2058091E2059091E30597FFE9
:102E9000ECC080913706873009F082C080913A06F5
:102EA000882371F490913806992351F080913A0665
:102EB000E82FF0E0E751FA4F90838F5F80933A0656
:102EC00080913A06E82FF0E0E751FA4F20838F5FB8
:102ED00080933A068091E7059091E8058227282F94
:102EE00022952827022E269526952025022E269506
:102EF00020252770082E892F269507942795902D39
:102F0000822706942795902582279093E805809341
:102F1000E7052091E505233040F580913A0690E0E1
:102F20006091E605029770E00E944D1E892BE9F43E
:102F30008091E2059091E305E22FF0E090FF04C05C
:102F4000EC54FE4F808104C0EC54FE4F808182958A
:102F50008F708093E505833040F490E0880F991FCF
:102F60000196806A94690E94191590913B069923F5
:102F700029F080913A06891780F40AC08091EB0508
:102F800020913A0690E0049630E0821793072CF0E7
:102F900080913A06873408F468C00E94431565C0E2
:102FA0008091370687FF2EC0E091EB0580913706B0
:102FB0008F5F809337068150ED5FE80FF0E0E751B7
:102FC000FA4FE0818091E7059091E8058E27282F40
:102FD00022952827022E269526952025022E269515
:102FE00020252770082E892F269507942795902D48
:102FF000822706942795902582279093E805809351
:10300000E7052EC0809137068F5F80933706815089
:10301000833019F184302CF4882399F08130F9F44D
:1030200016C08B3019F08C30D1F402C0EDE218C01C
:10303000E09138069091EB058EEF891B809337065F
:103040000FC08091E7059091E805E82F09C08091B5
:10305000E7059091E805E92F03C00E944315EAEACD
:103060008E2F90E0986B0E9419158091E205909147
:10307000E30596FF03C086E0809337068091E20562
:103080009091E30594FF09C060E070E080E090E07B
:103090000E94BA1681E08093E4058091E205909148
:1030A000E30595FF05C00E94431584E08093370631
:1030B00008951F93182F4093EB052CEE35E0C901BE
:1030C00050E00E948A01812F0E946E161F91089580
:1030D0000F931F93CF93DF93182FEB01042F02C0A0
:1030E0000E945C150E9459168823D1F3812FBE01DE
:1030F000402F0E945918DF91CF911F910F91089591
:103100008091360690E08F719070892B41F080E0BD
:1031100066E077E140E050E00E94461B089580E0C1
:103120000E94691B08951F938093360640933806CA
:10313000609339060E94801810923B06E89885E05B
:1031400092E89093E1058093E0058091E0059091ED
:10315000E1050E9419158091390690E074E0880F0E
:10316000991F7A95E1F7876C90680E94191580E4A1
:1031700096EA0E94191586E00E94141682EA94E9E4
:103180000E9419158CEA92EC0E94191510913806CC
:10319000112341F083E89AEC0E941915812F90E0E9
:1031A0009E6C06C08BE89AEC0E9419158DE29EEC8D
:1031B0000E94191583E894EC0E94191580E598E99E
:1031C0000E94191587E79CEC0E94191580E090EE8B
:1031D0000E94191580E098EC0E94191589E490EC82
:1031E0000E94191584E080933706E89A1F9108958C
:1031F00025B181E090E0A0E0B0E00090780104C04B
:10320000880F991FAA1FBB1F0A94D2F7282B25B934
:1032100024B1822B84B98AE061E00E943E088AE0F2
:1032200061E00E94FF078BE061E00E94FF078CE0F5
:1032300060E00E94FF078DE061E00E94FF0780E5EB
:103240008CBD8DB581608DBD82E060E00E94FF077E
:1032500082E061E00E943E080895FF920F931F9361
:10326000182F062FF42E809336064093380660936D
:1032700039060E94F8180E94801882E89AEC0E9491
:10328000191580E09EEF0E94191585E0809337069E
:1032900083B7817F06C083B7816083BF889583B77A
:1032A0008E7F83BF809137068530A9F3812F602FF1
:1032B0004F2D0E949318809136061F910F91FF9019
:1032C00008958F929F92AF92BF92CF92DF92EF922A
:1032D000FF920F931F93CF93DF937B018C01EA0141
:1032E0002CE330E040E050E00E94601E6883C8019B
:1032F000B7012CE330E040E050E00E94601E122F46
:10330000032FF42EE52E622F732F842F952F2CE39D
:1033100030E040E050E00E94601E6983612F702F12
:103320008F2D9E2D2CE330E040E050E00E94601E87
:10333000122F032FF42EE52E622F732F842F952F3B
:1033400028E130E040E050E00E94601E6A83612F77
:10335000702F8F2D9E2D28E130E040E050E00E943C
:10336000601E79018A01C801B7016C5F7F4F8F4FE2
:103370009F4F27E030E040E050E00E94601E6F5F0A
:103380006B8320E0AA24BB24650101C02F5F822E3D
:103390009924F401EE54F84FCF0183709070892B7B
:1033A00099F4CF0164E670E00E944D1E892B39F438
:1033B000CF0160E971E00E944D1E892B29F48EE651
:1033C00091E0A0E0B0E004C08DE691E0A0E0B0E0C4
:1033D000A80EB91ECA1EDB1EC501A0E0B0E0E816AB
:1033E000F9060A071B0790F62E83F401EE54F84FF6
:1033F00083E0882E912C8E229F228114910499F4CF
:10340000CF0164E670E00E944D1E892B39F4CF0194
:1034100060E971E00E944D1E892B29F48EE691E04F
:10342000A0E0B0E004C08DE691E0A0E0B0E0A81A12
:10343000B90ACA0ADB0A980187010A191B092C0973
:103440003D09CF0164E670E00E944D1E7C01CF0172
:1034500060E971E00E944D1EAC01E7EBF1E060E035
:10346000613051F48114910449F4E114F10441F400
:103470004115510529F002C0808103C08CE101C0D3
:103480008DE190E0A0E0B0E0081719072A073B079C
:1034900040F0081B190B2A0B3B0B6F5F31966C3009
:1034A000F9F66F5F6D83802F8F5F8C83DF91CF91F3
:1034B0001F910F91FF90EF90DF90CF90BF90AF9052
:1034C0009F908F900895EF92FF920F931F937B012F
:1034D0008C018091520690915306A0915406B091B0
:1034E0005506E816F9060A071B0771F0C801B7016F
:1034F00047E456E00E946119E0925206F0925306AA
:1035000000935406109355061F910F91FF90EF9072
:1035100008950E94631A20914D0630E02E54384FD2
:10352000C90108950E94631A80914C0690E00895A5
:103530000E94631A80914B0690E008950E94631ADE
:103540008091470690E008950E94631A8091480692
:1035500090E008950E94631A8091490690E00895D2
:1035600060933E0670933F06809340069093410619
:103570002091790130917A0140917B0150917C0139
:10358000260F371F481F591F2093420630934306CA
:10359000409344065093450682E0809346060E947D
:1035A0005D0760934E0670934F068093500690938C
:1035B00051060895EF92FF920F931F931CC02F5F47
:1035C0003F4F4F4F5F4F20933E0630933F0640934F
:1035D00040065093410688EE93E0A0E0B0E0E80E8C
:1035E000F91E0A1F1B1FE0924E06F0924F06009331
:1035F0005006109351060E945D07E0904E06F09031
:103600004F0600915006109151066E197F09800BEC
:10361000910B20913E0630913F064091400650911B
:103620004106685E73408040904048F680914206B3
:1036300090914306A0914406B0914506281739079A
:103640004A075B07B0F0E0913C06F0913D063097E9
:1036500081F00995611571058105910519F00E94A8
:10366000B01A07C090E080914606811191E09093D6
:10367000460660913E0670913F068091400690910B
:1036800041061F910F91FF90EF900895823000F551
:10369000E82FF0E0EE0FFF1FEA5AF94F71836083C5
:1036A000882319F08130A1F408C0809169008C7FD3
:1036B000842B80936900E89A089580916900440FF3
:1036C000551F440F551F837F842B80936900E99A0F
:1036D0000895823080F4882319F0813021F402C0EB
:1036E000E89801C0E998E82FF0E0EE0FFF1FEA5AD2
:1036F000F94F1182108208951F920F920FB60F9208
:1037000011242F933F934F935F936F937F938F93E6
:103710009F93AF93BF93EF93FF9380915606909141
:103720005706892B29F0E0915606F0915706099526
:10373000FF91EF91BF91AF919F918F917F916F9189
:103740005F914F913F912F910F900FBE0F901F905F
:1037500018951F920F920FB60F9211242F933F933B
:103760004F935F936F937F938F939F93AF93BF9389
:10377000EF93FF938091580690915906892B29F079
:10378000E0915806F09159060995FF91EF91BF918C
:10379000AF919F918F917F916F915F914F913F91E9
:1037A0002F910F900FBE0F901F901895DF93CF931E
:1037B00000D000D000D0CDB7DEB7DE011196E3EC2B
:1037C000F1E086E001900D928150E1F786E191E011
:1037D000EAECF1E0DF019C011D9221503040E1F75D
:1037E00080915A06833019F466E975E003C0BE0182
:1037F0006F5F7F4F84E490E043E450E00E94E00F6D
:1038000080915A06833039F08AEC91E0BE016F5FF7
:103810007F4F0E94C11481E08093F4018093F501F1
:1038200086E08093F6018091670690916806A091EA
:103830006906B0916A068093F8019093F901A0930C
:10384000FA01B093FB0180915A06833039F484EF7A
:1038500091E00C966AE875E00E94C91480E192E05C
:1038600064E875E00E94C114A0EEB2E0EEE8F1E079
:1038700002C081918D9331E0E439F307D1F7909143
:103880005A06992311F083E001C081E08093E6029B
:103890008DE38093E70287E08093E80281E08093E4
:1038A000E902AAEEB2E0E4E8F5E002C081918D936E
:1038B00085E0EA38F807D1F78CE08093F0028AE0DF
:1038C0008093F102A2EFB2E0EDE7F1E002C0819156
:1038D0008D9321E0E738F207D1F72CEF32E03093F7
:1038E0006C0620936B06913069F582E38093FC02AD
:1038F00084E08093FD02D9011296EAE8F5E002C067
:1039000081918D9335E0EE38F307D1F786E380930C
:10391000020384E08093030384E093E090936C06B9
:1039200080936B06DC01E6E9F5E002C081918D939E
:1039300085E0EA39F807D1F788E093E090936C06C8
:1039400080936B0620916B0630916C06D901E8E8F4
:10395000F1E002C081918D9381E0EE38F807D1F754
:10396000C901069690936C0680936B06845F914024
:103970000E94581126960FB6F894DEBF0FBECDBF39
:10398000CF91DF910895EF92FF920F931F93CF9302
:10399000DF93EC0180915A06823009F4E0C0833055
:1039A00030F4882351F1813009F03DC14AC08330A1
:1039B00021F0843009F037C1D2C00E945D07209108
:1039C0005F06309160064091610650916206E0907A
:1039D0005B06F0905C0600915D0610915E062E0D70
:1039E0003F1D401F511F621773078407950708F496
:1039F0001AC10E94D61B84E017C00E945D07609325
:103A00006706709368068093690690936A06109221
:103A10008A0510928B0510928C0510928D050E94DC
:103A2000D61B0E94C90C81E080935A060E945D0754
:103A300060936306709364068093650690936606B0
:103A4000F2C0C634D10508F4B2C08091ED018334D0
:103A500009F0ADC08091F401823009F0A8C0209136
:103A6000F8013091F9014091FA015091FB018091E8
:103A7000670690916806A0916906B0916A062817BA
:103A800039074A075B0709F092C08091E402853349
:103A900009F08DC08091E602823009F088C0A6C08E
:103AA000DF011196E180ED01219680818630A9F039
:103AB000873030F4813059F0833009F045C00AC0B6
:103AC0008633E9F18A3361F08333F1F509C08EE87A
:103AD00095E037C082E995E034C08AE995E031C0CD
:103AE00011966C9170E080E090E0982F872F762FF0
:103AF00066272981620F711D811D911D982F872FC7
:103B0000762F66272A81620F711D811D911D982FC6
:103B1000872F762F66272B81620F711D811D911DC6
:103B200028EE33E040E050E00E941A1E60935F06EA
:103B300070936006809361069093620605C086E9E3
:103B400095E0BE010E94C914FE01EE0DF11DE017C3
:103B5000F10708F4A5CF0E94D61B82E065CFC634DA
:103B6000D10528F18091ED01833409F58091F401AC
:103B70008230E9F42091F8013091F9014091FA0185
:103B80005091FB018091670690916806A0916906AB
:103B9000B0916A06281739074A075B0741F48091FC
:103BA000E402853321F48091E602853059F10E94C8
:103BB0005D0720916306309164064091650650913F
:103BC0006606205F384D4F4F5F4F2617370748076F
:103BD000590748F028C082E995E00E94461083E02A
:103BE00080935A0620C010925A061DC08AE895E0BC
:103BF00064E072E00E94C914E4EEF2E08E01065324
:103C00001E4F4ECF0E94C40C0E945D0760935B065E
:103C100070935C0680935D0690935E06809192059A
:103C20008823E9F2D8CFDF91CF911F910F91FF90B8
:103C3000EF900895629FD001739FF001829FE00D85
:103C4000F11D649FE00DF11D929FF00D839FF00D1B
:103C5000749FF00D659FF00D9927729FB00DE11DC7
:103C6000F91F639FB00DE11DF91FBD01CF011124A4
:103C70000895AA1BBB1B51E107C0AA1FBB1FA617B3
:103C8000B70710F0A61BB70B881F991F5A95A9F705
:103C900080959095BC01CD01089597FB092E0726CC
:103CA0000AD077FD04D0E5DF06D000201AF4709525
:103CB00061957F4F0895F6F7909581959F4F0895F0
:103CC000A1E21A2EAA1BBB1BFD010DC0AA1FBB1F20
:103CD000EE1FFF1FA217B307E407F50720F0A21B92
:103CE000B30BE40BF50B661F771F881F991F1A94FF
:103CF00069F760957095809590959B01AC01BD0129
:103D0000CF010895EE0FFF1F0590F491E02D099467
:043D1000F894FFCF55
:103D14002067002069004D41433A20002900444FA8
:103D2400574E005550002047573A004F4B0057411B
:103D340049543441525000524631323A207263762B
:103D44003D0020736E643D00204554483A20726360
:103D5400763D0020727373693D0020555443203D25
:103D64002000457468205458206572726F7200C038
:103D7400A80003C0A800017469692D3025C0A800FB
:103D840019015000F6FF010A022C0100004172647F
:103D940075696E6F2D3030003703010306FF6382AF
:103DA40053633501000000005B02B20ADE0100002B
:103DB40000000D0AB20AA309D409B409FD09FFFFE2
:103DC400FFFFFFFF3402561F1C1F1E1F1E1F1F1E56
:0A3DD4001F1E1FFFFFFFFFFFFF008F
:00000001FF
