:100000000C9429010C944B170C9478170C94510103
:100010000C9451010C9451010C9451010C94510118
:100020000C9451010C9451010C9451010C94510108
:100030000C9451010C9451010C9451010C945101F8
:100040000C9471050C9451010C94EF060C943D072F
:100050000C9451010C9451010C9451010C945101D8
:100060000C9451010C945101206C656E3D00524678
:10007000313220524356207061636B65743A2068B8
:1000800064723D307800455448206C696E6B3A00CC
:100090002A2A2A2A2A2052554E4E494E473A207281
:1000A0006631322D7564702D67772E696E6F00464C
:1000B00061696C656420746F20616363657373208C
:1000C00045746865726E657420636F6E74726F6CD0
:1000D0006C6572002A2A2A2A2A2053455455503A20
:1000E00020726631322D7564702D67772E696E6FC0
:1000F0000020286D792067726F7570206973203039
:1001000078005544503A2043616E6E6F7420666FDC
:100110007277617264206D65737361676520666FC5
:10012000722067726F757020307800000000002424
:100130000027002A0000000000250028002B0000F6
:100140000000002300260029000404040404040421
:100150000402020202020203030303030301020476
:100160000810204080010204081020010204081039
:100170002000000007000201000003040600000048
:100180000000000000000108000604000145000016
:10019000820000400020504F5354202446204854F1
:1001A00054502F312E300D0A486F73743A20244674
:1001B0000D0A244624534163636570743A202A2F44
:1001C0002A0D0A436F6E74656E742D4C656E6774EC
:1001D000683A2024440D0A436F6E74656E742D5482
:1001E0007970653A206170706C69636174696F6ED3
:1001F0002F782D7777772D666F726D2D75726C6500
:100200006E636F6465640D0A0D0A245300474554FC
:10021000202446245320485454502F312E300D0AA8
:10022000486F73743A2024460D0A24460D0A0D0ABD
:10023000004163636570743A20746578742F687444
:100240006D6C00E30004FA0001000000010072017F
:10025000A90811241FBECFEFD8E0DEBFCDBF11E04B
:10026000A0E0B1E0E2EBF4E302C005900D92A83A01
:10027000B107D9F716E0A8EAB1E001C01D92A43297
:10028000B107E1F712E0C2E5D2E004C02297FE0117
:100290000E94531ACE34D107C9F70E94FF080C946C
:1002A000571A0C940000FB01DC0102C005900D926E
:1002B00041505040D8F70895FB01DC0104C08D91F6
:1002C0000190801921F441505040C8F7881B990BC8
:1002D0000895FB01DC0102C001900D924150504095
:1002E000D8F708951092280410922B0410922E042F
:1002F0001092310484E08093320483E080933304CD
:1003000010929F0310929E0382E891E090939D03C8
:1003100080939C030895EF92FF920F931F93F62E04
:10032000E72E042F8FE097E261E571E04FE057E29E
:100330000E941D0E89E08093D20184ED8093D30149
:100340008FE18093D40125ED31E0C9016F2D7E2D21
:10035000402F50E00E94690110E0C80103960E94FE
:10036000950F8091340490913504A0913604B0919A
:1003700037040196A11DB11D809334049093350478
:10038000A0933604B09337041F910F91FF90EF9024
:100390000895EF92FF920F931F93CF93DF93EC0199
:1003A0008C0107571F4FD8018C91FE01E80FF11DFA
:1003B000148284E0E82EF12CEC0EFD1E8DE095E019
:1003C000B7010E948B0AF8010081002359F0FE0159
:1003D000E00FF11D83818A3029F48DE095E06DE016
:1003E0000E945B09E881F9818E0107571F4F048045
:1003F000F581E02DCE01B701D8014C910995F801A6
:100400001082DF91CF911F910F91FF90EF9008958F
:100410009C01DC01A757BF4F8C91F901E80FF11D3A
:1004200064838F5F8C93843810F46A3019F4C901A7
:100430000E94C90181E090E00895FC018081882339
:1004400011F482E101C08D5F0E949A060895CF9356
:10045000DF938DE095E040E051EE60E070E00E94B7
:1004600078078DE095E064ED70E00E94830980914B
:100470003304882311F483E101C0835F61E00E94AB
:100480005B0680913304882311F483E101C0835F0C
:1004900061E00E949A0680913304882311F482E17E
:1004A00001C08D5F61E00E945B0683E394E061E040
:1004B0000E941D0280913204882311F482E101C060
:1004C0008D5F61E00E945B0682E394E061E00E9440
:1004D0001D0264EF71E080E090E00E94C7058FE1AB
:1004E00063E044ED0E94E1168DE095E060E071E08C
:1004F0000E948B0AC0E0D0E0FE01EB5AFE4F8DE077
:1005000095E0608140E150E00E94260AC53029F064
:100510008DE095E06AE30E945B092196C630D10523
:1005200059F78DE095E00E9463090CC08DE095E0DD
:100530006FEA70E00E94830968EE73E080E090E06B
:100540000E94C70584EF91E065E571E048E00E94F4
:100550002C0D882359F38BE591E061E571E0AB0147
:100560000E94090D86E294E06CE474E00E94A512FA
:1005700089E294E068EE73E00E94A5128DE095E0B8
:1005800060E970E00E94830980913304882311F4AC
:1005900083E101C0835F60E00E949A0683E394E0F8
:1005A00060E00E941D02DF91CF91089585E00E94D6
:1005B0004F058C529140969587959695879508950D
:1005C0004091CF018091CD018F3009F04AC08091D8
:1005D000CC01873209F045C08091CE01882309F013
:1005E00040C048504330E8F14634D8F58091D301FB
:1005F000843D19F18CE993E062E071E00E943809D2
:100600008CE993E06091D30140E150E00E94260A1A
:100610008CE993E061EF70E00E9438098CE993E087
:1006200064ED70E04AE050E00E94780A8CE993E0C3
:1006300066E071E00E948E0A12C08091D201909112
:10064000D401883011F481EE05C08295880F807E38
:100650009F71892B435065ED71E00E941C1681E06B
:10066000089580E00895FF920F931F930E94370B27
:10067000882309F4FFC10E94EE0D882309F0FAC116
:1006800004C28DE095E066E870E00E9438090E949F
:10069000370B882319F468E071E002C06DE071E067
:1006A0008DE095E00E948B0A8DE095E060E171E0BD
:1006B0000E948B0A0E94EE0D882319F465E171E017
:1006C00002C068E171E08DE095E00E948B0A8DE048
:1006D00095E00E946309D7C18FE097E261E571E080
:1006E0004FE057E20E941D0E1092D20184ED8093DC
:1006F000D3018FE18093D401809138048093D50198
:100700001092D60180913C048093D70180913404EB
:100710008093D801A9EDB1E0E0E4F4E08EE101902E
:100720000D928150E1F7A7EFB1E0EEE5F4E08EE144
:1007300001900D928150E1F78EE1E0E4F4E0DF01F9
:10074000982F1D929A95E9F7EEE5F4E0DF011D92EE
:100750008A95E9F722ED31E085E192E0821B90E095
:100760000E94950F8091340490913504A091360435
:10077000B09137040196A11DB11D8093340490936C
:100780003504A0933604B09337048DE095E061E220
:1007900071E00E948B0A40913804509139046091B5
:1007A0003A0470913B048DE095E02AE030E00E942D
:1007B000170A8DE095E06CE271E00E948B0A8DE0F3
:1007C00095E040E050E060E070E02AE030E00E9418
:1007D000170A8DE095E062E371E00E948B0A409178
:1007E0003C0450913D0460913E0470913F048DE0C3
:1007F00095E02AE030E00E94170A8DE095E06CE277
:1008000071E00E948B0A409134045091350460914C
:100810003604709137048DE095E02AE030E00E94C4
:10082000170A8DE095E00E946309FF24F3940E946B
:100830001013882309F4BAC08091380490913904C8
:10084000A0913A04B0913B040196A11DB11D809383
:10085000380490933904A0933A04B0933B04009178
:10086000BB050F718091BB0586FD07C00E94D602B3
:10087000E02FF0E0E05CFB4F80838091BB05807E41
:10088000803859F48091BC05813039F48091BD05E0
:10089000E02FF0E0E45AFB4F80838CE993E06EE6B2
:1008A00070E00E9438096091BB058CE993E040E15B
:1008B00050E00E94260A8CE993E068E670E00E940E
:1008C00038096091BC058CE993E04AE050E00E9451
:1008D000260A8CE993E06DE371E00E948B0AE02F19
:1008E000F0E0E05CFB4F8CE993E060814AE050E08F
:1008F0000E94260A8CE993E00E9463099091BB054F
:100900008091BB05803E11F408E004C0092F0295D8
:10091000069507708091BB05813E09F408E08FE0E1
:1009200097E261E571E04FE057E20E941D0E0093EF
:10093000D2018091BA058093D3018091BB058F715C
:100940008093D4014091BC0525ED31E0EDEBF5E05D
:10095000C901BF0150E00E9469018091BC0590E08F
:1009600003960E94950F8091340490913504A091D4
:100970003604B09137040196A11DB11D8093340453
:1009800090933504A0933604B09337048FE294E03B
:1009900064E670E00E94891280913304882311F488
:1009A00083E101C0835F61E00E949A060E94760B9A
:1009B0008C010E94C40F0B32110594F18091B40197
:1009C000883071F58091B501882351F58091BF0180
:1009D000813131F580913C0490913D04A0913E0419
:1009E000B0913F040196A11DB11D80933C049093EA
:1009F0003D04A0933E04B0933F048091CB01833427
:100A000079F00E94E002882359F08CE294E064E6D9
:100A100070E00E94891283E394E061E00E941D026D
:100A20008FE294E060E070E00E94A512882351F00C
:100A300080913304882311F483E101C0835F60E077
:100A40000E949A068CE294E060E070E00E94A51299
:100A5000882329F083E394E060E00E941D0281E096
:100A6000F82682E394E06F2D0E941D021F910F91E2
:100A7000FF90089586E294E060EA7FE00E94A5126C
:100A8000882309F0FECDFF24D2CE89E294E06CEFFA
:100A900079EE0E94A512882309F01ECEC6CE982FAB
:100AA0008E3008F09E50977080915F018295880F7C
:100AB000880F807C892B80937C0080917A008064F1
:100AC00080937A0080917A0086FDFCCF2091780097
:100AD00040917900942F80E030E0282B392BC90118
:100AE00008951F920F920FB60F9211242F933F93E8
:100AF0008F939F93AF93BF938091800490918104D3
:100B0000A0918204B0918304309184040196A11DC8
:100B1000B11D232F2D5F2D3720F02D570196A11DDC
:100B2000B11D209384048093800490938104A0934A
:100B30008204B093830480917C0490917D04A09101
:100B40007E04B0917F040196A11DB11D80937C04A9
:100B500090937D04A0937E04B0937F04BF91AF91E6
:100B60009F918F913F912F910F900FBE0F901F90EB
:100B700018958FB7F89420918004309181044091AA
:100B80008204509183048FBFB901CA0108959B016B
:100B9000AC017FB7F89480917C0490917D04A09182
:100BA0007E04B0917F0466B5A89B05C06F3F19F025
:100BB0000196A11DB11D7FBFBA2FA92F982F88279D
:100BC000860F911DA11DB11D62E0880F991FAA1FFC
:100BD000BB1F6A95D1F7BC012DC0FFB7F894809177
:100BE0007C0490917D04A0917E04B0917F04E6B5D1
:100BF000A89B05C0EF3F19F00196A11DB11DFFBFD5
:100C0000BA2FA92F982F88278E0F911DA11DB11DD6
:100C1000E2E0880F991FAA1FBB1FEA95D1F7861B38
:100C2000970B885E9340C8F22150304040405040BE
:100C300068517C4F211531054105510571F6089524
:100C4000789484B5826084BD84B5816084BD85B5A7
:100C5000826085BD85B5816085BDEEE6F0E080816E
:100C600081608083E1E8F0E010828081826080838F
:100C7000808181608083E0E8F0E080818160808312
:100C8000E1EBF0E0808184608083E0EBF0E0808144
:100C900081608083EAE7F0E08081846080838081E6
:100CA000826080838081816080838081806880838E
:100CB0001092C1000895CF93DF93482F50E0CA01EE
:100CC000835A9E4FFC013491475B5E4FFA01849139
:100CD000882369F190E0880F991FFC01E55DFE4FC4
:100CE000A591B491FC01EB5CFE4FC591D4916623B4
:100CF00051F42FB7F8948C91932F909589238C936E
:100D0000888189230BC0623061F42FB7F8948C91ED
:100D1000932F909589238C938881832B88832FBF71
:100D200006C09FB7F8948C91832B8C939FBFDF9163
:100D3000CF910895482F50E0CA018F589E4FFC0173
:100D40002491CA01835A9E4FFC019491475B5E4FE8
:100D5000FA013491332309F440C0222351F12330A6
:100D600071F0243028F42130A1F0223011F514C0A4
:100D70002630B1F02730C1F02430D9F404C080917E
:100D800080008F7703C0809180008F7D80938000EA
:100D900010C084B58F7702C084B58F7D84BD09C033
:100DA0008091B0008F7703C08091B0008F7D8093D9
:100DB000B000E32FF0E0EE0FFF1FEB5CFE4FA591BC
:100DC000B4912FB7F894662321F48C9190958923E0
:100DD00002C08C91892B8C932FBF089508951F9288
:100DE0000F920FB60F9211242F933F934F938F932F
:100DF0009F93EF93FF938091C00082FD1DC04091AF
:100E0000C6002091C5043091C6042F5F3F4F2F7359
:100E100030708091C7049091C8042817390771F089
:100E2000E091C504F091C604EB57FB4F408330932B
:100E3000C6042093C50402C08091C600FF91EF91C3
:100E40009F918F914F913F912F910F900FBE0F90D7
:100E50001F901895E0911905F0911A05E05CFF4F7D
:100E60008191919120813181821B930B8F739070BE
:100E7000892B11F00E94EE0608951F920F920FB673
:100E80000F9211242F933F938F939F93EF93FF9390
:100E90002091090530910A0580910B0590910C0570
:100EA0002817390731F48091C1008F7D8093C100EC
:100EB00014C0E0910B05F0910C05E753FB4F208126
:100EC00080910B0590910C0501968F739070909313
:100ED0000C0580930B052093C600FF91EF919F9125
:100EE0008F913F912F910F900FBE0F901F901895EB
:100EF000AF92BF92DF92EF92FF920F931F93CF9327
:100F0000DF93EC017A018B01DD24403081EE58073C
:100F100080E0680780E0780711F0DD24D39491E049
:100F2000A92EB12CEC89FD89DD2069F0C50108A04E
:100F300002C0880F991F0A94E2F7808360E079E08D
:100F40008DE390E005C0108260E874E88EE190E0E7
:100F5000A80197010E942F1A215030404040504074
:100F6000569547953795279580E12030380720F032
:100F7000DD2011F0DD24D6CFE889F9893083EA89B4
:100F8000FB89208319A2EE89FF89408121E030E0AE
:100F9000C9010C8C02C0880F991F0A94E2F7482BF4
:100FA0004083EE89FF894081C9010D8C02C0880F02
:100FB000991F0A94E2F7482B4083EE89FF8940810C
:100FC000C9010E8C02C0880F991F0A94E2F7482BC2
:100FD0004083EE89FF8980810F8C02C0220F331F6E
:100FE0000A94E2F7209528232083DF91CF911F9167
:100FF0000F91FF90EF90DF90BF90AF900895DC01CC
:101000001C96ED91FC911D97E05CFF4F2191319171
:1010100080819181281B390B2F733070C90108958D
:10102000DC011C96ED91FC911D97E05CFF4F208147
:101030003181E054F040DF01AE5BBF4F8D919C9158
:1010400011972817390719F42FEF3FEF07C08D913B
:101050009C91E80FF91F8081282F30E0C901089585
:10106000DC011C96ED91FC911D97E05CFF4F208107
:101070003181E054F040DF01AE5BBF4F8D919C9118
:1010800011972817390719F42FEF3FEF10C08D91F2
:101090009C911197E80FF91F20818D919C911197D8
:1010A00001968F73907011969C938E9330E0C901D6
:1010B0000895DC0191968C919197882339F054968C
:1010C000ED91FC915597808186FFF9CF91961C9206
:1010D0000895CF93DF93EC01EE85FF85E05CFF4F31
:1010E00020813181E054F0402F5F3F4F2F733070EB
:1010F000DF01AE5BBF4F8D919C9111972817390787
:10110000D1F3E05CFF4F80819181E054F040E80F23
:10111000F91F6083EE85FF85E05CFF4F31832083FC
:10112000EE89FF89208181E090E00F8C02C0880F5A
:10113000991F0A94E2F7282B208381E089A3EC8988
:10114000FD8980818064808381E090E0DF91CF9190
:1011500008951092100510920F0588EE93E0A0E01C
:10116000B0E08093110590931205A0931305B093FE
:1011700014058CE891E090930E0580930D0585E8A9
:1011800094E090931A058093190589EC94E090936C
:101190001C0580931B0585EC90E090931E058093C1
:1011A0001D0584EC90E09093200580931F0580EC52
:1011B00090E0909322058093210581EC90E090933C
:1011C00024058093230582EC90E09093260580937C
:1011D000250586EC90E0909328058093270584E010
:1011E0008093290583E080932A0587E080932B056F
:1011F00085E080932C0581E080932D050895CF93A1
:10120000DF930E9420060E942702CAE2D7E00E94D4
:1012100033032097E1F30E942A07F9CFCF92DF92A0
:10122000EF92FF920F931F93CF93DF937C016B019B
:101230008A01C0E0D0E00FC0D6016D916D01D701E9
:10124000ED91FC910190F081E02DC7010995C80F47
:10125000D91F015010400115110571F7CE01DF9122
:10126000CF911F910F91FF90EF90DF90CF90089555
:10127000EF92FF920F931F93CF93DF937C018B012B
:10128000C0E0D0E0F8010F5F1F4F6491662359F072
:10129000D701ED91FC910190F081E02DC7010995F6
:1012A000C80FD91FEFCFCE01DF91CF911F910F91C2
:1012B000FF90EF900895DC01ED91FC910190F08199
:1012C000E02D09950895EF92FF920F931F938C01E3
:1012D000DC01ED91FC910190F081E02D6DE009952C
:1012E0007C01D801ED91FC910190F081E02DC801C5
:1012F0006AE009959C012E0D3F1DC9011F910F91B8
:10130000FF90EF900895EF92FF920F931F937C014F
:101310000E9438098C01C7010E9463099C01200FBB
:10132000311FC9011F910F91FF90EF900895CF9346
:10133000DF93EC016115710519F420E030E00FC076
:10134000DB010D900020E9F71197A61BB70BE88190
:10135000F9810280F381E02DAD0109959C01C9015D
:10136000DF91CF9108954F925F927F928F929F92DB
:10137000AF92BF92CF92DF92EF92FF920F931F93A3
:10138000DF93CF93CDB7DEB7A1970FB6F894DEBF4A
:101390000FBECDBF2C01742ECB01223008F42AE001
:1013A00019A231E2C32ED12CCC0EDD1E822E99243F
:1013B000AA24BB24672D752FA50194010E942F1A22
:1013C00079018A01C801B701A50194010E94E919B8
:1013D000472D461B0894C108D1084A3010F4405DDF
:1013E00001C0495CF6014083E114F10401051105D7
:1013F00021F07E2C5F2DC801DDCFC201B6010E9415
:101400009709A1960FB6F894DEBF0FBECDBFCF915E
:10141000DF911F910F91FF90EF90DF90CF90BF90E1
:10142000AF909F908F907F905F904F900895DC01D8
:101430002115310541F4ED91FC910190F081E02DF1
:10144000642F099508950E94B3090895EF92FF92C1
:101450000F931F939A01E62EFF2400E010E0B801DD
:10146000A7010E94170A1F910F91FF90EF90089516
:10147000CF92DF92EF92FF920F931F93CF93DF9360
:10148000EC016A017B012115310541F4E881F98104
:101490000190F081E02D642F09951FC02A3031059D
:1014A000D1F477FF17C0E881F9810190F081E02D38
:1014B0006DE209958C0144275527BA014C195D0945
:1014C0006E097F09CE012AE00E94B3099801280F16
:1014D000391F04C02AE00E94B3099C01C901DF91B1
:1014E000CF911F910F91FF90EF90DF90CF900895D3
:1014F000EF92FF920F931F937B019A010027F7FC55
:101500000095102FB801A7010E94380A1F910F9172
:10151000FF90EF9008950E9497090895EF92FF922F
:101520000F931F937C010E9497098C01C7010E94B1
:101530006309080F191FC8011F910F91FF90EF90C9
:1015400008958091310561E00E949A06789408958B
:10155000FF920F931F93082F162FF42EF89480916B
:10156000310560E00E949A061F71102B1EBD0DB45C
:1015700007FEFDCFFEBC0DB407FEFDCF0E94A10A01
:101580001F910F91FF9008951F93182F282F30E07F
:10159000207630708091320590E02817390799F055
:1015A00080EA6FE143E00E94A80A412F4076409311
:1015B000320550E085E0559547958A95E1F780E83A
:1015C0006FE10E94A80A1F9108950F931F93182F8F
:1015D000062F0E94C40A80E4612F402F0E94A80AAF
:1015E0001F910F9108950F931F93182F072F0E949B
:1015F000E50A812F8F5F602F0E94E50A1F910F91EE
:10160000089588E360EB0E94E50A089588E361EBA2
:101610000E94E50A08950F931F93182F062FF89440
:101620008091310560E00E949A06802F8F71812B96
:101630008EBD0DB407FEFDCF1EBC0DB407FEFDCF61
:1016400007FF04C01EBC0DB407FEFDCF1EB50E94EF
:10165000A10A812F1F910F9108951F93182F0E94A7
:10166000C40A80E0612F0E940B0B1F91089584ED46
:1016700061E10E94E50A82ED61E00E94E50A8AEEDE
:101680000E942D0B80FDFBCF82ED60E00E94E50AF9
:1016900089ED0E942D0B90E09695879596958795FC
:1016A000817008950F931F93CF93DF93EC018B010B
:1016B000F8948091310560E00E949A068AE38EBD1D
:1016C0000DB407FEFDCF09C01EBC0DB407FEFDCF53
:1016D0008EB5F80181938F0121972097A9F70E9479
:1016E000A10ADF91CF911F910F9108950F931F933E
:1016F000DF93CF9300D000D000D0CDB7DEB789E321
:101700000E942D0B882319F400E010E048C060917E
:1017100033057091340580E00E94F30A86E090E082
:10172000BE016F5F7F4F0E94520B89819A81909317
:101730003405809333052B813C81E0912F05F09196
:1017400030058D8187FD03C000E010E00EC02450FD
:1017500030408F01015010402017310708F48901F3
:10176000C80168EA71E00E94520BF801E855FE4F8B
:10177000108260913305709134058CE061307807F8
:1017800024F08CE06FEF7BE003C0615070408CE090
:101790000E94F30A80E86EE140E40E94A80AC801B2
:1017A00026960FB6F894DEBF0FBECDBFCF91DF9166
:1017B0001F910F9108950F931F93CF93DF938C0187
:1017C000EB01F8948091310560E00E949A068AE767
:1017D0008EBD0DB407FEFDCF08C088818EBD0DB44F
:1017E00007FEFDCF21960150104001151105A9F704
:1017F0000E94A10ADF91CF911F910F9108958AE075
:1018000061E00E945B068AE061E00E949A068BE03C
:1018100061E00E945B068DE061E00E945B068CE067
:1018200060E00E945B068BE061E00E949A068BE01C
:1018300060E00E949A068DE060E00E949A0680E5D2
:101840008CBD8DB581608DBD08951F93CF93DF93BF
:10185000EB01142F9093300580932F050CB406FCF8
:1018600002C00E94FF0B10933105812F61E00E949E
:101870005B060E94A10A8FEF60E04FEF0E94A80A6A
:1018800062E070E080E090E00E94C70580E06DE1DA
:101890000E940B0B8823D1F310923405109233056C
:1018A00088E060E070E00E94F30A8CE060E070E0A5
:1018B0000E94F30A8AE06FEF7BE00E94F30A84E063
:1018C00060E07CE00E94F30A86E06FEF71E10E9425
:1018D000F30A0E94060B88E26FE370E30E94F30AAA
:1018E00080E369EF77EF0E94F30A80EC6DE00E94DD
:1018F000E50A81EC60E00E94E50A80E862EC42E3E0
:101900000E94A80A86EC62E17CE00E94F30A84EC63
:1019100062E10E94E50A8AEC6CED75E00E94F30A30
:1019200084EE68810E94E50A85EE69810E94E50ADD
:1019300082EE6A810E94E50A83EE6B810E94E50ACD
:1019400080EE6C810E94E50A81EE6D810E94E50ABD
:1019500084ED60E10E94E50A86ED60E071E00E949E
:10196000F30A8AEE0E942D0B80FDFBCF8FE10E94CF
:10197000C40A80E86BE140EC0E94A80A80E86FE1AD
:1019800044E00E94A80A82E70E942D0B863008F0EE
:101990008F5FDF91CF911F910895CF93DF93EC017B
:1019A00015C08CE10E942D0B81FF10C08DE095E0E9
:1019B00064E471E00E948E0A80E86FE140E80E94D2
:1019C000A80A80EA6FE140E80E94A80A80E06FE17F
:1019D0000E940B0B83FDE5CF82E060E07CE00E947B
:1019E000F30ABE016050744F86E00E94F30A8AE752
:1019F00060E040E00E94A80ACE0168EA71E00E941F
:101A0000DB0B80E86FE148E00E94A80ADF91CF91EC
:101A100008950F931F93CF93DF939C01EB018A01ED
:101A200010927305009729F08BE595E0B9010E94AB
:101A30007D12209719F0CE010E94830E0115110529
:101A400029F08BE695E0B8010E947D1281E0DF91DC
:101A5000CF911F910F910895AF92BF92CF92DF92D5
:101A6000FF920F931F93CF93DF938C01EB01F42E22
:101A70001092730538E341E050E060E070E018C078
:101A8000832F90E0FC01B3E0F595E795BA95E1F777
:101A9000EB5CFA4F877090705A016B0104C0AA0C7E
:101AA000BB1CCC1CDD1C8A95D2F720812A292083FF
:101AB000315031F785E595E0BE010E947512C801ED
:101AC00065E575E04F2D0E94250CDF91CF911F91A8
:101AD0000F91FF90DF90CF90BF90AF900895DF926D
:101AE000EF92FF920F931F93CF93DF93D82E862F01
:101AF000BA01213041F4675F7F4F9B0140E050E025
:101B0000695070400EC0223029F020E030E040E003
:101B100050E007C0625070409B0140E050E06E5FB3
:101B20007F4FE82EFF2488EA91E0E80EF91E8B0132
:101B3000E7010FC0F881E0E0898190E08E2B9F2BB8
:101B4000A0E0B0E0280F391F4A1F5B1F2296025009
:101B500010400230110570F7CB018E7FD701A80F1E
:101B6000B91F6817790779F08C9190E0A0E0B0E098
:101B7000BA2FA92F982F882702C040E050E0280FE5
:101B8000391F4A1F5B1FCA01AA27BB270097A1055F
:101B9000B10599F7C90180959095ED2DF0E0E855D4
:101BA000FE4F90838183DF91CF911F910F91FF9022
:101BB000EF90DF9008951092C0011092C10180E46F
:101BC0008093BC011092BD018093BE0188E16EE05C
:101BD00044E150E020E00E946F0D0895809175056A
:101BE00086958095817008950F931F93BC0108EA34
:101BF00011E0C8010E947512C801069665E575E0FE
:101C00000E9475121F910F910895EF92FF920F930A
:101C10001F937B010E94F40D06EC11E0C801B7018F
:101C20000E947D12C80104976BE575E00E947D1249
:101C30001F910F91FF90EF900895EF92FF920F93F5
:101C40001F93CF93DF937C01EB018A0180E895E03D
:101C50000E94050E8881807F803E49F088819981AD
:101C6000AA81BB818F5F9F4FAF4FBF4F31F488EA8E
:101C700091E068E971E00E94751288E08093B401F8
:101C80001092B50186EB91E06DE871E049E050E01B
:101C90000E9453011092B80181E18093BF0110931B
:101CA000CC010093CD01F092CA01E092CB011092D9
:101CB000CE011092D0011092D101DF91CF911F91EE
:101CC0000F91FF90EF900895EF92FF920F931F9363
:101CD0000EEA11E0C8010E94F40D74E1E72EF12C28
:101CE000E00EF11EC8014896B7010E947D12C7019F
:101CF0006BE575E00E947D120E94DB0D1F910F9134
:101D0000FF90EF900895BC0181E08093750583E614
:101D100095E00E947D1208950F931F938C01889681
:101D20009093B8018093B9010E94DB0D1092DA0103
:101D30001092DB01045E1F4F82E36AE1A80122E0FA
:101D40000E946F0DC8014A960E94CD0C1F910F9101
:101D50000895CF93DF939C01862F80618093D701F4
:101D6000643029F02115310511F421E030E0909123
:101D7000CC018091CA018093CC019093CA019091CB
:101D8000CD018091CB018093CD019093CB01C1ED2A
:101D9000D1E08881A901480F511D2C814C832883F3
:101DA000252F3327219751E0CD3CD50791F71D868C
:101DB0001E8680E589871092B80188E28093B90178
:101DC0000E94640E84E08B871C8682E36AE14CE10A
:101DD00050E022E00E946F0D86E390E00E94CD0C5F
:101DE000DF91CF910895E82FA091B801B091B9018A
:101DF000F091D6014091CC0150E0292F30E04217FC
:101E0000530709F08EC08091CD018E1709F089C06B
:101E10008091D701E82F81FF4EC01092B8018CE26B
:101E20008093B9010E94640E82E18093D701909162
:101E3000CC018091CA018093CC019093CA0190910A
:101E4000CD018091CB018093CD019093CB01E1ED49
:101E5000F1E021E030E08081A901480F511D448369
:101E60001082252F3327319751E0ED3CF50799F784
:101E700015861686118212828091650183831482F1
:101E80008D5F8093650182E0818B84E0828B95E099
:101E9000938B148A80E68187938788E7848782E31F
:101EA0006AE140E250E022E00E946F0D8AE390E098
:101EB0000E94CD0C36C084FF34C04F2F50E084E028
:101EC000559547958A95E1F79A2F80E02B2F30E0C2
:101ED000282B392BCA01880F991F880F991F281B9F
:101EE000390B2451304037FF02C020E030E03093FE
:101EF000870520938605232B69F09A01220F331F53
:101F0000220F331F2E5D3F4F6850704062177307DA
:101F100040F009C0E0FF05C080E090E060E00E9472
:101F2000A90E20E030E0C90108950F931F93DF93BD
:101F3000CF930F92CDB7DEB78C01045E1F4F109385
:101F4000B8010C511040802F845E8093B9018983C1
:101F50000E94DB0D085F1F4F1093CE0189818451D1
:101F60008093CF01085F1F4F88E26AE1A80121E05A
:101F70000E946F0DC8014A960E94CD0C0F90CF9120
:101F8000DF911F910F910895DF92EF92FF920F93CF
:101F90001F93CF93DF93EC0180917305882319F091
:101FA000CE010E949218209709F0C3C08091750558
:101FB0008570F1F18091620190916301892BC1F5E7
:101FC0000E94370B8823A1F188E991E00E94F40D6B
:101FD00088E08093B401A6E0FA2EF092B50186EB7A
:101FE00091E065E871E048E050E00E94530108ECA0
:101FF00011E0D8011D92FA94E9F7C8010A9765E546
:1020000075E00E947512C801069663E675E00E94AD
:102010007D12C80104976BE575E00E947D128091E6
:1020200075058860809375058AE290E00E94CD0C6A
:102030000E94370B882349F08091620190916301DF
:1020400001969093630180936201809176058130BF
:1020500009F0EFC18091750581FFEBC102E00093AB
:102060007605809164018F5F809364018F71109178
:1020700077051295110F107E182BE0907805D090FF
:10208000790580E895E06FE675E00E94050EF8E0BE
:10209000FF2EF092B4011092B50186EB91E06DE84D
:1020A00071E049E050E00E9453018CE28093B90155
:1020B00086E08093BF010E94DB0DE092CC01D092BC
:1020C000CD018BE08093CA011093CB01EEECF1E0DF
:1020D000DF011D92FA94E9F7809165018093D001A8
:1020E0008D5F8093650180E68093D6010093D701D0
:1020F00083E08093D8011092D9011092DA011092F6
:10210000DB011092DC011092DD010093DE0184E01E
:102110008093DF010093E00186E28093E10182E396
:102120006AE140E250E022E00E946F0D8AE390E015
:102130009BC0C932D10508F47CC11091B40118309C
:1021400009F082C18091B501863009F07DC18EEC25
:1021500091E06BE575E044E050E00E945C0100977F
:1021600009F072C18091BD01813029F58EEA91E0BC
:102170000E94F40D1092BC0182E08093BD0188ECB6
:1021800091E06EEB71E00E9475128EEB91E065E5D7
:1021900075E00E9475128EEC91E064EC71E00E9493
:1021A0007D1284EC91E06BE575E00E947D128AE27D
:1021B00090E00E94CD0C8091750583FF3AC110918B
:1021C000BD01123009F035C184EC91E063E675E0A1
:1021D00044E050E00E945C01009709F02AC180E8C9
:1021E00095E06EEB71E00E9475121093750521C1A8
:1021F000183009F01EC18091B501882309F019C17A
:102200008091B601853409F014C186EC91E06BE54C
:1022100075E044E050E00E945C01009709F009C1BC
:102220008091BF01813019F58091CA018830F9F49D
:10223000E0917A05F0917B05309719F082EC91E0FE
:1022400009950E94640E1092CA018091CC01883FCA
:1022500028F08091CD018F5F8093CD018091CC01DA
:10226000885F8093CC01CE010E94CD0CE2C00E9419
:102270002912882351F08091BF01813131F4CE01C0
:102280000E942E12882309F0D4C0C633D10528F449
:102290008091BF01863009F0CCC08091CC018B3099
:1022A00009F0BEC082EC91E06FE675E044E050E0DA
:1022B0000E945C01009709F0BCC08091D701382FC3
:1022C00082FF13C0E0917C05F0917D05309759F0B5
:1022D0008091CD0182958695877063E040E050E063
:1022E00020E030E0099585E090C09091B80180E051
:1022F0002091B901022F10E0082B192B8091D601F3
:10230000482F50E0E4E055954795EA95E1F7CA017A
:10231000880F991F880F991F081B190B0451104033
:1023200017FF02C000E010E080917605823079F559
:1023300031FF21C034FF1FC080E090E060E00E94C8
:10234000A90E88E18093D701E0917E05F0917F0589
:10235000309719F420E030E007C08091CB018295DE
:102360008695877009959C0183E080937605C90165
:102370000E948C0E5EC081E08093760534FF03C01E
:1023800080E090E002C0C801019664E046C083305E
:1023900081F50115110579F1E0917C05F0917D053C
:1023A000309749F1440F551F440F551FCE01089730
:1023B0004E5D5F4F8417950708F4AC01C801840F88
:1023C000951FC817D90710F0980103C09E01241B60
:1023D000350B8091CD0182958695877060E00995D7
:1023E00080917405882319F0C80168E016C0C801FF
:1023F00008C08530F1F030FF0BC08330D1F0C80148
:10240000019669E00E94A90E86E08093760511C0CE
:102410000115110571F0C80160E00E94A90E09C004
:102420008091600190916101BE010E94F30E9C01B8
:1024300002C020E030E0C901DF91CF911F910F91E0
:10244000FF90EF90DF900895CA32D10508F0D0CE0A
:10245000F0CF8091B005811181E00895CF92DF9295
:10246000EF92FF920F931F93CF93DF93C8E8D5E0CD
:1024700030E0CC24DD2429C02A814B818091CC011D
:1024800090E0042F10E080179107D9F49091CD01CE
:102490009217B9F48C818823A1F02091CF0130E00C
:1024A00028503040F090CE01EE242E0D3F1DE881E3
:1024B000F981892F942F62EC71E042ED51E009958A
:1024C00031E00894C11CD11C25968091B00590E0A4
:1024D000C816D9068CF2832FDF91CF911F910F91EF
:1024E000FF90EF90DF90CF900895DC01FB0186E034
:1024F00001900D928150E1F708959C01FB018081CC
:102500009181A281B381F90180839183A283B383F6
:1025100008950F931F93CF93DF938C01EB0180E01D
:102520006115710509F081E0F8018283882341F08B
:102530000E94B9052197C60FD71FF801D183C08328
:10254000DF91CF911F910F910895EF92FF920F931A
:102550001F93CF93DF93EC017B018A81882311F4D1
:1025600000E00FC0088119810E94B905C801861BCF
:10257000970B2AEE8136920710F400E006C0082F70
:102580000195CE01B7010E948912802FDF91CF9172
:102590001F910F91FF90EF900895782FE89865B103
:1025A00021E030E040E050E00090660104C0220FDE
:1025B000331F441F551F0A94D2F7322F822F809564
:1025C000862385B99EBD0DB407FEFDCF4EB57EBDF9
:1025D0000DB407FEFDCF2EB5942F80E045B1342B0E
:1025E00035B9E89A30E0282B392BC901089580913C
:1025F000B1059091B2058F709093B2058093B105AB
:102600008091B1059091B20588609093B205809356
:10261000B1058091B1059091B2050E94CD12089547
:1026200080910806873009F059C090910C069923D3
:1026300099F080910B06891728F480910B06873456
:1026400008F44CC084E08093080681E090E0909309
:10265000B9058093B8059AC08091BC0520910B06FE
:1026600090E0049630E08217930724F080910B06E7
:102670008734A0F184E0809308068091BC05833400
:1026800030F081E090E09093B9058093B805809197
:10269000BB0586FF12C080910706282F30E0C901D4
:1026A0008F7190704F9749F08091BB0590E0822721
:1026B00093278F719070892B89F48091B805909140
:1026C000B905892B09F056C0E0910506F091060680
:1026D000309709F44FC080E0099558C080910806F2
:1026E000843011F080E008951092BC058091BC0503
:1026F00080930B068FEF9FEF9093B9058093B805F9
:10270000209109062223D9F08227282F22952827F5
:10271000022E269526952025022E26952025277007
:10272000082E892F269507942795902D82270694A9
:102730002795902582279093B9058093B80587E067
:102740008093080681E08093B60583EA94E90E94AD
:10275000CD128091B1059091B205886D9093B2052C
:102760008093B1058091B1059091B2050E94CD1280
:1027700080E008958FEF9FEFAFEFBFEF80930106EA
:1027800090930206A0930306B093040681E0089597
:102790000F931F93082F10E0C801966C0E94CD1272
:1027A00098012F7730702F5F3F4F442737FD4095BA
:1027B000542F6BEF72E485E090E00E942F1ACA015B
:1027C000B901000F012F001F110B980143E0220FE8
:1027D000331F4A95E1F7201B310B2F5F3F4F4427F2
:1027E00037FD4095542F0E942F1A93E05695479538
:1027F000379527959A95D1F72D573C4F4F4F5F4FFF
:10280000CA01B90124E833E040E050E00E942F1AE9
:102810002093B7051F910F91089580910806843089
:1028200069F080910806873059F480910B0688235F
:1028300039F40E94F71284E08093080681E008953D
:1028400080E00895982F86FD05C0907E8091070650
:102850008F71980F9093BB05E0910506F0910606E5
:10286000309711F081E009958FEF9FEF9093B905B4
:102870008093B8058091B8059091B905209109061B
:102880008227282F22952827022E26952695202557
:10289000022E269520252770082E892F269507942D
:1028A0002795902D8227069427959025822790932F
:1028B000B9058093B80588E0809308068091B1053A
:1028C0009091B20588639093B2058093B105809191
:1028D000B1059091B2050E94CD120895DF92EF925A
:1028E000FF920F931F937B018C01DD2405C0D394CD
:1028F00016950795F794E7948FEFE816F104010514
:10290000110509F0A0F78091B1059091B20581FF02
:102910000FC08091B1059091B2058D7F9093B20563
:102920008093B1058091B1059091B2050E94CD12BE
:10293000E114F10401051105B9F0C701906E3D2DB8
:1029400020E0822B932B0E94CD128091B1059091B3
:10295000B20582609093B2058093B1058091B10574
:102960009091B2050E94CD121F910F91FF90EF90B0
:10297000DF900895E89885B121E030E040E050E034
:102980000090660104C0220F331F441F551F0A9494
:10299000D2F7322F922F9095982395B91EBC0DB483
:1029A00007FEFDCF6EB51EBC0DB407FEFDCF2EB5E4
:1029B000962F80E0622F70E0682B792B77FF0FC095
:1029C00080910806873059F48CB581608CBD1EBC9F
:1029D0000DB407FEFDCF2EB58CB58E7F8CBD85B1B5
:1029E000382B35B9E89A7093B4056093B30580919C
:1029F000B3059091B40597FFECC08091080687302D
:102A000009F082C080910B06882371F49091090629
:102A1000992351F080910B06E82FF0E0E654FA4F2D
:102A200090838F5F80930B0680910B06E82FF0E078
:102A3000E654FA4F20838F5F80930B068091B80590
:102A40009091B9058227282F22952827022E2695B6
:102A500026952025022E269520252770082E892FC1
:102A6000269507942795902D8227069427959025E3
:102A700082279093B9058093B8052091B60523303D
:102A800040F580910B0690E06091B705029770E0E9
:102A90000E941C1A892BE9F48091B3059091B4052A
:102AA000E22FF0E090FF04C0E256FE4F808104C0A8
:102AB000E256FE4F808182958F708093B6058330F9
:102AC00040F490E0880F991F0196806A94690E94F3
:102AD000CD1290910C06992329F080910B0689174D
:102AE00080F40AC08091BC0520910B0690E004960A
:102AF00030E0821793072CF080910B06873408F49E
:102B000068C00E94F71265C08091080687FF2EC03A
:102B1000E091BC05809108068F5F80930806815084
:102B2000ED5FE80FF0E0E654FA4FE0818091B805E0
:102B30009091B9058E27282F22952827022E2695B9
:102B400026952025022E269520252770082E892FD0
:102B5000269507942795902D8227069427959025F2
:102B600082279093B9058093B8052EC080910806FE
:102B70008F5F809308068150833019F184302CF4E4
:102B8000882399F08130F9F416C08B3019F08C301D
:102B9000D1F402C0EDE218C0E09109069091BC05A5
:102BA0008EEF891B809308060FC08091B805909125
:102BB000B905E82F09C08091B8059091B905E92FB2
:102BC00003C00E94F712EAEA8E2F90E0986B0E94F1
:102BD000CD128091B3059091B40596FF03C086E0B5
:102BE000809308068091B3059091B40594FF09C0C5
:102BF00060E070E080E090E00E946E1481E08093DD
:102C0000B5058091B3059091B40595FF05C00E946C
:102C1000F71284E08093080608951F93182F4093BD
:102C2000BC052DEB35E0C90150E00E946901812F00
:102C30000E9422141F9108950F931F93CF93DF9347
:102C4000182FEB01042F02C00E9410130E940D14D4
:102C50008823D1F3812FBE01402F0E940D16DF91F2
:102C6000CF911F910F9108958091070690E08F7189
:102C70009070892B41F080E06AEB74E140E050E015
:102C80000E941517089580E00E94381708951F9339
:102C9000809307064093090660930A060E94341643
:102CA00010920C06E89885E092E89093B205809324
:102CB000B1058091B1059091B2050E94CD1280912D
:102CC0000A0690E074E0880F991F7A95E1F7876C07
:102CD00090680E94CD1280E496EA0E94CD1286E0B0
:102CE0000E94C81382EA94E90E94CD128CEA92EC09
:102CF0000E94CD1210910906112341F083E89AEC4D
:102D00000E94CD12812F90E09E6C06C08BE89AEC59
:102D10000E94CD128DE29EEC0E94CD1283E894ECCD
:102D20000E94CD1280E598E90E94CD1287E79CECC5
:102D30000E94CD1280E090EE0E94CD1280E098ECCF
:102D40000E94CD1289E490EC0E94CD1284E0809321
:102D50000806E89A1F91089525B181E090E0A0E06F
:102D6000B0E00090660104C0880F991FAA1FBB1F26
:102D70000A94D2F7282B25B924B1822B84B98AE092
:102D800061E00E949A068AE061E00E945B068BE0A7
:102D900061E00E945B068CE060E00E945B068DE0D3
:102DA00061E00E945B0680E58CBD8DB581608DBDC4
:102DB00082E060E00E945B0682E061E00E949A0689
:102DC0000895FF920F931F93182F062FF42E8093D0
:102DD00007064093090660930A060E94AC160E94FB
:102DE000341682E89AEC0E94CD1280E09EEF0E9499
:102DF000CD1285E08093080683B7817F06C083B734
:102E0000816083BF889583B78E7F83BF80910806DA
:102E10008530A9F3812F602F4F2D0E944716809196
:102E200007061F910F91FF900895823000F5E82F5B
:102E3000F0E0EE0FFF1FE35FF94F7183608388239B
:102E400019F08130A1F408C0809169008C7F842B37
:102E500080936900E89A089580916900440F551F96
:102E6000440F551F837F842B80936900E99A08954E
:102E7000823080F4882319F0813021F402C0E89870
:102E800001C0E998E82FF0E0EE0FFF1FE35FF94F74
:102E90001182108208951F920F920FB60F92112483
:102EA0002F933F934F935F936F937F938F939F9352
:102EB000AF93BF93EF93FF9380910D0690910E0611
:102EC000892B29F0E0910D06F0910E060995FF91EE
:102ED000EF91BF91AF919F918F917F916F915F9192
:102EE0004F913F912F910F900FBE0F901F9018950B
:102EF0001F920F920FB60F9211242F933F934F936F
:102F00005F936F937F938F939F93AF93BF93EF9351
:102F1000FF9380910F0690911006892B29F0E09184
:102F20000F06F09110060995FF91EF91BF91AF91B7
:102F30009F918F917F916F915F914F913F912F91D1
:102F40000F900FBE0F901F901895DF93CF9300D076
:102F500000D000D0CDB7DEB7DE011196E1EAF1E096
:102F600086E001900D928150E1F786E191E0E8EA78
:102F7000F1E0DF019C011D9221503040E1F780918A
:102F80001106833019F467E675E003C0BE016F5F78
:102F90007F4F84E490E043E450E00E941D0E809156
:102FA0001106833039F088EA91E0BE016F5F7F4FF0
:102FB0000E94751281E08093D2018093D30186E054
:102FC0008093D40180911E0690911F06A091200647
:102FD000B09121068093D6019093D701A093D80198
:102FE000B093D90180911106833039F482ED91E0DC
:102FF0000C966BE575E00E947D128EEE91E065E522
:1030000075E00E947512AEEBB2E0E8E7F1E002C0B5
:1030100081918D9331E0EE37F307D1F7909111064E
:10302000992311F083E001C081E08093C4028DE315
:103030008093C50287E08093C60281E08093C70237
:10304000A8ECB2E0E5E5F5E002C081918D9385E062
:10305000EB35F807D1F78CE08093CE028AE08093BD
:10306000CF02A0EDB2E0E7E6F1E002C081918D93DE
:1030700021E0E137F207D1F72AED32E03093230661
:1030800020932206913069F582E38093DA0284E08E
:103090008093DB02D9011296EBE5F5E002C0819145
:1030A0008D9335E0EF35F307D1F786E38093E002A7
:1030B00084E08093E10282EE92E090932306809375
:1030C0002206DC01E7E6F5E002C081918D9385E000
:1030D000EB36F807D1F786EE92E0909323068093C3
:1030E00022062091220630912306D901E2E7F1E081
:1030F00002C081918D9381E0E837F807D1F7C901CB
:1031000006969093230680932206825D91400E944A
:10311000950F26960FB6F894DEBF0FBECDBFCF91A8
:10312000DF910895EF92FF920F931F93CF93DF9358
:10313000EC0180911106823009F4E0C0833030F454
:10314000882351F1813009F03DC14AC0833021F01C
:10315000843009F037C1D2C00E94B905209116060B
:10316000309117064091180650911906E09012060A
:10317000F090130600911406109115062E0D3F1DB8
:10318000401F511F621773078407950708F41AC17F
:103190000E94A51784E017C00E94B90560931E061F
:1031A00070931F06809320069093210610925B0572
:1031B00010925C0510925D0510925E050E94A517A5
:1031C0000E94060B81E0809311060E94B90560936E
:1031D0001A0670931B0680931C0690931D06F2C07E
:1031E000C634D10508F4B2C08091CB01833409F014
:1031F000ADC08091D201823009F0A8C02091D601E3
:103200003091D7014091D8015091D90180911E068B
:1032100090911F06A0912006B0912106281739072A
:103220004A075B0709F092C08091C202853309F01A
:103230008DC08091C402823009F088C0A6C0DF0131
:103240001196E180ED01219680818630A9F08730CA
:1032500030F4813059F0833009F045C00AC086331C
:10326000E9F18A3361F08333F1F509C08FE595E028
:1032700037C083E695E034C08BE695E031C0119607
:103280006C9170E080E090E0982F872F762F662772
:103290002981620F711D811D911D982F872F762F17
:1032A00066272A81620F711D811D911D982F872F1E
:1032B000762F66272B81620F711D811D911D28EECF
:1032C00033E040E050E00E94E919609316067093E5
:1032D0001706809318069093190605C087E695E0B7
:1032E000BE010E947D12FE01EE0DF11DE017F107F7
:1032F00008F4A5CF0E94A51782E065CFC634D1059A
:1033000028F18091CB01833409F58091D20182307C
:10331000E9F42091D6013091D7014091D801509124
:10332000D90180911E0690911F06A0912006B091B0
:103330002106281739074A075B0741F48091C2022A
:10334000853321F48091C402853059F10E94B9057A
:1033500020911A0630911B0640911C0650911D06C3
:10336000205F384D4F4F5F4F2617370748075907E3
:1033700048F028C083E695E00E94830E83E08093A6
:10338000110620C0109211061DC08BE595E062EE7B
:1033900071E00E947D12E2ECF2E08E0108551E4FB2
:1033A0004ECF0E94010B0E94B905609312067093E4
:1033B0001306809314069093150680916305882365
:1033C000E9F2D8CFDF91CF911F910F91FF90EF904D
:1033D0000895629FD001739FF001829FE00DF11D5F
:1033E000649FE00DF11D929FF00D839FF00D749F7F
:1033F000F00D659FF00D9927729FB00DE11DF91F2B
:10340000639FB00DE11DF91FBD01CF011124089587
:10341000AA1BBB1B51E107C0AA1FBB1FA617B707FA
:1034200010F0A61BB70B881F991F5A95A9F7809516
:103430009095BC01CD01089597FB092E07260AD06F
:1034400077FD04D0E5DF06D000201AF47095619571
:103450007F4F0895F6F7909581959F4F0895A1E2CB
:103460001A2EAA1BBB1BFD010DC0AA1FBB1FEE1FFE
:10347000FF1FA217B307E407F50720F0A21BB30B49
:10348000E40BF50B661F771F881F991F1A9469F7C5
:1034900060957095809590959B01AC01BD01CF0121
:1034A0000895EE0FFF1F0590F491E02D0994F89414
:0234B000FFCF4C
:1034B2004D41433A20002900444F574E00555000D9
:1034C2002047573A004F4B0057414954344152501C
:1034D20000524631323A207263763D0020736E64A8
:1034E2003D00204554483A207263763D00207273B5
:1034F20073693D00457468205458206572726F727A
:1035020000C0A800037469692D3033C0A8001901F6
:103512005000F6FF010A0241726475696E6F2D3028
:1035220030003703010306FF638253633501000055
:10353200000008020E098B010000000069080E0954
:10354200FF07300810085908FFFFFFFFFFFF340292
:0835520056FFFFFFFFFFFF0021
:00000001FF
