:100000000C941E010C9408170C9435170C9446019F
:100010000C9446010C9446010C9446010C94460144
:100020000C9446010C9446010C9446010C94460134
:100030000C9446010C9446010C9446010C94460124
:100040000C940F050C9446010C948D060C94DB0661
:100050000C9446010C9446010C9446010C94460104
:100060000C9446010C944601455448206C696E6B13
:100070003A002A2A2A2A2A2052554E4E494E473AF9
:1000800020726631322D7564702D67772E696E6F20
:10009000004661696C656420746F206163636573F9
:1000A000732045746865726E657420636F6E747238
:1000B0006F6C6C657200524631323A2062002A2A17
:1000C0002A2A2A2053455455503A20726631322D3F
:1000D0007564702D67772E696E6F0020286D79200A
:1000E00067726F7570206973203078005544503AFC
:1000F0002043616E6E6F7420666F72776172642048
:100100006D65737361676520666F722067726F75C6
:10011000702030780000000000240027002A000032
:10012000000000250028002B00000000002300260E
:10013000002900040404040404040402020202026C
:10014000020303030303030102040810204080019B
:10015000020408102001020408102000000007001B
:10016000020100000304060000000000000000007F
:100170000108000604000145000082000040002044
:10018000504F535420244620485454502F312E3081
:100190000D0A486F73743A2024460D0A24462453EE
:1001A0004163636570743A202A2F2A0D0A436F6EEB
:1001B00074656E742D4C656E6774683A2024440D26
:1001C0000A436F6E74656E742D547970653A2061C0
:1001D00070706C69636174696F6E2F782D777777B3
:1001E0002D666F726D2D75726C656E636F646564DC
:1001F0000D0A0D0A24530047455420244624532059
:10020000485454502F312E300D0A486F73743A20E1
:1002100024460D0A24460D0A0D0A004163636570E9
:10022000743A20746578742F68746D6C00E3000470
:10023000FA000100000001006701470811241FBEF9
:10024000CFEFD8E0DEBFCDBF11E0A0E0B1E0ECE23F
:10025000F4E302C005900D92AA38B107D9F716E071
:10026000AAE8B1E001C01D92A630B107E1F712E0A3
:10027000CCE3D2E004C02297FE010E94101AC833DA
:10028000D107C9F70E949D080C94141A0C94000021
:10029000FB01DC0102C005900D9241505040D8F79F
:1002A0000895FB01DC0104C08D910190801921F4B7
:1002B00041505040C8F7881B990B0895FB01DC01A1
:1002C00002C001900D9241505040D8F7089510920D
:1002D0000A0410920D04109210041092130484E08A
:1002E0008093140483E0809315041092810310928C
:1002F000800385E691E090937F0380937E030895C9
:10030000EF92FF920F931F93F62EE72E042F8FE0AC
:1003100097E264E371E04FE057E20E94DA0D89E072
:100320008093B40184ED8093B5018FE18093B60191
:1003300027EB31E0C9016F2D7E2D402F50E00E9448
:100340005E0110E0C80103960E94520F80911604CE
:1003500090911704A0911804B09119040196A11D61
:10036000B11D8093160490931704A0931804B093C2
:1003700019041F910F91FF90EF900895EF92FF9253
:100380000F931F93CF93DF93EC018C0107571F4FFF
:10039000D8018C91FE01E80FF11D148284E0E82E53
:1003A000F12CEC0EFD1E8FEE94E0B7010E94480A7E
:1003B000F8010081002359F0FE01E00FF11D838157
:1003C0008A3029F48FEE94E06DE00E94F908E8810C
:1003D000F9818E0107571F4F0480F581E02DCE0172
:1003E000B701D8014C910995F8011082DF91CF91A6
:1003F0001F910F91FF90EF9008959C01DC01A7578A
:10040000BF4F8C91F901E80FF11D64838F5F8C93CE
:10041000843810F46A3019F4C9010E94BE0181E0E9
:1004200090E00895FC018081882311F482E101C0ED
:100430008D5F0E9438060895CF93DF938FEE94E08E
:1004400040E051EE60E070E00E9416078FEE94E00D
:100450006EEB70E00E94210980911504882311F44D
:1004600083E101C0835F61E00E94F905809115047A
:10047000882311F483E101C0835F61E00E943806A4
:1004800080911504882311F482E101C08D5F61E041
:100490000E94F90585E194E061E00E9412028091DA
:1004A0001404882311F482E101C08D5F61E00E9491
:1004B000F90584E194E061E00E94120264EF71E0CA
:1004C00080E090E00E9465058FEE94E066EB70E0BE
:1004D0000E94D6088FEE94E063E070E04AE050E0BE
:1004E0000E94160A8FEE94E060E071E00E94480AD4
:1004F0008FEE94E064ED70E04AE050E00E94160A4E
:100500008FEE94E063E071E00E94480A8FEE94E081
:100510006FE170E04AE050E00E94290A8FE163E059
:1005200044ED0E949E168FEE94E066E071E00E941A
:10053000480AC0E0D0E0FE01E85CFE4F8FEE94E098
:10054000608140E150E00E94C409C53029F08FEE7F
:1005500094E06AE30E94F9082196C630D10559F764
:100560008FEE94E00E9401090CC08FEE94E061E9E7
:1005700070E00E94210968EE73E080E090E00E9444
:10058000650584EF91E068E371E048E00E94E90CC2
:10059000882359F38EE391E064E371E0AB010E949C
:1005A000C60C88E094E06CE474E00E9462128BE078
:1005B00094E068EE73E00E9462128FEE94E062E7CE
:1005C00070E00E94210980911504882311F483E1D1
:1005D00001C0835F60E00E94380685E194E060E03E
:1005E0000E941202DF91CF91089585E00E94ED04F0
:1005F0008C52914096958795969587950895409150
:10060000B1018091AF018F3009F04AC08091AE01F5
:10061000873209F045C08091B001882309F040C0BD
:1006200048504330E8F14634D8F58091B501843D17
:1006300019F18EE793E06CEE70E00E94D6088EE729
:1006400093E06091B50140E150E00E94C4098EE75B
:1006500093E06BED70E00E94D6088EE793E064EDC6
:1006600070E04AE050E00E94160A8EE793E06CE0EA
:1006700071E00E944B0A12C08091B4019091B601C2
:10068000883011F481EE05C08295880F807E9F71BD
:10069000892B435067EB71E00E94D91581E00895E2
:1006A00080E00895FF920F931F930E94F40A88231D
:1006B00009F47EC10E94AB0D882309F079C183C182
:1006C0008FEE94E068E670E00E94D6080E94F40A7B
:1006D000882319F46EE071E002C063E171E08FEEEF
:1006E00094E00E94480A8FEE94E066E171E00E9477
:1006F000480A0E94AB0D882319F46BE171E002C037
:100700006EE171E08FEE94E00E94480A8FEE94E073
:100710000E94010956C18FE097E264E371E04FE067
:1007200057E20E94DA0D1092B40184ED8093B50176
:100730008FE18093B60180911A048093B7011092E3
:10074000B80180911E048093B901809116048093B2
:10075000BA01ABEBB1E0E2E2F4E08EE101900D9280
:100760008150E1F7A9EDB1E0E0E4F4E08EE1019021
:100770000D928150E1F78EE1E2E2F4E0DF01982F83
:100780001D929A95E9F7E0E4F4E0DF011D928A9565
:10079000E9F724EB31E087EF91E0821B90E00E94C3
:1007A000520F8091160490911704A0911804B091F3
:1007B00019040196A11DB11D80931604909317048E
:1007C000A0931804B0931904FF24F3940E94CD124F
:1007D000882309F489C080911A0490911B04A09188
:1007E0001C04B0911D040196A11DB11D80931A0433
:1007F00090931B04A0931C04B0931D0400919D05CD
:100800000F7180919D0586FD07C00E94F502E02FC3
:10081000F0E0EE5DFB4F808380919D05807E803807
:1008200059F480919E05813039F480919F05E02F25
:10083000F0E0E25CFB4F808390919D0580919D05E7
:10084000803E11F408E004C0092F02950695077058
:1008500080919D05813E09F408E08FE097E264E312
:1008600071E04FE057E20E94DA0D0093B4018091ED
:100870009C058093B50180919D058F718093B60191
:1008800040919E0527EB31E0EFE9F5E0C901BF019A
:1008900050E00E945E0180919E0590E003960E94C8
:1008A000520F8091160490911704A0911804B091F2
:1008B00019040196A11DB11D80931604909317048D
:1008C000A0931804B093190481E194E064E670E009
:1008D0000E94461280911504882311F483E101C01F
:1008E000835F61E00E9438060E94330B8C010E94F6
:1008F000810F0B32110594F180919601883071F5CA
:1009000080919701882351F58091A101813131F5C2
:1009100080911E0490911F04A0912004B0912104A5
:100920000196A11DB11D80931E0490931F04A093F6
:100930002004B09321048091AD01833479F00E94AA
:10094000FF02882359F08EE094E064E670E00E9494
:10095000461285E194E061E00E94120281E194E098
:1009600060E070E00E946212882351F080911504CB
:10097000882311F483E101C0835F60E00E943806A0
:100980008EE094E060E070E00E946212882329F01B
:1009900085E194E060E00E94120281E0F82684E1A3
:1009A00094E06F2D0E9412021F910F91FF90089505
:1009B00088E094E060EA7FE00E946212882309F0F8
:1009C0007FCEFF2403CF8BE094E06CEF79EE0E94A2
:1009D0006212882309F09FCEF7CE982F8E3008F050
:1009E0009E509770809142018295880F880F807C7D
:1009F000892B80937C0080917A00806480937A00B8
:100A000080917A0086FDFCCF20917800409179009A
:100A1000942F80E030E0282B392BC90108951F92D4
:100A20000F920FB60F9211242F933F938F939F93A2
:100A3000AF93BF938091620490916304A09164048A
:100A4000B0916504309166040196A11DB11D232F5C
:100A50002D5F2D3720F02D570196A11DB11D20933C
:100A600066048093620490936304A0936404B0933B
:100A7000650480915E0490915F04A0916004B09140
:100A800061040196A11DB11D80935E0490935F04E3
:100A9000A0936004B0936104BF91AF919F918F9137
:100AA0003F912F910F900FBE0F901F9018958FB709
:100AB000F894209162043091630440916404509151
:100AC00065048FBFB901CA0108959B01AC017FB7CE
:100AD000F89480915E0490915F04A0916004B091BD
:100AE000610466B5A89B05C06F3F19F00196A11D72
:100AF000B11D7FBFBA2FA92F982F8827860F911D70
:100B0000A11DB11D62E0880F991FAA1FBB1F6A9526
:100B1000D1F7BC012DC0FFB7F89480915E0490918D
:100B20005F04A0916004B0916104E6B5A89B05C084
:100B3000EF3F19F00196A11DB11DFFBFBA2FA92FDC
:100B4000982F88278E0F911DA11DB11DE2E0880FFF
:100B5000991FAA1FBB1FEA95D1F7861B970B885ECA
:100B60009340C8F2215030404040504068517C4F83
:100B7000211531054105510571F60895789484B524
:100B8000826084BD84B5816084BD85B5826085BD89
:100B900085B5816085BDEEE6F0E08081816080836F
:100BA000E1E8F0E010828081826080838081816052
:100BB0008083E0E8F0E0808181608083E1EBF0E019
:100BC000808184608083E0EBF0E0808181608083BD
:100BD000EAE7F0E0808184608083808182608083A6
:100BE0008081816080838081806880831092C100D1
:100BF0000895CF93DF93482F50E0CA01895B9E4F41
:100C0000FC0134914D5C5E4FFA018491882369F1B7
:100C100090E0880F991FFC01EB5EFE4FA591B49107
:100C2000FC01E15EFE4FC591D491662351F42FB7CC
:100C3000F8948C91932F909589238C9388818923A4
:100C40000BC0623061F42FB7F8948C91932F90957C
:100C500089238C938881832B88832FBF06C09FB7FD
:100C6000F8948C91832B8C939FBFDF91CF91089543
:100C7000482F50E0CA01855A9E4FFC012491CA01B9
:100C8000895B9E4FFC0194914D5C5E4FFA0134915B
:100C9000332309F440C0222351F1233071F0243072
:100CA00028F42130A1F0223011F514C02630B1F023
:100CB0002730C1F02430D9F404C0809180008F77B0
:100CC00003C0809180008F7D8093800010C084B528
:100CD0008F7702C084B58F7D84BD09C08091B0003C
:100CE0008F7703C08091B0008F7D8093B000E32F99
:100CF000F0E0EE0FFF1FE15EFE4FA591B4912FB71C
:100D0000F894662321F48C919095892302C08C91EC
:100D1000892B8C932FBF089508951F920F920FB6C1
:100D20000F9211242F933F934F938F939F93EF93A1
:100D3000FF938091C00082FD1DC04091C6002091AC
:100D4000A7043091A8042F5F3F4F2F73307080911C
:100D5000A9049091AA042817390771F0E091A7041B
:100D6000F091A804E959FB4F40833093A8042093E5
:100D7000A70402C08091C600FF91EF919F918F91CF
:100D80004F913F912F910F900FBE0F901F9018958C
:100D9000E091FB04F091FC04E05CFF4F81919191A4
:100DA00020813181821B930B8F739070892B11F0FE
:100DB0000E948C0608951F920F920FB60F92112475
:100DC0002F933F938F939F93EF93FF932091EB0487
:100DD0003091EC048091ED049091EE0428173907CE
:100DE00031F48091C1008F7D8093C10014C0E091E7
:100DF000ED04F091EE04E555FB4F20818091ED0468
:100E00009091EE0401968F7390709093EE0480930E
:100E1000ED042093C600FF91EF919F918F913F9138
:100E20002F910F900FBE0F901F901895AF92BF9209
:100E3000DF92EF92FF920F931F93CF93DF93EC011A
:100E40007A018B01DD24403081EE580780E068078D
:100E500080E0780711F0DD24D39491E0A92EB12C25
:100E6000EC89FD89DD2069F0C50108A002C0880F6A
:100E7000991F0A94E2F7808360E079E08DE390E0C7
:100E800005C0108260E874E88EE190E0A801970147
:100E90000E94EC19215030404040504056954795F3
:100EA0003795279580E12030380720F0DD2011F0BC
:100EB000DD24D6CFE889F9893083EA89FB8920834C
:100EC00019A2EE89FF89408121E030E0C9010C8C34
:100ED00002C0880F991F0A94E2F7482B4083EE89DD
:100EE000FF894081C9010D8C02C0880F991F0A94A7
:100EF000E2F7482B4083EE89FF894081C9010E8CBF
:100F000002C0880F991F0A94E2F7482B4083EE89AC
:100F1000FF8980810F8C02C0220F331F0A94E2F7F1
:100F2000209528232083DF91CF911F910F91FF906F
:100F3000EF90DF90BF90AF900895DC011C96ED918B
:100F4000FC911D97E05CFF4F21913191808191814F
:100F5000281B390B2F733070C9010895DC011C96D2
:100F6000ED91FC911D97E05CFF4F20813181E054B1
:100F7000F040DF01AE5BBF4F8D919C911197281718
:100F8000390719F42FEF3FEF07C08D919C91E80FBF
:100F9000F91F8081282F30E0C9010895DC011C96DB
:100FA000ED91FC911D97E05CFF4F20813181E05471
:100FB000F040DF01AE5BBF4F8D919C9111972817D8
:100FC000390719F42FEF3FEF10C08D919C911197C5
:100FD000E80FF91F20818D919C91119701968F73D5
:100FE000907011969C938E9330E0C9010895DC01B6
:100FF00091968C919197882339F05496ED91FC91BC
:101000005597808186FFF9CF91961C920895CF93D2
:10101000DF93EC01EE85FF85E05CFF4F208131819D
:10102000E054F0402F5F3F4F2F733070DF01AE5B15
:10103000BF4F8D919C91119728173907D1F3E05C30
:10104000FF4F80819181E054F040E80FF91F6083E9
:10105000EE85FF85E05CFF4F31832083EE89FF89B9
:10106000208181E090E00F8C02C0880F991F0A94C4
:10107000E2F7282B208381E089A3EC89FD89808118
:101080008064808381E090E0DF91CF910895109299
:10109000F2041092F10488EE93E0A0E0B0E08093B7
:1010A000F3049093F404A093F504B093F6048FE650
:1010B00091E09093F0048093EF0487E694E090939E
:1010C000FC048093FB048BEA94E09093FE048093ED
:1010D000FD0485EC90E0909300058093FF0484EC80
:1010E00090E0909302058093010580EC90E090934E
:1010F00004058093030581EC90E0909306058093AE
:10110000050582EC90E0909308058093070586EC36
:1011100090E090930A058093090584E080930B0585
:1011200083E080930C0587E080930D0585E0809334
:101130000E0581E080930F050895CF93DF930E9401
:10114000BE050E941C02C8ECD6E00E945203209704
:10115000E1F30E94C806F9CFCF92DF92EF92FF929F
:101160000F931F93CF93DF937C016B018A01C0E043
:10117000D0E00FC0D6016D916D01D701ED91FC91CA
:101180000190F081E02DC7010995C80FD91F0150CA
:1011900010400115110571F7CE01DF91CF911F911C
:1011A0000F91FF90EF90DF90CF900895EF92FF9214
:1011B0000F931F93CF93DF937C018B01C0E0D0E0AE
:1011C000F8010F5F1F4F6491662359F0D701ED912D
:1011D000FC910190F081E02DC7010995C80FD91F3E
:1011E000EFCFCE01DF91CF911F910F91FF90EF9044
:1011F0000895DC01ED91FC910190F081E02D0995BD
:101200000895EF92FF920F931F938C01DC01ED91F3
:10121000FC910190F081E02D6DE009957C01D801F1
:10122000ED91FC910190F081E02DC8016AE00995F3
:101230009C012E0D3F1DC9011F910F91FF90EF9052
:101240000895EF92FF920F931F937C010E94D6089E
:101250008C01C7010E9401099C01200F311FC901A7
:101260001F910F91FF90EF900895CF93DF93EC01C2
:101270006115710519F420E030E00FC0DB010D901D
:101280000020E9F71197A61BB70BE881F9810280CE
:10129000F381E02DAD0109959C01C901DF91CF914A
:1012A00008954F925F927F928F929F92AF92BF92DA
:1012B000CF92DF92EF92FF920F931F93DF93CF9322
:1012C000CDB7DEB7A1970FB6F894DEBF0FBECDBF86
:1012D0002C01742ECB01223008F42AE019A231E24D
:1012E000C32ED12CCC0EDD1E822E9924AA24BB2421
:1012F000672D752FA50194010E94EC1979018A01CF
:10130000C801B701A50194010E94A619472D461BEB
:101310000894C108D1084A3010F4405D01C0495C0E
:10132000F6014083E114F1040105110521F07E2C42
:101330005F2DC801DDCFC201B6010E943509A1961B
:101340000FB6F894DEBF0FBECDBFCF91DF911F91D6
:101350000F91FF90EF90DF90CF90BF90AF909F9054
:101360008F907F905F904F900895DC01211531059B
:1013700041F4ED91FC910190F081E02D642F0995ED
:1013800008950E9451090895EF92FF920F931F93C1
:101390009A01E62EFF2400E010E0B801A7010E94A8
:1013A000B5091F910F91FF90EF900895CF92DF92B2
:1013B000EF92FF920F931F93CF93DF93EC016A019B
:1013C0007B012115310541F4E881F9810190F0811B
:1013D000E02D642F09951FC02A303105D1F477FF25
:1013E00017C0E881F9810190F081E02D6DE2099547
:1013F0008C0144275527BA014C195D096E097F09F4
:10140000CE012AE00E9451099801280F391F04C01B
:101410002AE00E9451099C01C901DF91CF911F91DF
:101420000F91FF90EF90DF90CF900895EF92FF9291
:101430000F931F937B019A010027F7FC0095102F53
:10144000B801A7010E94D6091F910F91FF90EF905C
:101450000895CF92DF92EF92FF920F931F936C014A
:101460007B019A010027F7FC0095102FB801A70116
:101470000E94D6098C01C6010E940109080F191F9C
:10148000C8011F910F91FF90EF90DF90CF900895CA
:101490000E9435090895EF92FF920F931F937C01EC
:1014A0000E9435098C01C7010E940109080F191F0C
:1014B000C8011F910F91FF90EF900895809113053F
:1014C00061E00E94380678940895FF920F931F936D
:1014D000082F162FF42EF8948091130560E00E94D7
:1014E00038061F71102B1EBD0DB407FEFDCFFEBCCC
:1014F0000DB407FEFDCF0E945E0A1F910F91FF9071
:1015000008951F93182F282F30E020763070809197
:10151000140590E02817390799F080EA6FE143E05D
:101520000E94650A412F40764093140550E085E003
:10153000559547958A95E1F780E86FE10E94650A25
:101540001F9108950F931F93182F062F0E94810A51
:1015500080E4612F402F0E94650A1F910F9108952A
:101560000F931F93182F072F0E94A20A812F8F5FBE
:10157000602F0E94A20A1F910F91089588E360EBEB
:101580000E94A20A089588E361EB0E94A20A0895CE
:101590000F931F93182F062FF8948091130560E086
:1015A0000E943806802F8F71812B8EBD0DB407FEEF
:1015B000FDCF1EBC0DB407FEFDCF07FF04C01EBC4F
:1015C0000DB407FEFDCF1EB50E945E0A812F1F914C
:1015D0000F9108951F93182F0E94810A80E0612FB8
:1015E0000E94C80A1F91089584ED61E10E94A20A39
:1015F00082ED61E00E94A20A8AEE0E94EA0A80FD62
:10160000FBCF82ED60E00E94A20A89ED0E94EA0A07
:1016100090E09695879596958795817008950F939C
:101620001F93CF93DF93EC018B01F8948091130506
:1016300060E00E9438068AE38EBD0DB407FEFDCF40
:1016400009C01EBC0DB407FEFDCF8EB5F801819315
:101650008F0121972097A9F70E945E0ADF91CF9111
:101660001F910F9108950F931F93DF93CF9300D095
:1016700000D000D0CDB7DEB789E30E94EA0A882304
:1016800019F400E010E048C060911505709116054E
:1016900080E00E94B00A86E090E0BE016F5F7F4F5D
:1016A0000E940F0B89819A819093160580931505EE
:1016B0002B813C81E0911105F09112058D8187FD10
:1016C00003C000E010E00EC0245030408F010150F4
:1016D00010402017310708F48901C8016AE871E059
:1016E0000E940F0BF801E657FE4F1082609115051E
:1016F000709116058CE06130780724F08CE06FEF74
:101700007BE003C0615070408CE00E94B00A80E82A
:101710006EE140E40E94650AC80126960FB6F8946F
:10172000DEBF0FBECDBFCF91DF911F910F91089506
:101730000F931F93CF93DF938C01EB01F89480916B
:10174000130560E00E9438068AE78EBD0DB407FEDF
:10175000FDCF08C088818EBD0DB407FEFDCF219658
:101760000150104001151105A9F70E945E0ADF9192
:10177000CF911F910F9108958AE061E00E94F905D1
:101780008AE061E00E9438068BE061E00E94F90582
:101790008DE061E00E94F9058CE060E00E94F905AF
:1017A0008BE061E00E9438068BE060E00E94380622
:1017B0008DE060E00E94380680E58CBD8DB58160CB
:1017C0008DBD08951F93CF93DF93EB01142F90935A
:1017D0001205809311050CB406FC02C00E94BC0BDC
:1017E00010931305812F61E00E94F9050E945E0AA3
:1017F0008FEF60E04FEF0E94650A62E070E080E0EA
:1018000090E00E94650580E06DE10E94C80A88238F
:10181000D1F3109216051092150588E060E070E093
:101820000E94B00A8CE060E070E00E94B00A8AE09A
:101830006FEF7BE00E94B00A84E060E07CE00E94F1
:10184000B00A86E06FEF71E10E94B00A0E94C30AFD
:1018500088E26FE370E30E94B00A80E369EF77EFFC
:101860000E94B00A80EC6DE00E94A20A81EC60E068
:101870000E94A20A80E862EC42E30E94650A86ECBC
:1018800062E17CE00E94B00A84EC62E10E94A20A5C
:101890008AEC6CED75E00E94B00A84EE68810E94CB
:1018A000A20A85EE69810E94A20A82EE6A810E94E4
:1018B000A20A83EE6B810E94A20A80EE6C810E94D4
:1018C000A20A81EE6D810E94A20A84ED60E10E946D
:1018D000A20A86ED60E071E00E94B00A8AEE0E94E2
:1018E000EA0A80FDFBCF8FE10E94810A80E86BE16C
:1018F00040EC0E94650A80E86FE144E00E94650ABE
:1019000082E70E94EA0A863008F08F5FDF91CF916C
:101910001F910895CF93DF93EC0115C08CE10E94D5
:10192000EA0A81FF10C08FEE94E067E271E00E9446
:101930004B0A80E86FE140E80E94650A80EA6FE1A7
:1019400040E80E94650A80E06FE10E94C80A83FDBA
:10195000E5CF82E060E07CE00E94B00ABE0160500A
:10196000744F86E00E94B00A8AE760E040E00E947F
:10197000650ACE016AE871E00E94980B80E86FE189
:1019800048E00E94650ADF91CF9108950F931F935D
:10199000CF93DF939C01EB018A01109255050097CC
:1019A00029F08DE395E0B9010E943A12209719F0D1
:1019B000CE010E94400E0115110529F08DE495E03D
:1019C000B8010E943A1281E0DF91CF911F910F91EF
:1019D0000895AF92BF92CF92DF92FF920F931F9321
:1019E000CF93DF938C01EB01F42E1092550538E371
:1019F00041E050E060E070E018C0832F90E0FC010F
:101A0000B3E0F595E795BA95E1F7E95EFA4F87708F
:101A100090705A016B0104C0AA0CBB1CCC1CDD1CCD
:101A20008A95D2F720812A292083315031F787E324
:101A300095E0BE010E943212C80167E375E04F2DA8
:101A40000E94E20BDF91CF911F910F91FF90DF90E9
:101A5000CF90BF90AF900895DF92EF92FF920F93D7
:101A60001F93CF93DF93D82E862FBA01213041F4F4
:101A7000675F7F4F9B0140E050E0695070400EC0AF
:101A8000223029F020E030E040E050E007C0625012
:101A900070409B0140E050E06E5F7F4FE82EFF24D6
:101AA0008AE891E0E80EF91E8B01E7010FC0F8818A
:101AB000E0E0898190E08E2B9F2BA0E0B0E0280F22
:101AC000391F4A1F5B1F2296025010400230110539
:101AD00070F7CB018E7FD701A80FB91F6817790760
:101AE00079F08C9190E0A0E0B0E0BA2FA92F982F68
:101AF000882702C040E050E0280F391F4A1F5B1FB3
:101B0000CA01AA27BB270097A105B10599F7C9010A
:101B100080959095ED2DF0E0E657FE4F9083818300
:101B2000DF91CF911F910F91FF90EF90DF9008957B
:101B30001092A2011092A30180E480939E01109262
:101B40009F018093A00188E16EE044E150E020E035
:101B50000E942C0D0895809157058695809581707F
:101B600008950F931F93BC010AE811E0C8010E9479
:101B70003212C801069667E375E00E9432121F9187
:101B80000F910895EF92FF920F931F937B010E9494
:101B9000B10D08EA11E0C801B7010E943A12C8016C
:101BA00004976DE375E00E943A121F910F91FF9028
:101BB000EF900895EF92FF920F931F93CF93DF93CF
:101BC0007C01EB018A0182E695E00E94C20D8881CA
:101BD000807F803E49F088819981AA81BB818F5F97
:101BE0009F4FAF4FBF4F31F48AE891E06BE771E050
:101BF0000E94321288E0809396011092970188E942
:101C000091E067E771E049E050E00E9448011092DE
:101C10009A0181E18093A1011093AE010093AF017D
:101C2000F092AC01E092AD011092B0011092B201BD
:101C30001092B301DF91CF911F910F91FF90EF9020
:101C40000895EF92FF920F931F9300E911E0C801EE
:101C50000E94B10D74E1E72EF12CE00EF11EC801D7
:101C60004896B7010E943A12C7016DE375E00E94E1
:101C70003A120E94980D1F910F91FF90EF900895D6
:101C8000BC0181E08093570585E495E00E943A12FB
:101C900008950F931F938C01889690939A018093D7
:101CA0009B010E94980D1092BC011092BD01045E30
:101CB0001F4F82E36AE1A80122E00E942C0DC801B7
:101CC0004A960E948A0C1F910F910895CF93DF933B
:101CD0009C01862F80618093B901643029F0211521
:101CE000310511F421E030E09091AE018091AC011A
:101CF0008093AE019093AC019091AF018091AD01C2
:101D00008093AF019093AD01C3EBD1E08881A9012D
:101D1000480F511D2C814C832883252F3327219771
:101D200051E0CF3AD50791F71D861E8680E5898759
:101D300010929A0188E280939B010E94210E84E018
:101D40008B871C8682E36AE14CE150E022E00E942E
:101D50002C0D86E390E00E948A0CDF91CF910895CC
:101D6000E82FA0919A01B0919B01F091B8014091A8
:101D7000AE0150E0292F30E04217530709F08EC022
:101D80008091AF018E1709F089C08091B901E82FC9
:101D900081FF4EC010929A018CE280939B010E94B9
:101DA000210E82E18093B9019091AE018091AC0146
:101DB0008093AE019093AC019091AF018091AD0101
:101DC0008093AF019093AD01E3EBF1E021E030E0CF
:101DD0008081A901480F511D44831082252F33278C
:101DE000319751E0EF3AF50799F71586168611827B
:101DF000128280914801838314828D5F8093480111
:101E000082E0818B84E0828B95E0938B148A80E65C
:101E10008187938788E7848782E36AE140E250E024
:101E200022E00E942C0D8AE390E00E948A0C36C0CA
:101E300084FF34C04F2F50E084E0559547958A9534
:101E4000E1F79A2F80E02B2F30E0282B392BCA01A5
:101E5000880F991F880F991F281B390B2451304078
:101E600037FF02C020E030E0309369052093680519
:101E7000232B69F09A01220F331F220F331F2E5D8F
:101E80003F4F685070406217730740F009C0E0FF91
:101E900005C080E090E060E00E94660E20E030E047
:101EA000C90108950F931F93DF93CF930F92CDB77E
:101EB000DEB78C01045E1F4F10939A010C51104045
:101EC000802F845E80939B0189830E94980D085F18
:101ED0001F4F1093B001898184518093B101085F35
:101EE0001F4F88E26AE1A80121E00E942C0DC80181
:101EF0004A960E948A0C0F90CF91DF911F910F910B
:101F00000895DF92EF92FF920F931F93CF93DF9389
:101F1000EC0180915505882319F0CE010E944F18DD
:101F2000209709F0C3C0809157058570F1F1809129
:101F3000450190914601892BC1F50E94F40A88233E
:101F4000A1F18BE791E00E94B10D88E080939601AA
:101F5000A6E0FA2EF092970188E991E06FE671E031
:101F600048E050E00E9448010AEA11E0D8011D92C1
:101F7000FA94E9F7C8010A9767E375E00E94321204
:101F8000C801069665E475E00E943A12C8010497FC
:101F90006DE375E00E943A12809157058860809346
:101FA00057058AE290E00E948A0C0E94F40A882376
:101FB00049F0809145019091460101969093460128
:101FC0008093450180915805813009F0EFC18091DF
:101FD000570581FFEBC102E000935805809147014E
:101FE0008F5F809347018F71109159051295110FE2
:101FF000107E182BE0905A05D0905B0582E695E0A4
:1020000061E575E00E94C20DF8E0FF2EF0929601A6
:102010001092970188E991E067E771E049E050E0AC
:102020000E9448018CE280939B0186E08093A1018D
:102030000E94980DE092AE01D092AF018BE08093A8
:10204000AC011093AD01E0EBF1E0DF011D92FA94D9
:10205000E9F7809148018093B2018D5F8093480138
:1020600080E68093B8010093B90183E08093BA01C0
:102070001092BB011092BC011092BD011092BE01E2
:102080001092BF010093C00184E08093C1010093CE
:10209000C20186E28093C30182E36AE140E250E03C
:1020A00022E00E942C0D8AE390E09BC0C932D1054A
:1020B00008F47CC110919601183009F082C180911A
:1020C0009701863009F07DC180EB91E06DE375E00A
:1020D00044E050E00E945101009709F072C18091E4
:1020E0009F01813029F580E991E00E94B10D1092A5
:1020F0009E0182E080939F018AEA91E060EA71E0AC
:102100000E94321280EA91E067E375E00E94321289
:1021100080EB91E066EA71E00E943A1286EA91E073
:102120006DE375E00E943A128AE290E00E948A0C08
:102130008091570583FF3AC110919F01123009F039
:1021400035C186EA91E065E475E044E050E00E9424
:102150005101009709F02AC182E695E060EA71E03A
:102160000E9432121093570521C1183009F01EC188
:1021700080919701882309F019C1809198018534D5
:1021800009F014C188EA91E06DE375E044E050E0A5
:102190000E945101009709F009C18091A10181308D
:1021A00019F58091AC018830F9F4E0915C05F0916B
:1021B0005D05309719F084EA91E009950E94210E9F
:1021C0001092AC018091AE01883F28F08091AF0160
:1021D0008F5F8093AF018091AE01885F8093AE01E5
:1021E000CE010E948A0CE2C00E94E611882351F0C1
:1021F0008091A101813131F4CE010E94EB1188233D
:1022000009F0D4C0C633D10528F48091A1018630ED
:1022100009F0CCC08091AE018B3009F0BEC084EAD9
:1022200091E061E575E044E050E00E9451010097C3
:1022300009F0BCC08091B901382F82FF13C0E09132
:102240005E05F0915F05309759F08091AF0182955E
:102250008695877063E040E050E020E030E009952B
:1022600085E090C090919A0180E020919B01022F1F
:1022700010E0082B192B8091B801482F50E0E4E0C2
:1022800055954795EA95E1F7CA01880F991F880F80
:10229000991F081B190B0451104017FF02C000E0E2
:1022A00010E080915805823079F531FF21C034FF6C
:1022B0001FC080E090E060E00E94660E88E180939D
:1022C000B901E0916005F0916105309719F420E0C3
:1022D00030E007C08091AD018295869587700995A1
:1022E0009C0183E080935805C9010E94490E5EC09D
:1022F00081E08093580534FF03C080E090E002C085
:10230000C801019664E046C0833081F501151105CE
:1023100079F1E0915E05F0915F05309749F1440F46
:10232000551F440F551FCE0108974E5D5F4F841710
:10233000950708F4AC01C801840F951FC817D90789
:1023400010F0980103C09E01241B350B8091AF0152
:1023500082958695877060E009958091560588235F
:1023600019F0C80168E016C0C80108C08530F1F056
:1023700030FF0BC08330D1F0C801019669E00E94A4
:10238000660E86E08093580511C00115110571F0A5
:10239000C80160E00E94660E09C0809143019091DF
:1023A0004401BE010E94B00E9C0102C020E030E05A
:1023B000C901DF91CF911F910F91FF90EF90DF90B6
:1023C0000895CA32D10508F0D0CEF0CF80919205A1
:1023D000811181E00895CF92DF92EF92FF920F93E7
:1023E0001F93CF93DF93CAE6D5E030E0CC24DD2401
:1023F00029C02A814B818091AE0190E0042F10E02A
:1024000080179107D9F49091AF019217B9F48C819C
:102410008823A1F02091B10130E028503040F090A5
:10242000B001EE242E0D3F1DE881F981892F942FF4
:1024300064EA71E044EB51E0099531E00894C11C75
:10244000D11C25968091920590E0C816D9068CF291
:10245000832FDF91CF911F910F91FF90EF90DF902D
:10246000CF900895DC01FB0186E001900D92815030
:10247000E1F708959C01FB0180819181A281B381E4
:10248000F90180839183A283B38308950F931F93EF
:10249000CF93DF938C01EB0180E06115710509F0AA
:1024A00081E0F8018283882341F00E94570521973B
:1024B000C60FD71FF801D183C083DF91CF911F9141
:1024C0000F910895EF92FF920F931F93CF93DF9395
:1024D000EC017B018A81882311F400E00FC00881A0
:1024E00019810E945705C801861B970B2AEE813679
:1024F000920710F400E006C0082F0195CE01B70145
:102500000E944612802FDF91CF911F910F91FF9073
:10251000EF900895782FE89865B121E030E040E031
:1025200050E00090490104C0220F331F441F551F83
:102530000A94D2F7322F822F8095862385B99EBDCB
:102540000DB407FEFDCF4EB57EBD0DB407FEFDCF29
:102550002EB5942F80E045B1342B35B9E89A30E0A0
:10256000282B392BC90108958091930590919405EA
:102570008F7090939405809393058091930590912B
:1025800094058860909394058093930580919305BA
:10259000909194050E948A1208958091EA058730EF
:1025A00009F059C09091EE05992399F08091ED05BD
:1025B000891728F48091ED05873408F44CC084E035
:1025C0008093EA0581E090E090939B0580939A05C3
:1025D0009AC080919E052091ED0590E0049630E030
:1025E0008217930724F08091ED058734A0F184E0F1
:1025F0008093EA0580919E05833430F081E090E07D
:1026000090939B0580939A0580919D0586FF12C04B
:102610008091E905282F30E0C9018F7190704F97A4
:1026200049F080919D0590E0822793278F719070EB
:10263000892B89F480919A0590919B05892B09F04B
:1026400056C0E091E705F091E805309709F44FC0D6
:1026500080E0099558C08091EA05843011F080E04F
:10266000089510929E0580919E058093ED058FEF51
:102670009FEF90939B0580939A052091EB05222371
:10268000D9F08227282F22952827022E26952695D5
:102690002025022E269520252770082E892F269585
:1026A00007942795902D82270694279590258227B9
:1026B00090939B0580939A0587E08093EA0581E0DB
:1026C0008093980583EA94E90E948A128091930589
:1026D00090919405886D90939405809393058091D3
:1026E0009305909194050E948A1280E008958FEFDF
:1026F0009FEFAFEFBFEF8093E3059093E405A093C6
:10270000E505B093E60581E008950F931F93082F28
:1027100010E0C801966C0E948A1298012F773070E1
:102720002F5F3F4F442737FD4095542F6BEF72E4E6
:1027300085E090E00E94EC19CA01B901000F012F59
:10274000001F110B980143E0220F331F4A95E1F758
:10275000201B310B2F5F3F4F442737FD4095542FEF
:102760000E94EC1993E056954795379527959A95D1
:10277000D1F72D573C4F4F4F5F4FCA01B90124E8A5
:1027800033E040E050E00E94EC19209399051F913E
:102790000F9108958091EA05843069F08091EA05EF
:1027A000873059F48091ED05882339F40E94B412E2
:1027B00084E08093EA0581E0089580E00895982FF1
:1027C00086FD05C0907E8091E9058F71980F9093EA
:1027D0009D05E091E705F091E805309711F081E063
:1027E00009958FEF9FEF90939B0580939A058091B9
:1027F0009A0590919B052091EB058227282F229521
:102800002827022E269526952025022E269520255E
:102810002770082E892F269507942795902D8227BB
:10282000069427959025822790939B0580939A057F
:1028300088E08093EA0580919305909194058863E0
:1028400090939405809393058091930590919405BE
:102850000E948A120895DF92EF92FF920F931F93C6
:102860007B018C01DD2405C0D39416950795F79460
:10287000E7948FEFE816F1040105110509F0A0F7C0
:10288000809193059091940581FF0FC080919305ED
:10289000909194058D7F90939405809393058091FA
:1028A0009305909194050E948A12E114F1040105A8
:1028B0001105B9F0C701906E3D2D20E0822B932BBE
:1028C0000E948A1280919305909194058260909362
:1028D00094058093930580919305909194050E94AF
:1028E0008A121F910F91FF90EF90DF900895E89862
:1028F00085B121E030E040E050E00090490104C0A3
:10290000220F331F441F551F0A94D2F7322F922FE4
:102910009095982395B91EBC0DB407FEFDCF6EB5FA
:102920001EBC0DB407FEFDCF2EB5962F80E0622FA2
:1029300070E0682B792B77FF0FC08091EA05873014
:1029400059F48CB581608CBD1EBC0DB407FEFDCF63
:102950002EB58CB58E7F8CBD85B1382B35B9E89AF4
:1029600070939605609395058091950590919605D5
:1029700097FFECC08091EA05873009F082C0809112
:10298000ED05882371F49091EB05992351F0809126
:10299000ED05E82FF0E0E456FA4F90838F5F8093C7
:1029A000ED058091ED05E82FF0E0E456FA4F208325
:1029B0008F5F8093ED0580919A0590919B0582270A
:1029C000282F22952827022E269526952025022E8F
:1029D000269520252770082E892F26950794279560
:1029E000902D8227069427959025822790939B050A
:1029F00080939A0520919805233040F58091ED054C
:102A000090E060919905029770E00E94D919892B96
:102A1000E9F48091950590919605E22FF0E090FF02
:102A200004C0EF57FE4F808104C0EF57FE4F8081F6
:102A300082958F7080939805833040F490E0880FE2
:102A4000991F0196806A94690E948A129091EE05FE
:102A5000992329F08091ED05891780F40AC08091AF
:102A60009E052091ED0590E0049630E082179307D3
:102A70002CF08091ED05873408F468C00E94B412F0
:102A800065C08091EA0587FF2EC0E0919E05809188
:102A9000EA058F5F8093EA058150ED5FE80FF0E073
:102AA000E456FA4FE08180919A0590919B058E271C
:102AB000282F22952827022E269526952025022E9E
:102AC000269520252770082E892F2695079427956F
:102AD000902D8227069427959025822790939B0519
:102AE00080939A052EC08091EA058F5F8093EA0556
:102AF0008150833019F184302CF4882399F081308F
:102B0000F9F416C08B3019F08C30D1F402C0EDE22C
:102B100018C0E091EB0590919E058EEF891B809384
:102B2000EA050FC080919A0590919B05E82F09C096
:102B300080919A0590919B05E92F03C00E94B412E1
:102B4000EAEA8E2F90E0986B0E948A128091950598
:102B50009091960596FF03C086E08093EA058091E8
:102B600095059091960594FF09C060E070E080E0C3
:102B700090E00E942B1481E0809397058091950549
:102B80009091960595FF05C00E94B41284E0809351
:102B9000EA0508951F93182F40939E052FE935E00D
:102BA000C90150E00E945E01812F0E94DF131F9136
:102BB00008950F931F93CF93DF93182FEB01042FEA
:102BC00002C00E94CD120E94CA138823D1F3812F24
:102BD000BE01402F0E94CA15DF91CF911F910F9126
:102BE00008958091E90590E08F719070892B41F0F4
:102BF00080E067E774E140E050E00E94D21608955B
:102C000080E00E94F51608951F938093E905409394
:102C1000EB056093EC050E94F1151092EE05E89823
:102C200085E092E8909394058093930580919305B5
:102C3000909194050E948A128091EC0590E074E0D6
:102C4000880F991F7A95E1F7876C90680E948A1225
:102C500080E496EA0E948A1286E00E94851382EA46
:102C600094E90E948A128CEA92EC0E948A121091D6
:102C7000EB05112341F083E89AEC0E948A12812F20
:102C800090E09E6C06C08BE89AEC0E948A128DE25E
:102C90009EEC0E948A1283E894EC0E948A1280E5DE
:102CA00098E90E948A1287E79CEC0E948A1280E0D1
:102CB00090EE0E948A1280E098EC0E948A1289E4C9
:102CC00090EC0E948A1284E08093EA05E89A1F91B2
:102CD000089525B181E090E0A0E0B0E000904901C6
:102CE00004C0880F991FAA1FBB1F0A94D2F7282B74
:102CF00025B924B1822B84B98AE061E00E943806AC
:102D00008AE061E00E94F9058BE061E00E94F9052C
:102D10008CE060E00E94F9058DE061E00E94F90519
:102D200080E58CBD8DB581608DBD82E060E00E9444
:102D3000F90582E061E00E9438060895FF920F9342
:102D40001F93182F062FF42E8093E9054093EB056F
:102D50006093EC050E9469160E94F11582E89AECD6
:102D60000E948A1280E09EEF0E948A1285E0809382
:102D7000EA0583B7817F06C083B7816083BF8895EA
:102D800083B78E7F83BF8091EA058530A9F3812FB9
:102D9000602F4F2D0E9404168091E9051F910F911D
:102DA000FF900895823000F5E82FF0E0EE0FFF1F4E
:102DB000E151FA4F71836083882319F08130A1F4C7
:102DC00008C0809169008C7F842B80936900E89A09
:102DD000089580916900440F551F440F551F837F4C
:102DE000842B80936900E99A0895823080F48823C7
:102DF00019F0813021F402C0E89801C0E998E82F69
:102E0000F0E0EE0FFF1FE151FA4F1182108208959A
:102E10001F920F920FB60F9211242F933F934F934F
:102E20005F936F937F938F939F93AF93BF93EF9332
:102E3000FF938091EF059091F005892B29F0E091A7
:102E4000EF05F091F0050995FF91EF91BF91AF91DA
:102E50009F918F917F916F915F914F913F912F91B2
:102E60000F900FBE0F901F9018951F920F920FB6E4
:102E70000F9211242F933F934F935F936F937F9300
:102E80008F939F93AF93BF93EF93FF938091F1053F
:102E90009091F205892B29F0E091F105F091F2056E
:102EA0000995FF91EF91BF91AF919F918F917F9184
:102EB0006F915F914F913F912F910F900FBE0F90A7
:102EC0001F901895DF93CF9300D000D000D0CDB7DE
:102ED000DEB7DE011196E4E8F1E086E001900D92A4
:102EE0008150E1F786E191E0EAE8F1E0DF019C0141
:102EF0001D9221503040E1F78091F305833019F4A1
:102F000069E475E003C0BE016F5F7F4F84E490E029
:102F100043E450E00E94DA0D8091F305833039F0EC
:102F20008AE891E0BE016F5F7F4F0E94321281E01C
:102F30008093B4018093B50186E08093B6018091BF
:102F4000000690910106A0910206B09103068093BD
:102F5000B8019093B901A093BA01B093BB018091DD
:102F6000F305833039F484EB91E00C966DE375E062
:102F70000E943A1280ED91E067E375E00E94321200
:102F8000A0EAB2E0EBE5F1E002C081918D9331E07F
:102F9000E136F307D1F79091F305992311F083E01F
:102FA00001C081E08093A6028DE38093A70287E0B1
:102FB0008093A80281E08093A902AAEAB2E0E7E345
:102FC000F5E002C081918D9385E0ED33F807D1F7EC
:102FD0008CE08093B0028AE08093B102A2EBB2E071
:102FE000EAE4F1E002C081918D9321E0E435F2073B
:102FF000D1F72CEB32E03093050620930406913094
:1030000069F582E38093BC0284E08093BD02D9011C
:103010001296EDE3F5E002C081918D9335E0E13445
:10302000F307D1F786E38093C20284E08093C30262
:1030300084EC92E09093050680930406DC01E9E4B9
:10304000F5E002C081918D9385E0ED34F807D1F76A
:1030500088EC92E090930506809304062091040684
:1030600030910506D901E5E5F1E002C081918D932B
:1030700081E0EB35F807D1F7C90106969093050674
:1030800080930406845B91400E94520F26960FB6EF
:10309000F894DEBF0FBECDBFCF91DF910895EF92C0
:1030A000FF920F931F93CF93DF93EC018091F30571
:1030B000823009F4E0C0833030F4882351F181304C
:1030C00009F03DC14AC0833021F0843009F037C196
:1030D000D2C00E9457052091F8053091F905409122
:1030E000FA055091FB05E090F405F090F50500918C
:1030F000F6051091F7052E0D3F1D401F511F621759
:1031000073078407950708F41AC10E94621784E0C8
:1031100017C00E94570560930006709301068093C4
:1031200002069093030610923D0510923E05109200
:103130003F05109240050E9462170E94C30A81E079
:103140008093F3050E9457056093FC057093FD057D
:103150008093FE059093FF05F2C0C634D10508F4B4
:10316000B2C08091AD01833409F0ADC08091B4014B
:10317000823009F0A8C02091B8013091B901409186
:10318000BA015091BB018091000690910106A09177
:103190000206B0910306281739074A075B0709F0B2
:1031A00092C08091A402853309F08DC08091A6025F
:1031B000823009F088C0A6C0DF011196E180ED01E0
:1031C000219680818630A9F0873030F4813059F023
:1031D000833009F045C00AC08633E9F18A3361F0D3
:1031E0008333F1F509C081E495E037C085E495E0CB
:1031F00034C08DE495E031C011966C9170E080E0B0
:1032000090E0982F872F762F66272981620F711DF6
:10321000811D911D982F872F762F66272A81620F97
:10322000711D811D911D982F872F762F66272B8169
:10323000620F711D811D911D28EE33E040E050E0CA
:103240000E94A6196093F8057093F9058093FA051A
:103250009093FB0505C089E495E0BE010E943A12F7
:10326000FE01EE0DF11DE017F10708F4A5CF0E9455
:10327000621782E065CFC634D10528F18091AD0197
:10328000833409F58091B4018230E9F42091B801CA
:103290003091B9014091BA015091BB018091000673
:1032A00090910106A0910206B091030628173907F4
:1032B0004A075B0741F48091A402853321F4809191
:1032C000A602853059F10E9457052091FC053091E6
:1032D000FD054091FE055091FF05205F384D4F4F91
:1032E0005F4F261737074807590748F028C085E47D
:1032F00095E00E94400E83E08093F30520C0109279
:10330000F3051DC08DE395E064EC71E00E943A1274
:10331000E4EAF2E08E0106571E4F4ECF0E94BE0A2D
:103320000E9457056093F4057093F5058093F605A8
:103330009093F705809145058823E9F2D8CFDF9176
:10334000CF911F910F91FF90EF900895629FD00150
:10335000739FF001829FE00DF11D649FE00DF11D50
:10336000929FF00D839FF00D749FF00D659FF00DFF
:103370009927729FB00DE11DF91F639FB00DE11DEC
:10338000F91FBD01CF0111240895AA1BBB1B51E1F8
:1033900007C0AA1FBB1FA617B70710F0A61BB70BC5
:1033A000881F991F5A95A9F780959095BC01CD016A
:1033B000089597FB092E07260AD077FD04D0E5DF94
:1033C00006D000201AF4709561957F4F0895F6F7A6
:1033D000909581959F4F0895A1E21A2EAA1BBB1BC1
:1033E000FD010DC0AA1FBB1FEE1FFF1FA217B307D1
:1033F000E407F50720F0A21BB30BE40BF50B661FE7
:10340000771F881F991F1A9469F7609570958095AA
:1034100090959B01AC01BD01CF010895EE0FFF1FF8
:0C3420000590F491E02D0994F894FFCF82
:10342C002067002069004D41433A20002900444F99
:10343C00574E005550002047573A004F4B0057410C
:10344C0049543441525000457468205458206572D8
:10345C00726F7200C0A800037469692D3025C0A872
:10346C000019015000F6FF010A0241726475696E81
:10347C006F2D3030003703010306FF638253633531
:10348C000100000000FD01AC0880010000000007F5
:10349C0008AC089D07CE07AE07F707FFFFFFFFFF3D
:0A34AC00FF340256FFFFFFFFFFFF91
:00000001FF
