:100000000C9439010C9460190C948D190C946101B5
:100010000C9461010C9461010C9461010C946101D8
:100020000C9461010C9461010C9461010C946101C8
:100030000C9461010C9461010C9461010C946101B8
:100040000C946E060C9461010C943F080C948D087E
:100050000C9461010C9461010C9461010C94610198
:100060000C9461010C94610143616E6E6F74207396
:10007000656E642074696D652075706461746500D7
:1000800053656E742074696D652075706461746564
:1000900000455448206C696E6B3A00546573744295
:1000A000656E6368204757002A2A2A2A2A2052555B
:1000B0004E4E494E473A20726631322D7564702D8E
:1000C00067772E696E6F004661696C656420746F96
:1000D000206163636573732045746865726E65742F
:1000E00020636F6E74726F6C6C65720052463132B1
:1000F0003A2062002A2A2A2A2A2053455455503A87
:1001000020726631322D7564702D67772E696E6F9F
:100110000020286D792067726F7570206973203018
:1001200078005544503A2043616E6E6F7420666FBC
:100130007277617264206D65737361676520666FA5
:10014000722067726F757020307800000000002404
:100150000027002A0000000000250028002B0000D6
:100160000000002300260029000404040404040401
:100170000402020202020203030303030301020456
:100180000810204080010204081020010204081019
:100190002000000007000201000003040600000028
:1001A00000000000000001080006040001450000F6
:1001B000820000400020504F5354202446204854D1
:1001C00054502F312E300D0A486F73743A20244654
:1001D0000D0A244624534163636570743A202A2F24
:1001E0002A0D0A436F6E74656E742D4C656E6774CC
:1001F000683A2024440D0A436F6E74656E742D5462
:100200007970653A206170706C69636174696F6EB2
:100210002F782D7777772D666F726D2D75726C65DF
:100220006E636F6465640D0A0D0A245300474554DC
:10023000202446245320485454502F312E300D0A88
:10024000486F73743A2024460D0A24460D0A0D0A9D
:10025000004163636570743A20746578742F687424
:100260006D6C00E30004FA00010000000100DA01F7
:10027000F90911241FBECFEFD8E0DEBFCDBF11E0DA
:10028000A0E0B1E0ECEDF8E302C005900D92A43AD5
:10029000B107D9F716E0A4EAB1E001C01D92A1347C
:1002A000B107E1F712E0C2E7D2E004C02297FE01F5
:1002B0000E94681CCE36D107C9F70E944F0A0C94E1
:1002C0006C1C0C940000FB01DC0102C005900D9237
:1002D00041505040D8F70895FB01DC0104C08D91D6
:1002E0000190801921F441505040C8F7881B990BA8
:1002F0000895FB01DC0102C001900D924150504075
:10030000D8F70895CF93DF93DC01EC01C757DF4F97
:100310008881FD01E80FF11D6483482F4F5F4883FA
:10032000443810F46A3079F4FD01E40FF11D1482B1
:10033000ED91FC9111970480F581E02DCD0114968B
:10034000BD010995188281E090E0DF91CF91089579
:10035000282F442321F08091C901841749F5809109
:10036000CA01882329F58091CB01883309F5809152
:10037000C7018B37E9F4E22FF92F8091F6018383CF
:100380008091F70182838091F80181838091F90146
:100390008083FB018091FA0183838091FB0182833A
:1003A0008091FC0181838091FD01808381E008952B
:1003B00080E00895109224041092270410922A04D9
:1003C00010922D0482E080932E0481E080932F040C
:1003D00010929B0310929A0385E791E09093990302
:1003E000809398030895EF92FF920F931F93F62E38
:1003F000E72E042F8FE097E26CE371E04FE057E2C5
:100400000E948C0F89E08093CE0184ED8093CF0110
:100410008FE18093D00121ED31E0C9016F2D7E2D58
:10042000402F50E00E94790110E0C80103960E941D
:1004300004118091300490913104A0913204B09164
:1004400033040196A11DB11D8093300490933104B3
:10045000A0933204B09333041F910F91FF90EF905B
:100460000895FC018081882311F482E101C08D5F31
:100470000E94970708958FE163E044ED20E436E0A1
:100480000E94C1160895CF93DF9386E195E040E086
:1004900051EE60E070E00E94C80886E195E064EFEC
:1004A00070E00E94D30A80912F04882311F483E125
:1004B00001C0835F61E00E94580780912F04882368
:1004C00011F483E101C0835F61E00E94970780918E
:1004D0002F04882311F482E101C08D5F61E00E9446
:1004E00058078FE294E061E00E94310280912E046F
:1004F000882311F482E101C08D5F61E00E945807FA
:100500008EE294E061E00E94310264EF71E080E0ED
:1005100090E00E94C40686E195E06CEE70E00E94D7
:10052000880A86E195E063E070E04AE050E00E94CE
:10053000C80B86E195E060E071E00E94FA0B86E16D
:1005400095E064ED70E04AE050E00E94C80B86E15F
:1005500095E063E071E00E94FA0B86E195E06FE1BF
:1005600070E04AE050E00E94DB0B0E943B0286E113
:1005700095E066E071E00E94FA0BC0E0D0E0FE0179
:10058000EC5BFE4F86E195E0608140E150E00E9427
:10059000760BC53029F086E195E06AE30E94AB0A4C
:1005A0002196C630D10559F786E195E00E94B30A3D
:1005B0000CC086E195E067EC70E00E94D30A68EE1B
:1005C00073E080E090E00E94C40684EF91E064E470
:1005D00071E048E00E949B0E882359F38AE491E081
:1005E0006CE371E0AB010E94780E82E294E06CE46F
:1005F00074E00E94651485E294E068EE73E00E9466
:10060000651486E195E068EA70E00E94D30A88E903
:1006100093E06BE970E00E94D30A80912F04882355
:1006200011F483E101C0835F60E00E9497078FE2CD
:1006300094E060E00E943102DF91CF91089585E05F
:100640000E944C068C529140969587959695879579
:100650000895FF920F931F934091CB018091C901A0
:100660008F3009F065C08091C801873209F060C001
:100670008091CA01882309F05BC038EFF32EF40E95
:1006800082E08F1508F054C085E48F1508F450C03F
:100690008091CF01843D19F188E993E062E271E035
:1006A0000E94880A88E993E06091CF0140E150E020
:1006B0000E94760B88E993E061E171E00E94880A6C
:1006C00088E993E064ED70E04AE050E00E94C80BD6
:1006D00088E993E06CE071E00E94FD0B27C08091F7
:1006E000CE019091D001883011F401EE06C0082FA0
:1006F0000295000F007E9F71092B10E00E942316C7
:10070000882349F08DEFF80E802F61ED71E04F2DB9
:100710000E947D160BC061E070E080E090E00E94D6
:10072000C4060E9486151F5F1A3F41F781E001C091
:1007300080E01F910F91FF900895DF92EF92FF925A
:100740000F931F93DF93CF9300D000D00F92CDB7BC
:10075000DEB70E94A60C882309F489C20E945D0FAF
:10076000882309F084C282E294E068E873E10E9481
:100770006514882309F486C280E491E06BE70E9447
:10078000331180C286E195E061E970E00E94880A39
:100790000E94A60C882319F46EE071E002C063E1A8
:1007A00071E086E195E00E94FA0B86E195E066E152
:1007B00071E00E94FA0B0E945D0F882319F46BE12F
:1007C00071E002C06EE171E086E195E00E94FA0BF3
:1007D00086E195E00E94B30A53C28FE097E26CE392
:1007E00071E04FE057E20E948C0F1092CE0184ED31
:1007F0008093CF018FE18093D00188E08093D10175
:10080000809134048093D201809138048093D30185
:1008100080913C048093D401809130048093D50171
:10082000A6EDB1E0E0E4F4E08EE101900D9281509C
:10083000E1F7A4EFB1E0EEE5F4E08EE101900D9276
:100840008150E1F78EE1E0E4F4E0DF01982F1D92A2
:100850009A95E9F7EEE5F4E0DF011D928A95E9F754
:100860002EEC31E082E192E0821B90E00E940411C4
:100870008091300490913104A0913204B0913304FE
:100880000196A11DB11D8093300490933104A09373
:100890003204B0933304DD24D3940E948615882358
:1008A00009F494C08091BA059091BB05892B09F099
:1008B0008DC08091340490913504A0913604B0919C
:1008C00037040196A11DB11D809334049093350423
:1008D000A0933604B09337040091BD050F71802FAB
:1008E00082508D31D8F48091BD0586FD07C00E94ED
:1008F0001F03E02FF0E0E15CFB4F80838091BD059A
:10090000807E803859F48091BE05813039F4809121
:10091000BF05E02FF0E0E35AFB4F80839091BD05C7
:100920008091BD05803E11F408E004C0092F0295B6
:10093000069507708091BD05813E09F408E08FE0BF
:1009400097E26CE371E04FE057E20E948C0F009356
:10095000CE018091BC058093CF018091BD058F7140
:100960008093D0014091BE0521ED31E0EFEBF5E041
:10097000C901BF0150E00E9479018091BE0590E05D
:1009800003960E9404118091300490913104A0914B
:100990003204B09133040196A11DB11D809330043F
:1009A00090933104A0933204B09333048BE294E02B
:1009B00064E670E00E94491480912F04882311F4AA
:1009C00083E101C0835F61E00E9497070E94E50C0C
:1009D0008C010E9484110B3211050CF415C1809119
:1009E000B001883009F010C18091B101882309F06D
:1009F0000BC18091BB01813109F006C180913C049B
:100A000090913D04A0913E04B0913F040196A11D38
:100A1000B11D80933C0490933D04A0933E04B09399
:100A20003F048091C701833409F4EEC00E9429037A
:100A3000882361F088E294E064E670E00E94491443
:100A40008FE294E061E00E943102DEC08CE794E026
:100A500060E874E04BE70E94A801882309F4D4C041
:100A600060917C0470917D0480917E0490917F045C
:100A700060587E478A4A934860937C0470937D0453
:100A800080937E0490937F040E9494180E94231602
:100A90008823A1F1FE01319685E0DF011D928A9540
:100AA000E9F783E0898380917C0490917D04A09193
:100AB0007E04B0917F048A839B83AC83BD838FE1E6
:100AC000BF0145E00E947D16809138049091390461
:100AD000A0913A04B0913B040196A11DB11D8093F1
:100AE000380490933904A0933A04B0933B0488E906
:100AF00093E060E870E00E94D30A0FC088E993E0B9
:100B000068E670E00E94D30A809184048F5F80932E
:100B10008404853120F00E943B02109284040E94DC
:100B2000BE187B018C010E946D18BC0188E993E01E
:100B30004AE050E00E94C80B88E993E06FE20E940F
:100B4000AB0AC801B7010E947618BC0188E993E09E
:100B50004AE050E00E94C80B88E993E06FE20E94EF
:100B6000AB0AC801B7010E947C18BC0188E993E078
:100B70004AE050E00E94C80B88E993E060E20E94DE
:100B8000AB0AC801B7010E948E18BC0188E993E046
:100B90004AE050E00E94C80B88E993E06AE30E94B3
:100BA000AB0AC801B7010E948818BC0188E993E02C
:100BB0004AE050E00E94C80B88E993E06AE30E9493
:100BC000AB0AC801B7010E948218BC0188E993E012
:100BD0004AE050E00E94C80B88E993E067E271E0C8
:100BE0000E94FA0B40917C0450917D0460917E0438
:100BF00070917F0488E993E02AE030E00E94670B5F
:100C000088E993E00E94B30A8BE294E060E070E030
:100C10000E946514882351F080912F04882311F4D9
:100C200083E101C0835F60E00E94970788E294E05F
:100C300060E070E00E946514882329F08FE294E060
:100C400060E00E94310281E0D8268EE294E06D2DB2
:100C50000E9431020F900F900F900F900F90CF9144
:100C6000DF911F910F91FF90EF90DF90089582E246
:100C700094E060EA7FE00E946514882309F082CD49
:100C8000DD240BCE85E294E06CEF79EE0E946514D2
:100C9000882309F0A2CDFFCD982F8E3008F09E500A
:100CA000977080914E018295880F880F807C892BE8
:100CB00080937C0080917A00806480937A00809198
:100CC0007A0086FDFCCF2091780040917900942F26
:100CD00080E030E0282B392BC90108951F920F9234
:100CE0000FB60F9211242F933F938F939F93AF933F
:100CF000BF938091890490918A04A0918B04B09154
:100D00008C0430918D040196A11DB11D232F2D5F00
:100D10002D3720F02D570196A11DB11D20938D0474
:100D20008093890490938A04A0938B04B0938C04DD
:100D30008091850490918604A0918704B0918804E5
:100D40000196A11DB11D8093850490938604A09304
:100D50008704B0938804BF91AF919F918F913F9189
:100D60002F910F900FBE0F901F9018958FB7F8948A
:100D70002091890430918A0440918B0450918C0415
:100D80008FBFB901CA0108959B01AC017FB7F894E8
:100D90008091850490918604A0918704B091880485
:100DA00066B5A89B05C06F3F19F00196A11DB11D46
:100DB0007FBFBA2FA92F982F8827860F911DA11DBD
:100DC000B11D62E0880F991FAA1FBB1F6A95D1F75A
:100DD000BC012DC0FFB7F8948091850490918604E2
:100DE000A0918704B0918804E6B5A89B05C0EF3FA9
:100DF00019F00196A11DB11DFFBFBA2FA92F982F81
:100E000088278E0F911DA11DB11DE2E0880F991F4B
:100E1000AA1FBB1FEA95D1F7861B970B885E9340EC
:100E2000C8F2215030404040504068517C4F21155D
:100E300031054105510571F60895789484B58260B5
:100E400084BD84B5816084BD85B5826085BD85B56E
:100E5000816085BDEEE6F0E0808181608083E1E81D
:100E6000F0E0108280818260808380818160808355
:100E7000E0E8F0E0808181608083E1EBF0E0808158
:100E800084608083E0EBF0E0808181608083EAE72A
:100E9000F0E08081846080838081826080838081B3
:100EA000816080838081806880831092C100089572
:100EB000CF93DF93482F50E0CA0183589E4FFC0127
:100EC000349147595E4FFA018491882369F190E08B
:100ED000880F991FFC01E55BFE4FA591B491FC01C1
:100EE000EB5AFE4FC591D491662351F42FB7F89475
:100EF0008C91932F909589238C93888189230BC0A3
:100F0000623061F42FB7F8948C91932F90958923D8
:100F10008C938881832B88832FBF06C09FB7F8945A
:100F20008C91832B8C939FBFDF91CF910895482F95
:100F300050E0CA018F569E4FFC012491CA0183588C
:100F40009E4FFC01949147595E4FFA01349133232F
:100F500009F440C0222351F1233071F0243028F4E9
:100F60002130A1F0223011F514C02630B1F0273025
:100F7000C1F02430D9F404C0809180008F7703C081
:100F8000809180008F7D8093800010C084B58F7722
:100F900002C084B58F7D84BD09C08091B0008F7779
:100FA00003C08091B0008F7D8093B000E32FF0E00C
:100FB000EE0FFF1FEB5AFE4FA591B4912FB7F89497
:100FC000662321F48C919095892302C08C91892B02
:100FD0008C932FBF0895682F70E0CB018F569E4FE2
:100FE000FC012491CB0183589E4FFC014491675929
:100FF0007E4FFB019491992319F420E030E03CC02E
:10100000222351F1233071F0243028F42130A1F053
:10101000223011F514C02630B1F02730C1F0243051
:10102000D9F404C0809180008F7703C08091800044
:101030008F7D8093800010C084B58F7702C084B507
:101040008F7D84BD09C08091B0008F7703C08091EF
:10105000B0008F7D8093B000892F90E0880F991F9A
:10106000815A9E4FFC01A591B4918C9120E030E013
:10107000842311F021E030E0C901089508951F9202
:101080000F920FB60F9211242F933F934F938F938C
:101090009F93EF93FF938091C00082FD1DC040910C
:1010A000C6002091CE043091CF042F5F3F4F2F73A5
:1010B00030708091D0049091D1042817390771F0D5
:1010C000E091CE04F091CF04E257FB4F4083309380
:1010D000CF042093CE0402C08091C600FF91EF910F
:1010E0009F918F914F913F912F910F900FBE0F9035
:1010F0001F901895E0912205F0912305E05CFF4FC9
:101100008191919120813181821B930B8F7390701B
:10111000892B11F00E943E0808951F920F920FB67E
:101120000F9211242F933F938F939F93EF93FF93ED
:1011300020911205309113058091140590911505A9
:101140002817390731F48091C1008F7D8093C10049
:1011500014C0E0911405F0911505EE52FB4F20816B
:10116000809114059091150501968F73907090935E
:101170001505809314052093C600FF91EF919F9170
:101180008F913F912F910F900FBE0F901F90189548
:10119000AF92BF92DF92EF92FF920F931F93CF9384
:1011A000DF93EC017A018B01DD24403081EE58079A
:1011B00080E0680780E0780711F0DD24D39491E0A7
:1011C000A92EB12CEC89FD89DD2069F0C50108A0AC
:1011D00002C0880F991F0A94E2F7808360E079E0EB
:1011E0008DE390E005C0108260E874E88EE190E045
:1011F000A80197010E94441C2150304040405040BB
:10120000569547953795279580E12030380720F08F
:10121000DD2011F0DD24D6CFE889F9893083EA8911
:10122000FB89208319A2EE89FF89408121E030E00B
:10123000C9010C8C02C0880F991F0A94E2F7482B51
:101240004083EE89FF894081C9010D8C02C0880F5F
:10125000991F0A94E2F7482B4083EE89FF89408169
:10126000C9010E8C02C0880F991F0A94E2F7482B1F
:101270004083EE89FF8980810F8C02C0220F331FCB
:101280000A94E2F7209528232083DF91CF911F91C4
:101290000F91FF90EF90DF90BF90AF900895DC0129
:1012A0001C96ED91FC911D97E05CFF4F21913191CF
:1012B00080819181281B390B2F733070C9010895EB
:1012C000DC011C96ED91FC911D97E05CFF4F2081A5
:1012D0003181E054F040DF01AE5BBF4F8D919C91B6
:1012E00011972817390719F42FEF3FEF07C08D9199
:1012F0009C91E80FF91F8081282F30E0C9010895E3
:10130000DC011C96ED91FC911D97E05CFF4F208164
:101310003181E054F040DF01AE5BBF4F8D919C9175
:1013200011972817390719F42FEF3FEF10C08D914F
:101330009C911197E80FF91F20818D919C91119735
:1013400001968F73907011969C938E9330E0C90133
:101350000895DC0191968C919197882339F05496E9
:10136000ED91FC915597808186FFF9CF91961C9263
:101370000895CF93DF93EC01EE85FF85E05CFF4F8E
:1013800020813181E054F0402F5F3F4F2F73307048
:10139000DF01AE5BBF4F8D919C91119728173907E4
:1013A000D1F3E05CFF4F80819181E054F040E80F81
:1013B000F91F6083EE85FF85E05CFF4F318320835A
:1013C000EE89FF89208181E090E00F8C02C0880FB8
:1013D000991F0A94E2F7282B208381E089A3EC89E6
:1013E000FD8980818064808381E090E0DF91CF91EE
:1013F0000895109219051092180588EE93E0A0E068
:10140000B0E080931A0590931B05A0931C05B09340
:101410001D058FE791E090931705809316058EE8E0
:1014200094E0909323058093220582ED94E09093BD
:1014300025058093240585EC90E090932705809303
:10144000260584EC90E0909329058093280580EC94
:1014500090E090932B0580932A0581EC90E0909387
:101460002D0580932C0582EC90E090932F058093BE
:101470002E0586EC90E0909331058093300584E052
:101480008093320583E08093330587E080933405B1
:1014900085E08093350581E0809336050895CF93EC
:1014A000DF930E941D070E944302CAE7D8E00E9412
:1014B0009D032097E1F30E947A08F9CFCF92DF9243
:1014C000EF92FF920F931F93CF93DF937C016B01F9
:1014D0008A01C0E0D0E00FC0D6016D916D01D70147
:1014E000ED91FC910190F081E02DC7010995C80FA5
:1014F000D91F015010400115110571F7CE01DF9180
:10150000CF911F910F91FF90EF90DF90CF900895B2
:10151000EF92FF920F931F93CF93DF937C018B0188
:10152000C0E0D0E0F8010F5F1F4F6491662359F0CF
:10153000D701ED91FC910190F081E02DC701099553
:10154000C80FD91FEFCFCE01DF91CF911F910F911F
:10155000FF90EF900895DC01ED91FC910190F081F6
:10156000E02D09950895EF92FF920F931F938C0140
:10157000DC01ED91FC910190F081E02D6DE0099589
:101580007C01D801ED91FC910190F081E02DC80122
:101590006AE009959C012E0D3F1DC9011F910F9115
:1015A000FF90EF900895EF92FF920F931F937C01AD
:1015B0000E94880A8C01C7010E94B30A9C01200F77
:1015C000311FC9011F910F91FF90EF900895CF93A4
:1015D000DF93EC016115710519F420E030E00FC0D4
:1015E000DB010D900020E9F71197A61BB70BE881EE
:1015F000F9810280F381E02DAD0109959C01C901BB
:10160000DF91CF9108954F925F927F928F929F9238
:10161000AF92BF92CF92DF92EF92FF920F931F9300
:10162000DF93CF93CDB7DEB7A1970FB6F894DEBFA7
:101630000FBECDBF2C01742ECB01223008F42AE05E
:1016400019A231E2C32ED12CCC0EDD1E822E99249C
:10165000AA24BB24672D752FA50194010E94441C68
:1016600079018A01C801B701A50194010E94FE1BFE
:10167000472D461B0894C108D1084A3010F4405D3C
:1016800001C0495CF6014083E114F1040105110534
:1016900021F07E2C5F2DC801DDCFC201B6010E9472
:1016A000E70AA1960FB6F894DEBF0FBECDBFCF916B
:1016B000DF911F910F91FF90EF90DF90CF90BF903F
:1016C000AF909F908F907F905F904F900895DC0136
:1016D0002115310541F4ED91FC910190F081E02D4F
:1016E000642F099508950E94030B0895EF92FF92CD
:1016F0000F931F939A01E62EFF2400E010E0B8013B
:10170000A7010E94670B1F910F91FF90EF90089522
:10171000CF92DF92EF92FF920F931F93CF93DF93BD
:10172000EC016A017B012115310541F4E881F98161
:101730000190F081E02D642F09951FC02A303105FA
:10174000D1F477FF17C0E881F9810190F081E02D95
:101750006DE209958C0144275527BA014C195D09A2
:101760006E097F09CE012AE00E94030B9801280F21
:10177000391F04C02AE00E94030B9C01C901DF91BC
:10178000CF911F910F91FF90EF90DF90CF90089530
:10179000EF92FF920F931F937B019A010027F7FCB2
:1017A0000095102FB801A7010E94880B1F910F917F
:1017B000FF90EF900895CF92DF92EF92FF920F93F8
:1017C0001F936C017B019A010027F7FC0095102FF5
:1017D000B801A7010E94880B8C01C6010E94B30AC0
:1017E000080F191FC8011F910F91FF90EF90DF9014
:1017F000CF9008950E94E70A0895EF92FF920F9309
:101800001F937C010E94E70A8C01C7010E94B30A62
:10181000080F191FC8011F910F91FF90EF900895B5
:1018200080913A0561E00E94970778940895FF92AD
:101830000F931F93082F162FF42EF89480913A05DA
:1018400060E00E9497071F71102B1EBD0DB407FEAC
:10185000FDCFFEBC0DB407FEFDCF0E94100C1F9102
:101860000F91FF9008951F93182F282F30E02076B6
:10187000307080913B0590E02817390799F080EA95
:101880006FE143E00E94170C412F407640933B05E7
:1018900050E085E0559547958A95E1F780E86FE13E
:1018A0000E94170C1F9108950F931F93182F062F56
:1018B0000E94330C80E4612F402F0E94170C1F916F
:1018C0000F9108950F931F93182F072F0E94540C08
:1018D000812F8F5F602F0E94540C1F910F910895EC
:1018E00088E360EB0E94540C089588E361EB0E944A
:1018F000540C08950F931F93182F062FF89480917E
:101900003A0560E00E949707802F8F71812B8EBD72
:101910000DB407FEFDCF1EBC0DB407FEFDCF07FFC3
:1019200004C01EBC0DB407FEFDCF1EB50E94100CF6
:10193000812F1F910F9108951F93182F0E94330C30
:1019400080E0612F0E947A0C1F91089584ED61E17F
:101950000E94540C82ED61E00E94540C8AEE0E94B9
:101960009C0C80FDFBCF82ED60E00E94540C89ED61
:101970000E949C0C90E0969587959695879581702E
:1019800008950F931F93CF93DF93EC018B01F8948D
:1019900080913A0560E00E9497078AE38EBD0DB4FE
:1019A00007FEFDCF09C01EBC0DB407FEFDCF8EB5EE
:1019B000F80181938F0121972097A9F70E94100CBD
:1019C000DF91CF911F910F9108950F931F93DF9394
:1019D000CF9300D000D000D0CDB7DEB789E30E940E
:1019E0009C0C882319F400E010E048C060913C058D
:1019F00070913D0580E00E94620C86E090E0BE019F
:101A00006F5F7F4F0E94C10C89819A8190933D0541
:101A100080933C052B813C81E0913805F09139059C
:101A20008D8187FD03C000E010E00EC024503040DF
:101A30008F01015010402017310708F48901C801B7
:101A400064EA71E00E94C10CF801EC55FE4F10826F
:101A500060913C0570913D058CE06130780724F081
:101A60008CE06FEF7BE003C0615070408CE00E941F
:101A7000620C80E86EE140E40E94170CC8012696D3
:101A80000FB6F894DEBF0FBECDBFCF91DF911F918F
:101A90000F9108950F931F93CF93DF938C01EB0168
:101AA000F89480913A0560E00E9497078AE78EBD1E
:101AB0000DB407FEFDCF08C088818EBD0DB407FEB2
:101AC000FDCF21960150104001151105A9F70E9484
:101AD000100CDF91CF911F910F9108958AE061E082
:101AE0000E9458078AE061E00E9497078BE061E05E
:101AF0000E9458078DE061E00E9458078CE060E08A
:101B00000E9458078BE061E00E9497078BE060E03D
:101B10000E9497078DE060E00E94970780E58CBDEA
:101B20008DB581608DBD08951F93CF93DF93EB0139
:101B3000142F90933905809338050CB406FC02C02D
:101B40000E946E0D10933A05812F61E00E945807A4
:101B50000E94100C8FEF60E04FEF0E94170C62E0C4
:101B600070E080E090E00E94C40680E06DE10E9499
:101B70007A0C8823D1F310923D0510923C0588E041
:101B800060E070E00E94620C8CE060E070E00E9417
:101B9000620C8AE06FEF7BE00E94620C84E060E000
:101BA0007CE00E94620C86E06FEF71E10E94620CA3
:101BB0000E94750C88E26FE370E30E94620C80E380
:101BC00069EF77EF0E94620C80EC6DE00E94540C8C
:101BD00081EC60E00E94540C80E862EC42E30E94D9
:101BE000170C86EC62E17CE00E94620C84EC62E1FE
:101BF0000E94540C8AEC6CED75E00E94620C84EE3D
:101C000068810E94540C85EE69810E94540C82EE1A
:101C10006A810E94540C83EE6B810E94540C80EE0A
:101C20006C810E94540C81EE6D810E94540C84EDF5
:101C300060E10E94540C86ED60E071E00E94620C4D
:101C40008AEE0E949C0C80FDFBCF8FE10E94330C3A
:101C500080E86BE140EC0E94170C80E86FE144E003
:101C60000E94170C82E70E949C0C863008F08F5F60
:101C7000DF91CF911F910895CF93DF93EC0115C0B1
:101C80008CE10E949C0C81FF10C086E195E06FE220
:101C900071E00E94FD0B80E86FE140E80E94170CA4
:101CA00080EA6FE140E80E94170C80E06FE10E943B
:101CB0007A0C83FDE5CF82E060E07CE00E94620C5C
:101CC000BE016050744F86E00E94620C8AE760E0BB
:101CD00040E00E94170CCE0164EA71E00E944A0DB8
:101CE00080E86FE148E00E94170CDF91CF910895E2
:101CF0000F931F93CF93DF939C01EB018A01109206
:101D00007C05009729F084E695E0B9010E943D1416
:101D1000209719F0CE010E94F20F0115110529F04C
:101D200084E795E0B8010E943D1481E0DF91CF91F6
:101D30001F910F910895AF92BF92CF92DF92FF92C1
:101D40000F931F93CF93DF938C01EB01F42E10922E
:101D50007C0538E341E050E060E070E018C0832F7C
:101D600090E0FC01B3E0F595E795BA95E1F7E25C08
:101D7000FA4F877090705A016B0104C0AA0CBB1C0B
:101D8000CC1CDD1C8A95D2F720812A292083315072
:101D900031F78EE595E0BE010E943514C8016EE56D
:101DA00075E04F2D0E94940DDF91CF911F910F91FF
:101DB000FF90DF90CF90BF90AF900895DF92EF92A9
:101DC000FF920F931F93CF93DF93D82E862FBA01E4
:101DD000213041F4675F7F4F9B0140E050E0695044
:101DE00070400EC0223029F020E030E040E050E0AA
:101DF00007C0625070409B0140E050E06E5F7F4F33
:101E0000E82EFF2484EA91E0E80EF91E8B01E70139
:101E10000FC0F881E0E0898190E08E2B9F2BA0E03D
:101E2000B0E0280F391F4A1F5B1F22960250104056
:101E30000230110570F7CB018E7FD701A80FB91FB3
:101E40006817790779F08C9190E0A0E0B0E0BA2FA4
:101E5000A92F982F882702C040E050E0280F391F93
:101E60004A1F5B1FCA01AA27BB270097A105B1051E
:101E700099F7C90180959095ED2DF0E0EC55FE4F56
:101E800090838183DF91CF911F910F91FF90EF900D
:101E9000DF9008951092BC011092BD0180E4809300
:101EA000B8011092B9018093BA0188E16EE044E173
:101EB00050E020E00E94DE0E089580917E05869518
:101EC0008095817008950F931F93BC0104EA11E07F
:101ED000C8010E943514C80106966EE575E00E949F
:101EE00035141F910F910895EF92FF920F931F9356
:101EF0007B010E94630F02EC11E0C801B7010E9450
:101F00003D14C801049764E675E00E943D141F91DA
:101F10000F91FF90EF900895EF92FF920F931F9310
:101F2000CF93DF937C01EB018A0189E895E00E9461
:101F3000740F8881807F803E49F088819981AA81D1
:101F4000BB818F5F9F4FAF4FBF4F31F484EA91E069
:101F50006BE871E00E94351488E08093B001109224
:101F6000B10182EB91E06DEA71E049E050E00E943E
:101F700063011092B40181E18093BB011093C80109
:101F80000093C901F092C601E092C7011092CA0104
:101F90001092CC011092CD01DF91CF911F910F9142
:101FA000FF90EF900895EF92FF920F931F930AEA2C
:101FB00011E0C8010E94630F74E1E72EF12CE00EDE
:101FC000F11EC8014896B7010E943D14C70164E69E
:101FD00075E00E943D140E944A0F1F910F91FF90DF
:101FE000EF900895BC0181E080937E058CE695E03A
:101FF0000E943D1408950F931F938C01889690932F
:10200000B4018093B5010E944A0F1092D60110923C
:10201000D701045E1F4F82E36AE1A80122E00E941B
:10202000DE0EC8014A960E943C0E1F910F91089542
:10203000CF93DF939C01862F80618093D30164301E
:1020400029F02115310511F421E030E09091C8010B
:102050008091C6018093C8019093C6019091C901F7
:102060008091C7018093C9019093C701CDECD1E065
:102070008881A901480F511D2C814C832883252F6D
:102080003327219751E0C93CD50791F71D861E865D
:1020900080E589871092B40188E28093B5010E949F
:1020A000D30F84E08B871C8682E36AE14CE150E029
:1020B00022E00E94DE0E86E390E00E943C0EDF915B
:1020C000CF910895E82FA091B401B091B501F0919E
:1020D000D2014091C80150E0292F30E04217530748
:1020E00009F08EC08091C9018E1709F089C08091D6
:1020F000D301E82F81FF4EC01092B4018CE280938F
:10210000B5010E94D30F82E18093D3019091C80161
:102110008091C6018093C8019093C6019091C90136
:102120008091C7018093C9019093C701EDECF1E064
:1021300021E030E08081A901480F511D44831082C5
:10214000252F3327319751E0E93CF50799F715869C
:1021500016861182128280915401838314828D5FCE
:102160008093540182E0818B84E0828B95E0938B95
:10217000148A80E68187938788E7848782E36AE10F
:1021800040E250E022E00E94DE0E8AE390E00E94EE
:102190003C0E36C084FF34C04F2F50E084E055958C
:1021A00047958A95E1F79A2F80E02B2F30E0282B76
:1021B000392BCA01880F991F880F991F281B390BCB
:1021C0002451304037FF02C020E030E030939005CA
:1021D00020938F05232B69F09A01220F331F220FC2
:1021E000331F2E5D3F4F685070406217730740F0F9
:1021F00009C0E0FF05C080E090E060E00E94181098
:1022000020E030E0C90108950F931F93DF93CF932F
:102210000F92CDB7DEB78C01045E1F4F1093B4014F
:102220000C511040802F845E8093B50189830E94F9
:102230004A0F085F1F4F1093CA0189818451809310
:10224000CB01085F1F4F88E26AE1A80121E00E94EC
:10225000DE0EC8014A960E943C0E0F90CF91DF918E
:102260001F910F910895FF920F931F939C01F62EDB
:1022700089E895E0B9010E94740F00EB11E088E055
:102280008093B0011092B101C80102966DEA71E02D
:1022900049E050E00E9463018CE48093B50181E144
:1022A0008093BB010E944A0F1092C8018BE7809374
:1022B000C9018AE08093C601F092C7011092CA0159
:1022C00088E38093CB011092CC011092CD01025E85
:1022D0001F4F80E3F80111928A95E9F7C80163E680
:1022E00072E04AE050E00E94630188E26AE140E463
:1022F00050E021E00E94DE0E8AE590E00E943C0E54
:102300001F910F91FF900895DF92EF92FF920F932C
:102310001F93CF93DF93EC0180917C05882319F004
:10232000CE010E94A71A209709F0C3C080917E05B4
:102330008570F1F18091510190915201892BC1F585
:102340000E94A60C8823A1F18BE891E00E94630F04
:1023500088E08093B001A6E0FA2EF092B10182EB02
:1023600091E065EA71E048E050E00E94630104EC0E
:1023700011E0D8011D92FA94E9F7C8010A976EE5B9
:1023800075E00E943514C80106966CE675E00E945F
:102390003D14C801049764E675E00E943D148091E5
:1023A0007E05886080937E058AE290E00E943C0E64
:1023B0000E94A60C882349F080915101909152010E
:1023C0000196909352018093510180917F05813055
:1023D00009F0EFC180917E0581FFEBC102E000931F
:1023E0007F05809153018F5F809353018F7110910E
:1023F00080051295110F107E182BE0908105D0906A
:10240000820589E895E068E775E00E94740FF8E0BE
:10241000FF2EF092B0011092B10182EB91E06DEAD3
:1024200071E049E050E00E9463018CE28093B501C5
:1024300086E08093BB010E944A0FE092C801D092CF
:10244000C9018BE08093C6011093C701EAECF1E06B
:10245000DF011D92FA94E9F7809154018093CC0139
:102460008D5F8093540180E68093D2010093D30165
:1024700083E08093D4011092D5011092D60110927E
:10248000D7011092D8011092D9010093DA0184E0AB
:102490008093DB010093DC0186E28093DD0182E31F
:1024A0006AE140E250E022E00E94DE0E8AE390E022
:1024B0009BC0C932D10508F47CC11091B00118301D
:1024C00009F082C18091B101863009F07DC18AECAA
:1024D00091E064E675E044E050E00E946C010097F2
:1024E00009F072C18091B901813029F58AEA91E041
:1024F0000E94630F1092B80182E08093B90184ECCE
:1025000091E06AEB71E00E9435148AEB91E06EE590
:1025100075E00E9435148AEC91E060EC71E00E9455
:102520003D1480EC91E064E675E00E943D148AE27F
:1025300090E00E943C0E80917E0583FF3AC110918D
:10254000B901123009F035C180EC91E06CE675E01C
:1025500044E050E00E946C01009709F02AC189E82C
:1025600095E06AEB71E00E94351410937E0521C15D
:10257000183009F01EC18091B101882309F019C1FA
:102580008091B201853409F014C182EC91E064E6D7
:1025900075E044E050E00E946C01009709F009C129
:1025A0008091BB01813019F58091C6018830F9F422
:1025B000E0918305F0918405309719F08EEB91E05E
:1025C00009950E94D30F1092C6018091C801883FDF
:1025D00028F08091C9018F5F8093C9018091C80163
:1025E000885F8093C801CE010E943C0EE2C00E9429
:1025F000E913882351F08091BB01813131F4CE0180
:102600000E94EE13882309F0D4C0C633D10528F404
:102610008091BB01863009F0CCC08091C8018B301D
:1026200009F0BEC08EEB91E068E775E044E050E051
:102630000E946C01009709F0BCC08091D301382F33
:1026400082FF13C0E0918505F0918605309759F01F
:102650008091C90182958695877063E040E050E0E3
:1026600020E030E0099585E090C09091B40180E0D1
:102670002091B501022F10E0082B192B8091D20177
:10268000482F50E0E4E055954795EA95E1F7CA01F7
:10269000880F991F880F991F081B190B04511040B0
:1026A00017FF02C000E010E080917F05823079F5CD
:1026B00031FF21C034FF1FC080E090E060E00E9445
:1026C000181088E18093D301E0918705F091880587
:1026D000309719F420E030E007C08091C70182955F
:1026E0008695877009959C0183E080937F05C901D9
:1026F0000E94FB0F5EC081E080937F0534FF03C022
:1027000080E090E002C0C801019664E046C08330DA
:1027100081F50115110579F1E0918505F0918605A6
:10272000309749F1440F551F440F551FCE010897AC
:102730004E5D5F4F8417950708F4AC01C801840F04
:10274000951FC817D90710F0980103C09E01241BDC
:10275000350B8091C90182958695877060E0099557
:1027600080917D05882319F0C80168E016C0C80172
:1027700008C08530F1F030FF0BC08330D1F0C801C4
:10278000019669E00E94181086E080937F0511C0D1
:102790000115110571F0C80160E00E94181009C010
:1027A00080914F0190915001BE010E9462109C01E6
:1027B00002C020E030E0C901DF91CF911F910F915D
:1027C000FF90EF90DF900895CA32D10508F0D0CE87
:1027D000F0CF8091B905811181E00895CF92DF9209
:1027E000EF92FF920F931F93CF93DF93C1E9D5E050
:1027F00030E0CC24DD2429C02A814B818091C8019E
:1028000090E0042F10E080179107D9F49091C9014E
:102810009217B9F48C818823A1F02091CB0130E08C
:1028200028503040F090CA01EE242E0D3F1DE88163
:10283000F981892F942F6EEB71E04EEC51E00995F0
:1028400031E00894C11CD11C25968091B90590E017
:10285000C816D9068CF2832FDF91CF911F910F916B
:10286000FF90EF90DF90CF900895DC01FB0186E0B0
:1028700001900D928150E1F708959C01FB01808148
:102880009181A281B381F90180839183A283B38373
:1028900008950F931F93CF93DF938C01EB0180E09A
:1028A0006115710509F081E0F8018283882341F008
:1028B0000E94B6062197C60FD71FF801D183C083A7
:1028C000DF91CF911F910F910895EF92FF920F9397
:1028D0001F93CF93DF93EC017B018A81882311F44E
:1028E00000E00FC0088119810E94B606C801861B4E
:1028F000970B2AEE8136920710F400E006C0082FED
:102900000195CE01B7010E944914802FDF91CF912C
:102910001F910F91FF90EF900895782F8CB58160F3
:102920008CBD65B121E030E040E050E00090550101
:1029300004C0220F331F441F551F0A94D2F7522F91
:10294000822F8095862385B99EBD0DB407FEFDCFED
:102950008EB57EBD0DB407FEFDCF4EB5382F20E0FD
:1029600085B1582B55B98CB58E7F8CBD50E0422B6C
:10297000532BCA010895E8980E948D14E89A08958F
:1029800080E090E00E948D1480910B06853009F064
:1029900054C080E090EB0E948D14282F80910F0688
:1029A000882371F490910C06992351F080910F06C1
:1029B000E82FF0E0E454FA4F90838F5F80930F0686
:1029C00080910F06E82FF0E0E454FA4F20838F5FE8
:1029D00080930F068091BA059091BB058227282F1E
:1029E00022952827022E269526952025022E26950B
:1029F00020252770082E892F269507942795902D3E
:102A0000822706942795902582279093BB05809373
:102A1000BA058091BE0520910F0690E0049630E043
:102A2000821793072CF080910F06873408F46DC04D
:102A30008DE092E80E948D14089580910B0687FF27
:102A40002EC0E091BE0580910B068F5F80930B0630
:102A50008150ED5FE80FF0E0E454FA4FE08180919F
:102A6000BA059091BB058E27282F22952827022E84
:102A7000269526952025022E269520252770082E9E
:102A8000892F269507942795902D822706942795C0
:102A9000902582279093BB058093BA0530C0809122
:102AA0000B068F5F80930B068150833019F18430C1
:102AB0002CF4882399F0813009F516C0893019F07B
:102AC0008A30E1F402C0EDE21AC0E0910C06909168
:102AD000BE058EEF891B80930B0611C08091BA054D
:102AE0009091BB05E82F0BC08091BA059091BB0572
:102AF000E92F05C08DE092E80E948D14EAEA8E2F3E
:102B000090E0805098440E948D14089580910B06A7
:102B1000853009F042C08091BE0520910F0690E0FB
:102B2000049630E08217930724F080910F068734D3
:102B3000A0F184E080930B068091BE05833430F0D1
:102B400081E090E09093BB058093BA058091BD052C
:102B500086FF12C080910A06282F30E0C9018F71CC
:102B600090704F9749F08091BD0590E082279327A0
:102B70008F719070892B89F48091BA059091BB0573
:102B8000892B09F052C0E0910706F09108063097B2
:102B900009F44BC080E0099554C080910B06843045
:102BA00011F080E0089580910906882351F0809308
:102BB000BE051092BD058091BD058093BC0583E0E4
:102BC00004C01092BE058091BE0580930F068FEF62
:102BD0009FEF9093BB058093BA0520910C062223AA
:102BE000D9F08227282F22952827022E2695269570
:102BF0002025022E269520252770082E892F269520
:102C000007942795902D8227069427959025822753
:102C10009093BB058093BA0585E080930B068DEDFC
:102C200092E80E948D1480E008958FEF9FEFAFEF40
:102C3000BFEF8093030690930406A0930506B0931C
:102C4000060681E0089580910B06853099F4809105
:102C50000F06882379F480E090E00E94BB1490FD79
:102C600009C08DE092E80E94BB1484E080930B06BB
:102C700081E0089580E00895982F86FD05C0907E3C
:102C800080910A068F71980F9093BD05E091070619
:102C9000F0910806309711F081E009958FEF9FEFD2
:102CA0009093BB058093BA058091BA059091BB05BE
:102CB00020910C068227282F22952827022E269560
:102CC00026952025022E269520252770082E892F4F
:102CD000269507942795902D822706942795902571
:102CE00082279093BB058093BA0586E080930B06FC
:102CF0008DE392E80E948D1408951F93182F40933E
:102D0000BE052FEB35E0C90150E00E947901812F0B
:102D10000E943C161F91089525B181E090E0A0E04B
:102D2000B0E00090550104C0880F991FAA1FBB1F77
:102D30000A94D2F7282B25B924B1822B84B98AE0D2
:102D400061E00E9497078AE061E00E9458078BE0EB
:102D500061E00E9458078CE060E00E9458078DE017
:102D600061E00E94580780E58CBD8DB581608DBD06
:102D700082E060E00E94580782E061E00E949707CD
:102D800008951F93162F80930A0640930C063093E4
:102D90000E0620930D060E948C1680E090E00E94A3
:102DA0008D1485E092E80E948D1480E098EB02C0BB
:102DB00080E090E00E948D1482E00E94EB07892B56
:102DC000B9F3812F90E0F4E0880F991FFA95E1F7AD
:102DD000876C90680E948D1480910D0690910E066C
:102DE000805090460E948D1486E096EC0E948D14CF
:102DF00082EA94E90E948D148CEA92EC0E948D1470
:102E000010910C06112341F083E89AEC0E948D1476
:102E1000812F90E09E6C06C08BE89AEC0E948D1486
:102E20008DE29EEC0E948D1483E894EC0E948D1438
:102E300080E598E90E948D1487E79CEC0E948D1430
:102E400080E090EE0E948D1480E098EC0E948D143A
:102E500089E490EC0E948D1484E080930B068091AD
:102E60000A0690E08F719070892B41F080E060EC51
:102E700074E140E050E00E942A1903C080E00E9403
:102E80004D1980910A061F9108958F929F92AF92DB
:102E9000BF92CF92DF92EF92FF920F931F93CF9347
:102EA000DF937B018C01EA012CE330E040E050E04D
:102EB0000E94441C6883C801B7012CE330E040E065
:102EC00050E00E94441C122F032FF42EE52E622F97
:102ED000732F842F952F2CE330E040E050E00E94C8
:102EE000441C6983612F702F8F2D9E2D2CE330E0C1
:102EF00040E050E00E94441C122F032FF42EE52ED8
:102F0000622F732F842F952F28E130E040E050E0AE
:102F10000E94441C6A83612F702F8F2D9E2D28E103
:102F200030E040E050E00E94441C79018A01C80171
:102F3000B7016C5F7F4F8F4F9F4F27E030E040E03D
:102F400050E00E94441C6F5F6B8320E0AA24BB24E6
:102F5000650101C02F5F822E9924F401EE54F84FD1
:102F6000CF0183709070892B99F4CF0164E670E0F3
:102F70000E94311C892B39F4CF0160E971E00E9475
:102F8000311C892B29F48EE691E0A0E0B0E004C06A
:102F90008DE691E0A0E0B0E0A80EB91ECA1EDB1ECF
:102FA000C501A0E0B0E0E816F9060A071B0790F695
:102FB0002E83F401EE54F84F83E0882E912C8E225C
:102FC0009F228114910499F4CF0164E670E00E947D
:102FD000311C892B39F4CF0160E971E00E94311C6A
:102FE000892B29F48EE691E0A0E0B0E004C08DE6E4
:102FF00091E0A0E0B0E0A81AB90ACA0ADB0A980179
:1030000087010A191B092C093D09CF0164E670E00C
:103010000E94311C7C01CF0160E971E00E94311CEB
:10302000AC01E1E9F1E060E0613051F48114910418
:1030300049F4E114F10441F44115510529F002C0AD
:10304000808103C08CE101C08DE190E0A0E0B0E0A0
:10305000081719072A073B0740F0081B190B2A0B12
:103060003B0B6F5F31966C30F9F66F5F6D83802F8D
:103070008F5F8C83DF91CF911F910F91FF90EF9025
:10308000DF90CF90BF90AF909F908F900895EF9278
:10309000FF920F931F937B018C01809126069091E4
:1030A0002706A0912806B0912906E816F9060A0716
:1030B0001B0771F0C801B7014BE156E00E944517AC
:1030C000E0922606F0922706009328061093290620
:1030D0001F910F91FF90EF9008950E944718209143
:1030E000210630E02E54384FC90108950E94471838
:1030F0008091200690E008950E94471880911F0655
:1031000090E008950E94471880911B0690E0089572
:103110000E94471880911C0690E008950E9447186D
:1031200080911D0690E00895609312067093130637
:103130008093140690931506209156013091570103
:103140004091580150915901260F371F481F591FB0
:1031500020931606309317064093180650931906CD
:1031600082E080931A060E94B6066093220670934E
:10317000230680932406909325060895EF92FF92EC
:103180000F931F931CC02F5F3F4F4F4F5F4F2093F4
:10319000120630931306409314065093150688EEDA
:1031A00093E0A0E0B0E0E80EF91E0A1F1B1FE092BA
:1031B0002206F092230600932406109325060E940F
:1031C000B606E0902206F0902306009124061091A6
:1031D00025066E197F09800B910B20911206309104
:1031E00013064091140650911506685E73408040A6
:1031F000904048F68091160690911706A091180607
:10320000B0911906281739074A075B07B0F0E0911B
:103210001006F0911106309781F00995611571053E
:103220008105910519F00E94941807C090E08091E3
:103230001A06811191E090931A066091120670911E
:10324000130680911406909115061F910F91FF901F
:10325000EF900895823000F5E82FF0E0EE0FFF1FA9
:10326000E65DF94F71836083882319F08130A1F402
:1032700008C0809169008C7F842B80936900E89A54
:10328000089580916900440F551F440F551F837F97
:10329000842B80936900E99A0895823080F4882312
:1032A00019F0813021F402C0E89801C0E998E82FB4
:1032B000F0E0EE0FFF1FE65DF94F118210820895D6
:1032C0001F920F920FB60F9211242F933F934F939B
:1032D0005F936F937F938F939F93AF93BF93EF937E
:1032E000FF9380912A0690912B06892B29F0E0917B
:1032F0002A06F0912B060995FF91EF91BF91AF91AE
:103300009F918F917F916F915F914F913F912F91FD
:103310000F900FBE0F901F9018951F920F920FB62F
:103320000F9211242F933F934F935F936F937F934B
:103330008F939F93AF93BF93EF93FF9380912C064E
:1033400090912D06892B29F0E0912C06F0912D0605
:103350000995FF91EF91BF91AF919F918F917F91CF
:103360006F915F914F913F912F910F900FBE0F90F2
:103370001F901895DF93CF9300D000D000D0CDB729
:10338000DEB7DE011196EDE9F1E086E001900D92E5
:103390008150E1F786E191E0E4EAF1E0DF019C0190
:1033A0001D9221503040E1F780912E06833019F4B0
:1033B00060E775E003C0BE016F5F7F4F84E490E07B
:1033C00043E450E00E948C0F80912E06833039F048
:1033D00084EA91E0BE016F5F7F4F0E94351481E067
:1033E0008093CE018093CF0186E08093D0018091BD
:1033F0003B0690913C06A0913D06B0913E0680931D
:10340000D2019093D301A093D401B093D5018091C0
:103410002E06833039F48EEC91E00C9664E675E06C
:103420000E943D148AEE91E06EE575E00E9435142D
:10343000AAEBB2E0EBE6F1E002C081918D9331E0BE
:10344000E137F307D1F790912E06992311F083E02D
:1034500001C081E08093C0028DE38093C10287E0C8
:103460008093C20281E08093C302A4ECB2E0EEE557
:10347000F5E002C081918D9385E0E436F807D1F73D
:103480008CE08093CA028AE08093CB02ACECB2E07D
:10349000EAE5F1E002C081918D9321E0E436F20784
:1034A000D1F726ED32E03093400620933F0691306D
:1034B00069F582E38093D60284E08093D702D90134
:1034C0001296E4E6F5E002C081918D9335E0E8368E
:1034D000F307D1F786E38093DC0284E08093DD027A
:1034E0008EED92E09093400680933F06DC01E0E78A
:1034F000F5E002C081918D9385E0E437F807D1F7BC
:1035000082EE92E09093400680933F0620913F0622
:1035100030914006D901E5E6F1E002C081918D933A
:1035200081E0EB36F807D1F7C90106969093400683
:1035300080933F068E5C91400E94041126960FB640
:10354000F894DEBF0FBECDBFCF91DF910895EF920B
:10355000FF920F931F93CF93DF93EC0180912E0680
:10356000823009F4E0C0833030F4882351F1813097
:1035700009F03DC14AC0833021F0843009F037C1E1
:10358000D2C00E94B6062091330630913406409195
:10359000350650913606E0902F06F09030060091E7
:1035A0003106109132062E0D3F1D401F511F62172C
:1035B00073078407950708F41AC10E94BA1984E0BA
:1035C00017C00E94B60660933B0670933C0680933A
:1035D0003D0690933E061092640510926505109288
:1035E0006605109267050E94BA190E94750C81E069
:1035F00080932E060E94B6066093370670933806B5
:103600008093390690933A06F2C0C634D10508F487
:10361000B2C08091C701833409F0ADC08091CE0162
:10362000823009F0A8C02091D2013091D30140919D
:10363000D4015091D50180913B0690913C06A09118
:103640003D06B0913E06281739074A075B0709F087
:1036500092C08091BE02853309F08DC08091C00276
:10366000823009F088C0A6C0DF011196E180ED012B
:10367000219680818630A9F0873030F4813059F06E
:10368000833009F045C00AC08633E9F18A3361F01E
:103690008333F1F509C088E695E037C08CE695E004
:1036A00034C084E795E031C011966C9170E080E001
:1036B00090E0982F872F762F66272981620F711D42
:1036C000811D911D982F872F762F66272A81620FE3
:1036D000711D811D911D982F872F762F66272B81B5
:1036E000620F711D811D911D28EE33E040E050E016
:1036F0000E94FE1B60933306709334068093350658
:103700009093360605C080E795E0BE010E943D1407
:10371000FE01EE0DF11DE017F10708F4A5CF0E94A0
:10372000BA1982E065CFC634D10528F18091C7016E
:10373000833409F58091CE018230E9F42091D201E1
:103740003091D3014091D4015091D50180913B0635
:1037500090913C06A0913D06B0913E06281739078E
:103760004A075B0741F48091BE02853321F48091C2
:10377000C002853059F10E94B6062091370630917B
:1037800038064091390650913A06205F384D4F4F28
:103790005F4F261737074807590748F028C08CE6BF
:1037A00095E00E94F20F83E080932E0620C01092D5
:1037B0002E061DC084E695E06EED71E00E943D147A
:1037C000EEEBF2E08E010C551E4F4ECF0E94700CB6
:1037D0000E94B60660932F067093300680933106E0
:1037E0009093320680916C058823E9F2D8CFDF915F
:1037F000CF911F910F91FF90EF900895629FD0019C
:10380000739FF001829FE00DF11D649FE00DF11D9B
:10381000929FF00D839FF00D749FF00D659FF00D4A
:103820009927729FB00DE11DF91F639FB00DE11D37
:10383000F91FBD01CF0111240895AA1BBB1B51E143
:1038400007C0AA1FBB1FA617B70710F0A61BB70B10
:10385000881F991F5A95A9F780959095BC01CD01B5
:10386000089597FB092E07260AD077FD04D0E5DFDF
:1038700006D000201AF4709561957F4F0895F6F7F1
:10388000909581959F4F0895A1E21A2EAA1BBB1B0C
:10389000FD010DC0AA1FBB1FEE1FFF1FA217B3071C
:1038A000E407F50720F0A21BB30BE40BF50B661F32
:1038B000771F881F991F1A9469F7609570958095F6
:1038C00090959B01AC01BD01CF010895EE0FFF1F44
:0C38D0000590F491E02D0994F894FFCFCE
:1038DC002067002069004D41433A20002900444FE5
:1038EC00574E005550002047573A004F4B00574158
:1038FC004954344152500020555443203D2000453A
:10390C007468205458206572726F7200C0A800034E
:10391C00C0A800017469692D3028C0A8001C015092
:10392C0000F6FF010A022C01000041726475696EF9
:10393C006F2D3030003703010306FF63825363356C
:10394C00010000000082015E0AF30100000000B9D2
:10395C00095E0A4F0980096009A909FFFFFFFFFFF3
:10396C00FF1F1C1F1E1F1E1F1F1E1F1E1FFFFFFFE2
:04397C00FFFFFF004A
:00000001FF
