:100000000C9439010C947A1A0C94A71A0C9461017F
:100010000C9461010C9461010C9461010C946101D8
:100020000C9461010C9461010C9461010C946101C8
:100030000C9461010C9461010C9461010C946101B8
:100040000C944B060C9461010C94C9070C9417088E
:100050000C9461010C9461010C9461010C94610198
:100060000C9461010C94610143616E6E6F74207396
:10007000656E642074696D652075706461746500D7
:1000800053656E742074696D652075706461746564
:1000900000455448206C696E6B3A00546573744295
:1000A000656E6368204757002A2A2A2A2A2052555B
:1000B0004E4E494E473A20726631322D7564702D8E
:1000C00067772E696E6F004661696C656420746F96
:1000D000206163636573732045746865726E65742F
:1000E00020636F6E74726F6C6C65720052463132B1
:1000F0003A2062002A2A2A2A2A2053455455503A87
:1001000020726631322D7564702D67772E696E6F9F
:100110000020286D792067726F7570206973203018
:1001200078005544503A2043616E6E6F7420666FBC
:100130007277617264206D65737361676520666FA5
:10014000722067726F757020307800000000002404
:100150000027002A0000000000250028002B0000D6
:100160000000002300260029000404040404040401
:100170000402020202020203030303030301020456
:100180000810204080010204081020010204081019
:100190002000000007000201000003040600000028
:1001A00000000000000001080006040001450000F6
:1001B000820000400020504F5354202446204854D1
:1001C00054502F312E300D0A486F73743A20244654
:1001D0000D0A244624534163636570743A202A2F24
:1001E0002A0D0A436F6E74656E742D4C656E6774CC
:1001F000683A2024440D0A436F6E74656E742D5462
:100200007970653A206170706C69636174696F6EB2
:100210002F782D7777772D666F726D2D75726C65DF
:100220006E636F6465640D0A0D0A245300474554DC
:10023000202446245320485454502F312E300D0A88
:10024000486F73743A2024460D0A24460D0A0D0A9D
:10025000004163636570743A20746578742F687424
:100260006D6C00E30004FA00010000000100DA01F7
:10027000830911241FBECFEFD8E0DEBFCDBF11E050
:10028000A0E0B1E0E0E1FBE302C005900D92A63AE8
:10029000B107D9F716E0A6EAB1E001C01D92A93472
:1002A000B107E1F712E0C2E7D2E004C02297FE01F5
:1002B0000E94821DCE36D107C9F70E94D9090C943D
:1002C000861D0C940000FB01DC0102C005900D921C
:1002D00041505040D8F70895FB01DC0104C08D91D6
:1002E0000190801921F441505040C8F7881B990BA8
:1002F0000895FB01DC0102C001900D924150504075
:10030000D8F70895CF93DF93DC01EC01C757DF4F97
:100310008881FD01E80FF11D6483482F4F5F4883FA
:10032000443810F46A3079F4FD01E40FF11D1482B1
:10033000ED91FC9111970480F581E02DCD0114968B
:10034000BD010995188281E090E0DF91CF91089579
:10035000282F442321F08091CB01841749F5809107
:10036000CC01882329F58091CD01883309F580914E
:10037000C9018B37E9F4E22FF92F8091F8018383CB
:100380008091F90182838091FA0181838091FB0140
:100390008083FB018091FC0183838091FD01828336
:1003A0008091FE0181838091FF01808381E0089527
:1003B00080E00895109226041092290410922C04D3
:1003C00010922F0482E08093300481E08093310406
:1003D00010929D0310929C0385E791E090939B03FC
:1003E00080939A030895EF92FF920F931F93F62E36
:1003F000E72E042F8FE097E26CE371E04FE057E2C5
:100400000E94160F89E08093D00184ED8093D10182
:100410008FE18093D20123ED31E0C9016F2D7E2D54
:10042000402F50E00E94790110E0C80103960E941D
:100430008E108091320490913304A0913404B091D5
:1004400035040196A11DB11D8093320490933304AD
:10045000A0933404B09335041F910F91FF90EF9057
:100460000895FC018081882311F482E101C08D5F31
:100470000E94740708958FE163E044ED0E942B18F9
:100480000895CF93DF9388E195E040E051EE60E07E
:1004900070E00E94520888E195E064EF70E00E94ED
:1004A0005D0A80913104882311F483E101C0835FE8
:1004B00061E00E94350780913104882311F483E1C3
:1004C00001C0835F61E00E9474078091310488233A
:1004D00011F482E101C08D5F61E00E94350781E384
:1004E00094E061E00E94310280913004882311F48D
:1004F00082E101C08D5F61E00E94350780E394E0F6
:1005000061E00E94310264EF71E080E090E00E94BF
:10051000A10688E195E06CEE70E00E94120A88E185
:1005200095E063E070E04AE050E00E94520B88E101
:1005300095E060E071E00E94840B88E195E064ED55
:1005400070E04AE050E00E94520B88E195E063E0E1
:1005500071E00E94840B88E195E06FE170E04AE071
:1005600050E00E94650B0E943B0288E195E066E046
:1005700071E00E94840BC0E0D0E0FE01EC5BFE4F16
:1005800088E195E0608140E150E00E94000BC530B9
:1005900029F088E195E06AE30E94350A2196C63089
:1005A000D10559F788E195E00E943D0A0CC088E129
:1005B00095E067EC70E00E945D0A68EE73E080E011
:1005C00090E00E94A10684EF91E064E471E048E0CD
:1005D0000E94250E882359F38AE491E06CE371E0D0
:1005E000AB010E94020E84E294E06CE474E00E948D
:1005F000EF1387E294E068EE73E00E94EF1388E166
:1006000095E068EA70E00E945D0A8AE993E06BE990
:1006100070E00E945D0A80913104882311F483E127
:1006200001C0835F60E00E94740781E394E060E0B2
:100630000E943102DF91CF91089585E00E94290642
:100640008C529140969587959695879508954091FF
:10065000CD018091CB018F3009F04AC08091CA0151
:10066000873209F045C08091CC01882309F040C051
:1006700048504330E8F14634D8F58091D101843DAB
:1006800019F18AE993E062E271E00E94120A8AE9B4
:1006900093E06091D10140E150E00E94000B8AE9B3
:1006A00093E061E171E00E94120A8AE993E064ED4F
:1006B00070E04AE050E00E94520B8AE993E06CE05F
:1006C00071E00E94870B12C08091D0019091D201FD
:1006D000883011F481EE05C08295880F807E9F716D
:1006E000892B435063ED71E00E94661781E0089505
:1006F00080E00895DF92EF92FF920F931F93DF93B4
:10070000CF9300D000D00F92CDB7DEB70E94300C4F
:10071000882309F489C20E94E70E882309F084C265
:1007200084E294E068E873E10E94EF13882309F4FF
:1007300086C280E491E06BE70E94BD1080C288E130
:1007400095E061E970E00E94120A0E94300C882353
:1007500019F46EE071E002C063E171E088E195E0B8
:100760000E94840B88E195E066E171E00E94840BB1
:100770000E94E70E882319F46BE171E002C06EE17C
:1007800071E088E195E00E94840B88E195E00E9489
:100790003D0A53C28FE097E26CE371E04FE057E20D
:1007A0000E94160F1092D00184ED8093D1018FE149
:1007B0008093D20188E08093D301809136048093A6
:1007C000D40180913A048093D50180913E048093B6
:1007D000D601809132048093D701A8EDB1E0E2E424
:1007E000F4E08EE101900D928150E1F7A6EFB1E0C7
:1007F000E0E6F4E08EE101900D928150E1F78EE1A8
:10080000E2E4F4E0DF01982F1D929A95E9F7E0E623
:10081000F4E0DF011D928A95E9F720ED31E084E1F3
:1008200092E0821B90E00E948E10809132049091A1
:100830003304A0913404B09135040196A11DB11D7B
:100840008093320490933304A0933404B09335041E
:10085000DD24D3940E945A14882309F494C0809113
:10086000C3059091C405892B09F08DC08091360491
:1008700090913704A0913804B09139040196A11DDC
:10088000B11D8093360490933704A0933804B0933D
:1008900039040091C6050F71802F82508D31D8F434
:1008A0008091C60586FD07C00E941D03E02FF0E081
:1008B000EF5BFB4F80838091C605807E803859F4C2
:1008C0008091C705813039F48091C805E02FF0E0B0
:1008D000E15AFB4F80839091C6058091C605803E0A
:1008E00011F408E004C0092F029506950770809165
:1008F000C605813E09F408E08FE097E26CE371E001
:100900004FE057E20E94160F0093D0018091C50579
:100910008093D1018091C6058F718093D20140915F
:10092000C70523ED31E0E8ECF5E0C901BF0150E077
:100930000E9479018091C70590E003960E948E1075
:100940008091320490913304A0913404B091350425
:100950000196A11DB11D8093320490933304A0939E
:100960003404B09335048DE294E064E670E00E94B4
:10097000D31380913104882311F483E101C0835F94
:1009800061E00E9474070E946F0C8C010E940E119E
:100990000B3211050CF415C18091B201883009F0B9
:1009A00010C18091B301882309F00BC18091BD0172
:1009B000813109F006C180913E0490913F04A091DD
:1009C0004004B09141040196A11DB11D80933E04E5
:1009D00090933F04A0934004B09341048091C901D7
:1009E000833409F4EEC00E942703882361F08AE271
:1009F00094E064E670E00E94D31381E394E061E048
:100A00000E943102DEC08EE794E062E874E04BE7BA
:100A10000E94A801882309F4D4C060917E047091DB
:100A20007F04809180049091810460587E478A4AB7
:100A3000934860937E0470937F0480938004909326
:100A400081040E94AE190E9457158823A1F1FE016E
:100A5000319685E0DF011D928A95E9F783E089836D
:100A600080917E0490917F04A0918004B0918104D4
:100A70008A839B83AC83BD838FE1BF0145E00E94E5
:100A8000571780913A0490913B04A0913C04B09197
:100A90003D040196A11DB11D80933A0490933B043F
:100AA000A0933C04B0933D048AE993E060E870E0D1
:100AB0000E945D0A0FC08AE993E068E670E00E9438
:100AC0005D0A809186048F5F80938604853120F0D3
:100AD0000E943B02109286040E94D8197B018C016F
:100AE0000E948719BC018AE993E04AE050E00E9425
:100AF000520B8AE993E06FE20E94350AC801B70100
:100B00000E949019BC018AE993E04AE050E00E94FB
:100B1000520B8AE993E06FE20E94350AC801B701DF
:100B20000E949619BC018AE993E04AE050E00E94D5
:100B3000520B8AE993E060E20E94350AC801B701CE
:100B40000E94A819BC018AE993E04AE050E00E94A3
:100B5000520B8AE993E06AE30E94350AC801B701A3
:100B60000E94A219BC018AE993E04AE050E00E9489
:100B7000520B8AE993E06AE30E94350AC801B70183
:100B80000E949C19BC018AE993E04AE050E00E946F
:100B9000520B8AE993E067E271E00E94840B409176
:100BA0007E0450917F0460918004709181048AE9F1
:100BB00093E02AE030E00E94F10A8AE993E00E9483
:100BC0003D0A8DE294E060E070E00E94EF1388231C
:100BD00051F080913104882311F483E101C0835FD7
:100BE00060E00E9474078AE294E060E070E00E9496
:100BF000EF13882329F081E394E060E00E94310242
:100C000081E0D82680E394E06D2D0E9431020F90A0
:100C10000F900F900F900F90CF91DF911F910F9138
:100C2000FF90EF90DF90089584E294E060EA7FE027
:100C30000E94EF13882309F082CDDD240BCE87E2DA
:100C400094E06CEF79EE0E94EF13882309F0A2CDB7
:100C5000FFCD982F8E3008F09E50977080914E01F6
:100C60008295880F880F807C892B80937C008091EF
:100C70007A00806480937A0080917A0086FDFCCFB0
:100C80002091780040917900942F80E030E0282B6B
:100C9000392BC90108951F920F920FB60F9211249C
:100CA0002F933F938F939F93AF93BF9380918B0428
:100CB00090918C04A0918D04B0918E0430918F049A
:100CC0000196A11DB11D232F2D5F2D3720F02D572B
:100CD0000196A11DB11D20938F0480938B049093E6
:100CE0008C04A0938D04B0938E048091870490911E
:100CF0008804A0918904B0918A040196A11DB11DB8
:100D00008093870490938804A0938904B0938A0405
:100D1000BF91AF919F918F913F912F910F900FBEF7
:100D20000F901F9018958FB7F89420918B043091F5
:100D30008C0440918D0450918E048FBFB901CA017B
:100D400008959B01AC017FB7F8948091870490913E
:100D50008804A0918904B0918A0466B5A89B05C057
:100D60006F3F19F00196A11DB11D7FBFBA2FA92FAA
:100D7000982F8827860F911DA11DB11D62E0880F55
:100D8000991FAA1FBB1F6A95D1F7BC012DC0FFB7E1
:100D9000F8948091870490918804A0918904B0917F
:100DA0008A04E6B5A89B05C0EF3F19F00196A11D86
:100DB000B11DFFBFBA2FA92F982F88278E0F911D25
:100DC000A11DB11DE2E0880F991FAA1FBB1FEA9564
:100DD000D1F7861B970B885E9340C8F221503040B4
:100DE0004040504068517C4F211531054105510567
:100DF00071F60895789484B5826084BD84B581606D
:100E000084BD85B5826085BD85B5816085BDEEE612
:100E1000F0E0808181608083E1E8F0E010828081F1
:100E200082608083808181608083E0E8F0E080815F
:100E300081608083E1EBF0E0808184608083E0EB7F
:100E4000F0E0808181608083EAE7F0E08081846067
:100E500080838081826080838081816080838081C3
:100E6000806880831092C1000895CF93DF93482F4C
:100E700050E0CA0183589E4FFC01349147595E4FA0
:100E8000FA018491882369F190E0880F991FFC0191
:100E9000E55BFE4FA591B491FC01EB5AFE4FC59165
:100EA000D491662351F42FB7F8948C91932F909599
:100EB00089238C93888189230BC0623061F42FB71A
:100EC000F8948C91932F909589238C938881832B10
:100ED00088832FBF06C09FB7F8948C91832B8C9387
:100EE0009FBFDF91CF910895482F50E0CA018F56E0
:100EF0009E4FFC012491CA0183589E4FFC0194919E
:100F000047595E4FFA013491332309F440C022233C
:100F100051F1233071F0243028F42130A1F0223037
:100F200011F514C02630B1F02730C1F02430D9F4C7
:100F300004C0809180008F7703C0809180008F7DF6
:100F40008093800010C084B58F7702C084B58F7DF8
:100F500084BD09C08091B0008F7703C08091B0003C
:100F60008F7D8093B000E32FF0E0EE0FFF1FEB5A70
:100F7000FE4FA591B4912FB7F894662321F48C917C
:100F80009095892302C08C91892B8C932FBF089553
:100F900008951F920F920FB60F9211242F933F9333
:100FA0004F938F939F93EF93FF938091C00082FDA7
:100FB0001DC04091C6002091D0043091D1042F5F14
:100FC0003F4F2F7330708091D2049091D304281733
:100FD000390771F0E091D004F091D104E057FB4F54
:100FE00040833093D1042093D00402C08091C60086
:100FF000FF91EF919F918F914F913F912F910F9082
:101000000FBE0F901F901895E0912405F0912505D3
:10101000E05CFF4F8191919120813181821B930B84
:101020008F739070892B11F00E94C80708951F924A
:101030000F920FB60F9211242F933F938F939F938C
:10104000EF93FF93209114053091150580911605BB
:10105000909117052817390731F48091C1008F7DD1
:101060008093C10014C0E0911605F0911705EC5271
:10107000FB4F2081809116059091170501968F7383
:10108000907090931705809316052093C600FF91EA
:10109000EF919F918F913F912F910F900FBE0F90E5
:1010A0001F901895AF92BF92DF92EF92FF920F932D
:1010B0001F93CF93DF93EC017A018B01DD24403045
:1010C00081EE580780E0680780E0780711F0DD24A2
:1010D000D39491E0A92EB12CEC89FD89DD2069F033
:1010E000C50108A002C0880F991F0A94E2F7808307
:1010F00060E079E08DE390E005C0108260E874E87C
:101100008EE190E0A80197010E945E1D21503040C1
:1011100040405040569547953795279580E12030BF
:10112000380720F0DD2011F0DD24D6CFE889F989D9
:101130003083EA89FB89208319A2EE89FF894081E7
:1011400021E030E0C9010C8C02C0880F991F0A947D
:10115000E2F7482B4083EE89FF894081C9010D8C5D
:1011600002C0880F991F0A94E2F7482B4083EE894A
:10117000FF894081C9010E8C02C0880F991F0A9413
:10118000E2F7482B4083EE89FF8980810F8C02C0F3
:10119000220F331F0A94E2F7209528232083DF9142
:1011A000CF911F910F91FF90EF90DF90BF90AF9084
:1011B0000895DC011C96ED91FC911D97E05CFF4FBA
:1011C0002191319180819181281B390B2F733070CF
:1011D000C9010895DC011C96ED91FC911D97E05C1E
:1011E000FF4F20813181E054F040DF01AE5BBF4F03
:1011F0008D919C9111972817390719F42FEF3FEF24
:1012000007C08D919C91E80FF91F8081282F30E055
:10121000C9010895DC011C96ED91FC911D97E05CDD
:10122000FF4F20813181E054F040DF01AE5BBF4FC2
:101230008D919C9111972817390719F42FEF3FEFE3
:1012400010C08D919C911197E80FF91F20818D910D
:101250009C91119701968F73907011969C938E9329
:1012600030E0C9010895DC0191968C919197882313
:1012700039F05496ED91FC915597808186FFF9CF16
:1012800091961C920895CF93DF93EC01EE85FF8534
:10129000E05CFF4F20813181E054F0402F5F3F4FF1
:1012A0002F733070DF01AE5BBF4F8D919C91119712
:1012B00028173907D1F3E05CFF4F80819181E0541A
:1012C000F040E80FF91F6083EE85FF85E05CFF4F7B
:1012D00031832083EE89FF89208181E090E00F8CAB
:1012E00002C0880F991F0A94E2F7282B208381E01F
:1012F00089A3EC89FD8980818064808381E090E00E
:10130000DF91CF91089510921B0510921A0588EE77
:1013100093E0A0E0B0E080931C0590931D05A0939E
:101320001E05B0931F058FE791E0909319058093F8
:10133000180580E994E0909325058093240584EDB9
:1013400094E0909327058093260585EC90E0909398
:1013500029058093280584EC90E090932B058093D9
:101360002A0580EC90E090932D0580932C0581EC6C
:1013700090E090932F0580932E0582EC90E090935F
:1013800031058093300586EC90E09093330580938F
:10139000320584E08093340583E08093350587E04F
:1013A0008093360585E08093370581E0809338058A
:1013B0000895CF93DF930E94FA060E944102C4E091
:1013C000D8E00E947A032097E1F30E940408F9CF45
:1013D000CF92DF92EF92FF920F931F93CF93DF9301
:1013E0007C016B018A01C0E0D0E00FC0D6016D9195
:1013F0006D01D701ED91FC910190F081E02DC701C5
:101400000995C80FD91F015010400115110571F73A
:10141000CE01DF91CF911F910F91FF90EF90DF9060
:10142000CF900895EF92FF920F931F93CF93DF9386
:101430007C018B01C0E0D0E0F8010F5F1F4F649189
:10144000662359F0D701ED91FC910190F081E02DD8
:10145000C7010995C80FD91FEFCFCE01DF91CF91FA
:101460001F910F91FF90EF900895DC01ED91FC9199
:101470000190F081E02D09950895EF92FF920F936E
:101480001F938C01DC01ED91FC910190F081E02D26
:101490006DE009957C01D801ED91FC910190F081FE
:1014A000E02DC8016AE009959C012E0D3F1DC90180
:1014B0001F910F91FF90EF900895EF92FF920F937D
:1014C0001F937C010E94120A8C01C7010E943D0AF1
:1014D0009C01200F311FC9011F910F91FF90EF90C8
:1014E0000895CF93DF93EC016115710519F420E0A5
:1014F00030E00FC0DB010D900020E9F71197A61B2B
:10150000B70BE881F9810280F381E02DAD010995E7
:101510009C01C901DF91CF9108954F925F927F9214
:101520008F929F92AF92BF92CF92DF92EF92FF92F3
:101530000F931F93DF93CF93CDB7DEB7A1970FB66D
:10154000F894DEBF0FBECDBF2C01742ECB0122302C
:1015500008F42AE019A231E2C32ED12CCC0EDD1EF4
:10156000822E9924AA24BB24672D752FA5019401EE
:101570000E945E1D79018A01C801B701A50194018D
:101580000E94181D472D461B0894C108D1084A30F7
:1015900010F4405D01C0495CF6014083E114F104A0
:1015A0000105110521F07E2C5F2DC801DDCFC201A0
:1015B000B6010E94710AA1960FB6F894DEBF0FBE65
:1015C000CDBFCF91DF911F910F91FF90EF90DF90F2
:1015D000CF90BF90AF909F908F907F905F904F90F3
:1015E0000895DC012115310541F4ED91FC91019044
:1015F000F081E02D642F099508950E948D0A0895C9
:10160000EF92FF920F931F939A01E62EFF2400E0C2
:1016100010E0B801A7010E94F10A1F910F91FF90FD
:10162000EF900895CF92DF92EF92FF920F931F9366
:10163000CF93DF93EC016A017B012115310541F461
:10164000E881F9810190F081E02D642F09951FC098
:101650002A303105D1F477FF17C0E881F981019074
:10166000F081E02D6DE209958C0144275527BA01E0
:101670004C195D096E097F09CE012AE00E948D0A8E
:101680009801280F391F04C02AE00E948D0A9C018E
:10169000C901DF91CF911F910F91FF90EF90DF90E3
:1016A000CF900895EF92FF920F931F937B019A01C1
:1016B0000027F7FC0095102FB801A7010E94120B1C
:1016C0001F910F91FF90EF900895CF92DF92EF92CC
:1016D000FF920F931F936C017B019A010027F7FC87
:1016E0000095102FB801A7010E94120B8C01C601B2
:1016F0000E943D0A080F191FC8011F910F91FF900A
:10170000EF90DF90CF9008950E94710A0895EF92B4
:10171000FF920F931F937C010E94710A8C01C701F5
:101720000E943D0A080F191FC8011F910F91FF90D9
:10173000EF90089580913C0561E00E9474077894D1
:101740000895FF920F931F93082F162FF42EF894ED
:1017500080913C0560E00E9474071F71102B1EBD34
:101760000DB407FEFDCFFEBC0DB407FEFDCF0E94F9
:101770009A0B1F910F91FF9008951F93182F282FF8
:1017800030E02076307080913D0590E028173907D1
:1017900099F080EA6FE143E00E94A10B412F40766F
:1017A00040933D0550E085E0559547958A95E1F7D2
:1017B00080E86FE10E94A10B1F9108950F931F9382
:1017C000182F062F0E94BD0B80E4612F402F0E942E
:1017D000A10B1F910F9108950F931F93182F072F9F
:1017E0000E94DE0B812F8F5F602F0E94DE0B1F9106
:1017F0000F91089588E360EB0E94DE0B089588E363
:1018000061EB0E94DE0B08950F931F93182F062F94
:10181000F89480913C0560E00E947407802F8F71DE
:10182000812B8EBD0DB407FEFDCF1EBC0DB407FE8F
:10183000FDCF07FF04C01EBC0DB407FEFDCF1EB5D3
:101840000E949A0B812F1F910F9108951F93182FBB
:101850000E94BD0B80E0612F0E94040C1F9108952F
:1018600084ED61E10E94DE0B82ED61E00E94DE0BFF
:101870008AEE0E94260C80FDFBCF82ED60E00E9484
:10188000DE0B89ED0E94260C90E096958795969543
:101890008795817008950F931F93CF93DF93EC0189
:1018A0008B01F89480913C0560E00E9474078AE304
:1018B0008EBD0DB407FEFDCF09C01EBC0DB407FEE2
:1018C000FDCF8EB5F80181938F0121972097A9F75D
:1018D0000E949A0BDF91CF911F910F9108950F9362
:1018E0001F93DF93CF9300D000D000D0CDB7DEB7E9
:1018F00089E30E94260C882319F400E010E048C018
:1019000060913E0570913F0580E00E94EC0B86E0FF
:1019100090E0BE016F5F7F4F0E944B0C89819A81DE
:1019200090933F0580933E052B813C81E0913A05E1
:10193000F0913B058D8187FD03C000E010E00EC0F3
:10194000245030408F01015010402017310708F417
:101950008901C80166EA71E00E944B0CF801EA5562
:10196000FE4F108260913E0570913F058CE0613022
:10197000780724F08CE06FEF7BE003C0615070408B
:101980008CE00E94EC0B80E86EE140E40E94A10B29
:10199000C80126960FB6F894DEBF0FBECDBFCF911B
:1019A000DF911F910F9108950F931F93CF93DF93B2
:1019B0008C01EB01F89480913C0560E00E94740773
:1019C0008AE78EBD0DB407FEFDCF08C088818EBDAD
:1019D0000DB407FEFDCF21960150104001151105F1
:1019E000A9F70E949A0BDF91CF911F910F91089553
:1019F0008AE061E00E9435078AE061E00E94740796
:101A00008BE061E00E9435078DE061E00E943507C0
:101A10008CE060E00E9435078BE061E00E94740773
:101A20008BE060E00E9474078DE060E00E94740724
:101A300080E58CBD8DB581608DBD08951F93CF93DA
:101A4000DF93EB01142F90933B0580933A050CB480
:101A500006FC02C00E94F80C10933C05812F61E047
:101A60000E9435070E949A0B8FEF60E04FEF0E94B3
:101A7000A10B62E070E080E090E00E94A10680E0AF
:101A80006DE10E94040C8823D1F310923F0510925F
:101A90003E0588E060E070E00E94EC0B8CE060E0C6
:101AA00070E00E94EC0B8AE06FEF7BE00E94EC0B91
:101AB00084E060E07CE00E94EC0B86E06FEF71E177
:101AC0000E94EC0B0E94FF0B88E26FE370E30E9420
:101AD000EC0B80E369EF77EF0E94EC0B80EC6DE09C
:101AE0000E94DE0B81EC60E00E94DE0B80E862EC7D
:101AF00042E30E94A10B86EC62E17CE00E94EC0BC9
:101B000084EC62E10E94DE0B8AEC6CED75E00E94D1
:101B1000EC0B84EE68810E94DE0B85EE69810E94E9
:101B2000DE0B82EE6A810E94DE0B83EE6B810E94E7
:101B3000DE0B80EE6C810E94DE0B81EE6D810E94D7
:101B4000DE0B84ED60E10E94DE0B86ED60E071E06B
:101B50000E94EC0B8AEE0E94260C80FDFBCF8FE1E9
:101B60000E94BD0B80E86BE140EC0E94A10B80E875
:101B70006FE144E00E94A10B82E70E94260C8630B0
:101B800008F08F5FDF91CF911F910895CF93DF937E
:101B9000EC0115C08CE10E94260C81FF10C088E189
:101BA00095E06FE271E00E94870B80E86FE140E80A
:101BB0000E94A10B80EA6FE140E80E94A10B80E047
:101BC0006FE10E94040C83FDE5CF82E060E07CE0E1
:101BD0000E94EC0BBE016050744F86E00E94EC0B3B
:101BE0008AE760E040E00E94A10BCE0166EA71E066
:101BF0000E94D40C80E86FE148E00E94A10BDF91C5
:101C0000CF9108950F931F93CF93DF939C01EB0126
:101C10008A0110927E05009729F086E695E0B901C9
:101C20000E94C713209719F0CE010E947C0F011566
:101C3000110529F086E795E0B8010E94C71381E0FD
:101C4000DF91CF911F910F910895AF92BF92CF92E4
:101C5000DF92FF920F931F93CF93DF938C01EB01E1
:101C6000F42E10927E0538E341E050E060E070E031
:101C700018C0832F90E0FC01B3E0F595E795BA9585
:101C8000E1F7E05CFA4F877090705A016B0104C075
:101C9000AA0CBB1CCC1CDD1C8A95D2F720812A29FA
:101CA0002083315031F780E695E0BE010E94BF13DA
:101CB000C80160E675E04F2D0E941E0DDF91CF91A7
:101CC0001F910F91FF90DF90CF90BF90AF9008953C
:101CD000DF92EF92FF920F931F93CF93DF93D82E53
:101CE000862FBA01213041F4675F7F4F9B0140E0AE
:101CF00050E0695070400EC0223029F020E030E002
:101D000040E050E007C0625070409B0140E050E06E
:101D10006E5F7F4FE82EFF2486EA91E0E80EF91E01
:101D20008B01E7010FC0F881E0E0898190E08E2B04
:101D30009F2BA0E0B0E0280F391F4A1F5B1F22969F
:101D4000025010400230110570F7CB018E7FD70191
:101D5000A80FB91F6817790779F08C9190E0A0E07F
:101D6000B0E0BA2FA92F982F882702C040E050E09A
:101D7000280F391F4A1F5B1FCA01AA27BB270097DC
:101D8000A105B10599F7C90180959095ED2DF0E079
:101D9000EA55FE4F90838183DF91CF911F910F9180
:101DA000FF90EF90DF9008951092BE011092BF0156
:101DB00080E48093BA011092BB018093BC0188E15A
:101DC0006EE044E150E020E00E94680E08958091AA
:101DD000800586958095817008950F931F93BC01AF
:101DE00006EA11E0C8010E94BF13C801069660E62A
:101DF00075E00E94BF131F910F910895EF92FF921B
:101E00000F931F937B010E94ED0E04EC11E0C801BB
:101E1000B7010E94C713C801049766E675E00E94E7
:101E2000C7131F910F91FF90EF900895EF92FF92CB
:101E30000F931F93CF93DF937C01EB018A018BE813
:101E400095E00E94FE0E8881807F803E49F0888167
:101E50009981AA81BB818F5F9F4FAF4FBF4F31F4F4
:101E600086EA91E06BE871E00E94BF1388E08093FE
:101E7000B2011092B30184EB91E06DEA71E049E0A8
:101E800050E00E9463011092B60181E18093BD0190
:101E90001093CA010093CB01F092C801E092C901EE
:101EA0001092CC011092CE011092CF01DF91CF9110
:101EB0001F910F91FF90EF900895EF92FF920F9373
:101EC0001F930CEA11E0C8010E94ED0E74E1E72EA9
:101ED000F12CE00EF11EC8014896B7010E94C7130D
:101EE000C70166E675E00E94C7130E94D40E1F91D9
:101EF0000F91FF90EF900895BC0181E080938005E1
:101F00008EE695E00E94C71308950F931F938C01EE
:101F100088969093B6018093B7010E94D40E1092D8
:101F2000D8011092D901045E1F4F82E36AE1A80133
:101F300022E00E94680EC8014A960E94C60D1F91B9
:101F40000F910895CF93DF939C01862F806180933A
:101F5000D501643029F02115310511F421E030E07C
:101F60009091CA018091C8018093CA019093C801E1
:101F70009091CB018091C9018093CB019093C901CD
:101F8000CFECD1E08881A901480F511D2C814C83F1
:101F90002883252F3327219751E0CB3CD50791F794
:101FA0001D861E8680E589871092B60188E280939F
:101FB000B7010E945D0F84E08B871C8682E36AE193
:101FC0004CE150E022E00E94680E86E390E00E941F
:101FD000C60DDF91CF910895E82FA091B601B09181
:101FE000B701F091D4014091CA0150E0292F30E0AF
:101FF0004217530709F08EC08091CB018E1709F06C
:1020000089C08091D501E82F81FF4EC01092B601A2
:102010008CE28093B7010E945D0F82E18093D5012D
:102020009091CA018091C8018093CA019093C80120
:102030009091CB018091C9018093CB019093C9010C
:10204000EFECF1E021E030E08081A901480F511D63
:1020500044831082252F3327319751E0EB3CF5075D
:1020600099F7158616861182128280915401838316
:1020700014828D5F8093540182E0818B84E0828B97
:1020800095E0938B148A80E68187938788E784871D
:1020900082E36AE140E250E022E00E94680E8AE3B7
:1020A00090E00E94C60D36C084FF34C04F2F50E030
:1020B00084E0559547958A95E1F79A2F80E02B2F7C
:1020C00030E0282B392BCA01880F991F880F991FE0
:1020D000281B390B2451304037FF02C020E030E08C
:1020E0003093920520939105232B69F09A01220FDA
:1020F000331F220F331F2E5D3F4F68507040621711
:10210000730740F009C0E0FF05C080E090E060E0A8
:102110000E94A20F20E030E0C90108950F931F93A1
:10212000DF93CF930F92CDB7DEB78C01045E1F4FC4
:102130001093B6010C511040802F845E8093B7013C
:1021400089830E94D40E085F1F4F1093CC018981B0
:1021500084518093CD01085F1F4F88E26AE1A80196
:1021600021E00E94680EC8014A960E94C60D0F9099
:10217000CF91DF911F910F910895FF920F931F93BD
:102180009C01F62E8BE895E0B9010E94FE0E02EB51
:1021900011E088E08093B2011092B301C801029669
:1021A0006DEA71E049E050E00E9463018CE48093A5
:1021B000B70181E18093BD010E94D40E1092CA0143
:1021C0008BE78093CB018AE08093C801F092C9012C
:1021D0001092CC0188E38093CD011092CE01109231
:1021E000CF01025E1F4F80E3F80111928A95E9F753
:1021F000C80163E672E04AE050E00E94630188E2B1
:102200006AE140E450E021E00E94680E8AE590E037
:102210000E94C60D1F910F91FF900895DF92EF92DB
:10222000FF920F931F93CF93DF93EC0180917E0574
:10223000882319F0CE010E94C11B209709F0C3C06A
:10224000809180058570F1F180915101909152014A
:10225000892BC1F50E94300C8823A1F18BE891E015
:102260000E94ED0E88E08093B201A6E0FA2EF09273
:10227000B30184EB91E065EA71E048E050E00E9430
:10228000630106EC11E0D8011D92FA94E9F7C80148
:102290000A9760E675E00E94BF13C80106966EE6D5
:1022A00075E00E94C713C801049766E675E00E94B6
:1022B000C713809180058860809380058AE290E052
:1022C0000E94C60D0E94300C882349F08091510174
:1022D0009091520101969093520180935101809107
:1022E0008105813009F0EFC18091800581FFEBC14C
:1022F00002E000938105809153018F5F8093530129
:102300008F71109182051295110F107E182BE0909D
:102310008305D09084058BE895E06AE775E00E941C
:10232000FE0EF8E0FF2EF092B2011092B30184EBA2
:1023300091E06DEA71E049E050E00E9463018CE2B7
:102340008093B70186E08093BD010E94D40EE09295
:10235000CA01D092CB018BE08093C8011093C901D0
:10236000ECECF1E0DF011D92FA94E9F78091540161
:102370008093CE018D5F8093540180E68093D401D9
:102380000093D50183E08093D6011092D70110927B
:10239000D8011092D9011092DA011092DB0100935A
:1023A000DC0184E08093DD010093DE0186E280930E
:1023B000DF0182E36AE140E250E022E00E94680E21
:1023C0008AE390E09BC0C932D10508F47CC110912A
:1023D000B201183009F082C18091B301863009F052
:1023E0007DC18CEC91E066E675E044E050E00E942F
:1023F0006C01009709F072C18091BB01813029F511
:102400008CEA91E00E94ED0E1092BA0182E0809376
:10241000BB0186EC91E06CEB71E00E94BF138CEB8A
:1024200091E060E675E00E94BF138CEC91E062ECF5
:1024300071E00E94C71382EC91E066E675E00E94AD
:10244000C7138AE290E00E94C60D8091800583FF49
:102450003AC11091BB01123009F035C182EC91E014
:102460006EE675E044E050E00E946C01009709F0D0
:102470002AC18BE895E06CEB71E00E94BF131093CA
:10248000800521C1183009F01EC18091B301882355
:1024900009F019C18091B401853409F014C184ECAC
:1024A00091E066E675E044E050E00E946C01009720
:1024B00009F009C18091BD01813019F58091C801F1
:1024C0008830F9F4E0918505F0918605309719F090
:1024D00080EC91E009950E945D0F1092C8018091F7
:1024E000CA01883F28F08091CB018F5F8093CB0198
:1024F0008091CA01885F8093CA01CE010E94C60DF7
:10250000E2C00E947313882351F08091BD01813194
:1025100031F4CE010E947813882309F0D4C0C63369
:10252000D10528F48091BD01863009F0CCC080919E
:10253000CA018B3009F0BEC080EC91E06AE775E01B
:1025400044E050E00E946C01009709F0BCC080910B
:10255000D501382F82FF13C0E0918705F0918805DF
:10256000309759F08091CB0182958695877063E012
:1025700040E050E020E030E0099585E090C0909187
:10258000B60180E02091B701022F10E0082B192B33
:102590008091D401482F50E0E4E055954795EA95A5
:1025A000E1F7CA01880F991F880F991F081B190BA3
:1025B0000451104017FF02C000E010E08091810537
:1025C000823079F531FF21C034FF1FC080E090E0F8
:1025D00060E00E94A20F88E18093D501E091890517
:1025E000F0918A05309719F420E030E007C080911F
:1025F000C90182958695877009959C0183E0809337
:102600008105C9010E94850F5EC081E0809381052C
:1026100034FF03C080E090E002C0C801019664E08E
:1026200046C0833081F50115110579F1E0918705E8
:10263000F0918805309749F1440F551F440F551FFD
:10264000CE0108974E5D5F4F8417950708F4AC01E3
:10265000C801840F951FC817D90710F0980103C04F
:102660009E01241B350B8091CB0182958695877046
:1026700060E0099580917F05882319F0C80168E022
:1026800016C0C80108C08530F1F030FF0BC08330A0
:10269000D1F0C801019669E00E94A20F86E0809304
:1026A000810511C00115110571F0C80160E00E949B
:1026B000A20F09C080914F0190915001BE010E946C
:1026C000EC0F9C0102C020E030E0C901DF91CF9106
:1026D0001F910F91FF90EF90DF900895CA32D105BE
:1026E00008F0D0CEF0CF8091BB05811181E0089534
:1026F000CF92DF92EF92FF920F931F93CF93DF93CE
:10270000C3E9D5E030E0CC24DD2429C02A814B8107
:102710008091CA0190E0042F10E080179107D9F44E
:102720009091CB019217B9F48C818823A1F020916C
:10273000CD0130E028503040F090CC01EE242E0D39
:102740003F1DE881F981892F942F60EC71E040ED05
:1027500051E0099531E00894C11CD11C2596809167
:10276000BB0590E0C816D9068CF2832FDF91CF917C
:102770001F910F91FF90EF90DF90CF900895DC01B3
:10278000FB0186E001900D928150E1F708959C01D4
:10279000FB0180819181A281B381F90180839183C2
:1027A000A283B38308950F931F93CF93DF938C017C
:1027B000EB0180E06115710509F081E0F801828389
:1027C000882341F00E9493062197C60FD71FF80176
:1027D000D183C083DF91CF911F910F910895EF9224
:1027E000FF920F931F93CF93DF93EC017B018A81BC
:1027F000882311F400E00FC0088119810E9493061C
:10280000C801861B970B2AEE8136920710F400E070
:1028100006C0082F0195CE01B7010E94D313802F67
:10282000DF91CF911F910F91FF90EF900895782F36
:10283000E89865B121E030E040E050E000905501BB
:1028400004C0220F331F441F551F0A94D2F7322FA2
:10285000822F8095862385B99EBD0DB407FEFDCFDE
:102860004EB57EBD0DB407FEFDCF2EB5942F80E092
:1028700045B1342B35B9E89A30E0282B392BC90102
:1028800008958091BC059091BD058F709093BD0512
:102890008093BC058091BC059091BD0588609093A4
:1028A000BD058093BC058091BC059091BD050E943B
:1028B0001714089580911306873009F059C090913C
:1028C0001706992399F080911606891728F48091AC
:1028D0001606873408F44CC084E08093130681E028
:1028E00090E09093C4058093C3059AC08091C7057A
:1028F0002091160690E0049630E08217930724F0AA
:10290000809116068734A0F184E0809313068091AD
:10291000C705833430F081E090E09093C405809344
:10292000C3058091C60586FF12C080911206282F2C
:1029300030E0C9018F7190704F9749F08091C605C2
:1029400090E0822793278F719070892B89F4809172
:10295000C3059091C405892B09F056C0E09110067B
:10296000F0911106309709F44FC080E0099558C0E6
:1029700080911306843011F080E008951092C7050D
:102980008091C705809316068FEF9FEF9093C40543
:102990008093C305209114062223D9F08227282F83
:1029A00022952827022E269526952025022E26954B
:1029B00020252770082E892F269507942795902D7E
:1029C000822706942795902582279093C4058093AB
:1029D000C30587E08093130681E08093C10583EAF5
:1029E00094E90E9417148091BC059091BD05886DF3
:1029F0009093BD058093BC058091BC059091BD0569
:102A00000E94171480E008958FEF9FEFAFEFBFEFA4
:102A100080930C0690930D06A0930E06B0930F06BC
:102A200081E008950F931F93082F10E0C801966C62
:102A30000E94171498012F7730702F5F3F4F442763
:102A400037FD4095542F6BEF72E485E090E00E94D3
:102A50005E1DCA01B901000F012F001F110B980163
:102A600043E0220F331F4A95E1F7201B310B2F5F04
:102A70003F4F442737FD4095542F0E945E1D93E041
:102A800056954795379527959A95D1F72D573C4FF1
:102A90004F4F5F4FCA01B90124E833E040E050E0F6
:102AA0000E945E1D2093C2051F910F910895809191
:102AB0001306843069F080911306873059F48091B1
:102AC0001606882339F40E94411484E0809313068B
:102AD00081E0089580E00895982F86FD05C0907EDE
:102AE000809112068F71980F9093C605E0911006A1
:102AF000F0911106309711F081E009958FEF9FEF6B
:102B00009093C4058093C3058091C3059091C4053B
:102B1000209114068227282F22952827022E2695F9
:102B200026952025022E269520252770082E892FF0
:102B3000269507942795902D822706942795902512
:102B400082279093C4058093C30588E08093130681
:102B50008091BC059091BD0588639093BD058093DD
:102B6000BC058091BC059091BD050E941714089585
:102B7000DF92EF92FF920F931F937B018C01DD2474
:102B800005C0D39416950795F794E7948FEFE81650
:102B9000F1040105110509F0A0F78091BC059091A1
:102BA000BD0581FF0FC08091BC059091BD058D7F53
:102BB0009093BD058093BC058091BC059091BD05A7
:102BC0000E941714E114F10401051105B9F0C701C1
:102BD000906E3D2D20E0822B932B0E941714809144
:102BE000BC059091BD0582609093BD058093BC05A6
:102BF0008091BC059091BD050E9417141F910F9103
:102C0000FF90EF90DF900895E89885B121E030E0E3
:102C100040E050E00090550104C0220F331F441FD4
:102C2000551F0A94D2F7322F922F9095982395B979
:102C30001EBC0DB407FEFDCF6EB51EBC0DB407FE65
:102C4000FDCF2EB5962F80E0622F70E0682B792B98
:102C500077FF0FC080911306873059F48CB58160DF
:102C60008CBD1EBC0DB407FEFDCF2EB58CB58E7F7E
:102C70008CBD85B1382B35B9E89A7093BF05609348
:102C8000BE058091BE059091BF0597FFECC0809175
:102C90001306873009F082C080911606882371F4EC
:102CA00090911406992351F080911606E82FF0E0D8
:102CB000EB53FA4F90838F5F809316068091160630
:102CC000E82FF0E0EB53FA4F20838F5F80931606D6
:102CD0008091C3059091C4058227282F229528272B
:102CE000022E269526952025022E26952025277032
:102CF000082E892F269507942795902D82270694D4
:102D00002795902582279093C4058093C305209131
:102D1000C105233040F58091160690E06091C20510
:102D2000029770E00E944B1D892BE9F48091BE054B
:102D30009091BF05E22FF0E090FF04C0EF56FE4FE8
:102D4000808104C0EF56FE4F808182958F70809302
:102D5000C105833040F490E0880F991F0196806A86
:102D600094690E94171490911706992329F0809175
:102D70001606891780F40AC08091C70520911606AF
:102D800090E0049630E0821793072CF080911606AD
:102D9000873408F468C00E94411465C0809113060E
:102DA00087FF2EC0E091C705809113068F5F809347
:102DB00013068150ED5FE80FF0E0EB53FA4FE0812E
:102DC0008091C3059091C4058E27282F229528272E
:102DD000022E269526952025022E26952025277041
:102DE000082E892F269507942795902D82270694E3
:102DF0002795902582279093C4058093C3052EC004
:102E0000809113068F5F809313068150833019F1F0
:102E100084302CF4882399F08130F9F416C08B307B
:102E200019F08C30D1F402C0EDE218C0E091140624
:102E30009091C7058EEF891B809313060FC0809178
:102E4000C3059091C405E82F09C08091C3059091F6
:102E5000C405E92F03C00E944114EAEA8E2F90E0D6
:102E6000986B0E9417148091BE059091BF0596FF44
:102E700003C086E0809313068091BE059091BF0544
:102E800094FF09C060E070E080E090E00E94B81517
:102E900081E08093C0058091BE059091BF0595FFAC
:102EA00005C00E94411484E08093130608951F9387
:102EB000182F4093C70528EC35E0C90150E00E9467
:102EC0007901812F0E946C151F9108950F931F9314
:102ED000CF93DF93182FEB01042F02C00E945A14E6
:102EE0000E9457158823D1F3812FBE01402F0E94E5
:102EF0005717DF91CF911F910F910895809112067E
:102F000090E08F719070892B41F080E064E076E171
:102F100040E050E00E94441A089580E00E94671A41
:102F200008951F938093120640931406609315062C
:102F30000E947E1710921706E89885E092E8909319
:102F4000BD058093BC058091BC059091BD050E9494
:102F500017148091150690E074E0880F991F7A95F8
:102F6000E1F7876C90680E94171480E496EA0E944B
:102F7000171486E00E94121582EA94E90E94171441
:102F80008CEA92EC0E94171410911406112341F060
:102F900083E89AEC0E941714812F90E09E6C06C083
:102FA0008BE89AEC0E9417148DE29EEC0E94171495
:102FB00083E894EC0E94171480E598E90E941714A6
:102FC00087E79CEC0E94171480E090EE0E94171493
:102FD00080E098EC0E94171489E490EC0E9417148A
:102FE00084E080931306E89A1F91089525B181E04B
:102FF00090E0A0E0B0E00090550104C0880F991F58
:10300000AA1FBB1F0A94D2F7282B25B924B1822B03
:1030100084B98AE061E00E9474078AE061E00E945E
:1030200035078BE061E00E9435078CE060E00E948C
:1030300035078DE061E00E94350780E58CBD8DB5D8
:1030400081608DBD82E060E00E94350782E061E032
:103050000E9474070895FF920F931F93182F062F55
:10306000F42E8093120640931406609315060E9476
:10307000F6170E947E1782E89AEC0E94171480E0EF
:103080009EEF0E94171485E08093130683B7817F1B
:1030900006C083B7816083BF889583B78E7F83BF67
:1030A000809113068530A9F3812F602F4F2D0E9448
:1030B0009117809112061F910F91FF9008958F92A2
:1030C0009F92AF92BF92CF92DF92EF92FF920F93B7
:1030D0001F93CF93DF937B018C01EA012CE330E057
:1030E00040E050E00E945E1D6883C801B7012CE3F8
:1030F00030E040E050E00E945E1D122F032FF42EBE
:10310000E52E622F732F842F952F2CE330E040E0C3
:1031100050E00E945E1D6983612F702F8F2D9E2DC0
:103120002CE330E040E050E00E945E1D122F032FA0
:10313000F42EE52E622F732F842F952F28E130E097
:1031400040E050E00E945E1D6A83612F702F8F2D3A
:103150009E2D28E130E040E050E00E945E1D7901A4
:103160008A01C801B7016C5F7F4F8F4F9F4F27E0E7
:1031700030E040E050E00E945E1D6F5F6B8320E016
:10318000AA24BB24650101C02F5F822E9924F4017B
:10319000EE54F84FCF0183709070892B99F4CF01D2
:1031A00064E670E00E944B1D892B39F4CF0160E981
:1031B00071E00E944B1D892B29F48EE691E0A0E07E
:1031C000B0E004C08DE691E0A0E0B0E0A80EB91E2A
:1031D000CA1EDB1EC501A0E0B0E0E816F9060A072A
:1031E0001B0790F62E83F401EE54F84F83E0882EEF
:1031F000912C8E229F228114910499F4CF0164E6D0
:1032000070E00E944B1D892B39F4CF0160E971E019
:103210000E944B1D892B29F48EE691E0A0E0B0E0DE
:1032200004C08DE691E0A0E0B0E0A81AB90ACA0A8D
:10323000DB0A980187010A191B092C093D09CF01F6
:1032400064E670E00E944B1D7C01CF0160E971E0F3
:103250000E944B1DAC01E4E9F1E060E0613051F403
:103260008114910449F4E114F10441F4411551052C
:1032700029F002C0808103C08CE101C08DE190E0A3
:10328000A0E0B0E0081719072A073B0740F0081B29
:10329000190B2A0B3B0B6F5F31966C30F9F66F5FA1
:1032A0006D83802F8F5F8C83DF91CF911F910F9162
:1032B000FF90EF90DF90CF90BF90AF909F908F9056
:1032C0000895EF92FF920F931F937B018C018091E1
:1032D0002E0690912F06A0913006B0913106E81687
:1032E000F9060A071B0771F0C801B70143E256E06F
:1032F0000E945F18E0922E06F0922F06009330068F
:10330000109331061F910F91FF90EF9008950E9446
:1033100061192091290630E02E54384FC9010895D3
:103320000E9461198091280690E008950E94611919
:103330008091270690E008950E94611980912306EC
:1033400090E008950E9461198091240690E008950C
:103350000E9461198091250690E0089560931A06F5
:1033600070931B0680931C0690931D0620915601B6
:10337000309157014091580150915901260F371F44
:10338000481F591F20931E0630931F0640932006A6
:103390005093210682E0809322060E949306609358
:1033A0002A0670932B0680932C0690932D06089581
:1033B000EF92FF920F931F931CC02F5F3F4F4F4F11
:1033C0005F4F20931A0630931B0640931C065093C0
:1033D0001D0688EE93E0A0E0B0E0E80EF91E0A1F9B
:1033E0001B1FE0922A06F0922B0600932C061093E6
:1033F0002D060E949306E0902A06F0902B0600917D
:103400002C0610912D066E197F09800B910B2091CF
:103410001A0630911B0640911C0650911D06685EED
:1034200073408040904048F680911E0690911F06A0
:10343000A0912006B0912106281739074A075B079B
:10344000B0F0E0911806F0911906309781F00995D7
:10345000611571058105910519F00E94AE1907C02B
:1034600090E080912206811191E090932206609174
:103470001A0670911B0680911C0690911D061F91E3
:103480000F91FF90EF900895823000F5E82FF0E063
:10349000EE0FFF1FEE5CF94F71836083882319F0F4
:1034A0008130A1F408C0809169008C7F842B8093C7
:1034B0006900E89A089580916900440F551F440FF0
:1034C000551F837F842B80936900E99A0895823089
:1034D00080F4882319F0813021F402C0E89801C0FB
:1034E000E998E82FF0E0EE0FFF1FEE5CF94F118234
:1034F000108208951F920F920FB60F9211242F93EE
:103500003F934F935F936F937F938F939F93AF936B
:10351000BF93EF93FF938091320690913306892BEE
:1035200029F0E0913206F09133060995FF91EF9171
:10353000BF91AF919F918F917F916F915F914F91CB
:103540003F912F910F900FBE0F901F9018951F92D3
:103550000F920FB60F9211242F933F934F935F93C7
:103560006F937F938F939F93AF93BF93EF93FF934B
:103570008091340690913506892B29F0E09134062C
:10358000F09135060995FF91EF91BF91AF919F9111
:103590008F917F916F915F914F913F912F910F90FC
:1035A0000FBE0F901F901895DF93CF9300D000D0DF
:1035B00000D0CDB7DEB7DE011196E0EAF1E086E09B
:1035C00001900D928150E1F786E191E0E6EAF1E0A9
:1035D000DF019C011D9221503040E1F780913606B9
:1035E000833019F462E775E003C0BE016F5F7F4F5F
:1035F00084E490E043E450E00E94160F8091360688
:10360000833039F086EA91E0BE016F5F7F4F0E9400
:10361000BF1381E08093D0018093D10186E0809335
:10362000D2018091430690914406A0914506B09145
:1036300046068093D4019093D501A093D601B09310
:10364000D70180913606833039F480ED91E00C96F5
:1036500066E675E00E94C7138CEE91E060E675E0C7
:103660000E94BF13ACEBB2E0EBE6F1E002C0819147
:103670008D9331E0E137F307D1F790913606992326
:1036800011F083E001C081E08093C2028DE380935A
:10369000C30287E08093C40281E08093C502A6EC58
:1036A000B2E0E0E6F5E002C081918D9385E0E63678
:1036B000F807D1F78CE08093CC028AE08093CD02AA
:1036C000AEECB2E0EAE5F1E002C081918D9321E039
:1036D000E436F207D1F728ED32E030934806209324
:1036E0004706913069F582E38093D80284E08093A5
:1036F000D902D9011296E6E6F5E002C081918D93D8
:1037000035E0EA36F307D1F786E38093DE0284E002
:103710008093DF0280EE92E0909348068093470604
:10372000DC01E2E7F5E002C081918D9385E0E637A8
:10373000F807D1F784EE92E090934806809347060D
:103740002091470630914806D901E5E6F1E002C034
:1037500081918D9381E0EB36F807D1F7C901069688
:103760009093480680934706805D91400E948E109A
:1037700026960FB6F894DEBF0FBECDBFCF91DF9176
:103780000895EF92FF920F931F93CF93DF93EC0175
:1037900080913606823009F4E0C0833030F488230B
:1037A00051F1813009F03DC14AC0833021F08430AD
:1037B00009F037C1D2C00E94930620913B06309198
:1037C0003C0640913D0650913E06E0903706F09051
:1037D00038060091390610913A062E0D3F1D401F04
:1037E000511F621773078407950708F41AC10E94D6
:1037F000D41A84E017C00E94930660934306709326
:1038000044068093450690934606109266051092F2
:10381000670510926805109269050E94D41A0E94EB
:10382000FF0B81E0809336060E94930660933F066B
:10383000709340068093410690934206F2C0C634CE
:10384000D10508F4B2C08091C901833409F0ADC03C
:103850008091D001823009F0A8C02091D40130912C
:10386000D5014091D6015091D701809143069091A6
:103870004406A0914506B0914606281739074A0725
:103880005B0709F092C08091C002853309F08DC0BA
:103890008091C202823009F088C0A6C0DF01119673
:1038A000E180ED01219680818630A9F0873030F4E7
:1038B000813059F0833009F045C00AC08633E9F100
:1038C0008A3361F08333F1F509C08AE695E037C0A9
:1038D0008EE695E034C086E795E031C011966C9194
:1038E00070E080E090E0982F872F762F662729815F
:1038F000620F711D811D911D982F872F762F6627CE
:103900002A81620F711D811D911D982F872F762F9F
:1039100066272B81620F711D811D911D28EE33E0FA
:1039200040E050E00E94181D60933B0670933C06F7
:1039300080933D0690933E0605C082E795E0BE0168
:103940000E94C713FE01EE0DF11DE017F10708F408
:10395000A5CF0E94D41A82E065CFC634D10528F1E4
:103960008091C901833409F58091D0018230E9F456
:103970002091D4013091D5014091D6015091D701C9
:103980008091430690914406A0914506B091460669
:10399000281739074A075B0741F48091C002853335
:1039A00021F48091C202853059F10E949306209142
:1039B0003F06309140064091410650914206205FFB
:1039C000384D4F4F5F4F261737074807590748F0C4
:1039D00028C08EE695E00E947C0F83E08093360637
:1039E00020C0109236061DC086E695E060EE71E0BC
:1039F0000E94C713E0ECF2E08E010A551E4F4ECF35
:103A00000E94FA0B0E949306609337067093380663
:103A10008093390690933A0680916E058823E9F2E7
:103A2000D8CFDF91CF911F910F91FF90EF90089524
:103A3000629FD001739FF001829FE00DF11D649F92
:103A4000E00DF11D929FF00D839FF00D749FF00D1E
:103A5000659FF00D9927729FB00DE11DF91F639FBF
:103A6000B00DE11DF91FBD01CF0111240895AA1B5E
:103A7000BB1B51E107C0AA1FBB1FA617B70710F059
:103A8000A61BB70B881F991F5A95A9F7809590958B
:103A9000BC01CD01089597FB092E07260AD077FDBA
:103AA00004D0E5DF06D000201AF4709561957F4FB1
:103AB0000895F6F7909581959F4F0895A1E21A2EEB
:103AC000AA1BBB1BFD010DC0AA1FBB1FEE1FFF1FC2
:103AD000A217B307E407F50720F0A21BB30BE40B12
:103AE000F50B661F771F881F991F1A9469F7609559
:103AF0007095809590959B01AC01BD01CF01089513
:103B0000EE0FFF1F0590F491E02D0994F894FFCF7C
:103B10002067002069004D41433A20002900444FAE
:103B2000574E005550002047573A004F4B00574121
:103B30004954344152500020555443203D20004503
:103B40007468205458206572726F7200C0A8000318
:103B5000C0A800017469692D3028C0A8001C01505C
:103B600000F6FF010A022C01000041726475696EC3
:103B70006F2D3030003703010306FF638253633536
:103B800001000000008201E809F301000000004389
:103B900009E809D9080A09EA083309FFFFFFFFFF0E
:103BA000FF3402561F1C1F1E1F1E1F1F1E1F1E1F1D
:063BB000FFFFFFFFFFFF15
:00000001FF
