:100000000C9438010C94931A0C94C01A0C9460014F
:100010000C9460010C9460010C9460010C946001DC
:100020000C9460010C9460010C9460010C946001CC
:100030000C9460010C9460010C9460010C946001BC
:100040000C9464060C9460010C94E2070C94300844
:100050000C9460010C9460010C9460010C9460019C
:100060000C9460010C94600143616E6E6F74207398
:10007000656E642074696D652075706461746500D7
:1000800053656E742074696D652075706461746564
:1000900000455448206C696E6B3A00426173656D8F
:1000A000656E74204757002A2A2A2A2A2052554E64
:1000B0004E494E473A20726631322D7564702D6775
:1000C000772E696E6F004661696C656420746F20DD
:1000D0006163636573732045746865726E6574202F
:1000E000636F6E74726F6C6C657200524631323A97
:1000F0002062002A2A2A2A2A2053455455503A20A1
:10010000726631322D7564702D67772E696E6F00BF
:1001100020286D792067726F7570206973203078A0
:10012000005544503A2043616E6E6F7420666F72C2
:1001300077617264206D65737361676520666F72A5
:100140002067726F75702030780000000000240076
:1001500027002A0000000000250028002B000000D6
:1001600000002300260029000404040404040404FD
:100170000202020202020303030303030102040852
:100180001020408001020408102001020408102001
:100190000000000700020100000304060000000048
:1001A0000000000000010800060400014500008274
:1001B0000000400020504F535420244620485454FF
:1001C000502F312E300D0A486F73743A2024460D9B
:1001D0000A244624534163636570743A202A2F2A07
:1001E0000D0A436F6E74656E742D4C656E6774688E
:1001F0003A2024440D0A436F6E74656E742D547951
:1002000070653A206170706C69636174696F6E2FFC
:10021000782D7777772D666F726D2D75726C656EA0
:10022000636F6465640D0A0D0A245300474554202A
:100230002446245320485454502F312E300D0A4860
:100240006F73743A2024460D0A24460D0A0D0A00E5
:100250004163636570743A20746578742F68746DB7
:100260006C00E30004FA000100000001B3019C09E6
:1002700011241FBECFEFD8E0DEBFCDBF11E0A0E05C
:10028000B1E0E2E4FBE302C005900D92A23AB107AF
:10029000D9F716E0A2EAB1E001C01D92A434B1077B
:1002A000E1F712E0C0E7D2E004C02297FE010E940D
:1002B0009B1DCC36D107C9F70E94F2090C949F1DF3
:1002C0000C940000FB01DC0102C005900D9241502E
:1002D0005040D8F70895FB01DC0104C08D910190D6
:1002E000801921F441505040C8F7881B990B08959C
:1002F000FB01DC0102C001900D9241505040D8F743
:100300000895282F442321F08091C701841749F5CF
:100310008091C801882329F58091C901883309F5A6
:100320008091C5018B37E9F4E22FF92F8091F40118
:1003300083838091F50182838091F601818380918E
:10034000F7018083FB018091F80183838091F9019B
:1003500082838091FA0181838091FB01808381E017
:10036000089580E0089510922204109225041092BE
:10037000280410922B0484E080932C0483E0809363
:100380002D04109299031092980381E791E09093C5
:100390009703809396030895EF92FF920F931F9314
:1003A000F62EE72E042F8FE097E268E371E04FE02E
:1003B00057E20E942F0F89E08093CC0184ED809357
:1003C000CD018FE18093CE012FEC31E0C9016F2D7B
:1003D0007E2D402F50E00E94780110E0C801039666
:1003E0000E94A71080912E0490912F04A0913004B8
:1003F000B09131040196A11DB11D80932E049093FC
:100400002F04A0933004B09331041F910F91FF90FB
:10041000EF900895EF92FF920F931F93CF93DF9386
:10042000EC018C0107571F4FD8018C91FE01E80F9A
:10043000F11D148284E0E82EF12CEC0EFD1E83E108
:1004400095E0B7010E949D0BF8010081002359F04F
:10045000FE01E00FF11D83818A3029F483E195E0EC
:100460006DE00E944E0AE881F9818E0107571F4F07
:100470000480F581E02DCE01B701D8014C9109959A
:10048000F8011082DF91CF911F910F91FF90EF90B3
:1004900008959C01DC01A757BF4F8C91F901E80F2B
:1004A000F11D64838F5F8C93843810F46A3019F4E3
:1004B000C9010E940A0281E090E00895FC01808158
:1004C000882311F482E101C08D5F0E948D07089599
:1004D000CF93DF9383E195E040E051EE60E070E080
:1004E0000E946B0883E195E063EF70E00E94760A5A
:1004F00080912D04882311F483E101C0835F61E0C2
:100500000E944E0780912D04882311F483E101C0DD
:10051000835F61E00E948D0780912D04882311F490
:1005200082E101C08D5F61E00E944E078DE294E0A0
:1005300061E00E945E0280912C04882311F482E124
:1005400001C08D5F61E00E944E078CE294E061E0A3
:100550000E945E0264EF71E080E090E00E94BA06C3
:1005600083E195E06BEE70E00E942B0A83E195E059
:1005700063E070E04AE050E00E946B0B83E195E09D
:1005800060E071E00E949D0B83E195E064ED70E016
:100590004AE050E00E946B0B83E195E063E071E07C
:1005A0000E949D0B83E195E06FE170E04AE050E02E
:1005B0000E947E0B8FE163E044ED0E94441883E1CA
:1005C00095E066E071E00E949D0BC0E0D0E0FE0186
:1005D000E05CFE4F83E195E0608140E150E00E94E5
:1005E000190BC53029F083E195E06AE30E944E0AB9
:1005F0002196C630D10559F783E195E00E94560A4D
:100600000CC083E195E066EC70E00E94760A68EE2B
:1006100073E080E090E00E94BA0684EF91E060E42D
:1006200071E048E00E943E0E882359F386E491E091
:1006300068E371E0AB010E941B0E80E294E06CE481
:1006400074E00E94081483E294E068EE73E00E9474
:10065000081483E195E067EA70E00E94760A86E973
:1006600093E06BE970E00E94760A80912D04882364
:1006700011F483E101C0835F60E00E948D078DE289
:1006800094E060E00E945E02DF91CF91089585E0E2
:100690000E9442068C529140969587959695879533
:1006A00008954091C9018091C7018F3009F04AC077
:1006B0008091C601873209F045C08091C801882326
:1006C00009F040C048504330E8F14634D8F58091F5
:1006D000CD01843D19F186E993E061E271E00E9469
:1006E0002B0A86E993E06091CD0140E150E00E9441
:1006F000190B86E993E060E171E00E942B0A86E91C
:1007000093E064ED70E04AE050E00E946B0B86E9F4
:1007100093E06CE071E00E94A00B12C08091CC01CC
:100720009091CE01883011F481EE05C08295880F3A
:10073000807E9F71892B43506FEC71E00E947F1780
:1007400081E0089580E00895DF92EF92FF920F9389
:100750001F93DF93CF9300D000D00F92CDB7DEB7B9
:100760000E94490C882309F478C20E94000F882354
:1007700009F073C280E294E068E873E10E94081413
:10078000882309F475C28CE391E06BE70E94D610D0
:100790006FC283E195E061E970E00E942B0A0E943C
:1007A000490C882319F46EE071E002C063E171E046
:1007B00083E195E00E949D0B83E195E066E171E0A5
:1007C0000E949D0B0E94000F882319F46BE171E0D9
:1007D00002C06EE171E083E195E00E949D0B83E130
:1007E00095E00E94560A42C28FE097E268E371E00A
:1007F0004FE057E20E942F0F1092CC0184ED8093BE
:10080000CD018FE18093CE0188E08093CF0180916C
:1008100032048093D001809136048093D10180917D
:100820003A048093D20180912E048093D301A4EDE9
:10083000B1E0EEE3F4E08EE101900D928150E1F73A
:10084000A2EFB1E0ECE5F4E08EE101900D92815071
:10085000E1F78EE1EEE3F4E0DF01982F1D929A9527
:10086000E9F7ECE5F4E0DF011D928A95E9F72CEC5D
:1008700031E080E192E0821B90E00E94A71080911D
:100880002E0490912F04A0913004B0913104019670
:10089000A11DB11D80932E0490932F04A0933004CA
:1008A000B0933104DD24D3940E947314882309F497
:1008B00090C08091BE059091BF05892B09F089C039
:1008C0008091320490913304A0913404B0913504A6
:1008D0000196A11DB11D8093320490933304A0931F
:1008E0003404B09335040091C1050F718091C105A6
:1008F00086FD07C00E944703E02FF0E0E25CFB4F5B
:1009000080838091C105807E803859F48091C20532
:10091000813039F48091C305E02FF0E0E65AFB4FB7
:1009200080839091C1058091C105803E11F408E05B
:1009300004C0092F0295069507708091C105813E7C
:1009400009F408E08FE097E268E371E04FE057E2D6
:100950000E942F0F0093CC018091C0058093CD01A0
:100960008091C1058F718093CE014091C2052FEC1B
:1009700031E0E3ECF5E0C901BF0150E00E947801ED
:100980008091C20590E003960E94A71080912E04EA
:1009900090912F04A0913004B09131040196A11DD3
:1009A000B11D80932E0490932F04A0933004B09334
:1009B000310489E294E064E670E00E94EC138091D7
:1009C0002D04882311F483E101C0835F61E00E945C
:1009D0008D070E94880C8C010E9427110B32110593
:1009E0000CF408C18091AE01883009F003C18091F8
:1009F000AF01882309F0FEC08091B901813109F06F
:100A0000F9C080913A0490913B04A0913C04B091CC
:100A10003D040196A11DB11D80933A0490933B04BF
:100A2000A0933C04B0933D048091C501833409F444
:100A3000E1C00E945103882361F086E294E064E6FD
:100A400070E00E94EC138DE294E061E00E945E028F
:100A5000D1C08AE794E06EE774E04BE70E94810121
:100A6000882309F4C7C060917A0470917B04809157
:100A70007C0490917D0460587E478A4A9348609335
:100A80007A0470937B0480937C0490937D040E948D
:100A9000C7190E947015882391F1FE01319685E0F7
:100AA000DF011D928A95E9F783E0898380917A04BA
:100AB00090917B04A0917C04B0917D048A839B83F8
:100AC000AC83BD838FE1BF0145E00E947017809128
:100AD000360490913704A0913804B09139040196FE
:100AE000A11DB11D8093360490933704A093380460
:100AF000B093390486E993E060E870E004C086E9C9
:100B000093E068E670E00E94760A0E94F1197B018A
:100B10008C010E94A919BC0186E993E04AE050E0EB
:100B20000E946B0B86E993E06FE20E944E0AC801B7
:100B3000B7010E94AF19BC0186E993E04AE050E09A
:100B40000E946B0B86E993E06FE20E944E0AC80197
:100B5000B7010E94A019BC0186E993E04AE050E089
:100B60000E946B0B86E993E060E20E944E0AC80186
:100B7000B7010E94C119BC0186E993E04AE050E048
:100B80000E946B0B86E993E06AE30E944E0AC8015B
:100B9000B7010E94BB19BC0186E993E04AE050E02E
:100BA0000E946B0B86E993E06AE30E944E0AC8013B
:100BB000B7010E94B519BC0186E993E04AE050E014
:100BC0000E946B0B86E993E067E271E00E949D0B47
:100BD00040917A0450917B0460917C0470917D0473
:100BE00086E993E02AE030E00E940A0B86E993E070
:100BF0000E94560A89E294E060E070E00E940814C6
:100C0000882351F080912D04882311F483E101C0E1
:100C1000835F60E00E948D0786E294E060E070E010
:100C20000E940814882329F08DE294E060E00E947D
:100C30005E0281E0D8268CE294E06D2D0E945E0277
:100C40000F900F900F900F900F90CF91DF911F9109
:100C50000F91FF90EF90DF90089580E294E060EABA
:100C60007FE00E940814882309F093CDDD241CCE78
:100C700083E294E06CEF79EE0E940814882309F077
:100C8000B3CD10CE982F8E3008F09E509770809183
:100C90004A018295880F880F807C892B80937C0085
:100CA00080917A00806480937A0080917A0086FD3A
:100CB000FCCF2091780040917900942F80E030E0C3
:100CC000282B392BC90108951F920F920FB60F924E
:100CD00011242F933F938F939F93AF93BF93809152
:100CE000860490918704A0918804B0918904309182
:100CF0008A040196A11DB11D232F2D5F2D3720F0F1
:100D00002D570196A11DB11D20938A04809386045E
:100D100090938704A0938804B093890480918204FF
:100D200090918304A0918404B09185040196A11D43
:100D3000B11D8093820490938304A0938404B093A4
:100D40008504BF91AF919F918F913F912F910F900B
:100D50000FBE0F901F9018958FB7F89420918604BE
:100D60003091870440918804509189048FBFB90164
:100D7000CA0108959B01AC017FB7F8948091820469
:100D800090918304A0918404B091850466B5A89BDA
:100D900005C06F3F19F00196A11DB11D7FBFBA2F8D
:100DA000A92F982F8827860F911DA11DB11D62E0E4
:100DB000880F991FAA1FBB1F6A95D1F7BC012DC0D0
:100DC000FFB7F8948091820490918304A0918404E9
:100DD000B0918504E6B5A89B05C0EF3F19F00196D8
:100DE000A11DB11DFFBFBA2FA92F982F88278E0FE5
:100DF000911DA11DB11DE2E0880F991FAA1FBB1F05
:100E0000EA95D1F7861B970B885E9340C8F2215074
:100E100030404040504068517C4F2115310541051C
:100E2000510571F60895789484B5826084BD84B5C7
:100E3000816084BD85B5826085BD85B5816085BDD5
:100E4000EEE6F0E0808181608083E1E8F0E01082EE
:100E5000808182608083808181608083E0E8F0E02F
:100E6000808181608083E1EBF0E080818460808319
:100E7000E0EBF0E0808181608083EAE7F0E0808150
:100E800084608083808182608083808181608083B0
:100E90008081806880831092C1000895CF93DF9392
:100EA000482F50E0CA0184589E4FFC0134914859A4
:100EB0005E4FFA018491882369F190E0880F991FB1
:100EC000FC01E65BFE4FA591B491FC01EC5AFE4F8C
:100ED000C591D491662351F42FB7F8948C91932F38
:100EE000909589238C93888189230BC0623061F4AB
:100EF0002FB7F8948C91932F909589238C938881A8
:100F0000832B88832FBF06C09FB7F8948C91832BC7
:100F10008C939FBFDF91CF910895482F50E0CA0175
:100F200080579E4FFC012491CA0184589E4FFC01BA
:100F3000949148595E4FFA013491332309F440C02B
:100F4000222351F1233071F0243028F42130A1F014
:100F5000223011F514C02630B1F02730C1F0243012
:100F6000D9F404C0809180008F7703C08091800005
:100F70008F7D8093800010C084B58F7702C084B5C8
:100F80008F7D84BD09C08091B0008F7703C08091B0
:100F9000B0008F7D8093B000E32FF0E0EE0FFF1FD5
:100FA000EC5AFE4FA591B4912FB7F894662321F423
:100FB0008C919095892302C08C91892B8C932FBFA3
:100FC000089508951F920F920FB60F9211242F9338
:100FD0003F934F938F939F93EF93FF938091C00024
:100FE00082FD1DC04091C6002091CB043091CC04FD
:100FF0002F5F3F4F2F7330708091CD049091CE04BE
:101000002817390771F0E091CB04F091CC04E55733
:10101000FB4F40833093CC042093CB0402C08091DB
:10102000C600FF91EF919F918F914F913F912F912A
:101030000F900FBE0F901F901895E0911F05F09133
:101040002005E05CFF4F8191919120813181821BCD
:10105000930B8F739070892B11F00E94E107089514
:101060001F920F920FB60F9211242F933F938F93DD
:101070009F93EF93FF9320910F053091100580917E
:101080001105909112052817390731F48091C1009C
:101090008F7D8093C10014C0E0911105F09112057D
:1010A000E153FB4F2081809111059091120501962B
:1010B0008F73907090931205809311052093C60052
:1010C000FF91EF919F918F913F912F910F900FBEC4
:1010D0000F901F901895AF92BF92DF92EF92FF9200
:1010E0000F931F93CF93DF93EC017A018B01DD24E3
:1010F000403081EE580780E0680780E0780711F003
:10110000DD24D39491E0A92EB12CEC89FD89DD205A
:1011100069F0C50108A002C0880F991F0A94E2F780
:10112000808360E079E08DE390E005C0108260E8A4
:1011300074E88EE190E0A80197010E94771D21508C
:10114000304040405040569547953795279580E16F
:101150002030380720F0DD2011F0DD24D6CFE889DB
:10116000F9893083EA89FB89208319A2EE89FF89F6
:10117000408121E030E0C9010C8C02C0880F991F2A
:101180000A94E2F7482B4083EE89FF894081C90128
:101190000D8C02C0880F991F0A94E2F7482B4083F8
:1011A000EE89FF894081C9010E8C02C0880F991F0A
:1011B0000A94E2F7482B4083EE89FF8980810F8CE7
:1011C00002C0220F331F0A94E2F7209528232083C0
:1011D000DF91CF911F910F91FF90EF90DF90BF9023
:1011E000AF900895DC011C96ED91FC911D97E05C99
:1011F000FF4F2191319180819181281B390B2F73F1
:101200003070C9010895DC011C96ED91FC911D9789
:10121000E05CFF4F20813181E054F040DF01AE5BA4
:10122000BF4F8D919C9111972817390719F42FEF13
:101230003FEF07C08D919C91E80FF91F8081282F07
:1012400030E0C9010895DC011C96ED91FC911D97D9
:10125000E05CFF4F20813181E054F040DF01AE5B64
:10126000BF4F8D919C9111972817390719F42FEFD3
:101270003FEF10C08D919C911197E80FF91F2081CD
:101280008D919C91119701968F73907011969C93FC
:101290008E9330E0C9010895DC0191968C9191976D
:1012A000882339F05496ED91FC915597808186FF03
:1012B000F9CF91961C920895CF93DF93EC01EE85C0
:1012C000FF85E05CFF4F20813181E054F0402F5FCB
:1012D0003F4F2F733070DF01AE5BBF4F8D919C91FC
:1012E000119728173907D1F3E05CFF4F8081918176
:1012F000E054F040E80FF91F6083EE85FF85E05C65
:10130000FF4F31832083EE89FF89208181E090E0C7
:101310000F8C02C0880F991F0A94E2F7282B2083B4
:1013200081E089A3EC89FD8980818064808381E0EC
:1013300090E0DF91CF910895109216051092150557
:1013400088EE93E0A0E0B0E0809317059093180535
:10135000A0931905B0931A058BE791E090931405BB
:10136000809313058BE894E09093200580931F05EC
:101370008FEC94E0909322058093210585EC90E01A
:10138000909324058093230584EC90E090932605A8
:101390008093250580EC90E09093280580932705A5
:1013A00081EC90E090932A058093290582EC90E0EF
:1013B00090932C0580932B0586EC90E090932E055E
:1013C00080932D0584E080932F0583E08093300582
:1013D00087E08093310585E08093320581E080933A
:1013E00033050895CF93DF930E9413070E9468028C
:1013F000CDE1D8E00E94A4032097E1F30E941D08EC
:10140000F9CFCF92DF92EF92FF920F931F93CF937A
:10141000DF937C016B018A01C0E0D0E00FC0D601F0
:101420006D916D01D701ED91FC910190F081E02D5E
:10143000C7010995C80FD91F0150104001151105AA
:1014400071F7CE01DF91CF911F910F91FF90EF9037
:10145000DF90CF900895EF92FF920F931F93CF9359
:10146000DF937C018B01C0E0D0E0F8010F5F1F4FDC
:101470006491662359F0D701ED91FC910190F081C0
:10148000E02DC7010995C80FD91FEFCFCE01DF911D
:10149000CF911F910F91FF90EF900895DC01ED9196
:1014A000FC910190F081E02D09950895EF92FF9253
:1014B0000F931F938C01DC01ED91FC910190F08161
:1014C000E02D6DE009957C01D801ED91FC91019032
:1014D000F081E02DC8016AE009959C012E0D3F1DA9
:1014E000C9011F910F91FF90EF900895EF92FF9225
:1014F0000F931F937C010E942B0A8C01C7010E944D
:10150000560A9C01200F311FC9011F910F91FF90B6
:10151000EF900895CF93DF93EC016115710519F4F5
:1015200020E030E00FC0DB010D900020E9F71197BB
:10153000A61BB70BE881F9810280F381E02DAD0194
:1015400009959C01C901DF91CF9108954F925F9257
:101550007F928F929F92AF92BF92CF92DF92EF9243
:10156000FF920F931F93DF93CF93CDB7DEB7A19771
:101570000FB6F894DEBF0FBECDBF2C01742ECB0189
:10158000223008F42AE019A231E2C32ED12CCC0E6D
:10159000DD1E822E9924AA24BB24672D752FA50158
:1015A00094010E94771D79018A01C801B701A50144
:1015B00094010E94311D472D461B0894C108D10893
:1015C0004A3010F4405D01C0495CF6014083E114EB
:1015D000F1040105110521F07E2C5F2DC801DDCF3E
:1015E000C201B6010E948A0AA1960FB6F894DEBF26
:1015F0000FBECDBFCF91DF911F910F91FF90EF9064
:10160000DF90CF90BF90AF909F908F907F905F9032
:101610004F900895DC012115310541F4ED91FC91C5
:101620000190F081E02D642F099508950E94A60A8B
:101630000895EF92FF920F931F939A01E62EFF24D5
:1016400000E010E0B801A7010E940A0B1F910F9162
:10165000FF90EF900895CF92DF92EF92FF920F9359
:101660001F93CF93DF93EC016A017B0121153105B4
:1016700041F4E881F9810190F081E02D642F099512
:101680001FC02A303105D1F477FF17C0E881F981F6
:101690000190F081E02D6DE209958C0144275527DA
:1016A000BA014C195D096E097F09CE012AE00E943A
:1016B000A60A9801280F391F04C02AE00E94A60A32
:1016C0009C01C901DF91CF911F910F91FF90EF9085
:1016D000DF90CF900895EF92FF920F931F937B01BD
:1016E0009A010027F7FC0095102FB801A7010E946E
:1016F0002B0B1F910F91FF90EF900895CF92DF92E7
:10170000EF92FF920F931F936C017B019A010027C8
:10171000F7FC0095102FB801A7010E942B0B8C013C
:10172000C6010E94560A080F191FC8011F910F9188
:10173000FF90EF90DF90CF9008950E948A0A08955D
:10174000EF92FF920F931F937C010E948A0A8C01F3
:10175000C7010E94560A080F191FC8011F910F9157
:10176000FF90EF9008958091370561E00E948D070A
:1017700078940895FF920F931F93082F162FF42E3D
:10178000F8948091370560E00E948D071F71102B3F
:101790001EBD0DB407FEFDCFFEBC0DB407FEFDCF90
:1017A0000E94B30B1F910F91FF9008951F93182F64
:1017B000282F30E0207630708091380590E028178F
:1017C000390799F080EA6FE143E00E94BA0B412F9C
:1017D00040764093380550E085E0559547958A95C9
:1017E000E1F780E86FE10E94BA0B1F9108950F9313
:1017F0001F93182F062F0E94D60B80E4612F402FD5
:101800000E94BA0B1F910F9108950F931F93182FE9
:10181000072F0E94F70B812F8F5F602F0E94F70B1D
:101820001F910F91089588E360EB0E94F70B0895D4
:1018300088E361EB0E94F70B08950F931F93182F15
:10184000062FF8948091370560E00E948D07802F65
:101850008F71812B8EBD0DB407FEFDCF1EBC0DB464
:1018600007FEFDCF07FF04C01EBC0DB407FEFDCF71
:101870001EB50E94B30B812F1F910F9108951F93E6
:10188000182F0E94D60B80E0612F0E941D0C1F9123
:10189000089584ED61E10E94F70B82ED61E00E9402
:1018A000F70B8AEE0E943F0C80FDFBCF82ED60E0DB
:1018B0000E94F70B89ED0E943F0C90E0969587956A
:1018C00096958795817008950F931F93CF93DF931B
:1018D000EC018B01F8948091370560E00E948D0740
:1018E0008AE38EBD0DB407FEFDCF09C01EBC0DB44A
:1018F00007FEFDCF8EB5F80181938F0121972097C8
:10190000A9F70E94B30BDF91CF911F910F9108951A
:101910000F931F93DF93CF9300D000D000D0CDB7AB
:10192000DEB789E30E943F0C882319F400E010E041
:1019300048C06091390570913A0580E00E94050C1D
:1019400086E090E0BE016F5F7F4F0E94640C89814A
:101950009A8190933A05809339052B813C81E091DF
:101960003505F09136058D8187FD03C000E010E05C
:101970000EC0245030408F01015010402017310715
:1019800008F48901C80162EA71E00E94640CF80160
:10199000EE55FE4F10826091390570913A058CE04A
:1019A0006130780724F08CE06FEF7BE003C061507A
:1019B00070408CE00E94050C80E86EE140E40E94DB
:1019C000BA0BC80126960FB6F894DEBF0FBECDBF86
:1019D000CF91DF911F910F9108950F931F93CF9394
:1019E000DF938C01EB01F8948091370560E00E9451
:1019F0008D078AE78EBD0DB407FEFDCF08C0888134
:101A00008EBD0DB407FEFDCF21960150104001158B
:101A10001105A9F70E94B30BDF91CF911F910F9190
:101A200008958AE061E00E944E078AE061E00E942A
:101A30008D078BE061E00E944E078DE061E00E941F
:101A40004E078CE060E00E944E078BE061E00E9450
:101A50008D078BE060E00E948D078DE060E00E94C2
:101A60008D0780E58CBD8DB581608DBD08951F9378
:101A7000CF93DF93EB01142F9093360580933505B8
:101A80000CB406FC02C00E94110D10933705812F83
:101A900061E00E944E070E94B30B8FEF60E04FEFB2
:101AA0000E94BA0B62E070E080E090E00E94BA060B
:101AB00080E06DE10E941D0C8823D1F310923A055D
:101AC0001092390588E060E070E00E94050C8CE01F
:101AD00060E070E00E94050C8AE06FEF7BE00E94FE
:101AE000050C84E060E07CE00E94050C86E06FEF6E
:101AF00071E10E94050C0E94180C88E26FE370E30C
:101B00000E94050C80E369EF77EF0E94050C80ECE2
:101B10006DE00E94F70B81EC60E00E94F70B80E81B
:101B200062EC42E30E94BA0B86EC62E17CE00E9428
:101B3000050C84EC62E10E94F70B8AEC6CED75E019
:101B40000E94050C84EE68810E94F70B85EE698186
:101B50000E94F70B82EE6A810E94F70B83EE6B8185
:101B60000E94F70B80EE6C810E94F70B81EE6D8175
:101B70000E94F70B84ED60E10E94F70B86ED60E0B8
:101B800071E00E94050C8AEE0E943F0C80FDFBCFA5
:101B90008FE10E94D60B80E86BE140EC0E94BA0B0B
:101BA00080E86FE144E00E94BA0B82E70E943F0C9C
:101BB000863008F08F5FDF91CF911F910895CF930A
:101BC000DF93EC0115C08CE10E943F0C81FF10C037
:101BD00083E195E06BE271E00E94A00B80E86FE189
:101BE00040E80E94BA0B80EA6FE140E80E94BA0B1D
:101BF00080E06FE10E941D0C83FDE5CF82E060E094
:101C00007CE00E94050CBE016050744F86E00E948B
:101C1000050C8AE760E040E00E94BA0BCE0162EA60
:101C200071E00E94ED0C80E86FE148E00E94BA0B81
:101C3000DF91CF9108950F931F93CF93DF939C0172
:101C4000EB018A0110927905009729F081E695E071
:101C5000B9010E94E013209719F0CE010E94950F60
:101C60000115110529F081E795E0B8010E94E01304
:101C700081E0DF91CF911F910F910895AF92BF92B4
:101C8000CF92DF92FF920F931F93CF93DF938C013C
:101C9000EB01F42E1092790538E341E050E060E06A
:101CA00070E018C0832F90E0FC01B3E0F595E79554
:101CB000BA95E1F7E55CFA4F877090705A016B01B5
:101CC00004C0AA0CBB1CCC1CDD1C8A95D2F7208159
:101CD0002A292083315031F78BE595E0BE010E941F
:101CE000D813C8016BE575E04F2D0E94370DDF91C9
:101CF000CF911F910F91FF90DF90CF90BF90AF9049
:101D00000895DF92EF92FF920F931F93CF93DF938B
:101D1000D82E862FBA01213041F4675F7F4F9B0197
:101D200040E050E0695070400EC0223029F020E0C1
:101D300030E040E050E007C0625070409B0140E05E
:101D400050E06E5F7F4FE82EFF2482EA91E0E80EBC
:101D5000F91E8B01E7010FC0F881E0E0898190E076
:101D60008E2B9F2BA0E0B0E0280F391F4A1F5B1F6E
:101D70002296025010400230110570F7CB018E7F81
:101D8000D701A80FB91F6817790779F08C9190E0F7
:101D9000A0E0B0E0BA2FA92F982F882702C040E01A
:101DA00050E0280F391F4A1F5B1FCA01AA27BB2713
:101DB0000097A105B10599F7C90180959095ED2D82
:101DC000F0E0EE55FE4F90838183DF91CF911F911C
:101DD0000F91FF90EF90DF9008951092BA0110924A
:101DE000BB0180E48093B6011092B7018093B801E3
:101DF00088E16EE044E150E020E00E94810E089509
:101E000080917B0586958095817008950F931F932F
:101E1000BC0102EA11E0C8010E94D813C80106966D
:101E20006BE575E00E94D8131F910F910895EF9212
:101E3000FF920F931F937B010E94060F00EC11E0AD
:101E4000C801B7010E94E013C801049761E675E07C
:101E50000E94E0131F910F91FF90EF900895EF9271
:101E6000FF920F931F93CF93DF937C01EB018A01C5
:101E700086E895E00E94170F8881807F803E49F0B8
:101E800088819981AA81BB818F5F9F4FAF4FBF4FE0
:101E900031F482EA91E067E871E00E94D81388E0AB
:101EA0008093AE011092AF0180EB91E06CEA71E09B
:101EB00049E050E00E9462011092B20181E18093FA
:101EC000B9011093C6010093C701F092C401E092DA
:101ED000C5011092C8011092CA011092CB01DF9186
:101EE000CF911F910F91FF90EF900895EF92FF9285
:101EF0000F931F9308EA11E0C8010E94060F74E1D6
:101F0000E72EF12CE00EF11EC8014896B7010E94A1
:101F1000E013C70161E675E00E94E0130E94ED0E38
:101F20001F910F91FF90EF900895BC0181E0809385
:101F30007B0589E695E00E94E01308950F931F93B7
:101F40008C0188969093B2018093B3010E94ED0EAC
:101F50001092D4011092D501045E1F4F82E36AE112
:101F6000A80122E00E94810EC8014A960E94DF0D5E
:101F70001F910F910895CF93DF939C01862F80616D
:101F80008093D101643029F02115310511F421E04D
:101F900030E09091C6018091C4018093C601909376
:101FA000C4019091C7018091C5018093C7019093AE
:101FB000C501CBECD1E08881A901480F511D2C81CE
:101FC0004C832883252F3327219751E0C73CD50721
:101FD00091F71D861E8680E589871092B20188E2FE
:101FE0008093B3010E94760F84E08B871C8682E386
:101FF0006AE14CE150E022E00E94810E86E390E02D
:102000000E94DF0DDF91CF910895E82FA091B201DA
:10201000B091B301F091D0014091C60150E0292F59
:1020200030E04217530709F08EC08091C7018E1728
:1020300009F089C08091D101E82F81FF4EC0109234
:10204000B2018CE28093B3010E94760F82E180930B
:10205000D1019091C6018091C4018093C6019093F3
:10206000C4019091C7018091C5018093C7019093ED
:10207000C501EBECF1E021E030E08081A901480FDF
:10208000511D44831082252F3327319751E0E73CBF
:10209000F50799F7158616861182128280915001F4
:1020A000838314828D5F8093500182E0818B84E072
:1020B000828B95E0938B148A80E68187938788E7EB
:1020C000848782E36AE140E250E022E00E94810ED0
:1020D0008AE390E00E94DF0D36C084FF34C04F2FAA
:1020E00050E084E0559547958A95E1F79A2F80E076
:1020F0002B2F30E0282B392BCA01880F991F880F0E
:10210000991F281B390B2451304037FF02C020E0B3
:1021100030E030938D0520938C05232B69F09A01D4
:10212000220F331F220F331F2E5D3F4F6850704028
:102130006217730740F009C0E0FF05C080E090E03F
:1021400060E00E94BB0F20E030E0C90108950F93CA
:102150001F93DF93CF930F92CDB7DEB78C01045E50
:102160001F4F1093B2010C511040802F845E80935A
:10217000B30189830E94ED0E085F1F4F1093C801C1
:10218000898184518093C901085F1F4F88E26AE109
:10219000A80121E00E94810EC8014A960E94DF0D2D
:1021A0000F90CF91DF911F910F910895FF920F93A0
:1021B0001F939C01F62E86E895E0B9010E94170F47
:1021C0000EEA11E088E08093AE011092AF01C801E1
:1021D00002966CEA71E049E050E00E9462018CE4F2
:1021E0008093B30181E18093B9010E94ED0E1092BA
:1021F000C6018BE78093C7018AE08093C401F09207
:10220000C5011092C80188E38093C9011092CA01E8
:102210001092CB01025E1F4F80E3F80111928A9564
:10222000E9F7C80162E672E04AE050E00E9462010C
:1022300088E26AE140E450E021E00E94810E8AE5F4
:1022400090E00E94DF0D1F910F91FF900895DF92A3
:10225000EF92FF920F931F93CF93DF93EC01809146
:102260007905882319F0CE010E94DA1B209709F026
:10227000C3C080917B058570F1F180914D019091F3
:102280004E01892BC1F50E94490C8823A1F187E8F2
:1022900091E00E94060F88E08093AE01A6E0FA2E3E
:1022A000F092AF0180EB91E064EA71E048E050E029
:1022B0000E94620102EC11E0D8011D92FA94E9F744
:1022C000C8010A976BE575E00E94D813C80106960D
:1022D00069E675E00E94E013C801049761E675E0C5
:1022E0000E94E01380917B05886080937B058AE2E1
:1022F00090E00E94DF0D0E94490C882349F08091F4
:102300004D0190914E01019690934E0180934D01A5
:1023100080917C05813009F0EFC180917B0581FFC0
:10232000EBC102E000937C0580914F018F5F8093A9
:102330004F018F7110917D051295110F107E182B92
:10234000E0907E05D0907F0586E895E065E775E032
:102350000E94170FF8E0FF2EF092AE011092AF012D
:1023600080EB91E06CEA71E049E050E00E9462018C
:102370008CE28093B30186E08093B9010E94ED0E58
:10238000E092C601D092C7018BE08093C401109304
:10239000C501E8ECF1E0DF011D92FA94E9F78091C4
:1023A00050018093CA018D5F8093500180E6809335
:1023B000D0010093D10183E08093D2011092D30128
:1023C0001092D4011092D5011092D6011092D7012B
:1023D0000093D80184E08093D9010093DA0186E26A
:1023E0008093DB0182E36AE140E250E022E00E9458
:1023F000810E8AE390E09BC0C932D10508F47CC10C
:102400001091AE01183009F082C18091AF01863081
:1024100009F07DC188EC91E061E675E044E050E0B0
:102420000E946B01009709F072C18091B701813061
:1024300029F588EA91E00E94060F1092B60182E029
:102440008093B70182EC91E068EB71E00E94D813B1
:1024500088EB91E06BE575E00E94D81388EC91E081
:102460006EEB71E00E94E0138EEB91E061E675E0A7
:102470000E94E0138AE290E00E94DF0D80917B05CC
:1024800083FF3AC11091B701123009F035C18EEBCC
:1024900091E069E675E044E050E00E946B0100972E
:1024A00009F02AC186E895E068EB71E00E94D81334
:1024B00010937B0521C1183009F01EC18091AF0136
:1024C000882309F019C18091B001853409F014C145
:1024D00080EC91E061E675E044E050E00E946B0121
:1024E000009709F009C18091B901813019F58091F7
:1024F000C4018830F9F4E0918005F09181053097AE
:1025000019F08CEB91E009950E94760F1092C401AE
:102510008091C601883F28F08091C7018F5F80932A
:10252000C7018091C601885F8093C601CE010E94D9
:10253000DF0DE2C00E948C13882351F08091B90115
:10254000813131F4CE010E949113882309F0D4C067
:10255000C633D10528F48091B901863009F0CCC08A
:102560008091C6018B3009F0BEC08CEB91E065E72D
:1025700075E044E050E00E946B01009709F0BCC098
:102580008091D101382F82FF13C0E0918205F09134
:102590008305309759F08091C701829586958770A1
:1025A00063E040E050E020E030E0099585E090C035
:1025B0009091B20180E02091B301022F10E0082B2E
:1025C000192B8091D001482F50E0E4E055954795B4
:1025D000EA95E1F7CA01880F991F880F991F081B18
:1025E000190B0451104017FF02C000E010E0809169
:1025F0007C05823079F531FF21C034FF1FC080E0B7
:1026000090E060E00E94BB0F88E18093D101E091EF
:102610008405F0918505309719F420E030E007C07B
:102620008091C50182958695877009959C0183E00C
:1026300080937C05C9010E949E0F5EC081E080935B
:102640007C0534FF03C080E090E002C0C801019621
:1026500064E046C0833081F50115110579F1E09100
:102660008205F0918305309749F1440F551F440FBF
:10267000551FCE0108974E5D5F4F8417950708F4EC
:10268000AC01C801840F951FC817D90710F0980135
:1026900003C09E01241B350B8091C701829586954E
:1026A000877060E0099580917A05882319F0C80148
:1026B00068E016C0C80108C08530F1F030FF0BC0DB
:1026C0008330D1F0C801019669E00E94BB0F86E01B
:1026D00080937C0511C00115110571F0C80160E0FF
:1026E0000E94BB0F09C080914B0190914C01BE012B
:1026F0000E9405109C0102C020E030E0C901DF917A
:10270000CF911F910F91FF90EF90DF900895CA3203
:10271000D10508F0D0CEF0CF8091B605811181E0CF
:102720000895CF92DF92EF92FF920F931F93CF9372
:10273000DF93CEE8D5E030E0CC24DD2429C02A8127
:102740004B818091C60190E0042F10E08017910723
:10275000D9F49091C7019217B9F48C818823A1F024
:102760002091C90130E028503040F090C801EE249B
:102770002E0D3F1DE881F981892F942F6CEB71E0BC
:102780004CEC51E0099531E00894C11CD11C259610
:102790008091B60590E0C816D9068CF2832FDF91A0
:1027A000CF911F910F91FF90EF90DF90CF90089500
:1027B000DC01FB0186E001900D928150E1F7089564
:1027C0009C01FB0180819181A281B381F901808309
:1027D0009183A283B38308950F931F93CF93DF93C5
:1027E0008C01EB0180E06115710509F081E0F801D1
:1027F0008283882341F00E94AC062197C60FD71F21
:10280000F801D183C083DF91CF911F910F9108957B
:10281000EF92FF920F931F93CF93DF93EC017B0115
:102820008A81882311F400E00FC0088119810E9479
:10283000AC06C801861B970B2AEE8136920710F46E
:1028400000E006C0082F0195CE01B7010E94EC13ED
:10285000802FDF91CF911F910F91FF90EF900895FE
:10286000782FE89865B121E030E040E050E000903A
:10287000510104C0220F331F441F551F0A94D2F781
:10288000322F822F8095862385B99EBD0DB407FE19
:10289000FDCF4EB57EBD0DB407FEFDCF2EB5942FF6
:1028A00080E045B1342B35B9E89A30E0282B392B3C
:1028B000C90108958091B7059091B8058F709093E4
:1028C000B8058093B7058091B7059091B8058860E9
:1028D0009093B8058093B7058091B7059091B8059E
:1028E0000E943014089580910E06873009F059C077
:1028F00090911206992399F080911106891728F476
:1029000080911106873408F44CC084E080930E0651
:1029100081E090E09093BF058093BE059AC08091BE
:10292000C2052091110690E0049630E082179307CB
:1029300024F0809111068734A0F184E080930E0684
:102940008091C205833430F081E090E09093BF0520
:102950008093BE058091C10586FF12C080910D064F
:10296000282F30E0C9018F7190704F9749F0809106
:10297000C10590E0822793278F719070892B89F48D
:102980008091BE059091BF05892B09F056C0E0915A
:102990000B06F0910C06309709F44FC080E00995C2
:1029A00058C080910E06843011F080E00895109296
:1029B000C2058091C205809311068FEF9FEF90931F
:1029C000BF058093BE0520910F062223D9F08227F0
:1029D000282F22952827022E269526952025022E7F
:1029E000269520252770082E892F26950794279550
:1029F000902D822706942795902582279093BF05D6
:102A00008093BE0587E080930E0681E08093BC052D
:102A100083EA94E90E9430148091B7059091B8053B
:102A2000886D9093B8058093B7058091B705909114
:102A3000B8050E94301480E008958FEF9FEFAFEF4C
:102A4000BFEF8093070690930806A0930906B09302
:102A50000A0681E008950F931F93082F10E0C80124
:102A6000966C0E94301498012F7730702F5F3F4F83
:102A7000442737FD4095542F6BEF72E485E090E0DA
:102A80000E94771DCA01B901000F012F001F110B11
:102A9000980143E0220F331F4A95E1F7201B310BC9
:102AA0002F5F3F4F442737FD4095542F0E94771DDD
:102AB00093E056954795379527959A95D1F72D57D9
:102AC0003C4F4F4F5F4FCA01B90124E833E040E06B
:102AD00050E00E94771D2093BD051F910F9108952E
:102AE00080910E06843069F080910E06873059F48B
:102AF00080911106882339F40E945A1484E080934F
:102B00000E0681E0089580E00895982F86FD05C0A7
:102B1000907E80910D068F71980F9093C105E09182
:102B20000B06F0910C06309711F081E009958FEFBC
:102B30009FEF9093BF058093BE058091BE05909155
:102B4000BF0520910F068227282F22952827022EC5
:102B5000269526952025022E269520252770082EBD
:102B6000892F269507942795902D822706942795DF
:102B7000902582279093BF058093BE0588E08093BF
:102B80000E068091B7059091B80588639093B805BB
:102B90008093B7058091B7059091B8050E943014D5
:102BA0000895DF92EF92FF920F931F937B018C01A8
:102BB000DD2405C0D39416950795F794E7948FEF1D
:102BC000E816F1040105110509F0A0F78091B70599
:102BD0009091B80581FF0FC08091B7059091B8051D
:102BE0008D7F9093B8058093B7058091B70590913C
:102BF000B8050E943014E114F10401051105B9F083
:102C0000C701906E3D2D20E0822B932B0E94301443
:102C10008091B7059091B80582609093B805809334
:102C2000B7058091B7059091B8050E9430141F91A7
:102C30000F91FF90EF90DF900895E89885B121E023
:102C400030E040E050E00090510104C0220F331FFB
:102C5000441F551F0A94D2F7322F922F9095982334
:102C600095B91EBC0DB407FEFDCF6EB51EBC0DB4EC
:102C700007FEFDCF2EB5962F80E0622F70E0682B07
:102C8000792B77FF0FC080910E06873059F48CB5F1
:102C900081608CBD1EBC0DB407FEFDCF2EB58CB57A
:102CA0008E7F8CBD85B1382B35B9E89A7093BA0503
:102CB0006093B9058091B9059091BA0597FFECC072
:102CC00080910E06873009F082C08091110688231A
:102CD00071F490910F06992351F080911106E82F1D
:102CE000F0E0E054FA4F90838F5F8093110680915B
:102CF0001106E82FF0E0E054FA4F20838F5F8093B5
:102D000011068091BE059091BF058227282F22953C
:102D10002827022E269526952025022E2695202549
:102D20002770082E892F269507942795902D8227A6
:102D300006942795902582279093BF058093BE0522
:102D40002091BC05233040F58091110690E0609100
:102D5000BD05029770E00E94641D892BE9F4809103
:102D6000B9059091BA05E22FF0E090FF04C0E35757
:102D7000FE4F808104C0E357FE4F808182958F70A3
:102D80008093BC05833040F490E0880F991F019632
:102D9000806A94690E94301490911206992329F058
:102DA00080911106891780F40AC08091C205209194
:102DB000110690E0049630E0821793072CF0809182
:102DC0001106873408F468C00E945A1465C08091C7
:102DD0000E0687FF2EC0E091C20580910E068F5F20
:102DE00080930E068150ED5FE80FF0E0E054FA4F5B
:102DF000E0818091BE059091BF058E27282F2295F6
:102E00002827022E269526952025022E2695202558
:102E10002770082E892F269507942795902D8227B5
:102E200006942795902582279093BF058093BE0531
:102E30002EC080910E068F5F80930E0681508330E6
:102E400019F184302CF4882399F08130F9F416C0FC
:102E50008B3019F08C30D1F402C0EDE218C0E09153
:102E60000F069091C2058EEF891B80930E060FC04E
:102E70008091BE059091BF05E82F09C08091BE05E5
:102E80009091BF05E92F03C00E945A14EAEA8E2FE1
:102E900090E0986B0E9430148091B9059091BA052A
:102EA00096FF03C086E080930E068091B90590914D
:102EB000BA0594FF09C060E070E080E090E00E94F5
:102EC000D11581E08093BB058091B9059091BA0539
:102ED00095FF05C00E945A1484E080930E06089561
:102EE0001F93182F4093C20523EC35E0C90150E031
:102EF0000E947801812F0E9485151F9108950F93DC
:102F00001F93CF93DF93182FEB01042F02C00E9471
:102F100073140E9470158823D1F3812FBE01402FB6
:102F20000E947017DF91CF911F910F9108958091AA
:102F30000D0690E08F719070892B41F080E06DE17B
:102F400076E140E050E00E945D1A089580E00E9422
:102F5000801A08951F9380930D0640930F06609387
:102F600010060E94971710921206E89885E092E8E2
:102F70009093B8058093B7058091B7059091B805F7
:102F80000E9430148091100690E074E0880F991F21
:102F90007A95E1F7876C90680E94301480E496EA95
:102FA0000E94301486E00E942B1582EA94E90E9468
:102FB00030148CEA92EC0E94301410910F06112309
:102FC00041F083E89AEC0E943014812F90E09E6CCF
:102FD00006C08BE89AEC0E9430148DE29EEC0E94B1
:102FE000301483E894EC0E94301480E598E90E9444
:102FF000301487E79CEC0E94301480E090EE0E9431
:10300000301480E098EC0E94301489E490EC0E9427
:10301000301484E080930E06E89A1F91089525B13C
:1030200081E090E0A0E0B0E00090510104C0880F82
:10303000991FAA1FBB1F0A94D2F7282B25B924B1C8
:10304000822B84B98AE061E00E948D078AE061E00A
:103050000E944E078BE061E00E944E078CE060E02A
:103060000E944E078DE061E00E944E0780E58CBD16
:103070008DB581608DBD82E060E00E944E0782E0E8
:1030800061E00E948D070895FF920F931F93182F00
:10309000062FF42E80930D0640930F0660931006C2
:1030A0000E940F180E94971782E89AEC0E94301431
:1030B00080E09EEF0E94301485E080930E0683B777
:1030C000817F06C083B7816083BF889583B78E7F79
:1030D00083BF80910E068530A9F3812F602F4F2D7D
:1030E0000E94AA1780910D061F910F91FF900895DD
:1030F0008F929F92AF92BF92CF92DF92EF92FF9208
:103100000F931F93CF93DF937B018C01EA012CE394
:1031100030E040E050E00E94771D6883C801B701AD
:103120002CE330E040E050E00E94771D122F032F87
:10313000F42EE52E622F732F842F952F2CE330E091
:1031400040E050E00E94771D6983612F702F8F2D22
:103150009E2D2CE330E040E050E00E94771D122FBE
:10316000032FF42EE52E622F732F842F952F28E145
:1031700030E040E050E00E94771D6A83612F702F9D
:103180008F2D9E2D28E130E040E050E00E94771D19
:1031900079018A01C801B7016C5F7F4F8F4F9F4F44
:1031A00027E030E040E050E00E94771D6F5F6B83C6
:1031B00020E0AA24BB24650101C02F5F822E992440
:1031C000F401EE54F84FCF0183709070892B99F47D
:1031D000CF0164E670E00E94641D892B39F4CF01B1
:1031E00060E971E00E94641D892B29F48EE691E06C
:1031F000A0E0B0E004C08DE691E0A0E0B0E0A80E51
:10320000B91ECA1EDB1EC501A0E0B0E0E816F90633
:103210000A071B0790F62E83F401EE54F84F83E063
:10322000882E912C8E229F228114910499F4CF0133
:1032300064E670E00E94641D892B39F4CF0160E9D7
:1032400071E00E94641D892B29F48EE691E0A0E0D4
:10325000B0E004C08DE691E0A0E0B0E0A81AB90AA1
:10326000CA0ADB0A980187010A191B092C093D09C2
:10327000CF0164E670E00E94641D7C01CF0160E92B
:1032800071E00E94641DAC01E0E9F1E060E06130B2
:1032900051F48114910449F4E114F10441F441150D
:1032A000510529F002C0808103C08CE101C08DE18D
:1032B00090E0A0E0B0E0081719072A073B0740F0AC
:1032C000081B190B2A0B3B0B6F5F31966C30F9F61C
:1032D0006F5F6D83802F8F5F8C83DF91CF911F9104
:1032E0000F91FF90EF90DF90CF90BF90AF909F90A5
:1032F0008F900895EF92FF920F931F937B018C01A3
:103300008091290690912A06A0912B06B0912C0657
:10331000E816F9060A071B0771F0C801B7014EE16C
:1033200056E00E947818E0922906F0922A0600934F
:103330002B0610932C061F910F91FF90EF9008958C
:103340000E947A192091240630E02E54384FC9018A
:1033500008950E947A198091230690E008950E94B2
:103360007A198091220690E008950E947A1980913E
:103370001E0690E008950E947A1980911F0690E041
:1033800008950E947A198091200690E00895609334
:1033900015067093160680931706909318062091D1
:1033A0005201309153014091540150915501260F23
:1033B000371F481F591F2093190630931A06409350
:1033C0001B0650931C0682E080931D060E94AC06EB
:1033D000609325067093260680932706909328060F
:1033E0000895EF92FF920F931F931CC02F5F3F4FE2
:1033F0004F4F5F4F209315063093160640931706E4
:103400005093180688EE93E0A0E0B0E0E80EF91EB5
:103410000A1F1B1FE0922506F0922606009327063E
:10342000109328060E94AC06E0902506F090260630
:1034300000912706109128066E197F09800B910BC9
:1034400020911506309116064091170650911806E6
:10345000685E73408040904048F6809119069091D4
:103460001A06A0911B06B0911C06281739074A07B7
:103470005B07B0F0E0911306F0911406309781F0ED
:103480000995611571058105910519F00E94C7190B
:1034900007C090E080911D06811191E090931D0678
:1034A0006091150670911606809117069091180686
:1034B0001F910F91FF90EF900895823000F5E82F53
:1034C000F0E0EE0FFF1FE35DF94F71836083882307
:1034D00019F08130A1F408C0809169008C7F842BA1
:1034E00080936900E89A089580916900440F551F00
:1034F000440F551F837F842B80936900E99A0895B8
:10350000823080F4882319F0813021F402C0E898D9
:1035100001C0E998E82FF0E0EE0FFF1FE35DF94FDF
:103520001182108208951F920F920FB60F921124EC
:103530002F933F934F935F936F937F938F939F93BB
:10354000AF93BF93EF93FF9380912D0690912E063A
:10355000892B29F0E0912D06F0912E060995FF9117
:10356000EF91BF91AF919F918F917F916F915F91FB
:103570004F913F912F910F900FBE0F901F90189574
:103580001F920F920FB60F9211242F933F934F93D8
:103590005F936F937F938F939F93AF93BF93EF93BB
:1035A000FF9380912F0690913006892B29F0E091AE
:1035B0002F06F09130060995FF91EF91BF91AF91E1
:1035C0009F918F917F916F915F914F913F912F913B
:1035D0000F900FBE0F901F901895DF93CF9300D0E0
:1035E00000D000D0CDB7DEB7DE011196ECE9F1E0F6
:1035F00086E001900D928150E1F786E191E0E2EAE8
:10360000F1E0DF019C011D9221503040E1F78091F3
:103610003106833019F46DE675E003C0BE016F5FBB
:103620007F4F84E490E043E450E00E942F0F8091AC
:103630003106833039F082EA91E0BE016F5F7F4F3F
:103640000E94D81381E08093CC018093CD0186E065
:103650008093CE0180913E0690913F06A091400656
:10366000B09141068093D0019093D101A093D201F3
:10367000B093D30180913106833039F48CEC91E022
:103680000C9661E675E00E94E01388EE91E06BE530
:1036900075E00E94D813A8EBB2E0E7E6F1E002C0C3
:1036A00081918D9331E0ED36F307D1F7909131069A
:1036B000992311F083E001C081E08093BE028DE385
:1036C0008093BF0287E08093C00281E08093C102B3
:1036D000A2ECB2E0EBE5F5E002C081918D9385E0CC
:1036E000E136F807D1F78CE08093C8028AE0809336
:1036F000C902AAECB2E0E6E5F1E002C081918D9347
:1037000021E0E036F207D1F724ED32E030934306B2
:1037100020934206913069F582E38093D40284E0DD
:103720008093D502D9011296E1E6F5E002C08191BD
:103730008D9335E0E536F307D1F786E38093DA021F
:1037400084E08093DB028CED92E0909343068093BB
:103750004206DC01EDE6F5E002C081918D9385E043
:10376000E137F807D1F780EE92E09093430680931B
:1037700042062091420630914306D901E1E6F1E08C
:1037800002C081918D9381E0E736F807D1F7C90136
:10379000069690934306809342068C5C91400E946B
:1037A000A71026960FB6F894DEBF0FBECDBFCF91FF
:1037B000DF910895EF92FF920F931F93CF93DF93C2
:1037C000EC0180913106823009F4E0C0833030F49E
:1037D000882351F1813009F03DC14AC0833021F086
:1037E000843009F037C1D2C00E94AC062091360661
:1037F000309137064091380650913906E0903206F4
:10380000F090330600913406109135062E0D3F1DC1
:10381000401F511F621773078407950708F41AC1E8
:103820000E94ED1A84E017C00E94AC0660933E0629
:1038300070933F0680934006909341061092610575
:103840001092620510926305109264050E94ED1AB1
:103850000E94180C81E0809331060E94AC066093B0
:103860003A0670933B0680933C0690933D06F2C067
:10387000C634D10508F4B2C08091C501833409F083
:10388000ADC08091CC01823009F0A8C02091D00158
:103890003091D1014091D2015091D30180913E06E7
:1038A00090913F06A0914006B09141062817390734
:1038B0004A075B0709F092C08091BC02853309F08A
:1038C0008DC08091BE02823009F088C0A6C0DF01A1
:1038D0001196E180ED01219680818630A9F0873034
:1038E00030F4813059F0833009F045C00AC0863386
:1038F000E9F18A3361F08333F1F509C085E695E09B
:1039000037C089E695E034C081E795E031C0119673
:103910006C9170E080E090E0982F872F762F6627DB
:103920002981620F711D811D911D982F872F762F80
:1039300066272A81620F711D811D911D982F872F87
:10394000762F66272B81620F711D811D911D28EE38
:1039500033E040E050E00E94311D609336067093E2
:103960003706809338069093390605C08DE695E0BA
:10397000BE010E94E013FE01EE0DF11DE017F107FC
:1039800008F4A5CF0E94ED1A82E065CFC634D105B8
:1039900028F18091C501833409F58091CC018230F2
:1039A000E9F42091D0013091D1014091D2015091A0
:1039B000D30180913E0690913F06A0914006B091C0
:1039C0004106281739074A075B0741F48091BC027A
:1039D000853321F48091BE02853059F10E94AC06F6
:1039E00020913A0630913B0640913C0650913D06AD
:1039F000205F384D4F4F5F4F26173707480759074D
:103A000048F028C089E695E00E94950F83E08093F6
:103A1000310620C0109231061DC081E695E06CEDA4
:103A200071E00E94E013ECEBF2E08E010E551E4FA8
:103A30004ECF0E94130C0E94AC0660933206709326
:103A40003306809334069093350680916905882368
:103A5000E9F2D8CFDF91CF911F910F91FF90EF90B6
:103A60000895629FD001739FF001829FE00DF11DC8
:103A7000649FE00DF11D929FF00D839FF00D749FE8
:103A8000F00D659FF00D9927729FB00DE11DF91F94
:103A9000639FB00DE11DF91FBD01CF0111240895F1
:103AA000AA1BBB1B51E107C0AA1FBB1FA617B70764
:103AB00010F0A61BB70B881F991F5A95A9F7809580
:103AC0009095BC01CD01089597FB092E07260AD0D9
:103AD00077FD04D0E5DF06D000201AF470956195DB
:103AE0007F4F0895F6F7909581959F4F0895A1E235
:103AF0001A2EAA1BBB1BFD010DC0AA1FBB1FEE1F68
:103B0000FF1FA217B307E407F50720F0A21BB30BB2
:103B1000E40BF50B661F771F881F991F1A9469F72E
:103B200060957095809590959B01AC01BD01CF018A
:103B30000895EE0FFF1F0590F491E02D0994F8947D
:023B4000FFCFB5
:103B42002067002069004D41433A20002900444F7C
:103B5200574E005550002047573A004F4B005741EF
:103B620049543441525000203D200045746820548D
:103B720058206572726F7200C0A80003C0A80001CD
:103B82007469692D3025C0A80019015000F6FF01A3
:103B92000A022C01000041726475696E6F2D30308B
:103BA200003703010306FF638253633501000000FF
:103BB200004902010ACC01000000005C09010AF27E
:103BC20008230903094C09FFFFFFFFFFFF340256D8
:103BD2001F1C1F1E1F1E1F1F1E1F1E1FFFFFFFFF7A
:023BE200FFFFE3
:00000001FF
